:020000040800F2
:1000000000800120E11600082D1700082D170008B8
:100010002D1700082D1700082D17000800000000FC
:100020000000000000000000000000002D17000884
:100030002D170008000000002D1700082D170008DC
:100040002D1700082D1700082D1700082D17000880
:100050002D1700082D1700082D1700082D17000870
:100060002D1700082D1700082D1700082D17000860
:100070002D1700082D1700082D1700082D17000850
:100080002D1700082D1700082D170008000000008C
:100090000000000000000000000000002D17000814
:1000A0002D1700082D1700082D1700082D17000820
:1000B0002D1700082D1700082D1700082D17000810
:1000C0002D1700082D1700082D1700082D17000800
:1000D0002D1700082D1700082D170008000000003C
:1000E0002D1700082D1700082D170008000000002C
:1000F0000000000000000000000000002D170008B4
:10010000000000002D1700082D1700082D1700080B
:1001100000000000000000000000000000000000DF
:100120002D1700082D1700082D1700082D1700089F
:100130002D17000800000000000000000000000073
:100140000000000000000000000000002D17000863
:100150002D1700082D1700082D1700082D1700086F
:100160002D1700082D1700080000000000000000F7
:10017000000000000000000000000000000000007F
:10018000000000002D170008000000000000000023
:100190002D17000810B5054C227832B9044B13B165
:1001A0000448AFF300800123237010BD680C0020C9
:1001B0000000000080BE000808B5034B1BB10349D6
:1001C0000348AFF3008008BD000000006C0C002065
:1001D00080BE0008134B002B08BF114B9D46A3F5B2
:1001E000803A00218B460F461148124A121A04F039
:1001F000C3FA0D4B002B00D098470C4B002B00D0BE
:1002000098470020002104000D000B4800F0C7FCB7
:1002100004F07CF82000290000F04CFF00F0BCFC4A
:10022000000008000080012000000000A510000868
:10023000680C0020180F0020913B000870B5BEB07C
:100240004FF41653032200930221002308A802F062
:100250004BFB1949194E1A4D37A803F03BFA6020A1
:1002600000F004FE044600F035F9164937A803F003
:1002700031FA314637A803F02DFA204600F0B8F8DD
:10028000D4E91623CDE90623D4E91423CDE90423C8
:10029000D4E91223CDE90223D4E910232946CDE97C
:1002A000002337A8D4E90E2303F014FA4FF080405E
:1002B00003F0D8F8DDE700BFC0AE0008E9AE0008E3
:1002C000F1AE0008D2AE000838B51C2204460D4637
:1002D000002104F051FA2046294602F0ADFA2046EA
:1002E00038BDC36810B504460BB19B6898472046DB
:1002F00010BD704710B5044600F0CCFD204610BD7F
:1003000038B50546044655F8043B9B68984728468F
:1003100000F050F923680546DB68204698472846D8
:1003200038BD10B504460069FFF7EAFF09F01AFB73
:10033000D4E90223C4E9000109F0B4F9C4E90601D3
:1003400010BD10B504460069FFF7DAFF09F00AFB9B
:10035000C4E9020110BD000070B5D0E90935AB4217
:10036000044613DB214E062D23DCA3699A681B6823
:100370001360304603F076F8A369DA681B681B0443
:100380001360304603F06EF80135ECE783691748D7
:100390009A681B68136003F065F8A3691348DA686C
:1003A0001B681B04136003F05DF8636A013363622A
:1003B00070BDE3690D489A681B68136003F052F83A
:1003C000A3690A489A681B68136003F04BF8A36995
:1003D0000648DA681B681B04136003F043F8E369FE
:1003E000DA681B681B0413600023E0E70AD7A33B0D
:1003F000F8B50446FFF7B0FF124E04F130070025B0
:10040000A36AAB421DDD54F82500FFF79AFF236A6B
:10041000DA681B681B041360304603F023F854F8B5
:100420002500FFF77EFF236A9A681B68E7E8020150
:100430001360304603F016F82046FFF78DFF0135B4
:10044000DEE7F8BD0AD7A33B034610B553F8042BEB
:10045000044612B90360206810BD9A42FBD06622A0
:100460000249034802F090FEF5E700BF30AF0008F4
:1004700050AF000808B50248FFF7E6FF08BD00BF0F
:10048000B40C002008B50248FFF7DEFF08BD00BF2E
:10049000B40C00202DE9F04105465020884600F0BC
:1004A000E5FC0446094B0A4F44F8043B064638462F
:1004B000FFF7CAFF4146204600F08CF83846FFF7A8
:1004C000C3FF2E612846BDE8F08100BF20AF0008C1
:1004D000B40C002038B50446202000F0C7FC2021D1
:1004E0000546FFF7D7FF2560202000F0BFFC002164
:1004F0000546FFF7CFFF6560202000F0B7FC012123
:100500000546FFF7C7FFA560202000F0AFFC0421DF
:100510000546FFF7BFFFE560202000F0A7FC102193
:100520000546FFF7B7FF2561202000F09FFC212141
:100530000546FFF7AFFF65611C2000F097FC2E21F8
:100540000546FFF7C1FEA5611C2000F08FFC2F219E
:100550000546FFF7B9FEE5611C2000F087FC054663
:100560002321FFF7B1FE2B68EA6825621B041360A4
:10057000E3690F4D9A681B681360284602F072FF0A
:10058000A3699A681B681360284602F06BFFA36991
:10059000DA681B681B041360E369DA681B681B04D4
:1005A000136000230622C4E90932204638BD00BF8B
:1005B0000AD7A33B08B500F07BF807EE900AB8EE27
:1005C000677ADFED037A67EE277A17EE900A08BDA7
:1005D00001088039A1F1F0039BB20F2B73B50446DB
:1005E0000D4649D92A49284602F034FA28492060A4
:1005F000284602F053FA26490646284602F0E0F95A
:100600002368013304D13C222249234802F0BCFD77
:10061000731C04D13D221F49204802F0B5FD012280
:10062000E26121681E4AA4F848500023C6F304364C
:10063000914284F84A6023646360A3602361A361EC
:1006400023626362E362A362E360236363610AD1AE
:100650000193144B5A6C42F480725A645B6C03F43D
:1006600080730193019B204601F07EF810B10E4883
:1006700002F0ACFE02B070BD0C49284602F0EAF967
:100680000A492060284602F009FA0646B8E700BF8A
:1006900064AF0008D8B0000848B1000872B1000883
:1006A00000200140003802408BB1000818B000085B
:1006B0001FB5044610220021684604F05DF894F846
:1006C0004A20012301930293122A47D8DFE802F05F
:1006D0000C0B0A232527292B2D2F31333537393B96
:1006E0003D424400022300931D4A536823F4400313
:1006F00069465360204601F08FF9204601F0D8F892
:100700000A21204601F034F940BB204601F080F96F
:1007100080B204B010BD0323E5E70423E3E705231B
:10072000E1E70623DFE70723DDE70823DBE709230B
:10073000D9E70A23D7E70B23D5E70C23D3E70D230B
:10074000D1E70E23CFE70F23CDE710230093072334
:100750000293C9E71123F9E71223F7E70020D8E74E
:100760000023014030B5036891FAA1F4B4FA84F48F
:1007700091FAA1F10325B1FA81F1640005FA04F4BC
:10078000490023EA040302FA01F11943016030BD74
:100790007FB50023072855D8DFE800F00413202D8B
:1007A0003A54544700932A4B2A481A6B42F00102EC
:1007B0001A631B6B03F001030093009B07B05DF805
:1007C00004FB0193224B24481A6B42F002021A6385
:1007D0001B6B03F002030193019BEFE702931C4B99
:1007E0001E481A6B42F004021A631B6B03F00403E9
:1007F0000293029BE2E70393154B19481A6B42F0F0
:1008000008021A631B6B03F008030393039BD5E7ED
:1008100004930F4B13481A6B42F010021A631B6BC0
:1008200003F010030493049BC8E70593084B0E489C
:100830001A6B42F080021A631B6B03F0800305936E
:10084000059BBBE7094802F0C1FD0020B6E700BFE9
:10085000003802400000024000040240000802404C
:10086000000C024000100240001C0240A1B1000830
:10087000431C10B5044604D176220649064802F00E
:1008800083FC2046002100F039FC04F00F04012015
:10089000A04010BDC2B100081CB2000870B50446EB
:1008A0004B1C0E46218216D0C1F30310FFF770FFD8
:1008B00005463046FFF7DCFF238A074A656103F0EF
:1008C0000F03206052F82330A36105F1100318359F
:1008D0006360A560E56070BD70B30008B0F91000FA
:1008E00000F0A4BC0A4619B981694069FFF73ABF14
:1008F0000122F9E708B501F0D9FE002008BD00008B
:1009000008B50A4B1B684BB102F04CF802F0E4FB4F
:100910004FF47A72002309F055FB08BD01F026FF61
:100920004FF47A73B0FBF3F008BD00BF840C0020D5
:1009300010B588B002F0F0FB052101A801F07CFFA2
:100940000424039B019A1A60962002F099FD019BF2
:10095000049A1B041360962002F092FD013CF0D132
:100960000424039B019A1A604FF4C87002F088FDBA
:10097000019B049A1B0413604FF4C87002F080FDC1
:10098000013CEED1DCE7000070B50D46A0B0044696
:1009900002F0C2FB2B4622468021684605F018FE75
:1009A000051E03DC02F0CEFB20B070BD094B1B68B6
:1009B00023B903220221084800F002FD064E00245C
:1009C0001DF804103046013400F078FEA542F7D13E
:1009D000E8E700BFA00C0020C00D00200FB407B551
:1009E00004A951F8040B0191FFF7CEFF03B05DF8A5
:1009F00004EB04B07047000008B501F005FE00F0FC
:100A000097FE01F0F1FD01F0FFFD024B01221A609B
:100A100008BD00BF840C002000207047036801223D
:100A20001B6900211847036800221B6911461847FB
:100A300003681B69184703689B69184703689B6A2A
:100A4000184700290CBF6FF01800002070470120E4
:100A500070471120704770476FF01C0070476FF0AF
:100A60001500704701207047002070477047000054
:100A7000F8B5074E15460C468F18BC4205D014F841
:100A8000011B304600F01AFEF7E72846F8BD00BF0C
:100A9000C00D002038B58DB215F0010405D008480E
:100AA00000F01CFC041C18BF0124EB0605D504480B
:100AB00000F02AFC08B144F01004204638BD00BF05
:100AC000C00D002010B5044603F0C4FC204610BD44
:100AD00010B50C462AB1044800F0DEFD207001205C
:100AE00010BD104610BD00BFC00D002038B51D461A
:100AF000074B0360074B1B68044633B9064800F0F8
:100B00005FFC2946044800F035FC204638BD00BF94
:100B100038B20008A00C0020C00D00200020704753
:100B20000020704708B5012000F036F80C4A136821
:100B300010B51844EFF30881884205D3094B0C2205
:100B40001A604FF0FF3010BD07490C6824B1074907
:100B5000096821448842F1D21060184610BD00BFD8
:100B60009C020020140F0020980C00209C0C0020F8
:100B7000074C08B523680546986802F021FF2368F2
:100B8000D86802F01DFF0DB1FFF7D2FEFEE700BFEF
:100B9000A80200200120704708B5FFF7E9FF0120F7
:100BA0007047002103F0E4BE7047704708B5FFF7B7
:100BB000FBFF08BD08B5FFF7F8FF08BD10B50378C7
:100BC00003F00303012B04460CD02BB140F2A952D1
:100BD0000549064802F0D8FA237843F0020323704F
:100BE000012010BD002010BD9DB20008F4B2000825
:100BF00010B5037803F00303022B044605D040F23E
:100C0000B1520549054802F0BFFA237823F00303E7
:100C100043F00103237010BD9DB200081AB3000811
:100C20003F2870B504462FDC184D55F820305A1C6B
:100C300013D1022811DCFFF773FF034658B9204691
:100C4000FFF76CFF034630B9114E3378BFF35B8F6B
:100C5000DB0704D50F4B45F82430184670BD3046ED
:100C6000FFF7ACFF0028F5D04FF416530322022102
:100C70000848FFF73BFF3046FFF7BAFF064A07492F
:100C80000448FFF787FFE5E70023E6E79C01002023
:100C9000880C0020940C0020980100206D0A0008A8
:100CA00038B50546FFF7BCFF0B4B002443F8254041
:100CB00030B902F073FD092303604FF0FF3038BDF7
:100CC00003685B699847051E04DA02F067FD6D4210
:100CD0000560F2E7204638BD9C010020FFF7E0BF29
:100CE00038B50C461546FFF79BFF38B902F056FDA4
:100CF000092303604FF0FF34204638BD03682146C6
:100D0000DB682A469847041EF6DA02F047FD644283
:100D10000460EFE708B5131E06DA02F03FFD162364
:100D200003604FF0FF3008BD04D0FFF7D9FF40EA61
:100D3000E07008BD184608BD38B50C461546FFF7EB
:100D40006FFF38B902F02AFD092303604FF0FF342A
:100D5000204638BD036821469B682A469847041EF2
:100D6000F6DA02F01BFD64420460EFE7002A08B5E2
:100D700003DBBDE80840FFF7DFBF02F00FFD1623DD
:100D800003604FF0FF3008BD10B5FFF749FF044680
:100D900028B902F003FD09230360204610BD036853
:100DA000DB699847041EF8DA02F0F8FC644204603C
:100DB0000024F2E71FB504220C4640230DEB02018C
:100DC00001900DF109008DF8083003F0D3FB2146A6
:100DD00002A802F03DFF044630B10198FFF7D4FFAE
:100DE00010B12046FFF7DDFE204604B010BDFFF72E
:100DF000CBBF38B50C461546FFF712FF38B902F0E5
:100E0000CDFC092303604FF0FF34204638BD036852
:100E100021461B692A469847041EF6DA02F0BEFCFA
:100E200064420460EFE7FFF7E4BF38B50D46FFF713
:100E3000F7FE044630B902F0B1FC092303604FF01D
:100E4000FF3038BD0368DB699847002814BF4FF4B2
:100E500000534FF400436B60236820469B6A984719
:100E60002861002038BDFFF7E0BF000037B5054618
:100E700003F0E8FA044630B9009003462A460349D5
:100E8000034802F0C5FA204603B030BD80B2000826
:100E90001F01018003F0DEBA10B504460948FFF7D0
:100EA000D3FA0023084A194652F82300A04208BF8B
:100EB00042F823100133402BF6D10248FFF7C4FA61
:100EC00010BD00BF8C0C00209C01002010B50F4805
:100ED000FFF7BAFA0E4B032453F824206AB1013409
:100EE000402CF9D102F05AFC182303600748FFF7A1
:100EF000ABFA4FF0FF34204610BD4FF0FF320348ED
:100F000043F82420FFF7A0FAF5E700BF8C0C00207F
:100F10009C01002010B50446FFF7D8FF0028A4BFAD
:100F2000014B43F8204010BD9C01002070B50646DF
:100F30000C46FFF7EFFF054690B12146FFF73AFF59
:100F4000044630B9074B53F82520964203D143F8A5
:100F50002500204670BD02F021FC09230360F8E75C
:100F60000446F6E79C0100200EB42DE9F04185B05F
:100F70000546FFF7ABFF041E13DB0023294602A83A
:100F8000019302F013F902A802F062F91B4D064624
:100F900068B902F003FC1323036045F824604FF0A6
:100FA000FF34204605B0BDE8F04103B0704702A809
:100FB00002F03CF9074602A837B102F040F901906F
:100FC000019B45F82430ECE702F027F9064600289B
:100FD000DFD0036802A8D3F8088002F013F90B9B56
:100FE000024601A93046C04706460028E8D002F074
:100FF000D5FB7642066045F82470D0E79C010020BE
:1010000073B50E461849054603F0AEFD044620B9F7
:10101000FFF706FE204602B070BD1449284603F0D3
:10102000A3FD20B90120FFF7FBFD0124F2E71049E1
:10103000284603F099FD20B90220FFF7F1FD0224B4
:10104000E8E72B78402B07D10422691C0DEB020046
:1010500003F090FA019CDDE726F400412846FFF7F3
:1010600083FF0446D6E700BF61B3000868B30008F9
:1010700059B3000870477047074B08499A680848F9
:1010800010B5043A52F8044F41F8044F8142F9D1A7
:101090004FF000529A6010BD00ED00E0FCFFFF1F12
:1010A0009001002008B5FFF7E7FFFFF7A5FCFFF769
:1010B000E2FF08BD08B5FFF7DDFFBDE80840FFF718
:1010C000BDB830B5C36891FAA1F4B4FA84F491FACA
:1010D000A1F10325B1FA81F1640005FA04F4490095
:1010E00023EA040302FA01F11943C16030BD012A69
:1010F00002D0022A18BF0022FFF7E3BF2DE9F0411A
:101100000E46411C044604D13E224449444802F0A4
:101110003BF804F00F08434BC4F3031053F8285076
:10112000FFF736FB06F007070446836895FAA5F13A
:10113000B1FA81F195FAA5F20320490000FA01F114
:10114000B2FA82F223EA01035200022101FA02F20A
:101150001343A36087425AD8DFE807F05E1D021DE3
:10116000B8F1070FC6F303203BD9626A2B0A93FA42
:10117000A3F1B1FA81F193FAA3F34FF00F0EB3FA92
:1011800083F389000EFA01F19B0022EA010200FAC2
:1011900003F3134363623B46226895FAA5F0B0FA65
:1011A00080F095FAA5F14FF0030EB1FA81F14000FD
:1011B0000EFA00F0490022EA00028B40013F13437F
:1011C000012F236005D8636832074CBF2B43AB4324
:1011D0006360C6F3011229462046BDE8F041FFF7DF
:1011E00086BF226A95FAA5F3B3FA83F395FAA5F1BF
:1011F0004FF00F0EB1FA81F19B000EFA03F3890054
:1012000022EA030200FA01F313432362C3E76722D1
:101210000249054801F0B8FF0023BDE7B0B300085C
:101220001CB2000870B3000840B80008431C70B539
:1012300006460D4604D188221B491C4801F0A4FF34
:1012400006F00F021A4BC6F3031053F82240FFF7C3
:101250009FFA04FB04F2016802EB42030B40B3FB6C
:10126000F2F3013B012B05D8EB1E022B436809D892
:1012700023434360032D08D101222146BDE870407D
:10128000FFF735BF23EA04034360012DF4D0052D99
:1012900001D0022D01D10222EFE721460022BDE854
:1012A0007040FFF70EBF00BFB0B300081CB20008CB
:1012B00070B300080FB407B5064B07491B6805AAB1
:1012C000D868019205F00CF903B05DF804EB04B0A6
:1012D000704700BFA802002008B400084368094A0C
:1012E0009B0182B0D3581A68120706D500220192DA
:1012F0001A6801925A680192019A1868C0F3401066
:1013000002B070470C0E00204368034A9B01D3587B
:101310001868C0F3C01070470C0E002042681449D2
:10132000920110B404685450531882685A60C2681D
:101330009A600269DA6042691A61026A9A6100225F
:10134000DA84DA619A84DA859A85B0F91A20013252
:1013500006D108225A6118465DF8044B01F05DB8C9
:10136000B0F9182001320CBF04220C22F2E700BFB2
:101370000C0E002010B581600C46FFF7CFFF28B19E
:1013800021460348BDE81040FFF794BF10BD00BFE1
:1013900008B40008094B98420BD0A3F54C4398427F
:1013A00009D003F5504398420CBF02204FF0FF30A4
:1013B0007047002070470120704700BF00100140B7
:1013C000F0B50E4685B0044645493046154601F055
:1013D00041FB44490746284601F03CFB014638469C
:1013E00001F012FB2060013004D13D223E493F480C
:1013F00001F0CAFE022E0CD0032D0AD0384902207B
:1014000001F028FB874202D1394801F0DFFF0027B5
:1014100000E00127374B206898424FF0000340D18D
:101420000193354B5A6C42F010025A645B6C03F026
:1014300010030193019BFFF7ADFF0028606004DA01
:10144000A42229492D4801F09FFE2549304601F08C
:10145000B7FA2449284601F0B3FA721C03D00121DF
:101460003046FFF7E3FE6B1C03D001212846FFF74F
:10147000DDFE4FF41653A3600023E3602361636134
:101480002362268365832046FFF748FF3FB11C4B4C
:101490001C4801221A6021464C2203F06BF805B06B
:1014A000F0BD194A90420BD10293134B1A6C42F4CF
:1014B00000321A641B6C03F400330293029BBAE7F8
:1014C000124A9042B7D103930B4B5A6C42F0200260
:1014D0005A645B6C03F020030393039BABE700BFEC
:1014E00090B0000848B0000832B400088EB400087C
:1014F000AAB400080010014000380240DFB4000820
:10150000A00C0020C00D0020004400400014014049
:10151000002808DB4209012300F01F0003FA00F055
:10152000014B43F82200704700E100E000280DDB8A
:101530004309012200F01F0002FA00F02033044AA0
:1015400042F82300BFF34F8FBFF36F8F704700BF88
:1015500000E100E0F7B5FFF71DFF071E26DB144E84
:1015600056F8270010B3134CBD0163591A681206D0
:1015700006D5DB68190603D50F4B01211B68984778
:1015800063591A68920608D5DB68980605D50A4B98
:1015900056F827001B680021984763591A681107FD
:1015A00004D55A69D20744BF5B68019303B0F0BD0C
:1015B000A80C00200C0E0020A40C00200148FFF70E
:1015C000C9BF00BF001401400148FFF7C3BF00BFFF
:1015D000004400400148FFF7BDBF00BF00100140BC
:1015E000034B19604168034B43F82120704700BF4B
:1015F000A40C0020A80C002009C830B4204CA04244
:101600000AD004F58064A0421AD0A4F55044A04248
:1016100019D11C4C262001E01B4C25201B4D9B01A1
:10162000BAB1EA58D36889B943F02003D360184BA4
:1016300000F110029B6843F8224030BCFFF768BFFE
:10164000144C4720EAE700242046E7E743F08003F4
:10165000ECE7EB58DA6849B922F02002DA60DB687F
:1016600013F0800F09D130BCFFF760BF22F0800279
:10167000DA60DB6813F0200FF4E730BC704700BF7E
:1016800000100140C9150008D51500080C0E0020F7
:1016900000ED00E0BD15000838B544680546284651
:1016A000FFF71CFE0028FAD0A401034B1B59586811
:1016B000C0F3080038BD00BF0C0E002070B54568AF
:1016C00006460C463046FFF71FFE0028FAD0AD0153
:1016D000024B5B59C4F308045C6070BD0C0E002023
:1016E000DFF830D0002103E00B4B5B58435004314E
:1016F0000A480B4B42189A42F6D30A4A02E00023EA
:1017000042F8043B084B9A42F9D300F0C9FEFEF7B9
:1017100061FD7047008001208CBE00089801002008
:10172000680C0020680C0020180F0020FEE77047AE
:1017300008B50B4B1A6842F400721A601A6842F43A
:1017400080621A601A6842F480721A60032000F006
:10175000F9F90F20FFF7CEF8FFF7E9FF002008BDE9
:10176000003C02407047000010B50446002800F01D
:101770009980036C23B9436480F83C30FFF7F2FF93
:10178000236CDB0600F18C80236C23F4885323F058
:10179000020343F002032364434B5A6822F44032AD
:1017A0005A605A6861680A435A60236821695A6816
:1017B00022F480725A605A6842EA01225A605A68DA
:1017C000A16822F040725A605A680A435A609A68C7
:1017D000E16822F400629A609A680A439A60334989
:1017E000A26A8A4250D0996821F070619960996824
:1017F0000A439A609A68E16A22F040529A609A68B5
:101800000A439A609A68A16922F002029A609A6873
:1018100042EA41029A60226A002A3DD05A68616A0F
:1018200042F400625A605A6822F460425A605A6870
:10183000013942EA41325A60DA6AE16922F47002FF
:10184000DA62DA6A013942EA0152DA629A68216B95
:1018500022F400729A609A6842EA41229A609A6879
:10186000616922F480629A609A68002042EA8122CB
:101870009A606064236C23F0030343F00103236444
:10188000002384F83C3010BD9A6822F070629A60A0
:101890009A6822F04052B4E75A6822F40062CAE71C
:1018A0000120EDE7012010BD002301400100000FE1
:1018B00082B00023019390F83C30012B4ED00123DD
:1018C00080F83C3003689A68D10705D59A68D2073A
:1018D00014D4002002B070479A68214942F00102F6
:1018E0009A60204A1268B2FBF1F202EB42020192C6
:1018F000019A002AEAD0019A013AF8E7026C22F430
:10190000E06222F0010242F4807202645A685105DA
:1019100041BF026C22F4405242F480520264026CD5
:1019200012F480521CBF426C22F006024264002274
:1019300080F83C206FF022021A600B4A5268D206EF
:1019400008D1986810F04050C3D19A6842F08042A4
:101950009A60BFE7054A9342BBD1F2E70220B9E79C
:1019600040420F00A002002000230140002001405F
:1019700003689A6870B5560504460D460BD59B68FA
:10198000D80508D5236C43F020032364002384F892
:101990003C30012070BDFEF7B3FF064623681A688D
:1019A00092070CD56FF012021A60226C42F400729A
:1019B00022649A6812F0405F13D0002070BD691C49
:1019C000EDD045B9236C43F004032364002384F86D
:1019D0003C30032070BDFEF793FF801B8542DDD2B3
:1019E000F0E7A269002AE8D1DA6A12F4700F02D097
:1019F0009B685B05E1D4236C23F480732364206C23
:101A000010F48050D9D1236C43F00103236470BDDE
:101A10000368D86C70470000F7B50023019390F875
:101A20003C30012B00F083800D6804688A68012334
:101A3000092D80F83C30AEB22AD906EB4603E768A0
:101A40001E3B4FF0070E0EFA03FE27EA0E07E76073
:101A5000E76802FA03F33B43E3604A68062A4FEA69
:101A6000820325D81344676B591F1F238B4027EA35
:101A700003036363626B06FA01F1114361632D4B4B
:101A80009C4234D0002380F83C30184603B0F0BDAF
:101A9000276905EB45034FF0070E0EFA03FE27EA10
:101AA0000E072761276902FA03F33B432361D4E75A
:101AB0000C2A0ED81344216BA3F123021F23934059
:101AC00021EA03032363236B06FA02F21A4322631B
:101AD000D5E71344E16A413B1F229A4021EA020202
:101AE000E262E26A06FA03F11143E162C7E7122DEE
:101AF00004D1114A536843F480035360A5F11003E5
:101B0000012BBFD80C4A5368102D43F400035360D7
:101B1000B8D10A4B0A4A1B68B3FBF2F20A235343BB
:101B20000193019B002BADD0019B013BF8E7022004
:101B3000ACE700BF0020014000230140A0020020CC
:101B400040420F00074AD36823F4E0631B041B0CD8
:101B500043F0BF63000243F4003300F4E06003434A
:101B6000D360704700ED00E02DE9F341044618B959
:101B7000012002B0BDE8F0810368DD0710D42368BE
:101B8000980758D423681A0700F19A8023685B07E6
:101B900000F1B880A269002A40F019810020E8E72E
:101BA000A64B9A6802F00C02042A07D09A6802F049
:101BB0000C02082A0AD15B68590207D59F4B1B68A3
:101BC0009A03DCD56368002BD9D1D1E763689B4DBC
:101BD000B3F5803F11D12B6843F480332B60FEF7BF
:101BE0008FFE964D06462B689B03C8D4FEF788FEF1
:101BF000801B6428F7D90320BBE7B3F5A02F04D1DD
:101C00002B6843F480232B60E5E72A6822F48032B6
:101C10002A602A6822F480222A60002BDFD1FEF796
:101C20006FFE06462B689F03A9D5FEF769FE801B51
:101C30006428F7D9DFE7814B9A6812F00C0F07D0C0
:101C40009A6802F00C02082A11D15B685E020ED479
:101C50007A4B1A68950702D5E268012A88D11A687A
:101C6000216922F0F80242EAC1021A608AE7E268BA
:101C7000734BB2B101221A60FEF742FE6F4D064669
:101C80002B68980707D52B68226923F0F80343EAED
:101C9000C2032B6076E7FEF733FE801B0228EFD9E4
:101CA000A9E71A60FEF72CFE644D06462B689907DB
:101CB0007FF568AFFEF724FE801B0228F6D99AE76D
:101CC0006269604B7AB101221A60FEF719FE5B4D22
:101CD00006466B6F9F073FF559AFFEF711FE801B5D
:101CE0000228F6D987E71A60FEF70AFE534D06462A
:101CF0006B6F98077FF54AAFFEF702FE801B022844
:101D0000F6D978E74D4B1A6C12F0805228D1019227
:101D10001A6C42F080521A641B6C03F080530193DA
:101D2000019B0126484D2B68D9051BD5A368434D5F
:101D3000012B27D12B6F43F001032B67FEF7E0FD4A
:101D40003E4D074641F288382B6F9B0739D5002E50
:101D50003FF420AF394A136C23F08053136419E722
:101D60000026DFE72B6843F480732B60FEF7C8FD85
:101D700007462B68DA05D9D4FEF7C2FDC01B02283E
:101D8000F7D938E7052B04D12B6F43F004032B67F9
:101D9000D0E72A6F22F001022A672A6F22F004029C
:101DA0002A67002BCAD1FEF7ABFD41F288380746FF
:101DB0002B6F9807CBD5FEF7A3FDC01B4045F7D985
:101DC00019E7FEF79DFDC01B4045BDD913E71B4D2C
:101DD000AB6803F00C03082B3FF4CAAE1B4E002384
:101DE000022A336034D1FEF78BFD07462B68990138
:101DF0001ED4226AE3691343626A43EA8213E26AE9
:101E000043EA0263A26A0D4C5208013A43EA0243D4
:101E10006B6001233360FEF773FD054623689A016A
:101E20003FF5BCAEFEF76CFD401B0228F6D9E2E69A
:101E3000FEF766FDC01B0228D8D9DCE60038024058
:101E400000004742800E4742007000406000474259
:101E5000FEF756FD04462B689B017FF59FAEFEF70B
:101E60004FFD001B0228F6D9C5E600BF134908B58F
:101E70008B6803F00C03042B03D0082B03D010480D
:101E800008BD104808BD4A684B68496813F48003D0
:101E900014BF0C480A48C1F3881118BF002302F090
:101EA0003F02A1FB000108F08DF8044B5B68C3F30F
:101EB000014301335B00B0FBF3F008BD0038024082
:101EC0000024F40000127A002DE9F0410D4604468A
:101ED00010B90120BDE8F081444B1A6802F00F02EE
:101EE0008A4228D321688F072DD4C80740D43F4B9E
:101EF0001A6802F00F02954266D3226851076CD42B
:101F0000130707D53A4A2169936823F4604343EAEB
:101F1000C1039360FFF7AAFF354B364A9B68C3F3B2
:101F20000313D35CD840344B18600F20FEF7E2FC5B
:101F30000020BDE8F081CAB21A701B6803F00F03DD
:101F40009942C6D1CEE72A4B11F0040F1EBF9A6802
:101F500042F4E0529A600E0742BF9A6842F460422F
:101F60009A609A68A06822F0F00202439A60BCE787
:101F700062681F4B012A1DD11B6813F4003FA8D0D3
:101F80001B4EB36823F003031343B360FEF7B8FCA2
:101F900041F288380746B368626803F00C03B3EB7C
:101FA000820FA4D0FEF7ACFCC01B4045F3D9032040
:101FB000BDE8F081911E01291B6802D813F0007F53
:101FC000DDE713F0020FDAE7EAB21A701B6803F0DC
:101FD0000F039D427FF47DAF8FE70549E0688B6872
:101FE00023F4E05303438B608AE700BF003C0240C8
:101FF0000038024005B50008A0020020044B054A45
:102000009B68C3F38223D35C034A1068D8407047AF
:102010000038024015B50008A0020020044B054A14
:102020009B68C3F34233D35C034A1068D8407047BF
:102030000038024015B50008A00200200F230360FD
:102040000B4B9A6802F0030242609A6802F0F002B9
:1020500082609A6802F4E052C2609B68DB0803F475
:10206000E0530361034B1B6803F00F030B607047E1
:1020700000380240003C024070470000224A0368DA
:1020800090420ED0B0F1804F0BD0A2F57C4290422E
:1020900007D002F58062904203D002F58062904240
:1020A00019D14A6823F070031343174A904204D1B0
:1020B000CA6823F44073134318E0B0F1804FF7D09F
:1020C000124A9042F4D002F580629042F0D002F5BC
:1020D00080629042ECD00E4A9042E9D002F58062D4
:1020E0009042E5D002F580629042E1D003608B68B7
:1020F000C3620B688362044B984204BF0B6903639D
:1021000001234361704700BF00000140000400400C
:102110000040014010B50446A0B190F8393003F0FA
:10212000FF021BB980F83820FFF7A6FF022384F8CE
:1021300039302068211DFFF7A1FF012384F83930D1
:10214000002010BD012010BD036A10B501248C4091
:1021500023EA04030362036A8A401A43026210BD41
:1021600010B5044600220068FFF7EEFF2368104A0E
:1021700093420DD1196A41F21112114208D1196A24
:1021800040F24442114202BF5A6C22F400425A64A7
:10219000196A41F21112114208D1196A40F24442FF
:1021A000114202BF1A6822F001021A60002010BD1D
:1021B0000000014010B5044601220068FFF7C4FF8B
:1021C0002368064A934202BF5A6C42F400425A64A2
:1021D0001A6842F001021A60002010BD00000140A0
:1021E000FFF7E8BF2DE9F0470668C2683369C169A7
:1021F00023F4405313433361044683680069F26853
:102200000343606922F41642034322F00C020B439D
:102210001343F3607369A26923F440731343B1F568
:10222000004F73617A4B7CD19E4203D003F58063EB
:102230009E4244D1FFF7F2FE192505FB00F36068CA
:102240004FF064094000B3FBF0F3B3FBF9F34FEA3E
:102250000318FFF7E3FE636868435B00B0FBF3F726
:10226000FFF7DCFE636868435B00B0FBF3F3B3FB8E
:10227000F9F309FB1373DB003233B3FBF9F35B00B3
:1022800003F4F877FFF7CAFE626868435200B0FBB8
:10229000F2FAFFF7C3FE636868435B00B0FBF3F339
:1022A000B3FBF9F309FB13A3DB003233B3FBF9F300
:1022B00003F0070343443B44B360BDE8F087FFF7F6
:1022C0009DFE192505FB00F360684FF0640940008E
:1022D000B3FBF0F3B3FBF9F34FEA0318FFF78EFEFD
:1022E000636868435B00B0FBF3F7FFF787FE636842
:1022F00068435B00B0FBF3F3B3FBF9F309FB137323
:10230000DB003233B3FBF9F35B0003F4F877FFF73C
:1023100075FE626868435200B0FBF2FAFFF76EFE8A
:10232000B9E79E4202D03B4B9E4240D1FFF776FE7A
:10233000676819254FF0640905FB00F3BF00B3FB84
:10234000F7F3B3FBF9F31F01FFF768FE6368684317
:102350009B00B0FBF3F8FFF761FE636868439B00E6
:10236000B0FBF3F3B3FBF9F309FB13831B01323327
:10237000B3FBF9F303F0F008FFF750FE626868431F
:102380009200B0FBF2FAFFF749FE636868439B00D6
:10239000B0FBF3F3B3FBF9F309FB13A31B013233D7
:1023A000B3FBF9F303F00F0343EA080383E7FFF7F6
:1023B00025FE676819254FF0640905FB00F3BF008F
:1023C000B3FBF7F3B3FBF9F31F01FFF717FE6368E5
:1023D00068439B00B0FBF3F8FFF710FE63686843A7
:1023E0009B00B0FBF3F3B3FBF9F309FB13831B0171
:1023F0003233B3FBF9F303F0F008FFF7FFFD626837
:1024000068439200B0FBF2FAFFF7F8FDBDE700BFAA
:102410000010014000140140704710B5044640B35D
:1024200090F8393003F0FF021BB980F83820FFF72D
:10243000F3FF2268242384F83930D36823F400534F
:10244000D3602046FFF7CEFE23681A6922F490423B
:102450001A615A6922F02A025A61DA6842F400527B
:10246000DA6000202023E06384F8393084F83A30C1
:1024700010BD012010BD7FB50F2301930221002361
:102480004FF4805201A80291039304920593FFF741
:102490001BFDB0FA80F0400907B05DF804FB0000B6
:1024A0000F49D1F8883043F47003C1F888300D4BE0
:1024B0001A68002042F001021A6098601A6822F03F
:1024C000847222F480321A60074A5A601A6822F431
:1024D00080221A60D8604FF000638B60704700BFA5
:1024E00000ED00E0003802401030002400B58FB04D
:1024F0001D4B002100911A6C42F080521A641B6C33
:102500001A4A03F080530093009B0191136823F44F
:10251000404343F400431360136803F440430193C2
:10252000019B01230293C8B94FF480330393022324
:1025300008934FF48003099308230A934FF4A87378
:102540000B9304230C9302A807230D93FFF70CFBB6
:1025500038B9FFF790FF0FB05DF804FB4FF4A023EC
:10256000E4E70020F7E700BF0038024000700040B9
:1025700010B58EB000241A4B00941A6C42F08052B1
:102580001A641B6C174A03F080530093009B01945C
:10259000136823F4404343F4004313601368039427
:1025A00003F440430193019B099403230293012305
:1025B0000593102306930A934FF4A8730B930423F7
:1025C00002220C9302A8072308920D93FFF7CCFA7E
:1025D00018B9FFF750FF0EB010BD2046FBE700BF53
:1025E000003802400070004008B50120FFF77EFF70
:1025F00038B9FFF7BDFF20B90248BDE8084000F038
:10260000E5BE08BDF1B40008174A1849936803F005
:102610000C03042B10B50DD0082B0DD0144B0B6000
:10262000114B144A9B68C3F30313D25C0B68D3406D
:102630000B6010BD104BF2E754685068526863029B
:10264000C2F3881200F03F004CBF0B4B084BB3FBAA
:10265000F0F35343044A5268C2F30142013252007C
:10266000B3FBF2F3DBE700BF00380240A00200201A
:102670000024F40005B5000800127A00074B084A50
:1026800013601A69910707D5DA68920704D56FF0CD
:1026900002021A6100F08AB9704700BF000C0040C6
:1026A000D00E00200048704720B5000830B589B032
:1026B00001A903A8FFF7C2FCFFF7A0FC00230293C7
:1026C0001E4B01901A6C1E4C42F008021A641A6CE0
:1026D00002F008020292029A1A6A42F008021A6292
:1026E0001A6A22F008021A62069AA3F50B332360D5
:1026F0004FF0FF33E360134BF2B9B0FBF3F0013856
:10270000002560600E482561A5606561FFF702FD48
:102710000D4B0E4A9B680A48C3F808210C4B4FF436
:1027200080225A602946FFF75BFD2268D36823F0B8
:102730000203D36009B030BD4000DEE7003802403C
:10274000D00E002040420F0000ED00E07D26000882
:1027500000E100E004480268D36823F00203D3607C
:102760000021FFF73DBD00BFD00E0020014B586A8D
:10277000704700BF000C0040054B1B686FF0020261
:1027800058631A61DA6842F00202DA60704700BFEB
:10279000D00E0020064B1B686FF002021A615A69C6
:1027A00042F002025A61DA6842F00202DA607047CF
:1027B000D00E0020034B1A68D36823F00203D360C5
:1027C000704700BFD00E0020024B1B686FF0020262
:1027D0001A617047D00E002008B500210348FFF7AA
:1027E000BFFCBDE80840FFF7E5BF00BFD00E0020EA
:1027F00038B504460D4603685AB182681360204616
:102800000121FEF76FF829462046BDE83840FEF763
:1028100065B8C2681B04F1E770B50E46044615465C
:10282000FEF73CF8013606D02A4620460021BDE8D6
:102830007040FFF7DDBF70BD0022FFF7EDBF88429B
:1028400038B504460D460AD0FDF74BFD3CB1EB68A8
:102850001BB15B68294620469847EB68E360204639
:1028600038BD7047A0F1BC00FFF7FBBFA0F1BC0072
:10287000FFF7F7BF00F060B9A0F1BC00FFF7FABFA7
:1028800000F05DB9A0F1BC00FFF7FABF0A4B10B52C
:1028900003F10802026003F1280288330446C0F8FD
:1028A000BC20C0F8C030BC3000F002FF204600F071
:1028B00009FA204610BD00BF28B50008A0F1BC00F1
:1028C000E4E7A0F1C000E1E710B50446FFF7DEFF42
:1028D0002046FEF7DFFA204610BDA0F1BC00F3E76A
:1028E000A0F1C000F0E7000038B504461D46049B87
:1028F00000F034F9294604F1BC0000F0ADFE064BAF
:1029000003F10802226003F128028833C4F8BC20D6
:10291000C4F8C030204638BD28B5000813B50E4CA9
:1029200000F0FAFB22884FF6FF739A420AD100F0BA
:1029300009FC0023228800930849094800F068FD3B
:1029400002B010BD0121204600F00AFC02B0BDE833
:10295000104000F0F7BB00BFBC0C0020B8B5000869
:102960002301048037B50C4C00F0D6FB258855B9FF
:1029700000F0E8FB228800952B460849084800F043
:1029800047FD03B030BD0121204600F0F3FB03B04A
:10299000BDE8304000F0D6BBBC0C0020DDB500081F
:1029A0002401048000487047FCB50008024B1B68F6
:1029B0000BB1024818477047A4020020FCB500087C
:1029C00013B5044601300FD102B010BD9C420AD1AC
:1029D00020468968FEF792FB0021204602B0BDE840
:1029E0001040FEF723BC0C31B1F900305A1CEDD178
:1029F0000023009322460249024800F009FDE3E764
:102A000073B6000830010180884207B502460BD03A
:102A1000431C09D001310BD000230649009306481E
:102A200000F0F6FC4FF0FF31084603B05DF804FB00
:102A30000146F9E742B6000830010180B1F90030E3
:102A40005A1C01D118467047834201D1486870472B
:102A50000C31F3E7421C13B504460BD0FFF7EEFF31
:102A6000431C044606D10023024600930349044850
:102A700000F0CEFC204602B010BD00BF53B60008E7
:102A800030010180B1F900305A1C01D1184670475D
:102A9000834201D1886870470C31F3E7421C13B5BB
:102AA00004460BD0FFF7EEFF431C044606D100237B
:102AB000024600930349044800F0AAFC204602B0F5
:102AC00010BD00BF24B60008300101807047704778
:102AD00010B480B1146853680CB9DA070BD513F041
:102AE000010F4FEA63031CBFC25814591844234610
:102AF0005DF8044B18475DF8044B7047090170B549
:102B000001F198050544EB6883B14418D4F8A4306A
:102B10002BB940F239220649064800F035FBD4F8BB
:102B2000A43028461B68BDE87040184770BD00BF40
:102B300084B600089AB600084C30FEF7ADBD10B55B
:102B40004C300C46FEF7BAFD204610BDC36810B5E8
:102B500004460BB19B689847204610BD2DE9F04F05
:102B600087B00025924600950246019504468946A5
:102B70009B469DE80300324B42F8083B314B82E80C
:102B80000300236148F2070363612F4BE561A461F1
:102B900022626362BFF36F8FBFF34F8F102284F8FE
:102BA000285084F8295004F12C0001F0E5FD04F1CF
:102BB0004C062946102204F13C0001F0DDFD04F131
:102BC000980829464C22304601F0D6FD04F1A807AA
:102BD00029461022404601F0CFFD294610223846F2
:102BE00001F0CAFD10222946C4F8B8B002A801F0CD
:102BF000C3FD02A94046FFF722FE02A8FDF771FBC4
:102C00001022294602A801F0B7FD02A93846FFF7B5
:102C100016FE02A8FDF765FB524649463046FEF710
:102C2000CFFBD4F8B8103046FEF7A4FB304622465E
:102C30000649FEF7D5FC204607B0BDE8F08F00BF7F
:102C4000A8B6000801A090E8D12A0008FD2A0008D3
:102C50002DE9FF410646884656F84C3B17461B684F
:102C600005463C01984700F057FAD8F80C309834E4
:102C70002C44ABB1E3680BB9FFF750FE4146204648
:102C8000FFF7DDFD012239463046FEF7B5FC00F0C6
:102C900059FA2B6828465B68984704B0BDE8F08174
:102CA000E3680BB1FFF75EFE10220021684601F0D9
:102CB00063FD69462046FFF7C2FD6846FDF711FB3C
:102CC0000022E0E77FB51A4B036004461022002182
:102CD000684601F051FD002269462046FFF7B8FF23
:102CE0006846FDF7FEFA10220021684601F044FD17
:102CF000012269462046FFF7ABFF6846FDF7F1FA6F
:102D000014F1980608D004F1B805B54204D0103D7E
:102D10002846FDF7E6FAF8E704F13C00FFF716FF56
:102D200004F12C00FFF712FF204604B070BD00BF75
:102D3000A8B6000810B50446FFF7C4FF2046FEF70A
:102D4000A9F8204610BD00002DE9F74FD0F804A0E7
:102D50009AF83A300446002B46D103685B689847DE
:102D600063681B6A98423FD0DAF82030DAF80840EE
:102D7000CAF82000A0EB0308DAF80C30314808EA62
:102D80000308844246464FF0000727D0DAE90A23B9
:102D90009AF83BB0A8FB0089CDE900230025BBF1E0
:102DA000000F2BD05A464046494606F05FFCDDE94D
:102DB000002312EB080243EB090390465A4699465A
:102DC00006460F4606F05EFCB8EB000069EB010119
:102DD000A94208BFA0420AD2CAE90A01DAE90C23D3
:102DE000B6185F41CAE90C6703B0BDE8F08F013641
:102DF00047F10007001B61EB0501EDE722462B467A
:102E00004046494607F0DEF8224606460F46404651
:102E100049462B4607F0D6F8DDE9008918EB020891
:102E200049EB0309A94508BFA04502D2CAE90A89AE
:102E3000D4E7013647F10007B8EB040869EB050950
:102E4000F4E700BF40420F00824206D98A420BD904
:102E5000884294BF002001207047884206D98A42E8
:102E60008CBF002001207047012070470020704770
:102E70002DE9F14F476897F83A300646002B44D1C8
:102E800097F83930002B40D1FFF75EFF75686B680B
:102E9000002B59D0D5E90C89D3E90001894508BF39
:102EA000804505D333685B6901B0BDE8F04F184732
:102EB000D5E90623B0EB080861EB09094B4508BFCB
:102EC00042452C6906D3AB68254A934220D144453C
:102ED00028BF44462B6A1C44EB681C403B6AA34253
:102EE00005D140F207121F491F4800F04DF9336821
:102EF00020461B69984733685B689847224601461D
:102F0000386AFFF7A1FF0028CCD101B0BDE8F08FEF
:102F100095F83B20DFF854A04FF0000B7AB1404603
:102F2000494606F0AFFB10EB0A0041EB0B010C4ADF
:102F3000002307F047F8844228BF0446CAE7A3FBF2
:102F4000080103FB0911EEE73B69386AFA68184487
:102F500033681B69104001B0BDE8F04F184700BF4F
:102F600040420F00B8B600080AB700083F420F0001
:102F70002DE9F04F436893F8382085B00546002AC4
:102F80006FD193F83A30002B6BD103681B689847D8
:102F90002B68DB699847066804462EB92C22324913
:102FA0003248334E00F0F0F81F23012202FA03F1F9
:102FB000B1425FFA83FB02D0013BF7D19B46D4F8C4
:102FC00004A0AAF104031C2B06D93A22264927485B
:102FD00000F0DAF84FF0200AAAF10403072716F1EF
:102FE000FF3007FA03F7224C4FF0000343F1FF31A3
:102FF0003246C4FB070106F0E5FF6C682A6800232F
:103000002360636052680393CDE90001904720621A
:103010006C684FF000084FF000095246C4E90A8975
:10302000A66084F83BB00120002106F02BFBDDE90F
:103030000023C4E90623039B84F8393084F83A302E
:1030400001380123E06027612846C4E90C8984F82F
:103050003830FFF779FE284605B0BDE8F04FFFF79E
:1030600007BF05B0BDE8F08FB8B6000840B800084B
:1030700040420F0070B5044600F04EF82368DB684C
:103080009847636893F83A201AB1BDE8704000F0A1
:1030900059B8012283F8392063685B68A3B12046E0
:1030A000FFF752FE65686E68D5E90C01D6E900238A
:1030B000994208BF904207D3F3686B602B68002BDE
:1030C000EAD0B0689847E7E76368002283F83920C0
:1030D0002046FFF7CDFED8E710B50446FFF748FFBE
:1030E00000F01AF82046FFF72FFE00F02BF8636877
:1030F000D3E90C0110BD08B5FFF7EEFF08BDEFF3F3
:103100001080C04300F001007047EFF305800030ED
:1031100018BF01207047000010B5074C2368013329
:1031200004D151220549064800F02EF800F0F0FACB
:1031300023680133236010BD000D00202EB7000866
:1031400083B70008054B1A6832B11A68013A1A6051
:103150001B680BB900F0EEBA704700BF000D0020ED
:10316000D0E85F3F0B449BB2C0E8523F002AF7D142
:1031700018467047D0E85F3F5B1A9BB2C0E8523FE9
:10318000002AF7D11846704770B504460D4616461A
:10319000FFF7C2FF33462A4621460348FDF71EFCCF
:1031A000BDE87040FDF7C4BBB4B7000870B50E466B
:1031B00000250446056045600F49304601F0AEFE2B
:1031C0000644266023681A782F2A0ED10133236023
:1031D00025B9292209490A48FFF7D6FF2946304672
:1031E00000F0ACF96060204670BD002AF0D00133D9
:1031F00001352360E6E700BFE5B70008E7B7000840
:1032000039B8000800687047406808B520B100F080
:103210003CF9431E5842584108BD10B50446FFF71B
:10322000F3FF10B1606800B1043810BD406808B504
:1032300020B100F02AF9B0FA80F0400908BD10B5BD
:103240000446FFF7F3FF10B1606800B1043810BD09
:103250004068003018BF0120704700002DE9F041A0
:103260001B4C1C4E237836EA200628BF0646012B4D
:103270008EB00F46904600D1FEE7174DFFF74CFF8A
:1032800001232370FFF75EFF2B68342201330021F6
:1032900001A82B6001F070FA2B680196012BCDF884
:1032A0000880039704D1342201A90C4801F062F987
:1032B000342201A90A4801F05DF90A4B1B680BB1E1
:1032C00007489847002020700EB0BDE8F08100BF8D
:1032D0000C0D00200101FF80040D0020100D0020C6
:1032E000440D0020080D002073B5294C2168C1F35E
:1032F0004173032B0CBF4D428DB2C1F307432A46E5
:1033000006462448FDF76AFB6FF498731D44072DA9
:1033100009D8DFE805F004272A2D30363339A168B3
:103320001D48FDF75BFB3046FDF758FB61681B4805
:10333000FDF754FBA1681A48FDF750FBE3690193C0
:10334000A369009304F10C010EC91648FDF746FB72
:1033500021681548FDF742FB144802B0BDE87040F3
:10336000FDF73CBBA1681248DBE7A1681148D8E72C
:10337000A1681148D5E7A1681048D2E7A1681048B4
:10338000CFE7A1680F48CCE7A1680F48C9E700BFA5
:10339000440D002057B80008A8B8000835B9000847
:1033A00045B9000858B90008A7B90008F3B90008E2
:1033B000BDB80008CCB80008DAB80008ECB80008BE
:1033C000FFB8000812B9000820B900080FB437B5DB
:1033D0000C4D2978724679B90B48FFF73FFF0B482F
:1033E000FFF782FF012407A906982C700191FDF7D1
:1033F000CBFA2046FDF7D0FB03B0BDE8304004B067
:10340000704700BF0C0D00200001FF8042B800088B
:1034100010B50C4611467246FFF720FF68B92046EA
:10342000FFF762FFFFF771FE10B9FFF768FE08B9FA
:1034300030BFFDE70120FDF7AFFB014810BD00BF25
:103440000F01FF8070B50446FFF7ACFA0646FFF7A0
:1034500052FE05463046FFF74EFE401BA042F9D310
:1034600070BD000007EE100ADFED047A67EE277AE0
:10347000FDEEE77A17EE900AFFF7E4BF00247449E7
:103480004FF47A735843FFF7DDBF007B70470000AD
:1034900038B504460A4B0360002343600D46A16023
:1034A00002730848FCF7D0FF45B1074B1A68626009
:1034B0001C600448FCF7C8FF204638BD6560F8E78B
:1034C00020BA00087C0D0020780D002010B5124BAA
:1034D000036004461148FCF7B7FFA3682BB1104AFC
:1034E00013689C4212D1636813600E4B0B481A6834
:1034F000944204BF00221A60FCF7A6FF237B13B995
:10350000201FFDF7C9FC204610BD13465A6894429F
:10351000FBD162685A60E8E720BA00087C0D002001
:10352000780D0020840D002010B50446FFF7CEFF73
:103530002046FDF7AFFC204610BD000070B50646E2
:1035400014480D46FCF780FF134B1C687CB1A06843
:10355000E8B101F075FCA84219D12A463146A068AD
:1035600000F0D6FF98B90B48FCF76EFF0DE0072D71
:10357000F9D12A463146094800F0CAFF0028F2D1A5
:103580000448FCF761FF064B1C68204670BD646868
:10359000DCE700BF7C0D0020780D00200DBA00088C
:1035A000840D00200020704770477047F8B503680D
:1035B0001B6D0E4604468F1898473546BD4207D00E
:1035C000236815F8011B9B6C204698470130F5D104
:1035D000236820465B6D9847A81BF8BDF8B50368C3
:1035E0001B6D0E4604468F1898473546BD4208D0DD
:1035F00023682046DB6C9847431C02D005F8010B7A
:10360000F4E7236820465B6D9847A81BF8BD0020AF
:1036100070477047002070470020704710B5054B79
:1036200003605033044640F8043FFFF74FFF204645
:1036300010BD00BF30BA0008A0F10400EEE700BFE3
:1036400010B50446FFF7EAFF2046FDF723FC2046AD
:1036500010BDA0F10400F3E7104B13B5002204469F
:1036600040F8043BFFF714FF0D4B236060336360A9
:10367000002363610B492046FDF758FC0346606157
:1036800020B1FDF78EFA204602B010BD0090024630
:1036900005490648FFF7BCFEF5E700BF90BB0008F0
:1036A000A8BA000888BA00088BBA0008190101807E
:1036B00010B5074B03F1080268330446026043600B
:1036C000406900F0B5F82046FFF7A8FF204610BD7E
:1036D000A0BA00080EB477B5036807AD044655F8E4
:1036E000046B1B6D98476069019500F069F9019AB8
:1036F0006069314602F0F4FE236805465B6D2046A2
:103700009847284603B0BDE8704003B070470000FA
:10371000EFF31083DB4372B6044A117829B90449E8
:1037200003F001030B70012313707047890D002013
:10373000880D002008B5EFF31083DB0704D4352291
:1037400005490648FFF720FD054B00221A70054B7E
:103750001B7803B162B608BD10BB00086CBB000843
:10376000890D0020880D0020036870B51B690122B7
:10377000002104469847051E0DDB236802221B69C1
:103780000021204698472368064629461B690022E7
:10379000204698473546284670BD0000014B186802
:1037A000704700BFA802002070B539B105460C462D
:1037B00008B1836B83B3B4F90C3013B900263046DB
:1037C00070BD2146284600F03BF8E36A064633B157
:1037D000E169284698470028B8BF4FF0FF36A38913
:1037E0001B0620D4216B41B104F14003994202D061
:1037F000284606F05FFD00232363616C21B1284653
:1038000006F058FD0023636400F0BEF90023A38195
:1038100000F0BCF9304670BD00F0B0F9B4F90C30DE
:10382000002BCBD0CDE72169284606F043FDD9E730
:10383000024B01461868FFF7B7BF00BFA80200207F
:10384000B1F90C309AB22DE9F0410C4611078046CF
:1038500048D4626843F40063002AA3815DDDA56A51
:10386000002D57D000229BB2D8F80060E169C8F85B
:10387000002013F4805254D101234046A847431C32
:10388000024665D0A389A56AE1695F0705D560682E
:10389000236B121A0BB1E36BD21A00234046A847E0
:1038A000451C48D1D8F80020B4F90C30002A5CD06F
:1038B0001D2A01D0162A64D122690021C4E9002101
:1038C00023F40063A381216BC8F8006011B304F1F5
:1038D0004003994202D0404606F0ECFC00202063F1
:1038E000BDE8F0812669AEB12568266091070CBF5E
:1038F00063690023AD1BA3600AE02B463246676A6A
:10390000E1694046B8470028A5EB000506440ADDFA
:10391000002DF2DC0020BDE8F081E26B002A9EDC85
:10392000F8E7226DB1E7A38943F04003A3814FF08C
:10393000FF30BDE8F081B4F90C302269226023F435
:10394000006300226260DA04A381BCD52065BAE777
:10395000D8F80030002B95D01D2B0FD0162B0DD092
:10396000A38943F04003A381D5E723F400632169D1
:10397000A381DB04C4E90012A5D5E7E7C8F800601D
:10398000C8E743F04003A381C5E700BF10B5044674
:1039900082B008B1836B23B1B1F90C0048B902B011
:1039A00010BD019100F0EAF80199B1F90C0000286E
:1039B000F5D0204602B0BDE81040FFF741BF00BF80
:1039C00020B1054B01461868FFF7E0BF034B0449DF
:1039D000186800F071BC00BFA8020020D8BB000826
:1039E0008D390008014900F067BC00BFA937000805
:1039F0002DE9F84F45682C4BC3630024074600F5BA
:103A00003B7204230321C0E9B912C0F8E042214609
:103A1000EB6005F15C006C66C5E90044AC60C5E98B
:103A20000444AC61082200F0A7FEDFF888B0BE684D
:103A3000DFF884A0DFF88490DFF884801B4BC5F8A2
:103A40002C80C5E9075BC5E909A92146F360082276
:103A500006F15C007466C6E90044B460C6E904443B
:103A6000B46100F089FEFD68114BC6F82C80C6E9F0
:103A7000076BC6E909A92146EB606C66C5E90044FD
:103A8000AC60C5E90444AC6105F15C00082200F0BB
:103A900073FE0123C5E9075BC5E909A9C5F82C80B8
:103AA000BB63BDE8F88F00BFE539000809000100DD
:103AB00012000200D54A0008F94A0008394B0008F4
:103AC000594B000870B54A1E682505FB02F50E46E5
:103AD00005F1740106F0EAFB044640B100210C3008
:103AE000666005F168022160A06000F045FE204696
:103AF00070BD00BF1F4B70B51D68AB6B06464BB366
:103B000005F53875D5E90134013B05D51EE0013BCB
:103B10005A1C04F1680419D0B4F90C20002AF6D11B
:103B20000025154B6566C4E90055A560C4E9045538
:103B3000A5612946E360082204F15C0000F01CFE48
:103B4000C4E90C55C4E91155204670BD286828B158
:103B50000546D7E72846FFF74BFFD1E7042130465B
:103B6000FFF7B0FF28600028F2D10C230446336031
:103B7000EAE700BFD8BB00080100FFFF836B03B179
:103B80007047FFF735BF00BF704700BF704700BFE9
:103B900038B50A4C0A4D641BA4100AD004F18043C6
:103BA000013B05EB8305013C55F804399847002C8F
:103BB000F9D1BDE8384007F07DB900BF640C0020A2
:103BC000600C0020F0B5134683B00F4601AA1946D9
:103BD000064603F0ABFDF0B105463046FFF78AFF1D
:103BE0000446C0B139464FF4DB73019A304600F009
:103BF00013FE00281CDB124B1249134AE081C4E972
:103C00000743124BE362EB05A581C4E9091206D410
:103C1000204603B0F0BD0024204603B0F0BD30467E
:103C200002230022214600F01BF8204603B0F0BD1D
:103C30000025FFF7A9FFA581FFF7A8FF2C46E7E7BE
:103C4000D54A0008F94A0008394B0008594B0008CA
:103C5000024B0A4601461868FFF7B4BFA8020020CD
:103C600000F000B82DE9F04F0C4697B091461D4684
:103C7000064608B1836BB3B1A38903F48473B3F52B
:103C8000847F18D0A76A002F00F05081012D56D0F4
:103C9000022D15D0A5B1162333604FF0FF384046F2
:103CA00017B0BDE8F08FFFF769FFA38903F48473B1
:103CB000B3F5847FE6D121463046FFF767FEE1E7A2
:103CC00022694FF0000AD046002A5CD0B4F90C30CB
:103CD00040F61A019AB20A4207D1510571D4964AA8
:103CE000974255D043F40063A38121463046FFF745
:103CF0004DFE80460028D0D12B464A46E169304629
:103D0000B8470130C9D0216B41B104F14003994259
:103D100002D0304606F0CEFA00232363A38922693D
:103D2000226023F402630021A381616004F15C003E
:103D3000082200F021FD404617B0BDE8F08F214673
:103D40003046FFF723FEA38913F4805240F09C8095
:103D50002B46E1693046B847B0F1FF3F80469CD022
:103D6000A38922695D0740F195806368216BA8EB08
:103D7000030811B1E06BA8EB0008C1444FF0010A41
:103D80000025002AA2D12146304600F011FB9DE714
:103D9000B4F90E100029A5DB6A46304600F0CEF8D3
:103DA000002840F0A980019AB4F90C3002F4704266
:103DB000B2F5004F96D143F480634FF48062A38143
:103DC000E264002D70D1CB46BAF1000F7BD1A389FC
:103DD000DA0440F18880206D6368216BA0EB030852
:103DE0001A46002975D0E06BA8EB0008A26BD4F846
:103DF00010C09844A2EB0C02A8EB02080244C34591
:103E000003DB08EB02035B4579D8E36CE1695B42B5
:103E100003EA0B08424600233046B84701303FF41E
:103E200064AF2369216B23600023636041B104F117
:103E30004003994202D0304606F03CFA0023236347
:103E4000A389BBEB080B23F02003A38110D02146EC
:103E5000304600F001FD00287FF447AF63685B4502
:103E6000FFF443AF2268A3EB0B035A44C4E90023D9
:103E700004F15C000822002100F07EFC4FF00008F5
:103E8000404617B0BDE8F08F5D07D4F85080226936
:103E90003FF56BAF18077FF570AF2368002B3FF439
:103EA0006CAF9B1A984468E76A46B4F90E10304626
:103EB00000F044F800287FF418AF049B09EB030BD3
:103EC000BAF1000F83D0216B11B16368E06B8DE70D
:103ED00062682068D4F810C0A0EB0C00A8EB0008C2
:103EE000024400218BE701235246E1693046B8477E
:103EF000431C7FF471AFF8E6B4F90C30F2E6ABEB9B
:103F000008080CEB0803A2EB0802C4E9003241B137
:103F100004F14003994202D0304606F0CBF9002369
:103F20002363A38923F02003A381A1E71D2333602A
:103F30004FF0FF38B3E600BF394B000838B50B46E9
:103F4000074C05461146184600232360FCF78BFFFB
:103F5000431C00D038BD2368002BFBD02B6038BD3C
:103F6000140F00209368002B00F002812DE9F04F20
:103F7000B1F90C309BB20C46190783B082469046CB
:103F800035D522699AB313F00202D8F800603DD00B
:103F90000027D4F824B0D4F81CC0DFF8CC923D46FA
:103FA0004D452B463A4628BF4B4661465046D5B153
:103FB000D847002840F3D280D8F808301B1A0744AD
:103FC0002D1AC8F80830002B00F0B780D4F81CC0B8
:103FD000D4F824B04D452B463A4628BF4B4661469F
:103FE0005046002DE4D1D6E900750836D8E72146C1
:103FF000504602F069FB002840F03081B4F90C30E3
:10400000D8F800609BB213F00202C1D113F001098D
:1040100040F0B080A76820684D46002D54D09A0526
:1040200040F1BC80AF42BB4600F2E78013F4906FD2
:104030002FD0D4E9041707EB4707A0EB010B07EBE0
:10404000D777681C7F105844B8423A4684BF074669
:104050003A465B0540F1E9801146504606F026F9E4
:10406000002800F0F5805A462169019000F082FA9C
:10407000A289019B22F4906242F08002A281A7EB08
:104080000B0203EB0B00676123612060A2602F46E7
:10409000AB465A46494600F007FBA2682368D21B8C
:1040A0005B442F46A26023600025D8F80830DB1B54
:1040B000B944C8F80830002B3FD0B4F90C30A768D9
:1040C00020689BB2002DAAD1D6E900950836A4E756
:1040D0000BF1080353E902679B460833002FF9D020
:1040E0003A460A21304600F0C3F9002853D0013087
:1040F000A0EB06094B46D4E904122068BB4228BF56
:104100003B46884203D9A5681544AB4219DC9A4264
:104110007DDC1346656AE16932465046A847051EB4
:104120001CDDB9EB05096BD00120D8F808305B1B0A
:104130002E447F1BC8F8083013BB002003B0BDE835
:10414000F08F31462A4600F0AFFA23682B442360F3
:1041500021465046FFF71AFC0028E2D0B4F90C3093
:1041600043F040034FF0FF30A38103B0BDE8F08F70
:104170000020704733469146104617464E469B46F0
:10418000002FA5D00028B5D13A460A21304600F0CC
:104190006FF90028ABD17B1C9946ACE723698342B9
:1041A00015D36169A94212D82E4B676A9D4294BF0C
:1041B0002B466FF000434A4693FBF1F3504601FB58
:1041C00003F3E169B847071EC8DDED1B6DE7AF4299
:1041D00028BF2F463A46494600F066FAA36822688F
:1041E000DB1B3A44A3602260002BEED121465046EF
:1041F000FFF7CCFB0028E8D0B0E72F46AB4648E7F6
:1042000021465046FFF7C2FB00288ED0A6E71A468B
:104210003146019300F048FA019BA1682268C91A4F
:104220001A44A16022601D467BE7504606F040F824
:10423000034600287FF423AF2169504606F03AF880
:10424000B4F90C300C2223F08003CAF8002087E771
:104250000C23CAF80030B4F90C3081E74FF0FF307E
:104260006CE700BFFEFFFF7F00FCFF7F2DE9F04100
:1042700010F538771BD088460026D7E90154013D58
:104280000FD4A389012B05F1FF3506D9B4F90E30FF
:104290000133204601D0C04706436B1C04F168047B
:1042A000EFD13F68002FE8D13046BDE8F0813E46AF
:1042B0003046BDE8F08100BF2DE9F84310F53877AE
:1042C0001FD0884606464FF00009D7E90154013D4A
:1042D00011D4A389012B05F1FF3508D9B4F90E30AB
:1042E00001332146304602D0C04749EA00096B1C21
:1042F00004F16804EDD13F68002FE6D14846BDE8DF
:10430000F883B9464846BDE8F88300BF70B50D4E46
:104310000D4D761BB61006D00024013455F8043B31
:104320009847A642F9D1094E094D761B06F0BCFD0F
:10433000B61006D00024013455F8043B9847A64235
:10434000F9D170BD580C0020580C00205C0C0020E6
:10435000580C002070B50C46B1F90E10002996B02B
:1043600015461E4614DB6A46FFF7E8FD00280FDB02
:10437000019A02F47042A2F50052B2FA82F2520996
:104380004FF480634FF4006032602B6016B070BD54
:10439000A289002312F08000336004D04022184626
:1043A0002A6016B070BD4FF480632B6016B070BDEC
:1043B0008A8992070B4606D501F1430201211A6052
:1043C000C3E90421704770B582B001AB6A460C4660
:1043D0000646FFF7BFFF00990546304605F066FF29
:1043E000B4F90C3070B11649F163019A009920605C
:1043F00043F08003A381C4E904018AB92B43A3815C
:1044000002B070BD9A05FBD423F0030304F143020C
:1044100043F002030121A3812260C4E90421EFE7F4
:104420003046B4F90E1003F0BBF910B9B4F90C30F2
:10443000E4E7A38923F0030343F001031BB2DDE7A4
:10444000E5390008024B0146186805F02FBF00BF90
:10445000A8020020024B0146186805F02BBF00BFE0
:10446000A802002000000000000000000000000082
:1044700001F0FF01102A2BDB10F0070F08D010F815
:10448000013B013A8B422DD010F0070F42B3F6D119
:10449000F0B441EA012141EA014122F007047FF032
:1044A00000070023F0E80256083C85EA010586EA89
:1044B000010685FA47F5A3FA87F586FA47F6A5FAC5
:1044C00087F68EB9EED1F0BC01F0FF0102F00702D1
:1044D00032B110F8013B013A83EA010313B1F8D17C
:1044E0000020704701387047002D06BF354603385D
:1044F000073815F0010F07D1013015F4807F02BF96
:10450000013015F4C03F0130F0BC0138704700BFE6
:10451000032A70B414D940EA0105AD0704460B46DE
:1045200022D11D682668AE421946204603F10403D5
:1045300004F1040418D1043A032A20461946F0D89D
:10454000541E72B103780A78934208BF241806D02B
:104550000CE010F8013F11F8012F934206D1A04260
:10456000F7D1002070BC7047541EEBE7981A70BC5E
:10457000704700BF844641EA000313F003036DD186
:10458000403A41D351F8043B40F8043B51F8043B16
:1045900040F8043B51F8043B40F8043B51F8043B1D
:1045A00040F8043B51F8043B40F8043B51F8043B0D
:1045B00040F8043B51F8043B40F8043B51F8043BFD
:1045C00040F8043B51F8043B40F8043B51F8043BED
:1045D00040F8043B51F8043B40F8043B51F8043BDD
:1045E00040F8043B51F8043B40F8043B51F8043BCD
:1045F00040F8043B51F8043B40F8043B51F8043BBD
:1046000040F8043B403ABDD2303211D351F8043B5C
:1046100040F8043B51F8043B40F8043B51F8043B9C
:1046200040F8043B51F8043B40F8043B103AEDD20B
:104630000C3205D351F8043B40F8043B043AF9D25C
:10464000043208D0D2071CBF11F8013B00F8013B2F
:1046500001D30B8803806046704700BF082A13D33C
:104660008B078DD010F003038AD0C3F10403D21A54
:10467000DB071CBF11F8013B00F8013B80D331F888
:10468000023B20F8023B7BE7043AD9D3013A11F808
:10469000013B00F8013BF9D20B7803704B78437073
:1046A0008B788370604670478842F0B40DD98B18C0
:1046B00083420AD9841832B1224613F8014D02F818
:1046C000014D9942F9D1F0BC70470F2A0ED803462C
:1046D000541E002AF7D001340C44013B11F8012B81
:1046E00003F8012FA142F9D1F0BC704740EA010361
:1046F0009B073BD1A2F110073F0901F1200606EB11
:10470000071601F1100300F1100453F8105C44F88F
:10471000105C53F80C5C44F80C5C53F8085C44F8EB
:10472000085C53F8045C44F8045C1033B34204F1B1
:104730001004EAD17B1C1B0112F00C0F194402F08B
:104740000F05034415D0043DAD0803EB850C1C1F79
:104750000E4656F8047B44F8047F6445F9D10135D0
:10476000AD002B44294402F00302B1E7541E034676
:10477000B1E72A46ACE700BFF0B4860746D0541E26
:10478000002A3CD0CAB2034602E014F1FF3436D30B
:1047900003F8012B9D07F8D1032C29D9CDB245EAA6
:1047A00005250F2C45EA054533D9A4F11006360935
:1047B00003F1200707EB061703F1100242E9045545
:1047C00042E902551032BA42F8D1721C14F00C0FB3
:1047D00003EB021204F00F0613D0331F23F0030380
:1047E0000433134442F8045B9342FBD106F0030404
:1047F0002CB1C9B21C4403F8011B9C42FBD1F0BC94
:10480000704734461346002CF3D1F8E714460346AC
:10481000C2E71A462646E0E770B50D46084C114639
:1048200006461A46284600232360FCF7E9FB431C92
:1048300000D070BD2368002BFBD0336070BD00BF7B
:10484000140F0020838903F00903092B01D00020F5
:104850007047FFF7B5B800BFF8B50C46054610B174
:10486000836B002B41D0B4F90C309AB2970407D473
:10487000626E43F4005322F400526266A3819AB23E
:104880000021960661605BD450071BD4D1065AD52F
:1048900012073ED443F00403A3812369002B44D0C4
:1048A000B4F90C70BEB2B30722D122692260284647
:1048B0006369256AE169A84700286060C8BF0020D5
:1048C00038DDF8BD216B0029E7D004F1400399429F
:1048D00002D0284605F0EEFCE36B63600020206305
:1048E000002BDAD0A36B2360F8BDFFF747F9BAE7D6
:1048F0001D4B1E4918680123A38106F00906FFF726
:10490000B5FC092EA781D0D121462846FEF798FF95
:10491000CBE721462846FFF739F888B9B4F90C30BF
:10492000A060A06123F00803B4E721462846FFF702
:104930003FFDB5E7B4F90C300DD143F02003A3815E
:104940004FF0FF30F8BD43F0400309222A604FF0DA
:10495000FF30A381F8BD43F040030022A3816260D1
:104960004FF0FF30F8BD00BFD8BB00084548000835
:1049700000290CBF022200224FF4806300F000B82F
:104980002DE9F043524C256883B004460F4690460B
:104990001E4615B1AB6B002B65D0B8F1020F06D0E7
:1049A000B8F1010F00F29180002EC0F28E802146F6
:1049B0002846FEF7EBFF216B41B104F14003994219
:1049C00002D0284605F076FC00232363B4F90C30AE
:1049D0000022A26162601A064DD423F44A6323F0D8
:1049E0000303B8F1020FA3814CD001AB6A46214604
:1049F0002846FFF7AFFCA3891843A08116B317B36D
:104A0000AB6B63B3009BB4F90C002760B3421CBFCF
:104A100040F40060A081B8F1010F08BF40F0010030
:104A200083B208BFA08113F00800C4E904761ED049
:104A300013F0010035D000207642A661A06003B0DB
:104A4000BDE8F083009E3046FFF7FCFC074660B3EC
:104A5000A38943F08003A381AB6B002BD2D12846FE
:104A6000FFF78CF8CEE72846FFF788F895E7A060B7
:104A700003B0BDE8F0832169284605F01BFCB4F9BA
:104A80000C30AAE7002004F1430243F002030025A2
:104A90000121A381A5602260C4E9042103B0BDE81F
:104AA000F083A66003B0BDE8F083DDF80090B14567
:104AB00006D04846FFF7C6FC074608B14E46C7E792
:104AC000B4F90C304FF0FF30DDE74FF0FF30CFE7A7
:104AD000A802002010B50C46B1F90E1003F0C0F981
:104AE000002803DB236D0344236510BDA38923F451
:104AF0008053A38110BD00BF2DE9F0411646B1F9E6
:104B00000C201F46D3050C460546B1F90E1009D4FA
:104B100022F48052A2813B4632462846BDE8F0414D
:104B200001F0BCBD0022022302F068FEB4F90C20A3
:104B3000B4F90E10ECE700BF10B50C46B1F90E1039
:104B400002F05CFEA389421C0EBF23F4805343F4A1
:104B500080532065A38110BDB1F90E1001F01CBE79
:104B6000A2EB0300704700BF02780B78012A28BF30
:104B70009A42F5D16DE9044540EA0104CDE90267A6
:104B80006FF0000C4FEA447212B380EA010414F093
:104B9000070F6AD100F0070420F0070004F00305B6
:104BA00021F007014FEAC505F0E8042314F0040FD3
:104BB000F1E804670CFA05F462EA040266EA040606
:104BC0000AD063EA0403624667EA0407664603E024
:104BD000F0E80423F1E8046782FA4CF582EA06045F
:104BE000A4FA8CF46CBB83FA4CF583EA0705A5FAAA
:104BF0008CF595B950E9022351E9026782FA4CF528
:104C000082EA0604A4FA8CF483FA4CF583EA0705D9
:104C1000A5FA8CF52543DBD09CB92DBAB5FA85F4FD
:104C200024F0070427FA04F1DDE9026723FA04F30C
:104C300003F0FF0001F0FF01FDE80445A0EB0100D7
:104C4000704724BAB4FA84F424F0070426FA04F175
:104C5000DDE9026722FA04F202F0FF0001F0FF0131
:104C6000FDE80445A0EB0100704714F0030F3CD1B0
:104C700010F0030428D150F8082B51F8083B82FAB1
:104C80004CF582EA0305A5FA8CF55DB950F8042CC1
:104C900051F8043C82FA4CF582EA0305A5FA8CF53A
:104CA000002DE8D02DBAB5FA85F424F0070423FAD4
:104CB00004F122FA04F202F0FF0001F0FF01FDE826
:104CC0000445A0EB010070474FEAC40420F0030044
:104CD00050F8082B21F0030151F8083B0CFA04F4BA
:104CE00062EA040263EA0403C9E710F003041AD07D
:104CF000A1EB040120F00300E40750F8042B06D0D8
:104D00000FD28B785FFAA2F4E41A06D12BB1CB78DC
:104D10005FFAB2F4E41A00D11BB920465DF8104BDB
:104D2000704701F1040150F8042BCC0721F0030176
:104D300051F8043B48D824D222F07F4482FA4CF543
:104D400094EA1325A5FA8CF50AD165B951F8043B0C
:104D500084EA0204B4EB036F0ED150F8042BEBE7A6
:104D60004FEA132355E035F07F454DD10878FDE833
:104D70000445C0F1000070474FEA126203F0FF03E0
:104D800047E002EA1C4482FA4CF594EA1345A5FA7E
:104D90008CF50AD165B951F8043B84EA0204B4EBFE
:104DA000034F0CD150F8042BEBE74FEA134330E0EC
:104DB00015EA1C4528D10B884FEA124229E04FEA38
:104DC000124203EA1C4324E002F0FF0482FA4CF58D
:104DD00094EA1365A5FA8CF50AD165B951F8043B3C
:104DE00084EA0204B4EB032F09D150F8042BEBE75B
:104DF0004FEA13630DE015F0FF0F05D10B684FEA82
:104E0000122223F07F4304E04FF00000FDE8044548
:104E1000704712BA1BBA82FA4CF482EA0304A4FA6D
:104E20008CF5B5FA85F402FA04F203FA04F34FEABA
:104E30001260FDE80445A0EB13607047000000001D
:104E400090F800F06DE9024520F007016FF0000CCA
:104E500010F0070491F820F040F049804FF0000472
:104E60006FF00700D1E9002391F840F000F108004D
:104E700082FA4CF2A4FA8CF283FA4CF3A2FA8CF385
:104E80004BBBD1E9022382FA4CF200F10800A4FAEC
:104E90008CF283FA4CF3A2FA8CF3E3B9D1E9042340
:104EA00082FA4CF200F10800A4FA8CF283FA4CF377
:104EB000A2FA8CF37BB9D1E9062301F1200182FA31
:104EC0004CF200F10800A4FA8CF283FA4CF3A2FA37
:104ED0008CF3002BC6D0002A04BF04301A4612BA45
:104EE000B2FA82F2FDE8024500EBD2007047D1E948
:104EF000002304F00305C4F100004FEAC50514F0D7
:104F0000040F91F840F00CFA05F562EA05021CBFA7
:104F100063EA050362464FF00004A9E770B4047821
:104F2000A4B10E7805464EB1A6420AD00A4601E069
:104F3000A34206D012F8013F002BF9D1281A70BC09
:104F4000704715F8014F002CEDD1F7E72046F6E742
:104F50002DE9F04FC3B01C460891914605460C90D0
:104F600002F030FC036815931846FFF769FF0D94B3
:104F700013901DB1AB6B002B00F090830899B1F931
:104F80000C2093B29E04084607D4496E42F40053A5
:104F900021F40051838141669BB21D0740F1B2802C
:104FA000089A1269002A00F0AD8003F01A030A2B58
:104FB00000F0B6809FEDA87B00238DED107B12934F
:104FC000CDE9263314931693099332AB25939A4671
:104FD00099F80030002B00F0BF80252B00F0F486FC
:104FE0004D4603E0252B00F0A98025466B786C1C0C
:104FF000002BF7D1B4EB090600F0AE80DDE92632D4
:1050000001333244072BCAF80090CAF80460CDE996
:10501000263200F398800AF1080A099A6B78324424
:105020000992002B00F09880002367788DF8773084
:105030001A4619460A939B4604F101094FF0FF36C0
:1050400009F10109A7F12003582B00F22B83DFE8B7
:1050500013F0DA0029032903D500290329032903C2
:10506000290329032903CA00C5002903C000A7009A
:105070002903A200930093009300930093009300F0
:10508000930093009300290329032903290329038B
:10509000290329032903290329039A025902290311
:1050A00059022903290329032903AC0229032903EF
:1050B0001D02290329032903290329034702290380
:1050C00029032F022903290329032903290329037B
:1050D0002903290329032903A2014801590259027E
:1050E0005902EC02480129032903DF022903C70200
:1050F000B102F602F10229031F0129030901290364
:105100002903E20008990C9801F0DEFA002841F02A
:105110007381089B9B8903F01A030A2B7FF44AAF23
:10512000089BB3F90E30002BFFF644AF23464A46E6
:1051300008990C9801F0E0F9099019E0B4EB090620
:105140003FF472AF5AE725AA08990C9804F06EF95B
:1051500048B90DF1C80A60E7279B23B10C9808995C
:1051600025AA04F063F9089B9B895A0601F1448142
:10517000099843B0BDE8F08FA7F13003002019F87B
:10518000017B00EB800003EB4000A7F13003092B0B
:10519000F5D90A9056E74BF0800B99F800704FE76D
:1051A000484610F8017B2A2F01F07F81A7F13003D8
:1051B000092B81464FF000063FF644AF19F8017BFA
:1051C00006EB860603EB4606A7F13003092BF5D95B
:1051D00038E799F800704BF0040B31E799F800704C
:1051E00001222B212CE70D9B99F8007053F8040B3A
:1051F0000A900028C0F2A1860D9321E74BF0010B25
:1052000099F800701CE799F8007000297FF418AF36
:105210000122202114E7002A41F0E680104B14936C
:105220001BF0200F00F04D810D9C073424F0070384
:10523000F3E802450D931BF0010F00F0448254EA9D
:10524000050300F0408230238DF878308DF87970B6
:105250004BF0020B022302E20000000000000000FD
:1052600000BC0008002A41F0B7801BF0200F40F07E
:105270005C820D9A1BF0100F52F8044B41F029810B
:105280001BF0400F0D9218BFA4B200250123E6E1E8
:105290000D9C54F8043B0E9300258DF87750002B9D
:1052A00000F07886711C00F05487324629460E982B
:1052B000FFF7DEF8002801F059800E9BC31A0B930C
:1052C0002E4623EAE3739DF877800D94CDF818B04D
:1052D00007930F96B8F1000F6FD0079B0133079328
:1052E0006BE0002A41F06C801BF0200F40F0ED8154
:1052F0000D9B1BF0100F03F1040241F0E7800D9BA2
:105300000D921BF0400F14BFB3F900401C68E51765
:1053100022462B46002A73F10003594680F2E581AC
:1053200064424FF02D0865EB4505721C8B468DF8E5
:1053300077804FF0010340F09981012B00F08983C1
:10534000022B00F0268432A900E01146E20842EA6E
:105350004572E80804F0070305461446303354EA62
:10536000050001F8013C01F1FF32EED11BF0010F05
:105370000E9200F0D184302B00F03D860E9ACDF8CD
:1053800018B03023023902F8013C32AB5B1A0B93A0
:105390000E9100F016BC0D9C002354F8042B8DF8E0
:1053A000A0208DF87730012228AB07920D940B9244
:1053B0000E930026CDF818B00F96069B13F002034B
:1053C00002D0079A02320792069A279C12F0840BA9
:1053D00005D10A9A0799551A002D00F34A839DF8C2
:1053E000772072B1269A013201340DF17700012144
:1053F000072ACDE92624CAE9000100F377830AF1E0
:10540000080A6BB1269B013302341EA90222072B26
:10541000CDE92634CAE9001200F376830AF1080ABE
:10542000BBF1800F00F0F5810B9BF61A002E00F304
:105430003982069BDB0500F18181269B0E9ACAF812
:1054400000200B9ACAF8042001331444072B279438
:10545000269300F39B820AF1080A069B590705D59B
:105460000A9B079A9D1A002D00F35A83DDE9093241
:1054700007998A42ACBF9B185B180993002C40F037
:105480004B82002326930DF1C80AA1E5002A40F0C3
:105490008B871BF0200F4BF0100340F03B810D9ADF
:1054A00004320D990D929B460C6800250023D6E02E
:1054B000002A40F07D87C24B14931BF0200F7FF42D
:1054C000B3AE0D9B1BF0100F53F8044B0D9340F03F
:1054D00073841BF0400F00F06F84A4B20025AAE68D
:1054E000002A40F085871BF0200F4BF0100340F09E
:1054F0001B810D9A04320D990D929B460C68002574
:105500000123ACE0002A40F057870D9C073424F0BB
:105510000703B3EC027B55EC174B0D9325F00043CA
:1055200019938DED187ADDE918014FF0FF32A54B84
:105530008DED107B04F008FD002840F05B844FF0F7
:10554000FF32A04BDDE9180104F0E0FC002840F038
:105550005184002200232046294604F0CDFC002877
:1055600040F06A869DF87780974A984B0321002681
:105570002BF08000472FC8BF1A46079106900E9265
:105580000B910F96A6E6002A40F01E871BF0200F15
:105590004BF0100140F09A800D9B1A1D0D9B0D924F
:1055A0001C68E51722462B469AE04BF0080B99F849
:1055B000007045E5002A40F00B871BF0200F40F0FB
:1055C000AA800D9A1BF0100152F8044B40F07B8723
:1055D0001BF040030D921CBF0B46A4B200253EE019
:1055E000002A40F0FD860D9A1BF0200F02F1040303
:1055F00040F0F6831BF0100F40F004851BF0400FC5
:1056000000F000850D9A0D931268099B1380DFE46A
:1056100099F800706C2F03BF99F801704BF0200BC4
:1056200009F101094BF0100B0AE54BF0400B99F81A
:10563000007005E54BF0200B99F8007000E50D9C1B
:1056400054F8043B0D9447F630021C46604B14930B
:10565000ADF878204BF0020B0025022378274FF09D
:105660000008721C8DF877803FF467AE2BF0800243
:10567000069254EA050240F0E781002E40F02885AA
:10568000002B42D11BF001030B9300F0A6833023C3
:105690008DF8C7300DF1C7030E9392E20C98FEF718
:1056A0006DFA6BE4002A40F0E185002F3FF454AD21
:1056B000002301228DF8773028AB07928DF8A07077
:1056C0000B920E9375E60223C9E759460D9C0734E9
:1056D00024F007031846F0E802230D9014461D46F7
:1056E000002A73F10003FFF61BAE731C9DF8778050
:1056F00000F0218454EA050321F0800B40F0A981D9
:10570000002E40F0AB81CDF818B0002632AB0B96DE
:105710000E9356E29B460D9C073424F00703F3E8F2
:1057200002450D9300239AE79B460D9C073424F015
:105730000703F3E802450D93012390E7652F40F33B
:10574000318100220023DDE9100104F0CBFB0028A9
:1057500000F04082269B1F4ACAF800200133013422
:105760000122072BCDE92634CAF8042000F39784E0
:105770000AF1080A1F9B129A279C934280F2278302
:10578000269B159ACAF80020139ACAF80420013300
:105790001444072BCDE9263400F3F0830AF1080AFC
:1057A000129B5D1E002D7FF758AE102D269ADFF854
:1057B00028B040F36A8410260C9FDDF8208013E0A7
:1057C000ECBB0008FFFFEF7FDCBB0008E0BB00087C
:1057D00000BC00081CBC000830BC00080AF1080A24
:1057E000103D102D40F3518401321034072ACDE9C9
:1057F0002624CAE900B6F1DD25AA4146384603F061
:1058000015FE00287FF4AFACDDE926240DF1C80AAF
:10581000E6E70A9B079A9D1A002D7FF705AE102D2B
:10582000269ADFF8A0B52DDD584653462146CA46D4
:10583000BB46B1464FF010080C9C089E074604E09A
:10584000103D102D03F1080315DD01321031072A38
:10585000CDE92621C3E90078F2DD25AA31462046AC
:1058600003F0E4FD00287FF47EAC103D102DDDE94F
:10587000262132ABE9DC4E46D1469A463B460C46E1
:105880005F469B4601322C44072ACDE92624CAE90B
:1058900000B500F310840B9BF61A002E0AF1080ADB
:1058A0007FF7C7AD102E269ADFF818B528DD5946C8
:1058B0002346BB461025DDF83080089C0F4604E0E7
:1058C000103E102E0AF1080A16DD01321033072AA5
:1058D000CDE92623CAE90075F2DD25AA2146404616
:1058E00003F0A4FD00287FF43EAC103E102EDDE94D
:1058F00026230DF1C80AE8DC1C463B465F469B4662
:1059000001323444072ACDE92624CAE900B600F35F
:1059100046820AF1080A8CE525AA08990C9803F03A
:1059200085FD00283FF4ADAD1DE425AA08990C982B
:1059300003F07CFD00287FF416AC1F9B279C0DF123
:10594000C80A002B40F0CA83069B129A03F0010399
:1059500013433FF482AD269A159BCAF80030139B7F
:10596000CAF8043001321C44072A2794269200F317
:1059700091840AF1080A129B0E9901321C44072AED
:10598000CDE92624CAE900137FF765AD25AA089959
:105990000C9803F04BFD00287FF4E5AB279C0DF13C
:1059A000C80A5AE5129A269B012A04F1010403F160
:1059B00001050AF1080640F3B58101230E9ACAF8E1
:1059C0000020072DCDE92654CAF8043000F32583C2
:1059D000139B159A01351C44072DCDE92654C6E9C1
:1059E000002300F3268308366B1C1F46B846129F1F
:1059F0000B9300220023DDE9100106F1080A013FA4
:105A000004F070FA002840F0A1810E9B776001330A
:105A10003C44B8F1070F33602794CDF8988000F329
:105A20009D8206F1100305F1020856469A46169A21
:105A30007260144421ABB8F1070F2794CDF8988019
:105A400033607FF70AADA1E7012BDDF818B07FF4D2
:105A500077AC002D08BF0A2C80F03C810123303444
:105A60000B930DF1C7038DF8C740CDF818B00E9316
:105A7000A7E0102D269A2CDD51462046CA464FF04D
:105A80001008B14617932E460C9C089D04E0103E6A
:105A9000102E01F1080116DD0132C94B1030072A22
:105AA000CDE92620C1E90038F1DD25AA29462046A6
:105AB00003F0BCFC00287FF456AB103E102EDDE94D
:105AC000262032A9E8DC179B354604464E46D146CF
:105AD0008A460132BA492C44072ACDE92624CAE96C
