:020000040800F2
:1000000000800120E521000831220008312200088B
:1000100031220008312200083122000800000000CF
:100020000000000000000000000000003122000875
:1000300031220008000000003122000831220008AF
:100040003122000831220008312200083122000844
:100050003122000831220008312200083122000834
:100060003122000831220008312200083122000824
:100070003122000831220008312200083122000814
:10008000312200083122000831220008000000005F
:100090000000000000000000000000003122000805
:1000A00031220008312200083122000831220008E4
:1000B00031220008312200083122000831220008D4
:1000C00031220008312200083122000831220008C4
:1000D000312200083122000831220008000000000F
:1000E00031220008312200083122000800000000FF
:1000F00000000000000000000000000031220008A5
:1001000000000000312200083122000831220008DE
:1001100000000000000000000000000000000000DF
:100120003122000831220008312200083122000863
:100130003122000800000000000000000000000064
:100140000000000000000000000000003122000854
:100150003122000831220008312200083122000833
:1001600031220008312200080000000000000000D9
:10017000000000000000000000000000000000007F
:100180000000000031220008000000000000000014
:100190003122000810B5054C227832B9044B13B156
:1001A0000448AFF300800123237010BD680C0020C9
:1001B0000000000058CF000808B5034B1BB10349ED
:1001C0000348AFF3008008BD000000006C0C002065
:1001D00058CF0008134B002B08BF114B9D46A3F5C9
:1001E000803A00218B460F461148124A121A05F038
:1001F00073F90D4B002B00D098470C4B002B00D00F
:1002000098470020002104000D000B4801F05BF826
:1002100004F032FF2000290001F0E0FA01F050F86C
:10022000000008000080012000000000CD17000839
:10023000680C002068110020FD48000808B500F097
:100240007BFB002008BD034607C983E80700704711
:10025000704710B44468816862100346E40701EBFC
:1002600002001B6848BF8A585DF8044B48BFD3584A
:1002700018470000000000002DE9F04F044689B047
:10028000D0F8F4000AF01CFA00222F4B8046894671
:100290000AF080FA82468B46D4F8F800C4E942ABF3
:1002A0000AF00EFA0022284BCDE904010AF072FA96
:1002B00006460F46D4F82801C4E940670AF000FA60
:1002C0001FA3D3E90023CDE90601404649460AF0C1
:1002D00061FA02460B46DDE906010AF0A5F80AF0CC
:1002E00009FD0546C4F82801D4F824010AF0E8F90C
:1002F00013A3D3E9002380468946DDE904010AF00F
:1003000049FA02460B46404649460AF08DF80AF083
:10031000F1FCC4F82401CDE90250D4F820010B49C6
:100320005B46CDE900675246BC3004F089F80023F3
:10033000C4E93D3309B0BDE8F08F00BFAFF30080E2
:10034000A43A55297A6A0F4000C022406CBD0008CB
:1003500010B50446806903F031F8D4F8F430012870
:100360000CBF03F1FF330133C4F8F43010BD10B5F6
:100370000446006A03F022F8D4F8F83001280CBFD4
:1003800003F1FF330133C4F8F83010BD38B51C2237
:1003900004460D46002105F09FF82046294602F04C
:1003A000D6FF204638BD38B504460D4603F06AFD39
:1003B000237E1BB903F0E0F801232376294620466B
:1003C00001F00CFBBDE8384003F072BD10B50446E7
:1003D00002F0DEFE2046064B40F8283B10220021AA
:1003E00005F07AF8012384F83830204610BD00BFAC
:1003F000CCC50008D0B51F4683681646DA681B686E
:100400001B041360044600220023304639460AF0DC
:1004100051FCB8B1E3689A681B68136039463046EE
:100420000AF0B0FC01462068FFF7BDFF0022002360
:10043000304639460AF016FC18B9A3689A681B685A
:100440001360D0BD00220023304639460AF014FC68
:100450000028E3D0E368DA681B681B04DDE7D0B549
:100460001F4683681646DA681B681B04136004463F
:1004700000220023304639460AF01CFCB8B123693B
:100480009A681B681360394630460AF07BFC0146C7
:100490006068FFF788FF00220023304639460AF0E3
:1004A000E1FB18B9A3689A681B681360D0BD0022ED
:1004B0000023304639460AF0DFFB0028E3D02369E9
:1004C000DA681B681B04DDE7C36810B504460BB18E
:1004D0009B689847204610BD38B5CB6804460D464A
:1004E0000BB15B689847EB68E360204638BD0000BD
:1004F000F0B52DED028B85B00446684608EE102A53
:10050000FFF7EAFFDFED147A68EE277A17EE900A1C
:100510000AF0A0FC06460F4603F0B4FC636B23B957
:1005200094F838300BB103F027F804F12805284679
:10053000FFF7CAFF69462846FFF7CEFF32463B4623
:10054000204602F06AFE03F0B3FC6846FFF7BCFFEA
:1005500005B0BDEC028BF0BD0024744938B5102203
:100560000D460021044604F0B7FF95E80700024B52
:10057000E36084E8070038BD60BD000810B590F85E
:10058000F030D0F82811D0F8E82088B00446DBB16C
:10059000914212DA0F4B0193002301A904A8CDE97F
:1005A0000234FFF7DBFF04F168000B4A04A9FFF7F0
:1005B0009FFF04A8FFF788FF04E0002200232046E5
:1005C000FFF718FF08B010BD9142F6DD014A019215
:1005D000E3E700BF7D050008CDCCCC3DF8B5D0F8F1
:1005E000285100291F460D44D6BF0023012180F861
:1005F000F0300446C0F8E850CCBF80F8F01007F1A6
:100600000043FFF7F7FE2046BDE8F840FFF7B6BF0E
:1006100010B590F8F130D0F82411D0F8EC2088B063
:100620000446DBB1914212DA0F4B0193002301A97A
:1006300004A8CDE90234FFF791FF04F1A8000B4AAA
:1006400004A9FFF755FF04A8FFF73EFF04E00022CE
:1006500000232046FFF703FF08B010BD9142F6DDEE
:10066000014A0192E3E700BF11060008CDCCCC3D62
:10067000F8B5D0F8245100291F460D44D6BF0023F9
:10068000012180F8F1300446C0F8EC50CCBF80F86E
:10069000F11007F10043FFF7E2FE2046BDE8F84005
:1006A000FFF7B6BF000000002DE9F04790469946DD
:1006B0000022254B8246494640460AF095F920A380
:1006C000D3E900230AF066F8002204460D46002311
:1006D00040464946DDE908670AF0ECFAB0B105F199
:1006E000004120460AF006FB324601463B46504692
:1006F000FFF774FF204629460AF0FCFA32463B46D3
:1007000001465046BDE8F047FFF7B2BF0022002384
:10071000404649460AF0B0FA68B1294620460AF038
:10072000E9FA324601463B465046FFF757FF20465E
:1007300005F10041E0E7BDE8F08700BFAFF30080BE
:100740006C36A4F8084C8040008076402DE9F041DA
:1007500000F1280788B004463846FFF737FE624D9F
:1007600004F16800FFF732FEA56604F1A800FFF768
:100770002DFEC4F8A850D82000F00CFF03224FF43F
:1007800016530221054602F0DFFEC4F820511C205A
:1007900000F000FF00250646057603F073FB0921F3
:1007A000304601F035FA03F083FB26601C2000F090
:1007B000F1FE0646057603F065FB3046082101F0A0
:1007C00027FA03F075FBD4F800806660474E03F00B
:1007D00059FB3146404601F0E1FA03F069FBD4F8D9
:1007E000048003F04FFB3146404601F0D7FA03F096
:1007F0005FFB1C2000F0CEFE12210646FFF7C6FD6F
:10080000A6601C2000F0C6FE0C210646FFF7BEFDC8
:10081000E6601C2000F0BEFE1C210646FFF7B6FD78
:100820002661C4E94955502000F0B4FE2A2106464D
:1008300002F098FD6661502000F0ACFE2C210646C7
:1008400002F090FDA661502000F0A4FE0D210646A6
:1008500002F088FDE661502000F09CFE0E21064665
:1008600002F080FD224B26626669039401A904A868
:10087000CDE90135FFF772FE04A9304602F0D5FD3F
:1008800004A8FFF721FE1B4BE669039401A904A805
:10089000CDE90135FFF762FE04A9304602F0C5FD3F
:1008A00004A8FFF711FED4F820011349BC3003F06F
:1008B000C7FD124B039401A904A8CDE90135FFF748
:1008C0004DFE0F4A04A93846FFF712FE04A8FFF7B1
:1008D000FBFDD4F820010B49BC3003F0B1FD2046EC
:1008E00008B0BDE8F08100BFF8C700080AD7A33CF4
:1008F000510300086F0300088BBD0008790200084F
:10090000CDCCCC3DADBD0008034610B553F8042B4B
:10091000044602B9036022689A4204D0034804499D
:10092000662203F0E7FA206810BD00BFC4BD0008CE
:10093000D8BD0008000000002DE9D3434FF49870A3
:1009400000F028FE5CA7D7E900670446FFF7FEFE2B
:100950005748DFF86C9103F03BFC32463B4620469B
:100960004FF4FA71FFF73AFE4FF0000832463B466B
:100970004FF4FA712046FFF77BFE42464B46204675
:10098000CDE90067FFF790FE32463B4620464FF424
:10099000FA71FFF723FE32463B464FF4FA712046C8
:1009A000FFF766FE42464B462046CDE90067FFF75B
:1009B0007BFE32463B4620464FF4FA71FFF70EFEAF
:1009C00032463B464FF4FA712046FFF751FE42464D
:1009D0004B462046CDE90067FFF766FE32463B46B0
:1009E00020464FF4FA71FFF7F9FD32463B464FF4CB
:1009F000FA712046FFF73CFE2046CDE90067002251
:100A00002C4BDFF8C090FFF74FFE32463B462046A6
:100A10004FF4FA71FFF7E2FD4FF0000832463B4613
:100A20004FF4FA712046FFF723FE42464B4620461C
:100A3000CDE90067FFF738FE32463B4620464FF4CB
:100A4000FA71FFF7CBFD32463B464FF4FA71204670
:100A5000FFF70EFE42464B462046CDE90067FFF702
:100A600023FE32463B4620464FF4FA71FFF7B6FDAF
:100A700032463B464FF4FA712046FFF7F9FD4246F5
:100A80004B462046CDE90067FFF70EFE32463B4657
:100A900020464FF4FA71FFF7A1FD32463B464FF472
:100AA000FA71204602B0BDE8D043FFF7E1BD00BFB8
:100AB0000000C04000806640333333333333D33FCC
:100AC00000805640008056C030B5036891FAA1F40A
:100AD000B4FA84F491FAA1F10325B1FA81F164002A
:100AE00005FA04F4490023EA040302FA01F1194368
:100AF000016030BD7FB50023072855D8DFE800F03E
:100B00000413202D3A54544700932A4B2A481A6B59
:100B100042F001021A631B6B03F001030093009B78
:100B200007B05DF804FB0193224B24481A6B42F096
:100B300002021A631B6B03F002030193019BEFE7B0
:100B400002931C4B1E481A6B42F004021A631B6B83
:100B500003F004030293029BE2E70393154B194849
:100B60001A6B42F008021A631B6B03F0080303932D
:100B7000039BD5E704930F4B13481A6B42F0100206
:100B80001A631B6B03F010030493049BC8E70593DF
:100B9000084B0E481A6B42F080021A631B6B03F07D
:100BA00080030593059BBBE7094803F0C5FA0020C5
:100BB000B6E700BF003802400000024000040240D7
:100BC00000080240000C024000100240001C0240DD
:100BD00014C00008431C10B5044604D1762206490F
:100BE000064803F087F92046002100F01BFE04F0C0
:100BF0000F040120A04010BD35C000088FC00008C0
:100C000070B504464B1C0E46218216D0C1F303106A
:100C1000FFF770FF05463046FFF7DCFF238A074ADF
:100C2000656103F00F03206052F82330A36105F1E2
:100C3000100318356360A560E56070BDF4C200085C
:100C4000B0F9100000F086BE0A4619B98169406902
:100C5000FFF73ABF0122F9E74C23F0B54343224E98
:100C6000224F1A1D324400244FF0010E1E448C42C4
:100C700005D10146BDE8F0401D4803F05DBA336878
:100C80000EFA04F51D422BD0136B7D690EFA03F3A7
:100C90002B4225D0D2F818C07B61156805B3FA68DD
:100CA00033EA020203D1BA6833EA020214D10F4ACE
:100CB000916833EA010103D1D26833EA02020DD10F
:100CC000DCF81020134214BF01210221094B2846F1
:100CD0001B68BDE8F04018470221F7E70121F5E75E
:100CE00001340432C3E700BF840C0020003C014003
:100CF000C9C00008980E002006210846FFF7ACBFC7
:100D000005210846FFF7A8BF01210420FFF7A4BF73
:100D100001210320FFF7A0BF01210220FFF79CBFA4
:100D200001210846FFF798BF01210020FFF794BF7B
:100D3000012910B518D11B4C838952B1A26803F068
:100D40000F0399401143A160836843F0010383605E
:100D500010BDA26803F00F03994022EA0101A160CF
:100D6000836823F00103F2E70229F1D10D49838959
:100D70005AB1CC6803F00F03012202FA03F32343B4
:100D8000CB60836843F00203E1E7CA6803F00F0316
:100D9000012404FA03F322EA0303CB60836823F0FF
:100DA0000203D4E7003C0140B0F90C3099B270B5B1
:100DB00001F00F0606F00C0404F1804404F59C34A5
:100DC00001F00301A56889000F228A40C3F30313D1
:100DD00025EA02058B402B43A3600F4B01221968C3
:100DE000B240114319608468E50742BF9968114316
:100DF0009960A10742BFD9680A43DA6090F90030D0
:100E0000002B08DB5909012203F01F0302FA03F348
:100E1000024A42F8213070BD003C014000E100E090
:100E20002DE9F04F92464A1C85B080460C4666D0AC
:100E300000220392334A344F516C41F48041516493
:100E4000526C02F480420392039A04F00F090C22C0
:100E500002FB0972C4F303105568062D47D8DFE87A
:100E600005F0043A3C3E40424400284E0193FFF70F
:100E700041FE0C2101FB09F17A1857F801E0244FDB
:100E8000A8F80C404C21694301247B5892F90820B2
:100E9000C8F8045004FA0EF44FF0000B1C4388F815
:100EA0000020C8F808B07C50132101FB05E507EBD2
:100EB0008501019B4B60174BC861C3F800A0164B1E
:100EC000C1F834909B681032404643F82260FFF727
:100ED0006BFF584610E0114EC8E7114EC6E7114EA1
:100EE000C4E7114EC2E7114EC0E7114EBEE71148EC
:100EF00003F022F94FF0FF3005B0BDE8F08F08464F
:100F0000FAE700BF00380240F4C00008290D0008CD
:100F1000840C0020980E002000ED00E0210D000858
:100F2000190D0008110D0008090D0008010D000839
:100F3000F90C0008A2C0000883890C2203F00F03FB
:100F400070B55A431C4CA518A4581C4A6E68956885
:100F5000012101FA03F3DB431D409560D5681D4074
:100F6000D56015682B4013604C237343144AD35843
:100F700001FA04F4A3431ED190F90030002B0CDBDE
:100F80005A0903F01F03994002F120030D4A42F869
:100F90002310BFF34F8FBFF36F8F90F90030002BFA
:100FA00009DB5A09012103F01F0301FA03F3603240
:100FB000044941F8223070BDF4C00008003C0140F3
:100FC000840C002000E100E0838903F00F020C2371
:100FD0005343104A70B4D65843680F4A4C215943C2
:100FE000012404FA06F5545824EA05045450132148
:100FF00001FB036302EB8304002161609C1D0C3341
:1010000002EB840402EB83036160596070BCFFF75C
:1010100093BF00BFF4C00008840C002008B502F0A4
:1010200011F8002008BD000008B50A4B1B684BB141
:1010300002F0E6FA02F0CFFE4FF47A72002309F0D4
:10104000F1FE08BD02F05EF84FF47A73B0FBF3F0E6
:1010500008BD00BF9C0E002010B588B002F012FF42
:10106000052101A802F073F90424039B019A1A6078
:10107000962003F0BBF8019B049A1B041360962092
:1010800003F0B4F8013CF0D10424039B019A1A60E8
:101090004FF4C87003F0AAF8019B049A1B04136074
:1010A0004FF4C87003F0A2F8013CEED1DCE7000079
:1010B00070B50D46A0B0044602F0E4FE2B46224671
:1010C0008021684606F044F9051E03DC02F0F0FEBC
:1010D00020B070BD094B1B6823B9032202210848C8
:1010E00000F0F0FE064E00241DF8041030460134D6
:1010F00001F066F8A542F7D1E8E700BFF40E002042
:10110000101000200FB407B504A951F8040B019189
:10111000FFF7CEFF03B05DF804EB04B070470000AA
:1011200008B501F03DFF01F085F801F029FF01F05D
:1011300037FF024B01221A6008BD00BF9C0E002041
:1011400000207047036801221B69002118470368CB
:1011500000221B691146184703681B69184703687A
:101160009B69184703689B6A184700290CBF6FF0FA
:101170001800002070470120704711207047704709
:101180006FF01C0070476FF015007047012070472A
:101190000020704770470000F8B5074E15460C4612
:1011A0008F18BC4205D014F8011B304601F008F836
:1011B000F7E72846F8BD00BF1010002038B58DB203
:1011C00015F0010405D0084800F00AFE041C18BF01
:1011D0000124EB0605D5044800F018FE08B144F0E0
:1011E0001004204638BD00BF1010002010B5044682
:1011F00003F0E6FF204610BD10B50C462AB10448A6
:1012000000F0CCFF2070012010BD104610BD00BFC3
:101210001010002038B51D46074B0360074B1B68B4
:10122000044633B9064800F04DFE2946044800F054
:1012300023FE204638BD00BFBCC10008F40E0020CC
:1012400010100020002070470020704708B50120D2
:1012500000F036F80C4A136810B51844EFF3088113
:10126000884205D3094B0C221A604FF0FF3010BDA5
:1012700007490C6824B10749096821448842F1D222
:101280001060184610BD00BF9C02002064110020B1
:10129000B00E0020B40E0020074C08B523680546A8
:1012A000986803F043FA2368D86803F03FFA0DB159
:1012B000FFF7D2FEFEE700BFA80200200120704722
:1012C00008B5FFF7E9FF01207047002104F000BADC
:1012D0007047704708B5FFF7FBFF08BD08B5FFF77B
:1012E000F8FF08BD10B5037803F00303012B044693
:1012F0000CD02BB140F2A9520549064802F0FAFD84
:10130000237843F002032370012010BD002010BD9C
:1013100021C2000878C2000810B5037803F0030367
:10132000022B044605D040F2B1520549054802F0AF
:10133000E1FD237823F0030343F00103237010BD84
:1013400021C200089EC200083F2870B504462FDC69
:10135000184D55F820305A1C13D1022811DCFFF724
:1013600073FF034658B92046FFF76CFF034630B9B8
:10137000114E3378BFF35B8FDB0704D50F4B45F875
:101380002430184670BD3046FFF7ACFF0028F5D07A
:101390004FF41653032202210848FFF73BFF304663
:1013A000FFF7BAFF064A07490448FFF787FFE5E75A
:1013B0000023E6E79C010020A00E0020AC0E0020D8
:1013C000980100209511000838B50546FFF7BCFFCD
:1013D0000B4B002443F8254030B903F095F809235E
:1013E00003604FF0FF3038BD03685B699847051E06
:1013F00004DA03F089F86D420560F2E7204638BD53
:101400009C010020FFF7E0BF38B50C461546FFF7FA
:101410009BFF38B903F078F8092303604FF0FF34DD
:10142000204638BD03682146DB682A469847041EDB
:10143000F6DA03F069F864420460EFE708B5131EBA
:1014400006DA03F061F8162303604FF0FF3008BDA1
:1014500004D0FFF7D9FF40EAE07008BD184608BD88
:1014600038B50C461546FFF76FFF38B903F04CF856
:10147000092303604FF0FF34204638BD036821463E
:101480009B682A469847041EF6DA03F03DF864424A
:101490000460EFE7002A08B503DBBDE80840FFF76A
:1014A000DFBF03F031F8162303604FF0FF3008BDB3
:1014B00010B5FFF749FF044628B903F025F80923C2
:1014C0000360204610BD0368DB699847041EF8DA04
:1014D00003F01AF8644204600024F2E71FB5042206
:1014E0000C4640230DEB020101900DF109008DF82F
:1014F000083003F0EFFE214602A803F05FFA04462D
:1015000030B10198FFF7D4FF10B12046FFF7DDFEA0
:10151000204604B010BDFFF7CBBF38B50C461546CA
:10152000FFF712FF38B902F0EFFF092303604FF015
:10153000FF34204638BD036821461B692A46984778
:10154000041EF6DA02F0E0FF64420460EFE7FFF702
:10155000E4BF38B50D46FFF7F7FE044630B902F098
:10156000D3FF092303604FF0FF3038BD0368DB6908
:101570009847002814BF4FF400534FF400436B60AA
:10158000236820469B6A98472861002038BDFFF7F2
:10159000E0BF000037B5054603F00AFE044630B947
:1015A000009003462A460349034802F0E7FD20461F
:1015B00003B030BD04C200081F01018003F000BE6B
:1015C00010B504460948FFF79FF90023084A194659
:1015D00052F82300A04208BF42F823100133402BE9
:1015E000F6D10248FFF790F910BD00BFA40E00200D
:1015F0009C01002010B50F48FFF786F90E4B03241D
:1016000053F824206AB10134402CF9D102F07CFF58
:10161000182303600748FFF777F94FF0FF3420469F
:1016200010BD4FF0FF32034843F82420FFF76CF958
:10163000F5E700BFA40E00209C01002010B5044671
:10164000FFF7D8FF0028A4BF014B43F8204010BD8E
:101650009C01002070B506460C46FFF7EFFF0546DB
:1016600090B12146FFF73AFF044630B9074B53F8D3
:101670002520964203D143F82500204670BD02F094
:1016800043FF09230360F8E70446F6E79C010020C6
:101690000EB42DE9F04185B00546FFF7ABFF041EFF
:1016A00013DB0023294602A8019302F035FC02A8AF
:1016B00002F084FC1B4D064668B902F025FF132397
:1016C000036045F824604FF0FF34204605B0BDE8C4
:1016D000F04103B0704702A802F05EFC074602A882
:1016E00037B102F062FC0190019B45F82430ECE731
:1016F00002F049FC06460028DFD0036802A8D3F8B0
:10170000088002F035FC0B9B024601A93046C04719
:1017100006460028E8D002F0F7FE7642066045F85B
:101720002470D0E79C01002073B50E461849054689
:1017300004F0CAF8044620B9FFF706FE204602B0BE
:1017400070BD1449284604F0BFF820B90120FFF706
:10175000FBFD0124F2E71049284604F0B5F820B952
:101760000220FFF7F1FD0224E8E72B78402B07D198
:101770000422691C0DEB020003F0ACFD019CDDE7C7
:1017800026F400412846FFF783FF0446D6E700BF52
:10179000E5C20008ECC20008DDC2000870477047CF
:1017A000074B08499A68084810B5043A52F8044FA4
:1017B00041F8044F8142F9D14FF000529A6010BDB8
:1017C00000ED00E0FCFFFF1F9001002008B5FFF7CF
:1017D000E7FFFFF7A5FCFFF7E2FF08BD08B5FFF73D
:1017E000DDFFBDE80840FEF729BD30B5C36891FABA
:1017F000A1F4B4FA84F491FAA1F10325B1FA81F1CC
:10180000640005FA04F4490023EA040302FA01F132
:101810001943C16030BD012A02D0022A18BF00223C
:10182000FFF7E3BF2DE9F0410E46411C044604D109
:101830003E224449444802F05DFB04F00F08434B4C
:10184000C4F3031053F82850FFF754F906F00707C4
:101850000446836895FAA5F1B1FA81F195FAA5F2EB
:101860000320490000FA01F1B2FA82F223EA0103EF
:101870005200022101FA02F21343A36087425AD8B0
:10188000DFE807F05E1D021DB8F1070FC6F3032065
:101890003BD9626A2B0A93FAA3F1B1FA81F193FA68
:1018A000A3F34FF00F0EB3FA83F389000EFA01F1A0
:1018B0009B0022EA010200FA03F3134363623B46F2
:1018C000226895FAA5F0B0FA80F095FAA5F14FF0EC
:1018D000030EB1FA81F140000EFA00F0490022EA4D
:1018E00000028B40013F1343012F236005D863683A
:1018F00032074CBF2B43AB436360C6F3011229464A
:101900002046BDE8F041FFF786BF226A95FAA5F3AD
:10191000B3FA83F395FAA5F14FF00F0EB1FA81F106
:101920009B000EFA03F3890022EA030200FA01F396
:1019300013432362C3E767220249054802F0DAFA3B
:101940000023BDE734C300088FC00008F4C20008BC
:1019500016C90008431C70B506460D4604D18822FE
:101960001B491C4802F0C6FA06F00F021A4BC6F3D8
:10197000031053F82240FFF7BDF804FB04F201689E
:1019800002EB42030B40B3FBF2F3013B012B05D802
:10199000EB1E022B436809D823434360032D08D173
:1019A00001222146BDE87040FFF735BF23EA04035A
:1019B0004360012DF4D0052D01D0022D01D102226A
:1019C000EFE721460022BDE87040FFF70EBF00BFE1
:1019D00034C300088FC00008F4C2000830B507EE19
:1019E000101A284B02681A60B5EEC07AF1EE10FAB0
:1019F00089B0054628D4F7EE007AB4EE677AF1EEA6
:101A000010FAC8BFB0EE677AD5ED037AF8EE677AC0
:101A1000602267EE877A0192FCEEE77AAA68C5ED4C
:101A2000047A17EE903AB3FBF2F302930023039388
:101A300005930693049307932B7D013B032B16D844
:101A4000DFE803F01B0517199FED0F7ADCE704248C
:101A5000224601A90B4800F0C3FF10B10B4802F069
:101A60006BFB6B7D074821464BB101F075F809B05F
:101A700030BD0824ECE70C24EAE70024E8E701F095
:101A800047F8F4E7B80E0020000000002EC400085C
:101A9000C368ABB107EE903AD0ED046AB8EE677A4E
:101AA000F8EE666AC6EE877AB7EE007AF4EE477A09
:101AB000F1EE10FAC8BFF0EE477A17EE900A7047C1
:101AC000DFED017AF9E700BF000000002DE9F047E3
:101AD0004A4C0268226086B000230E4600930546F9
:101AE000FFF7D6FF116A41F211131942074608D1D8
:101AF000116A40F24443194202BF136823F0010304
:101B00001360694601A800F02BFE3D4829680023B8
:101B100080465FFA83F9013350F839208A42F8D1C0
:101B200011B9384802F008FB08EBC90898F80430EE
:101B300053BB00F0F5FD0090049800990123AB60C1
:101B4000314B30BBB1FBF3F3013B636006F1FF3C6B
:101B50002D4B6268B1FBF3FE4FEA41080021B8FB50
:101B6000F3F8C4F80CC063468A464FF6FE79B3F525
:101B7000803F12D2B2F5803F0FD2BAF1000F00D0F1
:101B80006260F1B1E3601CE000F0DAFD00900598BE
:101B9000D3E74A00B2FBF3F3D6E7AB685B00AB6078
:101BA00030BB0EFB03F2BCFBF3F34B4502F1FF32FB
:101BB00021D8B2F5803F1ED314486260E36002F082
:101BC000BBFA00230D482361A36000F0C3FE10B1EF
:101BD0000E4802F0B1FAEE6039462846FFF7FEFEE5
:101BE0002268136843F00103136006B0BDE8F08774
:101BF00008FB03F2D7E701218A46B8E7B80E0020B8
:101C000048C4000819C4000840420F002EC4000850
:101C100070B50E46044688B05449304601F048FD80
:101C20002060013004D12E225149524802F062F95D
:101C30004E49304601F060FD431C054604D1322276
:101C40004B494D4802F056F9C5F304334B4A23750E
:101C50002368C5F34045934265754FF000021AD1E1
:101C60000092474A516C41F001015164526C02F0FC
:101C700001020092009A434A934229D1002305931E
:101C80003F4B5A6C42F480325A645B6C03F48033ED
:101C90000593059B58E0B3F1804F0BD10192384A70
:101CA000116C41F001011164126C02F00102019209
:101CB000019AE0E734498B421AD10292304A116C02
:101CC00041F002011164126C02F002020292029AC7
:101CD0002E4A93421AD100230693294B5A6C42F4A0
:101CE00000325A645B6C03F400330693069B2BE0CE
:101CF00027498B421AD10392214A116C41F0040109
:101D00001164126C02F004020392039A214A934276
:101D10001AD1002307931A4B5A6C42F480225A645A
:101D20005B6C03F480230793079B0DE01A498B42F9
:101D3000A1D1134B04921A6C42F008021A641B6C76
:101D400003F008030493049B0849304601F066FC45
:101D50000023E36023610123A680A36044F6206191
:101D60002046FFF7B3FE08B070BD00BFF8BD000805
:101D70008CC30008E8C3000800C40008000001404C
:101D8000003802400040014000040040004401408F
:101D90000008004000480140000C004007EE101A07
:101DA000DFED047A67EE277AFDEEE77A17EE901AF8
:101DB000FFF78CBE002474490FB407B5064B0749E2
:101DC0001B6805AAD868019205F04AFA03B05DF8CD
:101DD00004EB04B0704700BFA802002090C40008C4
:101DE0004368094A9B0182B0D3581A68120706D586
:101DF000002201921A6801925A680192019A1868A9
:101E0000C0F3401002B070475C1000204368034AE2
:101E10009B01D3581868C0F3C01070475C100020B5
:101E200042681449920110B40468545053188268EF
:101E30005A60C2689A600269DA6042691A61026A8D
:101E40009A610022DA84DA619A84DA859A85B0F997
:101E50001A20013206D108225A6118465DF8044B57
:101E600000F0A7BFB0F9182001320CBF04220C22E9
:101E7000F2E700BF5C10002010B581600C46FFF750
:101E8000CFFF28B121460348BDE81040FFF794BFBB
:101E900010BD00BF90C40008094B98420BD0A3F5B9
:101EA0004C43984209D003F5504398420CBF02209E
:101EB0004FF0FF307047002070470120704700BF8F
:101EC00000100140F0B50E4685B004464549304645
:101ED000154601F0EDFB44490746284601F0E8FBB2
:101EE0000146384601F0BEFB2060013004D13D229E
:101EF0003E493F4801F0FEFF022E0CD0032D0AD0D0
:101F00003849022001F0D4FB874202D1394802F05F
:101F100013F9002700E00127374B206898424FF063
:101F2000000340D10193354B5A6C42F010025A64C1
:101F30005B6C03F010030193019BFFF7ADFF0028DA
:101F4000606004DAA42229492D4801F0D3FF254915
:101F5000304601F063FB2449284601F05FFB721C08
:101F600003D001213046FFF7F5FC6B1C03D00121A3
:101F70002846FFF7EFFC4FF41653A3600023E360FD
:101F8000236163612362268365832046FFF748FF50
:101F90003FB11C4B1C4801221A6021464C2203F021
:101FA00099F905B0F0BD194A90420BD10293134B39
:101FB0001A6C42F400321A641B6C03F4003302936F
:101FC000029BBAE7124A9042B7D103930B4B5A6C6B
:101FD00042F020025A645B6C03F020030393039BDE
:101FE000ABE700BFCCBF000884BF0008BAC400083C
:101FF00016C5000832C50008001001400038024034
:1020000067C50008F40E00201010002000440040B6
:1020100000140140002808DB4209012300F01F00E2
:1020200003FA00F0014B43F82200704700E100E0A2
:1020300000280DDB4309012200F01F0002FA00F026
:102040002033044A42F82300BFF34F8FBFF36F8F52
:10205000704700BF00E100E0F7B5FFF71DFF071E66
:1020600026DB144E56F8270010B3134CBD016359FC
:102070001A68120606D5DB68190603D50F4B012135
:102080001B68984763591A68920608D5DB6898065A
:1020900005D50A4B56F827001B680021984763595D
:1020A0001A68110704D55A69D20744BF5B680193C7
:1020B00003B0F0BDFC0E00205C100020F80E0020E4
:1020C0000148FFF7C9BF00BF001401400148FFF7F6
:1020D000C3BF00BF004400400148FFF7BDBF00BFC1
:1020E00000100140034B19604168034B43F8212065
:1020F000704700BFF80E0020FC0E002009C830B465
:10210000204CA0420AD004F58064A0421AD0A4F565
:102110005044A04219D11C4C262001E01B4C252024
:102120001B4D9B01BAB1EA58D36889B943F020032B
:10213000D360184B00F110029B6843F8224030BC7A
:10214000FFF768BF144C4720EAE700242046E7E782
:1021500043F08003ECE7EB58DA6849B922F020023B
:10216000DA60DB6813F0800F09D130BCFFF760BF85
:1021700022F08002DA60DB6813F0200FF4E730BC55
:10218000704700BF00100140CD200008D920000892
:102190005C10002000ED00E0C120000838B5446864
:1021A00005462846FFF71CFE0028FAD0A401034B81
:1021B0001B595868C0F3080038BD00BF5C100020F0
:1021C00070B5456806460C463046FFF71FFE0028EE
:1021D000FAD0AD01024B5B59C4F308045C6070BDDA
:1021E0005C100020DFF830D0002103E00B4B5B587F
:1021F000435004310A480B4B42189A42F6D30A4A1C
:1022000002E0002342F8043B084B9A42F9D300F065
:1022100013FEFDF7DFFF70470080012064CF000848
:1022200098010020680C0020680C00206811002034
:10223000FEE7704708B50B4B1A6842F400721A604B
:102240001A6842F480621A601A6842F480721A6056
:10225000032000F009F80F20FEF7E0FEFFF7E9FF8A
:10226000002008BD003C0240074AD36823F4E06325
:102270001B041B0C43F0BF63000243F4003300F463
:10228000E0600343D360704700ED00E02DE9F341C7
:10229000044618B9012002B0BDE8F0810368DD07EB
:1022A00010D42368980758D423681A0700F19A803D
:1022B00023685B0700F1B880A269002A40F0198109
:1022C0000020E8E7A64B9A6802F00C02042A07D027
:1022D0009A6802F00C02082A0AD15B68590207D5F5
:1022E0009F4B1B689A03DCD56368002BD9D1D1E7DB
:1022F00063689B4DB3F5803F11D12B6843F4803365
:102300002B60FEF791FE964D06462B689B03C8D4C2
:10231000FEF78AFE801B6428F7D90320BBE7B3F5DC
:10232000A02F04D12B6843F480232B60E5E72A68B3
:1023300022F480322A602A6822F480222A60002B4C
:10234000DFD1FEF771FE06462B689F03A9D5FEF785
:102350006BFE801B6428F7D9DFE7814B9A6812F087
:102360000C0F07D09A6802F00C02082A11D15B68A2
:102370005E020ED47A4B1A68950702D5E268012AEC
:1023800088D11A68216922F0F80242EAC1021A6073
:102390008AE7E268734BB2B101221A60FEF744FE8D
:1023A0006F4D06462B68980707D52B68226923F0E6
:1023B000F80343EAC2032B6076E7FEF735FE801B85
:1023C0000228EFD9A9E71A60FEF72EFE644D0646F3
:1023D0002B6899077FF568AFFEF726FE801B022861
:1023E000F6D99AE76269604B7AB101221A60FEF76A
:1023F0001BFE5B4D06466B6F9F073FF559AFFEF71F
:1024000013FE801B0228F6D987E71A60FEF70CFE40
:10241000534D06466B6F98077FF54AAFFEF704FEF3
:10242000801B0228F6D978E74D4B1A6C12F08052C7
:1024300028D101921A6C42F080521A641B6C03F08E
:1024400080530193019B0126484D2B68D9051BD56C
:10245000A368434D012B27D12B6F43F001032B675A
:10246000FEF7E2FD3E4D074641F288382B6F9B0791
:1024700039D5002E3FF420AF394A136C23F0805336
:10248000136419E70026DFE72B6843F480732B60A1
:10249000FEF7CAFD07462B68DA05D9D4FEF7C4FD5E
:1024A000C01B0228F7D938E7052B04D12B6F43F066
:1024B00004032B67D0E72A6F22F001022A672A6FF4
:1024C00022F004022A67002BCAD1FEF7ADFD41F2CB
:1024D000883807462B6F9807CBD5FEF7A5FDC01BA4
:1024E0004045F7D919E7FEF79FFDC01B4045BDD910
:1024F00013E71B4DAB6803F00C03082B3FF4CAAE87
:102500001B4E0023022A336034D1FEF78DFD0746AF
:102510002B6899011ED4226AE3691343626A43EA75
:102520008213E26A43EA0263A26A0D4C5208013A3E
:1025300043EA02436B6001233360FEF775FD0546F5
:1025400023689A013FF5BCAEFEF76EFD401B0228E2
:10255000F6D9E2E6FEF768FDC01B0228D8D9DCE612
:102560000038024000004742800E474200700040A1
:1025700060004742FEF758FD04462B689B017FF53B
:102580009FAEFEF751FD001B0228F6D9C5E600BF3D
:10259000134908B58B6803F00C03042B03D0082BF8
:1025A00003D0104808BD104808BD4A684B68496808
:1025B00013F4800314BF0C480A48C1F3881118BFF4
:1025C000002302F03F02A1FB000108F02BFC044BAA
:1025D0005B68C3F3014301335B00B0FBF3F008BD5C
:1025E000003802400024F40000127A002DE9F04186
:1025F0000D46044610B90120BDE8F081444B1A682D
:1026000002F00F028A4228D321688F072DD4C80711
:1026100040D43F4B1A6802F00F02954266D32268FD
:1026200051076CD4130707D53A4A2169936823F4FC
:10263000604343EAC1039360FFF7AAFF354B364A74
:102640009B68C3F30313D35CD840344B18600F204E
:10265000FEF7E4FC0020BDE8F081CAB21A701B68E6
:1026600003F00F039942C6D1CEE72A4B11F0040FB5
:102670001EBF9A6842F4E0529A600E0742BF9A6801
:1026800042F460429A609A68A06822F0F002024325
:102690009A60BCE762681F4B012A1DD11B6813F4C6
:1026A000003FA8D01B4EB36823F003031343B3606D
:1026B000FEF7BAFC41F288380746B368626803F057
:1026C0000C03B3EB820FA4D0FEF7AEFCC01B404559
:1026D000F3D90320BDE8F081911E01291B6802D8BF
:1026E00013F0007FDDE713F0020FDAE7EAB21A70A9
:1026F0001B6803F00F039D427FF47DAF8FE7054910
:10270000E0688B6823F4E05303438B608AE700BFE3
:10271000003C0240003802408DC50008A0020020A5
:10272000044B054A9B68C3F38223D35C034A1068B9
:10273000D8407047003802409DC50008A002002024
:10274000044B054A9B68C3F34233D35C034A1068C9
:10275000D8407047003802409DC50008A002002004
:102760000F2303600B4B9A6802F0030242609A68E1
:1027700002F0F00282609A6802F4E052C2609B6844
:10278000DB0803F4E0530361034B1B6803F00F0302
:102790000B60704700380240003C0240036A23F09F
:1027A00001030362036A70B5446882690D6822F010
:1027B00073022A438D6823F002032B430A4DA8427B
:1027C0000BD1CD688E6923F008032B434D6924F4A7
:1027D0004074354323F004032C43446082614A680B
:1027E0004263036270BD00BF00000140036A23F42E
:1027F00080730362036A70B54468C2690D6822F091
:1028000073022A438D6823F4007343EA05230B4DBA
:10281000A8420DD1CD688E6923F4006343EA0523F5
:102820004D6924F44054354323F4806344EA05148D
:102830004460C2614A68C263036270BD0000014027
:10284000036A23F480530362036A30B54468C269A3
:102850000D6822F4E64242EA05228D6823F4005313
:1028600043EA0533064DA84202BF4D6924F4804473
:1028700044EA85144460C2614A680264036230BD60
:102880000000014070477047224A036890420ED012
:10289000B0F1804F0BD0A2F57C42904207D002F5F8
:1028A0008062904203D002F58062904219D14A685A
:1028B00023F070031343174A904204D1CA6823F4EB
:1028C0004073134318E0B0F1804FF7D0124A9042A2
:1028D000F4D002F580629042F0D002F5806290421E
:1028E000ECD00E4A9042E9D002F580629042E5D0E9
:1028F00002F580629042E1D003608B68C3620B688E
:102900008362044B984204BF0B6903630123436154
:10291000704700BF0000014000040040004001403B
:1029200010B50446A0B190F8393003F0FF021BB98E
:1029300080F83820FFF7A6FF022384F8393020689A
:10294000211DFFF7A1FF012384F83930002010BDBD
:10295000012010BD10B50446A0B190F8393003F045
:10296000FF021BB980F83820FFF78DFF022384F89F
:1029700039302068211DFFF787FF012384F83930A3
:10298000002010BD012010BD036A23F01003036274
:10299000036A70B5446882690D6822F4E64242EA2F
:1029A00005228D6823F0200343EA05130B4DA8424E
:1029B0000DD1CD688E6923F0800343EA05134D697C
:1029C00024F44064354323F0400344EA8504446022
:1029D00082614A688263036270BD00BF00000140EB
:1029E00038B590F83830012B04464FF0020025D05E
:1029F000012384F8383084F839000C2A18D8DFE82D
:102A000002F0071717171E1717172F171717400071
:102A10002068FFF7C3FE236809699A6942F008023B
:102A20009A619A6922F004029A619A690A439A614A
:102A30000123002084F8393084F8380038BD20683C
:102A4000FFF7A2FF236809699A6942F400629A615C
:102A50009A6922F480629A619A6942EA0122E6E761
:102A60002068FFF7C3FE23680969DA6942F00802AB
:102A7000DA61DA6922F00402DA61DA690A43DA61BA
:102A8000D6E72068FFF7DCFE23680969DA6942F4BB
:102A90000062DA61DA6922F48062DA61DA6942EAB4
:102AA0000122ECE7036A10B501248C4023EA0403F9
:102AB0000362036A8A401A43026210BD10B50446DD
:102AC00000220068FFF7EEFF2368104A93420DD101
:102AD000196A41F21112114208D1196A40F24442B6
:102AE000114202BF5A6C22F400425A64196A41F240
:102AF0001112114208D1196A40F24442114202BF38
:102B00001A6822F001021A60002010BD0000014086
:102B100010B5044601220068FFF7C4FF2368064A87
:102B2000934202BF5A6C42F400425A641A6842F05F
:102B300001021A60002010BD00000140FFF7E8BF4D
:102B4000036A10B504248C4023EA04030362036A79
:102B50008A401A43026210BD10B504460422006880
:102B6000FFF7EEFF23685A6C42F400425A641A6879
:102B700042F001021A60002010BD00002DE9F0476C
:102B80000668C2683369C16923F440531343336153
:102B9000044683680069F2680343606922F41642C0
:102BA000034322F00C020B431343F3607369A269E1
:102BB00023F440731343B1F5004F73617A4B7CD11A
:102BC0009E4203D003F580639E4244D1FFF7B8FDD7
:102BD000192505FB00F360684FF064094000B3FB62
:102BE000F0F3B3FBF9F34FEA0318FFF7A9FD6368AD
:102BF00068435B00B0FBF3F7FFF7A2FD636868432F
:102C00005B00B0FBF3F3B3FBF9F309FB1373DB00D9
:102C10003233B3FBF9F35B0003F4F877FFF790FD71
:102C2000626868435200B0FBF2FAFFF789FD6368FF
:102C300068435B00B0FBF3F3B3FBF9F309FB13A3A9
:102C4000DB003233B3FBF9F303F0070343443B44A7
:102C5000B360BDE8F087FFF763FD192505FB00F3BE
:102C600060684FF064094000B3FBF0F3B3FBF9F385
:102C70004FEA0318FFF754FD636868435B00B0FB3D
:102C8000F3F7FFF74DFD636868435B00B0FBF3F3B8
:102C9000B3FBF9F309FB1373DB003233B3FBF9F336
:102CA0005B0003F4F877FFF73BFD6268684352006E
:102CB000B0FBF2FAFFF734FDB9E79E4202D03B4B7E
:102CC0009E4240D1FFF73CFD676819254FF064092B
:102CD00005FB00F3BF00B3FBF7F3B3FBF9F31F01F0
:102CE000FFF72EFD636868439B00B0FBF3F8FFF726
:102CF00027FD636868439B00B0FBF3F3B3FBF9F374
:102D000009FB13831B013233B3FBF9F303F0F00823
:102D1000FFF716FD626868439200B0FBF2FAFFF716
:102D20000FFD636868439B00B0FBF3F3B3FBF9F35B
:102D300009FB13A31B013233B3FBF9F303F00F03B9
:102D400043EA080383E7FFF7EBFC676819254FF0B8
:102D5000640905FB00F3BF00B3FBF7F3B3FBF9F322
:102D60001F01FFF7DDFC636868439B00B0FBF3F8CD
:102D7000FFF7D6FC636868439B00B0FBF3F3B3FB3B
:102D8000F9F309FB13831B013233B3FBF9F303F0AF
:102D9000F008FFF7C5FC626868439200B0FBF2FAE6
:102DA000FFF7BEFCBDE700BF00100140001401406A
:102DB000704710B5044640B390F8393003F0FF0275
:102DC0001BB980F83820FFF7F3FF2268242384F82A
:102DD0003930D36823F40053D3602046FFF7CEFE8A
:102DE00023681A6922F490421A615A6922F02A0271
:102DF0005A61DA6842F40052DA6000202023E0636E
:102E000084F8393084F83A3010BD012010BD7FB508
:102E10000F230193022100234FF4805201A8029155
:102E2000039304920593FFF7E1FBB0FA80F04009A9
:102E300007B05DF804FB00000F49D1F8883043F477
:102E40007003C1F888300D4B1A68002042F001026F
:102E50001A6098601A6822F0847222F480321A6034
:102E6000074A5A601A6822F480221A60D8604FF02C
:102E700000638B60704700BF00ED00E00038024047
:102E80001030002400B58FB01D4B002100911A6C4A
:102E900042F080521A641B6C1A4A03F0805300936C
:102EA000009B0191136823F4404343F400431360F3
:102EB000136803F440430193019B01230293C8B9B3
:102EC0004FF480330393022308934FF48003099354
:102ED00008230A934FF4A8730B9304230C9302A8BE
:102EE00007230D93FFF7D2F938B9FFF790FF0FB022
:102EF0005DF804FB4FF4A023E4E70020F7E700BFF0
:102F0000003802400070004010B58EB000241A4B0B
:102F100000941A6C42F080521A641B6C174A03F03A
:102F200080530093009B0194136823F4404343F4BF
:102F3000004313601368039403F440430193019B1F
:102F400009940323029301230593102306930A9304
:102F50004FF4A8730B93042302220C9302A80723B7
:102F600008920D93FFF792F918B9FFF750FF0EB0D2
:102F700010BD2046FBE700BF003802400070004053
:102F800008B50120FFF77EFF38B9FFF7BDFF20B974
:102F90000248BDE8084001F0CFB808BD79C5000877
:102FA000174A1849936803F00C03042B10B50DD091
:102FB000082B0DD0144B0B60114B144A9B68C3F3C4
:102FC0000313D25C0B68D3400B6010BD104BF2E7CB
:102FD0005468506852686302C2F3881200F03F00E0
:102FE0004CBF0B4B084BB3FBF0F35343044A5268FE
:102FF000C2F3014201325200B3FBF2F3DBE700BF40
:1030000000380240A00200200024F4008DC5000812
:1030100000127A00074B084A13601A69910707D516
:10302000DA68920704D56FF002021A6100F0ECBA78
:10303000704700BF000C004020110020004870477E
:10304000A8C5000830B589B001A903A8FFF788FB1F
:10305000FFF766FB002302931E4B01901A6C1E4C77
:1030600042F008021A641A6C02F008020292029AF4
:103070001A6A42F008021A621A6A22F008021A62F8
:10308000069AA3F50B3323604FF0FF33E360134B35
:10309000F2B9B0FBF3F00138002560600E482561FD
:1030A000A5606561FFF73CFC0D4B0E4A9B680A4822
:1030B000C3F808210C4B4FF480225A602946FFF7D1
:1030C0003DFD2268D36823F00203D36009B030BD10
:1030D0004000DEE7003802402011002040420F008F
:1030E00000ED00E01530000800E100E0044802684F
:1030F000D36823F00203D3600021FFF71FBD00BF98
:1031000020110020014B586A704700BF000C00409E
:10311000054B1B686FF0020258631A61DA6842F0CF
:103120000202DA60704700BF20110020064B1B68C6
:103130006FF002021A615A6942F002025A61DA68BB
:1031400042F00202DA60704720110020034B1A6837
:10315000D36823F00203D360704700BF2011002022
:10316000024B1B686FF002021A61704720110020A9
:1031700008B500210348FFF7A1FCBDE80840FFF7B0
:10318000E5BF00BF2011002003689B6818470000BE
:10319000094B10B5002203600023C0E9022300237D
:1031A00003614361044600F02BFA0449A06100F07A
:1031B0008FFD204610BD00BFB8C50008893100084A
:1031C00007B5009000F10801806900F0C0FD03B070
:1031D0005DF804FB00F10801806900F0E1BD00002A
:1031E00010B5034B03600446FFF7F4FF204610BD03
:1031F000B8C5000870B5D0E90823D0E902450646F5
:1032000012196B41FFF7DCFF736B2BB106F128003D
:103210001B68BDE87040184770BDD0B5044616461F
:103220001F4600F02FFE2046FFF7D4FFC4E90867D1
:10323000A06900F0D0FD321847EB01032046FFF7EC
:10324000BFFFBDE8D04000F033BE7FB5044600F0BC
:1032500019FE2046FFF7BEFF636B13B194F83830B8
:10326000E3B904F128066D4610220021684602F0F9
:1032700033F9AE420BD03046FDF726F93EB1039B41
:103280001BB15B68694630469847039B63632846D9
:10329000FDF71AF900F00CFE04B070BD00F090F9D3
:1032A000DFE7000038B50546064B45F8283B0446E5
:1032B000FFF7CBFF2846FDF707F92046FFF790FF01
:1032C000204638BDCCC5000810B50446FFF7EAFF1C
:1032D0002046FEF773F9204610BD70B50E46044631
:1032E0001546FDF78DFC013609D020460021FDF77B
:1032F000ABFC29462046BDE87040FDF7A1BC70BD7F
:1033000038B504460D4603685AB1826813602046FA
:103310000121FDF799FC29462046BDE83840FDF71C
:103320008FBCC2681B04F1E70022FFF7D6BF70B55F
:103330000E4604461546FDF763FC013606D02A46C4
:1033400020460021BDE87040FFF7DABF70BD0022C3
:10335000FFF7EDBF0346024A2030FDF761BD00BF15
:10336000A1340008F8B50546134B45F8043B044664
:103370000F4610261C220021284602F0ADF83246E6
:10338000002104F1200002F0A7F83246002104F1E8
:10339000300002F0A1F83246002104F1400002F0B2
:1033A0009BF839462046FFF7D5FF28463946FFF7F8
:1033B000BBFF2046F8BD00BFFCC5000883681A6843
:1033C00043681A4214BF01200020704710B5084B13
:1033D000044640F8203BFDF7F7FD04F14000FDF7FF
:1033E00073F804F13000FDF76FF8204610BD00BF00
:1033F000FCC5000810B50446FFF7E8FF2046FEF7BD
:10340000DDF8204610BD884238B504460D460AD086
:10341000FDF75AF83CB1EB681BB15B6829462046C2
:103420009847EB68E360204638BDF0B50F4685B09D
:10343000044600F027FDFD6804F13006203465B134
:1034400039463046FFF7DFFF012201212046FDF714
:103450006FFC00F02DFD05B0F0BD10222946684636
:1034600002F03AF869463046FFF7CDFF6846FDF7AF
:103470002BF82A46E9E70000C36810B504462BB9CB
:1034800040F239220449054800F034FDE368204643
:103490001B68BDE810401847D8C50008EEC50008F5
:1034A000012908B502D0022906D008BDC36B13B1AB
:1034B0003030FFF7E1FF08BDC36C002BFBD040307C
:1034C000F7E77047A0F1BC00FFF7FBBFA0F1BC001D
:1034D000FFF7F7BF00F05EB9A0F1BC00FFF7FABF3D
:1034E00000F05BB9A0F1BC00FFF7FABF0A4B10B5C2
:1034F00003F10802026003F1280288330446C0F891
:10350000BC20C0F8C030BC3000F088FF204600F07E
:1035100007FA204610BD00BF04C60008A0F1BC0099
:10352000E4E7A0F1C000E1E710B50446FFF7DEFFD5
:103530002046FEF743F8204610BDA0F1BC00F3E79B
:10354000A0F1C000F0E7000010B5044600F034F927
:10355000002104F1BC0000F035FF064B03F1080226
:10356000226003F128028833C4F8BC20C4F8C030BC
:10357000204610BD04C6000813B50E4C00F082FCB6
:1035800022884FF6FF739A420AD100F091FC002383
:10359000228800930849094800F0F0FD02B010BDF0
:1035A0000121204600F092FC02B0BDE8104000F07E
:1035B0007FBC00BF080F002094C6000823010480D0
:1035C00037B50C4C00F05EFC258855B900F070FC56
:1035D000228800952B460849084800F0CFFD03B02B
:1035E00030BD0121204600F07BFC03B0BDE8304037
:1035F00000F05EBC080F0020B9C60008240104805A
:1036000000487047D8C60008024B1B680BB102483F
:1036100018477047A4020020D8C6000813B5044616
:1036200001300FD102B010BD9C420AD120468968FA
:10363000FEF7F8F80021204602B0BDE81040FEF782
:1036400089B90C31B1F900305A1CEDD10023009337
:1036500022460249024800F091FDE3E74FC7000807
:1036600030010180884207B502460BD0431C09D0C7
:1036700001310BD0002306490093064800F07EFD7F
:103680004FF0FF31084603B05DF804FB0146F9E74F
:103690001EC7000830010180B1F900305A1C01D169
:1036A00018467047834201D1486870470C31F3E7F0
:1036B000421C13B504460BD0FFF7EEFF431C044633
:1036C00006D10023024600930349044800F056FD4A
:1036D000204602B010BD00BF2FC700083001018096
:1036E000B1F900305A1C01D118467047834201D10C
:1036F000886870470C31F3E7421C13B504460BD0C1
:10370000FFF7EEFF431C044606D100230246009358
:103710000349044800F032FD204602B010BD00BF4E
:1037200000C70008300101807047704710B480B1B5
:10373000146853680CB9DA070BD513F0010F4FEA80
:1037400063031CBFC2581459184423465DF8044B48
:1037500018475DF8044B7047090170B501F19805F1
:103760000544EB6883B14418D4F8A4302BB940F277
:1037700039220649064800F0BDFBD4F8A43028469B
:103780001B68BDE87040184770BD00BFD8C5000871
:10379000EEC500084C30FEF701BD10B54C300C46AC
:1037A000FEF70EFD204610BDC36810B504460BB1F0
:1037B0009B689847204610BD2DE9F04F87B0002543
:1037C0009246009502460195044689469B469DE82F
:1037D0000300324B42F8083B314B82E8030023617F
:1037E00048F2070363612F4BE561A46122626362C3
:1037F000BFF36F8FBFF34F8F102284F8285084F8E7
:10380000295004F12C0001F067FE04F14C06294612
:10381000102204F13C0001F05FFE04F198082946F3
:103820004C22304601F058FE04F1A8072946102228
:10383000404601F051FE29461022384601F04CFE68
:1038400010222946C4F8B8B002A801F045FE02A92A
:103850004046FFF7D8FD02A8FCF736FE10222946A5
:1038600002A801F039FE02A93846FFF7CCFD02A8F4
:10387000FCF72AFE524649463046FEF723FBD4F8B1
:10388000B8103046FEF7F8FA304622460649FEF7F1
:1038900029FC204607B0BDE8F08F00BF68C70008CC
:1038A00001A090E82D370008593700082DE9FF41A5
:1038B0000646884656F84C3B17461B6805463C01B1
:1038C000984700F0DFFAD8F80C3098342C44ABB1AC
:1038D000E3680BB9FFF750FE41462046FFF793FD22
:1038E000012239463046FEF709FC00F0E1FA2B6868
:1038F00028465B68984704B0BDE8F081E3680BB1E7
:10390000FFF75EFE10220021684601F0E5FD6946E2
:103910002046FFF778FD6846FCF7D6FD0022E0E779
:103920007FB51A4B0360044610220021684601F05F
:10393000D3FD002269462046FFF7B8FF6846FCF732
:10394000C3FD10220021684601F0C6FD0122694630
:103950002046FFF7ABFF6846FCF7B6FD14F198066A
:1039600008D004F1B805B54204D0103D2846FCF754
:10397000ABFDF8E704F13C00FFF716FF04F12C0063
:10398000FFF712FF204604B070BD00BF68C70008F3
:1039900010B50446FFF7C4FF2046FDF70FFE204692
:1039A00010BD00002DE9F74FD0F804A09AF83A3086
:1039B0000446002B46D103685B68984763681B6A1E
:1039C00098423FD0DAF82030DAF80840CAF82000F0
:1039D000A0EB0308DAF80C30314808EA0308844207
:1039E00046464FF0000727D0DAE90A239AF83BB0A1
:1039F000A8FB0089CDE900230025BBF1000F2BD0E7
:103A00005A464046494606F0F1FCDDE9002312EB38
:103A1000080243EB090390465A46994606460F466C
:103A200006F0F0FCB8EB000069EB0101A94208BF09
:103A3000A0420AD2CAE90A01DAE90C23B6185F41AA
:103A4000CAE90C6703B0BDE8F08F013647F1000703
:103A5000001B61EB0501EDE722462B464046494637
:103A600007F0E0F9224606460F46404649462B46F7
:103A700007F0D8F9DDE9008918EB020849EB0309E2
:103A8000A94508BFA04502D2CAE90A89D4E7013690
:103A900047F10007B8EB040869EB0509F4E700BF3C
:103AA00040420F00824206D98A420BD9884294BF15
:103AB000002001207047884206D98A428CBF00202E
:103AC0000120704701207047002070472DE9F14F19
:103AD000476897F83A300646002B44D197F83930BA
:103AE000002B40D1FFF75EFF75686B68002B59D043
:103AF000D5E90C89D3E90001894508BF804505D384
:103B000033685B6901B0BDE8F04F1847D5E906237B
:103B1000B0EB080861EB09094B4508BF42452C6929
:103B200006D3AB68254A934220D1444528BF44467A
:103B30002B6A1C44EB681C403B6AA34205D140F24F
:103B400007121F491F4800F0D5F9336820461B694A
:103B5000984733685B68984722460146386AFFF702
:103B6000A1FF0028CCD101B0BDE8F08F95F83B2033
:103B7000DFF854A04FF0000B7AB14046494606F0FA
:103B800041FC10EB0A0041EB0B010C4A002307F04B
:103B900049F9844228BF0446CAE7A3FB080103FB96
:103BA0000911EEE73B69386AFA68184433681B6903
:103BB000104001B0BDE8F04F184700BF40420F0071
:103BC00078C70008CAC700083F420F002DE9F04F30
:103BD000436893F8382085B00546002A6FD193F8E2
:103BE0003A30002B6BD103681B6898472B68DB6960
:103BF0009847066804462EB92C2232493248334E83
:103C000000F078F91F23012202FA03F1B1425FFAB2
:103C100083FB02D0013BF7D19B46D4F804A0AAF164
:103C200004031C2B06D93A222649274800F062F9E2
:103C30004FF0200AAAF10403072716F1FF3007FA14
:103C400003F7224C4FF0000343F1FF313246C4FB2F
:103C5000070107F0E7F86C682A68002323606360B7
:103C600052680393CDE90001904720626C684FF0E1
:103C700000084FF000095246C4E90A89A66084F89A
:103C80003BB00120002106F0BDFBDDE90023C4E9C3
:103C90000623039B84F8393084F83A300138012335
:103CA000E06027612846C4E90C8984F83830FFF7C2
:103CB00079FE284605B0BDE8F04FFFF707BF05B015
:103CC000BDE8F08F78C7000816C9000840420F0011
:103CD00038B505460C46FFF779FF00F0D3F86B685E
:103CE0001C60BDE8384000F0E3B870B5044600F051
:103CF000C9F82368DB689847636893F83A201AB1DB
:103D0000BDE8704000F0D4B8012283F83920636820
:103D10005B68A3B12046FFF745FE65686E68D5E98C
:103D20000C01D6E90023994208BF904207D3F368FB
:103D30006B602B68002BEAD0B0689847E7E76368B0
:103D4000002283F839202046FFF7C0FED8E72DE98E
:103D5000F04180460C4616461F46069D00F092F83C
:103D60004046FFF71FFED8F80420A560C4E90067AD
:103D7000536800254BB9E36085B954604046FFF7AE
:103D8000A5FEBDE8F04100F093B8D3E900018F42F1
:103D900008BF8642EFD31D46DB68EBE7EC60F0E737
:103DA00038B505460C4600F06DF86A685368A342C2
:103DB00009D1DB6853602846FFF788FEBDE838402C
:103DC00000F076B81346002BF8D0DA689442F9D1A7
:103DD000E268DA60F2E710B50446FFF7F7FE00F09C
:103DE00051F82046FFF7DEFD00F062F86368D3E982
:103DF0000C0110BD08B5FFF7EEFF08BD10B5034B71
:103E000003600446FFF74EFA204610BDF8C70008CD
:103E100010B50446FFF7F2FF2046FDF7CFFB204622
:103E200010BD00001FB5436B044600F1280113B11B
:103E30005B6868469847636B03932046FFF705FA73
:103E4000039B2BB940F239220649074800F052F88B
:103E5000039B68461B6898476846FCF735FB04B02F
:103E600010BD00BFD8C50008EEC50008EFF31080F4
:103E7000C04300F001007047EFF30580003018BF29
:103E80000120704710B5074C2368013304D151223B
:103E90000549064800F02EF800F0F0FA23680133D7
:103EA000236010BD500F002004C8000859C8000846
:103EB000054B1A6832B11A68013A1A601B680BB9CF
:103EC00000F0EEBA704700BF500F0020D0E85F3F0F
:103ED0000B449BB2C0E8523F002AF7D11846704706
:103EE000D0E85F3F5B1A9BB2C0E8523F002AF7D18F
:103EF0001846704770B504460D461646FFF7C2FFD8
:103F000033462A4621460348FDF7FCF8BDE87040D9
:103F1000FDF7A2B88AC8000870B50E460025044611
:103F2000056045600F49304601F0B8FE0644266042
:103F300023681A782F2A0ED10133236025B929224C
:103F400009490A48FFF7D6FF2946304600F0ACF988
:103F50006060204670BD002AF0D001330135236037
:103F6000E6E700BFBBC80008BDC800080FC90008CD
:103F700000687047406808B520B100F03CF9431E66
:103F80005842584108BD10B50446FFF7F3FF10B181
:103F9000606800B1043810BD406808B520B100F079
:103FA0002AF9B0FA80F0400908BD10B50446FFF7C1
:103FB000F3FF10B1606800B1043810BD40680030F4
:103FC00018BF0120704700002DE9F0411B4C1C4E2A
:103FD000237836EA200628BF0646012B8EB00F460E
:103FE000904600D1FEE7174DFFF74CFF01232370E9
:103FF000FFF75EFF2B6834220133002101A82B60FC
:1040000001F06AFA2B680196012BCDF8088003971E
:1040100004D1342201A90C4801F05CF9342201A931
:104020000A4801F057F90A4B1B680BB1074898473B
:10403000002020700EB0BDE8F08100BF5C0F0020B2
:104040000101FF80540F0020600F0020940F00201A
:10405000580F002073B5294C2168C1F34173032B1D
:104060000CBF4D428DB2C1F307432A460646244891
:10407000FDF748F86FF498731D44072D09D8DFE861
:1040800005F004272A2D30363339A1681D48FDF785
:1040900039F83046FDF736F861681B48FDF732F80D
:1040A000A1681A48FDF72EF8E3690193A36900930C
:1040B00004F10C010EC91648FDF724F821681548D3
:1040C000FDF720F8144802B0BDE87040FDF71AB8BB
:1040D000A1681248DBE7A1681148D8E7A168114838
:1040E000D5E7A1681048D2E7A1681048CFE7A168DA
:1040F0000F48CCE7A1680F48C9E700BF940F002024
:104100002DC900087EC900080BCA00081BCA000898
:104110002ECA00087DCA0008C9CA000893C9000851
:10412000A2C90008B0C90008C2C90008D5C9000862
:10413000E8C90008F6C900080FB437B50C4D297856
:10414000724679B90B48FFF73FFF0B48FFF782FF34
:10415000012407A906982C700191FCF7A9FF2046BD
:10416000FDF7AEF803B0BDE8304004B0704700BFC3
:104170005C0F00200001FF8018C9000810B50C4634
:1041800011467246FFF720FF68B92046FFF762FF2D
:10419000FFF772FE10B9FFF769FE08B930BFFDE7FF
:1041A0000120FDF78DF8014810BD00BF0F01FF8011
:1041B00070B50446FFF724FA0646FFF71BFE0546D6
:1041C0003046FFF717FE401BA042F9D370BD000038
:1041D00007EE100ADFED047A67EE277AFDEEE77A44
:1041E00017EE900AFFF7E4BF002474494FF47A7386
:1041F0005843FFF7DDBF007B7047000038B5044629
:104200000A4B0360002343600D46A1600273084817
:10421000FCF77AFB45B1074B1A6862601C600448E2
:10422000FCF772FB204638BD6560F8E7F4CA000869
:10423000CC0F0020C80F002010B5124B03600446BD
:104240001148FCF761FBA3682BB1104A13689C422C
:1042500012D1636813600E4B0B481A68944204BF76
:1042600000221A60FCF750FB237B13B9201FFDF7D7
:10427000A7F9204610BD13465A689442FBD16268E4
:104280005A60E8E7F4CA0008CC0F0020C80F0020ED
:10429000D40F002010B50446FFF7CEFF2046FDF7EF
:1042A0008DF9204610BD000070B5064614480D4635
:1042B000FCF72AFB134B1C687CB1A068E8B101F045
:1042C0007FFCA84219D12A463146A06800F0D0FFF1
:1042D00098B90B48FCF718FB0DE0072DF9D12A46D9
:1042E0003146094800F0C4FF0028F2D10448FCF729
:1042F0000BFB064B1C68204670BD6468DCE700BF02
:10430000CC0F0020C80F0020E3CA0008D40F002003
:104310000020704770477047F8B503681B6D0E4664
:1043200004468F1898473546BD4207D0236815F8D4
:10433000011B9B6C204698470130F5D1236820462D
:104340005B6D9847A81BF8BDF8B503681B6D0E465A
:1043500004468F1898473546BD4208D0236820464A
:10436000DB6C9847431C02D005F8010BF4E7236887
:1043700020465B6D9847A81BF8BD0020704770472A
:10438000002070470020704710B5054B0360503384
:10439000044640F8043FFFF74FFF204610BD00BF22
:1043A00004CB0008A0F10400EEE700BF10B50446FE
:1043B000FFF7EAFF2046FDF701F9204610BDA0F106
:1043C0000400F3E7104B13B50022044640F8043B09
:1043D000FFF714FF0D4B23606033636000236361BC
:1043E0000B492046FDF736F90346606120B1FCF722
:1043F0006CFF204602B010BD0090024605490648F9
:10440000FFF7BCFEF5E700BF64CC00087CCB0008DA
:104410005CCB00085FCB00081901018010B5074B89
:1044200003F108026833044602604360406900F00B
:10443000B5F82046FFF7A8FF204610BD74CB000852
:104440000EB477B5036807AD044655F8046B1B6DD1
:1044500098476069019500F069F9019A60693146F1
:1044600002F0FEFE236805465B6D2046984728460D
:1044700003B0BDE8704003B070470000EFF3108355
:10448000DB4372B6044A117829B9044903F00103E9
:104490000B70012313707047D90F0020D80F002034
:1044A00008B5EFF31083DB0704D43522054906482D
:1044B000FFF720FD054B00221A70054B1B7803B156
:1044C00062B608BDE4CB000840CC0008D90F00203C
:1044D000D80F0020036870B51B6901220021044633
:1044E0009847051E0DDB236802221B690021204628
:1044F00098472368064629461B69002220469847AC
:104500003546284670BD0000014B1868704700BF53
:10451000A802002070B539B105460C4608B1836B7E
:1045200083B3B4F90C3013B90026304670BD214670
:10453000284600F03BF8E36A064633B1E1692846B5
:1045400098470028B8BF4FF0FF36A3891B0620D438
:10455000216B41B104F14003994202D0284606F094
:10456000F9FD00232363616C21B1284606F0F2FDBA
:104570000023636400F0BEF90023A38100F0BCF9BE
:10458000304670BD00F0B0F9B4F90C30002BCBD040
:10459000CDE72169284606F0DDFDD9E7024B01464B
:1045A0001868FFF7B7BF00BFA8020020B1F90C30B0
:1045B0009AB22DE9F0410C461107804648D4626852
:1045C00043F40063002AA3815DDDA56A002D57D066
:1045D00000229BB2D8F80060E169C8F8002013F40B
:1045E000805254D101234046A847431C024665D05F
:1045F000A389A56AE1695F0705D56068236B121A74
:104600000BB1E36BD21A00234046A847451C48D1A2
:10461000D8F80020B4F90C30002A5CD01D2A01D053
:10462000162A64D122690021C4E9002123F4006321
:10463000A381216BC8F8006011B304F140039942D3
:1046400002D0404606F086FD00202063BDE8F081E0
:104650002669AEB12568266091070CBF6369002307
:10466000AD1BA3600AE02B463246676AE16940460B
:10467000B8470028A5EB000506440ADD002DF2DC52
:104680000020BDE8F081E26B002A9EDCF8E7226D95
:10469000B1E7A38943F04003A3814FF0FF30BDE8A9
:1046A000F081B4F90C302269226023F40063002207
:1046B0006260DA04A381BCD52065BAE7D8F800307F
:1046C000002B95D01D2B0FD0162B0DD0A38943F0B6
:1046D0004003A381D5E723F400632169A381DB04B0
:1046E000C4E90012A5D5E7E7C8F80060C8E743F0C1
:1046F0004003A381C5E700BF10B5044682B008B1EE
:10470000836B23B1B1F90C0048B902B010BD01911F
:1047100000F0EAF80199B1F90C000028F5D0204624
:1047200002B0BDE81040FFF741BF00BF20B1054B0C
:1047300001461868FFF7E0BF034B0449186800F012
:1047400071BC00BFA8020020ACCC0008F9460008EC
:10475000014900F067BC00BF154500082DE9F84F7E
:1047600045682C4BC3630024074600F53B720423C5
:104770000321C0E9B912C0F8E0422146EB6005F11F
:104780005C006C66C5E90044AC60C5E90444AC61FA
:10479000082200F0A1FEDFF888B0BE68DFF884A030
:1047A000DFF88490DFF884801B4BC5F82C80C5E9C6
:1047B000075BC5E909A92146F360082206F15C0000
:1047C0007466C6E90044B460C6E90444B46100F00C
:1047D00083FEFD68114BC6F82C80C6E9076BC6E95D
:1047E00009A92146EB606C66C5E90044AC60C5E9E7
:1047F0000444AC6105F15C00082200F06DFE012369
:10480000C5E9075BC5E909A9C5F82C80BB63BDE80C
:10481000F88F00BF51470008090001001200020094
:10482000355800085958000899580008B958000828
:1048300070B54A1E682505FB02F50E4605F17401A8
:1048400006F084FC044640B100210C30666005F19E
:1048500068022160A06000F03FFE204670BD00BFEE
:104860001F4B70B51D68AB6B06464BB305F538752D
:10487000D5E90134013B05D51EE0013B5A1C04F18A
:10488000680419D0B4F90C20002AF6D10025154B84
:104890006566C4E90055A560C4E90455A5612946CB
:1048A000E360082204F15C0000F016FEC4E90C5538
:1048B000C4E91155204670BD286828B10546D7E7E0
:1048C0002846FFF74BFFD1E704213046FFF7B0FF42
:1048D00028600028F2D10C2304463360EAE700BFC9
:1048E000ACCC00080100FFFF836B03B17047FFF7FA
:1048F00035BF00BF704700BF704700BF38B50A4CD6
:104900000A4D641BA4100AD004F18043013B05EB5F
:104910008305013C55F804399847002CF9D1BDE8CE
:10492000384007F017BA00BF640C0020600C00206C
:10493000F0B5134683B00F4601AA1946064603F0A8
:10494000B5FDF0B105463046FFF78AFF0446C0B119
:1049500039464FF4DB73019A304600F00DFE002813
:104960001CDB124B1249134AE081C4E90743124B86
:10497000E362EB05A581C4E9091206D4204603B021
:10498000F0BD0024204603B0F0BD304602230022D3
:10499000214600F01BF8204603B0F0BD0025FFF7CC
:1049A000A9FFA581FFF7A8FF2C46E7E735580008C7
:1049B0005958000899580008B9580008024B0A468F
:1049C00001461868FFF7B4BFA802002000F000B845
:1049D0002DE9F04F0C4697B091461D46064608B1AA
:1049E000836BB3B1A38903F48473B3F5847F18D0C8
:1049F000A76A002F00F05081012D56D0022D15D04E
:104A0000A5B1162333604FF0FF38404617B0BDE81C
:104A1000F08FFFF769FFA38903F48473B3F5847FF4
:104A2000E6D121463046FFF767FEE1E722694FF005
:104A3000000AD046002A5CD0B4F90C3040F61A01C6
:104A40009AB20A4207D1510571D4964A974255D07D
:104A500043F40063A38121463046FFF74DFE8046B4
:104A60000028D0D12B464A46E1693046B84701308C
:104A7000C9D0216B41B104F14003994202D03046C4
:104A800006F068FB00232363A3892269226023F4D4
:104A900002630021A381616004F15C00082200F040
:104AA0001BFD404617B0BDE8F08F21463046FFF7AA
:104AB00023FEA38913F4805240F09C802B46E169C9
:104AC0003046B847B0F1FF3F80469CD0A3892269A9
:104AD0005D0740F195806368216BA8EB030811B175
:104AE000E06BA8EB0008C1444FF0010A0025002A42
:104AF000A2D12146304600F011FB9DE7B4F90E101B
:104B00000029A5DB6A46304600F0CEF8002840F0C8
:104B1000A980019AB4F90C3002F47042B2F5004F4A
:104B200096D143F480634FF48062A381E264002D48
:104B300070D1CB46BAF1000F7BD1A389DA0440F1E2
:104B40008880206D6368216BA0EB03081A4600295A
:104B500075D0E06BA8EB0008A26BD4F810C09844A5
:104B6000A2EB0C02A8EB02080244C34503DB08EBEE
:104B700002035B4579D8E36CE1695B4203EA0B0809
:104B8000424600233046B84701303FF464AF236902
:104B9000216B23600023636041B104F1400399421B
:104BA00002D0304606F0D6FA00232363A389BBEB7C
:104BB000080B23F02003A38110D02146304600F0DB
:104BC000FBFC00287FF447AF63685B45FFF443AF0D
:104BD0002268A3EB0B035A44C4E9002304F15C00F0
:104BE0000822002100F078FC4FF00008404617B082
:104BF000BDE8F08F5D07D4F8508022693FF56BAFB8
:104C000018077FF570AF2368002B3FF46CAF9B1A39
:104C1000984468E76A46B4F90E10304600F044F84C
:104C200000287FF418AF049B09EB030BBAF1000FC7
:104C300083D0216B11B16368E06B8DE762682068F7
:104C4000D4F810C0A0EB0C00A8EB0008024400212F
:104C50008BE701235246E1693046B847431C7FF495
:104C600071AFF8E6B4F90C30F2E6ABEB08080CEBE8
:104C70000803A2EB0802C4E9003241B104F1400389
:104C8000994202D0304606F065FA00232363A389D7
:104C900023F02003A381A1E71D2333604FF0FF38E9
:104CA000B3E600BF9958000838B50B46074C0546D7
:104CB0001146184600232360FCF769FC431C00D012
:104CC00038BD2368002BFBD02B6038BD6411002059
:104CD0009368002B00F002812DE9F04FB1F90C3000
:104CE0009BB20C46190783B08246904635D522699F
:104CF0009AB313F00202D8F800603DD00027D4F830
:104D000024B0D4F81CC0DFF8CC923D464D452B466C
:104D10003A4628BF4B4661465046D5B1D847002891
:104D200040F3D280D8F808301B1A07442D1AC8F86F
:104D30000830002B00F0B780D4F81CC0D4F824B0A1
:104D40004D452B463A4628BF4B4661465046002DFE
:104D5000E4D1D6E900750836D8E72146504602F07E
:104D600073FB002840F03081B4F90C30D8F80060B3
:104D70009BB213F00202C1D113F0010940F0B080E0
:104D8000A76820684D46002D54D09A0540F1BC809C
:104D9000AF42BB4600F2E78013F4906F2FD0D4E906
:104DA000041707EB4707A0EB010B07EBD777681C4D
:104DB0007F105844B8423A4684BF07463A465B05DE
:104DC00040F1E9801146504606F0C0F9002800F095
:104DD000F5805A462169019000F07CFAA289019B76
:104DE00022F4906242F08002A281A7EB0B0203EB57
:104DF0000B00676123612060A2602F46AB465A46D4
:104E0000494600F001FBA2682368D21B5B442F4691
:104E1000A26023600025D8F80830DB1BB944C8F82D
:104E20000830002B3FD0B4F90C30A76820689BB243
:104E3000002DAAD1D6E900950836A4E70BF10803A6
:104E400053E902679B460833002FF9D03A460A21FE
:104E5000304600F0BDF9002853D00130A0EB060920
:104E60004B46D4E904122068BB4228BF3B46884227
:104E700003D9A5681544AB4219DC9A427DDC134680
:104E8000656AE16932465046A847051E1CDDB9EB4C
:104E900005096BD00120D8F808305B1B2E447F1B1E
:104EA000C8F8083013BB002003B0BDE8F08F3146CE
:104EB0002A4600F0A9FA23682B4423602146504675
:104EC000FFF71AFC0028E2D0B4F90C3043F040039D
:104ED0004FF0FF30A38103B0BDE8F08F0020704792
:104EE00033469146104617464E469B46002FA5D0A6
:104EF0000028B5D13A460A21304600F069F9002869
:104F0000ABD17B1C9946ACE72369834215D3616919
:104F1000A94212D82E4B676A9D4294BF2B466FF070
:104F200000434A4693FBF1F3504601FB03F3E1696A
:104F3000B847071EC8DDED1B6DE7AF4228BF2F46FF
:104F40003A46494600F060FAA3682268DB1B3A44FF
:104F5000A3602260002BEED121465046FFF7CCFB28
:104F60000028E8D0B0E72F46AB4648E72146504638
:104F7000FFF7C2FB00288ED0A6E71A463146019300
:104F800000F042FA019BA1682268C91A1A44A16084
:104F900022601D467BE7504606F0DAF803460028FB
:104FA0007FF423AF2169504606F0D4F8B4F90C30F1
:104FB0000C2223F08003CAF8002087E70C23CAF8EC
:104FC0000030B4F90C3081E74FF0FF306CE700BFE0
:104FD000FEFFFF7F00FCFF7F2DE9F04110F53877E1
:104FE0001BD088460026D7E90154013D0FD4A38980
:104FF000012B05F1FF3506D9B4F90E3001332046F7
:1050000001D0C04706436B1C04F16804EFD13F6830
:10501000002FE8D13046BDE8F0813E463046BDE87D
:10502000F08100BF2DE9F84310F538771FD088468E
:1050300006464FF00009D7E90154013D11D4A38978
:10504000012B05F1FF3508D9B4F90E3001332146A3
:10505000304602D0C04749EA00096B1C04F16804DD
:10506000EDD13F68002FE6D14846BDE8F883B94648
:105070004846BDE8F88300BF70B50D4E0D4D761B58
:10508000B61006D00024013455F8043B9847A642D8
:10509000F9D1094E094D761B06F056FEB61006D022
:1050A0000024013455F8043B9847A642F9D170BD5D
:1050B000580C0020580C00205C0C0020580C0020DC
:1050C00070B50C46B1F90E10002996B015461E4673
:1050D00014DB6A46FFF7E8FD00280FDB019A02F4B3
:1050E0007042A2F50052B2FA82F252094FF4806384
:1050F0004FF4006032602B6016B070BDA2890023AF
:1051000012F08000336004D0402218462A6016B0A6
:1051100070BD4FF480632B6016B070BD8A89920712
:105120000B4606D501F1430201211A60C3E90421AF
:10513000704770B582B001AB6A460C460646FFF771
:10514000BFFF00990546304606F000F8B4F90C3070
:1051500070B11649F163019A0099206043F0800311
:10516000A381C4E904018AB92B43A38102B070BDB5
:105170009A05FBD423F0030304F1430243F0020336
:105180000121A3812260C4E90421EFE73046B4F98C
:105190000E1003F0C5F910B9B4F90C30E4E7A38997
:1051A00023F0030343F001031BB2DDE7514700087E
:1051B000024B0146186805F0C9BF00BFA8020020D5
:1051C000024B0146186805F0C5BF00BFA8020020C9
:1051D00001F0FF01102A2BDB10F0070F08D010F8A8
:1051E000013B013A8B422DD010F0070F42B3F6D1AC
:1051F000F0B441EA012141EA014122F007047FF0C5
:1052000000070023F0E80256083C85EA010586EA1B
:10521000010685FA47F5A3FA87F586FA47F6A5FA57
:1052200087F68EB9EED1F0BC01F0FF0102F0070263
:1052300032B110F8013B013A83EA010313B1F8D10E
:105240000020704701387047002D06BF35460338EF
:10525000073815F0010F07D1013015F4807F02BF28
:10526000013015F4C03F0130F0BC0138704700BF79
:10527000032A70B414D940EA0105AD0704460B4671
:1052800022D11D682668AE421946204603F1040368
:1052900004F1040418D1043A032A20461946F0D830
:1052A000541E72B103780A78934208BF241806D0BE
:1052B0000CE010F8013F11F8012F934206D1A042F3
:1052C000F7D1002070BC7047541EEBE7981A70BCF1
:1052D000704700BF844641EA000313F003036DD119
:1052E000403A41D351F8043B40F8043B51F8043BA9
:1052F00040F8043B51F8043B40F8043B51F8043BB0
:1053000040F8043B51F8043B40F8043B51F8043B9F
:1053100040F8043B51F8043B40F8043B51F8043B8F
:1053200040F8043B51F8043B40F8043B51F8043B7F
:1053300040F8043B51F8043B40F8043B51F8043B6F
:1053400040F8043B51F8043B40F8043B51F8043B5F
:1053500040F8043B51F8043B40F8043B51F8043B4F
:1053600040F8043B403ABDD2303211D351F8043BEF
:1053700040F8043B51F8043B40F8043B51F8043B2F
:1053800040F8043B51F8043B40F8043B103AEDD29E
:105390000C3205D351F8043B40F8043B043AF9D2EF
:1053A000043208D0D2071CBF11F8013B00F8013BC2
:1053B00001D30B8803806046704700BF082A13D3CF
:1053C0008B078DD010F003038AD0C3F10403D21AE7
:1053D000DB071CBF11F8013B00F8013B80D331F81B
:1053E000023B20F8023B7BE7043AD9D3013A11F89B
:1053F000013B00F8013BF9D20B7803704B78437006
:105400008B788370604670478842F0B40DD98B1852
:1054100083420AD9841832B1224613F8014D02F8AA
:10542000014D9942F9D1F0BC70470F2A0ED80346BE
:10543000541E002AF7D001340C44013B11F8012B13
:1054400003F8012FA142F9D1F0BC704740EA0103F3
:105450009B073BD1A2F110073F0901F1200606EBA3
:10546000071601F1100300F1100453F8105C44F822
:10547000105C53F80C5C44F80C5C53F8085C44F87E
:10548000085C53F8045C44F8045C1033B34204F144
:105490001004EAD17B1C1B0112F00C0F194402F01E
:1054A0000F05034415D0043DAD0803EB850C1C1F0C
:1054B0000E4656F8047B44F8047F6445F9D1013563
:1054C000AD002B44294402F00302B1E7541E034609
:1054D000B1E72A46ACE700BFF0B4860746D0541EB9
:1054E000002A3CD0CAB2034602E014F1FF3436D39E
:1054F00003F8012B9D07F8D1032C29D9CDB245EA39
:1055000005250F2C45EA054533D9A4F110063609C7
:1055100003F1200707EB061703F1100242E90455D7
:1055200042E902551032BA42F8D1721C14F00C0F45
:1055300003EB021204F00F0613D0331F23F0030312
:105540000433134442F8045B9342FBD106F0030496
:105550002CB1C9B21C4403F8011B9C42FBD1F0BC26
:10556000704734461346002CF3D1F8E7144603463F
:10557000C2E71A462646E0E770B50D46084C1146CC
:1055800006461A46284600232360FCF7CDF8431C44
:1055900000D070BD2368002BFBD0336070BD00BF0E
:1055A00064110020838903F00903092B01D0002036
:1055B0007047FFF7BBB800BFF8B50C46054610B101
:1055C000836B002B41D0B4F90C309AB2970407D406
:1055D000626E43F4005322F400526266A3819AB2D1
:1055E0000021960661605BD450071BD4D1065AD5C2
:1055F00012073ED443F00403A3812369002B44D057
:10560000B4F90C70BEB2B30722D1226922602846D9
:105610006369256AE169A84700286060C8BF002067
:1056200038DDF8BD216B0029E7D004F14003994231
:1056300002D0284605F08EFDE36B636000202063F6
:10564000002BDAD0A36B2360F8BDFFF74DF9BAE762
:105650001D4B1E4918680123A38106F00906FFF7B8
:10566000BBFC092EA781D0D121462846FEF79EFF1C
:10567000CBE721462846FFF73FF888B9B4F90C304C
:10568000A060A06123F00803B4E721462846FFF795
:1056900045FDB5E7B4F90C300DD143F02003A381EB
:1056A0004FF0FF30F8BD43F0400309222A604FF06D
:1056B000FF30A381F8BD43F040030022A381626064
:1056C0004FF0FF30F8BD00BFACCC0008A555000876
:1056D00000290CBF022200224FF4806300F000B8C2
:1056E0002DE9F043524C256883B004460F4690469E
:1056F0001E4615B1AB6B002B65D0B8F1020F06D07A
:10570000B8F1010F00F29180002EC0F28E80214688
:105710002846FEF7F1FF216B41B104F140039942A5
:1057200002D0284605F016FD00232363B4F90C309F
:105730000022A26162601A064DD423F44A6323F06A
:105740000303B8F1020FA3814CD001AB6A46214696
:105750002846FFF7B5FCA3891843A08116B317B3F9
:10576000AB6B63B3009BB4F90C002760B3421CBF62
:1057700040F40060A081B8F1010F08BF40F00100C3
:1057800083B208BFA08113F00800C4E904761ED0DC
:1057900013F0010035D000207642A661A06003B06E
:1057A000BDE8F083009E3046FFF702FD074660B378
:1057B000A38943F08003A381AB6B002BD2D1284691
:1057C000FFF792F8CEE72846FFF78EF895E7A0603E
:1057D00003B0BDE8F0832169284605F0BBFCB4F9AD
:1057E0000C30AAE7002004F1430243F00203002535
:1057F0000121A381A5602260C4E9042103B0BDE8B2
:10580000F083A66003B0BDE8F083DDF80090B145F9
:1058100006D04846FFF7CCFC074608B14E46C7E71E
:10582000B4F90C304FF0FF30DDE74FF0FF30CFE739
:10583000A802002010B50C46B1F90E1003F0D0F903
:10584000002803DB236D0344236510BDA38923F4E3
:105850008053A38110BD00BF2DE9F0411646B1F978
:105860000C201F46D3050C460546B1F90E1009D48D
:1058700022F48052A2813B4632462846BDE8F041E0
:1058800001F0CCBD0022022302F078FEB4F90C2016
:10589000B4F90E10ECE700BF10B50C46B1F90E10CC
:1058A00002F06CFEA389421C0EBF23F4805343F424
:1058B00080532065A38110BDB1F90E1001F02CBEFC
:1058C000A2EB0300704700BF02780B78012A28BFC3
:1058D0009A42F5D16DE9044540EA0104CDE9026739
:1058E0006FF0000C4FEA447212B380EA010414F026
:1058F000070F6AD100F0070420F0070004F0030549
:1059000021F007014FEAC505F0E8042314F0040F65
:10591000F1E804670CFA05F462EA040266EA040698
:105920000AD063EA0403624667EA0407664603E0B6
:10593000F0E80423F1E8046782FA4CF582EA0604F1
:10594000A4FA8CF46CBB83FA4CF583EA0705A5FA3C
:105950008CF595B950E9022351E9026782FA4CF5BA
:1059600082EA0604A4FA8CF483FA4CF583EA07056C
:10597000A5FA8CF52543DBD09CB92DBAB5FA85F490
:1059800024F0070427FA04F1DDE9026723FA04F39F
:1059900003F0FF0001F0FF01FDE80445A0EB01006A
:1059A000704724BAB4FA84F424F0070426FA04F108
:1059B000DDE9026722FA04F202F0FF0001F0FF01C4
:1059C000FDE80445A0EB0100704714F0030F3CD143
:1059D00010F0030428D150F8082B51F8083B82FA44
:1059E0004CF582EA0305A5FA8CF55DB950F8042C54
:1059F00051F8043C82FA4CF582EA0305A5FA8CF5CD
:105A0000002DE8D02DBAB5FA85F424F0070423FA66
:105A100004F122FA04F202F0FF0001F0FF01FDE8B8
:105A20000445A0EB010070474FEAC40420F00300D6
:105A300050F8082B21F0030151F8083B0CFA04F44C
:105A400062EA040263EA0403C9E710F003041AD00F
:105A5000A1EB040120F00300E40750F8042B06D06A
:105A60000FD28B785FFAA2F4E41A06D12BB1CB786F
:105A70005FFAB2F4E41A00D11BB920465DF8104B6E
:105A8000704701F1040150F8042BCC0721F0030109
:105A900051F8043B48D824D222F07F4482FA4CF5D6
:105AA00094EA1325A5FA8CF50AD165B951F8043B9F
:105AB00084EA0204B4EB036F0ED150F8042BEBE739
:105AC0004FEA132355E035F07F454DD10878FDE8C6
:105AD0000445C0F1000070474FEA126203F0FF0373
