:020000040800F2
:1000000000800120191F0008651F0008651F0008F7
:10001000651F0008651F0008651F0008000000003C
:10002000000000000000000000000000651F000844
:10003000651F000800000000651F0008651F00081C
:10004000651F0008651F0008651F0008651F000880
:10005000651F0008651F0008651F0008651F000870
:10006000651F0008651F0008651F0008651F000860
:10007000651F0008651F0008651F0008651F000850
:10008000651F0008651F0008651F000800000000CC
:10009000000000000000000000000000651F0008D4
:1000A000651F0008651F0008651F0008651F000820
:1000B000651F0008651F0008651F0008651F000810
:1000C000651F0008651F0008651F0008651F000800
:1000D000651F0008651F0008651F0008000000007C
:1000E000651F0008651F0008651F0008000000006C
:1000F000000000000000000000000000651F000874
:1001000000000000651F0008651F0008651F00084B
:1001100000000000000000000000000000000000DF
:10012000651F0008651F0008651F0008651F00089F
:10013000651F000800000000000000000000000033
:10014000000000000000000000000000651F000823
:10015000651F0008651F0008651F0008651F00086F
:10016000651F0008651F0008000000000000000077
:10017000000000000000000000000000000000007F
:1001800000000000651F00080000000000000000E3
:10019000651F000810B5054C227832B9044B13B125
:1001A0000448AFF300800123237010BD680C0020C9
:1001B00000000000F0BA000808B5034B1BB103496A
:1001C0000348AFF3008008BD000000006C0C002065
:1001D000F0BA0008134B002B08BF114B9D46A3F546
:1001E000803A00218B460F461148124A121A04F039
:1001F000C1F80D4B002B00D098470C4B002B00D0C2
:1002000098470020002104000D000B4801F0C7F8BA
:1002100003F018FF2000290001F03EFA01F0BCF8BD
:10022000000008000080012000000000891600087E
:10023000680C002078110020953F0008F8B54FF4B5
:10024000987001F0F3F9044600F0A8FA602001F07C
:10025000EDF900F0C9FB074D00260027C4E9486707
:10026000204600F01FFA0028F8D0284603F000FDD1
:10027000F6E700BFCDCCCC3D034607C983E80700B5
:100280007047704710B44468816862100346E40701
:1002900001EB02001B6848BF8A585DF8044B48BF59
:1002A000D358184710B50446806902F0C7FFD4F848
:1002B000F43001280CBF03F1FF330133C4F8F430EC
:1002C00010BD10B50446006A02F0B8FFD4F8F8304B
:1002D00001280CBF03F1FF330133C4F8F83010BD1F
:1002E00038B51C2204460D46002104F043F8204690
:1002F000294602F06CFF204638BD38B504460D464D
:1003000003F068FB237E1BB903F01CF8012323765E
:100310002946204601F0C0FABDE8384003F070BB22
:1003200010B5044602F074FE2046064B40F8283B08
:100330001022002104F01EF8012384F838302046F2
:1003400010BD00BFC0B30008D0B516461F46044616
:10035000002200233046394609F0FEFA80B1E368F6
:1003600011499A681B681360002032463B4608F02A
:10037000B5FE09F043FB01462068FFF7BEFFD0BD84
:10038000002200233046394609F0D2FA0028F6D080
:10039000E368DA681B681B04136030460022024BD6
:1003A000394608F09DFEE4E70000F03FD0B5164660
:1003B0001F460446002200233046394609F0CCFA95
:1003C00080B1236911499A681B6813600020324686
:1003D0003B4608F083FE09F011FB01466068FFF719
:1003E0008CFFD0BD002200233046394609F0A0FA28
:1003F0000028F6D02369DA681B681B0413603046B6
:100400000022024B394608F06BFEE4E70000F03FA3
:100410002DE9F04FD0E9402387B00446D0E94801E8
:1004200008F05CFED4E94223CDE90001D4E94A0199
:1004300008F054FE684DCDE9020161A3D3E9002321
:10044000DDE9000109F002F8D5E9002308F048FED3
:1004500006460F46C5E90067604D59A3D3E900235E
:10046000DDE9020108F0F2FFD5E9002308F038FECB
:10047000C5E900015A4DCDE90401D5E90023DDE9C4
:10048000000108F02BFE0022002308F0DFFF4CA340
:10049000D3E9002309F004F9DDE9002308F020FE88
:1004A00000228046894600233046394608F0CEFFB8
:1004B00002460B464046494608F012FEDFF82C8102
:1004C0008246D8E900238B46DDE9020108F006FEEA
:1004D0000022002308F0BAFF39A3D3E9002309F072
:1004E000DFF8DDE9022308F0FBFD002206460F4697
:1004F0000023DDE9040108F0A9FF02460B4630465F
:10050000394608F0EDFD30A3D3E9002306460F4637
:100510005046594609F02AFA002848D12CA3D3E9BD
:1005200000235046594609F003FA18B10FF2A00B08
:10053000DBE900AB24A3D3E900233046394609F0B8
:1005400015FA002838D122A3D3E9002330463946D2
:1005500009F0EEF910B11EA7D7E900679DED007B09
:1005600085ED007B9DED027B1E4D88ED007BD5E97E
:1005700000235046594608F0B3FD80468946C5E938
:100580000089194D3246D5E900013B4608F0A8FD27
:100590004246C5E900014B462046FFF707FFD5E973
:1005A0000023204607B0BDE8F04FFFF7CDBE0FF2A5
:1005B000180BDBE900ABBDE703A7D7E90067CDE780
:1005C000B81E85EB51B8AE3F9A9999999999E93F30
:1005D000333333333333F3BFA80C0020B00C002087
:1005E000880C0020980C0020A00C0020900C00200B
:1005F0002DE9F0478246D0F8F40008F0BDFE002255
:10060000274B8046894608F021FFCAE94201DAF803
:10061000F80008F0B1FE0022214B04460D4608F018
:1006200015FFCAE94001DAF81C0108F0A5FE1AA37B
:10063000D3E9002306460F464046494608F006FF28
:1006400002460B463046394608F04AFD09F0AEF93D
:10065000CAF81C01DAF8180108F08EFE0EA3D3E9DF
:10066000002306460F462046294608F0EFFE0B46BB
:1006700002463946304608F033FD09F097F9002369
:10068000CAF81801CAE93D335046BDE8F047FFF704
:10069000BFBE00BFAFF30080A43A55297A6AEF3F8E
:1006A00000400F4070B590F814410546C4B990F869
:1006B0001541ACB990F8164126466CB900220023CA
:1006C000D0E9400109F02AF930B100220023D5E930
:1006D000420109F023F918B926B1002385F8163133
:1006E000204670BD0124FBE7C36810B504460BB17A
:1006F0009B689847204610BD38B5CB6804460D4628
:100700000BB15B689847EB68E360204638BD00009A
:10071000F0B52DED028B85B00446684608EE102A30
:10072000FFF7EAFFDFED147A68EE277A17EE900AFA
:1007300009F0CCF906460F4603F04CF9636B23B978
:1007400094F838300BB102F0FDFD04F1280528467D
:10075000FFF7CAFF69462846FFF7CEFF32463B4601
:10076000204602F09AFC03F04BF96846FFF7BCFF05
:1007700005B0BDEC028BF0BD0024744938B51022E1
:100780000D460021044603F0F5FD95E80700024BF5
:10079000E36084E8070038BD18AA00082DE9F0419D
:1007A00000F1280788B004463846FFF7B9FD614DCF
:1007B00004F16800FFF7B4FDA56604F1A800FFF797
:1007C000AFFDC4F8A8501C2000F030FF00250646FD
:1007D000057603F0FFF80821304601F077F903F0C1
:1007E0000FF926601C2000F021FF0646057603F075
:1007F000F1F80921304601F069F903F001F966606A
:100800001C2000F013FF1C210646FFF769FDE6607F
:100810001C2000F00BFF0C210646FFF761FD26614E
:100820001C2000F003FF12210646FFF759FDD4F803
:100830000080A660404E03F0CDF83146404601F0FE
:100840000BFA03F0DDF8D4F8048003F0C3F8314666
:10085000404601F001FA03F0D3F820684FF07E51D2
:10086000FFF74BFD4FF07E516068FFF746FD4FF0FC
:100870007C5003F0FDF9A3689A681B681360502050
:10088000C4E94655A4F8145184F8165100F0CEFE80
:100890000E21064602F0A6FC6661502000F0C6FE5E
:1008A0000D21064602F09EFCA661502000F0BEFE1F
:1008B0002A21064602F096FCE661502000F0B6FEC2
:1008C0002C21064602F08EFC1C4B266266690394BE
:1008D00001A904A8CDE90135FFF750FF04A930466E
:1008E00002F0E3FC04A8FFF7FFFE154BE669039452
:1008F00001A904A8CDE90135FFF740FF04A930465E
:1009000002F0D3FC04A8FFF7EFFE0E4B039401A9FD
:1009100004A8CDE90135FFF731FF0B4A04A9384699
:10092000FFF7F6FE04A8FFF7DFFE204608B0BDE89B
:10093000F08100BF44B500080AD7A33CA502000817
:10094000C3020008F10500088FC2753D704710B55D
:10095000044600F07FFE204610BD0000034610B59F
:1009600053F8042B044612B90360206810BD9A4264
:10097000FBD066220249034803F064F8F5E700BFA4
:100980003CAA00085CAA000808B50248FFF7E6FF89
:1009900008BD00BF240F002008B50248FFF7DEFFA6
:1009A00008BD00BF240F00202DE9F041054650206E
:1009B000884600F03BFE0446094B0A4F44F8043BCE
:1009C00006463846FFF7CAFF4146204600F07CF84D
:1009D0003846FFF7C3FF2E612846BDE8F08100BF0F
:1009E0002CAA0008240F002038B50446202000F06F
:1009F0001DFE20210546FFF7D7FF2560202000F0CF
:100A000015FE00210546FFF7CFFF6560202000F0AE
:100A10000DFE01210546FFF7C7FFA560202000F06D
:100A200005FE04210546FFF7BFFFE560202000F02A
:100A3000FDFD10210546FFF7B7FF2561202000F0DE
:100A4000F5FD21210546FFF7AFFF65611C2000F091
:100A5000EDFD2E210546FFF743FCA5611C2000F0AB
:100A6000E5FD2F210546FFF73BFCE5611C2000F06A
:100A7000DDFD05462321FFF733FC2B68EA6825627C
:100A80001B041360E3690F4D9A681B6813602846C6
:100A900003F0EEF8A3699A681B681360284603F018
:100AA000E7F8A369DA681B681B041360E369DA6876
:100AB0001B681B04136000230622C4E90932204688
:100AC00038BD00BF0AD7A33BA1F1F0039BB20F2BA7
:100AD00073B504460D4649D92A49284602F0CEFC92
:100AE00028492060284602F0EDFC264906462846A3
:100AF00002F07AFC2368013304D13C2222492348C6
:100B000002F0A0FF731C04D13D221F49204802F0CF
:100B100099FF0122E26121681E4AA4F8485000238F
:100B2000C6F30436914284F84A6023646360A3608C
:100B30002361A36123626362E362A362E3602363D0
:100B400063610AD10193144B5A6C42F480725A6467
:100B50005B6C03F480730193019B204601F020FA43
:100B600010B10E4803F038F802B070BD0C492846A9
:100B700002F084FC0A492060284602F0A3FC0646E5
:100B8000B8E700BF70AA000870AD0008E0AD00082B
:100B90000AAE0008002001400038024023AE0008E1
:100BA00024AB000830B5036891FAA1F4B4FA84F4D8
:100BB00091FAA1F10325B1FA81F1640005FA04F478
:100BC000490023EA040302FA01F11943016030BD30
:100BD0007FB50023072855D8DFE800F00413202D47
:100BE0003A54544700932A4B2A481A6B42F00102A8
:100BF0001A631B6B03F001030093009B07B05DF8C1
:100C000004FB0193224B24481A6B42F002021A6340
:100C10001B6B03F002030193019BEFE702931C4B54
:100C20001E481A6B42F004021A631B6B03F00403A4
:100C30000293029BE2E70393154B19481A6B42F0AB
:100C400008021A631B6B03F008030393039BD5E7A9
:100C500004930F4B13481A6B42F010021A631B6B7C
:100C600003F010030493049BC8E70593084B0E4858
:100C70001A6B42F080021A631B6B03F0800305932A
:100C8000059BBBE7094802F0A7FF0020B6E700BFBD
:100C90000038024000000240000402400008024008
:100CA000000C024000100240001C024039AE000857
:100CB000431C10B5044604D176220649064802F0CA
:100CC000C1FE2046002100F00BFD04F00F040120BE
:100CD000A04010BD5AAE0008B4AE000870B504467E
:100CE0004B1C0E46218216D0C1F30310FFF770FF94
:100CF00005463046FFF7DCFF238A074A656103F0AB
:100D00000F03206052F82330A36105F1100318355A
:100D10006360A560E56070BD04B10008B0F9100023
:100D200000F076BD0A4619B981694069FFF73ABFFC
:100D30000122F9E74C23F0B54343224E224F1A1DFE
:100D4000324400244FF0010E1E448C4205D101466E
:100D5000BDE8F0401D4802F03FBF33680EFA04F5CD
:100D60001D422BD0136B7D690EFA03F32B4225D065
:100D7000D2F818C07B61156805B3FA6833EA02023D
:100D800003D1BA6833EA020214D10F4A916833EAF8
:100D9000010103D1D26833EA02020DD1DCF8102040
:100DA000134214BF01210221094B28461B68BDE8EC
:100DB000F04018470221F7E70121F5E7013404323A
:100DC000C3E700BFB80C0020003C0140EEAE0008B5
:100DD000CC0E002006210846FFF7ACBF05210846CF
:100DE000FFF7A8BF01210420FFF7A4BF01210320C2
:100DF000FFF7A0BF01210220FFF79CBF0121084699
:100E0000FFF798BF01210020FFF794BF012910B51B
:100E100018D11B4C838952B1A26803F00F0399408B
:100E20001143A160836843F00103836010BDA26891
:100E300003F00F03994022EA0101A160836823F0C7
:100E40000103F2E70229F1D10D4983895AB1CC6837
:100E500003F00F03012202FA03F32343CB608368FC
:100E600043F00203E1E7CA6803F00F03012404FA28
:100E700003F322EA0303CB60836823F00203D4E781
:100E8000003C0140B0F90C3099B270B501F00F068A
:100E900006F00C0404F1804404F59C3401F00301D5
:100EA000A56889000F228A40C3F3031325EA0205CF
:100EB0008B402B43A3600F4B01221968B2401143B2
:100EC00019608468E50742BF996811439960A107DA
:100ED00042BFD9680A43DA6090F90030002B08DB82
:100EE0005909012203F01F0302FA03F3024A42F8F0
:100EF000213070BD003C014000E100E02DE9F04FE1
:100F000092464A1C85B080460C4666D00022039269
:100F1000334A344F516C41F480415164526C02F4B5
:100F200080420392039A04F00F090C2202FB09721B
:100F3000C4F303105568062D47D8DFE805F0043ADE
:100F40003C3E40424400284E0193FFF741FE0C21F5
:100F500001FB09F17A1857F801E0244FA8F80C407A
:100F60004C21694301247B5892F90820C8F80450A9
:100F700004FA0EF44FF0000B1C4388F80020C8F868
:100F800008B07C50132101FB05E507EB8501019BAF
:100F90004B60174BC861C3F800A0164BC1F83490E2
:100FA0009B681032404643F82260FFF76BFF5846BB
:100FB00010E0114EC8E7114EC6E7114EC4E7114EBE
:100FC000C2E7114EC0E7114EBEE7114802F004FE21
:100FD0004FF0FF3005B0BDE8F08F0846FAE700BFDC
:100FE0000038024018AF0008050E0008B80C0020B9
:100FF000CC0E002000ED00E0FD0D0008F50D00080E
:10100000ED0D0008E50D0008DD0D0008D50D000808
:10101000C7AE000883890C2203F00F0370B55A4352
:101020001C4CA518A4581C4A6E689568012101FA49
:1010300003F3DB431D409560D5681D40D5601568FE
:101040002B4013604C237343144AD35801FA04F421
:10105000A3431ED190F90030002B0CDB5A0903F09A
:101060001F03994002F120030D4A42F82310BFF3F9
:101070004F8FBFF36F8F90F90030002B09DB5A09B7
:10108000012103F01F0301FA03F36032044941F820
:10109000223070BD18AF0008003C0140B80C0020A1
:1010A00000E100E0838903F00F020C235343104A50
:1010B00070B4D65843680F4A4C215943012404FAAE
:1010C00006F5545824EA05045450132101FB036328
:1010D00002EB8304002161609C1D0C3302EB84044D
:1010E00002EB83036160596070BCFFF793BF00BFE0
:1010F00018AF0008B80C002008B501F0E3FE00208E
:1011000008BD000008B50A4B1B684BB102F05EF940
:1011100002F009FC4FF47A72002308F0BFFC08BD0E
:1011200001F030FF4FF47A73B0FBF3F008BD00BF5D
:10113000D00E002010B588B002F04CFC052101A8AB
:1011400002F045F80424039B019A1A60962002F0ED
:101150009DFD019B049A1B041360962002F096FDEE
:10116000013CF0D10424039B019A1A604FF4C8702B
:1011700002F08CFD019B049A1B0413604FF4C870AD
:1011800002F084FD013CEED1DCE7000070B50D46B5
:10119000A0B0044602F01EFC2B4622468021684681
:1011A00004F03EFD051E03DC02F02AFC20B070BDF9
:1011B000094B1B6823B903220221084800F0E0FD17
:1011C000064E00241DF804103046013400F092FE53
:1011D000A542F7D1E8E700BF200F00202010002033
:1011E0000FB407B504A951F8040B0191FFF7CEFF26
:1011F00003B05DF804EB04B07047000008B501F0DF
:101200000FFE00F0B1FE01F0FBFD01F009FE024B04
:1012100001221A6008BD00BFD00E002000207047D8
:10122000036801221B6900211847036800221B691B
:101230001146184703681B69184703689B691847DC
:1012400003689B6A184700290CBF6FF01800002044
:1012500070470120704770476FF01C0070476FF0B7
:10126000150070470120704700207047704700004C
:10127000F8B5074E15460C468F18BC4205D014F839
:10128000011B304600F036FEF7E72846F8BD00BFE8
:101290002010002038B58DB215F0010405D00848A3
:1012A00000F0FCFC041C18BF0124EB0605D5044823
:1012B00000F00AFD08B144F01004204638BD00BF1C
:1012C0002010002010B5044602F060FF204610BD3B
:1012D00010B50C462AB1044800F0FAFD2070012038
:1012E00010BD104610BD00BF2010002038B51D46AF
:1012F000074B0360074B1B68044633B9064800F0F0
:101300003FFD2946044800F015FD204638BD00BFCA
:10131000E0AF0008200F00202010002000207047C0
:101320000020704708B5012000F036F80C4A136819
:1013300010B51844EFF30881884205D3094B0C22FD
:101340001A604FF0FF3010BD07490C6824B10749FF
:10135000096821448842F1D21060184610BD00BFD0
:101360009C02002074110020DC0E0020E00E002002
:10137000074C08B523680546986802F07FFD23688E
:10138000D86802F07BFD0DB1FFF7D4FEFEE700BF89
:10139000A80200200120704708B5FFF7E9FF0120EF
:1013A00070477047704708B5FFF7FBFF08BD08B5E9
:1013B000FFF7F8FF08BD000010B5037803F0030342
:1013C000012B04460CD02BB140F2A9520549064826
:1013D00002F038FB237843F002032370012010BD94
:1013E000002010BD45B000089CB0000810B503787F
:1013F00003F00303022B044605D040F2B152054925
:10140000054802F01FFB237823F0030343F0010398
:10141000237010BD45B00008C2B000083F2870B569
:1014200004462FDC184D55F820305A1C13D10228E1
:1014300011DCFFF775FF034658B92046FFF76EFF32
:10144000034630B9114E3378BFF35B8FDB0704D509
:101450000F4B45F82430184670BD3046FFF7ACFFFF
:101460000028F5D04FF41653032202210848FFF755
:101470003DFF3046FFF7BAFF064A07490448FFF729
:1014800089FFE5E70023E6E79C010020D40E002059
:10149000D80E0020980100206D12000838B50546CE
:1014A000FFF7BCFF0B4B002443F8254030B902F096
:1014B0001FFC092303604FF0FF3038BD03685B69F0
:1014C0009847051E04DA02F013FC6D420560F2E74E
:1014D000204638BD9C010020FFF7E0BF38B50C4620
:1014E0001546FFF79BFF38B902F002FC09230360A1
:1014F0004FF0FF34204638BD03682146DB682A469A
:101500009847041EF6DA02F0F3FB64420460EFE74A
:1015100008B5131E06DA02F0EBFB162303604FF04A
:10152000FF3008BD04D0FFF7D9FF40EAE07008BDE6
:10153000184608BD38B50C461546FFF76FFF38B999
:1015400002F0D6FB092303604FF0FF34204638BD7C
:10155000036821469B682A469847041EF6DA02F083
:10156000C7FB64420460EFE7002A08B503DBBDE86F
:101570000840FFF7DFBF02F0BBFB162303604FF00C
:10158000FF3008BD10B5FFF749FF044628B902F047
:10159000AFFB09230360204610BD0368DB69984751
:1015A000041EF8DA02F0A4FB644204600024F2E7AF
:1015B000FFF7E8BF38B50C461546FFF72FFF38B9DF
:1015C00002F096FB092303604FF0FF34204638BD3C
:1015D000036821461B692A469847041EF6DA02F082
:1015E00087FB64420460EFE7FFF7E4BF38B50D46C0
:1015F000FFF714FF044630B902F07AFB09230360B9
:101600004FF0FF3038BD0368DB699847002814BFEE
:101610004FF400534FF400436B60236820469B6AED
:1016200098472861002038BDFFF7E0BF37B5054671
:1016300002F0A4FD044630B9009003462A4603494F
:10164000034802F0EBFA204603B030BD28B0000892
:101650001F01018002F09ABD70477047074B08498F
:101660009A68084810B5043A52F8044F41F8044FFC
:101670008142F9D14FF000529A6010BD00ED00E0B8
:10168000FCFFFF1F9001002008B5FFF7E7FFFFF701
:10169000B5FDFFF7E2FF08BD08B5FFF7DDFFBDE8C8
:1016A0000840FEF7CBBD30B5C36891FAA1F4B4FA97
:1016B00084F491FAA1F10325B1FA81F1640005FAED
:1016C00004F4490023EA040302FA01F11943C1605A
:1016D00030BD012A02D0022A18BF0022FFF7E3BF63
:1016E0002DE9F0410E46411C044604D13E224449F6
:1016F000444802F0A7F904F00F08434BC4F3031069
:1017000053F82850FFF764FA06F007070446836889
:1017100095FAA5F1B1FA81F195FAA5F203204900F5
:1017200000FA01F1B2FA82F223EA01035200022127
:1017300001FA02F21343A36087425AD8DFE807F0A8
:101740005E1D021DB8F1070FC6F303203BD9626A84
:101750002B0A93FAA3F1B1FA81F193FAA3F34FF0B4
:101760000F0EB3FA83F389000EFA01F19B0022EA0F
:10177000010200FA03F3134363623B46226895FAC1
:10178000A5F0B0FA80F095FAA5F14FF0030EB1FA8A
:1017900081F140000EFA00F0490022EA00028B407D
:1017A000013F1343012F236005D8636832074CBF04
:1017B0002B43AB436360C6F3011229462046BDE8C4
:1017C000F041FFF786BF226A95FAA5F3B3FA83F3D7
:1017D00095FAA5F14FF00F0EB1FA81F19B000EFAC8
:1017E00003F3890022EA030200FA01F313432362A0
:1017F000C3E767220249054802F024F90023BDE748
:1018000044B10008B4AE000804B100086BB300088E
:10181000431C70B506460D4604D188221B491C485E
:1018200002F010F906F00F021A4BC6F3031053F83A
:101830002240FFF7CDF904FB04F2016802EB4203FA
:101840000B40B3FBF2F3013B012B05D8EB1E022B3F
:10185000436809D823434360032D08D10122214660
:10186000BDE87040FFF735BF23EA04034360012D54
:10187000F4D0052D01D0022D01D10222EFE721463F
:101880000022BDE87040FFF70EBF00BF44B1000862
:10189000B4AE000804B1000830B507EE101A284BAA
:1018A00002681A60B5EEC07AF1EE10FA89B005460A
:1018B00028D4F7EE007AB4EE677AF1EE10FAC8BFDA
:1018C000B0EE677AD5ED037AF8EE677A602267EEBC
:1018D000877A0192FCEEE77AAA68C5ED047A17EEE2
:1018E000903AB3FBF2F3029300230393059306931C
:1018F000049307932B7D013B032B16D8DFE803F0FD
:101900001B0517199FED0F7ADCE70424224601A975
:101910000B4800F0A5FF10B10B4802F05DF96B7D9C
:10192000074821464BB101F057F809B030BD0824F3
:10193000ECE70C24EAE70024E8E701F029F8F4E7F3
:10194000E40E00200000000025B20008C368ABB11F
:1019500007EE903AD0ED046AB8EE677AF8EE666A60
:10196000C6EE877AB7EE007AF4EE477AF1EE10FA17
:10197000C8BFF0EE477A17EE900A7047DFED017AA4
:10198000F9E700BF000000002DE9F0474A4C02686B
:10199000226086B000230E4600930546FFF7D6FF6F
:1019A000116A41F211131942074608D1116A40F237
:1019B0004443194202BF136823F0010313606946D0
:1019C00001A800F00DFE3D482968002380465FFA1B
:1019D00083F9013350F839208A42F8D111B93848D7
:1019E00002F0FAF808EBC90898F8043053BB00F08D
:1019F000D7FD0090049800990123AB60314B30BBB8
:101A0000B1FBF3F3013B636006F1FF3C2D4B6268D1
:101A1000B1FBF3FE4FEA41080021B8FBF3F8C4F82C
:101A20000CC063468A464FF6FE79B3F5803F12D26A
:101A3000B2F5803F0FD2BAF1000F00D06260F1B171
:101A4000E3601CE000F0BCFD00900598D3E74A007D
:101A5000B2FBF3F3D6E7AB685B00AB6030BB0EFBC9
:101A600003F2BCFBF3F34B4502F1FF3221D8B2F590
:101A7000803F1ED314486260E36002F0ADF800239B
:101A80000D482361A36000F0A5FE10B10E4802F0DE
:101A9000A3F8EE6039462846FFF7FEFE2268136879
:101AA00043F00103136006B0BDE8F08708FB03F2C2
:101AB000D7E701218A46B8E7E40E00203CB20008CF
:101AC00010B2000840420F0025B2000870B50E4663
:101AD000044688B05449304601F0D0FC2060013003
:101AE00004D12E225149524801F0ACFF4E493046F4
:101AF00001F0E8FC431C054604D132224B494D4815
:101B000001F0A0FFC5F304334B4A23752368C5F3E6
:101B10004045934265754FF000021AD10092474A42
:101B2000516C41F001015164526C02F001020092CB
:101B3000009A434A934229D1002305933F4B5A6CA4
:101B400042F480325A645B6C03F480330593059B46
:101B500058E0B3F1804F0BD10192384A116C41F03B
:101B600001011164126C02F001020192019AE0E796
:101B700034498B421AD10292304A116C41F0020171
:101B80001164126C02F002020292029A2E4A9342EF
:101B90001AD100230693294B5A6C42F400325A643E
:101BA0005B6C03F400330693069B2BE027498B42C2
:101BB0001AD10392214A116C41F004011164126C94
:101BC00002F004020392039A214A93421AD100239D
:101BD00007931A4B5A6C42F480225A645B6C03F4EC
:101BE00080230793079B0DE01A498B42A1D1134B29
:101BF00004921A6C42F008021A641B6C03F008038A
:101C00000493049B0849304601F0EEFB0023E36097
:101C100023610123A680A36044F620612046FFF7DC
:101C2000B3FE08B070BD00BF54AB00089CB1000803
:101C3000F8B100080AAE0008000001400038024078
:101C40000040014000040040004401400008004002
:101C500000480140000C004007EE101ADFED047A46
:101C600067EE277AFDEEE77A17EE901AFFF78CBE43
:101C7000002474490FB407B5064B07491B6805AA31
:101C8000D868019203F054FF03B05DF804EB04B090
:101C9000704700BFA802002084B200084368094AC8
:101CA0009B0182B0D3581A68120706D50022019210
:101CB0001A6801925A680192019A1868C0F340109C
:101CC00002B070476C1000204368034A9B01D35850
:101CD0001868C0F3C01070476C10002042681449A7
:101CE000920110B404685450531882685A60C26854
:101CF0009A600269DA6042691A61026A9A61002296
:101D0000DA84DA619A84DA859A85B0F91A20013288
:101D100006D108225A6118465DF8044B00F089BFCD
:101D2000B0F9182001320CBF04220C22F2E700BFE8
:101D30006C10002010B581600C46FFF7CFFF28B172
:101D400021460348BDE81040FFF794BF10BD00BF17
:101D500084B20008094B98420BD0A3F54C4398423B
:101D600009D003F5504398420CBF02204FF0FF30DA
:101D70007047002070470120704700BF00100140ED
:101D8000F0B50E4685B0044645493046154601F08B
:101D900075FB44490746284601F070FB014638466A
:101DA00001F046FB2060013004D13D223E493F480E
:101DB00001F048FE022E0CD0032D0AD03849022033
:101DC00001F05CFB874202D1394801F005FF002792
:101DD00000E00127374B206898424FF0000340D1C4
:101DE0000193354B5A6C42F010025A645B6C03F05D
:101DF00010030193019BFFF7ADFF0028606004DA38
:101E0000A42229492D4801F01DFE2549304601F044
:101E1000EBFA2449284601F0E7FA721C03D00121AD
:101E20003046FFF7F5FC6B1C03D001212846FFF775
:101E3000EFFC4FF41653A3600023E360236163615A
:101E40002362268365832046FFF748FF3FB11C4B82
:101E50001C4801221A6021464C2202F0F1F905B01B
:101E6000F0BD194A90420BD10293134B1A6C42F405
:101E700000321A641B6C03F400330293029BBAE72E
:101E8000124A9042B7D103930B4B5A6C42F0200296
:101E90005A645B6C03F020030393039BABE700BF22
:101EA00028AD0008E0AC0008AEB200080AB3000894
:101EB00026B3000800100140003802405BB3000860
:101EC000200F00202010002000440040001401409A
:101ED00038B5446805462846FFF7E0FE0028FAD0EA
:101EE000A401034B1B595868C0F3080038BD00BF5C
:101EF0006C10002070B5456806460C463046FFF76A
:101F0000E3FE0028FAD0AD01024B5B59C4F308048C
:101F10005C6070BD6C100020DFF830D0002103E061
:101F20000B4B5B58435004310A480B4B42189A4202
:101F3000F6D30A4A02E0002342F8043B084B9A42D7
:101F4000F9D300F0B9FEFEF745F970470080012093
:101F5000FCBA000898010020680C0020680C0020E2
:101F600078110020FEE7704708B50B4B1A6842F461
:101F700000721A601A6842F480621A601A6842F4A9
:101F800080721A60032000F0AFF80F20FFF7B4F85A
:101F9000FFF7E9FF002008BD003C02407047000049
:101FA00010B50446002800F09980036C23B94364FF
:101FB00080F83C30FFF7F2FF236CDB0600F18C80E9
:101FC000236C23F4885323F0020343F002032364B9
:101FD000434B5A6822F440325A605A6861680A4397
:101FE0005A60236821695A6822F480725A605A68DC
:101FF00042EA01225A605A68A16822F040725A608F
:102000005A680A435A609A68E16822F400629A604A
:102010009A680A439A603349A26A8A4250D0996802
:1020200021F07061996099680A439A609A68E16A40
:1020300022F040529A609A680A439A609A68A169AD
:1020400022F002029A609A6842EA41029A60226A89
:10205000002A3DD05A68616A42F400625A605A68A8
:1020600022F460425A605A68013942EA41325A60A9
:10207000DA6AE16922F47002DA62DA6A013942EA64
:102080000152DA629A68216B22F400729A609A68AF
:1020900042EA41229A609A68616922F480629A60F9
:1020A0009A68002042EA81229A606064236C23F0DF
:1020B000030343F001032364002384F83C3010BD84
:1020C0009A6822F070629A609A6822F04052B4E7EF
:1020D0005A6822F40062CAE70120EDE7012010BD32
:1020E000002301400100000F074AD36823F4E06396
:1020F0001B041B0C43F0BF63000243F4003300F4E5
:10210000E0600343D360704700ED00E02DE9F34148
:10211000044618B9012002B0BDE8F0810368DD076C
:1021200010D42368980758D423681A0700F19A80BE
:1021300023685B0700F1B880A269002A40F019818A
:102140000020E8E7A64B9A6802F00C02042A07D0A8
:102150009A6802F00C02082A0AD15B68590207D576
:102160009F4B1B689A03DCD56368002BD9D1D1E75C
:1021700063689B4DB3F5803F11D12B6843F48033E6
:102180002B60FEF7BFFF964D06462B689B03C8D415
:10219000FEF7B8FF801B6428F7D90320BBE7B3F52F
:1021A000A02F04D12B6843F480232B60E5E72A6835
:1021B00022F480322A602A6822F480222A60002BCE
:1021C000DFD1FEF79FFF06462B689F03A9D5FEF7D8
:1021D00099FF801B6428F7D9DFE7814B9A6812F0DA
:1021E0000C0F07D09A6802F00C02082A11D15B6824
:1021F0005E020ED47A4B1A68950702D5E268012A6E
:1022000088D11A68216922F0F80242EAC1021A60F4
:102210008AE7E268734BB2B101221A60FEF772FFDF
:102220006F4D06462B68980707D52B68226923F067
:10223000F80343EAC2032B6076E7FEF763FF801BD7
:102240000228EFD9A9E71A60FEF75CFF644D064645
:102250002B6899077FF568AFFEF754FF801B0228B3
:10226000F6D99AE76269604B7AB101221A60FEF7EB
:1022700049FF5B4D06466B6F9F073FF559AFFEF771
:1022800041FF801B0228F6D987E71A60FEF73AFF64
:10229000534D06466B6F98077FF54AAFFEF732FF46
:1022A000801B0228F6D978E74D4B1A6C12F0805249
:1022B00028D101921A6C42F080521A641B6C03F010
:1022C00080530193019B0126484D2B68D9051BD5EE
:1022D000A368434D012B27D12B6F43F001032B67DC
:1022E000FEF710FF3E4D074641F288382B6F9B07E3
:1022F00039D5002E3FF420AF394A136C23F08053B8
:10230000136419E70026DFE72B6843F480732B6022
:10231000FEF7F8FE07462B68DA05D9D4FEF7F2FE81
:10232000C01B0228F7D938E7052B04D12B6F43F0E7
:1023300004032B67D0E72A6F22F001022A672A6F75
:1023400022F004022A67002BCAD1FEF7DBFE41F21D
:10235000883807462B6F9807CBD5FEF7D3FEC01BF6
:102360004045F7D919E7FEF7CDFEC01B4045BDD962
:1023700013E71B4DAB6803F00C03082B3FF4CAAE08
:102380001B4E0023022A336034D1FEF7BBFE074602
:102390002B6899011ED4226AE3691343626A43EAF7
:1023A0008213E26A43EA0263A26A0D4C5208013AC0
:1023B00043EA02436B6001233360FEF7A3FE054648
:1023C00023689A013FF5BCAEFEF79CFE401B022835
:1023D000F6D9E2E6FEF796FEC01B0228D8D9DCE665
:1023E0000038024000004742800E47420070004023
:1023F00060004742FEF786FE04462B689B017FF58E
:102400009FAEFEF77FFE001B0228F6D9C5E600BF8F
:10241000134908B58B6803F00C03042B03D0082B79
:1024200003D0104808BD104808BD4A684B68496889
:1024300013F4800314BF0C480A48C1F3881118BF75
:10244000002302F03F02A1FB000107F027FB044B31
:102450005B68C3F3014301335B00B0FBF3F008BDDD
:10246000003802400024F40000127A002DE9F04107
:102470000D46044610B90120BDE8F081444B1A68AE
:1024800002F00F028A4228D321688F072DD4C80793
:1024900040D43F4B1A6802F00F02954266D322687F
:1024A00051076CD4130707D53A4A2169936823F47E
:1024B000604343EAC1039360FFF7AAFF354B364AF6
:1024C0009B68C3F30313D35CD840344B18600F20D0
:1024D000FEF712FE0020BDE8F081CAB21A701B6838
:1024E00003F00F039942C6D1CEE72A4B11F0040F37
:1024F0001EBF9A6842F4E0529A600E0742BF9A6883
:1025000042F460429A609A68A06822F0F0020243A6
:102510009A60BCE762681F4B012A1DD11B6813F447
:10252000003FA8D01B4EB36823F003031343B360EE
:10253000FEF7E8FD41F288380746B368626803F0A9
:102540000C03B3EB820FA4D0FEF7DCFDC01B4045AB
:10255000F3D90320BDE8F081911E01291B6802D840
:1025600013F0007FDDE713F0020FDAE7EAB21A702A
:102570001B6803F00F039D427FF47DAF8FE7054991
:10258000E0688B6823F4E05303438B608AE700BF65
:10259000003C02400038024081B30008A002002045
:1025A000044B054A9B68C3F38223D35C034A10683B
:1025B000D84070470038024091B30008A0020020C4
:1025C000044B054A9B68C3F34233D35C034A10684B
:1025D000D84070470038024091B30008A0020020A4
:1025E0000F2303600B4B9A6802F0030242609A6863
:1025F00002F0F00282609A6802F4E052C2609B68C6
:10260000DB0803F4E0530361034B1B6803F00F0383
:102610000B60704700380240003C0240036A23F020
:1026200001030362036A70B5446882690D6822F091
:1026300073022A438D6823F002032B430A4DA842FC
:102640000BD1CD688E6923F008032B434D6924F428
:102650004074354323F004032C43446082614A688C
:102660004263036270BD00BF00000140036A23F4AF
:1026700080730362036A70B54468C2690D6822F012
:1026800073022A438D6823F4007343EA05230B4D3C
:10269000A8420DD1CD688E6923F4006343EA052377
:1026A0004D6924F44054354323F4806344EA05140F
:1026B0004460C2614A68C263036270BD00000140A9
:1026C000036A23F480530362036A30B54468C26925
:1026D0000D6822F4E64242EA05228D6823F4005395
:1026E00043EA0533064DA84202BF4D6924F48044F5
:1026F00044EA85144460C2614A680264036230BDE2
:102700000000014070477047224A036890420ED093
:10271000B0F1804F0BD0A2F57C42904207D002F579
:102720008062904203D002F58062904219D14A68DB
:1027300023F070031343174A904204D1CA6823F46C
:102740004073134318E0B0F1804FF7D0124A904223
:10275000F4D002F580629042F0D002F5806290429F
:10276000ECD00E4A9042E9D002F580629042E5D06A
:1027700002F580629042E1D003608B68C3620B680F
:102780008362044B984204BF0B69036301234361D6
:10279000704700BF000001400004004000400140BD
:1027A00010B50446A0B190F8393003F0FF021BB910
:1027B00080F83820FFF7A6FF022384F8393020681C
:1027C000211DFFF7A1FF012384F83930002010BD3F
:1027D000012010BD10B50446A0B190F8393003F0C7
:1027E000FF021BB980F83820FFF78DFF022384F821
:1027F00039302068211DFFF787FF012384F8393025
:10280000002010BD012010BD036A23F010030362F5
:10281000036A70B5446882690D6822F4E64242EAB0
:1028200005228D6823F0200343EA05130B4DA842CF
:102830000DD1CD688E6923F0800343EA05134D69FD
:1028400024F44064354323F0400344EA85044460A3
:1028500082614A688263036270BD00BF000001406C
:1028600038B590F83830012B04464FF0020025D0DF
:10287000012384F8383084F839000C2A18D8DFE8AE
:1028800002F0071717171E1717172F1717174000F3
:102890002068FFF7C3FE236809699A6942F00802BD
:1028A0009A619A6922F004029A619A690A439A61CC
:1028B0000123002084F8393084F8380038BD2068BE
:1028C000FFF7A2FF236809699A6942F400629A61DE
:1028D0009A6922F480629A619A6942EA0122E6E7E3
:1028E0002068FFF7C3FE23680969DA6942F008022D
:1028F000DA61DA6922F00402DA61DA690A43DA613C
:10290000D6E72068FFF7DCFE23680969DA6942F43C
:102910000062DA61DA6922F48062DA61DA6942EA35
:102920000122ECE7036A10B501248C4023EA04037A
:102930000362036A8A401A43026210BD10B504465E
:1029400000220068FFF7EEFF2368104A93420DD182
:10295000196A41F21112114208D1196A40F2444237
:10296000114202BF5A6C22F400425A64196A41F2C1
:102970001112114208D1196A40F24442114202BFB9
:102980001A6822F001021A60002010BD0000014008
:1029900010B5044601220068FFF7C4FF2368064A09
:1029A000934202BF5A6C42F400425A641A6842F0E1
:1029B00001021A60002010BD00000140FFF7E8BFCF
:1029C000036A10B504248C4023EA04030362036AFB
:1029D0008A401A43026210BD10B504460422006802
:1029E000FFF7EEFF23685A6C42F400425A641A68FB
:1029F00042F001021A60002010BD00002DE9F047EE
:102A00000668C2683369C16923F4405313433361D4
:102A1000044683680069F2680343606922F4164241
:102A2000034322F00C020B431343F3607369A26962
:102A300023F440731343B1F5004F73617A4B7CD19B
:102A40009E4203D003F580639E4244D1FFF7B8FD58
:102A5000192505FB00F360684FF064094000B3FBE3
:102A6000F0F3B3FBF9F34FEA0318FFF7A9FD63682E
:102A700068435B00B0FBF3F7FFF7A2FD63686843B0
:102A80005B00B0FBF3F3B3FBF9F309FB1373DB005B
:102A90003233B3FBF9F35B0003F4F877FFF790FDF3
:102AA000626868435200B0FBF2FAFFF789FD636881
:102AB00068435B00B0FBF3F3B3FBF9F309FB13A32B
:102AC000DB003233B3FBF9F303F0070343443B4429
:102AD000B360BDE8F087FFF763FD192505FB00F340
:102AE00060684FF064094000B3FBF0F3B3FBF9F307
:102AF0004FEA0318FFF754FD636868435B00B0FBBF
:102B0000F3F7FFF74DFD636868435B00B0FBF3F339
:102B1000B3FBF9F309FB1373DB003233B3FBF9F3B7
:102B20005B0003F4F877FFF73BFD626868435200EF
:102B3000B0FBF2FAFFF734FDB9E79E4202D03B4BFF
:102B40009E4240D1FFF73CFD676819254FF06409AC
:102B500005FB00F3BF00B3FBF7F3B3FBF9F31F0171
:102B6000FFF72EFD636868439B00B0FBF3F8FFF7A7
:102B700027FD636868439B00B0FBF3F3B3FBF9F3F5
:102B800009FB13831B013233B3FBF9F303F0F008A5
:102B9000FFF716FD626868439200B0FBF2FAFFF798
:102BA0000FFD636868439B00B0FBF3F3B3FBF9F3DD
:102BB00009FB13A31B013233B3FBF9F303F00F033B
:102BC00043EA080383E7FFF7EBFC676819254FF03A
:102BD000640905FB00F3BF00B3FBF7F3B3FBF9F3A4
:102BE0001F01FFF7DDFC636868439B00B0FBF3F84F
:102BF000FFF7D6FC636868439B00B0FBF3F3B3FBBD
:102C0000F9F309FB13831B013233B3FBF9F303F030
:102C1000F008FFF7C5FC626868439200B0FBF2FA67
:102C2000FFF7BEFCBDE700BF0010014000140140EB
:102C3000704710B5044640B390F8393003F0FF02F6
:102C40001BB980F83820FFF7F3FF2268242384F8AB
:102C50003930D36823F40053D3602046FFF7CEFE0B
:102C600023681A6922F490421A615A6922F02A02F2
:102C70005A61DA6842F40052DA6000202023E063EF
:102C800084F8393084F83A3010BD012010BD7FB58A
:102C90000F230193022100234FF4805201A80291D7
:102CA000039304920593FFF7E1FBB0FA80F040092B
:102CB00007B05DF804FB00000F49D1F8883043F4F9
:102CC0007003C1F888300D4B1A68002042F00102F1
:102CD0001A6098601A6822F0847222F480321A60B6
:102CE000074A5A601A6822F480221A60D8604FF0AE
:102CF00000638B60704700BF00ED00E000380240C9
:102D00001030002400B58FB01D4B002100911A6CCB
:102D100042F080521A641B6C1A4A03F080530093ED
:102D2000009B0191136823F4404343F40043136074
:102D3000136803F440430193019B01230293C8B934
:102D40004FF480330393022308934FF480030993D5
:102D500008230A934FF4A8730B9304230C9302A83F
:102D600007230D93FFF7D2F938B9FFF790FF0FB0A3
:102D70005DF804FB4FF4A023E4E70020F7E700BF71
:102D8000003802400070004010B58EB000241A4B8D
:102D900000941A6C42F080521A641B6C174A03F0BC
:102DA00080530093009B0194136823F4404343F441
:102DB000004313601368039403F440430193019BA1
:102DC00009940323029301230593102306930A9386
:102DD0004FF4A8730B93042302220C9302A8072339
:102DE00008920D93FFF792F918B9FFF750FF0EB054
:102DF00010BD2046FBE700BF0038024000700040D5
:102E000008B50120FFF77EFF38B9FFF7BDFF20B9F5
:102E10000248BDE8084000F0DFBE08BD6DB3000801
:102E2000174A1849936803F00C03042B10B50DD012
:102E3000082B0DD0144B0B60114B144A9B68C3F345
:102E40000313D25C0B68D3400B6010BD104BF2E74C
:102E50005468506852686302C2F3881200F03F0061
:102E60004CBF0B4B084BB3FBF0F35343044A52687F
:102E7000C2F3014201325200B3FBF2F3DBE700BFC1
:102E800000380240A00200200024F40081B30008B2
:102E900000127A00074B084A13601A69910707D598
:102EA000DA68920704D56FF002021A6100F092BA54
:102EB000704700BF000C00403011002000487047F0
:102EC0009CB3000830B589B001A903A8FFF788FBBF
:102ED000FFF766FB002302931E4B01901A6C1E4CF9
:102EE00042F008021A641A6C02F008020292029A76
:102EF0001A6A42F008021A621A6A22F008021A627A
:102F0000069AA3F50B3323604FF0FF33E360134BB6
:102F1000F2B9B0FBF3F00138002560600E4825617E
:102F2000A5606561FFF73CFC0D4B0E4A9B680A48A3
:102F3000C3F808210C4B4FF480225A602946FFF752
:102F40003DFD2268D36823F00203D36009B030BD91
:102F50004000DEE7003802403011002040420F0000
:102F600000ED00E0952E000800E100E00448026852
:102F7000D36823F00203D3600021FFF71FBD00BF19
:102F800030110020014B586A704700BF000C004010
:102F9000054B1B686FF0020258631A61DA6842F051
:102FA0000202DA60704700BF30110020064B1B6838
:102FB0006FF002021A615A6942F002025A61DA683D
:102FC00042F00202DA60704730110020034B1A68A9
:102FD000D36823F00203D360704700BF3011002094
:102FE000024B1B686FF002021A617047301100201B
:102FF00008B500210348FFF7A1FCBDE80840FFF732
:10300000E5BF00BF3011002003689B68184700002F
:10301000094B10B5002203600023C0E902230023FE
:1030200003614361044600F0D1F90449A06100F056
:10303000F7FB204610BD00BFACB300080930000804
:1030400007B5009000F10801806900F028FC03B08A
:103050005DF804FB00F10801806900F049BC000044
:1030600010B5034B03600446FFF7F4FF204610BD84
:10307000ACB3000870B5D0E90823D0E90245064694
:1030800012196B41FFF7DCFF736B2BB106F12800BF
:103090001B68BDE87040184770BDD0B504461646A1
:1030A0001F4600F097FC2046FFF7D4FFC4E90867ED
:1030B000A06900F038FC321847EB01032046FFF707
:1030C000BFFFBDE8D04000F09BBC7FB5044600F0D8
:1030D00081FC2046FFF7BEFF636B13B194F83830D4
:1030E000E3B904F128066D4610220021684601F07C
:1030F00041F9AE420BD03046FDF7F6FA3EB1039BE4
:103100001BB15B68694630469847039B636328465A
:10311000FDF7EAFA00F074FC04B070BD00F036F977
:10312000DFE7000038B50546064B45F8283B044666
:10313000FFF7CBFF2846FDF7D7FA2046FFF790FFB1
:10314000204638BDC0B3000810B50446FFF7EAFFBB
:103150002046FEF77FFA204610BD70B50E460446A5
:103160001546FDF7BBFD013609D020460021FDF7CD
:10317000D9FD29462046BDE87040FDF7CFBD70BDA2
:1031800038B504460D4603685AB18268136020467C
:103190000121FDF7C7FD29462046BDE83840FDF76F
:1031A000BDBDC2681B04F1E70022FFF7D6BF70B5B2
:1031B0000E4604461546FDF791FD013606D02A4617
:1031C00020460021BDE87040FFF7DABF70BD002245
:1031D000FFF7EDBF0346024A2030FDF78FBE00BF68
:1031E00021330008F8B50546134B45F8043B044667
:1031F0000F4610261C220021284601F0BBF832465B
:10320000002104F1200001F0B5F83246002104F15C
:10321000300001F0AFF83246002104F1400001F027
:10322000A9F839462046FFF7D5FF28463946FFF76B
:10323000BBFF2046F8BD00BFF0B3000883681A68E2
:1032400043681A4214BF01200020704710B5084B94
:10325000044640F8203BFDF725FF04F14000FDF750
:1032600043FA04F13000FDF73FFA204610BD00BFDD
:10327000F0B3000810B50446FFF7E8FF2046FEF75C
:10328000E9F9204610BD884238B504460D460AD0FB
:10329000FDF72AFA3CB1EB681BB15B682946204672
:1032A0009847EB68E360204638BDF0B50F4685B01F
:1032B000044600F08FFBFD6804F13006203465B150
:1032C00039463046FFF7DFFF012201212046FDF796
:1032D0009DFD00F095FB05B0F0BD10222946684623
:1032E00001F048F869463046FFF7CDFF6846FDF724
:1032F000FBF92A46E9E70000C36810B504462BB97C
:1033000040F239220449054800F09CFBE36820465E
:103310001B68BDE810401847CCB30008E2B30008B2
:10332000012908B502D0022906D008BDC36B13B12C
:103330003030FFF7E1FF08BDC36C002BFBD04030FD
:10334000F7E7000013B50E4C00F044FB22884FF65F
:10335000FF739A420AD100F053FB002322880093A6
:103360000849094800F05AFC02B010BD012120466E
:1033700000F054FB02B0BDE8104000F041BB00BFBC
:103380002C0F0020F8B300082301048037B50C4C43
:1033900000F020FB258855B900F032FB228800950B
:1033A0002B460849084800F039FC03B030BD012124
:1033B000204600F03DFB03B0BDE8304000F020BBEC
:1033C0002C0F00201DB40008240104800048704721
:1033D0003CB40008024B1B680BB102481847704709
:1033E000A40200203CB4000813B5044601300FD1FC
:1033F00002B010BD9C420AD120468968FEF770F9E0
:103400000021204602B0BDE81040FEF701BA0C31A1
:10341000B1F900305A1CEDD1002300932246024935
:10342000024800F0FBFBE3E7B3B400083001018081
:10343000884207B502460BD0431C09D001310BD09E
:10344000002306490093064800F0E8FB4FF0FF31E7
:10345000084603B05DF804FB0146F9E782B40008B2
:1034600030010180B1F900305A1C01D11846704773
:10347000834201D1486870470C31F3E7421C13B511
:1034800004460BD0FFF7EEFF431C044606D1002391
:10349000024600930349044800F0C0FB204602B0F6
:1034A00010BD00BF93B4000830010180B1F90030B5
:1034B0005A1C01D118467047834201D18868704771
:1034C0000C31F3E7421C13B504460BD0FFF7EEFFB7
:1034D000431C044606D100230246009303490448D6
:1034E00000F09CFB204602B010BD00BF64B4000891
:1034F000300101802DE9F74FD0F804A09AF83A3056
:103500000446002B46D103685B68984763681B6AD2
:1035100098423FD0DAF82030DAF80840CAF82000A4
:10352000A0EB0308DAF80C30314808EA03088442BB
:1035300046464FF0000727D0DAE90A239AF83BB055
:10354000A8FB0089CDE900230025BBF1000F2BD09B
:103550005A464046494605F0A5FDDDE9002312EB39
:10356000080243EB090390465A46994606460F4621
:1035700005F0A4FDB8EB000069EB0101A94208BF0A
:10358000A0420AD2CAE90A01DAE90C23B6185F415F
:10359000CAE90C6703B0BDE8F08F013647F10007B8
:1035A000001B61EB0501EDE722462B4640464946EC
:1035B00006F074FA224606460F46404649462B4618
:1035C00006F06CFADDE9008918EB020849EB030903
:1035D000A94508BFA04502D2CAE90A89D4E7013645
:1035E00047F10007B8EB040869EB0509F4E700BFF1
:1035F00040420F00824206D98A420BD9884294BFCA
:10360000002001207047884206D98A428CBF0020E2
:103610000120704701207047002070472DE9F14FCD
:10362000476897F83A300646002B44D197F839306E
:10363000002B40D1FFF75EFF75686B68002B59D0F7
:10364000D5E90C89D3E90001894508BF804505D338
:1036500033685B6901B0BDE8F04F1847D5E9062330
:10366000B0EB080861EB09094B4508BF42452C69DE
:1036700006D3AB68254A934220D1444528BF44462F
:103680002B6A1C44EB681C403B6AA34205D140F204
:1036900007121F491F4800F0D5F9336820461B69FF
:1036A000984733685B68984722460146386AFFF7B7
:1036B000A1FF0028CCD101B0BDE8F08F95F83B20E8
:1036C000DFF854A04FF0000B7AB14046494605F0B0
:1036D000F5FC10EB0A0041EB0B010C4A002306F04D
:1036E000DDF9844228BF0446CAE7A3FB080103FBB7
:1036F0000911EEE73B69386AFA68184433681B69B8
:10370000104001B0BDE8F04F184700BF40420F0025
:10371000C4B4000816B500083F420F002DE9F04F71
:10372000436893F8382085B00546002A6FD193F896
:103730003A30002B6BD103681B6898472B68DB6914
:103740009847066804462EB92C2232493248334E37
:1037500000F078F91F23012202FA03F1B1425FFA67
:1037600083FB02D0013BF7D19B46D4F804A0AAF119
:1037700004031C2B06D93A222649274800F062F997
:103780004FF0200AAAF10403072716F1FF3007FAC9
:1037900003F7224C4FF0000343F1FF313246C4FBE4
:1037A000070106F07BF96C682A68002323606360D8
:1037B00052680393CDE90001904720626C684FF096
:1037C00000084FF000095246C4E90A89A66084F84F
:1037D0003BB00120002105F071FCDDE90023C4E9C4
:1037E0000623039B84F8393084F83A3001380123EA
:1037F000E06027612846C4E90C8984F83830FFF777
:1038000079FE284605B0BDE8F04FFFF707BF05B0C9
:10381000BDE8F08FC4B400086BB3000840420F004D
:1038200038B505460C46FFF779FF00F0D3F86B6812
:103830001C60BDE8384000F0E3B870B5044600F005
:10384000C9F82368DB689847636893F83A201AB18F
:10385000BDE8704000F0D4B8012283F839206368D5
:103860005B68A3B12046FFF745FE65686E68D5E941
:103870000C01D6E90023994208BF904207D3F368B0
:103880006B602B68002BEAD0B0689847E7E7636865
:10389000002283F839202046FFF7C0FED8E72DE943
:1038A000F04180460C4616461F46069D00F092F8F1
:1038B0004046FFF71FFED8F80420A560C4E9006762
:1038C000536800254BB9E36085B954604046FFF763
:1038D000A5FEBDE8F04100F093B8D3E900018F42A6
:1038E00008BF8642EFD31D46DB68EBE7EC60F0E7EC
:1038F00038B505460C4600F06DF86A685368A34277
:1039000009D1DB6853602846FFF788FEBDE83840E0
:1039100000F076B81346002BF8D0DA689442F9D15B
:10392000E268DA60F2E710B50446FFF7F7FE00F050
:1039300051F82046FFF7DEFD00F062F86368D3E936
:103940000C0110BD08B5FFF7EEFF08BD10B5034B25
:1039500003600446FFF7E6FB204610BD44B50008AF
:1039600010B50446FFF7F2FF2046FDF773FE204630
:1039700010BD00001FB5436B044600F1280113B1D0
:103980005B6868469847636B03932046FFF79DFB8F
:10399000039B2BB940F239220649074800F052F840
:1039A000039B68461B6898476846FCF79DFE04B079
:1039B00010BD00BFCCB30008E2B30008EFF31080E5
:1039C000C04300F001007047EFF30580003018BFDE
:1039D0000120704710B5074C2368013304D15122F0
:1039E0000549064800F02EF800F056F92368013327
:1039F000236010BD700F002050B50008A5B5000869
:103A0000054B1A6832B11A68013A1A601B680BB983
:103A100000F054B9704700BF700F0020D0E85F3F3E
:103A20000B449BB2C0E8523F002AF7D118467047BA
:103A3000D0E85F3F5B1A9BB2C0E8523F002AF7D143
:103A40001846704770B504460D461646FFF7C2FF8C
:103A500033462A4621460348FDF7C2FBBDE87040C5
:103A6000FDF768BBD6B500082DE9F0411B4C1C4E94
:103A7000237836EA200628BF0646012B8EB00F4673
:103A8000904600D1FEE7174DFFF7A4FF01232370F6
:103A9000FFF7B6FF2B6834220133002101A82B6009
:103AA00000F068FC2B680196012BCDF80880039785
:103AB00004D1342201A90C4800F0C2FB342201A930
:103AC0000A4800F0BDFB0A4B1B680BB1074898473A
:103AD000002020700EB0BDE8F08100BF7C0F0020F8
:103AE0000101FF80740F0020800F0020B40F002020
:103AF000780F002073B5294C2168C1F34173032B63
:103B00000CBF4D428DB2C1F307432A4606462448F6
:103B1000FDF766FB6FF498731D44072D09D8DFE8A5
:103B200005F004272A2D30363339A1681D48FDF7EA
:103B300057FB3046FDF754FB61681B48FDF750FB0F
:103B4000A1681A48FDF74CFBE3690193A369009350
:103B500004F10C010EC91648FDF742FB2168154817
:103B6000FDF73EFB144802B0BDE87040FDF738BBDE
:103B7000A1681248DBE7A1681148D8E7A16811489D
:103B8000D5E7A1681048D2E7A1681048CFE7A1683F
:103B90000F48CCE7A1680F48C9E700BFB40F002069
:103BA0001CB600086DB60008FAB600080AB700088F
:103BB0001DB700086CB70008B8B7000882B6000847
:103BC00091B600089FB60008B1B60008C4B6000858
:103BD000D7B60008E5B600080FB437B50C4D297804
:103BE000724679B90B48FFF73FFF0B48FFF782FF9A
:103BF000012407A906982C700191FDF7C7FA204609
:103C0000FDF7CAFB03B0BDE8304004B0704700BF09
:103C10007C0F00200001FF8007B6000810B50C469D
:103C200011467246FFF720FF68B92046FFF762FF92
:103C3000FFF7CAFE10B9FFF7C1FE08B930BFFDE7B4
:103C40000120FDF7A9FB014810BD00BF0F01FF8057
:103C500070B50446FFF7BAFB0646FFF773FE05464C
:103C60003046FFF76FFE401BA042F9D370BD000045
:103C700007EE100ADFED047A67EE277AFDEEE77AA9
:103C800017EE900AFFF7E4BF002474494FF47A73EB
:103C90005843FFF7DDBF0000EFF31083DB4372B63C
:103CA000044A117829B9044903F001030B70012378
:103CB00013707047E90F0020E80F002008B5EFF3FC
:103CC0001083DB0704D4352205490648FFF7BAFE06
:103CD000054B00221A70054B1B7803B162B608BD74
:103CE000D2B700082EB80008E90F0020E80F002026
:103CF000014B1868704700BFA8020020B1F90C30D2
:103D00009AB22DE9F0410C461107804648D462680A
:103D100043F40063002AA3815DDDA56A002D57D01E
:103D200000229BB2D8F80060E169C8F8002013F4C3
:103D3000805254D101234046A847431C024665D017
:103D4000A389A56AE1695F0705D56068236B121A2C
:103D50000BB1E36BD21A00234046A847451C48D15B
:103D6000D8F80020B4F90C30002A5CD01D2A01D00C
:103D7000162A64D122690021C4E9002123F40063DA
:103D8000A381216BC8F8006011B304F1400399428C
:103D900002D0404606F03AF800202063BDE8F081EA
:103DA0002669AEB12568266091070CBF63690023C0
:103DB000AD1BA3600AE02B463246676AE1694046C4
:103DC000B8470028A5EB000506440ADD002DF2DC0B
:103DD0000020BDE8F081E26B002A9EDCF8E7226D4E
:103DE000B1E7A38943F04003A3814FF0FF30BDE862
:103DF000F081B4F90C302269226023F400630022C0
:103E00006260DA04A381BCD52065BAE7D8F8003037
:103E1000002B95D01D2B0FD0162B0DD0A38943F06E
:103E20004003A381D5E723F400632169A381DB0468
:103E3000C4E90012A5D5E7E7C8F80060C8E743F079
:103E40004003A381C5E700BF10B5044682B008B1A6
:103E5000836B23B1B1F90C0048B902B010BD0191D8
:103E600000F08EF80199B1F90C000028F5D0204639
:103E700002B0BDE81040FFF741BF00BF20B1054BC5
:103E800001461868FFF7E0BF034B0449186800F0CB
:103E9000AFB800BFA802002048B80008493E00089B
:103EA000014900F0A5B800BFCD6C00082DE9F84F1E
:103EB00045682C4BC3630024074600F53B7204237E
:103EC0000321C0E9B912C0F8E0422146EB6005F1D8
:103ED0005C006C66C5E90044AC60C5E90444AC61B3
:103EE000082200F047FADFF888B0BE68DFF884A047
:103EF000DFF88490DFF884801B4BC5F82C80C5E97F
:103F0000075BC5E909A92146F360082206F15C00B8
:103F10007466C6E90044B460C6E90444B46100F0C4
:103F200029FAFD68114BC6F82C80C6E9076BC6E973
:103F300009A92146EB606C66C5E90044AC60C5E99F
:103F40000444AC6105F15C00082200F013FA01237F
:103F5000C5E9075BC5E909A9C5F82C80BB63BDE8C5
:103F6000F88F00BFA13E0008090001001200020006
:103F700015440008394400087944000899440008B1
:103F8000836B03B17047FFF791BF00BF704700BF5D
:103F9000704700BF38B50A4C0A4D641BA4100AD004
:103FA00004F18043013B05EB8305013C55F80439DE
:103FB0009847002CF9D1BDE8384006F027BD00BF76
:103FC000640C0020600C002038B50B46074C0546F9
:103FD0001146184600232360FDF726FB431C00D042
:103FE00038BD2368002BFBD02B6038BD7411002036
:103FF0002DE9F84310F538771FD0884606464FF074
:104000000009D7E90154013D11D4A389012B05F121
:10401000FF3508D9B4F90E3001332146304602D0BD
:10402000C04749EA00096B1C04F16804EDD13F6800
:10403000002FE6D14846BDE8F883B9464846BDE8BA
:10404000F88300BF70B50D4E0D4D761BB61006D02F
:104050000024013455F8043B9847A642F9D1094E93
:10406000094D761B06F0CCFCB61006D000240134B6
:1040700055F8043B9847A642F9D170BD580C002072
:10408000580C00205C0C0020580C002070B50C4629
:10409000B1F90E10002996B015461E4614DB6A468B
:1040A000FFF792FF00280FDB019A02F47042A2F59D
:1040B0000052B2FA82F252094FF480634FF400606A
:1040C00032602B6016B070BDA289002312F0800010
:1040D000336004D0402218462A6016B070BD4FF4F9
:1040E00080632B6016B070BD8A8992070B4606D597
:1040F00001F1430201211A60C3E90421704770B540
:1041000082B001AB6A460C460646FFF7BFFF009936
:104110000546304605F076FEB4F90C3070B116490C
:10412000F163019A0099206043F08003A381C4E900
:1041300004018AB92B43A38102B070BD9A05FBD458
:1041400023F0030304F1430243F002030121A3819E
:104150002260C4E90421EFE73046B4F90E1002F002
:10416000F9FD10B9B4F90C30E4E7A38923F0030397
:1041700043F001031BB2DDE7A13E0008024B0146FC
:10418000186805F03FBE00BFA8020020024B0146A0
:10419000186805F03BBE00BFA80200200000000028
:1041A00001F0FF01102A2BDB10F0070F08D010F8E8
:1041B000013B013A8B422DD010F0070F42B3F6D1EC
:1041C000F0B441EA012141EA014122F007047FF005
:1041D00000070023F0E80256083C85EA010586EA5C
:1041E000010685FA47F5A3FA87F586FA47F6A5FA98
:1041F00087F68EB9EED1F0BC01F0FF0102F00702A4
:1042000032B110F8013B013A83EA010313B1F8D14E
:104210000020704701387047002D06BF354603382F
:10422000073815F0010F07D1013015F4807F02BF68
:10423000013015F4C03F0130F0BC0138704700BFB9
:10424000844641EA000313F003036DD1403A41D3A1
:1042500051F8043B40F8043B51F8043B40F8043B60
:1042600051F8043B40F8043B51F8043B40F8043B50
:1042700051F8043B40F8043B51F8043B40F8043B40
:1042800051F8043B40F8043B51F8043B40F8043B30
:1042900051F8043B40F8043B51F8043B40F8043B20
:1042A00051F8043B40F8043B51F8043B40F8043B10
:1042B00051F8043B40F8043B51F8043B40F8043B00
:1042C00051F8043B40F8043B51F8043B40F8043BF0
:1042D000403ABDD2303211D351F8043B40F8043B90
:1042E00051F8043B40F8043B51F8043B40F8043BD0
:1042F00051F8043B40F8043B103AEDD20C3205D3A0
:1043000051F8043B40F8043B043AF9D2043208D097
:10431000D2071CBF11F8013B00F8013B01D30B8809
:1043200003806046704700BF082A13D38B078DD0E7
:1043300010F003038AD0C3F10403D21ADB071CBFB9
:1043400011F8013B00F8013B80D331F8023B20F823
:10435000023B7BE7043AD9D3013A11F8013B00F85C
:10436000013BF9D20B7803704B7843708B788370E4
:1043700060467047F0B4860746D0541E002A3CD0F1
:10438000CAB2034602E014F1FF3436D303F8012B1E
:104390009D07F8D1032C29D9CDB245EA05250F2C6C
:1043A00045EA054533D9A4F11006360903F1200783
:1043B00007EB061703F1100242E9045542E90255E2
:1043C0001032BA42F8D1721C14F00C0F03EB021237
:1043D00004F00F0613D0331F23F0030304331344F8
:1043E00042F8045B9342FBD106F003042CB1C9B23E
:1043F0001C4403F8011B9C42FBD1F0BC70473446BF
:104400001346002CF3D1F8E714460346C2E71A46D8
:104410002646E0E710B50C46B1F90E1002F0FAFF9F
:10442000002803DB236D0344236510BDA38923F417
:104430008053A38110BD00BF2DE9F0411646B1F9AC
:104440000C201F46D3050C460546B1F90E1009D4C1
:1044500022F48052A2813B4632462846BDE8F04114
:1044600001F0ECBB0022022302F0A2FCB4F90C2004
:10447000B4F90E10ECE700BF10B50C46B1F90E1000
:1044800002F096FCA389421C0EBF23F4805343F430
:1044900080532065A38110BDB1F90E1001F04CBC12
:1044A000000000000000000000000000000000000C
:1044B00000000000000000000000000000000000FC
:1044C00090F800F06DE9024520F007016FF0000C54
:1044D00010F0070491F820F040F049804FF00004FC
:1044E0006FF00700D1E9002391F840F000F10800D7
:1044F00082FA4CF2A4FA8CF283FA4CF3A2FA8CF30F
:104500004BBBD1E9022382FA4CF200F10800A4FA75
:104510008CF283FA4CF3A2FA8CF3E3B9D1E90423C9
:1045200082FA4CF200F10800A4FA8CF283FA4CF300
:10453000A2FA8CF37BB9D1E9062301F1200182FABA
:104540004CF200F10800A4FA8CF283FA4CF3A2FAC0
:104550008CF3002BC6D0002A04BF04301A4612BACE
:10456000B2FA82F2FDE8024500EBD2007047D1E9D1
:10457000002304F00305C4F100004FEAC50514F060
:10458000040F91F840F00CFA05F562EA05021CBF31
:1045900063EA050362464FF00004A9E7000000004B
:1045A0002DE9F04FC3B01C460891914605460C908A
:1045B00002F0E2FB036815931846FFF781FF0D94A4
:1045C00013901DB1AB6B002B00F090830899B1F9EB
:1045D0000C2093B29E04084607D4496E42F400535F
:1045E00021F40051838141669BB21D0740F1B280E6
:1045F000089A1269002A00F0AD8003F01A030A2B12
:1046000000F0B6809FEDA87B00238DED107B129308
:10461000CDE9263314931693099332AB25939A462A
:1046200099F80030002B00F0BF80252B00F0F486B5
:104630004D4603E0252B00F0A98025466B786C1CC5
:10464000002BF7D1B4EB090600F0AE80DDE926328D
:1046500001333244072BCAF80090CAF80460CDE950
:10466000263200F398800AF1080A099A6B783244DE
:104670000992002B00F09880002367788DF877303E
:104680001A4619460A939B4604F101094FF0FF367A
:1046900009F10109A7F12003582B00F22B83DFE871
:1046A00013F0DA0029032903D5002903290329037C
:1046B000290329032903CA00C5002903C000A70054
:1046C0002903A200930093009300930093009300AA
:1046D0009300930093002903290329032903290345
:1046E000290329032903290329039A0259022903CB
:1046F00059022903290329032903AC0229032903A9
:104700001D02290329032903290329034702290339
:1047100029032F0229032903290329032903290334
:104720002903290329032903A20148015902590237
:104730005902EC02480129032903DF022903C702B9
:10474000B102F602F10229031F012903090129031D
:104750002903E20008990C9801F086FA002841F03C
:104760007381089B9B8903F01A030A2B7FF44AAFDD
:10477000089BB3F90E30002BFFF644AF23464A46A0
:1047800008990C9801F0E0F9099019E0B4EB0906DA
:104790003FF472AF5AE725AA08990C9804F01EF965
:1047A00048B90DF1C80A60E7279B23B10C98089916
:1047B00025AA04F013F9089B9B895A0601F144814C
:1047C000099843B0BDE8F08FA7F13003002019F835
:1047D000017B00EB800003EB4000A7F13003092BC5
:1047E000F5D90A9056E74BF0800B99F800704FE727
:1047F000484610F8017B2A2F01F07F81A7F1300392
:10480000092B81464FF000063FF644AF19F8017BB3
:1048100006EB860603EB4606A7F13003092BF5D914
:1048200038E799F800704BF0040B31E799F8007005
:1048300001222B212CE70D9B99F8007053F8040BF3
:104840000A900028C0F2A1860D9321E74BF0010BDE
:1048500099F800701CE799F8007000297FF418AFF0
:104860000122202114E7002A41F0E680104B149326
:104870001BF0200F00F04D810D9C073424F007033E
:10488000F3E802450D931BF0010F00F0448254EA57
:10489000050300F0408230238DF878308DF8797070
:1048A0004BF0020B022302E20000000000000000B7
:1048B00070B80008002A41F0B7801BF0200F40F0CC
:1048C0005C820D9A1BF0100F52F8044B41F02981C5
:1048D0001BF0400F0D9218BFA4B200250123E6E1A2
:1048E0000D9C54F8043B0E9300258DF87750002B57
:1048F00000F07886711C00F05487324629460E98E5
:10490000FFF74EFC002801F059800E9BC31A0B9351
:104910002E4623EAE3739DF877800D94CDF818B006
:1049200007930F96B8F1000F6FD0079B01330793E1
:104930006BE0002A41F06C801BF0200F40F0ED810D
:104940000D9B1BF0100F03F1040241F0E7800D9B5B
:104950000D921BF0400F14BFB3F900401C68E5171F
:1049600022462B46002A73F10003594680F2E58166
:1049700064424FF02D0865EB4505721C8B468DF89F
:1049800077804FF0010340F09981012B00F089837B
:10499000022B00F0268432A900E01146E20842EA28
:1049A0004572E80804F0070305461446303354EA1C
:1049B000050001F8013C01F1FF32EED11BF0010FBF
:1049C0000E9200F0D184302B00F03D860E9ACDF887
:1049D00018B03023023902F8013C32AB5B1A0B935A
:1049E0000E9100F016BC0D9C002354F8042B8DF89A
:1049F000A0208DF87730012228AB07920D940B92FE
:104A00000E930026CDF818B00F96069B13F0020304
:104A100002D0079A02320792069A279C12F0840B62
:104A200005D10A9A0799551A002D00F34A839DF87B
:104A3000772072B1269A013201340DF177000121FD
:104A4000072ACDE92624CAE9000100F377830AF199
:104A5000080A6BB1269B013302341EA90222072BE0
:104A6000CDE92634CAE9001200F376830AF1080A78
:104A7000BBF1800F00F0F5810B9BF61A002E00F3BE
:104A80003982069BDB0500F18181269B0E9ACAF8CC
:104A900000200B9ACAF8042001331444072B2794F2
:104AA000269300F39B820AF1080A069B590705D555
:104AB0000A9B079A9D1A002D00F35A83DDE90932FB
:104AC00007998A42ACBF9B185B180993002C40F0F1
:104AD0004B82002326930DF1C80AA1E5002A40F07D
:104AE0008B871BF0200F4BF0100340F03B810D9A99
:104AF00004320D990D929B460C6800250023D6E0E8
:104B0000002A40F07D87C24B14931BF0200F7FF4E6
:104B1000B3AE0D9B1BF0100F53F8044B0D9340F0F8
:104B200073841BF0400F00F06F84A4B20025AAE646
:104B3000002A40F085871BF0200F4BF0100340F057
:104B40001B810D9A04320D990D929B460C6800252D
:104B50000123ACE0002A40F057870D9C073424F075
:104B60000703B3EC027B55EC174B0D9325F0004384
:104B700019938DED187ADDE918014FF0FF32A54B3E
:104B80008DED107B04F0FCFE002840F05B844FF0BC
:104B9000FF32A04BDDE9180104F0D4FE002840F0FC
:104BA0005184002200232046294604F0C1FE00283B
:104BB00040F06A869DF87780974A984B032100263B
:104BC0002BF08000472FC8BF1A46079106900E921F
:104BD0000B910F96A6E6002A40F01E871BF0200FCF
:104BE0004BF0100140F09A800D9B1A1D0D9B0D9209
:104BF0001C68E51722462B469AE04BF0080B99F803
:104C0000007045E5002A40F00B871BF0200F40F0B4
:104C1000AA800D9A1BF0100152F8044B40F07B87DC
:104C20001BF040030D921CBF0B46A4B200253EE0D2
:104C3000002A40F0FD860D9A1BF0200F02F10403BC
:104C400040F0F6831BF0100F40F004851BF0400F7E
:104C500000F000850D9A0D931268099B1380DFE424
:104C600099F800706C2F03BF99F801704BF0200B7E
:104C700009F101094BF0100B0AE54BF0400B99F8D4
:104C8000007005E54BF0200B99F8007000E50D9CD5
:104C900054F8043B0D9447F630021C46604B1493C5
:104CA000ADF878204BF0020B0025022378274FF057
:104CB0000008721C8DF877803FF467AE2BF08002FD
:104CC000069254EA050240F0E781002E40F0288564
:104CD000002B42D11BF001030B9300F0A68330237D
:104CE0008DF8C7300DF1C7030E9392E20C98FFF7D1
:104CF00047F96BE4002A40F0E185002F3FF454AD02
:104D0000002301228DF8773028AB07928DF8A07030
:104D10000B920E9375E60223C9E759460D9C0734A2
:104D200024F007031846F0E802230D9014461D46B0
:104D3000002A73F10003FFF61BAE731C9DF8778009
:104D400000F0218454EA050321F0800B40F0A98192
:104D5000002E40F0AB81CDF818B0002632AB0B9698
:104D60000E9356E29B460D9C073424F00703F3E8AC
:104D700002450D9300239AE79B460D9C073424F0CF
:104D80000703F3E802450D93012390E7652F40F3F5
:104D9000318100220023DDE9100104F0BFFD00286D
:104DA00000F04082269B1F4ACAF8002001330134DC
:104DB0000122072BCDE92634CAF8042000F397849A
:104DC0000AF1080A1F9B129A279C934280F22783BC
:104DD000269B159ACAF80020139ACAF804200133BA
:104DE0001444072BCDE9263400F3F0830AF1080AB6
:104DF000129B5D1E002D7FF758AE102D269ADFF80E
:104E000028B040F36A8410260C9FDDF8208013E060
:104E10005CB80008FFFFEF7F4CB8000850B80008EE
:104E200070B800088CB80008A0B800080AF1080A99
:104E3000103D102D40F3518401321034072ACDE982
:104E40002624CAE900B6F1DD25AA4146384603F01A
:104E5000C5FD00287FF4AFACDDE926240DF1C80ABA
:104E6000E6E70A9B079A9D1A002D7FF705AE102DE5
:104E7000269ADFF8A0B52DDD584653462146CA468E
:104E8000BB46B1464FF010080C9C089E074604E054
:104E9000103D102D03F1080315DD01321031072AF2
:104EA000CDE92621C3E90078F2DD25AA3146204666
:104EB00003F094FD00287FF47EAC103D102DDDE959
:104EC000262132ABE9DC4E46D1469A463B460C469B
:104ED0005F469B4601322C44072ACDE92624CAE9C5
:104EE00000B500F310840B9BF61A002E0AF1080A95
:104EF0007FF7C7AD102E269ADFF818B528DD594682
:104F00002346BB461025DDF83080089C0F4604E0A0
:104F1000103E102E0AF1080A16DD01321033072A5E
:104F2000CDE92623CAE90075F2DD25AA21464046CF
:104F300003F054FD00287FF43EAC103E102EDDE956
:104F400026230DF1C80AE8DC1C463B465F469B461B
:104F500001323444072ACDE92624CAE900B600F319
:104F600046820AF1080A8CE525AA08990C9803F0F4
:104F700035FD00283FF4ADAD1DE425AA08990C9835
:104F800003F02CFD00287FF416AC1F9B279C0DF12D
:104F9000C80A002B40F0CA83069B129A03F0010353
:104FA00013433FF482AD269A159BCAF80030139B39
:104FB000CAF8043001321C44072A2794269200F3D1
:104FC00091840AF1080A129B0E9901321C44072AA7
:104FD000CDE92624CAE900137FF765AD25AA089913
:104FE0000C9803F0FBFC00287FF4E5AB279C0DF147
:104FF000C80A5AE5129A269B012A04F1010403F11A
:1050000001050AF1080640F3B58101230E9ACAF89A
:105010000020072DCDE92654CAF8043000F325837B
:10502000139B159A01351C44072DCDE92654C6E97A
:10503000002300F3268308366B1C1F46B846129FD8
:105040000B9300220023DDE9100106F1080A013F5D
:1050500004F064FC002840F0A1810E9B77600133CE
:105060003C44B8F1070F33602794CDF8988000F3E3
:105070009D8206F1100305F1020856469A46169ADB
:105080007260144421ABB8F1070F2794CDF89880D3
:1050900033607FF70AADA1E7012BDDF818B07FF48C
:1050A00077AC002D08BF0A2C80F03C8101233034FE
:1050B0000B930DF1C7038DF8C740CDF818B00E93D0
:1050C000A7E0102D269A2CDD51462046CA464FF007
:1050D0001008B14617932E460C9C089D04E0103E24
:1050E000102E01F1080116DD0132C94B1030072ADC
:1050F000CDE92620C1E90038F1DD25AA2946204660
:1051000003F06CFC00287FF456AB103E102EDDE956
:10511000262032A9E8DC179B354604464E46D14688
:105120008A460132BA492C44072ACDE92624CAE925
:10513000001500F3B2820AF1080A78E425AA08995A
:105140000C98179303F04AFC00287FF434AB279C9B
:10515000179B0DF1C80A7CE425AA08990C9803F066
:105160003DFC00287FF427AB279C0DF1C80A7FE4A3
:10517000102D269B21DD10260C9FDDF8208004E0F9
:10518000103D102D0AF1080A17DD0133A04A103432
:10519000072BCDE92634CAE90026F1DD25AA4146D0
:1051A000384603F01BFC00287FF405AB103D102DA2
:1051B000DDE926340DF1C80AE7DC0133944A2C44BA
:1051C000072BCDE92634CAE900257FF777AC25AA5D
:1051D00008990C9803F002FC00287FF4ECAA279CA5
:1051E0006CE4DDF850C032AA230904F00F0043EA52
:1051F000057329091C460D461CF8003002F8013DD4
:1052000054EA0503F0D132AB9B1A0E92CDF818B0D8
:105210000B930B9BB342B8BF3346079300230F9306
:10522000FFF780BB1F9B002B40F346820F9B129A17
:105230009342A8BF1346002B1D460EDD269B0E9AF7
:10524000CAF8002001332C44072B2794CAF80450D5
:10525000269300F396830AF1080A0F9B002DA8BF3E
:105260005B1B002B1D4600F3C8811F9A129B9A42BC
:1052700080F29081269B1599CAF800101399CAF8FC
:10528000041001330C44072B2794269300F3098361
:105290000AF1080A0F99129B9142A3EB020380F2D4
:1052A000E0811D46002D10DD269ACAF80450DDE984
:1052B0000E10013201442C44072ACAF80010CDE92F
:1052C000262400F36A830AF1080A002DACBF5D1B97
:1052D0001D46002D7FF7E9AB102D269ADFF834B17B
:1052E00040F3FB8110260C9FDDF8208005E00AF1D9
:1052F000080A103D102D40F3F08101321034072AC6
:10530000CDE92624CAE900B6F1DD25AA4146384692
:1053100003F064FB00287FF44EAADDE926240DF19A
:10532000C80AE6E732ABCDF81890C146B0461E4633
:1053300001E004460D460A2200232046294604F0D7
:10534000ADFB303206F8012D00230A222046294603
:1053500004F0A4FB002D08BF0A2CEAD232460E96B8
:105360004646C846DDF81890CDF818B032AB9B1A07
:105370000B934EE7069AD0073FF547AE01220E99F0
:10538000CAF80010072DCDE92654CAF8042000F30E
:105390000D8103F102080AF1100A70E6002F7FF771
:1053A0006EAE102FDFF86CB040F3A58323464FF0AC
:1053B0001008DDF830A0089C0B9D05E00836103F72
:1053C000102F40F3F68101351033072DCDE9265318
:1053D000C6E900B8F2DD25AA2146504603F0FEFAE0
:1053E00000287FF4E8A9DDE9265332AEE7E725AAD5
:1053F00008990C9803F0F2FA00287FF4DCA9279CA6
:105400000DF1C80AFFF73DBB0025FFF73CBA00BF0E
:1054100090B80008A0B800084C46FFF72DB9069BCD
:10542000DE073FF5D5ACFFF740BB32AB0E93F0E69D
:10543000099912680D93CD1708462946C2E9000163
:10544000FFF7EEB8DDE9100102460B4604F098FACA
:10545000002840F02783741C27F0200500F0AC8260
:10546000472D00F03B82DDE910014BF480720029EA
:105470000692C0F20F829DED107B8DED1A7B00230A
:105480001793662F00F0B281462F00F0AF81452DB3
:1054900000F0428223A820A91FAA0223CDE903100D
:1054A000029200930196DDE91A230C9800F0E8FCC3
:1054B000672F0E90344640F03F821BF0010F40F002
:1054C0003E821F9A239B0F920E9A472DA3EB020355
:1054D000129306D10F9BD81C02DB9E4280F24382BE
:1054E000023F0F9B8DF884705A1E002A1F92B6BF90
:1054F000C3F101022B232D23092A8DF8853040F3B7
:10550000C0820DF193042046B44D01E008461A46CE
:1055100085FB0231D317C3EBA10303EB8301A2EB9D
:1055200041013031632A00F8011C00F1FF31EDDC4C
:105530003033821EDBB2944201F8013C40F2E88233
:105540000DF1860201E011F8013B02F8013B8C42AB
:10555000F9D10DF195030DF186021B1A134421AA0E
:105560009B1A1693129A169B012A13440B9340F32D
:10557000A6820B9B139A13440B9323EAE3730793BE
:1055800000230F936CE18B468BE540420A900D930C
:10559000FFF749B9069BDD073FF56CAE0F99129BEB
:1055A0008A42A3EB02035CDD1D468EE625AA08991C
:1055B0000C9803F013FA00287FF4FDA8DDE92634E7
:1055C0000DF1D00A03F1010832AE58E525AA089979
:1055D0000C9803F003FA00287FF4EDA8279C0DF146
:1055E000C80A05E4062E334628BF06230B9307930B
:1055F0007B4B0D940E93FFF704BA102B269ADFF81D
:10560000E8B140F3368110260C9FDDF8208005E0DC
:105610000AF1080A103D102D40F32B81013210349D
:10562000072ACDE92624CAE900B6F1DD25AA4146BC
:10563000384603F0D3F900287FF4BDA8DDE926241D
:105640000DF1C80AE6E70E9ACDF818B032AB9B1AF6
:105650000B93DEE50D9A12680D93099B1360FEF71C
:10566000DFBF129A0F99551A1CE625AA08990C98C3
:1056700003F0B4F900287FF49EA8DDE9265432AE89
:10568000CEE425AA08990C9803F0A8F900287FF425
:1056900092A8DDE9265432AECEE425AA08990C98EA
:1056A000179303F09BF900287FF485A8279C179B8C
:1056B0000DF1C80AFFF7BBB9269A4A49CAF800108B
:1056C000013201340121072ACDE92624CAF8041049
:1056D0003FF753AC0AF1080A5BE401322C44072A75
:1056E000CDE92624CAE900B57FF7DDA976E425AA2D
:1056F00008990C9803F072F900287FF45CA80DF16A
:10570000C80AFFF75FBB25AA08990C9803F066F951
:1057100000287FF450A8279C0DF1C80AFFF7ACB908
:10572000012BDDF818B07FF433A9BFE4269A159950
:10573000CAF800101399CAF8041001320C44072A61
:105740002794269200F3CE800AF1080A002BBFF6B8
:105750003AAC5D421033DFF890B080F27B815F4657
:105760001026DDF82080DDF830B005E00AF1080AE7
:10577000103D102D40F36D8101321034072ACDE920
:105780002624CAE90076F1DD25AA4146584603F0F1
:1057900025F900287FF40FA8DDE926240DF1C80AB9
:1057A000E6E70E98FEF78CFE2E4603460B90FFF7B9
:1057B000B0B81C4605F1010806F108023C44B8F1F6
:1057C000070F2794C6E900B7CDF898803FF7EEAEF3
:1057D00008F1010802F1080A164650E46766666699
:1057E00084B800088CB80008A0B8000823A820A935
:1057F0001FAA0323CDE90310029200930196DDE96D
:105800001A230C9800F03CFB0E900E9B1B78302B5B
:1058100000EB060456D01F9B1C4400220023DDE948
:105820001A0104F07BF8002800F08C8023460E9AC1
:105830009B1A1293472D1F9B0F933FF44BAE662F7D
:105840007FF44FAE0F9A0BF00103002A43EA0603E0
:1058500040F34481002B40F01D810F9B07930B9375
:10586000179B002B7AD02D238DF877300026FFF779
:105870005CB801322C44072ACDE92624CAE900B5D8
:105880003EDC0AF1080AF0E44FF02D088DF877802D
:10589000FFF792B901F100431B932D231A90179340
:1058A000EFE525AA08990C9803F098F800287EF4F3
:1058B00082AF1F9A279C0DF1C80AEBE48DF8771090
:1058C000FFF71BBA00220023DDE91A0104F026F8D5
:1058D0000028A0D1C6F101031F939DE7002E08BF49
:1058E0000126C0E525AA08990C9803F077F800284E
:1058F0007EF461AF1F9BDDE926240DF1C80A25E780
:1059000025AA08990C9803F069F800287EF453AF93
:10591000279C0DF1C80AA8E423A820A91FAA0223E6
:10592000741CCDE90310029200930194DDE91A235F
:105930000C9800F0A5FA0E90472F3FF4BEAD0E9BD9
:105940001C446AE7239BA342BFF471AF30215A1C69
:1059500023921970239B9C42F9D868E79DF87780C1
:10596000179EFEF7DFBF0F9B12998B4231DB1BF0B6
:10597000010F40F0AA8023EAE37207920B93672796
:105980006EE725AA08990C9803F028F800287EF401
:1059900012AF279C0DF1C80A5FE425AA08990C985C
:1059A00003F01CF800287EF406AF1F9B129A279C78
:1059B000D31A0DF1C80A88E4062654E507960B961B
:1059C0000D940646CDF818B00F909DF87780FEF73D
:1059D000A9BFDDE9123213440F9A0B93002A06DCAB
:1059E0000F9B0B9AC3F101031A4413460B9223EA4F
:1059F000E3730793672733E78DF87710FFF771B8E4
:105A00008DF87710FFF77FB88DF87710FFF7A5B8FE
:105A10008DF87710FEF790BF8DF87710FFF7DEB89E
:105A20008DF87710FFF7F1B88DF87710FEF745BFC6
:105A30008DF87710FFF7FFB88DF87710FEF716BFD7
:105A40008DF87710FFF777B84FF0FF330993FEF723
:105A5000B7BEBB4601322C44072ACDE92624CAE949
:105A600000B57FF7AEAA25AA08990C9802F0B6FFF8
:105A700000287EF4A0AEDDE926240DF1C80AFFF768
:105A8000A2BA302330328DF8863004238DF8872077
:105A9000169367E5139BD31833440B9323EAE37300
:105AA0000793DDE6119B204A002BB6BF4FF02D086F
:105AB0009DF877808DF877801C4BFFF77FB81BF03F
:105AC00001020F927FF455ADE8E70F9B139A134440
:105AD0000B9323EAE37307936727C1E61BB90123FE
