:020000040800F2
:1000000000800120450E0008910E0008910E0008A6
:10001000910E0008910E0008910E000800000000EB
:10002000000000000000000000000000910E000829
:10003000910E000800000000910E0008910E0008CB
:10004000910E0008910E0008910E0008910E000814
:10005000910E0008910E0008910E0008910E000804
:10006000910E0008910E0008910E0008910E0008F4
:10007000910E0008910E0008910E0008910E0008E4
:10008000910E0008910E0008910E0008000000007B
:10009000000000000000000000000000910E0008B9
:1000A000910E0008910E0008910E0008910E0008B4
:1000B000910E0008910E0008910E0008910E0008A4
:1000C000910E0008910E0008910E0008910E000894
:1000D000910E0008910E0008910E0008000000002B
:1000E000910E0008910E0008910E0008000000001B
:1000F000000000000000000000000000910E000859
:1001000000000000910E0008910E0008910E0008FA
:1001100000000000000000000000000000000000DF
:10012000910E0008910E0008910E0008910E000833
:10013000910E000800000000000000000000000018
:10014000000000000000000000000000910E000808
:10015000910E0008910E0008910E0008910E000803
:10016000910E0008910E0008000000000000000041
:10017000000000000000000000000000000000007F
:1001800000000000910E00080000000000000000C8
:10019000910E0008044B05481B1A062B02D9044B8C
:1001A00003B11847704700BF5B0B0020580B0020BD
:1001B0000000000005490648091A891001EBD171B9
:1001C000491002D0034B03B118477047580B002069
:1001D000580B00200000000010B5064C237843B9EE
:1001E000FFF7D8FF044B13B10448AFF3008001239D
:1001F000237010BD580B0020000000000899000873
:1002000008B5084B1BB108480849AFF300800848FF
:10021000036813B9BDE80840CCE7064B002BF9D0C2
:100220009847F7E700000000089900085C0B0020E1
:10023000540B002000000000134B002B08BF114B93
:100240009D46A3F5803A00218B460F461148124A7D
:10025000121A02F0B1FB0D4B002B00D098470C4B4B
:10026000002B00D098470020002104000D000B480F
:1002700000F02FFA02F01CFA2000290000F090FB99
:1002800000F024FA000008000080012000000000B7
:1002900091090008580B0020D80D002009260008FD
:1002A0000020704730B5036891FAA1F4B4FA84F4E1
:1002B00091FAA1F10325B1FA81F1640005FA04F481
:1002C000490023EA040302FA01F11943016030BD39
:1002D0007FB50023072855D8DFE800F00413202D50
:1002E0003A54544700932A4B2A481A6B42F00102B1
:1002F0001A631B6B03F001030093009B07B05DF8CA
:1003000004FB0193224B24481A6B42F002021A6349
:100310001B6B03F002030193019BEFE702931C4B5D
:100320001E481A6B42F004021A631B6B03F00403AD
:100330000293029BE2E70393154B19481A6B42F0B4
:1003400008021A631B6B03F008030393039BD5E7B2
:1003500004930F4B13481A6B42F010021A631B6B85
:1003600003F010030493049BC8E70593084B0E4861
:100370001A6B42F080021A631B6B03F08003059333
:10038000059BBBE7094801F063FF0020B6E700BF0B
:100390000038024000000240000402400008024011
:1003A000000C024000100240001C02403090000887
:1003B000431C10B5044604D176220649064801F0D4
:1003C0007DFE2046002100F00FFB04F00F04012009
:1003D000A04010BD51900008AB90000870B50446D5
:1003E0004B1C0E46218216D0C1F30310FFF770FF9D
:1003F00005463046FFF7DCFF238A074A656103F0B4
:100400000F03206052F82330A36105F11003183563
:100410006360A560E56070BDCC910008B0F9100084
:1004200000F07ABB0A4619B981694069FFF73ABF03
:100430000122F9E708B501F0FBFA002008BD000031
:1004400008B50A4B1B684BB101F0BCFB01F0F2FD93
:100450004FF47A72002307F0D1FC08BD01F048FB8D
:100460004FF47A73B0FBF3F008BD00BF740B0020AB
:1004700010B588B001F0FEFD052101A801F09EFB3A
:100480000424039B019A1A60962001F02CFF019B23
:10049000049A1B041360962001F025FF013CF0D163
:1004A0000424039B019A1A604FF4C87001F01BFFEB
:1004B000019B049A1B0413604FF4C87001F013FFF2
:1004C000013CEED1DCE7000070B50D46A0B004465B
:1004D00001F0D0FD2B4622468021684603F0C2FD84
:1004E000051E03DC01F0DCFD20B070BD094B1B686C
:1004F00023B903220221084800F0D8FB064E00244D
:100500001DF804103046013400F08AFCA542F7D1F2
:10051000E8E700BF880B0020800C00200FB407B56F
:1005200004A951F8040B0191FFF7CEFF03B05DF869
:1005300004EB04B07047000008B501F027FA00F0A2
:10054000A9FC01F013FA01F021FA024B01221A6012
:1005500008BD00BF740B0020002070470368012213
:100560001B6900211847036800221B6911461847C0
:1005700003681B69184703689B69184703689B6AEF
:10058000184700290CBF6FF01800002070470120A9
:10059000704770476FF01C0070476FF01500704790
:1005A000012070470020704770470000F8B5074EE3
:1005B00015460C468F18BC4205D014F8011B304676
:1005C00000F02EFCF7E72846F8BD00BF800C0020A5
:1005D00038B58DB215F0010405D0084800F0F4FAE2
:1005E000041C18BF0124EB0605D5044800F002FBEB
:1005F00008B144F01004204638BD00BF800C002034
:1006000010B5044602F0ECF8204610BD10B50C46BB
:100610002AB1044800F0F2FB2070012010BD104602
:1006200010BD00BF800C002038B51D46074B03608D
:10063000074B1B68044633B9064800F037FB2946D0
:10064000044800F00DFB204638BD00BFC8900008EC
:10065000880B0020800C002000207047002070478D
:100660000C4A136810B51844EFF30881884205D38B
:10067000094B0C221A604FF0FF3010BD07490C687F
:1006800024B10749096821448842F1D21060184614
:1006900010BD00BF9C020020D40D0020800B002064
:1006A000840B0020074C08B523680546986801F0C4
:1006B00011FF2368D86801F00DFF0DB1FFF7D8FED8
:1006C000FEE700BFD00600200120704708B5FFF705
:1006D000E9FF012070477047704708B5FFF7FBFF3F
:1006E00008BD08B5FFF7F8FF08BD000010B5037896
:1006F00003F00303012B04460CD02BB140F2A952A6
:100700000549064801F0DAFC237843F00203237020
:10071000012010BD002010BD109100086791000855
:1007200010B5037803F00303022B044605D040F212
:10073000B1520549054801F0C1FC237823F00303B9
:1007400043F00103237010BD109100088D91000843
:100750003F2870B504462FDC184D55F820305A1C40
:1007600013D1022811DCFFF779FF034658B9204660
:10077000FFF772FF034630B9114E3378BFF35B8F3A
:10078000DB0704D50F4B45F82430184670BD3046C2
:10079000FFF7ACFF0028F5D04FF4165303220221D7
:1007A0000848FFF741FF3046FFF7BAFF064A0749FE
:1007B0000448FFF789FFE5E70023E6E79C010020F6
:1007C000780B00207C0B002098010020A905000870
:1007D00038B50546FFF7BCFF0B4B002443F8254016
:1007E00030B901F0B1FD092303604FF0FF3038BD8F
:1007F00003685B699847051E04DA01F0A5FD6D42A8
:100800000560F2E7204638BD9C010020FFF7E0BFFD
:1008100038B50C461546FFF79BFF38B901F094FD3B
:10082000092303604FF0FF34204638BD036821469A
:10083000DB682A469847041EF6DA01F085FD64421B
:100840000460EFE708B5131E06DA01F07DFD1623FC
:1008500003604FF0FF3008BD04D0FFF7D9FF40EA36
:10086000E07008BD184608BD38B50C461546FFF7C0
:100870006FFF38B901F068FD092303604FF0FF34C2
:10088000204638BD036821469B682A469847041EC7
:10089000F6DA01F059FD64420460EFE7002A08B57A
:1008A00003DBBDE80840FFF7DFBF01F04DFD162375
:1008B00003604FF0FF3008BD10B5FFF749FF044655
:1008C00028B901F041FD09230360204610BD0368EB
:1008D000DB699847041EF8DA01F036FD64420460D3
:1008E0000024F2E7FFF7E8BF38B50C461546FFF7DE
:1008F0002FFF38B901F028FD092303604FF0FF34C2
:10090000204638BD036821461B692A469847041EC5
:10091000F6DA01F019FD64420460EFE7FFF7E4BF87
:1009200038B50D46FFF714FF044630B901F00CFD51
:10093000092303604FF0FF3038BD0368DB69984737
:10094000002814BF4FF400534FF400436B6023683A
:1009500020469B6A98472861002038BDFFF7E0BF1A
:1009600070477047074B08499A68084810B5043A21
:1009700052F8044F41F8044F8142F9D14FF0005230
:100980009A6010BD00ED00E0FCFFFF1F9001002009
:1009900008B5FFF7E7FFFFF7CFFDFFF7E2FF08BD60
:1009A00008B5FFF7DDFFBDE80840FFF779BC30B5BB
:1009B000C36891FAA1F4B4FA84F491FAA1F1032581
:1009C000B1FA81F1640005FA04F4490023EA040352
:1009D00002FA01F11943C16030BD012A02D0022A96
:1009E00018BF0022FFF7E3BF2DE9F0410E46411C7E
:1009F000044604D13E224449444801F05FFB04F020
:100A00000F08434BC4F3031053F82850FFF760FC62
:100A100006F007070446836895FAA5F1B1FA81F15B
:100A200095FAA5F20320490000FA01F1B2FA82F228
:100A300023EA01035200022101FA02F21343A360E8
:100A400087425AD8DFE807F05E1D021DB8F1070F94
:100A5000C6F303203BD9626A2B0A93FAA3F1B1FAD9
:100A600081F193FAA3F34FF00F0EB3FA83F38900E9
:100A70000EFA01F19B0022EA010200FA03F313438C
:100A800063623B46226895FAA5F0B0FA80F095FAC9
:100A9000A5F14FF0030EB1FA81F140000EFA00F01B
:100AA000490022EA00028B40013F1343012F2360DB
:100AB00005D8636832074CBF2B43AB436360C6F372
:100AC000011229462046BDE8F041FFF786BF226AA1
:100AD00095FAA5F3B3FA83F395FAA5F14FF00F0E4B
:100AE000B1FA81F19B000EFA03F3890022EA0302B6
:100AF00000FA01F313432362C3E767220249054862
:100B000001F0DCFA0023BDE70C920008AB9000086E
:100B1000CC9100084B930008431C70B506460D4667
:100B200004D188221B491C4801F0C8FA06F00F02C4
:100B30001A4BC6F3031053F82240FFF7C9FB04FB1E
:100B400004F2016802EB42030B40B3FBF2F3013BFA
:100B5000012B05D8EB1E022B436809D823434360C1
:100B6000032D08D101222146BDE87040FFF735BFB3
:100B700023EA04034360012DF4D0052D01D0022D9A
:100B800001D10222EFE721460022BDE87040FFF7C5
:100B90000EBF00BF0C920008AB900008CC9100087B
:100BA0000FB407B5064B07491B6805AAD868019220
:100BB00003F0D6F903B05DF804EB04B0704700BF52
:100BC000D0060020649200084368094A9B0182B065
:100BD000D3581A68120706D5002201921A680192AA
:100BE0005A680192019A1868C0F3401002B0704729
:100BF000CC0C00204368034A9B01D3581868C0F30B
:100C0000C0107047CC0C002042681449920110B407
:100C100004685450531882685A60C2689A60026926
:100C2000DA6042691A61026A9A610022DA84DA6142
:100C30009A84DA859A85B0F91A20013206D1082201
:100C40005A6118465DF8044B00F0A9BDB0F91820B0
:100C500001320CBF04220C22F2E700BFCC0C0020B2
:100C600010B581600C46FFF7CFFF28B1214603483D
:100C7000BDE81040FFF794BF10BD00BF64920008AC
:100C8000094B98420BD0A3F54C43984209D003F589
:100C9000504398420CBF02204FF0FF3070470020B5
:100CA00070470120704700BF00100140F0B50E46AC
:100CB00085B0044645493046154600F0DBFF4449FF
:100CC0000746284600F0D6FF0146384600F0ACFF44
:100CD0002060013004D13D223E493F4801F0EEF949
:100CE000022E0CD0032D0AD03849022000F0C2FF9A
:100CF000874202D1394801F0ABFA002700E0012712
:100D0000374B206898424FF0000340D10193354B98
:100D10005A6C42F010025A645B6C03F010030193AA
:100D2000019BFFF7ADFF0028606004DAA422294987
:100D30002D4801F0C3F92549304600F051FF244900
:100D4000284600F04DFF721C03D001213046FFF70A
:100D5000E3FE6B1C03D001212846FFF7DDFE4FF4B4
:100D60001653A3600023E36023616361236226833B
:100D700065832046FFF748FF3FB11C4B1C4801220A
:100D80001A6021464C2201F07DFD05B0F0BD194AE4
:100D900090420BD10293134B1A6C42F400321A6446
:100DA0001B6C03F400330293029BBAE7124A904291
:100DB000B7D103930B4B5A6C42F020025A645B6C20
:100DC00003F020030393039BABE700BFE88F000809
:100DD000A08F00088E920008EA920008069300088F
:100DE00000100140003802403B930008880B0020AF
:100DF000800C0020004400400014014038B54468D5
:100E000005462846FFF7E0FE0028FAD0A401034B70
:100E10001B595868C0F3080038BD00BFCC0C002037
:100E200070B5456806460C463046FFF7E3FE0028DD
:100E3000FAD0AD01024B5B59C4F308045C6070BD8D
:100E4000CC0C0020DFF830D0002103E00B4B5B58C6
:100E5000435004310A480B4B42189A42F6D30A4ACF
:100E600002E0002342F8043B084B9A42F9D300F019
:100E7000D9FCFFF7E1F97047008001208499000850
:100E800098010020580B0020580B0020D80D00209E
:100E9000FEE7704708B50B4B1A6842F400721A60FF
:100EA0001A6842F480621A601A6842F480721A600A
:100EB000032000F009F80F20FFF7BCFAFFF7E9FF65
:100EC000002008BD003C0240074AD36823F4E063D9
:100ED0001B041B0C43F0BF63000243F4003300F417
:100EE000E0600343D360704700ED00E02DE9F3417B
:100EF000044618B9012002B0BDE8F0810368DD079F
:100F000010D42368980758D423681A0700F19A80F0
:100F100023685B0700F1B880A269002A40F01981BC
:100F20000020E8E7A64B9A6802F00C02042A07D0DA
:100F30009A6802F00C02082A0AD15B68590207D5A8
:100F40009F4B1B689A03DCD56368002BD9D1D1E78E
:100F500063689B4DB3F5803F11D12B6843F4803318
:100F60002B60FFF76DFA964D06462B689B03C8D49D
:100F7000FFF766FA801B6428F7D90320BBE7B3F5B7
:100F8000A02F04D12B6843F480232B60E5E72A6867
:100F900022F480322A602A6822F480222A60002B00
:100FA000DFD1FFF74DFA06462B689F03A9D5FFF75F
:100FB00047FA801B6428F7D9DFE7814B9A6812F063
:100FC0000C0F07D09A6802F00C02082A11D15B6856
:100FD0005E020ED47A4B1A68950702D5E268012AA0
:100FE00088D11A68216922F0F80242EAC1021A6027
:100FF0008AE7E268734BB2B101221A60FFF720FA68
:101000006F4D06462B68980707D52B68226923F099
:10101000F80343EAC2032B6076E7FFF711FA801B5F
:101020000228EFD9A9E71A60FFF70AFA644D0646CD
:101030002B6899077FF568AFFFF702FA801B02283B
:10104000F6D99AE76269604B7AB101221A60FFF71C
:10105000F7F95B4D06466B6F9F073FF559AFFFF7FA
:10106000EFF9801B0228F6D987E71A60FFF7E8F945
:10107000534D06466B6F98077FF54AAFFFF7E0F9CF
:10108000801B0228F6D978E74D4B1A6C12F080527B
:1010900028D101921A6C42F080521A641B6C03F042
:1010A00080530193019B0126484D2B68D9051BD520
:1010B000A368434D012B27D12B6F43F001032B670E
:1010C000FFF7BEF93E4D074641F288382B6F9B076C
:1010D00039D5002E3FF420AF394A136C23F08053EA
:1010E000136419E70026DFE72B6843F480732B6055
:1010F000FFF7A6F907462B68DA05D9D4FFF7A0F960
:10110000C01B0228F7D938E7052B04D12B6F43F019
:1011100004032B67D0E72A6F22F001022A672A6FA7
:1011200022F004022A67002BCAD1FFF789F941F2A5
:10113000883807462B6F9807CBD5FFF781F9C01B7E
:101140004045F7D919E7FFF77BF9C01B4045BDD9EA
:1011500013E71B4DAB6803F00C03082B3FF4CAAE3A
:101160001B4E0023022A336034D1FFF769F907468A
:101170002B6899011ED4226AE3691343626A43EA29
:101180008213E26A43EA0263A26A0D4C5208013AF2
:1011900043EA02436B6001233360FFF751F90546D0
:1011A00023689A013FF5BCAEFFF74AF9401B0228BD
:1011B000F6D9E2E6FFF744F9C01B0228D8D9DCE6ED
:1011C0000038024000004742800E47420070004055
:1011D00060004742FFF734F904462B689B017FF516
:1011E0009FAEFFF72DF9001B0228F6D9C5E600BF18
:1011F000134908B58B6803F00C03042B03D0082BAC
:1012000003D0104808BD104808BD4A684B684968BB
:1012100013F4800314BF0C480A48C1F3881118BFA7
:10122000002302F03F02A1FB000106F0E7FD044BA2
:101230005B68C3F3014301335B00B0FBF3F008BD0F
:10124000003802400024F40000127A002DE9F04139
:101250000D46044610B90120BDE8F081444B1A68E0
:1012600002F00F028A4228D321688F072DD4C807C5
:1012700040D43F4B1A6802F00F02954266D32268B1
:1012800051076CD4130707D53A4A2169936823F4B0
:10129000604343EAC1039360FFF7AAFF354B364A28
:1012A0009B68C3F30313D35CD840344B18600F2002
:1012B000FFF7C0F80020BDE8F081CAB21A701B68C1
:1012C00003F00F039942C6D1CEE72A4B11F0040F69
:1012D0001EBF9A6842F4E0529A600E0742BF9A68B5
:1012E00042F460429A609A68A06822F0F0020243D9
:1012F0009A60BCE762681F4B012A1DD11B6813F47A
:10130000003FA8D01B4EB36823F003031343B36020
:10131000FFF796F841F288380746B368626803F031
:101320000C03B3EB820FA4D0FFF78AF8C01B404533
:10133000F3D90320BDE8F081911E01291B6802D872
:1013400013F0007FDDE713F0020FDAE7EAB21A705C
:101350001B6803F00F039D427FF47DAF8FE70549C3
:10136000E0688B6823F4E05303438B608AE700BF97
:10137000003C02400038024061930008A0020020B7
:10138000044B054A9B68C3F38223D35C034A10686D
:10139000D84070470038024071930008A002002036
:1013A000044B054A9B68C3F34233D35C034A10687D
:1013B000D84070470038024071930008A002002016
:1013C0000F2303600B4B9A6802F0030242609A6895
:1013D00002F0F00282609A6802F4E052C2609B68F8
:1013E000DB0803F4E0530361034B1B6803F00F03B6
:1013F0000B60704700380240003C0240704700001C
:10140000224A036890420ED0B0F1804F0BD0A2F573
:101410007C42904207D002F58062904203D002F5F0
:101420008062904219D14A6823F070031343174A2F
:10143000904204D1CA6823F44073134318E0B0F11A
:10144000804FF7D0124A9042F4D002F58062904269
:10145000F0D002F580629042ECD00E4A9042E9D082
:1014600002F580629042E5D002F580629042E1D0C0
:1014700003608B68C3620B688362044B984204BFAD
:101480000B69036301234361704700BF0000014003
:10149000000400400040014010B50446A0B190F89F
:1014A000393003F0FF021BB980F83820FFF7A6FFA0
:1014B000022384F839302068211DFFF7A1FF0123A2
:1014C00084F83930002010BD012010BD036A10B52A
:1014D00001248C4023EA04030362036A8A401A430E
:1014E000026210BD10B5044600220068FFF7EEFF4F
:1014F0002368104A93420DD1196A41F21112114228
:1015000008D1196A40F24442114202BF5A6C22F4D7
:1015100000425A64196A41F21112114208D1196A43
:1015200040F24442114202BF1A6822F001021A60DE
:10153000002010BD0000014010B5044601220068E3
:10154000FFF7C4FF2368064A934202BF5A6C42F475
:1015500000425A641A6842F001021A60002010BD6D
:1015600000000140FFF7E8BF2DE9F0470668C268B8
:101570003369C16923F440531343336104468368DC
:101580000069F2680343606922F41642034322F0C3
:101590000C020B431343F3607369A26923F4407395
:1015A0001343B1F5004F73617A4B7CD19E4203D057
:1015B00003F580639E4244D1FFF7F2FE192505FB37
:1015C00000F360684FF064094000B3FBF0F3B3FB35
:1015D000F9F34FEA0318FFF7E3FE636868435B0023
:1015E000B0FBF3F7FFF7DCFE636868435B00B0FB1A
:1015F000F3F3B3FBF9F309FB1373DB003233B3FBF3
:10160000F9F35B0003F4F877FFF7CAFE62686843FA
:101610005200B0FBF2FAFFF7C3FE636868435B0059
:10162000B0FBF3F3B3FBF9F309FB13A3DB00323395
:10163000B3FBF9F303F0070343443B44B360BDE855
:10164000F087FFF79DFE192505FB00F360684FF05A
:1016500064094000B3FBF0F3B3FBF9F34FEA03185E
:10166000FFF78EFE636868435B00B0FBF3F7FFF79C
:1016700087FE636868435B00B0FBF3F3B3FBF9F3E9
:1016800009FB1373DB003233B3FBF9F35B0003F4A4
:10169000F877FFF775FE626868435200B0FBF2FA14
:1016A000FFF76EFEB9E79E4202D03B4B9E4240D10F
:1016B000FFF776FE676819254FF0640905FB00F314
:1016C000BF00B3FBF7F3B3FBF9F31F01FFF768FEAD
:1016D000636868439B00B0FBF3F8FFF761FE636843
:1016E00068439B00B0FBF3F3B3FBF9F309FB1383EF
:1016F0001B013233B3FBF9F303F0F008FFF750FEA0
:10170000626868439200B0FBF2FAFFF749FE636833
:1017100068439B00B0FBF3F3B3FBF9F309FB13A39E
:101720001B013233B3FBF9F303F00F0343EA080361
:1017300083E7FFF725FE676819254FF0640905FB6D
:1017400000F3BF00B3FBF7F3B3FBF9F31F01FFF79F
:1017500017FE636868439B00B0FBF3F8FFF710FEC9
:10176000636868439B00B0FBF3F3B3FBF9F309FB39
:1017700013831B013233B3FBF9F303F0F008FFF7D7
:10178000FFFD626868439200B0FBF2FAFFF7F8FDD4
:10179000BDE700BF0010014000140140704710B5C4
:1017A000044640B390F8393003F0FF021BB980F8CB
:1017B0003820FFF7F3FF2268242384F83930D368F8
:1017C00023F40053D3602046FFF7CEFE23681A6946
:1017D00022F490421A615A6922F02A025A61DA68A8
:1017E00042F40052DA6000202023E06384F83930AC
:1017F00084F83A3010BD012010BD7FB50F2301934E
:10180000022100234FF4805201A802910393049215
:101810000593FFF71BFDB0FA80F0400907B05DF8B3
:1018200004FB00000F49D1F8883043F47003C1F87D
:1018300088300D4B1A68002042F001021A6098604F
:101840001A6822F0847222F480321A60074A5A60C1
:101850001A6822F480221A60D8604FF000638B600F
:10186000704700BF00ED00E0003802401030002457
:1018700000B58FB01D4B002100911A6C42F08052D0
:101880001A641B6C1A4A03F080530093009B019169
:10189000136823F4404343F400431360136803F4D4
:1018A00040430193019B01230293C8B94FF4803355
:1018B0000393022308934FF48003099308230A93A8
:1018C0004FF4A8730B9304230C9302A807230D93E2
:1018D000FFF70CFB38B9FFF790FF0FB05DF804FB82
:1018E0004FF4A023E4E70020F7E700BF00380240F0
:1018F0000070004010B58EB000241A4B00941A6C92
:1019000042F080521A641B6C174A03F08053009314
:10191000009B0194136823F4404343F40043136095
:101920001368039403F440430193019B0994032338
:10193000029301230593102306930A934FF4A8738F
:101940000B93042302220C9302A8072308920D9301
:10195000FFF7CCFA18B9FFF750FF0EB010BD2046C4
:10196000FBE700BF003802400070004008B50120CE
:10197000FFF77EFF38B9FFF7BDFF20B90248BDE889
:10198000084000F065BC08BD4D930008174A18498F
:10199000936803F00C03042B10B50DD0082B0DD069
:1019A000144B0B60114B144A9B68C3F30313D25CB6
:1019B0000B68D3400B6010BD104BF2E754685068C1
:1019C00052686302C2F3881200F03F004CBF0B4B19
:1019D000084BB3FBF0F35343044A5268C2F301428D
:1019E00001325200B3FBF2F3DBE700BF00380240E4
:1019F000A00200200024F4006193000800127A0085
:101A0000074B084A13601A69910707D5DA689207ED
:101A100004D56FF002021A6100F0D8B8704700BF19
:101A2000000C0040900D0020004870477C93000897
:101A300030B589B001A903A8FFF7C2FCFFF7A0FCED
:101A4000002302931E4B01901A6C1E4C42F00802B8
:101A50001A641A6C02F008020292029A1A6A42F0A0
:101A600008021A621A6A22F008021A62069AA3F59C
:101A70000B3323604FF0FF33E360134BF2B9B0FB3D
:101A8000F3F00138002560600E482561A5606561AE
:101A9000FFF702FD0D4B0E4A9B680A48C3F8082168
:101AA0000C4B4FF480225A602946FFF75BFD2268F9
:101AB000D36823F00203D36009B030BD4000DEE7F5
:101AC00000380240900D002040420F0000ED00E081
:101AD000011A000800E100E004480268D36823F01E
:101AE0000203D3600021FFF73DBD00BF900D002031
:101AF000014B586A704700BF000C0040054B1B6843
:101B00006FF0020258631A61DA6842F00202DA608A
:101B1000704700BF900D0020064B1B686FF002025B
:101B20001A615A6942F002025A61DA6842F002020E
:101B3000DA607047900D0020034B1A68D36823F0D9
:101B40000203D360704700BF900D0020024B1B685A
:101B50006FF002021A617047900D002008B5002155
:101B60000348FFF7BFFCBDE80840FFF7E5BF00BF33
:101B7000900D002038B504460D4603685AB18268BE
:101B8000136020460121FEF74DFC29462046BDE8A2
:101B90003840FEF743BCC2681B04F1E770B50E463F
:101BA00004461546FEF71AFC013606D02A462046A2
:101BB0000021BDE87040FFF7DDBF70BD0022FFF7D8
:101BC000EDBF00000048704784930008024B1B687B
:101BD0000BB1024818477047A40200208493000804
:101BE00013B5044601300FD102B010BD9C420AD19A
:101BF00020468968FEF7F8FE0021204602B0BDE8C5
:101C00001040FEF789BF0C31B1F900305A1CEDD1FC
:101C10000023009322460249024800F03BFBE3E721
:101C2000DD93000830010180884207B502460BD0E1
:101C3000431C09D001310BD000230649009306480C
:101C400000F028FB4FF0FF31084603B05DF804FBBD
:101C50000146F9E7AC93000830010180B1F900308A
:101C60005A1C01D118467047834201D14868704719
:101C70000C31F3E7421C13B504460BD0FFF7EEFF1F
:101C8000431C044606D1002302460093034904483E
:101C900000F000FB204602B010BD00BFBD9300085D
:101CA000300101802DE9F74FD0F804A09AF83A30BE
:101CB0000446002B46D103685B68984763681B6A3B
:101CC00098423FD0DAF82030DAF80840CAF820000D
:101CD000A0EB0308DAF80C30314808EA0308844224
:101CE00046464FF0000727D0DAE90A239AF83BB0BE
:101CF000A8FB0089CDE900230025BBF1000F2BD004
:101D00005A464046494605F0E7FBDDE9002312EB61
:101D1000080243EB090390465A46994606460F4689
:101D200005F0E6FBB8EB000069EB0101A94208BF32
:101D3000A0420AD2CAE90A01DAE90C23B6185F41C7
:101D4000CAE90C6703B0BDE8F08F013647F1000720
:101D5000001B61EB0501EDE722462B464046494654
:101D600006F04CF8224606460F46404649462B46AA
:101D700006F044F8DDE9008918EB020849EB030995
:101D8000A94508BFA04502D2CAE90A89D4E70136AD
:101D900047F10007B8EB040869EB0509F4E700BF59
:101DA00040420F00824206D98A420BD9884294BF32
:101DB000002001207047884206D98A428CBF00204B
:101DC0000120704701207047002070472DE9F14F36
:101DD000476897F83A300646002B44D197F83930D7
:101DE000002B40D1FFF75EFF75686B68002B59D060
:101DF000D5E90C89D3E90001894508BF804505D3A1
:101E000033685B6901B0BDE8F04F1847D5E9062398
:101E1000B0EB080861EB09094B4508BF42452C6946
:101E200006D3AB68254A934220D1444528BF444697
:101E30002B6A1C44EB681C403B6AA34205D140F26C
:101E400007121F491F4800F039F9336820461B6903
:101E5000984733685B68984722460146386AFFF71F
:101E6000A1FF0028CCD101B0BDE8F08F95F83B2050
:101E7000DFF854A04FF0000B7AB14046494605F018
:101E800037FB10EB0A0041EB0B010C4A002305F075
:101E9000B5FF844228BF0446CAE7A3FB080103FB41
:101EA0000911EEE73B69386AFA68184433681B6920
:101EB000104001B0BDE8F04F184700BF40420F008E
:101EC000EE930008409400083F420F002DE9F04FC8
:101ED000436893F8382085B00546002A6FD193F8FF
:101EE0003A30002B6BD103681B6898472B68DB697D
:101EF0009847066804462EB92C2232493248334EA0
:101F000000F0DCF81F23012202FA03F1B1425FFA6C
:101F100083FB02D0013BF7D19B46D4F804A0AAF181
:101F200004031C2B06D93A222649274800F0C6F89C
:101F30004FF0200AAAF10403072716F1FF3007FA31
:101F400003F7224C4FF0000343F1FF313246C4FB4C
:101F5000070105F053FF6C682A6800232360636063
:101F600052680393CDE90001904720626C684FF0FE
:101F700000084FF000095246C4E90A89A66084F8B7
:101F80003BB00120002105F0B3FADDE90023C4E9EC
:101F90000623039B84F8393084F83A300138012352
:101FA000E06027612846C4E90C8984F83830FFF7DF
:101FB00079FE284605B0BDE8F04FFFF707BF05B032
:101FC000BDE8F08FEE9300084B93000840420F00ED
:101FD00070B5044600F04EF82368DB6898476368E4
:101FE00093F83A201AB1BDE8704000F059B80122C8
:101FF00083F8392063685B68A3B12046FFF752FE7F
:1020000065686E68D5E90C01D6E90023994208BFDE
:10201000904207D3F3686B602B68002BEAD0B0685E
:102020009847E7E76368002283F839202046FFF7E6
:10203000CDFED8E710B50446FFF748FF00F01AF8C8
:102040002046FFF72FFE00F02BF86368D3E90C0160
:1020500010BD08B5FFF7EEFF08BDEFF31080C043D9
:1020600000F001007047EFF30580003018BF012039
:102070007047000010B5074C2368013304D151228A
:102080000549064800F01AF800F032F923680133D8
:10209000236010BDD00B002064940008B9940008A0
:1020A000054B1A6832B11A68013A1A601B680BB9FD
:1020B00000F030B9704700BFD00B002070B5044667
:1020C0000D461646FFF7D6FF33462A4621460348FB
:1020D000FEF724FABDE87040FEF7CAB9EA9400089A
:1020E0002DE9F0411B4C1C4E237836EA200628BF10
:1020F0000646012B8EB00F46904600D1FEE7174DE5
:10210000FFF7B8FF01232370FFF7CAFF2B683422C3
:102110000133002101A82B6000F04EFC2B680196D2
:10212000012BCDF80880039704D1342201A90C4873
:1021300000F0A8FB342201A90A4800F0A3FB0A4BD7
:102140001B680BB107489847002020700EB0BDE80F
:10215000F08100BFDC0B00200101FF80D40B0020C8
:10216000E00B0020140C0020D80B002073B5294C84
:102170002168C1F34173032B0CBF4D428DB2C1F3F3
:1021800007432A4606462448FEF7C8F96FF49873B9
:102190001D44072D09D8DFE805F004272A2D303625
:1021A0003339A1681D48FEF7B9F93046FEF7B6F994
:1021B00061681B48FEF7B2F9A1681A48FEF7AEF94C
:1021C000E3690193A369009304F10C010EC9164859
:1021D000FEF7A4F921681548FEF7A0F9144802B0EB
:1021E000BDE87040FEF79AB9A1681248DBE7A16824
:1021F0001148D8E7A1681148D5E7A1681048D2E78F
:10220000A1681048CFE7A1680F48CCE7A1680F4844
:10221000C9E700BF140C0020309500088195000824
:102220000E9600081E960008319600088096000859
:10223000CC96000896950008A5950008B39500086F
:10224000C5950008D8950008EB950008F995000899
:102250000FB437B50C4D2978724679B90B48FFF7A2
:102260003FFF0B48FFF782FF012407A906982C7057
:102270000191FEF729F92046FEF728FA03B0BDE8E0
:10228000304004B0704700BFDC0B00200001FF802D
:102290001B95000810B50C4611467246FFF720FF4B
:1022A00068B92046FFF762FFFFF7DDFE10B9FFF7C0
:1022B000D4FE08B930BFFDE70120FEF707FA014858
:1022C00010BD00BF0F01FF8070B50446FFF77AFC18
:1022D0000646FFF7BEFE05463046FFF7BAFE401B36
:1022E000A042F9D370BD4FF47A735843FFF7ECBFA7
:1022F000EFF31083DB4372B6044A117829B904491D
:1023000003F001030B70012313707047490C002088
:10231000480C002008B5EFF31083DB0704D4352206
:1023200005490648FFF7CAFE054B00221A70054B07
:102330001B7803B162B608BDE69600084297000814
:10234000490C0020480C0020014B1868704700BF62
:10235000D00600208B899AB22DE9F0410D46110775
:1023600080463CD46A6843F40063002AAB8165DD93
:10237000AE6A002E4BD09BB203F48052002192B281
:10238000D8F80040C8F80010002A5BD02A6D5F071B
:1023900005D569682B6B521A0BB1EB6BD21A40460C
:1023A000E9690023B047461C56D0AB892A692A60E8
:1023B00023F400639BB200226A60DA04AB813BD451
:1023C000296BC8F8004011B305F14003994202D0CF
:1023D000404605F0E5FF00202863BDE8F0812E6946
:1023E000AEB12C682E6091070CBF6B690023A41B53
:1023F000AB600AE0324623466F6AE9694046B84757
:102400000028A4EB0004064404DD002CF2DC0020CC
:10241000BDE8F081AB8943F04003AB814FF0FF3062
:10242000BDE8F081AB892A69696023F400639BB23F
:10243000AB81DB042A60C3D52865C1E7EA6B002ABB
:1024400096DCE4E701234046E969B047431C0246B5
:1024500019D0AB89AE6A9AE7D8F800100029E1D00C
:102460001D2907D0162905D0AB8943F04003AB8165
:10247000BDE8F081AB892A692A6023F40063002259
:10248000AB816A609CE7D8F80030002BE1D01D2BAF
:1024900007D0162B05D0AB8943F04003AB81BDE8D4
:1024A000F081C8F80040B2E710B5044682B008B128
:1024B000836B53B1B1F90C0008B902B010BD2046CE
:1024C00002B0BDE81040FFF745BF019100F092F85F
:1024D0000199EFE720B1054B01461868FFF7E4BF0B
:1024E000034B0449186800F0B9B800BFD0060020BB
:1024F00060970008A9240008014900F0AFB800BFA8
:10250000515100082DE9F04F354B4568C363002455
:10251000074600F53B7204230321C0F8E412C0F81B
:10252000E822C0F8E04283B02C606C60AC606C665E
:10253000EC812C616C61AC61AB81214605F15C00E2
:10254000082200F039FABE68DFF898B0DFF898A0EA
:10255000DFF89890DFF89880C5F820B001230922B1
:10256000C5F824A0C5F82890C5F82C80ED61214657
:10257000F381B28106F15C0034607460B46074660B
:1025800034617461B4610822019300F015FAFD68AA
:10259000F66112200222C6F820B0C6F824A0C6F8C0
:1025A0002890C6F82C802146A881EA812C606C60B6
:1025B000AC606C662C616C61AC6105F15C0008225A
:1025C00000F0FAF9019BED61C5F820B0C5F824A030
:1025D000C5F82890C5F82C80BB6303B0BDE8F08F28
:1025E000F9240008552A0008792A0008B12A0008B1
:1025F000D12A0008836B03B17047FFF783BF00BF88
:10260000704700BF704700BF38B5084B084DED1A42
:10261000AC1018BFED1805D0013C55F8043D9847A3
:10262000002CF9D1BDE8384006F0B4BC500B0020B6
:10263000540B002038B5084C0023054608461146C7
:102640002360FEF78BF9431C00D038BD2368002BB4
:10265000FBD02B6038BD00BFD40D00202DE9F8431E
:1026600010F538771FD0884606464FF000097D6880
:10267000BC68013D11D4A389012B05F1FF3508D9B0
:10268000B4F90E3001332146304602D0C04749EA42
:1026900000096B1C04F16804EDD13F68002FE6D1FE
:1026A0004846BDE8F883B9464846BDE8F88300BF10
:1026B00070B50F4E0F4D761BB61018BF002405D015
:1026C000013455F8043B9847A642F9D10A4E0B4D08
:1026D000761B06F059FCB61018BF002406D0013452
:1026E00055F8043B9847A642F9D170BD70BD00BFB4
:1026F000480B0020480B00204C0B0020480B00200A
:102700008B899AB212F0020F3CD1F0B50C46B1F9A8
:102710000E10002991B0054619DB01AAFFF78AFFC8
:10272000002812DB029B03F47043B3F5004FA3F5BE
:102730000057B7FA87F74FEA57172AD0A38943F40F
:102740000063A3814FF480660BE0A3899AB212F074
:10275000800F43F40063A3810CBF4FF480664026D2
:1027600000272846314605F017FEA38940B31A4AD0
:10277000EA6343F08003A3812060206166619FB912
:1027800011B0F0BD01F1430301220B600B614A61FE
:102790007047124BA26A9A42D0D1A3894FF4806647
:1027A0003343A381E664DCE72846B4F90E1002F057
:1027B00011FD0028E4D0A38943F00103A381DFE7E2
:1027C0009A05DDD404F1430243F002030121A38101
:1027D000226022616161D3E7F9240008B12A000870
:1027E000024B0146186805F0DBBD00BFD006002093
:1027F000830770B4C9B240D0541E002A3FD003787A
:102800008B4218BF431C06D11DE0F4B102788A4206
:1028100004F1FF3417D013F0030F184603F101033E
:10282000F3D1032C14D884B103788B420BD0051953
:10283000431C02E002788A4205D0AB42184603F1FD
:102840000103F7D1002070BC7047204670BC704770
:1028500041EA0126024646EA06461046043203686B
:102860007340A3F1013525EA030313F0803FDAD169
:10287000043C032C1046F0D8D5E71446D1E71046A7
:10288000E1E700BF844641EA000313F003036DD182
:10289000403A41D351F8043B40F8043B51F8043B23
:1028A00040F8043B51F8043B40F8043B51F8043B2A
:1028B00040F8043B51F8043B40F8043B51F8043B1A
:1028C00040F8043B51F8043B40F8043B51F8043B0A
:1028D00040F8043B51F8043B40F8043B51F8043BFA
:1028E00040F8043B51F8043B40F8043B51F8043BEA
:1028F00040F8043B51F8043B40F8043B51F8043BDA
:1029000040F8043B51F8043B40F8043B51F8043BC9
:1029100040F8043B403ABDD2303211D351F8043B69
:1029200040F8043B51F8043B40F8043B51F8043BA9
:1029300040F8043B51F8043B40F8043B103AEDD218
:102940000C3205D351F8043B40F8043B043AF9D269
:10295000043208D0D2071CBF11F8013B00F8013B3C
:1029600001D30B8803806046704700BF082A13D349
:102970008B078DD010F003038AD0C3F10403D21A61
:10298000DB071CBF11F8013B00F8013B80D331F895
:10299000023B20F8023B7BE7043AD9D3013A11F815
:1029A000013B00F8013BF9D20B7803704B78437080
:1029B0008B7883706046704770B4840746D0541E8D
:1029C000002A41D0CDB2034602E0621EE4B31446B1
:1029D00003F8015B9A07F8D1032C2ED9CDB245EA52
:1029E00005250F2C45EA054519D903F110022646A5
:1029F000103E0F2E42F8105C42F80C5C42F8085C66
:102A000042F8045C02F11002F2D8A4F1100222F0A4
:102A10000F0204F00F041032032C13440DD91E468C
:102A20002246043A032A46F8045BFAD8221F22F011
:102A300003020432134404F003042CB1C9B21C4451
:102A400003F8011BA342FBD170BC70471446034638
:102A5000C2E700BF10B50C46B1F90E1002F0E2FE5D
:102A6000002803DB236D0344236510BDA38923F4F1
:102A70008053A38110BD00BF2DE9F04116468A891D
:102A80001D46D3050C46074606D50022B1F90E10A7
:102A9000022302F0BFFBA289B4F90E1022F4805287
:102AA000A281384632462B46BDE8F04101F0EABA31
:102AB00010B50C46B1F90E1002F0ACFBA389421C14
:102AC0000EBF23F4805343F480532065A38110BDCF
:102AD000B1F90E1001F04CBB20F0030110F003001F
:102AE000C0F1000051F8043B00F1040C4FEACC0C9B
:102AF0006FF000021CBF22FA0CF213434FF0010CDE
:102B00004CEA0C2C4CEA0C4CA3EB0C0222EA03021C
:102B100012EACC1204BF51F8043B0430F4D0C2F1E5
:102B2000000102EA0102B2FA82F2C2F11F0200EBD6
:102B3000D2007047000000002DE9F04FC1B01C46E4
:102B400089460892074602F061FB03681593184610
:102B5000FFF7C2FF0C9416901FB1BB6B002B00F067
:102B6000F380B9F80C2093B29E040AD4D9F864100B
:102B700042F4005321F40051A9F80C30C9F8641054
:102B80009BB21D0740F1AA80D9F81020002A00F05E
:102B9000A58003F01A030A2B00F0AC809FED6E7B3A
:102BA00000238DED127B1193259324931493179397
:102BB000099330AB23931C46B846089D2B78002B15
:102BC00000F0C680252B02D1C2E0252B03D015F8DA
:102BD000013F002BF9D1089BEE1A7EB1249B259A68
:102BE0000899216001333244072B666025922493B3
:102BF00000F393800834099B334409932B78002B0E
:102C000000F093800023691C4FF0FF3A6D788DF837
:102C10006F301A460A93069356464B1CA5F12001C5
:102C2000582900F2CD83DFE811F05C02CB03CB031F
:102C30000203CB03CB03CB03CB03CB03CB030903AF
:102C4000D202CB03F8015303CB03D602DD02DD022F
:102C5000DD02DD02DD02DD02DD02DD02DD02CB038D
:102C6000CB03CB03CB03CB03CB03CB03CB03CB03F4
:102C7000CB0371029302CB039302CB03CB03CB03B1
:102C8000CB03CB02CB03CB036E03CB03CB03CB0332
:102C9000CB03CB03B503CB03CB038B03CB03CB031A
:102CA000CB03CB03CB03CB03CB03CB03CB03CB03B4
:102CB000A003170393029302930230031703CB037D
:102CC000CB033703CB034103FF01EC026302CB03C9
:102CD0001102CB039B00CB03CB0336023846494697
:102CE00001F0E4F9A0B9B9F80C3003F01A030A2B8B
:102CF0007FF454AFB9F90E30002BFFF64FAF3846D2
:102D00004946089A234601F037F941B0BDE8F08FF3
:102D10004FF0FF3041B0BDE8F08F4046494623AA4E
:102D200004F066F840B930AC65E7259B23B1404616
:102D3000494623AA04F05CF8B9F80C305A06E7D4E7
:102D4000099841B0BDE8F08F3846FFF753FC08E71B
:102D5000089D53E7AFF30080000000000000000072
:102D60000893069BB2469E0640F11E830C9F0737D0
:102D700027F0070303F10802D3E900670C9201234F
:102D80004FF0000C8DF86FC0CDF83CA0BAF1000FE9
:102D900003DB069A22F08002069256EA070240F010
:102DA0001F83BAF1000F00F01C84012B00F0208378
:102DB000022B00F0528430A9F20842EA4772F80868
:102DC00006F0070307461646303356EA070201F8B5
:102DD000013DF1D1069A0E91D00700F1F98430AB94
:102DE0005B1A0B930B9A92455346B8BF1346079351
:102DF00000231093BCF1000F02D0079B013307930F
:102E0000069B13F002030D9302D0079B0233079336
:102E1000069B13F0840640F0E0820A9B079AC2EBFF
:102E2000030ABAF1000F40F3D882BAF1100F2599C6
:102E3000249AB34FC8BF4FF0100B07DC1EE0AAF175
:102E4000100ABAF1100F04F1080417DD0132103135
:102E5000072A2591249284E88008F0DD40464946FF
:102E600023AA03F0C5FF00287FF466AFAAF1100A79
:102E7000BAF1100F2599249A30ACE7DC01320AEB45
:102E8000010B072ACDF894B0249284E8800400F363
:102E90004A849DF86FC00834BCF1000F0FD0249B0A
:102EA00001330BF1010B0DF16F010122072BCDF85E
:102EB00094B0249384E8060000F3B18308340D9B9A
:102EC00073B1249B01330BF1020B1CA90222072BC7
:102ED000CDF894B0249384E8060000F3AC83083462
:102EE000802E00F0F0820F9B0B9AC2EB030ABAF11E
:102EF000000F32DDBAF1100F249A824F22DD102626
:102F00005B4606E0AAF1100ABAF1100F04F10804BA
:102F100017DD01321033072A25932492276066605B
:102F2000F0DD4046494623AA03F062FF00287FF403
:102F300003AFAAF1100ABAF1100F259B249A30AC06
:102F4000E7DC9B460132D344072ACDF894B02492A3
:102F500084E8800400F357830834069BDB0500F106
:102F60005B82249B0B990E9A226001338B44072BC2
:102F7000CDF894B06160249300F31D830834069B60
:102F800059073AD50A9B079A9D1A002D35DD102D59
:102F9000249B5B4F1EDD10265A4604E0103D102D89
:102FA00004F1080415DD01331032072B2592249318
:102FB00027606660F2DD4046494623AA03F018FF09
:102FC00000287FF4B9AE103D102D259A249B30AC1B
:102FD000E9DC93460133AB44072BCDF894B024933E
:102FE0002760656009DD4046494623AA03F000FFDB
:102FF00000287FF4A1AEDDF894B0099B079A0A99E6
:103000008A42ACBF9B185B180993BBF1000F40F0DC
:10301000DE820023249330ACCFE5194606981D7854
:1030200040F004000690F8E50893069B13F0200397
:10303000B24600F073810C9F073727F0070303F1B6
:103040000802D3E900670C92002399E60C9A0893D2
:1030500013680E934FF0000B8DF86FB0171D002B07
:1030600000F06086002E0E98C0F212865946324655
:10307000FFF7BEFB002800F091860E9BCDF83CB018
:10308000C31A0B930C9723EAE3730793CDF840B070
:103090009DF86FC0AEE608931B4B1493069B8DF80A
:1030A0006F209906B24640F155810C9F073727F0F3
:1030B0000703D3E9006703F108020C92069BDB07C4
:1030C00040F1E48256EA070300F0E082069A8DF8A8
:1030D0007150302342F002028DF8703006920223C4
:1030E0004EE61D781946002A7FF497AD202294E51C
:1030F000069941F0200106911D7819468DE500BF23
:10310000B897000864970008989700080893069BF2
:103110008DF86F2043F010030693069B9806B24685
:1031200040F1A2800C9F073727F00707D7E900235B
:1031300007F108010C9116461F46002A73F100039F
:10314000C0F21C849DF86FC0CDF83CA001231DE6A1
:103150000893069B0C9F8DF86F201B07B246B34661
:1031600007F1070740F19B8427F0070393ED007BED
:103170008DED127B03F108020C92DDE9120102F0E1
:1031800065FB0128DDE9120140F0068400220023DE
:1031900004F0E4FD002840F0EE859DF86FC0069E27
:1031A000994A9A4B0321002026F08006472DD8BF6C
:1031B0001A4607910F9006960E920B91109019E601
:1031C000069941F0080106911D78194625E51D78FC
:1031D00019462B2221E5069941F0800106911D78C0
:1031E00019461AE5A5F13000002113F8015B01EB47
:1031F000810100EB4101A5F130000928F5D90A91C0
:103200000CE50C9908933023069A8DF870300B4624
:103210000433782542F002020C937D4B1493B2469E
:1032200006920E688DF8715000270223A8E50699D2
:1032300041F0010106911D781946EEE40C9D2968C4
:103240000A9108460028294601F10401C0F2EE84E3
:103250000C911D781946E0E40893069B8DF86F20C9
:103260009806B2463FF55EAF069BD90600F19B82F9
:10327000069B5A0640F197820C99B1F9006004311F
:10328000F71732463B460C9157E7069941F040014B
:1032900006911D781946C0E41D7806996C2D00F042
:1032A000BE8441F0100106911946B6E40893069BCE
:1032B0008DF86F209A0640F1FD830C9A09991368E6
:1032C000CF170846043239460C92C3E9000174E472
:1032D0001D782A2D03F1010100F02C86A5F13000A4
:1032E00009280B464FF000063FF698AC13F8015B37
:1032F00006EB860600EB4606A5F130000928F5D955
:1033000046EAE6768AE40893069B43F010030693A8
:10331000069B13F02003B2467FF48DAE069A12F09E
:10332000100240F03882069B13F0400300F0338215
:103330000C9913460A4604320E880C9200271FE5AA
:103340000893344B1493069B8DF86F209906B24670
:103350003FF5ABAE069BDA0640F1D1830C9A1346DB
:10336000043316680C930027A8E60C9908930A68A2
:103370008DF898200023012204319C4607920C917D
:103380008DF86F3026ABCDF83CC0CDF840C00B9225
:103390000E9335E50893069B43F010030693069BB6
:1033A000B2469E063FF5E2AC069BD80640F19983F3
:1033B0000C9A134604321E680C9201230027DFE4A6
:1033C00008938DF86F20002D3FF4AFAC002301224D
:1033D0009C4607928DF89850D2E7DDF894B05BE5F3
:1033E000012B7FF4E5AC002F08BF0A2E80F0FF818F
:1033F0000DF5807B30360BF8416D30ABCBEB030322
:103400000B93CDF838B0EDE4789700087497000876
:103410009897000884970008652D40F38A80DDE9BD
:1034200012010022002304F08FFC002800F03181FB
:10343000249BAE4A226001330BF1010B0122072BC2
:10344000CDF894B02493626000F3728308341D9B1E
:10345000119A934203DB069BDF077FF590AD249B17
:103460001699159A226001338B44072BCDF894B03E
:103470006160249300F3E1830834119B5D1E002DED
:103480007FF77DAD102D249B994F40F39681102638
:103490005A4604E00834103D102D40F38D8101336D
:1034A0001032072B2592249327606660F2DD404698
:1034B000494623AA03F09CFC00287FF43DAC259AE2
:1034C000249B30ACE7E70A9B079A9E1A002E7FF7F1
:1034D0000AAD102E249A864F1FDD4FF0100A5B466E
:1034E00004E0103E102E04F1080415DD0132103303
:1034F000072A2593249284E88004F2DD4046494659
:1035000023AA03F075FC00287FF416AC103E102EA1
:10351000259B249A30ACE9DC9B460132B344072A50
:10352000CDF894B024922760666000F31A820834C4
:10353000D9E4119B249D012B40F3D5810E9B236080
:1035400001350BF101060123072D259624956360B3
:1035500000F3E5810834169A159B23600135164463
:10356000072D25962495626000F3EF81083400232F
:10357000DDE91201002204F0E7FB119B002840F076
:10358000E1800E9A013B013501321E44072D24953E
:1035900025962260636000F3B6810834179A626052
:1035A000013506EB020B1FAB072DCDF894B0249527
:1035B00023607FF7E3AC4046494623AA03F018FC9A
:1035C00000287FF4B9ABDDF894B030ACD7E44046C6
:1035D000494623AA03F00CFC00283FF41AADFFF77C
:1035E000ABBB002B33D1069BDA0730D50DF5807BC2
:1035F00030230BF8413D30ABCBEB03030B93CDF8FD
:1036000038B0FFF7EFBB4046494623AA03F0F0FB72
:1036100000287FF491ABDDF894B030AC9DE44046D7
:10362000494623AA03F0E4FB00287FF485ABDDF8CC
:1036300094B030AC43E44046494623AA03F0D8FB9B
:1036400000287FF479ABDDF894B030AC48E430ABBF
:10365000CDF82CA00E93FFF7C5BB14980DF1C00B4D
:10366000330906F00F0143EA07733A091E4617466D
:10367000435C0BF8013D56EA0703F1D15A4630ABE3
:103680009B1ACDF838B00B93FFF7ACBB0223FFF7C2
:1036900077BB1D9D002D40F35782119A10998A42E5
:1036A0001346A8BF0B461D460E99002D01EB020ADA
:1036B0000BDD249B21600133AB44072BCDF894B084
:1036C0006560249300F30B830834109B002DA8BF82
:1036D0005B1B002B1D4640F3B080102D249B044F34
:1036E00040F31A8210265A4609E000BFB49700083A
:1036F000649700080834103D102D40F30C8201330C
:103700001032072B2592249327606660F2DD404635
:10371000494623AA03F06CFB00287FF40DAB259AE1
:10372000249B30ACE7E74046494623AA03F060FB00
:1037300000287FF401AB9DF86FC0DDF894B030AC89
:10374000FFF7AABB03F1FF3ABAF1000F7FF726AFEC
:10375000BAF1100F8F4FC8BF4FF0100B07DCEAE033
:103760000834AAF1100ABAF1100F40F3E4800135D1
:103770001036072D2596249584E88008F0DD404614
:10378000494623AA03F034FB00287FF4D5AA259EDE
:10379000249D30ACE5E70C990A4604320E680C9281
:1037A0000027FFF7EDBA0C9A166813460433F71793
:1037B0000C9332463B46C0E493460133AB44072B9F
:1037C000CDF894B02493276065607FF7D7ABF2E61D
:1037D000302B00F03E820E9B013B1A4630A80E9320
:1037E000821A30230B9201F8013CFFF7FBBA0DF16E
:1037F000C00BCDF81CC0304639460A22002304F025
:10380000FDFA3032304639460BF8012D00230A22EA
:1038100004F0F4FA06460F4656EA0703EBD1DDF84A
:103820001CC02BE74046494623AA03F0E1FA0028D2
:103830007FF482AADDF894B030AC0E9A10991D9BEB
:103840000A441646119A93423EDB069AD5073BD4AA
:10385000119AC6EB0A05D31A9D42A8BF1D46002D3A
:103860002F460BDD249A26600132AB44072ACDF89F
:1038700094B06560249200F368820834002FACBFD6
:10388000DD1B1D46002D7FF77AAB102D249B414F89
:1038900093DD10265A4603E00834103D102D8BDDD1
:1038A00001331032072B2592249327606660F3DDE5
:1038B0004046494623AA03F09BFA00287FF43CAA1D
:1038C000259A249B30ACE8E7249A16981599216034
:1038D00001328344072ACDF894B06060249200F34B
:1038E0000A820834B4E7069BD8073FF527AE0E9B43
:1038F000236001350BF101060123072D2596249540
:1039000063607FF74AAE4046494623AA03F070FA47
:1039100000287FF411AA259E249D30AC3EE6404647
:10392000494623AA03F064FA00287FF405AA259EDD
:10393000249D30AC0FE601355644072D259624957D
:1039400084E880047FF729AEDDE74046494623AA94
:1039500003F04EFA00287FF4EFA9259E249D30AC99
:1039600005E64046494623AA03F042FA00287FF4C0
:10397000E3A9DDF894B030ACFFF7B5BA4FF02D0CE9
:10398000764267EB47078DF86FC0CDF83CA0012366
:10399000FFF7FCB96497000801F058FF002800F019
:1039A000188125F02003BAF1FF3F079300F06482ED
:1039B000472B05D1BAF1000F14BFD3464FF0010BCE
:1039C000139B069A002B42F480720D92C0F264821F
:1039D0009DED127B8DED187B4FF0000A662D00F0F7
:1039E0006081462D00F05D81079B452B0CBF0BF1DC
:1039F00001075F4602201DA91EAA21AB8DE88100A8
:103A00000392049302914046DDE9182300F058FC2C
:103A1000672D0E9002D0472D40F05381069BDB07A7
:103A200040F143820E9BDE19DDE9180100220023DC
:103A300004F08AF9002840F0AF81219B9E4206D90C
:103A400030215A1C21921970219B9E42F9D80E9A5E
:103A50009B1A1193079B472B1D9B00F08581652DB9
:103A600040F3A881662D109300F02182119B109ADB
:103A7000934200F30482069BD90700F13B8222EABD
:103A8000E2730B92BAF1000F40F07B8107930D9B1C
:103A90000693CDF83CA09DF86FC0FFF7ABB927F0B7
:103AA000070797ED007B07F108038DED127B0C9360
:103AB000FFF763BB069BDB060BD4069B5F0608D5AE
:103AC0000C9A136804320C92BDF824201A80FFF778
:103AD00074B80C9A136804320C92099A1A60FFF7B2
:103AE0006CB8069B0C9A13F0400F13463FF462AC7F
:103AF00016880432002701230C92FFF741B9069B78
:103B00000C9A13F0400F134676D0043316880C93AA
:103B10000027FFF7D3BA93460133AB44072BCDF808
:103B200094B02493276065603FF77CAE083484E648
:103B30004046494623AA03F05BF900287FF4FCA81D
:103B4000DDF894B030AC82E4249BB14A22600133AA
:103B50000BF1010B0122072BCDF894B02493626086
:103B600050DC08342DB9119B1BB9069BDE077FF58D
:103B700006AA249B1699159A226001330BEB0102C9
:103B8000072B25926160249300F3698108346D420C
:103B9000002D6FDD102D9F4FC8BF102605DCB7E04C
:103BA0000834103D102D40F3B38001331032072B41
:103BB0002592249327606660F2DD4046494623AA99
:103BC00003F016F900287FF4B7A8259A249B30AC9F
:103BD000E7E7069E904A914B9DF86FC00F90032136
:103BE00026F08006472DD8BF1A46079106961090FA
:103BF0000E920B91FFF7FEB8043316680C93002762
:103C0000FFF75CBA4046494623AA03F0F1F80028C2
:103C10007FF492A81D9DDDF894B030ACA2E741F08E
:103C2000200106915D78591CFEF7F7BF0A980C91A8
:103C300040420A901946FFF7F1B94046494623AA87
:103C400003F0D6F800287FF477A8DDF894B030AC04
:103C500013E40E9A30AB9B1A0B93FFF7C3B84046A0
:103C6000494623AA03F0C4F800287FF465A8259AE2
:103C7000249B30AC11986060013302EB000B072BE2
:103C80000E9ACDF894B0249322607FF777A992E43E
:103C9000CDF83CB0FEF720FF0C970B900346FFF7E2
:103CA000F2B903201DA91EAA21AB8DE801080392D9
:103CB000049302914046DDE9182300F001FB5F46C2
:103CC0000E900E9BDE19079B462B7FF4ADAE0E9B2C
:103CD0001B78302B00F000811D9F3E44A4E6404637
:103CE000494623AA03F084F800287FF425A8DDF8CC
:103CF00094B030ACE9E44046494623AA03F078F892
:103D000000287FF419A81D9BDDF894B030AC9FE526
:103D100001332A44072B25922493276065609EDC9B
:103D20000834A7E7062E334628BF06230B9323EA61
:103D3000E373DDF838C00793394B0C97CDF83CC0DE
:103D4000CDF840C00E93FFF755B84046494623AA28
:103D500003F04EF800287EF4EFAF1D9B119ADDF8BA
:103D600094B0D31A30AC89E5DF1C22DB9B4520DB05
:103D7000109367257AE64FF02D0C8DF86FC0FFF792
:103D80000EBA07930D9B06934FF02D0C00238DF870
:103D90006FC00F93FFF731B8334658E626EAE67353
:103DA0000F900C9710909DF86FC007930B96FFF73C
:103DB00021B8023D013B002B1D93BABF5B422D226F
:103DC0002B22092B8DF87C508DF87D2040F39880B4
:103DD0000DF18B063046134A82FB0321DA17C2EB42
:103DE000A10202EB8201A3EB410303F13001092A96
:103DF000134600F8011DEEDC02463033D9B202F85A
:103E0000011D964240F2A9800DF17E0203460DE0AD
:103E1000B497000864970008809700087C97000812
:103E2000AC9700086766666613F8011B02F8011B71
:103E3000B342F9D123AB1B1A0DF17E0213441FAA22
:103E40009B1A119A1793012A13440B9369DD0B9B5C
:103E5000002201330B93109223EAE37312E64046EB
:103E6000494623AA02F0C4FF00287EF465AF1D9DD9
:103E7000259A249B30AC8AE64FF0060BA0E5109BF8
:103E8000002BD8BFC3F10206119BC8BF0126F3184F
:103E90000B9323EAE373F5E5DDE9120101F1004339
:103EA000189019934FF02D0A98E5219BCFE5002B30
:103EB0002EDDBBF1000F07D1069BDE0704D4109A5C
:103EC0000B9222EAE273DDE5109B0BF1010633440D
:103ED0000B9323EAE373D5E5DDE918010022002303
:103EE00003F032FF00287FF4F7AEC7F101071D97FA
:103EF0003E4499E5109B01330B9323EAE373C1E53C
:103F0000303330228DF87F308DF87E2020AB96E75D
:103F1000BBF1000F1BD1069BD80718D401230B93CC
:103F2000B0E5069B13F0010391D110930B9B23EA9C
:103F3000E373A7E50C9D2E6828460430002E5D78BB
:103F40000C90BEF66AAE4FF0FF36FEF766BE0BF180
:103F500002030B9323EAE37394E50DF17E036EE70E
:103F600030B4044C0D46134601462A46206830BC46
:103F7000FEF7E2BDD00600202DE9F0420C46ADF57B
:103F80008D6DB1F80CE0E769496EB4F80E901991A7
:103F90001AAD4FF480662EF0020E4FF0000C07971A
:103FA0006946676A0095049502960596ADF80CE09F
:103FB000ADF80E900997CDF818C00646FEF7BCFD87
:103FC000051E07DB30466946FEF76EFA002818BF6B
:103FD0004FF0FF35BDF80C305B0603D5A38943F0E5
:103FE0004003A38128460DF58D6DBDE8F08200BF2A
:103FF00070B5002A9AB005462FDB14461A464FF4D6
:10400000027300910491ADF80C3011D0013C4FF6D1
:10401000FF7669461E9B02940594ADF80E6001F090
:1040200043FC421C16DB009B00221A701AB070BDC4
:104030001E9B02944FF6FF7669460594ADF80E601C
:1040400001F032FC431C01DB1AB070BD8B232B60E6
:104050001AB070BD8B232B60E5E78B2303604FF014
:10406000FF30F1E730B583B0054C009324680D466E
:10407000134601462A462046FFF7BAFF03B030BD7B
:10408000D006002070B5084C0646002508461146AB
:104090001A462560FCF7D6FB431C00D070BD236890
:1040A000002BFBD0336070BDD40D002038B52F4BF2
:1040B0001B6805460C4613B19A6B002A36D0A289BC
:1040C00093B218070CD52069A8B113F001021ED0D5
:1040D000636900225B42A361A260F0B1002038BD99
:1040E000D9063BD5580725D4206942F00803A3819F
:1040F0009BB20028E9D103F42072B2F5007FE4D02E
:1041000028462146FEF7FCFAA3892069DDE79907D6
:1041100058BF6269A2600028E0D1A3891A06DED5E3
:1041200043F04003A3814FF0FF3038BD1846FEF73F
:1041300061FAC4E7216B49B104F14003994203D00D
:10414000284604F02DF9A2890023236322F02402DB
:1041500000232069636092B22060C6E742F040020B
:1041600009232B604FF0FF30A28138BDD00600201C
:1041700038B5074C0023054608462360FCF746FB8C
:10418000431C00D038BD2368002BFBD02B6038BD0A
:10419000D40D002002690B69934200F38F802DE952
:1041A000F04F03F1FF3801F1140700F1140B57F839
:1041B00028205BF828304FEA880483B00132B3FB33
:1041C000F2F90BEB0403009407EB040A0193B9F135
:1041D000000F3BD000263246BC46DE4634465CF833
:1041E000046BDEF80050B3B2360C03FB094406FB47
:1041F00009F606EB1446A3B2D31AB4B213FA85F348
:10420000C4EB154404EB23449BB243EA0443E24568
:104210004FEA24424EF8043B4FEA1644DFD2009B9B
:104220005BF8033093B9019C231F9B450CD254F8D3
:10423000043C4BB9A4F1080302E01A68043B1AB924
:104240009B4508F1FF38F8D3C0F81080044601F010
:10425000FFF900282EDB09F101095D46002357F81C
:10426000041B28688AB29A1A090C12FA80F2C1EB70
:10427000104303EB224391B241EA0341BA4545F8AA
:10428000041B4FEA2343EAD25BF828200BEB880398
:1042900082B91A1F93450BD253F8042C42B9083B3C
:1042A00002E01A68043B1AB99B4508F1FF38F8D3BD
:1042B000C4F81080484603B0BDE8F08F0020704776
:1042C0002DE9F04F016C97B00446239DCDE9022300
:1042D00041B1426C4A60012393408B6000F0D4FFEF
:1042E00000232364DDE90223002B994636DB0023FB
:1042F0002B60A54B1A4609EA0303934217D0DDE968
:104300000267002200233046394603F01DFD804637
:1043100000282BD0229A01231360249B002B00F04D
:10432000CB809A481860013817B0BDE8F08F229A08
:1043300042F20F731360029B002B00F0A68094489A
:10434000249B002BF0D0C378002B00F0B78000F145
:104350000803249A136017B0BDE8F08F039A012375
:1043600022F000492B60CDF80C90C2E715AA14ABDF
:104370008DE80C00204632463B4601F0F7F95FEA33
:104380001955834640F08A80DDF85080159D6FF402
:10439000826345449D42C0F297827E4A521B09FACD
:1043A00002F9029A05F2124322FA03F049EA0000E8
:1043B00003F0ECF90123013DA1F1F8710D93002206
:1043C000754B03F0A5F86AA3D3E9002303F054FA70
:1043D00069A3D3E9002303F09DF8064628460F465B
:1043E00003F0E4F966A3D3E9002303F045FA02469B
:1043F0000B463046394603F08DF806460F4603F06B
:10440000D5FC3946049000223046002303F0A6FC78
:10441000002840F0A681049B162B00F29F81049A8D
:104420005E4B03EBC203D3E90001DDE9022303F095
:10443000B3FC002800F04E82049B013B0493002350
:104440000B93C5EB0805B5F1010A00F1A18100232A
:104450000593049B002BC0F292819A440A93002397
:104460000893209B092B2BD8052B40F36D86043B2A
:1044700020930025209B023B032B00F24B86DFE8B4
:1044800013F0CC03BE03B2026006414B444AC9F3A9
:104490001300002814BF1846104651E7C7F3130352
:1044A00043F07F51CDF834803046A5F2FF3541F41A
:1044B0004011DDF8508082E73A4835E7C31C48E7F1
:1044C000002161642046209100F0B8FE4FF0FF33D8
:1044D0000693209A0C93012307902192206409935C
:1044E000159B002BC0F2D280049A0E2A00F3CE80D6
:1044F0002A4B03EBC203D3E90089219B002BC0F2B6
:104500008F83DDE9026742464B463046394603F069
:10451000DDFA03F04BFC824603F048F942464B4675
:1045200003F0AAF90B4602463946304602F0F0FF86
:10453000079D0AF130032B70069B012B06460F46A0
:1045400005F1010562D00022174B03F095F9002216
:10455000002306460F4603F0F7FB002840F0838057
:10456000CDF808B00594DDF81CB0069C29E000BF2A
:1045700061436F63A787D23FB3C8608B288AC63F69
:10458000FB799F501344D33F0000F07FB59700089C
:10459000D49700080EFCFFFF0000F83FE8970008E2
:1045A000C8970008B49700080000244003F064F99D
:1045B0000022002306460F4603F0C6FB002840F009
:1045C000DE8342464B463046394603F07FFA03F01D
:1045D000EDFB824603F0EAF842464B4603F04CF905
:1045E00002460B463046394602F092FF0AF1300E81
:1045F00005F801EBCBEB050E744506460F464FF070
:104600000002B54BD2D1DDF808B0059C32463B46DE
:104610003046394602F07EFF06460F464046494680
:1046200032463B4603F09AFB48B94046494632467B
:104630003B4603F089FBB0B11AF0010F13D015F817
:10464000018C07996B1E04E08B4200F0428413F842
:10465000018DB8F1390F03F101051A46F4D008F1C4
:104660000103DBB213702046594600F00DFE002214
:10467000049B2A70229A01331360249B002B00F0C4
:10468000458307981D6017B0BDE8F08F099A002A8E
:1046900000F08480209A012A40F30483069B5F1E69
:1046A000089BBB42C0F2A083DF1B069B002BC0F21D
:1046B0009E84059D069B059A20461A440121059279
:1046C0009A4400F07BFE064665B1BAF1000F09DDA1
:1046D000AA45059A5346A8BF2B46D21A0592ED1A51
:1046E000C3EB0A0A089B002B1ADD099B002B00F084
:1046F0007483002F10DD31463A46204600F002FF59
:1047000006465A463146204600F062FE594680462B
:10471000204600F0B9FDC346089BDA1B40F0A28298
:104720002046012100F04AFE0A9B002B804639DD1D
:1047300001461A46204600F0E5FE209B012B8046EC
:1047400040F396824FF00009D8F8103008EB83034D
:10475000186900F0E5FDC0F120002DE001230B9366
:104760006FE6049803F022F832463B4603F0ECFA79
:1047700000287FF450AE049B013B04934BE6059A5E
:10478000049BD21A5B420893002305920A9368E6C1
:10479000CAF1000305934FF0000A5AE6089F059DF1
:1047A000099E91E7209B012B40F3B3824FF0000953
:1047B0000A9B002BC8D10120504410F01F0000F0CC
:1047C0008180C0F12003042B40F3B584C0F11C00AC
:1047D000059B0344059305448244059B002B05DD9E
:1047E00059461A46204600F0DDFE8346BAF1000F16
:1047F00005DD41465246204600F0D4FE80460B9B24
:10480000002B40F06882069B002B40F39582099BA9
:10481000002B71D1DDF81C90069F4D4602E000F0A0
:104820003DFD834641465846FFF7B4FC00F1300C8D
:1048300005F801CBC9EB0503BB42204659464FF0B2
:104840000A024FF00003EADB079B069A012AACBF7D
:104850009B1801331D464FF0000A5946012220469D
:10486000CDF808C000F09EFE4146834600F0F0FE01
:104870000028DDF808C040F3ED8215F8012C0799F7
:104880006B1E04E08B4200F0738213F8012D392A6D
:1048900003F10105F6D001321A704146204600F0BE
:1048A000F3FC002E3FF4DFAEBAF1000F05D0B245A5
:1048B00003D05146204600F0E7FC3146204600F088
:1048C000E3FCD0E61C2083E7044B029A5B1B02FA50
:1048D00003F06DE50B90B4E500002440EEFBFFFF14
:1048E0003146002320460A2200F0D8FC0C9B002B06
:1048F000064640F309840693002D05DD31462A461D
:10490000204600F04FFE0646B9F1000F40F0EB8262
:10491000B146069B079A013BD3180893029B03F00C
:1049200001030993174641465846FFF733FC3146C9
:104930000546584600F08CFE4A46824641462046CF
:1049400000F0AAFEC268034605F1300C002A40F0D0
:10495000B88119465846CDF818C0059300F078FE86
:10496000059B02901946204600F08EFC029ADDF865
:1049700018C02AB9209B1BB9099B002B00F0A88303
:10498000BAF1000FC0F2488205D1209B1BB9099BE8
:10499000002B00F04182002A00F3B982089B87F8BF
:1049A00000C007F1010A9F42554600F0BC825946FB
:1049B0000A220023204600F071FC4E458346314612
:1049C00020464FF00A024FF0000300F0748100F01F
:1049D00065FC494606460A222046002300F05EFC9C
:1049E000574681469FE701230993219B002B40F303
:1049F0000A821F461E460C9306930021172F6164FE
:104A00000AD9012204235B0003F1140087421146F6
:104A100002F10102F7D26164204600F00FFC0E2E75
:104A2000079020643FF65CAD002D3FF459AD9DED3D
:104A3000027B049900298DED0E7B40F32382B74B56
:104A400001F00F020D1103EBC203E906D3E9006781
:104A500040F1D281B24B51EC170BD3E9082303F09C
:104A600035F8CDE9020105F00F054FF003088DB1CF
:104A7000DFF8AC9230463946EA0705D5D9E900237C
:104A800002F0FAFE08F101086D1009F10809F3D1EE
:104A900006460F46DDE9020132463B4603F016F8B2
:104AA000CDE902010B9B43B1DDE9020100229D4BE0
:104AB00003F054F9002840F0AE82404602F076FE42
:104AC000DDE9022302F0D8FE974B002202F022FD1E
:104AD000069B0646A1F15077002B00F06281049BF3
:104AE000DDF818901293099B002B00F023828B4B6A
:104AF0008E4903EBC90353E90223002002F0E6FFCD
:104B000032463B4602F004FDDDE90267CDE91001C3
:104B10003946304603F04AF9054602F047FE303583
:104B200002460B463046394602F0F2FC5FFA85F841
:104B3000079DDDE9102385F8008006460F46013504
:104B400003F00CF9002840F0A78232463B460020D3
:104B5000744902F0DDFC02460B46DDE9100103F06A
:104B60001BF9002840F0AD82B9F1010F40F38481B8
:104B7000079BCDF84CA0CDF808B09944DDE910AB07
:104B8000A0460DE00020674902F0C2FC52465B4699
:104B900003F0E4F8002840F08F824D4500F0678173
:104BA000504659460022624B02F066FE0022604BDE
:104BB00082468B463046394602F05EFE0F46064678
:104BC00003F0F4F8044602F0F1FD02460B463046CD
:104BD000394602F09DFC3034E4B252465B4605F89B
:104BE000014B06460F4603F0B9F832463B46002813
:104BF000C8D0129BDDF808B00493444633E5002387
:104C00000993219B049A13440C930133002B0693C0
:104C100040F30081069E3746EFE600230993E4E661
:104C2000069B002B3FF76DAC40F0D380404600223E
:104C3000404B494602F020FEDDE9022303F0A2F8D2
:104C4000DDF818804646002800F08A80219B079DE9
:104C5000DB4304934146204600F016FB002E7FF410
:104C60002CAE00E55946204600F04CFC834657E543
:104C7000029B002B7FF466AD039BC3F31303002B51
:104C80007FF494AD039B23F000473F0D3F05002FB9
:104C900000F01B82059B013305930AF1010A4FF0D6
:104CA000010985E50D9A002A00F0A78103F233433C
:104CB000089F059DFFE400F0F1FA5746064681463D
:104CC00031E601462046CDF808C000F0DDFA0122A9
:104CD000DDF808C054E65846414600F0B9FC00280B
:104CE000BFF691AD049F5946002320460A22013F9A
:104CF000049700F0D3FA099B8346002B7FF4F0ADB4
:104D00000C9B002B40F3F581069383E50798FFF792
:104D10000BBB029B002B7FF449ADADE7E897000881
:104D2000C09800080000F03F00001C400000E03F79
:104D30000000244000001440209B022B7FF767AD49
:104D4000069B002B82D141460522204600F0A6FAA0
:104D500080464146584600F07BFC00287FF776AF3E
:104D6000049A07993123013204920B704D1C71E7AC
:104D7000049A01320492079A312313708DE5DDF80D
:104D800008B0059C6FE4404602F010FDDDE9022307
:104D900002F072FD0022C24B02F0BCFB0646A1F1FC
:104DA00050770022BF4BDDE9020102F0B1FB324631
:104DB0003B468046894602F0EFFF002840F0B6806F
:104DC000324607F100434046494602F0C7FF00283B
:104DD00052D04FF00008464638E75946089A204618
:104DE00000F090FB83469BE4089B0A9A0897FB1A05
:104DF0001A440A92002758E49DED0E7B4FF00208FA
:104E00008DED027B33E6012621960C960696002155
:104E1000616401E61E46FAE7002A15DD59460122C3
:104E20002046CDF808C000F0BDFB4146834600F0A7
:104E30000FFC0028DDF808C040F35481BCF1390FA5
:104E400000F011810CF1010CB24687F800C07D1C06
:104E50004E4622E504D11CF0010F01D00DE51546A8
:104E600015F8013C302B05F1FF32F8D015E5DDF8DF
:104E70004CA0DDF808B04446DDE90E23CDE902235D
:104E8000FFF72EBB049B5D42002D00F0BD80864BDA
:104E900005F00F0203EBC203D3E90023DDE90E01A5
:104EA00002F0EAFC2D11CDE9020100F027817F4ECE
:104EB0004FF00208EB0705D5D6E9002302F0DCFC31
:104EC00008F101086D1006F10806F3D1CDE90201E1
:104ED000E8E5049A01320492079A302313703123D3
:104EE0001370FFF7C0BB7168204600F0A7F9336963
:104EF0009A1C0546920006F10C010C30FDF7C2FC2D
:104F000020462946012200F04DFB814601E5BCF117
:104F1000390F00F0A8800CF1010CB24687F800C0F0
:104F20007D1C4E46B9E4B2464E4696E44FF000086A
:104F3000464615E75C4909F1FF3301EBC3013246F0
:104F40001393D1E900013B4602F096FCDDE90267CC
:104F5000CDE910013946304602F028FF054602F03F
:104F600025FC02460B463046394602F0D1FA079A34
:104F70003035B9F1010F157006460F4602F10105F3
:104F800023D0079BCDF808A04B445E469A46AB461B
:104F90000022474B02F070FC8946804602F006FF73
:104FA000074602F003FC303702460B4640464946AE
:104FB00002F0AEFA0BF8017BD345E9D1139BDDF883
:104FC00008A0B3460F4606461D440022394BDDE9D2
:104FD000100102F09FFA32463B4602F0BFFE002865
:104FE00047D0129B049315F8018CFFF72ABB059B51
:104FF000069A9D1A0023FFF75EBB149B089F059D30
:10500000C3F13603FFF757BB9DED0E7B4FF002084F
:105010008DED027B46E5069B002B3FF4B4AE0C9D64
:10502000002D7FF729AF0022214BDDE9020102F0BC
:1050300023FC06460F4608F10100CDE9026702F0A5
:10504000B5FB02460B463046394602F015FC144BC0
:10505000002202F05FFA049B013B0646A1F1507763
:105060001293A9463FE53922B2463A704E467D1C5E
:1050700005E4DDE9102300200E4902F049FA32462A
:105080003B4602F089FE08B9F6E6154615F8013CE4
:10509000302B05F1FF32F8D0129B0493FFF7E3BAEF
:1050A00000001C4000001440E8970008C098000869
:1050B000000024400000E03F4346DDF808B0A04671
:1050C0001C46129B0493FFF7BCBAB946FFF770BBAE
:1050D000BCF1390FC7D0BAF1000F7FF7B5AE05F1BB
:1050E000310CB1E67FF4B0AE1CF0010F3FF4ACAE72
:1050F000A4E6209B022B04DC0C9B05E64FF0020883
:10510000D0E40C9B06931BE6209B022BF9DC0C9B46
:10511000FFF7F1BB002565642946204600F08EF8B4
:105120004FF0FF3306930C930123079021952064E1
:105130000993FFF7D5B93FF450ABC0F13C00FFF73E
:1051400047BB012309935CE50125FFF793B900BF35
:1051500000293DD070B505460C4608B1836B7BB382
:10516000B4F90C300BB9002070BD28462146FDF77C
:10517000F1F8E36A064633B12846E169984700280A
:10518000B8BF4FF0FF36A3891B061CD4216B41B179
:1051900004F14003994202D0284603F001F90023AC
:1051A0002363616C21B1284603F0FAF8002363649D
:1051B000FDF726FA0023A381FDF724FA304670BDDF
:1051C000FDF718FACCE72846216903F0E9F8DDE796
:1051D0000020704738B5074C002305460846236079
:1051E000FBF780FB431C00D038BD2368002BFBD0AD
:1051F0002B6038BDD40D0020004870470C070020FC
:10520000014B1868704700BF2C070020004870470A
:10521000D406002070B5084C064600250846114605
:105220001A462560FBF77AFB431C00D070BD23684B
:10523000002BFBD0336070BDD40D0020C36C70B563
:1052400005460C464BB153F8240080B1026843F880
:10525000242000230361C36070BD0421212203F0D8
:10526000A1F8E86403460028EDD1002070BD0121BB
:1052700001FA04F6721D2846920003F093F8002804
:10528000F3D044608660E4E731B1C36C4A6853F8F8
:105290002200086043F82210704700BFF0B50C6987
:1052A00083B00D46064601F1140E0027DEF800100B
:1052B00088B2090C02FB003302FB01F101EB134140
:1052C00001379BB203EB0143BC424EF8043B4FEA6B
:1052D0001143EBDC3BB1AA68944207DA05EB840288
:1052E000013453612C61284603B0F0BD6968019315
:1052F00001313046FFF7A2FF2A69023205F10C01A5
:10530000074692000C30FDF7BDFAF26C6968019B0C
:1053100052F82100286042F821503D46DEE700BFE8
:10532000030C1B04B3B90004102310F07F4F04BF1B
:105330000002083310F0704F04BF0001043310F076
:10534000404F04BF80000233002807DB420003D433
:10535000202070470023E8E7581C70471846704724
:10536000036813F0070207D0D90720D49A0720D486
:105370009B0803600220704799B209B91B0C1022E8
:1053800013F0FF0F04BF1B0A0832190704BF1B09E3
:105390000432990704BF9B080232D90704D45B0882
:1053A00001D1202070470132036010467047002071
:1053B00070475B0803600120704700BF10B50C46C2
:1053C0000121FFF73BFF01224461026110BD00BFD4
:1053D0002DE9F04F0F691669B74283B00D461446A8
:1053E000C0F28D8033463E461F46AB68696806EBC7
:1053F00007089845C8BF0131FFF720FF00F1140CE2
:105400000CEB8809CC45009005D26346002143F897
:10541000041B9945FBD804F1140202EB870A05F13D
:105420001403524503EB860E54D2CDF804909946EE
:1054300052F8043B1FFA83FBBBF1000F20D0002081
:105440004F466646054600E01E4657F8044B306856
:10545000A1B283B20BFB0131240C000C4B190BFBE6
:10546000040000EB134099B2334641EA0041BE45C7
:105470004FEA104543F8041BE6D8756052F8043C27
:105480005FEA134B20D0DCF80030674618464D46E3
:10549000002100E037462C88000C0BFB040001447F
:1054A0009CB23E4644EA014346F8043B786855F80E
:1054B000044B83B2240C0BFB043404EB1143AE45C4
:1054C0004FEA1341E6D87B6092450CF1040CAFD84B
:1054D000DDF80490B8F1000F0BDD59F8043CA9F198
:1054E00004091BB105E059F8043D13B9B8F10108EE
:1054F000F9D10098C0F8108003B0BDE8F08F1546D0
:105500000C4672E712F003032DE9F04114460746FA
:105510000E462DD1A4101CD0BD6C95B3E3074FF0FF
:10552000000806D4641014D02868A8B10546E30723
:10553000F8D5384631462A46FFF74AFFB6B17268B9
:10554000FB6C641053F82210316043F82260064669
:10555000EAD13046BDE8F08129462A463846FFF7B1
:1055600037FF2860C0F800800546E0E70646D9E727
:105570005A1E0B4D002355F82220FFF78FFE0646DA
:10558000C8E701213846FFF759FE40F27121012298
:105590000023416102610546B8640360BEE700BFB5
:1055A000B09800082DE9F0470F698B684FEA62193F
:1055B0004F447D1C9D420E4614464968804604DDDA
:1055C0005B009D4201F10101FADC4046FFF736FE27
:1055D000B9F1000F00F1140109DD00239E460A46CF
:1055E00001334B4542F804EBFAD101EB83013269F8
:1055F00006F1140314F01F0C03EB820E1FD0CCF144
:10560000200900221C6804FA0CF414438A4641F86D
:10561000044B53F8044B9E4524FA09F2F2D8CAF819
:10562000042002B1BD1CD8F84C307268013D53F81B
:1056300022100561316043F82260BDE8F08704392B
:1056400053F8042B41F8042F9E45F9D8EBE700BF2F
:1056500002690B69D21A13D19B001430143119441A
:1056600010B4034401E098420CD253F8044D51F8B1
:10567000042D9442F7D009D301205DF8044B704704
:105680001046704700205DF8044B70474FF0FF3024
:105690005DF8044B704700BF2DE9F0410E4605460A
:1056A000114630461446FFF7D3FF071E54D04DDB9A
:1056B0004FF0000871682846FFF7C0FD376923697D
:1056C000C0F80C80143604F1140202EB830C00F1D4
:1056D000140506EB870E002356F8048B52F8044B92
:1056E00013FA88F3A1B2240C591AC4EB184303EB44
:1056F000214389B241EA0341944545F8041B4FEA2E
:1057000023433446E8D8B645AC4615D954F8042BA3
:1057100013FA82F1130C03EB214389B241EA0341EE
:10572000A64545F8041B4FEA2343EFD8F6437644D9
:1057300026F0030504356544043D21B955F8043DC0
:10574000013F002BFAD00761BDE8F08133464FF0EE
:10575000010826461C46ADE728463946FFF76EFD90
:10576000012347610361BDE8F08100BF2DE9F043EB
:1057700083B001211C46C3F30A5517460A9EFFF762
:105780005DFDC4F3130481460DB144F4801401940B
:105790001FB302A840F8087DFFF7E2FD002835D1CD
:1057A0009DE80C00C9F81420002B14BF022401242A
:1057B000C9F81830C9F81040DDB909EB8403A0F22C
:1057C000324030601869FFF7ABFD0B9BC0EB441013
:1057D0001860484603B0BDE8F08301A8FFF7C0FD9C
:1057E0000124019BC9F814302030C9F81040002D65
:1057F000E3D0A5F2334808EB000333600B9BC0F104
:1058000035001860484603B0BDE8F0839DE80C0001
:10581000C0F1200103FA01F10A43C3400193C9F822
:105820001420C1E770B5084C06460025084611460D
:105830001A462560FBF732F8431C00D070BD236880
:10584000002BFBD0336070BDD40D002010B431F0BC
:1058500000440B4608D0114AA1F58011914208D8A6
:1058600004205DF8044B704718B902205DF8044B22
:10587000704703F1FF43094A03F5E0039342EFD970
:10588000B4F5801F01D20320EBE7054B9C4201D009
:105890000020E6E7B0FA80F04009E2E7FFFFDF7F93
:1058A0000000F07F000000002DE9F04FC3B08946F2
:1058B0000A920E930890FFF7A9FC03681793184605
:1058C000FDF70AF9B9F80C3018901A0604D5D9F882
:1058D0001030002B01F0A1809FED997B8DED147BA2
:1058E000002332AF139327932693169319930B93A8
:1058F00025973C464E460A9D2B78002B00F0A98048
:10590000252B02D1A5E0252B03D015F8013F002B54
:10591000F9D10A9BEB1A73B1269A27990A9820604D
:1059200001321944072A63602791269272DC0834F9
:105930000B9A1A440B922B78002B00F0C987002396
:10594000691C6D788DF877301A460C9307934FF0E9
:10595000FF3A4B1CA5F12001582900F2E483DFE84F
:1059600011F07702E203E2037B03E203E203E203C6
:10597000E203E203E203F7021402E203FB0118026E
:10598000E2038203C102C102C102C102C102C1021B
:10599000C102C102C102E203E203E203E203E20345
:1059A000E203E203E203E203E203D0029103E20333
:1059B0009103E203E203E203E2037403E203E2037E
:1059C0000C03E203E203E203E203E2032A03E2033D
:1059D000E2034403E203E203E203E203E203E2033D
:1059E000E203E203E203E2035F0333029103910364
:1059F000910305033302E203E203ED02E2038502B1
:105A00000202CB037E02E2039902E2037A00E20380
:105A1000E203510208980793314625AA01F04EFC93
:105A200050B93C46079B83E70898314625AA01F008
:105A300045FC002800F08C81B146B9F80C3013F019
:105A4000400F0B9B18BF4FF0FF33184643B0BDE823
:105A5000F08F0A9D6FE70A93079B980640F1B48286
:105A60000E9B03F1070929F0070303F10802D3E9AC
:105A700000890E9201234FF0000C8DF877C0CDF80D
:105A800044A0BAF1000F03DB079A22F080020792CC
:105A900058EA090240F05783BAF1000F00F05C8425
:105AA000012B00F05A83022B00F09A8439464FEA0A
:105AB000D80242EA49724FEAD90008F0070381464A
:105AC0009046303358EA090201F8013DEFD1079AB8
:105AD0001091D20700F16E857B1A0D930D9A9245B5
