:020000040800F2
:1000000000800120412C00088D2C00088D2C000858
:100010008D2C00088D2C00088D2C0008000000009D
:100020000000000000000000000000008D2C00080F
:100030008D2C0008000000008D2C00088D2C00087D
:100040008D2C00088D2C00088D2C00088D2C0008AC
:100050008D2C00088D2C00088D2C00088D2C00089C
:100060008D2C00088D2C00088D2C00088D2C00088C
:100070008D2C00088D2C00088D2C00088D2C00087C
:100080008D2C00088D2C00088D2C0008000000002D
:100090000000000000000000000000008D2C00089F
:1000A0008D2C00088D2C00088D2C00088D2C00084C
:1000B0008D2C00088D2C00088D2C00088D2C00083C
:1000C0008D2C00088D2C00088D2C00088D2C00082C
:1000D0008D2C00088D2C00088D2C000800000000DD
:1000E0008D2C00088D2C00088D2C000800000000CD
:1000F0000000000000000000000000008D2C00083F
:10010000000000008D2C00088D2C00088D2C0008AC
:1001100000000000000000000000000000000000DF
:100120008D2C00088D2C00088D2C00088D2C0008CB
:100130008D2C0008000000000000000000000000FE
:100140000000000000000000000000008D2C0008EE
:100150008D2C00088D2C00088D2C00088D2C00089B
:100160008D2C00088D2C000800000000000000000D
:10017000000000000000000000000000000000007F
:10018000000000008D2C00080000000000000000AE
:100190008D2C000810B5054C227832B9044B13B1F0
:1001A0000448AFF300800123237010BD680C0020C9
:1001B0000000000094DF000808B5034B1BB10349A1
:1001C0000348AFF3008008BD000000006C0C002065
:1001D00094DF0008134B002B08BF114B9D46A3F57D
:1001E000803A00218B460F461148124A121A06F037
:1001F000D3F80D4B002B00D098470C4B002B00D0B0
:1002000098470020002104000D000B4801F087FDF5
:1002100005F090FE2000290002F00EF801F07CFDB0
:1002200000000800008001200000000029220008D2
:10023000680C0020E8120020B9570008014B012289
:100240001A707047840C0020036818470B6803601D
:1002500070477047F7B5134F6E460624354638464B
:1002600005F036F8013C06F8010BF8D10E49284696
:1002700006F0AAFA18B90D4B01221A7006E00C49D3
:10028000284606F0A1FA18B9084B1C7003B0F0BD5F
:100290000849284606F098FA0028F7D1034B1C704D
:1002A000054BE9E7980D002034CC0008840C0020B1
:1002B0003BCC000842CC0008C80D002010B5094B0B
:1002C000036003F1200280330446C0F8BC20C0F86C
:1002D000C030BC3004F0EAFF204604F069FA204642
:1002E00010BD00BF48D60008A0F1BC00E6E7A0F1B1
:1002F000C000E3E7C36810B504460BB19B6898479C
:10030000204610BD000000002DE9F04D2DED048BBE
:1003100086B01022002102A806F03EF87E4C7F4BEA
:100320007F480293002202A9059404F007FA02A86C
:10033000FFF7E0FF1022002102A806F02DF8794B0C
:100340007948029302A9059403F0BFFF02A8FFF7C2
:10035000D1FF9FED678B9FED689BDFF8F8B14FF001
:10036000000A724C23784FFA83F8012B51D0B8F170
:10037000000F20D0022BF8D16D4D286800F06CFEE4
:1003800028686C4D00F0FCFE002840F0AA805CA3B9
:10039000D3E90023CDE900230022674B2868674C8E
:1003A00000F0A6FC286800F087FB0028D9D0204682
:1003B00004F056FEF6E75F4D286800260027C0F8D7
:1003C0001881C0E94867C0E94A6732463B4600F0F9
:1003D000C5F932463B46286800F08EF9584B1A782A
:1003E000002ABED04FF07C5083F8008004F038FE25
:1003F00043A3D3E90023CDE90023524B2868002210
:1004000000F076FC4FF07C5004F02AFE02232370AB
:10041000A7E7474D286800F01FFE286800F048FE57
:1004200006462868434D0F4600F0AAFE464B474A51
:10043000804648B32968C2E90067D1F818111960ED
:100440005B463046394652460BF008F9D5F8008035
:10045000D8F818314F2B06460F463CDD9F2B3DDD6B
:1004600029A5D5E9004532463B46204629460AF0F3
:100470003DFF3246C8E94A013B46204629460AF07C
:1004800037FFC8E948016CE7D2E900672A681B68B2
:10049000D2F8182114339A4211DD19A3D3E90023AD
:1004A000304639460BF04CFB48B119A3D3E9002381
:1004B000304639460BF062FB08B184F800803046C4
:1004C0000022002339460BF04FFB002608B9204FCD
:1004D000B6E7194FB4E755EC184BC4E755EC194B88
:1004E000C1E72B680022C3F8182101238FE700BF62
:1004F0000000000000605340000000000040674022
:10050000333333333333D33F000000000060734094
:10051000333333333333D3BF28CC000855020008BC
:10052000DC0C00203D0200088C0C0020840C002014
:10053000C40D0020C00D00200000F03F17B7D138D7
:10054000C80D002000005940880C0020B80D002084
:100550000000F0BF0080664010B50446FFF7AEFE15
:10056000204601F059FD204610BDA0F1BC00F3E784
:10057000A0F1C000F0E7000038B5154C154D4FF460
:10058000165327222621204603F026FF2046124C30
:1005900012492A4601F0BEFB01222221204603F027
:1005A0002DFE2A460E49204601F0B4FB4FF4987008
:1005B00001F01EFD044600F0D5FB0A4B60201C60D4
:1005C00001F016FD044600F063FE074B1C6038BDC9
:1005D000DC0C0020980100208C0C0020BD020008DB
:1005E0006D420008C00D0020C40D0020034607C95D
:1005F00083E807007047704710B444688168621050
:100600000346E40701EB02001B6848BF8A585DF807
:10061000044B48BFD358184710B50446806903F00F
:100620001DFED4F8F43001280CBF03F1FF33013371
:10063000C4F8F43010BD10B50446006A03F00EFE95
:10064000D4F8F83001280CBF03F1FF330133C4F8AC
:10065000F83010BD10B50446806903F0FFFDD4F8F2
:10066000F43001280CBF013303F1FF33C4F8F43038
:1006700010BD10B50446006A03F0F0FDD4F8F83060
:1006800001280CBF013303F1FF33C4F8F83010BD6B
:1006900038B51C2204460D46002105F07DFE20469B
:1006A000294603F074FD204638BD38B504460D4692
:1006B00004F030FB237E1BB903F0A6FE0123237652
:1006C0002946204601F0B8FEBDE8384004F038BBAA
:1006D00010B5044603F07AFC2046064B40F8283B50
:1006E0001022002105F058FE012384F838302046FE
:1006F00010BD00BF08D60008D0B516461F460446F8
:1007000000220023304639460BF02EFA88B1E36808
:100710001149DA681B681B041360002032463B460F
:100720000AF0E4FD0BF092FA01462068FFF7BDFFE6
:10073000D0BD00220023304639460BF001FA0028D4
:10074000F6D0E3689A681B68136030460022024BBB
:1007500039460AF0CDFDE5E70000F03FD0B516467A
:100760001F46044600220023304639460BF0FCF9B0
:1007700080B1236911499A681B68136000203246D2
:100780003B460AF0B3FD0BF061FA01466068FFF7E3
:100790008CFFD0BD00220023304639460BF0D0F943
:1007A0000028F6D02369DA681B681B041360304602
:1007B0000022024B39460AF09BFDE4E70000F03FBF
:1007C0002DE9F04FD0E9402387B08146D0E94801B8
:1007D0000AF08CFDD9E9422382468B46D9E94A01C9
:1007E0000AF084FD7C4EDFF80882CDE9000170A399
:1007F000D3E90023504659460AF030FFD6E90023DA
:100800000AF076FD04460D46C6E90045734E68A31E
:10081000D3E90023DDE900010AF020FFD6E9002337
:100820000AF066FDD8E90023C6E90001CDE902011E
:10083000504659460AF05AFD5FA3D3E900230AF057
:100840000DFF5BA3D3E900230BF032F85CA3D3E9DF
:10085000002306460F46504659460AF0FFFE024660
:100860000B46304639460AF043FD002206460F4645
:100870000023204629460AF0F1FE02460B46304688
:1008800039460AF035FD564C564DD4E90023CDE9E2
:100890000401DDE900010AF029FD47A3D3E90023A3
:1008A0000AF0DCFE42A3D3E900230BF001F844A3D5
:1008B000D3E9002306460F46DDE900010AF0CEFE2B
:1008C00002460B46304639460AF012FD0022064623
:1008D0000F460023DDE902010AF0C0FE02460B4686
:1008E000304639460AF004FDC8E900AB9DED007BB7
:1008F000064684ED007B0F4600223B4B3B4CDDE976
:1009000004010AF0D5FFD5E900230AF0F1FC00222A
:10091000CDE90001C5E90001334B304639460AF004
:10092000C7FFD4E900230AF0E3FC27A7D7E9006753
:1009300082468B46C4E900AB32463B46DDE9000106
:100940000BF01CF960B1C5E900671FA3D3E90023D0
:10095000504659460BF012F980B1C4E9006718E01F
:100960001BA3D3E90023DDE900010BF0E9F800281F
:10097000EBD09FED177B85ED007BE6E714A7D7E969
:100980000067504632463B4659460BF0D9F80028DE
:10099000E3D1D5E900234846FFF7E0FED4E9002380
:1009A000484607B0BDE8F04FFFF7A6BEAFF30080A2
:1009B0007B14AE47E17A943FB81E85EB51B8AE3F49
:1009C0009A9999999999E93FCDCCCCCCCCCCEC3F74
:1009D000CDCCCCCCCCCCECBFF00D0020F80D002061
:1009E000D80D0020E00D002000407F40E80D0020E1
:1009F000D00D0020000000002DE9F0478246D0F81D
:100A0000F4000AF0C1FD28A3D3E9002380468946FB
:100A10000AF024FECAE94201DAF8F8000AF0B4FD4F
:100A200021A3D3E9002304460D460AF017FECAE9C4
:100A30004001DAF81C010AF0A7FD1DA3D3E9002349
:100A400006460F46404649460AF008FE02460B4657
:100A5000304639460AF04CFC0BF0B0F8CAF81C01DD
:100A6000DAF818010AF090FD11A3D3E90023064635
:100A70000F46204629460AF0F1FD0B46024639464C
:100A800030460AF035FC0BF099F80023CAE93D33F3
:100A90009AF81631CAF8180123B95046BDE8F04754
:100AA000FFF78EBEBDE8F087000000000070174021
:100AB000A43A55297A6ADF3F38B590F814410546C3
:100AC00014B990F815318BB100220023D5E940010B
:100AD0000BF02CF890B100220023D5E942010BF075
:100AE00025F858B164B995F815312BB995F8164128
:100AF00014B1002485F81641204638BD0124FBE7D7
:100B00000024F9E738B5CB6804460D460BB15B68A5
:100B10009847EB68E360204638BD0000F0B52DED46
:100B2000028B85B00446684608EE102AFFF7EAFFFC
:100B3000DFED147A68EE277A17EE900A0BF0EEF8E4
:100B400006460F4604F0E6F8636B23B994F8383094
:100B50000BB103F059FC04F128052846FFF7CAFB46
:100B600069462846FFF7CEFF32463B46204603F053
:100B700072FA04F0E5F86846FFF7BCFB05B0BDEC7F
:100B8000028BF0BD0024744938B510220D460021B7
:100B9000044605F001FC95E80700024BE36084E899
:100BA000070038BD4CCC000810B590F8F130D0F8F3
:100BB0001811D0F8EC2088B004460BB3914215DA36
:100BC000012380F81431124B0193002301A904A8DA
:100BD000CDE90234FFF7D8FF04F1A8000D4A04A9BB
:100BE000FFF79CFF04A8FFF785FB07E0002384F8CC
:100BF0001431002200232046FFF7B0FD08B010BDDD
:100C00009142F3DD012280F81421014A0192DDE7CF
:100C1000A90B00080AD7A33CF8B5D0F81851002951
:100C20001F460D44D6BF0023012180F8F130044651
:100C3000C0F8EC50CCBF80F8F11007F10043FFF78B
:100C40008DFD2046BDE8F840FFF7AEBF10B590F827
:100C5000F030D0F81C11D0F8E82088B004460BB36F
:100C6000914215DA012380F81531124B01930023CC
:100C700001A904A8CDE90234FFF786FF04F168005A
:100C80000D4A04A9FFF74AFF04A8FFF733FB07E06A
:100C9000002384F81531002200232046FFF72CFDA5
:100CA00008B010BD9142F3DD012280F81521014A00
:100CB0000192DDE74D0C00080AD7A33CF8B5D0F847
:100CC0001C5100291F460D44D6BF0023012180F886
:100CD000F0300446C0F8E850CCBF80F8F01007F1BF
:100CE0000043FFF709FD2046BDE8F840FFF7AEBF1F
:100CF0002DE9F047994600260027012382469046B9
:100D000080F8163132463B46DDE90845FFF726FDFF
:100D100032463B465046FFF7EFFC0022104B404660
:100D200049460AF0C5FD0CA3D3E900230AF096FC5E
:100D30000AF044FF224606462B4641425046FFF742
:100D4000BDFF22462B4631465046BDE8F047FFF72F
:100D500063BF00BFAFF300806C36A4F8084C80403E
:100D6000008076402DE9F04100F1280788B0044664
:100D70003846FFF7ADFC714D04F16800FFF7A8FCA1
:100D8000A56604F1A800FFF7A3FCC4F8A8501C2036
:100D900001F02EF900250646057603F0BBFF082179
:100DA000304601F063FC03F0CBFF26601C2001F00D
:100DB0001FF90646057603F0ADFF0921304601F024
:100DC00055FC03F0BDFF66601C2001F011F91C21E9
:100DD0000646FFF75DFCE6601C2001F009F90C21D6
:100DE0000646FFF755FC26611C2001F001F912218F
:100DF0000646FFF74DFCD4F80080A660504E03F085
:100E000089FF3146404601F0F7FC03F099FFD4F822
:100E1000048003F07FFF3146404601F0EDFC03F013
:100E20008FFF20684FF07E51FFF73FFC4FF07E515F
:100E30006068FFF73AFC4FF07C5004F011F9A368AA
:100E40009A681B6813605020C4E94655A4F81451F1
:100E500084F8165101F0CCF80E21064603F0A2F9F1
:100E60006661502001F0C4F80D21064603F09AF99E
:100E7000A661502001F0BCF82A21064603F092F941
:100E8000E661502001F0B4F82C21064603F08AF9FF
:100E90002C4B26626669039401A904A8CDE90135AB
:100EA000FFF772FE04A9304603F00FFA04A8FFF71B
:100EB00021FA254BE669039401A904A8CDE901357F
:100EC000FFF762FE04A9304603F0FFF904A8FFF71C
:100ED00011FA1E4B6669039401A904A8CDE90135F6
:100EE000FFF752FE04A9304603F015FA04A8FFF7F5
:100EF00001FA174BE669039401A904A8CDE901356D
:100F0000FFF742FE04A9304603F005FA04A8FFF7F4
:100F1000F1F9104B039401A904A8CDE90135FFF7BD
:100F200033FE0D4A04A93846FFF7F8FD04A8FFF781
:100F3000E1F9204608B0BDE8F08100BF34D80008D0
:100F40006F12833A19060008370600085506000894
:100F500073060008F90900080AD7A33C704710B5CA
:100F6000044601F059F8204610BD38B50546044640
:100F700055F8043B9B689847284600F0F9F9236828
:100F80000546DB6820469847284638BD10B504461C
:100F90000069FFF7EAFF0AF009FBD4E90223C4E97C
:100FA00000010AF0A3F9C4E9060110BD10B504461A
:100FB0000069FFF7DAFF0AF0F9FAC4E9020110BD8F
:100FC00070B5D0E90935AB42044613DB214E062D3E
:100FD00023DCA3699A681B681360304604F040F86C
:100FE000A369DA681B681B041360304604F038F804
:100FF0000135ECE7836917489A681B68136004F0B1
:101000002FF8A3691348DA681B681B04136004F007
:1010100027F8636A0133636270BDE3690D489A681B
:101020001B68136004F01CF8A3690A489A681B68DF
:10103000136004F015F8A3690648DA681B681B04FE
:10104000136004F00DF8E369DA681B681B04136091
:101050000023E0E717B75138F8B50446FFF7B0FFB3
:10106000124E04F130070025A36AAB421DDD54F88F
:101070002500FFF79BFF236ADA681B681B041360D7
:10108000304603F0EDFF54F82500FFF77FFF236A99
:101090009A681B68E7E802011360304603F0E0FF3E
:1010A0002046FFF78DFF0135DEE7F8BD17B7513851
:1010B0002DE9DF4F90ED147BD0E90E678DED007BBD
:1010C00090ED167BD0E910AB04462BA3D3E90023A7
:1010D000304639468DED027B0AF0C0FA0022804688
:1010E0008946234B504659460AF0B8FA02460B4649
:1010F000404649460AF0FAF80022804689461C4BD1
:10110000DDE900010AF0AAFA02460B4640464946CC
:101110000AF0EEF84FF0333280468946154BDDE990
:1011200002010AF09BFA02460B46404649460AF085
:10113000DFF85246804689465B46304639460AF01B
:10114000D7F8D4E912230AF0D3F8DDE900230AF036
:10115000CFF8DDE902230AF0CBF802460B46404601
:1011600049460AF0A5FB04B0BDE8D08FAFF300807C
:101170000000E03F3333F33F333333333333F3BFD4
:101180002DE9F74F836ADFF87890019300F1380476
:1011900001254FF000084FF0000A4FF0000B019BB3
:1011A000AB4215DDF4E8026752465B4630463946ED
:1011B0000AF0E4FC08B1B246BB4642464B46304614
:1011C00039460AF0BDFC08B1B046B9460135E6E73C
:1011D00042464B46504659460AF088F806A3D3E9E2
:1011E00000230AF0ADFCB0FA80F0400903B0BDE87E
:1011F000F08F00BFAFF300809A9999999999B93F00
:101200000000F03F034610B553F8042B044612B912
:101210000360206810BD9A42FBD066220249034851
:1012200003F0B0FDF5E700BF70CC000890CC0008DB
:1012300008B50248FFF7E6FF08BD00BF8410002094
:1012400008B50248FFF7DEFF08BD00BF841000208C
:101250002DE9F04105465020884600F0C9FE0446BD
:10126000094B0A4F44F8043B06463846FFF7CAFFCD
:101270004146204600F08CF83846FFF7C3FF2E6148
:101280002846BDE8F08100BF60CC00088410002033
:1012900038B50446202000F0ABFE20210546FFF7BC
:1012A000D7FF2560202000F0A3FE00210546FFF7B0
:1012B000CFFF6560202000F09BFE01210546FFF76F
:1012C000C7FFA560202000F093FE04210546FFF72C
:1012D000BFFFE560202000F08BFE10210546FFF7E0
:1012E000B7FF2561202000F083FE21210546FFF78E
:1012F000AFFF65611C2000F07BFE2E210546FFF745
:10130000C7F9A5611C2000F073FE2F210546FFF7E9
:10131000BFF9E5611C2000F06BFE05462321FFF7B5
:10132000B7F92B68EA6825621B041360E3690F4D67
:101330009A681B681360284603F092FEA3699A68B6
:101340001B681360284603F08BFEA369DA681B68EC
:101350001B041360E369DA681B681B041360002335
:101360000622C4E90932204638BD00BF17B75138FC
:1013700008B500F07BF807EE900AB8EE677ADFED6B
:10138000037A67EE277A17EE900A08BD01088039C4
:10139000A1F1F0039BB20F2B73B504460D4649D95A
:1013A0002A49284603F0CCF828492060284603F053
:1013B000EBF826490646284603F078F823680133FF
:1013C00004D13C222249234803F0DCFC731C04D1E5
:1013D0003D221F49204803F0D5FC0122E26121682B
:1013E0001E4AA4F848500023C6F30436914284F8FC
:1013F0004A6023646360A3602361A3612362636224
:10140000E362A362E360236363610AD10193144B37
:101410005A6C42F480725A645B6C03F480730193DB
:10142000019B204601F050FC10B10E4803F0CCFDAA
:1014300002B070BD0C49284603F082F80A492060CA
:10144000284603F0A1F80646B8E700BFA4CC000880
:10145000A4CF000814D000083ED0000800200140AE
:101460000038024057D0000858CD00081FB5044688
:1014700010220021684604F08FFF94F84A200123CF
:1014800001930293122A47D8DFE802F00C0B0A23DB
:101490002527292B2D2F31333537393B3D42440049
:1014A000022300931D4A536823F4400369465360A6
:1014B000204601F061FD204601F0AAFC0A212046E9
:1014C00001F006FD40BB204601F052FD80B204B0A1
:1014D00010BD0323E5E70423E3E70523E1E7062343
:1014E000DFE70723DDE70823DBE70923D9E70A2342
:1014F000D7E70B23D5E70C23D3E70D23D1E70E2342
:10150000CFE70F23CDE71023009307230293C9E70A
:101510001123F9E71223F7E70020D8E70023014061
:1015200030B5036891FAA1F4B4FA84F491FAA1F108
:101530000325B1FA81F1640005FA04F4490023EAB5
:10154000040302FA01F11943016030BD7FB50023A5
:10155000072855D8DFE800F00413202D3A545447EB
:1015600000932A4B2A481A6B42F001021A631B6B44
:1015700003F001030093009B07B05DF804FB0193A7
:10158000224B24481A6B42F002021A631B6B03F0D1
:1015900002030193019BEFE702931C4B1E481A6B59
:1015A00042F004021A631B6B03F004030293029BD4
:1015B000E2E70393154B19481A6B42F008021A63CD
:1015C0001B6B03F008030393039BD5E704930F4BB6
:1015D00013481A6B42F010021A631B6B03F01003DE
:1015E0000493049BC8E70593084B0E481A6B42F01E
:1015F00080021A631B6B03F080030593059BBBE716
:10160000094803F0E1FC0020B6E700BF00380240C3
:10161000000002400004024000080240000C0240AA
:1016200000100240001C02406DD00008431C10B5A1
:10163000044604D176220649064803F0A3FB20465F
:10164000002100F01DFE04F00F040120A04010BD99
:101650008ED00008E8D0000870B504464B1C0E463A
:10166000218216D0C1F30310FFF770FF0546304604
:10167000FFF7DCFF238A074A656103F00F03206050
:1016800052F82330A36105F1100318356360A5609B
:10169000E56070BD4CD30008B0F9100000F088BEC2
:1016A0000A4619B981694069FFF73ABF0122F9E793
:1016B0004C23F0B54343224E224F1A1D32440024DE
:1016C0004FF0010E1E448C4205D10146BDE8F040AA
:1016D0001D4803F079BC33680EFA04F51D422BD087
:1016E000136B7D690EFA03F32B4225D0D2F818C094
:1016F0007B61156805B3FA6833EA020203D1BA6860
:1017000033EA020214D10F4A916833EA010103D18E
:10171000D26833EA02020DD1DCF81020134214BF64
:1017200001210221094B28461B68BDE8F0401847FB
:101730000221F7E70121F5E701340432C3E700BFD6
:10174000000E0020003C014022D1000814100020AF
:1017500006210846FFF7ACBF05210846FFF7A8BFE2
:1017600001210420FFF7A4BF01210320FFF7A0BF40
:1017700001210220FFF79CBF01210846FFF798BF17
:1017800001210020FFF794BF012910B518D11B4C8F
:10179000838952B1A26803F00F0399401143A160FD
:1017A000836843F00103836010BDA26803F00F0358
:1017B000994022EA0101A160836823F00103F2E766
:1017C0000229F1D10D4983895AB1CC6803F00F0386
:1017D000012202FA03F32343CB60836843F0020340
:1017E000E1E7CA6803F00F03012404FA03F322EAD5
:1017F0000303CB60836823F00203D4E7003C01407D
:10180000B0F90C3099B270B501F00F0606F00C0477
:1018100004F1804404F59C3401F00301A5688900BB
:101820000F228A40C3F3031325EA02058B402B43A2
:10183000A3600F4B01221968B240114319608468FC
:10184000E50742BF996811439960A10742BFD96873
:101850000A43DA6090F90030002B08DB59090122B5
:1018600003F01F0302FA03F3024A42F8213070BD6D
:10187000003C014000E100E02DE9F04F92464A1C97
:1018800085B080460C4666D000220392334A344F1E
:10189000516C41F480415164526C02F480420392D5
:1018A000039A04F00F090C2202FB0972C4F303101F
:1018B0005568062D47D8DFE805F0043A3C3E404223
:1018C0004400284E0193FFF741FE0C2101FB09F172
:1018D0007A1857F801E0244FA8F80C404C216943CE
:1018E00001247B5892F90820C8F8045004FA0EF439
:1018F0004FF0000B1C4388F80020C8F808B07C505B
:10190000132101FB05E507EB8501019B4B60174B9C
:10191000C861C3F800A0164BC1F834909B68103220
:10192000404643F82260FFF76BFF584610E0114E27
:10193000C8E7114EC6E7114EC4E7114EC2E7114E7B
:10194000C0E7114EBEE7114803F03EFB4FF0FF30F9
:1019500005B0BDE8F08F0846FAE700BF0038024046
:101960004CD1000881170008000E00201410002040
:1019700000ED00E0791700087117000869170008EA
:10198000611700085917000851170008FBD000081C
:1019900083890C2203F00F0370B55A431C4CA51821
:1019A000A4581C4A6E689568012101FA03F3DB43D1
:1019B0001D409560D5681D40D56015682B401360AB
:1019C0004C237343144AD35801FA04F4A3431ED1A1
:1019D00090F90030002B0CDB5A0903F01F039940EB
:1019E00002F120030D4A42F82310BFF34F8FBFF3DB
:1019F0006F8F90F90030002B09DB5A09012103F0A9
:101A00001F0301FA03F36032044941F8223070BD2C
:101A10004CD10008003C0140000E002000E100E035
:101A2000838903F00F020C235343104A70B4D65835
:101A300043680F4A4C215943012404FA06F55458CF
:101A400024EA05045450132101FB036302EB8304D1
:101A5000002161609C1D0C3302EB840402EB8303C4
:101A60006160596070BCFFF793BF00BF4CD10008A4
:101A7000000E002008B502F003FA002008BD0000A7
:101A800008B50A4B1B684BB102F002FD03F0EBF8FE
:101A90004FF47A7200230AF029F908BD02F050FAD7
:101AA0004FF47A73B0FBF3F008BD00BF18100020AC
:101AB00010B588B003F02EF9052101A802F067FBEC
:101AC0000424039B019A1A60962003F0D7FA019B25
:101AD000049A1B041360962003F0D0FA013CF0D165
:101AE0000424039B019A1A604FF4C87003F0C6FAED
:101AF000019B049A1B0413604FF4C87003F0BEFAF4
:101B0000013CEED1DCE7000070B50D46A0B0044604
:101B100003F000F92B4622468021684606F09AFB26
:101B2000051E03DC03F00CF920B070BD094B1B68E7
:101B300023B903220221084800F0F2FE064E0024D9
:101B40001DF804103046013401F068F8A542F7D1C1
:101B5000E8E700BF70100020901100200FB407B517
:101B600004A951F8040B0191FFF7CEFF03B05DF813
:101B700004EB04B07047000008B502F02FF901F043
:101B800087F802F01BF902F029F9024B01221A60D2
:101B900008BD00BF18100020002070470368012214
:101BA0001B6900211847036800221B69114618476A
:101BB00003681B69184703689B69184703689B6A99
:101BC000184700290CBF6FF0180000207047012053
:101BD00070471120704770476FF01C0070476FF01E
:101BE00015007047012070470020704770470000C3
:101BF000F8B5074E15460C468F18BC4205D014F8B0
:101C0000011B304601F00AF8F7E72846F8BD00BF8F
:101C10009011002038B58DB215F0010405D00848A8
:101C200000F00CFE041C18BF0124EB0605D5044887
:101C300000F01AFE08B144F01004204638BD00BF81
:101C40009011002010B5044604F018FA204610BD8B
:101C500010B50C462AB1044800F0CEFF20700120D8
:101C600010BD104610BD00BF9011002038B51D46B4
:101C7000074B0360074B1B68044633B9064800F066
:101C80004FFE2946044800F025FE204638BD00BF1F
:101C900014D200087010002090110020002070471E
:101CA0000020704708B5012000F036F80C4A136890
:101CB00010B51844EFF30881884205D3094B0C2274
:101CC0001A604FF0FF3010BD07490C6824B1074976
:101CD000096821448842F1D21060184610BD00BF47
:101CE0009C020020E41200202C1000203010002064
:101CF000074C08B523680546986803F053FC236831
:101D0000D86803F04FFC0DB1FFF7D2FEFEE700BF2D
:101D1000A80200200120704708B5FFF7E9FF012065
:101D20007047002104F04EBC03F04EBC7047704772
:101D300008B5FFF7FBFF08BD08B5FFF7F8FF08BDC2
:101D400010B5037803F00303012B04460CD02BB12C
:101D500040F2A9520549064803F014F8237843F0ED
:101D600002032370012010BD002010BD79D20008AD
:101D7000D0D2000810B5037803F00303022B044609
:101D800005D040F2B1520549054802F0FBFF237827
:101D900023F0030343F00103237010BD79D2000840
:101DA000F6D200083F2870B504462FDC184D55F8D0
:101DB00020305A1C13D1022811DCFFF771FF0346B3
:101DC00058B92046FFF76AFF034630B9114E337801
:101DD000BFF35B8FDB0704D50F4B45F82430184663
:101DE00070BD3046FFF7ACFF0028F5D04FF4165316
:101DF000032202210848FFF739FF3046FFF7BAFFF8
:101E0000064A07490448FFF785FFE5E70023E6E7B0
:101E10009C0100201C1000202810002098010020A8
:101E2000ED1B000838B50546FFF7BCFF0B4B00243F
:101E300043F8254030B903F0A3FA092303604FF0BB
:101E4000FF3038BD03685B699847051E04DA03F06C
:101E500097FA6D420560F2E7204638BD9C010020EC
:101E6000FFF7E0BF38B50C461546FFF79BFF38B9C2
:101E700003F086FA092303604FF0FF34204638BD93
:101E800003682146DB682A469847041EF6DA03F009
:101E900077FA64420460EFE708B5131E06DA03F030
:101EA0006FFA162303604FF0FF3008BD04D0FFF730
:101EB000D9FF40EAE07008BD184608BD38B50C46A9
:101EC0001546FFF76FFF38B903F05AFA092303608C
:101ED0004FF0FF34204638BD036821469B682A46F0
:101EE0009847041EF6DA03F04BFA64420460EFE709
:101EF000002A08B503DBBDE80840FFF7DFBF03F0A9
:101F00003FFA162303604FF0FF3008BD10B5FFF70E
:101F100049FF044628B903F033FA09230360204639
:101F200010BD0368DB699847041EF8DA03F028FA4D
:101F3000644204600024F2E71FB504220C464023EB
:101F40000DEB020101900DF109008DF8083004F04D
:101F500021F9214602A803F08FFC044630B1019814
:101F6000FFF7D4FF10B12046FFF7DBFE204604B098
:101F700010BDFFF7CBBF38B50C461546FFF712FF73
:101F800038B903F0FDF9092303604FF0FF34204610
:101F900038BD036821461B692A469847041EF6DAB5
:101FA00003F0EEF964420460EFE7FFF7E4BF38B5F1
:101FB0000D46FFF7F7FE044630B903F0E1F90923B7
:101FC00003604FF0FF3038BD0368DB699847002895
:101FD00014BF4FF400534FF400436B602368204656
:101FE0009B6A98472861002038BDFFF7E0BF0000DA
:101FF00037B5054604F03AF8044630B90090034678
:102000002A460349034803F001F8204603B030BDD7
:102010005CD200081F01018004F030B810B50446FE
:102020000948FFF7EFF80023084A194652F8230041
:10203000A04208BF42F823100133402BF6D10248DA
:10204000FFF7E0F810BD00BF201000209C01002029
:1020500010B50F48FFF7D6F80E4B032453F8242091
:102060006AB10134402CF9D103F08AF918230360D6
:102070000748FFF7C7F84FF0FF34204610BD4FF078
:10208000FF32034843F82420FFF7BCF8F5E700BF10
:10209000201000209C01002010B50446FFF7D8FF57
:1020A0000028A4BF014B43F8204010BD9C01002034
:1020B00070B506460C46FFF7EFFF054690B1214686
:1020C000FFF73AFF044630B9074B53F825209642F4
:1020D00003D143F82500204670BD03F051F90923D0
:1020E0000360F8E70446F6E79C0100200EB42DE9F2
:1020F000F04185B00546FFF7ABFF041E13DB00235C
:10210000294602A8019302F04FFE02A802F09EFEAB
:102110001B4D064668B903F033F91323036045F8F5
:1021200024604FF0FF34204605B0BDE8F04103B015
:10213000704702A802F078FE074602A837B102F005
:102140007CFE0190019B45F82430ECE702F063FE31
:1021500006460028DFD0036802A8D3F8088002F002
:102160004FFE0B9B024601A93046C0470646002899
:10217000E8D003F005F97642066045F82470D0E710
:102180009C01002073B50E461849054604F01CFB5F
:10219000044620B9FFF706FE204602B070BD144980
:1021A000284604F011FB20B90120FFF7FBFD0124B4
:1021B000F2E71049284604F007FB20B90220FFF798
:1021C000F1FD0224E8E72B78402B07D10422691C9B
:1021D0000DEB020003F0DEFF019CDDE726F4004179
:1021E0002846FFF783FF0446D6E700BF3DD300082B
:1021F00044D3000835D3000870477047074B08499F
:102200009A68084810B5043A52F8044F41F8044F50
:102210008142F9D14FF000529A6010BD00ED00E00C
:10222000FCFFFF1F9001002008B5FFF7E7FFFFF755
:10223000A3FCFFF7E2FF08BD08B5FFF7DDFFBDE82F
:102240000840FEF761B830B5C36891FAA1F4B4FA5A
:1022500084F491FAA1F10325B1FA81F1640005FA41
:1022600004F4490023EA040302FA01F11943C160AE
:1022700030BD012A02D0022A18BF0022FFF7E3BFB7
:102280002DE9F0410E46411C044604D13E2244494A
:10229000444802F077FD04F00F08434BC4F30310E9
:1022A00053F82850FFF752F906F0070704468368F1
:1022B00095FAA5F1B1FA81F195FAA5F2032049004A
:1022C00000FA01F1B2FA82F223EA0103520002217C
:1022D00001FA02F21343A36087425AD8DFE807F0FD
:1022E0005E1D021DB8F1070FC6F303203BD9626AD9
:1022F0002B0A93FAA3F1B1FA81F193FAA3F34FF009
:102300000F0EB3FA83F389000EFA01F19B0022EA63
:10231000010200FA03F3134363623B46226895FA15
:10232000A5F0B0FA80F095FAA5F14FF0030EB1FADE
:1023300081F140000EFA00F0490022EA00028B40D1
:10234000013F1343012F236005D8636832074CBF58
:102350002B43AB436360C6F3011229462046BDE818
:10236000F041FFF786BF226A95FAA5F3B3FA83F32B
:1023700095FAA5F14FF00F0EB1FA81F19B000EFA1C
:1023800003F3890022EA030200FA01F313432362F4
:10239000C3E767220249054802F0F4FC0023BDE7C9
:1023A0008CD30008E8D000084CD3000852D90008AC
:1023B000431C70B506460D4604D188221B491C48B3
:1023C00002F0E0FC06F00F021A4BC6F3031053F8BC
:1023D0002240FFF7BBF804FB04F2016802EB420362
:1023E0000B40B3FBF2F3013B012B05D8EB1E022B94
:1023F000436809D823434360032D08D101222146B5
:10240000BDE87040FFF735BF23EA04034360012DA8
:10241000F4D0052D01D0022D01D10222EFE7214693
:102420000022BDE87040FFF70EBF00BF8CD300084C
:10243000E8D000084CD3000830B507EE101A284B3E
:1024400002681A60B5EEC07AF1EE10FA89B005465E
:1024500028D4F7EE007AB4EE677AF1EE10FAC8BF2E
:10246000B0EE677AD5ED037AF8EE677A602267EE10
:10247000877A0192FCEEE77AAA68C5ED047A17EE36
:10248000903AB3FBF2F30293002303930593069370
:10249000049307932B7D013B032B16D8DFE803F051
:1024A0001B0517199FED0F7ADCE70424224601A9CA
:1024B0000B4801F0B3F910B10B4802F085FD6B7DBC
:1024C000074821464BB101F065FA09B030BD082438
:1024D000ECE70C24EAE70024E8E701F037FAF4E738
:1024E00034100020000000006DD40008C368ABB1B8
:1024F00007EE903AD0ED046AB8EE677AF8EE666AB5
:10250000C6EE877AB7EE007AF4EE477AF1EE10FA6B
:10251000C8BFF0EE477A17EE900A7047DFED017AF8
:10252000F9E700BF000000002DE9F0474A4C0268BF
:10253000226086B000230E4600930546FFF7D6FFC3
:10254000116A41F211131942074608D1116A40F28B
:102550004443194202BF136823F001031360694624
:1025600001A801F01BF83D482968002380465FFA66
:1025700083F9013350F839208A42F8D111B938482B
:1025800002F022FD08EBC90898F8043053BB00F0B4
:10259000E5FF0090049800990123AB60314B30BBFC
:1025A000B1FBF3F3013B636006F1FF3C2D4B626826
:1025B000B1FBF3FE4FEA41080021B8FBF3F8C4F881
:1025C0000CC063468A464FF6FE79B3F5803F12D2BF
:1025D000B2F5803F0FD2BAF1000F00D06260F1B1C6
:1025E000E3601CE000F0CAFF00900598D3E74A00C2
:1025F000B2FBF3F3D6E7AB685B00AB6030BB0EFB1E
:1026000003F2BCFBF3F34B4502F1FF3221D8B2F5E4
:10261000803F1ED314486260E36002F0D5FC0023C3
:102620000D482361A36001F0B3F810B10E4802F029
:10263000CBFCEE6039462846FFF7FEFE22681368A1
:1026400043F00103136006B0BDE8F08708FB03F216
:10265000D7E701218A46B8E73410002084D4000867
:1026600058D4000840420F006DD4000870B50E46E3
:10267000044688B05449304601F062FF20600130C2
:1026800004D12E225149524802F07CFB4E4930467B
:1026900001F07AFF431C054604D132224B494D48D4
:1026A00002F070FBC5F304334B4A23752368C5F36E
:1026B0004045934265754FF000021AD10092474A97
:1026C000516C41F001015164526C02F00102009220
:1026D000009A434A934229D1002305933F4B5A6CF9
:1026E00042F480325A645B6C03F480330593059B9B
:1026F00058E0B3F1804F0BD10192384A116C41F090
:1027000001011164126C02F001020192019AE0E7EA
:1027100034498B421AD10292304A116C41F00201C5
:102720001164126C02F002020292029A2E4A934243
:102730001AD100230693294B5A6C42F400325A6492
:102740005B6C03F400330693069B2BE027498B4216
:102750001AD10392214A116C41F004011164126CE8
:1027600002F004020392039A214A93421AD10023F1
:1027700007931A4B5A6C42F480225A645B6C03F440
:1027800080230793079B0DE01A498B42A1D1134B7D
:1027900004921A6C42F008021A641B6C03F00803DE
:1027A0000493049B0849304601F080FE0023E36057
:1027B00023610123A680A36044F620612046FFF731
:1027C000B3FE08B070BD00BF88CD0008E4D3000898
:1027D00040D400083ED0000800000140003802400C
:1027E0000040014000040040004401400008004057
:1027F00000480140000C004007EE101ADFED047A9B
:1028000067EE277AFDEEE77A17EE901AFFF78CBE97
:10281000002474490FB407B5064B07491B6805AA85
:10282000D868019205F09EFC03B05DF804EB04B09B
:10283000704700BFA8020020CCD400084368094AB2
:102840009B0182B0D3581A68120706D50022019264
:102850001A6801925A680192019A1868C0F34010F0
:1028600002B07047DC1100204368034A9B01D35833
:102870001868C0F3C0107047DC110020426814498A
:10288000920110B404685450531882685A60C268A8
:102890009A600269DA6042691A61026A9A610022EA
:1028A000DA84DA619A84DA859A85B0F91A200132DD
:1028B00006D108225A6118465DF8044B01F097B919
:1028C000B0F9182001320CBF04220C22F2E700BF3D
:1028D000DC11002010B581600C46FFF7CFFF28B156
:1028E00021460348BDE81040FFF794BF10BD00BF6C
:1028F000CCD40008094B98420BD0A3F54C43984226
:1029000009D003F5504398420CBF02204FF0FF302E
:102910007047002070470120704700BF0010014041
:10292000F0B50E4685B0044645493046154601F0DF
:1029300007FE44490746284601F002FE0146384694
:1029400001F0D8FD2060013004D13D223E493F48CE
:1029500002F018FA022E0CD0032D0AD038490220BA
:1029600001F0EEFD874202D1394802F02DFB00272D
:1029700000E00127374B206898424FF0000340D118
:102980000193354B5A6C42F010025A645B6C03F0B1
:1029900010030193019BFFF7ADFF0028606004DA8C
:1029A000A42229492D4802F0EDF92549304601F0CD
:1029B0007DFD2449284601F079FD721C03D00121D8
:1029C0003046FFF7F5FC6B1C03D001212846FFF7CA
:1029D000EFFC4FF41653A3600023E36023616361AF
:1029E0002362268365832046FFF748FF3FB11C4BD7
:1029F0001C4801221A6021464C2203F0CBFB05B093
:102A0000F0BD194A90420BD10293134B1A6C42F459
:102A100000321A641B6C03F400330293029BBAE782
:102A2000124A9042B7D103930B4B5A6C42F02002EA
:102A30005A645B6C03F020030393039BABE700BF76
:102A40005CCF000814CF0008F6D4000852D5000867
:102A50006ED500080010014000380240A3D50008E0
:102A6000701000209011002000440040001401402C
:102A7000002808DB4209012300F01F0003FA00F0E0
:102A8000014B43F82200704700E100E000280DDB15
:102A90004309012200F01F0002FA00F02033044A2B
:102AA00042F82300BFF34F8FBFF36F8F704700BF13
:102AB00000E100E0F7B5FFF71DFF071E26DB144E0F
:102AC00056F8270010B3134CBD0163591A6812065B
:102AD00006D5DB68190603D50F4B01211B68984703
:102AE00063591A68920608D5DB68980605D50A4B23
:102AF00056F827001B680021984763591A68110788
:102B000004D55A69D20744BF5B68019303B0F0BD96
:102B100078100020DC110020741000200148FFF71D
:102B2000C9BF00BF001401400148FFF7C3BF00BF89
:102B3000004400400148FFF7BDBF00BF0010014046
:102B4000034B19604168034B43F82120704700BFD5
:102B5000741000207810002009C830B4204CA04226
:102B60000AD004F58064A0421AD0A4F55044A042D3
:102B700019D11C4C262001E01B4C25201B4D9B012C
:102B8000BAB1EA58D36889B943F02003D360184B2F
:102B900000F110029B6843F8224030BCFFF768BF89
:102BA000144C4720EAE700242046E7E743F080037F
:102BB000ECE7EB58DA6849B922F02002DA60DB680A
:102BC00013F0800F09D130BCFFF760BF22F0800204
:102BD000DA60DB6813F0200FF4E730BC704700BF09
:102BE00000100140292B0008352B0008DC110020C3
:102BF00000ED00E01D2B000838B544680546284666
:102C0000FFF71CFE0028FAD0A401034B1B5958689B
:102C1000C0F3080038BD00BFDC11002070B5456866
:102C200006460C463046FFF71FFE0028FAD0AD01DD
:102C3000024B5B59C4F308045C6070BDDC110020DA
:102C4000DFF830D0002103E00B4B5B5843500431D8
:102C50000A480B4B42189A42F6D30A4A02E0002374
:102C600042F8043B084B9A42F9D301F003F8FDF710
:102C7000B1FA704700800120A0DF00089801002011
:102C8000680C0020680C0020E8120020FEE7704766
:102C900008B50B4B1A6842F400721A601A6842F4C5
:102CA00080621A601A6842F480721A60032000F091
:102CB000F9F90F20FEF7DEFEFFF7E9FF002008BD5F
:102CC000003C02407047000010B50446002800F0A8
:102CD0009980036C23B9436480F83C30FFF7F2FF1E
:102CE000236CDB0600F18C80236C23F4885323F0E3
:102CF000020343F002032364434B5A6822F4403238
:102D00005A605A6861680A435A60236821695A68A0
:102D100022F480725A605A6842EA01225A605A6864
:102D2000A16822F040725A605A680A435A609A6851
:102D3000E16822F400629A609A680A439A60334913
:102D4000A26A8A4250D0996821F0706199609968AE
:102D50000A439A609A68E16A22F040529A609A683F
:102D60000A439A609A68A16922F002029A609A68FE
:102D700042EA41029A60226A002A3DD05A68616A9A
:102D800042F400625A605A6822F460425A605A68FB
:102D9000013942EA41325A60DA6AE16922F470028A
:102DA000DA62DA6A013942EA0152DA629A68216B20
:102DB00022F400729A609A6842EA41229A609A6804
:102DC000616922F480629A609A68002042EA812256
:102DD0009A606064236C23F0030343F001032364CF
:102DE000002384F83C3010BD9A6822F070629A602B
:102DF0009A6822F04052B4E75A6822F40062CAE7A7
:102E00000120EDE7012010BD002301400100000F6B
:102E100082B00023019390F83C30012B4ED0012367
:102E200080F83C3003689A68D10705D59A68D207C4
:102E300014D4002002B070479A68214942F0010280
:102E40009A60204A1268B2FBF1F202EB4202019250
:102E5000019A002AEAD0019A013AF8E7026C22F4BA
:102E6000E06222F0010242F4807202645A68510565
:102E700041BF026C22F4405242F480520264026C60
:102E800012F480521CBF426C22F0060242640022FF
:102E900080F83C206FF022021A600B4A5268D2067A
:102EA00008D1986810F04050C3D19A6842F080422F
:102EB0009A60BFE7054A9342BBD1F2E70220B9E727
:102EC00040420F00A00200200023014000200140EA
:102ED00003689A6870B5560504460D460BD59B6885
:102EE000D80508D5236C43F020032364002384F81D
:102EF0003C30012070BDFEF7C3FD064623681A680A
:102F000092070CD56FF012021A60226C42F4007224
:102F100022649A6812F0405F13D0002070BD691CD3
:102F2000EDD045B9236C43F004032364002384F8F7
:102F30003C30032070BDFEF7A3FD801B8542DDD22F
:102F4000F0E7A269002AE8D1DA6A12F4700F02D021
:102F50009B685B05E1D4236C23F480732364206CAD
:102F600010F48050D9D1236C43F00103236470BD69
:102F70000368D86C70470000F7B50023019390F800
:102F80003C30012B00F083800D6804688A680123BF
:102F9000092D80F83C30AEB22AD906EB4603E7682B
:102FA0001E3B4FF0070E0EFA03FE27EA0E07E760FE
:102FB000E76802FA03F33B43E3604A68062A4FEAF4
:102FC000820325D81344676B591F1F238B4027EAC0
:102FD00003036363626B06FA01F1114361632D4BD6
:102FE0009C4234D0002380F83C30184603B0F0BD3A
:102FF000276905EB45034FF0070E0EFA03FE27EA9B
:103000000E072761276902FA03F33B432361D4E7E4
:103010000C2A0ED81344216BA3F123021F239340E3
:1030200021EA03032363236B06FA02F21A432263A5
:10303000D5E71344E16A413B1F229A4021EA02028C
:10304000E262E26A06FA03F11143E162C7E7122D78
:1030500004D1114A536843F480035360A5F110036F
:10306000012BBFD80C4A5368102D43F40003536062
:10307000B8D10A4B0A4A1B68B3FBF2F20A23534346
:103080000193019B002BADD0019B013BF8E702208F
:10309000ACE700BF0020014000230140A002002057
:1030A00040420F00074AD36823F4E0631B041B0C63
:1030B00043F0BF63000243F4003300F4E0600343D5
:1030C000D360704700ED00E02DE9F341044618B9E4
:1030D000012002B0BDE8F0810368DD0710D4236849
:1030E000980758D423681A0700F19A8023685B0771
:1030F00000F1B880A269002A40F019810020E8E7B9
:10310000A64B9A6802F00C02042A07D09A6802F0D3
:103110000C02082A0AD15B68590207D59F4B1B682D
:103120009A03DCD56368002BD9D1D1E763689B4D46
:10313000B3F5803F11D12B6843F480332B60FEF749
:103140009FFC964D06462B689B03C8D4FEF798FC5F
:10315000801B6428F7D90320BBE7B3F5A02F04D167
:103160002B6843F480232B60E5E72A6822F4803241
:103170002A602A6822F480222A60002BDFD1FEF721
:103180007FFC06462B689F03A9D5FEF779FC801BC0
:103190006428F7D9DFE7814B9A6812F00C0F07D04B
:1031A0009A6802F00C02082A11D15B685E020ED404
:1031B0007A4B1A68950702D5E268012A88D11A6805
:1031C000216922F0F80242EAC1021A608AE7E26845
:1031D000734BB2B101221A60FEF752FC6F4D0646E6
:1031E0002B68980707D52B68226923F0F80343EA78
:1031F000C2032B6076E7FEF743FC801B0228EFD961
:10320000A9E71A60FEF73CFC644D06462B68990757
:103210007FF568AFFEF734FC801B0228F6D99AE7E9
:103220006269604B7AB101221A60FEF729FC5B4D9E
:1032300006466B6F9F073FF559AFFEF721FC801BD9
:103240000228F6D987E71A60FEF71AFC534D0646A6
:103250006B6F98077FF54AAFFEF712FC801B0228C0
:10326000F6D978E74D4B1A6C12F0805228D10192B2
:103270001A6C42F080521A641B6C03F08053019365
:10328000019B0126484D2B68D9051BD5A368434DEA
:10329000012B27D12B6F43F001032B67FEF7F0FBC7
:1032A0003E4D074641F288382B6F9B0739D5002EDB
:1032B0003FF420AF394A136C23F08053136419E7AD
:1032C0000026DFE72B6843F480732B60FEF7D8FB02
:1032D00007462B68DA05D9D4FEF7D2FBC01B0228BB
:1032E000F7D938E7052B04D12B6F43F004032B6784
:1032F000D0E72A6F22F001022A672A6F22F0040227
:103300002A67002BCAD1FEF7BBFB41F2883807467B
:103310002B6F9807CBD5FEF7B3FBC01B4045F7D901
:1033200019E7FEF7ADFBC01B4045BDD913E71B4DA8
:10333000AB6803F00C03082B3FF4CAAE1B4E00230E
:10334000022A336034D1FEF79BFB07462B689901B4
:103350001ED4226AE3691343626A43EA8213E26A73
:1033600043EA0263A26A0D4C5208013A43EA02435F
:103370006B6001233360FEF783FB054623689A01E7
:103380003FF5BCAEFEF77CFB401B0228F6D9E2E617
:10339000FEF776FBC01B0228D8D9DCE600380240D5
:1033A00000004742800E47420070004060004742E4
:1033B000FEF766FB04462B689B017FF59FAEFEF788
:1033C0005FFB001B0228F6D9C5E600BF134908B50C
:1033D0008B6803F00C03042B03D0082B03D0104898
:1033E00008BD104808BD4A684B68496813F480035B
:1033F00014BF0C480A48C1F3881118BF002302F01B
:103400003F02A1FB000108F071FC044B5B68C3F3B1
:10341000014301335B00B0FBF3F008BD003802400C
:103420000024F40000127A002DE9F0410D46044614
:1034300010B90120BDE8F081444B1A6802F00F0278
:103440008A4228D321688F072DD4C80740D43F4B28
:103450001A6802F00F02954266D3226851076CD4B5
:10346000130707D53A4A2169936823F4604343EA76
:10347000C1039360FFF7AAFF354B364A9B68C3F33D
:103480000313D35CD840344B18600F20FEF7F2FAD8
:103490000020BDE8F081CAB21A701B6803F00F0368
:1034A0009942C6D1CEE72A4B11F0040F1EBF9A688D
:1034B00042F4E0529A600E0742BF9A6842F46042BA
:1034C0009A609A68A06822F0F00202439A60BCE712
:1034D00062681F4B012A1DD11B6813F4003FA8D05E
:1034E0001B4EB36823F003031343B360FEF7C8FA1F
:1034F00041F288380746B368626803F00C03B3EB07
:10350000820FA4D0FEF7BCFAC01B4045F3D90320BC
:10351000BDE8F081911E01291B6802D813F0007FDD
:10352000DDE713F0020FDAE7EAB21A701B6803F066
:103530000F039D427FF47DAF8FE70549E0688B68FC
:1035400023F4E05303438B608AE700BF003C024052
:1035500000380240C9D50008A0020020044B054AEB
:103560009B68C3F38223D35C034A1068D84070473A
:1035700000380240D9D50008A0020020044B054ABB
:103580009B68C3F34233D35C034A1068D84070474A
:1035900000380240D9D50008A00200200F230360A4
:1035A0000B4B9A6802F0030242609A6802F0F00244
:1035B00082609A6802F4E052C2609B68DB0803F400
:1035C000E0530361034B1B6803F00F030B6070476C
:1035D00000380240003C0240036A23F0010303620A
:1035E000036A70B5446882690D6822F073022A4349
:1035F0008D6823F002032B430A4DA8420BD1CD68FE
:103600008E6923F008032B434D6924F4407435433D
:1036100023F004032C43446082614A6842630362DE
:1036200070BD00BF00000140036A23F48073036291
:10363000036A70B54468C2690D6822F073022A43B8
:103640008D6823F4007343EA05230B4DA8420DD186
:10365000CD688E6923F4006343EA05234D6924F4A1
:103660004054354323F4806344EA05144460C26146
:103670004A68C263036270BD00000140036A23F41C
:1036800080530362036A30B54468C2690D6822F44E
:10369000E64242EA05228D6823F4005343EA0533EB
:1036A000064DA84202BF4D6924F4804444EA8514C3
:1036B0004460C2614A680264036230BD0000014098
:1036C00070477047224A036890420ED0B0F1804F95
:1036D0000BD0A2F57C42904207D002F58062904266
:1036E00003D002F58062904219D14A6823F070033A
:1036F0001343174A904204D1CA6823F4407313431A
:1037000018E0B0F1804FF7D0124A9042F4D002F5A1
:1037100080629042F0D002F580629042ECD00E4A76
:103720009042E9D002F580629042E5D002F58062D5
:103730009042E1D003608B68C3620B688362044BE4
:10374000984204BF0B69036301234361704700BFC4
:1037500000000140000400400040014010B5044654
:10376000A0B190F8393003F0FF021BB980F838207F
:10377000FFF7A6FF022384F839302068211DFFF7E8
:10378000A1FF012384F83930002010BD012010BDB5
:1037900010B50446A0B190F8393003F0FF021BB910
:1037A00080F83820FFF78DFF022384F83930206835
:1037B000211DFFF787FF012384F83930002010BD59
:1037C000012010BD036A23F010030362036A70B581
:1037D000446882690D6822F4E64242EA05228D6857
:1037E00023F0200343EA05130B4DA8420DD1CD6809
:1037F0008E6923F0800343EA05134D6924F4406485
:10380000354323F0400344EA8504446082614A68FA
:103810008263036270BD00BF0000014038B590F8BC
:103820003830012B04464FF0020025D0012384F8E4
:10383000383084F839000C2A18D8DFE802F007176E
:1038400017171E1717172F17171740002068FFF7B5
:10385000C3FE236809699A6942F008029A619A696D
:1038600022F004029A619A690A439A6101230020B6
:1038700084F8393084F8380038BD2068FFF7A2FF9B
:10388000236809699A6942F400629A619A6922F48C
:1038900080629A619A6942EA0122E6E72068FFF7AE
:1038A000C3FE23680969DA6942F00802DA61DA695D
:1038B00022F00402DA61DA690A43DA61D6E72068A5
:1038C000FFF7DCFE23680969DA6942F40062DA6115
:1038D000DA6922F48062DA61DA6942EA0122ECE70D
:1038E000036A10B501248C4023EA04030362036ACF
:1038F0008A401A43026210BD10B5044600220068D7
:10390000FFF7EEFF2368104A93420DD1196A41F286
:103910001112114208D1196A40F24442114202BF09
:103920005A6C22F400425A64196A41F2111211428F
:1039300008D1196A40F24442114202BF1A6822F0CB
:1039400001021A60002010BD0000014010B50446BD
:1039500001220068FFF7C4FF2368064A934202BFB2
:103960005A6C42F400425A641A6842F001021A602A
:10397000002010BD00000140FFF7E8BF036A10B54A
:1039800004248C4023EA04030362036A8A401A4336
:10399000026210BD10B5044604220068FFF7EEFF76
:1039A00023685A6C42F400425A641A6842F00102D9
:1039B0001A60002010BD00002DE9F0470668C268BB
:1039C0003369C16923F44053134333610446836868
:1039D0000069F2680343606922F41642034322F04F
:1039E0000C020B431343F3607369A26923F4407321
:1039F0001343B1F5004F73617A4B7CD19E4203D0E3
:103A000003F580639E4244D1FFF7B8FD192505FBFD
:103A100000F360684FF064094000B3FBF0F3B3FBC0
:103A2000F9F34FEA0318FFF7A9FD636868435B00E9
:103A3000B0FBF3F7FFF7A2FD636868435B00B0FBE0
:103A4000F3F3B3FBF9F309FB1373DB003233B3FB7E
:103A5000F9F35B0003F4F877FFF790FD62686843C1
:103A60005200B0FBF2FAFFF789FD636868435B0020
:103A7000B0FBF3F3B3FBF9F309FB13A3DB00323321
:103A8000B3FBF9F303F0070343443B44B360BDE8E1
:103A9000F087FFF763FD192505FB00F360684FF021
:103AA00064094000B3FBF0F3B3FBF9F34FEA0318EA
:103AB000FFF754FD636868435B00B0FBF3F7FFF763
:103AC0004DFD636868435B00B0FBF3F3B3FBF9F3B0
:103AD00009FB1373DB003233B3FBF9F35B0003F430
:103AE000F877FFF73BFD626868435200B0FBF2FADB
:103AF000FFF734FDB9E79E4202D03B4B9E4240D1D6
:103B0000FFF73CFD676819254FF0640905FB00F3DA
:103B1000BF00B3FBF7F3B3FBF9F31F01FFF72EFD73
:103B2000636868439B00B0FBF3F8FFF727FD636809
:103B300068439B00B0FBF3F3B3FBF9F309FB13837A
:103B40001B013233B3FBF9F303F0F008FFF716FD66
:103B5000626868439200B0FBF2FAFFF70FFD6368FA
:103B600068439B00B0FBF3F3B3FBF9F309FB13A32A
:103B70001B013233B3FBF9F303F00F0343EA0803ED
:103B800083E7FFF7EBFC676819254FF0640905FB35
:103B900000F3BF00B3FBF7F3B3FBF9F31F01FFF72B
:103BA000DDFC636868439B00B0FBF3F8FFF7D6FCCD
:103BB000636868439B00B0FBF3F3B3FBF9F309FBC5
:103BC00013831B013233B3FBF9F303F0F008FFF763
:103BD000C5FC626868439200B0FBF2FAFFF7BEFCD6
:103BE000BDE700BF0010014000140140704710B550
:103BF000044640B390F8393003F0FF021BB980F857
:103C00003820FFF7F3FF2268242384F83930D36883
:103C100023F40053D3602046FFF7CEFE23681A69D1
:103C200022F490421A615A6922F02A025A61DA6833
:103C300042F40052DA6000202023E06384F8393037
:103C400084F83A3010BD012010BD7FB50F230193D9
:103C5000022100234FF4805201A8029103930492A1
:103C60000593FFF7E1FBB0FA80F0400907B05DF87B
:103C700004FB00000F49D1F8883043F47003C1F809
:103C800088300D4B1A68002042F001021A609860DB
:103C90001A6822F0847222F480321A60074A5A604D
:103CA0001A6822F480221A60D8604FF000638B609B
:103CB000704700BF00ED00E00038024010300024E3
:103CC00000B58FB01D4B002100911A6C42F080525C
:103CD0001A641B6C1A4A03F080530093009B0191F5
:103CE000136823F4404343F400431360136803F460
:103CF00040430193019B01230293C8B94FF48033E1
:103D00000393022308934FF48003099308230A9333
:103D10004FF4A8730B9304230C9302A807230D936D
:103D2000FFF7D2F938B9FFF790FF0FB05DF804FB49
:103D30004FF4A023E4E70020F7E700BF003802407B
:103D40000070004010B58EB000241A4B00941A6C1D
:103D500042F080521A641B6C174A03F080530093A0
:103D6000009B0194136823F4404343F40043136021
:103D70001368039403F440430193019B09940323C4
:103D8000029301230593102306930A934FF4A8731B
:103D90000B93042302220C9302A8072308920D938D
:103DA000FFF792F918B9FFF750FF0EB010BD20468B
:103DB000FBE700BF003802400070004008B501205A
:103DC000FFF77EFF38B9FFF7BDFF20B90248BDE815
:103DD000084001F0F9B808BDB5D50008174A1849E0
:103DE000936803F00C03042B10B50DD0082B0DD0F5
:103DF000144B0B60114B144A9B68C3F30313D25C42
:103E00000B68D3400B6010BD104BF2E7546850684C
:103E100052686302C2F3881200F03F004CBF0B4BA4
:103E2000084BB3FBF0F35343044A5268C2F3014218
:103E300001325200B3FBF2F3DBE700BF003802406F
:103E4000A00200200024F400C9D5000800127A0066
:103E5000074B084A13601A69910707D5DA68920779
:103E600004D56FF002021A6100F016BB704700BF64
:103E7000000C0040A012002000487047E4D5000864
:103E800030B589B001A903A8FFF788FBFFF766FBEF
:103E9000002302931E4B01901A6C1E4C42F0080244
:103EA0001A641A6C02F008020292029A1A6A42F02C
:103EB00008021A621A6A22F008021A62069AA3F528
:103EC0000B3323604FF0FF33E360134BF2B9B0FBC9
:103ED000F3F00138002560600E482561A56065613A
:103EE000FFF73CFC0D4B0E4A9B680A48C3F80821BB
:103EF0000C4B4FF480225A602946FFF73DFD2268A3
:103F0000D36823F00203D36009B030BD4000DEE780
:103F100000380240A012002040420F0000ED00E0F7
:103F2000513E000800E100E004480268D36823F035
:103F30000203D3600021FFF71FBD00BFA0120020C5
:103F4000014B586A704700BF000C0040054B1B68CE
:103F50006FF0020258631A61DA6842F00202DA6016
:103F6000704700BFA0120020064B1B686FF00202D2
:103F70001A615A6942F002025A61DA6842F002029A
:103F8000DA607047A0120020034B1A68D36823F050
:103F90000203D360704700BFA0120020024B1B68D1
:103FA0006FF002021A617047A012002008B50021CC
:103FB0000348FFF7A1FCBDE80840FFF7E5BF00BFDD
:103FC000A012002003689B6818470000094B10B539
:103FD000002203600023C0E9022300230361436140
:103FE000044600F055FA0449A06100F0B9FD2046EE
:103FF00010BD00BFF4D50008C53F000807B500900C
:1040000000F10801806900F0EAFD03B05DF804FBEF
:1040100000F10801806900F00BBE000010B5034BF1
:1040200003600446FFF7F4FF204610BDF4D50008F6
:1040300070B5D0E90823D0E90245064612196B4154
:10404000FFF7DCFF736B2BB106F128001B68BDE89E
:104050007040184770BDD0B5044616461F4600F0A4
:1040600059FE2046FFF7D4FFC4E90867A06900F0B5
:10407000FAFD321847EB01032046FFF7BFFFBDE80A
:10408000D04000F05DBE7FB5044600F043FE204600
:10409000FFF7BEFF636B13B194F83830E3B904F156
:1040A00028066D4610220021684602F075F9AE42DE
:1040B0000BD03046FCF71EF93EB1039B1BB15B6889
:1040C000694630469847039B63632846FCF712F91C
:1040D00000F036FE04B070BD00F0BAF9DFE7000072
:1040E00038B50546064B45F8283B0446FFF7CBFF9D
:1040F0002846FCF7FFF82046FFF790FF204638BD22
:1041000008D6000810B50446FFF7EAFF2046FDF781
:1041100083FF204610BD70B50E4604461546FDF7D8
:104120009BFA013609D020460021FDF7B9FA29464D
:104130002046BDE87040FDF7AFBA70BD38B5044603
:104140000D4603685AB18268136020460121FDF7CD
:10415000A7FA29462046BDE83840FDF79DBAC26857
:104160001B04F1E70022FFF7D6BFFFF7D4BF70B5FD
:104170000E4604461546FDF76FFA013606D02A466C
:1041800020460021BDE87040FFF7D8BF70BD002277
:10419000FFF7EDBF0346024A2030FDF76DBB00BFBD
:1041A0008D430008F8B50546134B45F8043B04461B
:1041B0000F4610261C220021284602F0EDF8324658
:1041C000002104F1200002F0E7F83246002104F15A
:1041D000300002F0E1F83246002104F1400002F024
:1041E000DBF839462046FFF7D5FF28463946FFF76A
:1041F000B9FF2046F8BD00BF38D600082DE9F041D0
:104200000546154B45F8043B04460F4610269046DC
:1042100000211C22284602F0BFF83246002104F19A
:10422000200002F0B9F83246002104F1300002F01B
:10423000B3F83246002104F1400002F0ADF83946EF
:104240002046FFF7A7FF284642463946FFF78DFF75
:104250002046BDE8F08100BF38D6000883681A68A0
:1042600043681A4214BF01200020704710B5084B64
:10427000044640F8203BFDF7D3FB04F14000FCF777
:1042800039F804F13000FCF735F8204610BD00BFC6
:1042900038D6000810B50446FFF7E8FF2046FDF7C2
:1042A000BBFE204610BD884238B504460D460AD0F4
:1042B000FCF720F83CB1EB681BB15B68294620464F
:1042C0009847EB68E360204638BDF0B50F4685B0EF
:1042D000044600F01FFDFD6804F13006203465B18E
:1042E00039463046FFF7DFFF012201212046FDF766
:1042F0004BFA00F025FD05B0F0BD102229466846B6
:1043000002F04AF869463046FFF7CDFF6846FBF7F2
:10431000F1FF2A46E9E7F0B50F4685B0044600F004
:10432000F9FCFD6804F14006203465B13946304699
:10433000FFF7B9FF012202212046FDF725FA00F020
:10434000FFFC05B0F0BD10222946684602F024F8B3
:1043500069463046FFF7A7FF6846FBF7CBFF2A46C2
:10436000E9E70000C36810B504462BB940F23922D2
:104370000449054800F006FDE36820461B68BDE8D7
:104380001040184714D600082AD60008012908B59D
:1043900002D0022906D008BDC36B13B13030FFF73D
:1043A000E1FF08BDC36C002BFBD04030F7E770473E
:1043B000A0F1BC00FFF7FBBFA0F1BC00FFF7F7BF07
:1043C00000F030B9A0F1BC00FFF7FABF00F02DB942
:1043D000A0F1BC00FFF7FABF10B5044600F034F9B5
:1043E000002104F1BC0000F035FF064B03F1080288
:1043F000226003F128028833C4F8BC20C4F8C0301E
:10440000204610BD40D6000813B50E4C00F082FCCB
:1044100022884FF6FF739A420AD100F091FC0023E4
:10442000228800930849094800F0F0FD02B010BD51
:104430000121204600F092FC02B0BDE8104000F0DF
:104440007FBC00BF8C100020D0D600082301048060
:1044500037B50C4C00F05EFC258855B900F070FCB7
:10446000228800952B460849084800F0CFFD03B08C
:1044700030BD0121204600F07BFC03B0BDE8304098
:1044800000F05EBC8C100020F5D6000824010480EA
:104490000048704714D70008024B1B680BB1024854
:1044A00018477047A402002014D7000813B504462B
:1044B00001300FD102B010BD9C420AD1204689685C
:1044C000FDF7DEFE0021204602B0BDE81040FDF7FA
:1044D0006FBF0C31B1F900305A1CEDD100230093AD
:1044E00022460249024800F091FDE3E78BD700081D
:1044F00030010180884207B502460BD0431C09D029
:1045000001310BD0002306490093064800F07EFDE0
:104510004FF0FF31084603B05DF804FB0146F9E7B0
:104520005AD7000830010180B1F900305A1C01D17E
:1045300018467047834201D1486870470C31F3E751
:10454000421C13B504460BD0FFF7EEFF431C044694
:1045500006D10023024600930349044800F056FDAB
:10456000204602B010BD00BF6BD7000830010180AB
:10457000B1F900305A1C01D118467047834201D16D
:10458000886870470C31F3E7421C13B504460BD022
:10459000FFF7EEFF431C044606D1002302460093BA
:1045A0000349044800F032FD204602B010BD00BFB0
:1045B0003CD70008300101807047704710B480B1CB
:1045C000146853680CB9DA070BD513F0010F4FEAE2
:1045D00063031CBFC2581459184423465DF8044BAA
:1045E00018475DF8044B7047090170B501F1980553
:1045F0000544EB6883B14418D4F8A4302BB940F2D9
:1046000039220649064800F0BDFBD4F8A4302846FC
:104610001B68BDE87040184770BD00BF14D6000885
:104620002AD600084C30FEF7E7BA10B54C300C46DD
:10463000FEF7F4FA204610BDC36810B504460BB16E
:104640009B689847204610BD2DE9F04F87B00025A4
:104650009246009502460195044689469B469DE890
:104660000300324B42F8083B314B82E803002361E0
:1046700048F2070363612F4BE561A4612262636224
:10468000BFF36F8FBFF34F8F102284F8285084F848
:10469000295004F12C0001F07FFE04F14C0629465C
:1046A000102204F13C0001F077FE04F1980829463D
:1046B0004C22304601F070FE04F1A8072946102272
:1046C000404601F069FE29461022384601F064FE9A
:1046D00010222946C4F8B8B002A801F05DFE02A974
:1046E0004046FFF7E0FD02A8FBF704FE1022294632
:1046F00002A801F051FE02A93846FFF7D4FD02A836
:10470000FBF7F8FD524649463046FEF709F9D4F862
:10471000B8103046FEF7DEF8304622460649FEF76E
:104720000FFA204607B0BDE8F08F00BFA4D70008FD
:1047300001A090E8BD450008E94500082DE9FF41CA
:104740000646884656F84C3B17461B6805463C0112
:10475000984700F0DFFAD8F80C3098342C44ABB10D
:10476000E3680BB9FFF750FE41462046FFF79BFD7B
:10477000012239463046FEF7EFF900F0E1FA2B68E6
:1047800028465B68984704B0BDE8F081E3680BB148
:10479000FFF75EFE10220021684601F0FDFD69462C
:1047A0002046FFF780FD6846FBF7A4FD0022E0E706
:1047B0007FB51A4B0360044610220021684601F0C1
:1047C000EBFD002269462046FFF7B8FF6846FBF77D
:1047D00091FD10220021684601F0DEFD01226946AC
:1047E0002046FFF7ABFF6846FBF784FD14F19806FF
:1047F00008D004F1B805B54204D0103D2846FBF7B7
:1048000079FDF8E704F13C00FFF716FF04F12C00F6
:10481000FFF712FF204604B070BD00BFA4D7000808
:1048200010B50446FFF7C4FF2046FDF7F5FB204610
:1048300010BD00002DE9F74FD0F804A09AF83A30E7
:104840000446002B46D103685B68984763681B6A7F
:1048500098423FD0DAF82030DAF80840CAF8200051
:10486000A0EB0308DAF80C30314808EA0308844268
:1048700046464FF0000727D0DAE90A239AF83BB002
:10488000A8FB0089CDE900230025BBF1000F2BD048
:104890005A464046494606F00DFDDDE9002312EB7D
:1048A000080243EB090390465A46994606460F46CE
:1048B00006F00CFDB8EB000069EB0101A94208BF4E
:1048C000A0420AD2CAE90A01DAE90C23B6185F410C
:1048D000CAE90C6703B0BDE8F08F013647F1000765
:1048E000001B61EB0501EDE722462B464046494699
:1048F00007F0FCF9224606460F46404649462B463D
:1049000007F0F4F9DDE9008918EB020849EB030927
:10491000A94508BFA04502D2CAE90A89D4E70136F1
:1049200047F10007B8EB040869EB0509F4E700BF9D
:1049300040420F00824206D98A420BD9884294BF76
:10494000002001207047884206D98A428CBF00208F
:104950000120704701207047002070472DE9F14F7A
:10496000476897F83A300646002B44D197F839301B
:10497000002B40D1FFF75EFF75686B68002B59D0A4
:10498000D5E90C89D3E90001894508BF804505D3E5
:1049900033685B6901B0BDE8F04F1847D5E90623DD
:1049A000B0EB080861EB09094B4508BF42452C698B
:1049B00006D3AB68254A934220D1444528BF4446DC
:1049C0002B6A1C44EB681C403B6AA34205D140F2B1
:1049D00007121F491F4800F0D5F9336820461B69AC
:1049E000984733685B68984722460146386AFFF764
:1049F000A1FF0028CCD101B0BDE8F08F95F83B2095
:104A0000DFF854A04FF0000B7AB14046494606F05B
:104A10005DFC10EB0A0041EB0B010C4A002307F090
:104A200065F9844228BF0446CAE7A3FB080103FBDB
:104A30000911EEE73B69386AFA68184433681B6964
:104A4000104001B0BDE8F04F184700BF40420F00D2
:104A5000B4D7000806D800083F420F002DE9F04FF8
:104A6000436893F8382085B00546002A6FD193F843
:104A70003A30002B6BD103681B6898472B68DB69C1
:104A80009847066804462EB92C2232493248334EE4
:104A900000F078F91F23012202FA03F1B1425FFA14
:104AA00083FB02D0013BF7D19B46D4F804A0AAF1C6
:104AB00004031C2B06D93A222649274800F062F944
:104AC0004FF0200AAAF10403072716F1FF3007FA76
:104AD00003F7224C4FF0000343F1FF313246C4FB91
:104AE000070107F003F96C682A68002323606360FC
:104AF00052680393CDE90001904720626C684FF043
:104B000000084FF000095246C4E90A89A66084F8FB
:104B10003BB00120002106F0D9FBDDE90023C4E908
:104B20000623039B84F8393084F83A300138012396
:104B3000E06027612846C4E90C8984F83830FFF723
:104B400079FE284605B0BDE8F04FFFF707BF05B076
:104B5000BDE8F08FB4D7000852D9000840420F00DA
:104B600038B505460C46FFF779FF00F0D3F86B68BF
:104B70001C60BDE8384000F0E3B870B5044600F0B2
:104B8000C9F82368DB689847636893F83A201AB13C
:104B9000BDE8704000F0D4B8012283F83920636882
:104BA0005B68A3B12046FFF745FE65686E68D5E9EE
:104BB0000C01D6E90023994208BF904207D3F3685D
:104BC0006B602B68002BEAD0B0689847E7E7636812
:104BD000002283F839202046FFF7C0FED8E72DE9F0
:104BE000F04180460C4616461F46069D00F092F89E
:104BF0004046FFF71FFED8F80420A560C4E900670F
:104C0000536800254BB9E36085B954604046FFF70F
:104C1000A5FEBDE8F04100F093B8D3E900018F4252
:104C200008BF8642EFD31D46DB68EBE7EC60F0E798
:104C300038B505460C4600F06DF86A685368A34223
:104C400009D1DB6853602846FFF788FEBDE838408D
:104C500000F076B81346002BF8D0DA689442F9D108
:104C6000E268DA60F2E710B50446FFF7F7FE00F0FD
:104C700051F82046FFF7DEFD00F062F86368D3E9E3
:104C80000C0110BD08B5FFF7EEFF08BD10B5034BD2
:104C900003600446FFF724FA204610BD34D800080C
:104CA00010B50446FFF7F2FF2046FDF7B5F92046A0
:104CB00010BD00001FB5436B044600F1280113B17D
:104CC0005B6868469847636B03932046FFF7DBF900
:104CD000039B2BB940F239220649074800F052F8ED
:104CE000039B68461B6898476846FBF703FB04B0C4
:104CF00010BD00BF14D600082AD60008EFF31080BC
:104D0000C04300F001007047EFF30580003018BF8A
:104D10000120704710B5074C2368013304D151229C
:104D20000549064800F02EF800F0E4FA2368013344
:104D3000236010BDD010002040D8000895D800088E
:104D4000054B1A6832B11A68013A1A601B680BB930
:104D500000F0E2BA704700BFD0100020D0E85F3FFB
:104D60000B449BB2C0E8523F002AF7D11846704767
:104D7000D0E85F3F5B1A9BB2C0E8523F002AF7D1F0
:104D80001846704770B504460D461646FFF7C2FF39
:104D900033462A4621460348FCF7E0FEBDE8704052
:104DA000FCF786BEC6D8000870B50E46002504463E
:104DB000056045600F49304601F0F0FE064426606C
:104DC00023681A782F2A0ED10133236025B92922AE
:104DD00009490A48FFF7D6FF2946304600F0ACF9EA
:104DE0006060204670BD002AF0D001330135236099
:104DF000E6E700BFF7D80008F9D800084BD900084B
:104E000000687047406808B520B100F03CF9431EC7
:104E10005842584108BD10B50446FFF7F3FF10B1E2
:104E2000606800B1043810BD406808B520B100F0DA
:104E30002AF9B0FA80F0400908BD10B50446FFF722
:104E4000F3FF10B1606800B1043810BD4068003055
:104E500018BF0120704700002DE9F0411B4C1C4E8B
:104E6000237836EA200628BF0646012B8EB00F466F
:104E7000904600D1FEE7174DFFF74CFF012323704A
:104E8000FFF75EFF2B6834220133002101A82B605D
:104E900001F082FA2B680196012BCDF80880039768
:104EA00004D1342201A90C4801F074F9342201A97B
:104EB0000A4801F06FF90A4B1B680BB10748984785
:104EC000002020700EB0BDE8F08100BFDC10002093
:104ED0000101FF80D4100020E010002014110020F8
:104EE000D810002073B5294C2168C1F34173032BFE
:104EF0000CBF4D428DB2C1F307432A4606462448F3
:104F0000FCF72CFE6FF498731D44072D09D8DFE8D9
:104F100005F004272A2D30363339A1681D48FCF7E7
:104F20001DFE3046FCF71AFE61681B48FCF716FEB2
:104F3000A1681A48FCF712FEE3690193A369009384
:104F400004F10C010EC91648FCF708FE216815484B
:104F5000FCF704FE144802B0BDE87040FCF7FEBD4B
:104F6000A1681248DBE7A1681148D8E7A168114899
:104F7000D5E7A1681048D2E7A1681048CFE7A1683B
:104F80000F48CCE7A1680F48C9E700BF1411002003
:104F900069D90008BAD9000847DA000857DA0008CA
:104FA0006ADA0008B9DA000805DB0008CFD9000882
:104FB000DED90008ECD90008FED9000811DA000893
:104FC00024DA000832DA00080FB437B50C4D29781E
:104FD000724679B90B48FFF73FFF0B48FFF782FF96
:104FE000012407A906982C700191FCF78DFD20463D
:104FF000FCF792FE03B0BDE8304004B0704700BF3C
:10500000DC1000200001FF8054D9000810B50C46C8
:1050100011467246FFF720FF68B92046FFF762FF8E
:10502000FFF772FE10B9FFF769FE08B930BFFDE760
:105030000120FCF771FE014810BD00BF0F01FF8089
:1050400070B50446FFF724FA0646FFF71BFE054637
:105050003046FFF717FE401BA042F9D370BD000099
:1050600007EE100ADFED047A67EE277AFDEEE77AA5
:1050700017EE900AFFF7E4BF002474494FF47A73E7
:105080005843FFF7DDBF007B7047000038B504468A
:105090000A4B0360002343600D46A1600273084879
:1050A000FCF7B0F845B1074B1A6862601C60044811
:1050B000FCF7A8F8204638BD6560F8E730DB00084B
:1050C0004C1100204811002010B5124B036004461B
:1050D0001148FCF797F8A3682BB1104A13689C425B
:1050E00012D1636813600E4B0B481A68944204BFD8
:1050F00000221A60FCF786F8237B13B9201FFCF707
:105100008DFF204610BD13465A689442FBD1626859
:105110005A60E8E730DB00084C11002048110020FD
:105120005411002010B50446FFF7CEFF2046FCF7CF
:1051300073FF204610BD000070B5064614480D46AA
:10514000FCF760F8134B1C687CB1A068E8B101F073
:10515000B7FCA84219D12A463146A06800F0E8FF02
:1051600098B90B48FCF74EF80DE0072DF9D12A4607
:105170003146094800F0DCFF0028F2D10448FCF772
:1051800041F8064B1C68204670BD6468DCE700BF30
:105190004C110020481100201FDB00085411002092
:1051A0000020704770477047F8B503681B6D0E46C6
:1051B00004468F1898473546BD4207D0236815F836
:1051C000011B9B6C204698470130F5D1236820468F
:1051D0005B6D9847A81BF8BDF8B503681B6D0E46BC
:1051E00004468F1898473546BD4208D023682046AC
:1051F000DB6C9847431C02D005F8010BF4E72368E9
:1052000020465B6D9847A81BF8BD0020704770478B
:10521000002070470020704710B5054B03605033E5
:10522000044640F8043FFFF74FFF204610BD00BF83
:1052300040DB0008A0F10400EEE700BF10B5044613
:10524000FFF7EAFF2046FCF7E7FE204610BDA0F17D
:105250000400F3E7104B13B50022044640F8043B6A
:10526000FFF714FF0D4B236060336360002363611D
:105270000B492046FCF71CFF0346606120B1FCF798
:1052800050FD204602B010BD009002460549064878
:10529000FFF7BCFEF5E700BFA0DC0008B8DB0008A4
:1052A00098DB00089BDB00081901018010B5074B53
:1052B00003F108026833044602604360406900F06D
:1052C000A9F82046FFF7A8FF204610BDB0DB000874
:1052D00038B5036804461B6D9847606900F062F9B1
:1052E0006069FCF721FD236805465B6D2046984701
:1052F000284638BDEFF31083DB4372B6044A1178B9
:1053000029B9044903F001030B700123137070479E
:10531000591100205811002008B5EFF31083DB0766
:1053200004D4352205490648FFF72CFD054B002221
:105330001A70054B1B7803B162B608BD20DC00086B
:105340007CDC00085911002058110020036870B55A
:105350001B690122002104469847051E0DDB2368C6
:1053600002221B69002120469847236806462946E9
:105370001B690022204698473546284670BD00002C
:10538000014B1868704700BFA802002070B539B102
:1053900005460C4608B1836B83B3B4F90C3013B9DE
:1053A0000026304670BD2146284600F03BF8E36AEF
:1053B000064633B1E169284698470028B8BF4FF048
:1053C000FF36A3891B0620D4216B41B104F14003B1
:1053D000994202D0284606F021FE00232363616C27
:1053E00021B1284606F01AFE0023636400F0E0F9BC
:1053F0000023A38100F0DEF9304670BD00F0D2F941
:10540000B4F90C30002BCBD0CDE72169284606F04B
:1054100005FED9E7024B01461868FFF7B7BF00BF8A
:10542000A8020020B1F90C309AB22DE9F0410C46E7
:105430001107804648D4626843F40063002AA381C0
:105440005DDDA56A002D57D000229BB2D8F8006020
:10545000E169C8F8002013F4805254D1012340467A
:10546000A847431C66D0A389A56AE1695F0705D5F3
:105470006268236B801A0BB1E36BC01A02460023EB
:105480004046A847451C48D1D8F80020B4F90C3054
:10549000002A5CD01D2A01D0162A64D1226900217D
:1054A000C4E9002123F40063A381216BC8F80060E4
:1054B00011B304F14003994202D0404606F0AEFD1C
:1054C00000202063BDE8F0812669AEB12568266022
:1054D00091070CBF63690023AD1BA3600AE02B4654
:1054E0003246676AE1694046B8470028A5EB0005E7
:1054F00006440ADD002DF2DC0020BDE8F081E26BFD
:10550000002A9EDCF8E7206DB0E7A38943F0400352
:10551000A3814FF0FF30BDE8F081B4F90C3022696F
:10552000226023F4006300226260DA04A381BCD508
:105530002065BAE7D8F80030002B94D01D2B0FD08F
:10554000162B0DD0A38943F04003A381D5E723F4A4
:1055500000632169A381DB04C4E90012A5D5E7E754
:10556000C8F80060C8E743F04003A381C5E700BF67
:1055700010B5044682B008B1836B23B1B1F90C00B9
:1055800048B902B010BD019100F00CF90199B1F9D0
:105590000C000028F5D0204602B0BDE81040FFF70F
:1055A00041BF00BF20B1054B01461868FFF7E0BFBF
:1055B000034B0449186800F093BC00BFA802002008
:1055C000E8DC00087155000838B50F4B1D6804462B
:1055D0000DB1AB6B4BB16368013B002B63600CDB1F
:1055E00023685A1C2260187838BD284600F0DAF883
:1055F0006368013B002B6360F2DA21462846BDE870
:10560000384000F0C5BF00BFA8020020014900F0EB
:1056100067BC00BF8D5300082DE9F84F45682C4B3F
:10562000C3630024074600F53B7204230321C0E94D
:10563000B912C0F8E0422146EB6005F15C006C66EF
:10564000C5E90044AC60C5E90444AC61082200F03F
:10565000A3FEDFF888B0BE68DFF884A0DFF884908E
:10566000DFF884801B4BC5F82C80C5E9075BC5E9D2
:1056700009A92146F360082206F15C007466C6E9B8
:105680000044B460C6E90444B46100F085FEFD68DE
:10569000114BC6F82C80C6E9076BC6E909A921465B
:1056A000EB606C66C5E90044AC60C5E90444AC61DC
:1056B00005F15C00082200F06FFE0123C5E9075BDD
:1056C000C5E909A9C5F82C80BB63BDE8F88F00BF08
:1056D0000D560008090001001200020029670008A9
:1056E0004D6700088D670008AD67000870B54A1E59
:1056F000682505FB02F50E4605F1740106F08AFCEB
:10570000044640B100210C30666005F1680221605A
:10571000A06000F041FE204670BD00BF1F4B70B579
:105720001D68AB6B06464BB305F53875D5E90134FA
:10573000013B05D51EE0013B5A1C04F1680419D059
:10574000B4F90C20002AF6D10025154B6566C4E992
:105750000055A560C4E90455A5612946E360082207
:1057600004F15C0000F018FEC4E90C55C4E91155C1
:10577000204670BD2C682CB12546D7E72846FFF798
:105780004BFFD1E704213046FFF7B0FF0446286005
:105790000028F1D10C233360EAE700BFE8DC000801
:1057A0000100FFFF836B03B17047FFF735BF00BFF8
:1057B000704700BF704700BF38B50A4C0A4D641BE4
:1057C000A4100AD004F18043013B05EB8305013CA2
:1057D00055F804399847002CF9D1BDE8384007F056
:1057E0001DBA00BF640C0020600C0020F0B5134609
:1057F00083B00F4601AA1946064603F0DBFDF0B15F
:1058000005463046FFF78AFF0446C0B139464FF4DB
:10581000DB73019A304600F00FFE00281CDB124BB0
:105820001249134AE081C4E90743124BE362EB05D6
:10583000A581C4E9091206D4204603B0F0BD0024B6
:10584000204603B0F0BD304602230022214600F07E
:105850001BF8204603B0F0BD0025FFF7A9FFA58186
:10586000FFF7A8FF2C46E7E7296700084D67000807
:105870008D670008AD670008024B0A4601461868AC
:10588000FFF7B4BFA802002000F000B82DE9F04FE8
:105890000C4697B091461D46064608B1836BB3B1DE
:1058A000A38903F48473B3F5847F18D0A76A002F0B
:1058B00000F05081012D56D0022D15D0A5B1162330
:1058C00033604FF0FF38404617B0BDE8F08FFFF768
:1058D00069FFA38903F48473B3F5847FE6D121467D
:1058E0003046FFF745FEE1E722694FF0000AD04657
:1058F000002A5CD0B4F90C3040F61A019AB20A4280
:1059000007D1510571D4964A974255D043F40063AC
:10591000A38121463046FFF72BFE80460028D0D1D8
:105920002B464A46E1693046B8470130C9D0216B61
:1059300041B104F14003994202D0304606F06EFBBB
:1059400000232363A3892269226023F402630021D8
:10595000A381616004F15C00082200F01DFD404657
:1059600017B0BDE8F08F21463046FFF701FEA3894E
:1059700013F4805240F09C802B46E1693046B847D2
:10598000B0F1FF3F80469CD0A38922695D0740F1BA
:1059900095806368216BA8EB030811B1E06BA8EB5D
:1059A0000008C1444FF0010A0025002AA2D1214677
:1059B000304600F011FB9DE7B4F90E100029A5DB7D
:1059C0006A46304600F0CEF8002840F0A980019ADF
:1059D000B4F90C3002F47042B2F5004F96D143F4A2
:1059E00080634FF48062A381E264002D70D1CB46C6
:1059F000BAF1000F7BD1A389DA0440F18880206DD1
:105A00006368216BA0EB03081A46002975D0E06B90
:105A1000A8EB0008A26BD4F810C09844A2EB0C02CB
:105A2000A8EB02080244C34503DB08EB02035B4515
:105A300079D8E36CE1695B4203EA0B084246002334
:105A40003046B84701303FF464AF2369216B2360CF
:105A50000023636041B104F14003994202D0304613
:105A600006F0DCFA00232363A389BBEB080B23F0C9
:105A70002003A38110D02146304600F0FDFC002811
:105A80007FF447AF63685B45FFF443AF2268A3EB45
:105A90000B035A44C4E9002304F15C0008220021EE
:105AA00000F07AFC4FF00008404617B0BDE8F08FD8
:105AB0005D07D4F8508022693FF56BAF18077FF57A
:105AC00070AF2368002B3FF46CAF9B1A984468E7D3
:105AD0006A46B4F90E10304600F044F800287FF40E
