:020000040800F2
:1000000000800120E10D00082D0E00082D0E0008D3
:100010002D0E00082D0E00082D0E00080000000017
:100020000000000000000000000000002D0E00088D
:100030002D0E0008000000002D0E00082D0E0008F7
:100040002D0E00082D0E00082D0E00082D0E0008A4
:100050002D0E00082D0E00082D0E00082D0E000894
:100060002D0E00082D0E00082D0E00082D0E000884
:100070002D0E00082D0E00082D0E00082D0E000874
:100080002D0E00082D0E00082D0E000800000000A7
:100090000000000000000000000000002D0E00081D
:1000A0002D0E00082D0E00082D0E00082D0E000844
:1000B0002D0E00082D0E00082D0E00082D0E000834
:1000C0002D0E00082D0E00082D0E00082D0E000824
:1000D0002D0E00082D0E00082D0E00080000000057
:1000E0002D0E00082D0E00082D0E00080000000047
:1000F0000000000000000000000000002D0E0008BD
:10010000000000002D0E00082D0E00082D0E000826
:1001100000000000000000000000000000000000DF
:100120002D0E00082D0E00082D0E00082D0E0008C3
:100130002D0E00080000000000000000000000007C
:100140000000000000000000000000002D0E00086C
:100150002D0E00082D0E00082D0E00082D0E000893
:100160002D0E00082D0E0008000000000000000009
:10017000000000000000000000000000000000007F
:10018000000000002D0E000800000000000000002C
:100190002D0E000810B5054C227832B9044B13B16E
:1001A0000448AFF300800123237010BD680C0020C9
:1001B000000000002099000808B5034B1BB103495B
:1001C0000348AFF3008008BD000000006C0C002065
:1001D00020990008134B002B08BF114B9D46A3F537
:1001E000803A00218B460F461148124A121A02F03B
:1001F000B1FB0D4B002B00D098470C4B002B00D0CF
:1002000098470020002104000D000B4800F02FFA51
:1002100002F012FA2000290000F090FB00F024FA0E
:100220000000080000800120000000002D090008E7
:10023000680C0020E80E0020892500080020704787
:1002400030B5036891FAA1F4B4FA84F491FAA1F1FB
:100250000325B1FA81F1640005FA04F4490023EAA8
:10026000040302FA01F11943016030BD7FB5002398
:10027000072855D8DFE800F00413202D3A545447DE
:1002800000932A4B2A481A6B42F001021A631B6B37
:1002900003F001030093009B07B05DF804FB01939A
:1002A000224B24481A6B42F002021A631B6B03F0C4
:1002B00002030193019BEFE702931C4B1E481A6B4C
:1002C00042F004021A631B6B03F004030293029BC7
:1002D000E2E70393154B19481A6B42F008021A63C0
:1002E0001B6B03F008030393039BD5E704930F4BA9
:1002F00013481A6B42F010021A631B6B03F01003D1
:100300000493049BC8E70593084B0E481A6B42F010
:1003100080021A631B6B03F080030593059BBBE708
:10032000094801F063FF0020B6E700BF0038024033
:10033000000002400004024000080240000C02409D
:1003400000100240001C0240488F0008431C10B5FA
:10035000044604D176220649064801F07DFE204677
:10036000002100F00FFB04F00F040120A04010BD9D
:10037000698F0008C38F000870B504464B1C0E46F9
:10038000218216D0C1F30310FFF770FF05463046F7
:10039000FFF7DCFF238A074A656103F00F03206043
:1003A00052F82330A36105F1100318356360A5608E
:1003B000E56070BDE4900008B0F9100000F07ABB71
:1003C0000A4619B981694069FFF73ABF0122F9E786
:1003D00008B501F0FBFA002008BD000008B50A4B83
:1003E0001B684BB101F0BCFB01F0F2FD4FF47A72D7
:1003F000002307F0E3FD08BD01F048FB4FF47A73DA
:10040000B0FBF3F008BD00BF840C002010B588B02D
:1004100001F0FEFD052101A801F09EFB0424039BD1
:10042000019A1A60962001F02CFF019B049A1B048C
:100430001360962001F025FF013CF0D10424039BBA
:10044000019A1A604FF4C87001F01BFF019B049AD7
:100450001B0413604FF4C87001F013FF013CEED190
:10046000DCE7000070B50D46A0B0044601F0D0FDF9
:100470002B4622468021684603F0B2FE051E03DCAF
:1004800001F0DCFD20B070BD094B1B6823B90322CD
:100490000221084800F0D8FB064E00241DF8041085
:1004A0003046013400F08AFCA542F7D1E8E700BFEE
:1004B000980C0020900D00200FB407B504A951F846
:1004C000040B0191FFF7CEFF03B05DF804EB04B01D
:1004D0007047000008B501F027FA00F0A9FC01F010
:1004E00013FA01F021FA024B01221A6008BD00BF85
:1004F000840C002000207047036801221B69002142
:100500001847036800221B691146184703681B69D6
:10051000184703689B69184703689B6A18470029B6
:100520000CBF6FF018000020704701207047704723
:100530006FF01C0070476FF0150070470120704786
:100540000020704770470000F8B5074E15460C466E
:100550008F18BC4205D014F8011B304600F02EFC69
:10056000F7E72846F8BD00BF900D002038B58DB2E2
:1005700015F0010405D0084800F0F4FA041C18BF77
:100580000124EB0605D5044800F002FB08B144F055
:100590001004204638BD00BF900D002010B5044661
:1005A00002F0E6F8204610BD10B50C462AB104480A
:1005B00000F0F2FB2070012010BD104610BD00BFFE
:1005C000900D002038B51D46074B0360074B1B6894
:1005D000044633B9064800F037FB2946044800F0CA
:1005E0000DFB204638BD00BFE08F0008980C0020AE
:1005F000900D002000207047002070470C4A1368BF
:1006000010B51844EFF30881884205D3094B0C223A
:100610001A604FF0FF3010BD07490C6824B107493C
:10062000096821448842F1D21060184610BD00BF0D
:100630009C020020E40E0020900C0020940C00206E
:10064000074C08B523680546986801F011FF236838
:10065000D86801F00DFF0DB1FFF7D8FEFEE700BF2F
:10066000A80200200120704708B5FFF7E9FF01202C
:1006700070477047704708B5FFF7FBFF08BD08B526
:10068000FFF7F8FF08BD000010B5037803F003037F
:10069000012B04460CD02BB140F2A9520549064863
:1006A00001F0DAFC237843F002032370012010BD2F
:1006B000002010BD289000087F90000810B5037836
:1006C00003F00303022B044605D040F2B152054962
:1006D000054801F0C1FC237823F0030343F0010334
:1006E000237010BD28900008A59000083F2870B521
:1006F00004462FDC184D55F820305A1C13D102281F
:1007000011DCFFF779FF034658B92046FFF772FF67
:10071000034630B9114E3378BFF35B8FDB0704D546
:100720000F4B45F82430184670BD3046FFF7ACFF3C
:100730000028F5D04FF41653032202210848FFF792
:1007400041FF3046FFF7BAFF064A07490448FFF762
:1007500089FFE5E70023E6E79C010020880C0020E4
:100760008C0C0020980100204505000838B505468E
:10077000FFF7BCFF0B4B002443F8254030B901F0D4
:10078000B1FD092303604FF0FF3038BD03685B699A
:100790009847051E04DA01F0A5FD6D420560F2E7F9
:1007A000204638BD9C010020FFF7E0BF38B50C465D
:1007B0001546FFF79BFF38B901F094FD092303604C
:1007C0004FF0FF34204638BD03682146DB682A46D7
:1007D0009847041EF6DA01F085FD64420460EFE7F5
:1007E00008B5131E06DA01F07DFD162303604FF0F5
:1007F000FF3008BD04D0FFF7D9FF40EAE07008BD24
:10080000184608BD38B50C461546FFF76FFF38B9D6
:1008100001F068FD092303604FF0FF34204638BD26
:10082000036821469B682A469847041EF6DA01F0C1
:1008300059FD64420460EFE7002A08B503DBBDE818
:100840000840FFF7DFBF01F04DFD162303604FF0B6
:10085000FF3008BD10B5FFF749FF044628B901F085
:1008600041FD09230360204610BD0368DB699847FA
:10087000041EF8DA01F036FD644204600024F2E759
:10088000FFF7E8BF38B50C461546FFF72FFF38B91C
:1008900001F028FD092303604FF0FF34204638BDE6
:1008A000036821461B692A469847041EF6DA01F0C0
:1008B00019FD64420460EFE7FFF7E4BF38B50D4669
:1008C000FFF714FF044630B901F00CFD0923036063
:1008D0004FF0FF3038BD0368DB699847002814BF2C
:1008E0004FF400534FF400436B60236820469B6A2B
:1008F00098472861002038BDFFF7E0BF7047704778
:10090000074B08499A68084810B5043A52F8044F52
:1009100041F8044F8142F9D14FF000529A6010BD66
:1009200000ED00E0FCFFFF1F9001002008B5FFF77D
:10093000E7FFFFF7CFFDFFF7E2FF08BD08B5FFF7C0
:10094000DDFFBDE80840FFF779BC30B5C36891FA18
:10095000A1F4B4FA84F491FAA1F10325B1FA81F17A
:10096000640005FA04F4490023EA040302FA01F1E1
:100970001943C16030BD012A02D0022A18BF0022EB
:10098000FFF7E3BF2DE9F0410E46411C044604D1B8
:100990003E224449444801F05FFB04F00F08434BFA
:1009A000C4F3031053F82850FFF760FC06F0070764
:1009B0000446836895FAA5F1B1FA81F195FAA5F29A
:1009C0000320490000FA01F1B2FA82F223EA01039E
:1009D0005200022101FA02F21343A36087425AD85F
:1009E000DFE807F05E1D021DB8F1070FC6F3032014
:1009F0003BD9626A2B0A93FAA3F1B1FA81F193FA17
:100A0000A3F34FF00F0EB3FA83F389000EFA01F14E
:100A10009B0022EA010200FA03F3134363623B46A0
:100A2000226895FAA5F0B0FA80F095FAA5F14FF09A
:100A3000030EB1FA81F140000EFA00F0490022EAFB
:100A400000028B40013F1343012F236005D86368E8
:100A500032074CBF2B43AB436360C6F301122946F8
:100A60002046BDE8F041FFF786BF226A95FAA5F35C
:100A7000B3FA83F395FAA5F14FF00F0EB1FA81F1B5
:100A80009B000EFA03F3890022EA030200FA01F345
:100A900013432362C3E767220249054801F0DCFAE9
:100AA0000023BDE724910008C38F0008E4900008EC
:100AB00063920008431C70B506460D4604D1882297
:100AC0001B491C4801F0C8FA06F00F021A4BC6F386
:100AD000031053F82240FFF7C9FB04FB04F201683E
:100AE00002EB42030B40B3FBF2F3013B012B05D8B1
:100AF000EB1E022B436809D823434360032D08D122
:100B000001222146BDE87040FFF735BF23EA040308
:100B10004360012DF4D0052D01D0022D01D1022218
:100B2000EFE721460022BDE87040FFF70EBF00BF8F
:100B300024910008C38F0008E49000080FB407B5A3
:100B4000064B07491B6805AAD868019203F0D0FA42
:100B500003B05DF804EB04B0704700BFA8020020AA
:100B60007C9100084368094A9B0182B0D3581A68F7
:100B7000120706D5002201921A6801925A68019262
:100B8000019A1868C0F3401002B07047DC0D0020D5
:100B90004368034A9B01D3581868C0F3C0107047DC
:100BA000DC0D002042681449920110B404685450CE
:100BB000531882685A60C2689A600269DA604269B2
:100BC0001A61026A9A610022DA84DA619A84DA850B
:100BD0009A85B0F91A20013206D108225A611846C6
:100BE0005DF8044B00F0A9BDB0F9182001320CBF2C
:100BF00004220C22F2E700BFDC0D002010B581605A
:100C00000C46FFF7CFFF28B121460348BDE810404E
:100C1000FFF794BF10BD00BF7C910008094B9842BC
:100C20000BD0A3F54C43984209D003F550439842AA
:100C30000CBF02204FF0FF307047002070470120AA
:100C4000704700BF00100140F0B50E4685B0044665
:100C500045493046154600F0DBFF44490746284623
:100C600000F0D6FF0146384600F0ACFF20600130AE
:100C700004D13D223E493F4801F0EEF9022E0CD04E
:100C8000032D0AD03849022000F0C2FF874202D16A
:100C9000394801F0ABFA002700E00127374B206804
:100CA00098424FF0000340D10193354B5A6C42F00B
:100CB00010025A645B6C03F010030193019BFFF771
:100CC000ADFF0028606004DAA42229492D4801F014
:100CD000C3F92549304600F051FF2449284600F069
:100CE0004DFF721C03D001213046FFF7E3FE6B1C61
:100CF00003D001212846FFF7DDFE4FF41653A36011
:100D00000023E360236163612362268365832046B9
:100D1000FFF748FF3FB11C4B1C4801221A602146D7
:100D20004C2201F07DFD05B0F0BD194A90420BD177
:100D30000293134B1A6C42F400321A641B6C03F4D6
:100D400000330293029BBAE7124A9042B7D1039351
:100D50000B4B5A6C42F020025A645B6C03F0200388
:100D60000393039BABE700BF008F0008B88E000819
:100D7000A6910008029200081E920008001001408F
:100D80000038024053920008980C0020900D00207B
:100D9000004400400014014038B544680546284628
:100DA000FFF7E0FE0028FAD0A401034B1B59586856
:100DB000C0F3080038BD00BFDC0D002070B54568E9
:100DC00006460C463046FFF7E3FE0028FAD0AD0198
:100DD000024B5B59C4F308045C6070BDDC0D00205D
:100DE000DFF830D0002103E00B4B5B584350043157
:100DF0000A480B4B42189A42F6D30A4A02E00023F3
:100E000042F8043B084B9A42F9D300F0D9FCFFF7B3
:100E1000E1F97047008001202C990008980100201A
:100E2000680C0020680C0020E80E0020FEE77047E8
:100E300008B50B4B1A6842F400721A601A6842F443
:100E400080621A601A6842F480721A60032000F00F
:100E500009F80F20FFF7BCFAFFF7E9FF002008BDF3
:100E6000003C0240074AD36823F4E0631B041B0CD8
:100E700043F0BF63000243F4003300F4E060034337
:100E8000D360704700ED00E02DE9F341044618B946
:100E9000012002B0BDE8F0810368DD0710D42368AB
:100EA000980758D423681A0700F19A8023685B07D3
:100EB00000F1B880A269002A40F019810020E8E71B
:100EC000A64B9A6802F00C02042A07D09A6802F036
:100ED0000C02082A0AD15B68590207D59F4B1B6890
:100EE0009A03DCD56368002BD9D1D1E763689B4DA9
:100EF000B3F5803F11D12B6843F480332B60FFF7AB
:100F00006DFA964D06462B689B03C8D4FFF766FA28
:100F1000801B6428F7D90320BBE7B3F5A02F04D1C9
:100F20002B6843F480232B60E5E72A6822F48032A3
:100F30002A602A6822F480222A60002BDFD1FFF782
:100F40004DFA06462B689F03A9D5FFF747FA801B89
:100F50006428F7D9DFE7814B9A6812F00C0F07D0AD
:100F60009A6802F00C02082A11D15B685E020ED466
:100F70007A4B1A68950702D5E268012A88D11A6867
:100F8000216922F0F80242EAC1021A608AE7E268A7
:100F9000734BB2B101221A60FFF720FA6F4D06467B
:100FA0002B68980707D52B68226923F0F80343EADA
:100FB000C2032B6076E7FFF711FA801B0228EFD9F6
:100FC000A9E71A60FFF70AFA644D06462B689907ED
:100FD0007FF568AFFFF702FA801B0228F6D99AE77F
:100FE0006269604B7AB101221A60FFF7F7F95B4D35
:100FF00006466B6F9F073FF559AFFFF7EFF9801B70
:101000000228F6D987E71A60FFF7E8F9534D06463C
:101010006B6F98077FF54AAFFFF7E0F9801B022856
:10102000F6D978E74D4B1A6C12F0805228D1019214
:101030001A6C42F080521A641B6C03F080530193C7
:10104000019B0126484D2B68D9051BD5A368434D4C
:10105000012B27D12B6F43F001032B67FFF7BEF95C
:101060003E4D074641F288382B6F9B0739D5002E3D
:101070003FF420AF394A136C23F08053136419E70F
:101080000026DFE72B6843F480732B60FFF7A6F997
:1010900007462B68DA05D9D4FFF7A0F9C01B022850
:1010A000F7D938E7052B04D12B6F43F004032B67E6
:1010B000D0E72A6F22F001022A672A6F22F0040289
:1010C0002A67002BCAD1FFF789F941F28838074611
:1010D0002B6F9807CBD5FFF781F9C01B4045F7D997
:1010E00019E7FFF77BF9C01B4045BDD913E71B4D3E
:1010F000AB6803F00C03082B3FF4CAAE1B4E002371
:10110000022A336034D1FFF769F907462B68990149
:101110001ED4226AE3691343626A43EA8213E26AD5
:1011200043EA0263A26A0D4C5208013A43EA0243C1
:101130006B6001233360FFF751F9054623689A017C
:101140003FF5BCAEFFF74AF9401B0228F6D9E2E6AC
:10115000FFF744F9C01B0228D8D9DCE6003802406A
:1011600000004742800E4742007000406000474246
:10117000FFF734F904462B689B017FF59FAEFFF71C
:101180002DF9001B0228F6D9C5E600BF134908B5A2
:101190008B6803F00C03042B03D0082B03D01048FA
:1011A00008BD104808BD4A684B68496813F48003BD
:1011B00014BF0C480A48C1F3881118BF002302F07D
:1011C0003F02A1FB000106F0F9FE044B5B68C3F38C
:1011D000014301335B00B0FBF3F008BD003802406F
:1011E0000024F40000127A002DE9F0410D46044677
:1011F00010B90120BDE8F081444B1A6802F00F02DB
:101200008A4228D321688F072DD4C80740D43F4B8A
:101210001A6802F00F02954266D3226851076CD417
:10122000130707D53A4A2169936823F4604343EAD8
:10123000C1039360FFF7AAFF354B364A9B68C3F39F
:101240000313D35CD840344B18600F20FFF7C0F86D
:101250000020BDE8F081CAB21A701B6803F00F03CA
:101260009942C6D1CEE72A4B11F0040F1EBF9A68EF
:1012700042F4E0529A600E0742BF9A6842F460421C
:101280009A609A68A06822F0F00202439A60BCE774
:1012900062681F4B012A1DD11B6813F4003FA8D0C0
:1012A0001B4EB36823F003031343B360FFF796F8B4
:1012B00041F288380746B368626803F00C03B3EB69
:1012C000820FA4D0FFF78AF8C01B4045F3D9032052
:1012D000BDE8F081911E01291B6802D813F0007F40
:1012E000DDE713F0020FDAE7EAB21A701B6803F0C9
:1012F0000F039D427FF47DAF8FE70549E0688B685F
:1013000023F4E05303438B608AE700BF003C0240B4
:101310000038024079920008A0020020044B054AE0
:101320009B68C3F38223D35C034A1068D84070479C
:101330000038024089920008A0020020044B054AB0
:101340009B68C3F34233D35C034A1068D8407047AC
:101350000038024089920008A00200200F23036099
:101360000B4B9A6802F0030242609A6802F0F002A6
:1013700082609A6802F4E052C2609B68DB0803F462
:10138000E0530361034B1B6803F00F030B607047CE
:1013900000380240003C024070470000224A0368C7
:1013A00090420ED0B0F1804F0BD0A2F57C4290421B
:1013B00007D002F58062904203D002F5806290422D
:1013C00019D14A6823F070031343174A904204D19D
:1013D000CA6823F44073134318E0B0F1804FF7D08C
:1013E000124A9042F4D002F580629042F0D002F5A9
:1013F00080629042ECD00E4A9042E9D002F58062C1
:101400009042E5D002F580629042E1D003608B68A3
:10141000C3620B688362044B984204BF0B69036389
:1014200001234361704700BF0000014000040040F9
:101430000040014010B50446A0B190F8393003F0E7
:10144000FF021BB980F83820FFF7A6FF022384F8BB
:1014500039302068211DFFF7A1FF012384F83930BE
:10146000002010BD012010BD036A10B501248C407E
:1014700023EA04030362036A8A401A43026210BD2E
:1014800010B5044600220068FFF7EEFF2368104AFB
:1014900093420DD1196A41F21112114208D1196A11
:1014A00040F24442114202BF5A6C22F400425A6494
:1014B000196A41F21112114208D1196A40F24442EC
:1014C000114202BF1A6822F001021A60002010BD0A
:1014D0000000014010B5044601220068FFF7C4FF78
:1014E0002368064A934202BF5A6C42F400425A648F
:1014F0001A6842F001021A60002010BD000001408D
:10150000FFF7E8BF2DE9F0470668C2683369C16993
:1015100023F4405313433361044683680069F2683F
:101520000343606922F41642034322F00C020B438A
:101530001343F3607369A26923F440731343B1F555
:10154000004F73617A4B7CD19E4203D003F58063D8
:101550009E4244D1FFF7F2FE192505FB00F36068B7
:101560004FF064094000B3FBF0F3B3FBF9F34FEA2B
:101570000318FFF7E3FE636868435B00B0FBF3F713
:10158000FFF7DCFE636868435B00B0FBF3F3B3FB7B
:10159000F9F309FB1373DB003233B3FBF9F35B00A0
:1015A00003F4F877FFF7CAFE626868435200B0FBA5
:1015B000F2FAFFF7C3FE636868435B00B0FBF3F326
:1015C000B3FBF9F309FB13A3DB003233B3FBF9F3ED
:1015D00003F0070343443B44B360BDE8F087FFF7E3
:1015E0009DFE192505FB00F360684FF0640940007B
:1015F000B3FBF0F3B3FBF9F34FEA0318FFF78EFEEA
:10160000636868435B00B0FBF3F7FFF787FE63682E
:1016100068435B00B0FBF3F3B3FBF9F309FB13730F
:10162000DB003233B3FBF9F35B0003F4F877FFF729
:1016300075FE626868435200B0FBF2FAFFF76EFE77
:10164000B9E79E4202D03B4B9E4240D1FFF776FE67
:10165000676819254FF0640905FB00F3BF00B3FB71
:10166000F7F3B3FBF9F31F01FFF768FE6368684304
:101670009B00B0FBF3F8FFF761FE636868439B00D3
:10168000B0FBF3F3B3FBF9F309FB13831B01323314
:10169000B3FBF9F303F0F008FFF750FE626868430C
:1016A0009200B0FBF2FAFFF749FE636868439B00C3
:1016B000B0FBF3F3B3FBF9F309FB13A31B013233C4
:1016C000B3FBF9F303F00F0343EA080383E7FFF7E3
:1016D00025FE676819254FF0640905FB00F3BF007C
:1016E000B3FBF7F3B3FBF9F31F01FFF717FE6368D2
:1016F00068439B00B0FBF3F8FFF710FE6368684394
:101700009B00B0FBF3F3B3FBF9F309FB13831B015D
:101710003233B3FBF9F303F0F008FFF7FFFD626823
:1017200068439200B0FBF2FAFFF7F8FDBDE700BF97
:101730000010014000140140704710B5044640B34A
:1017400090F8393003F0FF021BB980F83820FFF71A
:10175000F3FF2268242384F83930D36823F400533C
:10176000D3602046FFF7CEFE23681A6922F4904228
:101770001A615A6922F02A025A61DA6842F4005268
:10178000DA6000202023E06384F8393084F83A30AE
:1017900010BD012010BD7FB50F230193022100234E
:1017A0004FF4805201A80291039304920593FFF72E
:1017B0001BFDB0FA80F0400907B05DF804FB0000A3
:1017C0000F49D1F8883043F47003C1F888300D4BCD
:1017D0001A68002042F001021A6098601A6822F02C
:1017E000847222F480321A60074A5A601A6822F41E
:1017F00080221A60D8604FF000638B60704700BF92
:1018000000ED00E0003802401030002400B58FB039
:101810001D4B002100911A6C42F080521A641B6C1F
:101820001A4A03F080530093009B0191136823F43C
:10183000404343F400431360136803F440430193AF
:10184000019B01230293C8B94FF480330393022311
:1018500008934FF48003099308230A934FF4A87365
:101860000B9304230C9302A807230D93FFF70CFBA3
:1018700038B9FFF790FF0FB05DF804FB4FF4A023D9
:10188000E4E70020F7E700BF0038024000700040A6
:1018900010B58EB000241A4B00941A6C42F080529E
:1018A0001A641B6C174A03F080530093009B019449
:1018B000136823F4404343F4004313601368039414
:1018C00003F440430193019B0994032302930123F2
:1018D0000593102306930A934FF4A8730B930423E4
:1018E00002220C9302A8072308920D93FFF7CCFA6B
:1018F00018B9FFF750FF0EB010BD2046FBE700BF40
:10190000003802400070004008B50120FFF77EFF5C
:1019100038B9FFF7BDFF20B90248BDE8084000F024
:1019200065BC08BD65920008174A1849936803F022
:101930000C03042B10B50DD0082B0DD0144B0B60ED
:10194000114B144A9B68C3F30313D25C0B68D3405A
:101950000B6010BD104BF2E7546850685268630288
:10196000C2F3881200F03F004CBF0B4B084BB3FB97
:10197000F0F35343044A5268C2F301420132520069
:10198000B3FBF2F3DBE700BF00380240A002002007
:101990000024F4007992000800127A00074B084AEC
:1019A00013601A69910707D5DA68920704D56FF0BA
:1019B00002021A6100F0D8B8704700BF000C004066
:1019C000A00E0020004870479492000830B589B0FE
:1019D00001A903A8FFF7C2FCFFF7A0FC00230293B4
:1019E0001E4B01901A6C1E4C42F008021A641A6CCD
:1019F00002F008020292029A1A6A42F008021A627F
:101A00001A6A22F008021A62069AA3F50B332360C1
:101A10004FF0FF33E360134BF2B9B0FBF3F0013842
:101A2000002560600E482561A5606561FFF702FD35
:101A30000D4B0E4A9B680A48C3F808210C4B4FF423
:101A400080225A602946FFF75BFD2268D36823F0A5
:101A50000203D36009B030BD4000DEE70038024029
:101A6000A00E002040420F0000ED00E09D1900088C
:101A700000E100E004480268D36823F00203D36069
:101A80000021FFF73DBD00BFA00E0020014B586AAA
:101A9000704700BF000C0040054B1B686FF002024E
:101AA00058631A61DA6842F00202DA60704700BFD8
:101AB000A00E0020064B1B686FF002021A615A69E3
:101AC00042F002025A61DA6842F00202DA607047BC
:101AD000A00E0020034B1A68D36823F00203D360E2
:101AE000704700BFA00E0020024B1B686FF002027F
:101AF0001A617047A00E002008B500210348FFF7C7
:101B0000BFFCBDE80840FFF7E5BF00BFA00E002006
:101B100038B504460D4603685AB182681360204602
:101B20000121FEF74DFC29462046BDE83840FEF76E
:101B300043BCC2681B04F1E770B50E460446154667
:101B4000FEF71AFC013606D02A4620460021BDE8E1
:101B50007040FFF7DDBF70BD0022FFF7EDBF000052
:101B6000004870479C920008024B1B680BB102486A
:101B700018477047A40200209C92000813B5044641
:101B800001300FD102B010BD9C420AD120468968B5
:101B9000FEF7F8FE0021204602B0BDE81040FEF737
:101BA00089BF0C31B1F900305A1CEDD100230093EC
:101BB00022460249024800F03BFBE3E7F5920008A9
:101BC00030010180884207B502460BD0431C09D082
:101BD00001310BD0002306490093064800F028FB92
:101BE0004FF0FF31084603B05DF804FB0146F9E70A
:101BF000C492000830010180B1F900305A1C01D1B3
:101C000018467047834201D1486870470C31F3E7AA
:101C1000421C13B504460BD0FFF7EEFF431C0446ED
:101C200006D10023024600930349044800F000FB5C
:101C3000204602B010BD00BFD592000830010180DF
:101C40002DE9F74FD0F804A09AF83A300446002B5B
:101C500046D103685B68984763681B6A98423FD027
:101C6000DAF82030DAF80840CAF82000A0EB0308C0
:101C7000DAF80C30314808EA0308844246464FF04F
:101C8000000727D0DAE90A239AF83BB0A8FB0089BD
:101C9000CDE900230025BBF1000F2BD05A4640466A
:101CA000494605F0DFFCDDE9002312EB080243EBB7
:101CB000090390465A46994606460F4605F0DEFC53
:101CC000B8EB000069EB0101A94208BFA0420AD2AB
:101CD000CAE90A01DAE90C23B6185F41CAE90C67C0
:101CE00003B0BDE8F08F013647F10007001B61EB40
:101CF0000501EDE722462B464046494606F05EF9CF
:101D0000224606460F46404649462B4606F056F9FF
:101D1000DDE9008918EB020849EB0309A94508BF72
:101D2000A04502D2CAE90A89D4E7013647F1000783
:101D3000B8EB040869EB0509F4E700BF40420F0067
:101D4000824206D98A420BD9884294BF00200120E2
:101D50007047884206D98A428CBF00200120704714
:101D600001207047002070472DE9F14F476897F830
:101D70003A300646002B44D197F83930002B40D139
:101D8000FFF75EFF75686B68002B59D0D5E90C89A9
:101D9000D3E90001894508BF804505D333685B69F5
:101DA00001B0BDE8F04F1847D5E90623B0EB0808AD
:101DB00061EB09094B4508BF42452C6906D3AB6866
:101DC000254A934220D1444528BF44462B6A1C44EF
:101DD000EB681C403B6AA34205D140F207121F4941
:101DE0001F4800F039F9336820461B69984733686B
:101DF0005B68984722460146386AFFF7A1FF002832
:101E0000CCD101B0BDE8F08F95F83B20DFF854A0AD
:101E10004FF0000B7AB14046494605F02FFC10EB1D
:101E20000A0041EB0B010C4A002306F0C7F884427C
:101E300028BF0446CAE7A3FB080103FB0911EEE72C
:101E40003B69386AFA68184433681B69104001B06E
:101E5000BDE8F04F184700BF40420F00069300084E
:101E6000589300083F420F002DE9F04F436893F864
:101E7000382085B00546002A6FD193F83A30002B00
:101E80006BD103681B6898472B68DB699847066825
:101E900004462EB92C2232493248334E00F0DCF889
:101EA0001F23012202FA03F1B1425FFA83FB02D041
:101EB000013BF7D19B46D4F804A0AAF104031C2BE4
:101EC00006D93A222649274800F0C6F84FF0200AE2
:101ED000AAF10403072716F1FF3007FA03F7224C93
:101EE0004FF0000343F1FF313246C4FB070106F017
:101EF00065F86C682A680023236063605268039366
:101F0000CDE90001904720626C684FF000084FF067
:101F100000095246C4E90A89A66084F83BB0012052
:101F2000002105F0ABFBDDE90023C4E90623039B98
:101F300084F8393084F83A3001380123E0602761B1
:101F40002846C4E90C8984F83830FFF779FE284622
:101F500005B0BDE8F04FFFF707BF05B0BDE8F08F53
:101F6000069300086392000840420F0070B50446D3
:101F700000F04EF82368DB689847636893F83A20CE
:101F80001AB1BDE8704000F059B8012283F8392039
:101F900063685B68A3B12046FFF752FE65686E6810
:101FA000D5E90C01D6E90023994208BF904207D336
:101FB000F3686B602B68002BEAD0B0689847E7E7BE
:101FC0006368002283F839202046FFF7CDFED8E76A
:101FD00010B50446FFF748FF00F01AF82046FFF757
:101FE0002FFE00F02BF86368D3E90C0110BD08B593
:101FF000FFF7EEFF08BDEFF31080C04300F00100D3
:102000007047EFF30580003018BF012070470000D3
:1020100010B5074C2368013304D151220549064805
:1020200000F01AF800F032F923680133236010BD84
:10203000E00C00207C930008D1930008054B1A683F
:1020400032B11A68013A1A601B680BB900F030B956
:10205000704700BFE00C002070B504460D461646E0
:10206000FFF7D6FF33462A4621460348FEF724FAF7
:10207000BDE87040FEF7CAB9029400082DE9F041AE
:102080001B4C1C4E237836EA200628BF0646012B3F
:102090008EB00F46904600D1FEE7174DFFF7B8FF10
:1020A00001232370FFF7CAFF2B683422013300217C
:1020B00001A82B6000F04EFC2B680196012BCDF897
:1020C0000880039704D1342201A90C4800F0A8FB32
:1020D000342201A90A4800F0A3FB0A4B1B680BB18C
:1020E00007489847002020700EB0BDE8F08100BF7F
:1020F000EC0C00200101FF80E40C0020F00C00201B
:10210000240D0020E80C002073B5294C2168C1F390
:102110004173032B0CBF4D428DB2C1F307432A46D6
:1021200006462448FEF7C8F96FF498731D44072D3E
:1021300009D8DFE805F004272A2D30363339A168A5
:102140001D48FEF7B9F93046FEF7B6F961681B483D
:10215000FEF7B2F9A1681A48FEF7AEF9E3690193F8
:10216000A369009304F10C010EC91648FEF7A4F907
:1021700021681548FEF7A0F9144802B0BDE8704088
:10218000FEF79AB9A1681248DBE7A1681148D8E7C1
:10219000A1681148D5E7A1681048D2E7A1681048A6
:1021A000CFE7A1680F48CCE7A1680F48C9E700BF97
:1021B000240D0020489400089994000826950008F2
:1021C000369500084995000898950008E4950008A0
:1021D000AE940008BD940008CB940008DD9400087C
:1021E000F094000803950008119500080FB437B566
:1021F0000C4D2978724679B90B48FFF73FFF0B4821
:10220000FFF782FF012407A906982C700191FEF7C1
:1022100029F92046FEF728FA03B0BDE8304004B0A3
:10222000704700BFEC0C00200001FF8033940008D1
:1022300010B50C4611467246FFF720FF68B92046DC
:10224000FFF762FFFFF7DDFE10B9FFF7D4FE08B914
:1022500030BFFDE70120FEF707FA014810BD00BFBF
:102260000F01FF8070B50446FFF77AFC0646FFF7C2
:10227000BEFE05463046FFF7BAFE401BA042F9D32A
:1022800070BD4FF47A735843FFF7ECBFEFF3108340
:10229000DB4372B6044A117829B9044903F00103FB
:1022A0000B70012313707047590D0020580D00204A
:1022B00008B5EFF31083DB0704D43522054906483F
:1022C000FFF7CAFE054B00221A70054B1B7803B1BD
:1022D00062B608BDFE9500085A960008590D002008
:1022E000580D0020014B1868704700BFA80200205D
:1022F000B1F90C309AB22DE9F0410C461107804635
:1023000048D4626843F40063002AA3815DDDA56AB6
:10231000002D57D000229BB2D8F80060E169C8F8C0
:10232000002013F4805254D101234046A847431C97
:10233000024665D0A389A56AE1695F0705D5606893
:10234000236B121A0BB1E36BD21A00234046A84745
:10235000451C48D1D8F80020B4F90C30002A5CD0D4
:102360001D2A01D0162A64D122690021C4E9002166
:1023700023F40063A381216BC8F8006011B304F15A
:102380004003994202D0404605F090FF00202063B0
:10239000BDE8F0812669AEB12568266091070CBFC3
:1023A00063690023AD1BA3600AE02B463246676ACF
:1023B000E1694046B8470028A5EB000506440ADD60
:1023C000002DF2DC0020BDE8F081E26B002A9EDCEB
:1023D000F8E7226DB1E7A38943F04003A3814FF0F2
:1023E000FF30BDE8F081B4F90C302269226023F49B
:1023F000006300226260DA04A381BCD52065BAE7DD
:10240000D8F80030002B95D01D2B0FD0162B0DD0F7
:10241000A38943F04003A381D5E723F40063216936
:10242000A381DB04C4E90012A5D5E7E7C8F8006082
:10243000C8E743F04003A381C5E700BF10B50446D9
:1024400082B008B1836B23B1B1F90C0048B902B076
:1024500010BD019100F08EF80199B1F90C0000282F
:10246000F5D0204602B0BDE81040FFF741BF00BFE5
:1024700020B1054B01461868FFF7E0BF034B044944
:10248000186800F0AFB800BFA802002074960008DA
:102490003D240008014900F0A5B800BF8D52000896
:1024A0002DE9F84F45682C4BC3630024074600F51F
:1024B0003B7204230321C0E9B912C0F8E04221466F
:1024C000EB6005F15C006C66C5E90044AC60C5E9F1
:1024D0000444AC61082200F03DFADFF888B0BE6821
:1024E000DFF884A0DFF88490DFF884801B4BC5F808
:1024F0002C80C5E9075BC5E909A92146F3600822DC
:1025000006F15C007466C6E90044B460C6E90444A0
:10251000B46100F01FFAFD68114BC6F82C80C6E9C3
:10252000076BC6E909A92146EB606C66C5E9004462
:10253000AC60C5E90444AC6105F15C00082200F020
:1025400009FA0123C5E9075BC5E909A9C5F82C808B
:10255000BB63BDE8F88F00BF9524000809000100A7
:1025600012000200F5290008192A0008592A00085B
:10257000792A0008836B03B17047FFF791BF00BF52
:10258000704700BF704700BF38B50A4C0A4D641B46
:10259000A4100AD004F18043013B05EB8305013C04
:1025A00055F804399847002CF9D1BDE8384006F0B9
:1025B0007DBC00BF640C0020600C002038B50B46C9
:1025C000074C05461146184600232360FEF794F990
:1025D000431C00D038BD2368002BFBD02B6038BDD6
:1025E000E40E00202DE9F84310F538771FD0884617
:1025F00006464FF00009D7E90154013D11D4A389E3
:10260000012B05F1FF3508D9B4F90E30013321460D
:10261000304602D0C04749EA00096B1C04F1680447
:10262000EDD13F68002FE6D14846BDE8F883B946B2
:102630004846BDE8F88300BF70B50D4E0D4D761BC2
:10264000B61006D00024013455F8043B9847A64242
:10265000F9D1094E094D761B06F022FCB61006D0C2
:102660000024013455F8043B9847A642F9D170BDC7
:10267000580C0020580C00205C0C0020580C002046
:1026800070B50C46B1F90E10002996B015461E46DD
:1026900014DB6A46FFF792FF00280FDB019A02F471
:1026A0007042A2F50052B2FA82F252094FF48063EE
:1026B0004FF4006032602B6016B070BDA289002319
:1026C00012F08000336004D0402218462A6016B011
:1026D00070BD4FF480632B6016B070BD8A8992077D
:1026E0000B4606D501F1430201211A60C3E904211A
:1026F000704770B582B001AB6A460C460646FFF7DC
:10270000BFFF00990546304605F0CCFDB4F90C300A
:1027100070B11649F163019A0099206043F080037B
:10272000A381C4E904018AB92B43A38102B070BD1F
:102730009A05FBD423F0030304F1430243F00203A0
:102740000121A3812260C4E90421EFE73046B4F9F6
:102750000E1002F0DFFD10B9B4F90C30E4E7A389E4
:1027600023F0030343F001031BB2DDE795240008C7
:10277000024B0146186805F099BD00BFA802002071
:1027800001F0FF01102A2BDB10F0070F08D010F822
:10279000013B013A8B422DD010F0070F42B3F6D126
:1027A000F0B441EA012141EA014122F007047FF03F
:1027B00000070023F0E80256083C85EA010586EA96
:1027C000010685FA47F5A3FA87F586FA47F6A5FAD2
:1027D00087F68EB9EED1F0BC01F0FF0102F00702DE
:1027E00032B110F8013B013A83EA010313B1F8D189
:1027F0000020704701387047002D06BF354603386A
:10280000073815F0010F07D1013015F4807F02BFA2
:10281000013015F4C03F0130F0BC0138704700BFF3
:10282000844641EA000313F003036DD1403A41D3DB
:1028300051F8043B40F8043B51F8043B40F8043B9A
:1028400051F8043B40F8043B51F8043B40F8043B8A
:1028500051F8043B40F8043B51F8043B40F8043B7A
:1028600051F8043B40F8043B51F8043B40F8043B6A
:1028700051F8043B40F8043B51F8043B40F8043B5A
:1028800051F8043B40F8043B51F8043B40F8043B4A
:1028900051F8043B40F8043B51F8043B40F8043B3A
:1028A00051F8043B40F8043B51F8043B40F8043B2A
:1028B000403ABDD2303211D351F8043B40F8043BCA
:1028C00051F8043B40F8043B51F8043B40F8043B0A
:1028D00051F8043B40F8043B103AEDD20C3205D3DA
:1028E00051F8043B40F8043B043AF9D2043208D0D2
:1028F000D2071CBF11F8013B00F8013B01D30B8844
:1029000003806046704700BF082A13D38B078DD021
:1029100010F003038AD0C3F10403D21ADB071CBFF3
:1029200011F8013B00F8013B80D331F8023B20F85D
:10293000023B7BE7043AD9D3013A11F8013B00F896
:10294000013BF9D20B7803704B7843708B7883701E
:1029500060467047F0B4860746D0541E002A3CD02B
:10296000CAB2034602E014F1FF3436D303F8012B58
:102970009D07F8D1032C29D9CDB245EA05250F2CA6
:1029800045EA054533D9A4F11006360903F12007BD
:1029900007EB061703F1100242E9045542E902551C
:1029A0001032BA42F8D1721C14F00C0F03EB021271
:1029B00004F00F0613D0331F23F003030433134432
:1029C00042F8045B9342FBD106F003042CB1C9B278
:1029D0001C4403F8011B9C42FBD1F0BC70473446F9
:1029E0001346002CF3D1F8E714460346C2E71A4613
:1029F0002646E0E710B50C46B1F90E1002F0EAFFEA
:102A0000002803DB236D0344236510BDA38923F451
:102A10008053A38110BD00BF2DE9F0411646B1F9E6
:102A20000C201F46D3050C460546B1F90E1009D4FB
:102A300022F48052A2813B4632462846BDE8F0414E
:102A400001F0DCBB0022022302F092FCB4F90C205E
:102A5000B4F90E10ECE700BF10B50C46B1F90E103A
:102A600002F086FCA389421C0EBF23F4805343F47A
:102A700080532065A38110BDB1F90E1001F03CBC5C
:102A800090F800F06DE9024520F007016FF0000CAE
:102A900010F0070491F820F040F049804FF0000456
:102AA0006FF00700D1E9002391F840F000F1080031
:102AB00082FA4CF2A4FA8CF283FA4CF3A2FA8CF369
:102AC0004BBBD1E9022382FA4CF200F10800A4FAD0
:102AD0008CF283FA4CF3A2FA8CF3E3B9D1E9042324
:102AE00082FA4CF200F10800A4FA8CF283FA4CF35B
:102AF000A2FA8CF37BB9D1E9062301F1200182FA15
:102B00004CF200F10800A4FA8CF283FA4CF3A2FA1A
:102B10008CF3002BC6D0002A04BF04301A4612BA28
:102B2000B2FA82F2FDE8024500EBD2007047D1E92B
:102B3000002304F00305C4F100004FEAC50514F0BA
:102B4000040F91F840F00CFA05F562EA05021CBF8B
:102B500063EA050362464FF00004A9E700000000A5
:102B60002DE9F04FC3B01C460891914605460C90E4
:102B700002F0E2FB036815931846FFF781FF0D94FE
:102B800013901DB1AB6B002B00F090830899B1F945
:102B90000C2093B29E04084607D4496E42F40053B9
:102BA00021F40051838141669BB21D0740F1B28040
:102BB000089A1269002A00F0AD8003F01A030A2B6C
:102BC00000F0B6809FEDA87B00238DED107B129363
:102BD000CDE9263314931693099332AB25939A4685
:102BE00099F80030002B00F0BF80252B00F0F48610
:102BF0004D4603E0252B00F0A98025466B786C1C20
:102C0000002BF7D1B4EB090600F0AE80DDE92632E7
:102C100001333244072BCAF80090CAF80460CDE9AA
:102C2000263200F398800AF1080A099A6B78324438
:102C30000992002B00F09880002367788DF8773098
:102C40001A4619460A939B4604F101094FF0FF36D4
:102C500009F10109A7F12003582B00F22B83DFE8CB
:102C600013F0DA0029032903D500290329032903D6
:102C7000290329032903CA00C5002903C000A700AE
:102C80002903A20093009300930093009300930004
:102C9000930093009300290329032903290329039F
:102CA000290329032903290329039A025902290325
:102CB00059022903290329032903AC022903290303
:102CC0001D02290329032903290329034702290394
:102CD00029032F022903290329032903290329038F
:102CE0002903290329032903A20148015902590292
:102CF0005902EC02480129032903DF022903C70214
:102D0000B102F602F10229031F0129030901290377
:102D10002903E20008990C9801F086FA002841F096
:102D20007381089B9B8903F01A030A2B7FF44AAF37
:102D3000089BB3F90E30002BFFF644AF23464A46FA
:102D400008990C9801F0E0F9099019E0B4EB090634
:102D50003FF472AF5AE725AA08990C9804F01EF9BF
:102D600048B90DF1C80A60E7279B23B10C98089970
:102D700025AA04F013F9089B9B895A0601F14481A6
:102D8000099843B0BDE8F08FA7F13003002019F88F
:102D9000017B00EB800003EB4000A7F13003092B1F
:102DA000F5D90A9056E74BF0800B99F800704FE781
:102DB000484610F8017B2A2F01F07F81A7F13003EC
:102DC000092B81464FF000063FF644AF19F8017B0E
:102DD00006EB860603EB4606A7F13003092BF5D96F
:102DE00038E799F800704BF0040B31E799F8007060
:102DF00001222B212CE70D9B99F8007053F8040B4E
:102E00000A900028C0F2A1860D9321E74BF0010B38
:102E100099F800701CE799F8007000297FF418AF4A
:102E20000122202114E7002A41F0E680104B149380
:102E30001BF0200F00F04D810D9C073424F0070398
:102E4000F3E802450D931BF0010F00F0448254EAB1
:102E5000050300F0408230238DF878308DF87970CA
:102E60004BF0020B022302E2000000000000000011
:102E70009C960008002A41F0B7801BF0200F40F01C
:102E80005C820D9A1BF0100F52F8044B41F029811F
:102E90001BF0400F0D9218BFA4B200250123E6E1FC
:102EA0000D9C54F8043B0E9300258DF87750002BB1
:102EB00000F07886711C00F05487324629460E983F
:102EC000FFF75EFC002801F059800E9BC31A0B939C
:102ED0002E4623EAE3739DF877800D94CDF818B061
:102EE00007930F96B8F1000F6FD0079B013307933C
:102EF0006BE0002A41F06C801BF0200F40F0ED8168
:102F00000D9B1BF0100F03F1040241F0E7800D9BB5
:102F10000D921BF0400F14BFB3F900401C68E51779
:102F200022462B46002A73F10003594680F2E581C0
:102F300064424FF02D0865EB4505721C8B468DF8F9
:102F400077804FF0010340F09981012B00F08983D5
:102F5000022B00F0268432A900E01146E20842EA82
:102F60004572E80804F0070305461446303354EA76
:102F7000050001F8013C01F1FF32EED11BF0010F19
:102F80000E9200F0D184302B00F03D860E9ACDF8E1
:102F900018B03023023902F8013C32AB5B1A0B93B4
:102FA0000E9100F016BC0D9C002354F8042B8DF8F4
:102FB000A0208DF87730012228AB07920D940B9258
:102FC0000E930026CDF818B00F96069B13F002035F
:102FD00002D0079A02320792069A279C12F0840BBD
:102FE00005D10A9A0799551A002D00F34A839DF8D6
:102FF000772072B1269A013201340DF17700012158
:10300000072ACDE92624CAE9000100F377830AF1F3
:10301000080A6BB1269B013302341EA90222072B3A
:10302000CDE92634CAE9001200F376830AF1080AD2
:10303000BBF1800F00F0F5810B9BF61A002E00F318
:103040003982069BDB0500F18181269B0E9ACAF826
:1030500000200B9ACAF8042001331444072B27944C
:10306000269300F39B820AF1080A069B590705D5AF
:103070000A9B079A9D1A002D00F35A83DDE9093255
:1030800007998A42ACBF9B185B180993002C40F04B
:103090004B82002326930DF1C80AA1E5002A40F0D7
:1030A0008B871BF0200F4BF0100340F03B810D9AF3
:1030B00004320D990D929B460C6800250023D6E042
:1030C000002A40F07D87C24B14931BF0200F7FF441
:1030D000B3AE0D9B1BF0100F53F8044B0D9340F053
:1030E00073841BF0400F00F06F84A4B20025AAE6A1
:1030F000002A40F085871BF0200F4BF0100340F0B2
:103100001B810D9A04320D990D929B460C68002587
:103110000123ACE0002A40F057870D9C073424F0CF
:103120000703B3EC027B55EC174B0D9325F00043DE
:1031300019938DED187ADDE918014FF0FF32A54B98
:103140008DED107B04F0FCFE002840F05B844FF016
:10315000FF32A04BDDE9180104F0D4FE002840F056
:103160005184002200232046294604F0C1FE002895
:1031700040F06A869DF87780974A984B0321002695
:103180002BF08000472FC8BF1A46079106900E9279
:103190000B910F96A6E6002A40F01E871BF0200F29
:1031A0004BF0100140F09A800D9B1A1D0D9B0D9263
:1031B0001C68E51722462B469AE04BF0080B99F85D
:1031C000007045E5002A40F00B871BF0200F40F00F
:1031D000AA800D9A1BF0100152F8044B40F07B8737
:1031E0001BF040030D921CBF0B46A4B200253EE02D
:1031F000002A40F0FD860D9A1BF0200F02F1040317
:1032000040F0F6831BF0100F40F004851BF0400FD8
:1032100000F000850D9A0D931268099B1380DFE47E
:1032200099F800706C2F03BF99F801704BF0200BD8
:1032300009F101094BF0100B0AE54BF0400B99F82E
:10324000007005E54BF0200B99F8007000E50D9C2F
:1032500054F8043B0D9447F630021C46604B14931F
:10326000ADF878204BF0020B0025022378274FF0B1
:103270000008721C8DF877803FF467AE2BF0800257
:10328000069254EA050240F0E781002E40F02885BE
:10329000002B42D11BF001030B9300F0A6833023D7
:1032A0008DF8C7300DF1C7030E9392E20C98FFF72B
:1032B00061F96BE4002A40F0E185002F3FF454AD42
:1032C000002301228DF8773028AB07928DF8A0708B
:1032D0000B920E9375E60223C9E759460D9C0734FD
:1032E00024F007031846F0E802230D9014461D460B
:1032F000002A73F10003FFF61BAE731C9DF8778064
:1033000000F0218454EA050321F0800B40F0A981EC
:10331000002E40F0AB81CDF818B0002632AB0B96F2
:103320000E9356E29B460D9C073424F00703F3E806
:1033300002450D9300239AE79B460D9C073424F029
:103340000703F3E802450D93012390E7652F40F34F
:10335000318100220023DDE9100104F0BFFD0028C7
:1033600000F04082269B1F4ACAF800200133013436
:103370000122072BCDE92634CAF8042000F39784F4
:103380000AF1080A1F9B129A279C934280F2278316
:10339000269B159ACAF80020139ACAF80420013314
:1033A0001444072BCDE9263400F3F0830AF1080A10
:1033B000129B5D1E002D7FF758AE102D269ADFF868
:1033C00028B040F36A8410260C9FDDF8208013E0BB
:1033D00088960008FFFFEF7F789600087C9600082B
:1033E0009C960008B8960008CC9600080AF1080AD6
:1033F000103D102D40F3518401321034072ACDE9DD
:103400002624CAE900B6F1DD25AA4146384603F074
:10341000C5FD00287FF4AFACDDE926240DF1C80A14
:10342000E6E70A9B079A9D1A002D7FF705AE102D3F
:10343000269ADFF8A0B52DDD584653462146CA46E8
:10344000BB46B1464FF010080C9C089E074604E0AE
:10345000103D102D03F1080315DD01321031072A4C
:10346000CDE92621C3E90078F2DD25AA31462046C0
:1034700003F094FD00287FF47EAC103D102DDDE9B3
:10348000262132ABE9DC4E46D1469A463B460C46F5
:103490005F469B4601322C44072ACDE92624CAE91F
:1034A00000B500F310840B9BF61A002E0AF1080AEF
:1034B0007FF7C7AD102E269ADFF818B528DD5946DC
:1034C0002346BB461025DDF83080089C0F4604E0FB
:1034D000103E102E0AF1080A16DD01321033072AB9
:1034E000CDE92623CAE90075F2DD25AA214640462A
:1034F00003F054FD00287FF43EAC103E102EDDE9B1
:1035000026230DF1C80AE8DC1C463B465F469B4675
:1035100001323444072ACDE92624CAE900B600F373
:1035200046820AF1080A8CE525AA08990C9803F04E
:1035300035FD00283FF4ADAD1DE425AA08990C988F
:1035400003F02CFD00287FF416AC1F9B279C0DF187
:10355000C80A002B40F0CA83069B129A03F00103AD
:1035600013433FF482AD269A159BCAF80030139B93
:10357000CAF8043001321C44072A2794269200F32B
:1035800091840AF1080A129B0E9901321C44072A01
:10359000CDE92624CAE900137FF765AD25AA08996D
:1035A0000C9803F0FBFC00287FF4E5AB279C0DF1A1
:1035B000C80A5AE5129A269B012A04F1010403F174
:1035C00001050AF1080640F3B58101230E9ACAF8F5
:1035D0000020072DCDE92654CAF8043000F32583D6
:1035E000139B159A01351C44072DCDE92654C6E9D5
:1035F000002300F3268308366B1C1F46B846129F33
:103600000B9300220023DDE9100106F1080A013FB7
:1036100004F064FC002840F0A1810E9B7760013328
:103620003C44B8F1070F33602794CDF8988000F33D
:103630009D8206F1100305F1020856469A46169A35
:103640007260144421ABB8F1070F2794CDF898802D
:1036500033607FF70AADA1E7012BDDF818B07FF4E6
:1036600077AC002D08BF0A2C80F03C810123303458
:103670000B930DF1C7038DF8C740CDF818B00E932A
:10368000A7E0102D269A2CDD51462046CA464FF061
:103690001008B14617932E460C9C089D04E0103E7E
:1036A000102E01F1080116DD0132C94B1030072A36
:1036B000CDE92620C1E90038F1DD25AA29462046BA
:1036C00003F06CFC00287FF456AB103E102EDDE9B1
:1036D000262032A9E8DC179B354604464E46D146E3
:1036E0008A460132BA492C44072ACDE92624CAE980
:1036F000001500F3B2820AF1080A78E425AA0899B5
:103700000C98179303F04AFC00287FF434AB279CF5
:10371000179B0DF1C80A7CE425AA08990C9803F0C0
:103720003DFC00287FF427AB279C0DF1C80A7FE4FD
:10373000102D269B21DD10260C9FDDF8208004E053
:10374000103D102D0AF1080A17DD0133A04A10348C
:10375000072BCDE92634CAE90026F1DD25AA41462A
:10376000384603F01BFC00287FF405AB103D102DFC
:10377000DDE926340DF1C80AE7DC0133944A2C4414
:10378000072BCDE92634CAE900257FF777AC25AAB7
:1037900008990C9803F002FC00287FF4ECAA279CFF
:1037A0006CE4DDF850C032AA230904F00F0043EAAC
:1037B000057329091C460D461CF8003002F8013D2E
:1037C00054EA0503F0D132AB9B1A0E92CDF818B033
:1037D0000B930B9BB342B8BF3346079300230F9361
:1037E000FFF780BB1F9B002B40F346820F9B129A72
:1037F0009342A8BF1346002B1D460EDD269B0E9A52
:10380000CAF8002001332C44072B2794CAF804502F
:10381000269300F396830AF1080A0F9B002DA8BF98
:103820005B1B002B1D4600F3C8811F9A129B9A4216
:1038300080F29081269B1599CAF800101399CAF856
:10384000041001330C44072B2794269300F30983BB
:103850000AF1080A0F99129B9142A3EB020380F22E
:10386000E0811D46002D10DD269ACAF80450DDE9DE
:103870000E10013201442C44072ACAF80010CDE989
:10388000262400F36A830AF1080A002DACBF5D1BF1
:103890001D46002D7FF7E9AB102D269ADFF834B1D5
:1038A00040F3FB8110260C9FDDF8208005E00AF133
:1038B000080A103D102D40F3F08101321034072A20
:1038C000CDE92624CAE900B6F1DD25AA41463846ED
:1038D00003F064FB00287FF44EAADDE926240DF1F5
:1038E000C80AE6E732ABCDF81890C146B0461E468E
:1038F00001E004460D460A2200232046294604F032
:103900005DFB303206F8012D00230A2220462946AD
:1039100004F054FB002D08BF0A2CEAD232460E9662
:103920004646C846DDF81890CDF818B032AB9B1A61
:103930000B934EE7069AD0073FF547AE01220E994A
:10394000CAF80010072DCDE92654CAF8042000F368
:103950000D8103F102080AF1100A70E6002F7FF7CB
:103960006EAE102FDFF86CB040F3A58323464FF006
:103970001008DDF830A0089C0B9D05E00836103FCC
:10398000102F40F3F68101351033072DCDE9265372
:10399000C6E900B8F2DD25AA2146504603F0FEFA3A
:1039A00000287FF4E8A9DDE9265332AEE7E725AA2F
:1039B00008990C9803F0F2FA00287FF4DCA9279C00
:1039C0000DF1C80AFFF73DBB0025FFF73CBA00BF69
:1039D000BC960008CC9600084C46FFF72DB9069B14
:1039E000DE073FF5D5ACFFF740BB32AB0E93F0E6F8
:1039F000099912680D93CD1708462946C2E90001BE
:103A0000FFF7EEB8DDE9100102460B4604F098FA24
:103A1000002840F02783741C27F0200500F0AC82BA
:103A2000472D00F03B82DDE910014BF48072002944
:103A30000692C0F20F829DED107B8DED1A7B002364
:103A40001793662F00F0B281462F00F0AF81452D0D
:103A500000F0428223A820A91FAA0223CDE9031067
:103A6000029200930196DDE91A230C9800F0E8FC1D
:103A7000672F0E90344640F03F821BF0010F40F05C
:103A80003E821F9A239B0F920E9A472DA3EB0203AF
:103A9000129306D10F9BD81C02DB9E4280F2438218
:103AA000023F0F9B8DF884705A1E002A1F92B6BFEA
:103AB000C3F101022B232D23092A8DF8853040F311
:103AC000C0820DF193042046B44D01E008461A4629
:103AD00085FB0231D317C3EBA10303EB8301A2EBF8
:103AE00041013031632A00F8011C00F1FF31EDDCA7
:103AF0003033821EDBB2944201F8013C40F2E8828E
:103B00000DF1860201E011F8013B02F8013B8C4205
:103B1000F9D10DF195030DF186021B1A134421AA68
:103B20009B1A1693129A169B012A13440B9340F387
:103B3000A6820B9B139A13440B9323EAE373079318
:103B400000230F936CE18B468BE540420A900D9366
:103B5000FFF749B9069BDD073FF56CAE0F99129B45
:103B60008A42A3EB02035CDD1D468EE625AA089976
:103B70000C9803F013FA00287FF4FDA8DDE9263441
:103B80000DF1D00A03F1010832AE58E525AA0899D3
:103B90000C9803F003FA00287FF4EDA8279C0DF1A0
:103BA000C80A05E4062E334628BF06230B93079365
:103BB0007B4B0D940E93FFF704BA102B269ADFF877
:103BC000E8B140F3368110260C9FDDF8208005E037
:103BD0000AF1080A103D102D40F32B8101321034F8
:103BE000072ACDE92624CAE900B6F1DD25AA414617
:103BF000384603F0D3F900287FF4BDA8DDE9262478
:103C00000DF1C80AE6E70E9ACDF818B032AB9B1A50
:103C10000B93DEE50D9A12680D93099B1360FEF776
:103C2000DFBF129A0F99551A1CE625AA08990C981D
:103C300003F0B4F900287FF49EA8DDE9265432AEE3
:103C4000CEE425AA08990C9803F0A8F900287FF47F
:103C500092A8DDE9265432AECEE425AA08990C9844
:103C6000179303F09BF900287FF485A8279C179BE6
:103C70000DF1C80AFFF7BBB9269A4A49CAF80010E5
:103C8000013201340121072ACDE92624CAF80410A3
:103C90003FF753AC0AF1080A5BE401322C44072ACF
:103CA000CDE92624CAE900B57FF7DDA976E425AA87
:103CB00008990C9803F072F900287FF45CA80DF1C4
:103CC000C80AFFF75FBB25AA08990C9803F066F9AC
:103CD00000287FF450A8279C0DF1C80AFFF7ACB963
:103CE000012BDDF818B07FF433A9BFE4269A1599AB
:103CF000CAF800101399CAF8041001320C44072ABC
:103D00002794269200F3CE800AF1080A002BBFF612
:103D10003AAC5D421033DFF890B080F27B815F46B1
:103D20001026DDF82080DDF830B005E00AF1080A41
:103D3000103D102D40F36D8101321034072ACDE97A
:103D40002624CAE90076F1DD25AA4146584603F04B
:103D500025F900287FF40FA8DDE926240DF1C80A13
:103D6000E6E70E98FEF78CFE2E4603460B90FFF713
:103D7000B0B81C4605F1010806F108023C44B8F150
:103D8000070F2794C6E900B7CDF898803FF7EEAE4D
:103D900008F1010802F1080A164650E467666666F3
:103DA000B0960008B8960008CC96000823A820A971
:103DB0001FAA0323CDE90310029200930196DDE9C7
:103DC0001A230C9800F03CFB0E900E9B1B78302BB6
:103DD00000EB060456D01F9B1C4400220023DDE9A3
:103DE0001A0104F07BF8002800F08C8023460E9A1C
:103DF0009B1A1293472D1F9B0F933FF44BAE662FD8
:103E00007FF44FAE0F9A0BF00103002A43EA06033A
:103E100040F34481002B40F01D810F9B07930B93CF
:103E2000179B002B7AD02D238DF877300026FFF7D3
:103E30005CB801322C44072ACDE92624CAE900B532
:103E40003EDC0AF1080AF0E44FF02D088DF8778087
:103E5000FFF792B901F100431B932D231A9017939A
:103E6000EFE525AA08990C9803F098F800287EF44D
:103E700082AF1F9A279C0DF1C80AEBE48DF87710EA
:103E8000FFF71BBA00220023DDE91A0104F026F82F
:103E90000028A0D1C6F101031F939DE7002E08BFA3
:103EA0000126C0E525AA08990C9803F077F80028A8
:103EB0007EF461AF1F9BDDE926240DF1C80A25E7DA
:103EC00025AA08990C9803F069F800287EF453AFEE
:103ED000279C0DF1C80AA8E423A820A91FAA022341
:103EE000741CCDE90310029200930194DDE91A23BA
:103EF0000C9800F0A5FA0E90472F3FF4BEAD0E9B34
:103F00001C446AE7239BA342BFF471AF30215A1CC3
:103F100023921970239B9C42F9D868E79DF877801B
:103F2000179EFEF7DFBF0F9B12998B4231DB1BF010
:103F3000010F40F0AA8023EAE37207920B936727F0
:103F40006EE725AA08990C9803F028F800287EF45B
:103F500012AF279C0DF1C80A5FE425AA08990C98B6
:103F600003F01CF800287EF406AF1F9B129A279CD2
:103F7000D31A0DF1C80A88E4062654E507960B9675
:103F80000D940646CDF818B00F909DF87780FEF797
:103F9000A9BFDDE9123213440F9A0B93002A06DC05
:103FA0000F9B0B9AC3F101031A4413460B9223EAA9
:103FB000E3730793672733E78DF87710FFF771B83E
:103FC0008DF87710FFF77FB88DF87710FFF7A5B859
:103FD0008DF87710FEF790BF8DF87710FFF7DEB8F9
:103FE0008DF87710FFF7F1B88DF87710FEF745BF21
:103FF0008DF87710FFF7FFB88DF87710FEF716BF32
:104000008DF87710FFF777B84FF0FF330993FEF77D
:10401000B7BEBB4601322C44072ACDE92624CAE9A3
:1040200000B57FF7AEAA25AA08990C9802F0B6FF52
:1040300000287EF4A0AEDDE926240DF1C80AFFF7C2
:10404000A2BA302330328DF8863004238DF88720D1
:10405000169367E5139BD31833440B9323EAE3735A
:104060000793DDE6119B204A002BB6BF4FF02D08C9
:104070009DF877808DF877801C4BFFF77FB81BF099
:1040800001020F927FF455ADE8E70F9B139A13449A
:104090000B9323EAE37307936727C1E61BB9012358
:1040A00007930B93BCE6139B013333440B9323EA32
:1040B000E3730793B4E6524660E60D9B99F80170EE
:1040C00053F8046B0D93814646EAE676FEF7C0BDD1
:1040D0000223169326E55B46FEF7EBBF5946FFF732
:1040E00065B85B46FFF70FB8809600088496000815
:1040F00010B4044C13460A46014620685DF8044B90
:10410000FEF72EBDA8020020F0B50C46ADF26C4DB6
:104110008989666EE589199621F00201666AADF813
:104120000E500025E769ADF80C10099606951AAEF9
:104130004FF48065694600960496029505950797A9
:104140000646FEF70DFD051E07DB30466946FEF705
:1041500075F9002818BF4FF0FF35BDF80C305B062D
:1041600003D5A38943F04003A38128460DF26C4D8B
:10417000F0BD00BF70B5141E9AB005462BDB1A4681
:104180004FF4027300910491ADF80C3013D0013C50
:104190004FF6FF761E9B029469460594ADF80E60BB
:1041A00001F02EFC421C01DA8B232B60009B0022C5
:1041B0001A701AB070BD1E9B02944FF6FF766946C6
:1041C0000594ADF80E6001F01BFC431C01DA8B2353
:1041D0002B601AB070BD8B2303604FF0FF30F8E7FF
:1041E00010B5054C82B0009313460A46014620687C
:1041F000FFF7C0FF02B010BDA802002070B50D4649
:10420000084C114606461A46284600232360FCF750
:10421000E7FA431C00D070BD2368002BFBD033604D
:1042200070BD00BFE40E002038B5324B1B68054658
:104230000C460BB19A6B12B3B4F90C2093B2180769
:1042400025D5206900282DD013F0010207D063691D
:1042500000225B42A361A26038B1002038BD9907FB
:1042600058BF6269A2600028F7D1B4F90C301A0671
:10427000F4D543F04003A3814FF0FF3038BD18461A
:10428000FEF778F9B4F90C2093B21807D9D4D906FF
:1042900028D5580712D4206942F00803A3819BB2A5
:1042A0000028D1D103F42072B2F5007FCCD028468B
:1042B0002146FEF713FAA3892069C5E7216B51B1A6
:1042C00004F14003994204D0284603F0EFFFB4F90B
:1042D0000C200023236300232069636022F0240262
:1042E0002060D9E742F0400209232B604FF0FF30F5
:1042F000A28138BDA802002038B5074C002305462E
:1043000008462360FCF750FA431C00D038BD2368F0
:10431000002BFBD02B6038BDE40E00202DE9F04FC0
:1043200003690F69BB4283B0C0F28680013F01F18F
:10433000140600F1140A56F827305AF82720BC005A
:104340000133009406EB04099A425444B2FBF3F89B
:1043500001943AD300252A46B646D4465EF8044B6B
:10436000DCF800301FFA84FB08FB0B554FEA154BB5
:10437000240C08FB04B4ADB2551BA2B2C2EB13422D
:1043800015FA83F302EB23429BB243EA0243F14561
:104390004FEA14454CF8043B4FEA2242DED2009B20
:1043A0005AF803308BB9019A131F9A450CD252F870
:1043B000043C4BB9A2F1080302E01A68043B1AB9A5
:1043C0009A4507F1FF37F8D30761044601F00EFA6A
:1043D00000282DDB08F101085046002356F8041B85
:1043E00005688AB29A1A0B0C12FA85F2C3EB1543D0
:1043F00003EB224392B242EA0342B14540F8042B58
:104400004FEA2343EAD25AF827200AEB87037AB906
:104410001A1F92450BD253F8042C42B9083B02E014
:104420001A68043B1AB99A4507F1FF37F8D3276198
:10443000404603B0BDE8F08F002003B0BDE8F08F28
:104440002DE9F04F016C97B016461F468246239C1B
:10445000CDE9026749B1426C4A60012393408B6009
:1044600000F0D8FF0023CAF840303E1EB4BF01233D
:1044700000232360764BBCBF26F000460396B3436F
:1044800000F0B0809DED027B0022002351EC170B61
:104490008DED067B03F022FD054678B1229A0123BB
:1044A0001360249B002B00F013836A4B249A136043
:1044B000013B0593059817B0BDE8F08FDDE906785C
:1044C00014AA15ABCDE9003250463A46434601F0F6
:1044D00025FA340D834640F09B80DDE914542C44CA
:1044E00004F23243202B40F3B983C3F140039E40D2
:1044F000029B04F2124023FA00F0304303F00CFA5E
:10450000A1F1F87301210246013C0E9110461946B3
:104510000022514B03F0C2F847A3D3E9002303F074
:1045200075FA47A3D3E9002303F0BAF806462046FC
:104530000F4603F001FA44A3D3E9002303F066FA1F
:1045400002460B463046394603F0AAF806460F46A7
:1045500003F00CFD0022814600233046394603F06B
:10456000C7FC002840F0A7822C1BB9F1160F04F1FC
:10457000FF3800F29482394B03EBC903D3E90023DF
:10458000DDE9060103F0B4FC00286DD00023B8F18A
:10459000000F09F1FF390D93C0F2878200230993C0
:1045A000B9F1000F66DA099BCDF82090A3EB09035F
:1045B0000993C9F100030C93209B092B4FF00009CC
:1045C00060D8052B40F34883043B20930024209BB4
:1045D000023B032B00F23F86DFE813F06504620420
:1045E00039045504229A42F20F731360029BC6F3FA
:1045F0001306334318D1249B002B00F02386184B5D
:1046000005930833249A0598136017B0BDE8F08F1E
:10461000C8F3130141F07F530E953A46A4F2FF34DC
:1046200043F44013149D71E7249B002B40F0FE835C
:104630000C4B05933EE700BF61436F63A787D23FF2
:10464000B3C8608B288AC63FFB799F501344D33F81
:104650000000F07FB99600080000F83F2897000896
:10466000E0960008DC960008B8F1000FC0F2B784AD
:104670000D90099000230C93209BCDF82090092BDE
:10468000C8449ED94FF0FF350124CDE90A540023D8
:10469000209321930021CAF844100F95504600F052
:1046A00093FE0E2D0590CAF8400000F20A81002CFE
:1046B00000F007810899002940F36784B14B01F0AD
:1046C0000F0203EBC20393ED007B0C11E3068DEDAB
:1046D000107B40F10784AC4BDDE90601D3E90823E8
:1046E00003F0BEFACDE9020104F00F0403267CB109
:1046F000DDE91001A44DE70704D5D5E9002303F057
:1047000085F90136641005F10805F4D1CDE91001F1
:10471000DDE90201DDE9102303F0A2FACDE902018F
:104720000D9B53B1DDE902450022984B20462946F6
:1047300003F0DEFB002840F02185304603F0FCF852
:10474000DDE9022303F062F9914B002202F0A8FF99
:104750000A9B0446A1F15075002B00F0FA83089BD8
:1047600012930A9B1093DDE902673946304603F045
:10477000FDFB029003F0E0F802460B463046394656
:1047800002F08CFF7F4B029A0F461099064603EB0E
:10479000C1030B9805993032CDE90245D5B24C1CC6
:1047A00053E90223002800F08D840020794903F0AA
:1047B00057FADDE9022302F071FF059B32461D70B6
:1047C0003B46CDE9020103F0B1FB002840F0CA846A
:1047D00032463B4600206D4902F060FF02460B4620
:1047E000DDE9020103F0A2FB002840F02685109BC2
:1047F000012B62D0059ACDF840901344CDF84C803F
:10480000DDE90289CDF808B0D3469A460CE00020D5
:104810005E4902F043FF42464B4603F069FB002825
:1048200040F0EB84A24541D04046494600225A4B15
:1048300003F0ECF80022584B804689463046394652
:1048400003F0E4F80F46064603F090FB054603F03C
:1048500073F802460B463046394602F01FFF3035EA
:10486000EDB242464B4604F8015B06460F4603F0A4
:104870003FFB32463B460028C9D0129BDA46013343
:10488000DDF808B008935946504600F0C3FD0023F8
:104890002370229B1A46089B1360249B002B3FF435
:1048A00009AE05981C6017B0BDE8F08FDA46DDF858
:1048B0004090DDF84C80DDF808B0DDE90634CDE944
:1048C0000234159B002BC0F2C980089A0E2A00F30F
:1048D000C5802C4B03EBC203D3E90089219B002B3D
:1048E00017DA0A9F002F14DC40F04C8300222B4B78
:1048F0004046494603F08AF8DDE9022303F00CFB49
:10490000002800F0BF830A9F3D46219B059CDB43A6
:1049100060E2DDE9024542464B462046294603F067
:104920009FF903F023FB029003F006F842464B4642
:1049300003F06CF802460B462046294602F0AEFE14
:10494000029B059C089A303304F8013B0A9B013214
:10495000012B06460F46089254D000220E4B03F05E
:1049600055F80022002306460F4603F0B7FA002848
:1049700089D1CDF808B00125DDF828B0CDF818A010
:1049800019E000BF28970008009700080000F03FDA
:1049900000001C400000E03F0000244000001440E4
:1049A00003F034F80022002306460F4603F096FA7F
:1049B000002840F05D8342464B463046394603F0BE
:1049C0004FF903F0D3FA824602F0B6FF42464B4657
:1049D00003F01CF802460B463046394602F05EFEF4
:1049E00001350AF1300CAB4506460F464FF0000288
:1049F000A74B04F801CBD3D1DDF808B0CDF808A05F
:104A0000DDF818A032463B463046394602F048FEF3
:104A100042464B4606460F4603F088FA60B94246C6
:104A20004B463046394603F059FA00283FF42BAF85
:104A3000029BDB077FF527AF14F8015C059A631E24
:104A400004E09A4200F0C08313F8015D392D03F1B0
:104A50000104F6D06A1CD2B21A7014E70B9A002A2D
:104A60003CD0209A012A40F359820A9B5E1E0C9B7F
:104A7000B34280F235820C9B0C96F31A99440026BF
:104A80000A9B002BC0F2F982099A14461A449844F2
:104A900009920121504600F05DFD054621E0012309
:104AA000B8F1000F0D93BFF679ADC4F1010309937E
:104AB0004FF0000874E5484602F03EFF32463B46A0
:104AC00003F00CFA00287FF44FAD09F1FF394BE5F4
:104AD000704B0593059817B0BDE8F08F0C9E099CAC
:104AE0000B9D002C0CDDB8F1000F09DD4445099A3F
:104AF0002346A8BF4346D21A0992E41AA8EB03083A
:104B00000C9BD3B10B9B002B00F08981002E10DD94
:104B100029463246504600F0BFFD5A46014605463A
:104B2000504600F021FD59460746504600F072FC01
:104B3000BB460C9B9A1B40F073810121504600F04C
:104B400009FDB9F1000F074600F38E80209B012B71
:104B500040F3718100260120B9F1000F40F08F80F1
:104B6000404410F01F0075D0C0F12003042B40F327
:104B70006D83C0F11C00099B0344099304448044E5
:104B8000099B002B05DD59461A46504600F0D4FD1E
:104B90008346B8F1000F05DD39464246504600F025
:104BA000CBFD07460D9B002B40F01E810A9B002B7E
:104BB00040F3F580089B013308930B9B002B77D1C2
:104BC000059CDDF82880012603E000F02DFC01366D
:104BD000834639465846FFF7A1FB464500F13009A8
:104BE00004F8019B4FF000034FF00A02594650466B
:104BF000EBDB0023029359460122504600F09CFD56
:104C00003946834600F0F2FD002814F8012C40F3E9
:104C10007081631E059904E0994200F0788113F8D1
:104C2000012D392A03F10104F6D001321A703946F8
:104C3000504600F0EFFB002D3FF425AE029921B164
:104C4000A94202D0504600F0E5FB2946504600F04C
:104C5000E1FB18E61C208EE70124B8E4C3F120062E
:104C6000029B03FA06F049E401464A46504600F02A
:104C700013FD209B012B074640F3B38100263B69BF
:104C800007EB8303186900F015FCC0F1200067E70B
:104C900000002440B8960008294600230A22504606
:104CA00000F0C2FB0F9B002B054640F3C1820A9324
:104CB000002C00F30E81002E40F0C681A846029B16
:104CC0002099059E03F001020C920A430B920A9A66
:104CD000731E1A440A923C4621465846FFF71EFBB3
:104CE00029460290584600F081FD4246074621467B
:104CF000504600F097FD029B03F13002C3688146E5
:104D0000002B3ED101465846099200F06FFD4946FE
:104D10000690504600F07EFB069B099A1BB90B9942
:104D2000002900F07182002F06F10109C0F26F81A5
:104D300020990F430C99394300F06981002B00F34F
:104D4000A3810A9B3270B34200F0AA815946002326
:104D50000A22504600F068FB4545834629464FF03D
:104D600000034FF00A02504613D000F05DFB4146AD
:104D7000054600230A22504600F056FB4E46804668
:104D8000AAE701465046069200F044FB0123069A2A
:104D9000C9E700F049FB4E46054680469CE7209B4C
:104DA000022B40F383800A9B002B7FF4AEAD394683
:104DB0000522504600F038FB01460746584600F0F1
:104DC00015FD00287FF7A1AD059C089B312204F852
:104DD000012B0133013339465046089300F01AFB8A
:104DE000002D7FF432AF4EE53946584600F0FEFC08
:104DF0000028BFF6DBAE594600230A22504600F0D9
:104E000013FB089B03F1FF380B9B8346002B7FF4B9
:104E100043AF0F9B002B40F302820A93D0E60C9A1B
:104E20005946504600F038FC834686E69F4B059372
:104E30000333FFF7E7BBDDE9021200297FF48AAEF6
:104E4000C2F31303002B00F0D680029E83E60123F9
:104E50000B93219B002B47DD0F930A9318460021EB
:104E60001728CAF844100A9D7FF718AC01220423C2
:104E70005B0003F114068642114602F10102F7D9E4
:104E8000CAF844100AE401230B93219B089A1344A7
:104E90000F930133012B18460A93B8BF0120DEE7B8
:104EA00000230B93F1E700230B93D2E7089B013318
:104EB00008930B9B002B7FF4FBAE39465846FFF757
:104EC0002DFA059C00F13009002304F8019B0293A0
:104ED00091E629462246504600F02EFC0546EAE6B9
:104EE0009E1BCDE5022602E4012521950A95FFF7D8
:104EF000D1BB03D119F0010F7FF48BAE631E01E02B
:104F000013F8012D302A03F10104F9D08FE6089A35
:104F100001320892059A3123137088E60E9A002A0E
:104F200000F0258103F23343099A0C9E14461A447B
:104F300098440992ADE5304602F0FEFCDDE902231B
:104F400002F064FD00225A4B02F0AAFB0446A1F1D4
:104F500050750022574BDDE9020102F09FFB22460B
:104F60002B4606460F4602F0E1FF002840F08980FC
:104F7000224605F100433046394602F0B9FF0028C9
:104F80003FF49BAC00273D46BFE400F0F480089B53
:104F90005C42494B04F00F0203EBC203D3E9002348
:104FA000DDE9060102F032FD2411CDE9020100F035
:104FB000E280424D00230226E20705D5D5E9002311
:104FC00002F024FD01360123641005F10805F3D138
:104FD000002B3FF4A5ABCDE90201FFF7A1BB0D907B
:104FE00063E5DDE9021200297FF448AEC2F3130342
:104FF000002B7FF443AE324E1640002E3FF4ABAD93
:10500000099B0133099308F101080126A3E5002B50
:1050100027464C46914612DD59460122504600F083
:105020008BFB3946834600F0E1FB002840F3DE802D
:10503000B9F1390F00F0CF80029B03F131090295DD
:1050400086F800904546F2E56968504600F0BCF9E4
:105050002B6902339A00044605F10C010C30FDF770
:10506000DFFB21460122504600F066FB804626E623
:10507000DDF808B0DDF818A005E4DDE909329C1A76
:1050800007E500273D469FE6392A27464C4600F0B3
:10509000A28002F10109029586F800904546C6E516
:1050A000274602954C4645469146A4E5DC96000805
:1050B00000001C40000014402897000800970008DA
:1050C0000000F07FDDE9020102F0A0FC059B1D70ED
:1050D000109B012BCDE9020123D0109B059ACDF83E
:1050E00040901344C14698460022644B30463946EE
:1050F00002F08CFC0F46064602F038FF054602F02F
:105100001BFC303502460B463046394602F0C6FAE3
:1051100004F8015BA04506460F46E5D1C846DDF818
:105120004090574B0022DDE9020102F0B9FA324605
:105130003B4602F0DDFE002852D1DDE902230020CB
:105140004F4902F0ABFA32463B4602F0EFFE002830
:105150003FF4B3AB00E0144614F8013C302B04F1EB
:10516000FF32F8D0129B01330893FFF78CBB149BDE
:10517000C3F13603D8E60226FFF7D2BA0A9B002B0A
:105180003FF4D9AE0F9F002F7FF797AB00223B4B28
:105190002046294602F03AFC04460D46701CCDE933
:1051A000024502F0C9FB22462B4602F02FFC354B8C
:1051B000002202F075FA089B1097013B0446A1F10A
:1051C00050751293FFF7CFBA089A01320892312234
:1051D0001A70FFF758BB392202953270454618E520
:1051E000129B0133089314F8015C27E47FF427AF86
:1051F00019F0010F7FF41CAF21E7129B0133DA464F
:105200000893DDF808B019E4392A3B469146274651
:1052100006F10104DFD0002B3FF70EAF0FE7209B14
:10522000022B7FF74AAE0F9B0A93CDF82080BAE598
:10523000209B022BF7DC0F9B39E5129B013308936F
:10524000FFF7FCBB104B0593FFF734B93FF498AC64
:10525000C0F13C008FE40024CAF844402146504687
:1052600000F0B2F84FF0FF330F930A93012305903B
:105270002194CAF840000B93FFF723BB00002440A1
:105280000000E03F00001C40E096000870B539B116
:1052900005460C4608B1836B83B3B4F90C3013B9DF
:1052A0000026304670BD21462846FDF721F8E36A06
:1052B000064633B1E169284698470028B8BF4FF049
:1052C000FF36A3891B0620D4216B41B104F14003B2
:1052D000994202D0284602F0E9FF00232363616C63
:1052E00021B1284602F0E2FF00236364FDF748F98C
:1052F0000023A381FDF746F9304670BDFDF73AF96A
:10530000B4F90C30002BCBD0CDE72169284602F050
:10531000CDFFD9E738B5074C002305460846236082
:10532000FBF7AEFA431C00D038BD2368002BFBD03E
:105330002B6038BDE40E0020044A054B1268506B08
:10534000002808BF1846F030704700BFA8020020B0
:10535000D8060020044B054A1B685B6B002B08BF76
:10536000134693F828017047A8020020D8060020B1
:1053700070B50D46084C114606461A4628460023CD
:105380002360FBF799FA431C00D070BD2368002B03
:10539000FBD0336070BD00BFE40E002082B049B185
:1053A0005AB16BB113780B601278101C18BF012032
:1053B00002B0704701A9002AF3D1104602B070472D
:1053C0006FF00100F4E700BFC36C70B505460C46F2
:1053D0004BB153F8240080B1026843F82420002325
:1053E000C0E9033370BD2122042102F061FF0346AE
:1053F000E8640028EDD1002070BD012101FA04F617
:10540000721D2846920002F053FF0028F3D0C0E935
:105410000146E4E731B1C36C4A6853F822000860E2
:1054200043F82210704700BFF0B50C6983B00D46F9
:10543000064601F1140C0027DCF8000081B202FBE3
:105440000133190C000C02FB00109BB2013703EB77
:105450000043BC424CF8043B4FEA1043ECDC3BB148
:10546000AA68A24207DD05EB8402013453612C6176
:10547000284603B0F0BD6968019301313046FFF75B
:10548000A3FF2A69023205F10C01074692000C3095
:10549000FDF7C6F9F26C6968019B52F8210028609B
:1054A00042F821503D4605EB8402013453612C61E2
:1054B000DEE700BF020C12040346CAB90304102041
:1054C00013F07F4F04BF1B02083013F0704F04BF6E
:1054D0001B01043013F0404F04BF9B000230002B2F
:1054E00005DB13F0804F00F1010008BF202070475A
:1054F0000020E5E7036813F00702014607D0DA074A
:1055000020D4980722D55B080B600120704798B221
:10551000B0B91B0C102013F0FF0F04BF1B0A08309A
:105520001A0704BF1B0904309A0704BF9B08023006
:10553000DA0703D45B0800F1010005D00B60704767
:105540001046E8E700207047202070479B080B605A
:105550000220704710B50C460121FFF735FF0122EC
:10556000C0E9042410BD00BF2DE9F04F0E69176992
:10557000BE4283B00C46154605DB3A462B463746FD
:105580000D4616461C46D5E9011307EB06084345B0
:10559000B8BF0131FFF718FF00F1140A0AEB8809C0
:1055A000CA45009005D25346002143F8041B994593
:1055B000FBD804F1140E0EEB860B05F11403DE4547
:1055C00003EB870753D2CDF80480984605E0090C19
:1055D00028D1F3450AF1040A47D95EF8041B8EB2BC
:1055E000002EF4D045465446002355F8041B20688D
:1055F0008AB21FFA80FC06FB02C2090C000C13449D
:1056000006FB010202EB13429BB243EA0243AF42A4
:1056100044F8043B4FEA1243E7D823605EF8041CC9
:10562000090CD6D0DAF8003040461A4654464FF0FE
:10563000000C0588120C01FB052294449BB243EA3E
:105640000C4344F8043B50F8043B22681B0C95B211
:1056500001FB035303EB1C4387424FEA134CE8D88A
:10566000F34523600AF1040AB7D8DDF80480B8F1E5
:10567000000F0BDD59F8043CA9F104091BB105E04A
:1056800059F8043D13B9B8F10108F9D10098C0F8F0
:10569000108003B0BDE8F08F12F003032DE9F04154
:1056A000144607462ED10D46A4101CD0BE6C96B3EE
:1056B000E3074FF0000806D4641014D03068A8B196
:1056C0000646E307F8D5324629463846FFF74CFF31
:1056D000B5B16A68FB6C641053F82210296043F876
:1056E00022500546EAD12846BDE8F08132463146CF
:1056F0003846FFF739FF3060C0F800800646E0E723
:105700000546D9E7013B0B4A52F823200023FFF757
:105710008BFE0546C8E701213846FFF755FE40F2EB
:10572000712343610122002302610646B8640360CD
:10573000BEE700BFF09700082DE9F8430E690D465B
:105740004FEA6219D1E901134E44741C9C42904601
:10575000074604DD5B009C4201F10101FADC38469A
:10576000FFF732FEB9F1000F00F1140C0EDD09F164
:1057700005094FEA890900EB09016346002243F855
:10578000042B8B42FBD1A9F11409CC44296905F102
:10579000140318F01F0803EB810E1DD0C8F1200977
:1057A0000022196801FA08F111434CF8041B53F860
:1057B000042B734522FA09F2F3D3CCF80020002A17
:1057C00018BF2646FB6C6A68066153F822102960F0
:1057D00043F82250BDE8F883ACF1040C53F8042BD5
:1057E0004CF8042F9E45F9D8ECE700BF30B40B69A4
:1057F00005460069C01A10D19B00143514311944B4
:105800002B4401E09D4208D253F8044D51F8042D79
:105810009442F7D003D24FF0FF3030BC70470120E4
:1058200030BC70472DE9F8430F460D6911696D1AB8
:10583000002D9046844607F1140402F1140614D199
:1058400089006318314401E0A3425DD953F8040D87
:1058500051F8042D9042F7D009D222463B463446F7
:10586000474616469846012501E0F6DB00256046CE
:105870007968FFF7A9FD3F69D8F81030C56006EBDD
:10588000830E04EB870C00F11405002200E00D46A6
:1058900056F8041B54F8048B1FFA81F912FA88F3A6
:1058A0000A0CA3EB0903C2EB184202EB2342294680
:1058B0009BB243EA0243B6454FEA224241F8043B19
:1058C000A046E4D8A44516D90E4658F8045B12FA4F
:1058D00085F31A1402EB15429BB243EA0243C44516
:1058E00046F8043B4FEA2242EFD80CF1FF352D1B5E
:1058F00025F003050D4423B955F8043D013F002B65
:10590000FAD00761BDE8F88360460021FFF75CFD2F
:1059100001220023C0E90423BDE8F8832DE9F04308
:1059200083B001211F4616460A9DFFF74DFDC7F3C0
:105930000A548146C7F313030CB143F48013002EBD
:1059400001932AD068460096FFF7D4FDC8B9DDE977
:105950000023C9F81420002B14BF02210121C9F82B
:105960001830C9F8101024B3A4F2334808EB000330
:105970002B600B9BC0F135001860484603B0BDE8B2
:10598000F083DDE90013C0F1200203FA02F20A43BA
:10599000C3400193C9F81420DDE701A8FFF7AAFD71
:1059A000019BC9F8143001212030C9F81010002CD7
:1059B000DAD109EB8103A0F2324028601869FFF7C1
:1059C00079FD0B9BC0EB41101860484603B0BDE861
:1059D000F08300BF70B50D46084C114606461A46C6
:1059E000284600232360FAF727FF431C00D070BD30
:1059F0002368002BFBD0336070BD00BFE40E002095
:105A00002DE9F04FC3B00C460B919246CDE90C0343
:105A1000FFF792FC036815931846FDF731F8A38948
:105A200013901D0603D52369002B00F04F879FEDCF
:105A3000A67B00238DED107B1293CDE926331493C2
:105A40001693089332AB259399469AF80030002BB1
:105A500000F0A080252B00F09386554603E0252B0F
:105A600000F08B8025466B786C1C002BF7D1B4EBD3
:105A70000A0600F08F80DDE9263201333244072B1D
:105A8000C9F800A0C9F80460CDE9263279DC09F133
:105A90000809089A6B7832440892002B7AD00023C8
:105AA00067788DF877301A46194609939B4604F1BA
:105AB000010A4FF0FF360AF1010AA7F12003582B23
:105AC00000F20C83DFE813F0C1000A030A03BC00F4
:105AD0000A030A030A030A030A030A03B100930034
