:020000040800F2
:1000000000800120F92A0008452B0008452B000834
:10001000452B0008452B0008452B00080000000078
:10002000000000000000000000000000452B000858
:10003000452B000800000000452B0008452B000858
:10004000452B0008452B0008452B0008452B0008D0
:10005000452B0008452B0008452B0008452B0008C0
:10006000452B0008452B0008452B0008452B0008B0
:10007000452B0008452B0008452B0008452B0008A0
:10008000452B0008452B0008452B00080000000008
:10009000000000000000000000000000452B0008E8
:1000A000452B0008452B0008452B0008452B000870
:1000B000452B0008452B0008452B0008452B000860
:1000C000452B0008452B0008452B0008452B000850
:1000D000452B0008452B0008452B000800000000B8
:1000E000452B0008452B0008452B000800000000A8
:1000F000000000000000000000000000452B000888
:1001000000000000452B0008452B0008452B000887
:1001100000000000000000000000000000000000DF
:10012000452B0008452B0008452B0008452B0008EF
:10013000452B000800000000000000000000000047
:10014000000000000000000000000000452B000837
:10015000452B0008452B0008452B0008452B0008BF
:10016000452B0008452B000800000000000000009F
:10017000000000000000000000000000000000007F
:1001800000000000452B00080000000000000000F7
:10019000452B000810B5054C237833B9044B13B137
:1001A0000448AFF300800123237010BD680C0020C9
:1001B000000000000CEB000808B5034B1BB103491D
:1001C0000348AFF3008008BD000000006C0C002065
:1001D0000CEB0008154B002B08BF134B9D46A3F5F5
:1001E000803A00218B460F461348144A121A06F033
:1001F0006BF80F4B002B00D098470E4B002B00D014
:1002000098470020002104000D000D48002802D06E
:100210000C4801F0E0FC05F01BFE2000290001F075
:1002200067FF01F0D5FC00BF00000800008001203E
:1002300000000000E1200008680C0020A01200204F
:10024000D71B000800000000036818470B68036014
:1002500070477047F7B5164F6E4606243546384648
:1002600004F060FF013C06F8010BF8D11149284663
:1002700006F05AFA30B9104A012313700F4A13706E
:1002800003B0F0BD0E49284606F04EFA28B90A4BD5
:100290001C700A4B01221A70F2E70A49284606F040
:1002A00043FA0028ECD1044B02221A70F1E700BF98
:1002B000440D0020B0D70008840C00209C010020D1
:1002C000B7D70008BED7000810B5094B036003F18B
:1002D000200280330446C0F8BC20C0F8C030BC30D7
:1002E00004F00EFF204604F08DF9204610BD00BF3B
:1002F000C4E10008A0F1BC00E6E7A0F1C000E3E71C
:100300002DE9F0472DED048B4FF4987086B001F085
:10031000CBFD044600F082FC602001F0C5FD824662
:1003200000F012FF1022002102A805F0CDFF3C4B87
:10033000029300223B4B3C48059302A904F028F9A4
:10034000059B13B19B6802A898479FED318B9FEDE9
:10035000329B364F0026364D2B785AB2012B26D0D1
:100360009AB1022BFAD18DED009B0022314BDFF8C0
:10037000D080204600F018FC204600F0F1FA00285A
:1003800041D0404604F096FDF6E7002200232046C7
:1003900084ED488B84ED4A8B00F032F90022002373
:1003A000204600F0FBF8244B01221A70D3E7224DBF
:1003B0002B785BB1204600F0D3FA38B928701F487B
:1003C000C4E94A67C4E9486704F074FD504600F088
:1003D0009FFD504600F0C8FD32463B460BF0EEFE56
:1003E00002460B4680468946304639460BF02EFDC4
:1003F0003246C4E94A013B46404649460BF028FDD7
:10040000C4E94801A7E701232B70A4E7AFF30080FC
:100410000000000000000000333333333333D33F98
:1004200055020008A4D70008880C00200080514025
:10043000840C0020008066409C010020CDCC4C3E06
:100440000AD7233C10B50446FFF73EFF204601F0D3
:100450003FFD204610BDA0F1BC00F3E7A0F1C000B5
:10046000F0E7000010B5074C2722262120464FF464
:10047000165303F0DBFE2046034A0449BDE8104052
:1004800001F0A4BB880C002098010020C9020008DC
:10049000034607C983E807007047704710B44468F3
:1004A000816862100346E40701EB02001B6848BF45
:1004B0008A585DF8044B48BFD358184710B5044616
:1004C000806903F0F5FDD4F8F43001280CBF03F186
:1004D000FF330133C4F8F43010BD10B50446006A90
:1004E00003F0E6FDD4F8F83001280CBF03F1FF3328
:1004F0000133C4F8F83010BD10B50446806903F02C
:10050000D7FDD4F8F43001280CBF013303F1FF33D9
:10051000C4F8F43010BD10B50446006A03F0C8FDFD
:10052000D4F8F83001280CBF013303F1FF33C4F8CD
:10053000F83010BD38B51C2204460D46002105F0E8
:10054000C3FE2046294603F07CFD204638BD38B561
:1005500004460D4604F008FB237E1BB903F07EFE23
:10056000012323762946204601F0C2FEBDE838402B
:1005700004F010BB10B5044603F084FC2046064B83
:1005800040F8283B1022002105F09EFE012384F84C
:100590003830204610BD00BF84E10008D0B51646B3
:1005A0001F46044600220023304639460CF08CF8E2
:1005B00080B1E36811499A681B68136000203246D5
:1005C0003B460BF043FC0CF0F1F801462068FFF7C6
:1005D000BEFFD0BD00220023304639460CF060F843
:1005E0000028F6D0E368DA681B681B041360304605
:1005F0000022024B39460BF02BFCE4E70000F03FF1
:10060000D0B516461F460446002200233046394620
:100610000CF05AF880B1236911499A681B6813607D
:10062000002032463B460BF011FC0CF0BFF80146AF
:100630006068FFF78CFFD0BD0022002330463946AA
:100640000CF02EF80028F6D02369DA681B681B042A
:10065000136030460022024B39460BF0F9FBE4E709
:100660000000F03F000000002DE9F04FD0E94023EA
:1006700087B08146D0E948010BF0E8FBD9E9422375
:1006800082468B46D9E94A010BF0E0FB7C4EDFF84D
:100690000882CDE9000170A3D3E9002350465946F2
:1006A0000BF08CFDD6E900230BF0D2FB04460D467F
:1006B000C6E90045734E68A3D3E90023DDE90001D4
:1006C0000BF07CFDD6E900230BF0C2FBD8E9002338
:1006D000C6E90001CDE90201504659460BF0B6FBD0
:1006E0005FA3D3E900230BF069FD5BA3D3E90023EB
:1006F0000BF08EFE5CA3D3E9002306460F4650465E
:1007000059460BF05BFD02460B46304639460BF06E
:100710009FFB002206460F460023204629460BF089
:100720004DFD02460B46304639460BF091FB564CC8
:10073000564DD4E90023CDE90401DDE900010BF0B9
:1007400085FB47A3D3E900230BF038FD42A3D3E98F
:1007500000230BF05DFE44A3D3E9002306460F46B9
:10076000DDE900010BF02AFD02460B463046394612
:100770000BF06EFB002206460F460023DDE9020166
:100780000BF01CFD02460B46304639460BF060FB71
:10079000C8E900AB9DED007B064684ED007B0F466B
:1007A00000223B4B3B4CDDE904010BF031FED5E967
:1007B00000230BF04DFB0022CDE90001C5E900014B
:1007C000334B304639460BF023FED4E900230BF0BF
:1007D0003FFB27A7D7E9006782468B46C4E900ABF9
:1007E00032463B46DDE900010BF078FF60B1C5E918
:1007F00000671FA3D3E90023504659460BF06EFF54
:1008000080B1C4E9006718E01BA3D3E90023DDE948
:1008100000010BF045FF0028EBD09FED177B85ED25
:10082000007BE6E714A7D7E90067504632463B460F
:1008300059460BF035FF0028E3D1D5E9002348469F
:10084000FFF7DEFED4E90023484607B0BDE8F04FCD
:10085000FFF7A4BEAFF300807B14AE47E17A943F6C
:10086000B81E85EB51B89E3F666666666666E63FD3
:100870009A9999999999E93F9A9999999999E9BF7A
:10088000800D0020880D0020680D0020700D0020D4
:1008900000407F40780D0020600D00200000000027
:1008A0002DE9F0478246D0F8F4000BF01DFC28A398
:1008B000D3E90023804689460BF080FCCAE9420157
:1008C000DAF8F8000BF010FC21A3D3E9002304466A
:1008D0000D460BF073FCCAE94001DAF81C010BF07D
:1008E00003FC1DA3D3E9002306460F4640464946B4
:1008F0000BF064FC02460B46304639460BF0A8FA72
:100900000BF00CFFCAF81C01DAF818010BF0ECFB35
:1009100011A3D3E9002306460F46204629460BF0D3
:100920004DFC0B460246394630460BF091FA0BF06F
:10093000F5FE0023CAE93D339AF81631CAF81801CA
:1009400023B95046BDE8F047FFF78EBEBDE8F087FB
:100950000000000000701740A43A55297A6ADF3F72
:1009600038B590F81441054614B990F815318BB19B
:1009700000220023D5E940010BF088FE90B100224F
:100980000023D5E942010BF081FE58B164B995F816
:1009900015312BB995F8164114B1002485F816418C
:1009A000204638BD0124FBE70024F9E7C36810B5F1
:1009B00004460BB19B689847204610BD38B5CB68FC
:1009C00004460D460BB15B689847EB68E360204630
:1009D00038BD0000F0B52DED028B85B004466846A9
:1009E00008EE102AFFF7EAFFDFED147A68EE277AA7
:1009F00017EE900A0BF042FF06460F4604F0B4F8DB
:100A0000636B23B994F838300BB103F027FC04F181
:100A100028052846FFF7CAFF69462846FFF7CEFF9C
:100A200032463B46204603F072FA04F0B3F86846BB
:100A3000FFF7BCFF05B0BDEC028BF0BD002474498C
:100A400038B510220D460021044605F03DFC95E81E
:100A50000700024BE36084E8070038BDC8D70008F0
:100A600010B590F8F030D0F81C11D0F8E82088B01C
:100A700004460BB3914215DA012380F81531124B6D
:100A80000193002301A904A8CDE90234FFF7D8FFA0
:100A900004F168000D4A04A9FFF79CFF04A8FFF7C2
:100AA00085FF07E0002384F815310022002320464B
:100AB000FFF774FD08B010BD9142F3DD012280F80C
:100AC0001521014A0192DDE7610A00080AD7A33C1B
:100AD000F8B5D0F81C5100291F460D44D6BF00239D
:100AE000012180F8F0300446C0F8E850CCBF80F80F
:100AF000F01007F10043FFF751FD2046BDE8F84034
:100B0000FFF7AEBF10B590F8F130D0F81811D0F85B
:100B1000EC2088B004460BB3914215DA012380F82B
:100B20001431124B0193002301A904A8CDE902342A
:100B3000FFF786FF04F1A8000D4A04A9FFF74AFF5A
:100B400004A8FFF733FF07E0002384F814310022E4
:100B500000232046FFF754FD08B010BD9142F3DD9D
:100B6000012280F81421014A0192DDE7050B0008FB
:100B70000AD7A33CF8B5D0F8185100291F460D44F8
:100B8000D6BF0023012180F8F1300446C0F8EC50B4
:100B9000CCBF80F8F11007F10043FFF731FD20468C
:100BA000BDE8F840FFF7AEBF2DE9F04799460026B3
:100BB000002701238246904680F8163132463B4694
:100BC000DDE90845FFF71CFD32463B465046FFF77E
:100BD000E5FC0022104B404649460BF019FC0CA3E3
:100BE000D3E900230BF0EAFA0BF098FD2246064603
:100BF0002B4641425046FFF76BFF22462B463146BB
:100C00005046BDE8F047FFF7B5BF00BFAFF3008027
:100C10006C36A4F8084C8040008076402DE9F04105
:100C200000F1280788B004463846FFF7A3FC714D51
:100C300004F16800FFF79EFCA56604F1A800FFF729
:100C400099FCC4F8A8501C2001F02EF90025064696
:100C5000057603F089FF0821304601F063FC03F0BC
:100C600099FF26601C2001F01FF90646057603F067
:100C70007BFF0921304601F055FC03F08BFF6660D5
:100C80001C2001F011F91C210646FFF753FCE66019
:100C90001C2001F009F90C210646FFF74BFC2661E8
:100CA0001C2001F001F912210646FFF743FCD4F89D
:100CB0000080A660504E03F057FF3146404601F0D9
:100CC000F7FC03F067FFD4F8048003F04DFF3146D2
:100CD000404601F0EDFC03F05DFF20684FF07E51CF
:100CE000FFF735FC4FF07E516068FFF730FC4FF0A6
:100CF0007C5004F0DFF8A3689A681B6813605020EA
:100D0000C4E94655A4F8145184F8165101F0CCF802
:100D10000E21064603F0A0F96661502001F0C4F8E8
:100D20000D21064603F098F9A661502001F0BCF8A9
:100D30002A21064603F090F9E661502001F0B4F84C
:100D40002C21064603F088F92C4B26626669039431
:100D500001A904A8CDE90135FFF772FE04A93046C8
:100D600003F0DDF904A8FFF721FE254BE6690394A3
:100D700001A904A8CDE90135FFF762FE04A93046B8
:100D800003F0CDF904A8FFF711FE1E4B666903942A
:100D900001A904A8CDE90135FFF752FE04A93046A8
:100DA00003F0E3F904A8FFF701FE174BE66903948B
:100DB00001A904A8CDE90135FFF742FE04A9304698
:100DC00003F0D3F904A8FFF7F1FD104B039401A938
:100DD00004A8CDE90135FFF733FE0D4A04A93846D2
:100DE000FFF7F8FD04A8FFF7E1FD204608B0BDE8D5
:100DF000F08100BFB0E300086F12033BBD040008A0
:100E0000DB040008F904000817050008A108000821
:100E10000AD7A33C704710B5044601F059F82046A4
:100E200010BD38B50546044655F8043B9B68984705
:100E3000284600F0F9F923680546DB682046984704
:100E4000284638BD10B504460069FFF7EAFF0BF0ED
:100E50005DF9D4E90223C4E900010AF0F7FFC4E90F
:100E6000060110BD10B504460069FFF7DAFF0BF06C
:100E70004DF9C4E9020110BD70B5D0E90935AB42A6
:100E8000044613DB214E062D23DCA3699A681B68F8
:100E90001360304604F00EF8A369DA681B681B047F
:100EA0001360304604F006F80135ECE78369174813
:100EB0009A681B68136003F0FDFFA3691348DA68A2
:100EC0001B681B04136003F0F5FF636A0133636260
:100ED00070BDE3690D489A681B68136003F0EAFF70
:100EE000A3690A489A681B68136003F0E3FFA369CB
:100EF0000648DA681B681B04136003F0DBFFE36934
:100F0000DA681B681B0413600023E0E76F12833A62
:100F1000F8B50446FFF7B0FF124E04F13007002584
:100F2000A36AAB421DDD54F82500FFF79BFF236A3F
:100F3000DA681B681B041360304603F0BBFF54F8EB
:100F40002500FFF77FFF236A9A681B68E7E8020124
:100F50001360304603F0AEFF2046FFF78DFF0135EA
:100F6000DEE7F8BD6F12833A2DE9F84F876A002655
:100F70000446013F00F138083546B7420EDD04EB68
:100F8000C503D3E90E23F8E802010BF0A7FB06F135
:100F90000109002818BF35464E46EEE7EDB9D4E901
:100FA0000E67D4E91023304639460AF051FF024655
:100FB0000B46304639460BF02BFA02460B46002012
:100FC0003B490AF043FF00223A4B0BF0F7F80022AE
:100FD000374B0AF03BFFBDE8F88F042D1CD1D4E954
:100FE0001667D4E91423304639460AF031FF024629
:100FF0000B46304639460BF00BFA02460B460020F2
:101000002B490AF023FF00222B4B0BF0D7F8284B7B
:1010100000220AF01DFFDEE728460BF065F80022EB
:10102000244B0BF0CBF804EBC5040022204B0AF054
:101030000DFFD4E90E6780468946D4E90C2330467B
:1010400039460AF005FF02460B46304639460BF09A
:10105000DFF9D4E9102382468B46304639460AF040
:10106000F7FE02460B46304639460BF0D1F90246F0
:101070000B46504659460AF0E9FE0646681C0F46E4
:101080000BF032F800220B4B0BF098F80022084BC3
:101090000AF0DCFE42464B460AF0D8FE02460B46FA
:1010A000304639460BF08AF842464B46B1E700BF5E
:1010B0000000F03F0000E03F0000E0BF034610B535
:1010C00053F8042B044612B90360206810BD9A42FD
:1010D000FBD066220249034803F07EFDF5E700BF1E
:1010E000ECD700080CD8000808B50248FFF7E6FF67
:1010F00008BD00BF1410002008B50248FFF7DEFF4E
:1011000008BD00BF141000202DE9F0410546502015
:10111000884600F0C9FE0446094B0A4F44F8043BD8
:1011200006463846FFF7CAFF4146204600F08CF8D5
:101130003846FFF7C3FF2E612846BDE8F08100BFA7
:10114000DCD700081410002038B50446202000F039
:10115000ABFE20210546FFF7D7FF2560202000F0D9
:10116000A3FE00210546FFF7CFFF6560202000F0B9
:101170009BFE01210546FFF7C7FFA560202000F078
:1011800093FE04210546FFF7BFFFE560202000F035
:101190008BFE10210546FFF7B7FF2561202000F0E8
:1011A00083FE21210546FFF7AFFF65611C2000F09B
:1011B0007BFE2E210546FFF7BDF9A5611C2000F03E
:1011C00073FE2F210546FFF7B5F9E5611C2000F0FD
:1011D0006BFE05462321FFF7ADF92B68EA6825620F
:1011E0001B041360E3690F4D9A681B68136028465F
:1011F00003F060FEA3699A681B681360284603F039
:1012000059FEA369DA681B681B041360E369DA6896
:101210001B681B04136000230622C4E90932204620
:1012200038BD00BF6F12833A08B500F07BF807EEB7
:10123000900AB8EE677ADFED037A67EE277A17EE49
:10124000900A08BD01088039A1F1F0039BB20F2B71
:1012500073B504460D4649D92A49284603F09AF841
:1012600028492060284603F0B9F826490646284652
:1012700003F046F82368013304D13C222249234875
:1012800003F0AAFC731C04D13D221F49204803F03F
:10129000A3FC0122E26121681E4AA4F84850002301
:1012A000C6F30436914284F84A6023646360A36005
:1012B0002361A36123626362E362A362E360236349
:1012C00063610AD10193144B5A6C42F480725A64E0
:1012D0005B6C03F480730193019B204601F050FC8A
:1012E00010B10E4803F09AFD02B070BD0C492846BB
:1012F00003F050F80A492060284603F06FF80646CC
:10130000B8E700BF20D8000820DB000890DB000809
:10131000BADB00080020014000380240D3DB00089F
:10132000D4D800081FB5044610220021684604F0F6
:10133000CBFF94F84A20012301930293122A47D845
:10134000DFE802F00C0B0A232527292B2D2F313340
:101350003537393B3D424400022300931D4A536810
:1013600023F4400369465360204601F061FD2046A6
:1013700001F0AAFC0A21204601F006FD40BB2046F0
:1013800001F052FD80B204B010BD0323E5E7042351
:10139000E3E70523E1E70623DFE70723DDE708238B
:1013A000DBE70923D9E70A23D7E70B23D5E70C238B
:1013B000D3E70D23D1E70E23CFE70F23CDE710238B
:1013C000009307230293C9E71123F9E71223F7E7F4
:1013D0000020D8E70023014030B5036891FAA1F45A
:1013E000B4FA84F491FAA1F10325B1FA81F1640011
:1013F00005FA04F4490023EA040302FA01F119434F
:10140000016030BD7FB50023072855D8DFE800F024
:101410000413202D3A54544700932A4B2A481A6B40
:1014200042F001021A631B6B03F001030093009B5F
:1014300007B05DF804FB0193224B24481A6B42F07D
:1014400002021A631B6B03F002030193019BEFE797
:1014500002931C4B1E481A6B42F004021A631B6B6A
:1014600003F004030293029BE2E70393154B194830
:101470001A6B42F008021A631B6B03F00803039314
:10148000039BD5E704930F4B13481A6B42F01002ED
:101490001A631B6B03F010030493049BC8E70593C6
:1014A000084B0E481A6B42F080021A631B6B03F064
:1014B00080030593059BBBE7094803F0AFFC0020C0
:1014C000B6E700BF003802400000024000040240BE
:1014D00000080240000C024000100240001C0240C4
:1014E000E9DB0008431C10B5044604D17622064906
:1014F000064803F071FB2046002100F01DFE04F0B9
:101500000F040120A04010BD0ADC000864DC0008C4
:1015100070B504464B1C0E46218216D0C1F3031051
:10152000FFF770FF05463046FFF7DCFF238A074AC6
:10153000656103F00F03206052F82330A36105F1C9
:10154000100318356360A560E56070BDC8DE000853
:10155000B0F9100000F088BE0A4619B981694069E7
:10156000FFF73ABF0122F9E74C23F0B54343224E7F
:10157000224F1A1D324400244FF0010E1E448C42AB
:1015800005D10146BDE8F0401D4803F047BC336873
:101590000EFA04F51D422BD0136B7D690EFA03F38E
:1015A0002B4225D0D2F818C07B61156805B3FA68C4
:1015B00033EA020203D1BA6833EA020214D10F4AB5
:1015C000916833EA010103D1D26833EA02020DD1F6
:1015D000DCF81020134214BF01210221094B2846D8
:1015E0001B68BDE8F04018470221F7E70121F5E745
:1015F00001340432C3E700BF900D0020003C0140DD
:101600009EDC0008A40F002006210846FFF7ACBFAF
:1016100005210846FFF7A8BF01210420FFF7A4BF5A
:1016200001210320FFF7A0BF01210220FFF79CBF8B
:1016300001210846FFF798BF01210020FFF794BF62
:10164000012910B518D11B4C838952B1A26803F04F
:101650000F0399401143A160836843F00103836045
:1016600010BDA26803F00F03994022EA0101A160B6
:10167000836823F00103F2E70229F1D10D49838940
:101680005AB1CC6803F00F03012202FA03F323439B
:10169000CB60836843F00203E1E7CA6803F00F03FD
:1016A000012404FA03F322EA0303CB60836823F0E6
:1016B0000203D4E7003C0140B0F90C3099B270B598
:1016C00001F00F0606F00C0404F1804404F59C348C
:1016D00001F00301A56889000F228A40C3F30313B8
:1016E00025EA02058B402B43A3600F4B01221968AA
:1016F000B240114319608468E50742BF99681143FD
:101700009960A10742BFD9680A43DA6090F90030B6
:10171000002B08DB5909012203F01F0302FA03F32F
:10172000024A42F8213070BD003C014000E100E077
:101730002DE9F04F92464A1C85B080460C4666D093
:1017400000220392334A344F516C41F4804151647A
:10175000526C02F480420392039A04F00F090C22A7
:1017600002FB0972C4F303105568062D47D8DFE861
:1017700005F0043A3C3E40424400284E0193FFF7F6
:1017800041FE0C2101FB09F17A1857F801E0244FC2
:10179000A8F80C404C21694301247B5892F9082099
:1017A000C8F8045004FA0EF44FF0000B1C4388F8FC
:1017B0000020C8F808B07C50132101FB05E507EBB9
:1017C0008501019B4B60174BC861C3F800A0164B05
:1017D000C1F834909B681032404643F82260FFF70E
:1017E0006BFF584610E0114EC8E7114EC6E7114E88
:1017F000C4E7114EC2E7114EC0E7114EBEE71148D3
:1018000003F00CFB4FF0FF3005B0BDE8F08F084649
:10181000FAE700BF00380240C8DC000839160008AB
:10182000900D0020A40F002000ED00E0311600080C
:1018300029160008211600081916000811160008BC
:101840000916000877DC000883890C2203F00F03D7
:1018500070B55A431C4CA518A4581C4A6E6895686C
:10186000012101FA03F3DB431D409560D5681D405B
:10187000D56015682B4013604C237343144AD3582A
:1018800001FA04F4A3431ED190F90030002B0CDBC5
:101890005A0903F01F03994002F120030D4A42F850
:1018A0002310BFF34F8FBFF36F8F90F90030002BE1
:1018B00009DB5A09012103F01F0301FA03F3603227
:1018C000044941F8223070BDC8DC0008003C0140EA
:1018D000900D002000E100E0838903F00F020C234B
:1018E0005343104A70B4D65843680F4A4C215943A9
:1018F000012404FA06F5545824EA0504545013212F
:1019000001FB036302EB8304002161609C1D0C3327
:1019100002EB840402EB83036160596070BCFFF743
:1019200093BF00BFC8DC0008900D002008B502F08E
:1019300003FA002008BD000008B50A4B1B684BB134
:1019400002F0D0FC03F0B9F84FF47A7200230AF0E9
:101950007DFF08BD02F050FA4FF47A73B0FBF3F04C
:1019600008BD00BFA80F002010B588B003F0FCF838
:10197000052101A802F065FB0424039B019A1A606B
:10198000962003F0A5FA019B049A1B04136096208D
:1019900003F09EFA013CF0D10424039B019A1A60E3
:1019A0004FF4C87003F094FA019B049A1B0413606F
:1019B0004FF4C87003F08CFA013CEED1DCE7000074
:1019C00070B50D46A0B0044603F0CEF82B46224673
:1019D0008021684606F0D0FE051E03DC03F0DAF82D
:1019E00020B070BD094B1B6823B9032202210848AF
:1019F00000F0F2FE064E00241DF8041030460134BB
:101A000001F068F8A542F7D1E8E700BF0010002018
:101A1000201100200FB407B504A951F8040B01915F
:101A2000FFF7CEFF03B05DF804EB04B07047000091
:101A300008B502F02FF901F087F802F01BF902F067
:101A400029F9024B01221A6008BD00BFA80F00202F
:101A500000207047036801221B69002118470368B2
:101A600000221B691146184703681B691847036861
:101A70009B69184703689B6A184700290CBF6FF0E1
:101A800018000020704701207047112070477047F0
:101A90006FF01C0070476FF0150070470120704711
:101AA0000020704770470000F8B5074E15460C46F9
:101AB0008F18BC4205D014F8011B304601F00AF81B
:101AC000F7E72846F8BD00BF2011002038B58DB2D9
:101AD00015F0010405D0084800F00CFE041C18BFE6
:101AE0000124EB0605D5044800F01AFE08B144F0C5
:101AF0001004204638BD00BF2011002010B5044658
:101B000004F052FA204610BD10B50C462AB1044824
:101B100000F0CEFF2070012010BD104610BD00BFA8
:101B20002011002038B51D46074B0360074B1B688A
:101B3000044633B9064800F04FFE2946044800F039
:101B400025FE204638BD00BF90DD000800100020B3
:101B500020110020002070470020704708B50120A8
:101B600000F036F80C4A136810B51844EFF30881FA
:101B7000884205D3094B0C221A604FF0FF3010BD8C
:101B800007490C6824B10749096821448842F1D209
:101B90001060184610BD00BFA0020020981200205F
:101BA000BC0F0020C00F0020074C08B52368054675
:101BB000986803F059FC2368D86803F055FC0DB110
:101BC000FFF7D2FEFEE700BFAC0200200120704705
:101BD00008B5FFF7E9FF01207047002104F08ABC37
:101BE00003F054BC7047704708B5FFF7FBFF08BD12
:101BF00008B5FFF7F8FF08BD10B5037803F003033D
:101C0000012B04460CD02BB140F2A95205490648DD
:101C100002F0E2FF237843F002032370012010BD9D
:101C2000002010BDF5DD00084CDE000810B503787B
:101C300003F00303022B044605D040F2B1520549DC
:101C4000054802F0C9FF237823F0030343F00103A2
:101C5000237010BDF5DD000872DE00083F2870B566
:101C600004462FDC184D55F820305A1C13D1022899
:101C700011DCFFF771FF034658B92046FFF76AFFF2
:101C8000034630B9114E3378BFF35B8FDB0704D5C1
:101C90000F4B45F82430184670BD3046FFF7ACFFB7
:101CA0000028F5D04FF41653032202210848FFF70D
:101CB00039FF3046FFF7BAFF064A07490448FFF7E5
:101CC00085FFE5E70023E6E7A0010020AC0F002038
:101CD000B80F002098010020A51A000838B5054665
:101CE000FFF7BCFF0B4B002443F8254030B903F04D
:101CF00071FA092303604FF0FF3038BD03685B6958
:101D00009847051E04DA03F065FA6D420560F2E7B4
:101D1000204638BDA0010020FFF7E0BF38B50C46D3
:101D20001546FFF79BFF38B903F054FA0923036007
:101D30004FF0FF34204638BD03682146DB682A4651
:101D40009847041EF6DA03F045FA64420460EFE7B0
:101D500008B5131E06DA03F03DFA162303604FF0B0
:101D6000FF3008BD04D0FFF7D9FF40EAE07008BD9E
:101D7000184608BD38B50C461546FFF76FFF38B951
:101D800003F028FA092303604FF0FF34204638BDE2
:101D9000036821469B682A469847041EF6DA03F03A
:101DA00019FA64420460EFE7002A08B503DBBDE8D6
:101DB0000840FFF7DFBF03F00DFA162303604FF072
:101DC000FF3008BD10B5FFF749FF044628B903F0FE
:101DD00001FA09230360204610BD0368DB699847B8
:101DE000041EF8DA03F0F6F9644204600024F2E716
:101DF0001FB504220C4640230DEB020101900DF1AA
:101E000009008DF8083004F05DF9214602A803F0BE
:101E10009DFC044630B10198FFF7D4FF10B1204675
:101E2000FFF7DBFE204604B010BDFFF7CBBF38B58F
:101E30000C461546FFF712FF38B903F0CBF909231A
:101E400003604FF0FF34204638BD036821461B690C
:101E50002A469847041EF6DA03F0BCF9644204608F
:101E6000EFE7FFF7E4BF38B50D46FFF7F7FE04468E
:101E700030B903F0AFF9092303604FF0FF3038BDEC
:101E80000368DB699847002814BF4FF400534FF4F0
:101E900000436B60236820469B6A984728610020B6
:101EA00038BDFFF7E0BF000037B5054604F074F811
:101EB000044630B9009003462A460349034802F01D
:101EC000CFFF204603B030BDD8DD00081F010180E0
:101ED00004F06AB810B504460948FFF7EFF800238C
:101EE000084A194652F82300A04208BF42F82310BE
:101EF0000133402BF6D10248FFF7E0F810BD00BFD8
:101F0000B00F0020A001002010B50F48FFF7D6F851
:101F10000E4B032453F824206AB10134402CF9D12C
:101F200003F058F9182303600748FFF7C7F84FF08C
:101F3000FF34204610BD4FF0FF32034843F8242001
:101F4000FFF7BCF8F5E700BFB00F0020A0010020AC
:101F500010B50446FFF7D8FF0028A4BF014B43F893
:101F6000204010BDA001002070B506460C46FFF7CA
:101F7000EFFF054690B12146FFF73AFF044630B91E
:101F8000074B53F82520964203D143F825002046FD
:101F900070BD03F01FF909230360F8E70446F6E774
:101FA000A00100200EB42DE9F04185B00546FFF7F1
:101FB000ABFF041E13DB0023294602A8019302F0A5
:101FC0001DFE02A802F06CFE1B4D064668B903F028
:101FD00001F91323036045F824604FF0FF342046D5
:101FE00005B0BDE8F04103B0704702A802F046FE1C
:101FF000074602A837B102F04AFE0190019B45F85E
:102000002430ECE702F031FE06460028DFD00368FA
:1020100002A8D3F8088002F01DFE0B9B024601A91E
:102020003046C04706460028E8D003F0D3F8764291
:10203000066045F82470D0E7A001002073B50E4675
:102040001849054604F070FB044620B9FFF706FE68
:10205000204602B070BD1449284604F065FB20B943
:102060000120FFF7FBFD0124F2E71049284604F0A8
:102070005BFB20B90220FFF7F1FD0224E8E72B7893
:10208000402B07D10422691C0DEB020004F01AF862
:10209000019CDDE726F400412846FFF783FF044654
:1020A000D6E700BFB9DE0008C0DE0008B1DE0008D8
:1020B00070477047074B08499A68084810B5043ABA
:1020C00052F8044F41F8044F8142F9D14FF00052C9
:1020D0009A6010BD00ED00E0FCFFFF1F90010020A2
:1020E00008B5FFF7E7FFFFF7A3FCFFF7E2FF08BD26
:1020F00008B5FFF7DDFFBDE80840FEF701B930B5D0
:10210000C36891FAA1F4B4FA84F491FAA1F1032519
:10211000B1FA81F1640005FA04F4490023EA0403EA
:1021200002FA01F11943C16030BD012A02D0022A2E
:1021300018BF0022FFF7E3BF2DE9F0410E46411C16
:10214000044604D13E224449444802F045FD04F0CF
:102150000F08434BC4F3031053F82850FFF752F90C
:1021600006F007070446836895FAA5F1B1FA81F1F4
:1021700095FAA5F20320490000FA01F1B2FA82F2C1
:1021800023EA01035200022101FA02F21343A36081
:1021900087425AD8DFE807F05E1D021DB8F1070F2D
:1021A000C6F303203BD9626A2B0A93FAA3F1B1FA72
:1021B00081F193FAA3F34FF00F0EB3FA83F3890082
:1021C0000EFA01F19B0022EA010200FA03F3134325
:1021D00063623B46226895FAA5F0B0FA80F095FA62
:1021E000A5F14FF0030EB1FA81F140000EFA00F0B4
:1021F000490022EA00028B40013F1343012F236074
:1022000005D8636832074CBF2B43AB436360C6F30A
:10221000011229462046BDE8F041FFF786BF226A39
:1022200095FAA5F3B3FA83F395FAA5F14FF00F0EE3
:10223000B1FA81F19B000EFA03F3890022EA03024E
:1022400000FA01F313432362C3E7672202490548FA
:1022500002F0C2FC0023BDE708DF000864DC0008D0
:10226000C8DE0008CEE40008431C70B506460D46E3
:1022700004D188221B491C4802F0AEFC06F00F0274
:102280001A4BC6F3031053F82240FFF7BBF804FBC8
:1022900004F2016802EB42030B40B3FBF2F3013B93
:1022A000012B05D8EB1E022B436809D8234343605A
:1022B000032D08D101222146BDE87040FFF735BF4C
:1022C00023EA04034360012DF4D0052D01D0022D33
:1022D00001D10222EFE721460022BDE87040FFF75E
:1022E0000EBF00BF08DF000864DC0008C8DE00087D
:1022F00030B507EE101A284B02681A60B5EEC07AA6
:10230000F1EE10FA89B0054628D4F7EE007AB4EE63
:10231000677AF1EE10FAC8BFB0EE677AD5ED037AAE
:10232000F8EE677A602267EE877A0192FCEEE77A30
:10233000AA68C5ED047A17EE903AB3FBF2F3029364
:102340000023039305930693049307932B7D013B8E
:10235000032B16D8DFE803F01B0517199FED0F7A42
:10236000DCE70424224601A90B4801F0B3F910B1BF
:102370000B4802F053FD6B7D074821464BB101F03D
:1023800065FA09B030BD0824ECE70C24EAE7002424
:10239000E8E701F037FAF4E7C40F0020000000007E
:1023A000E9DF0008C368ABB107EE903AD0ED046AEC
:1023B000B8EE677AF8EE666AC6EE877AB7EE007A0C
:1023C000F4EE477AF1EE10FAC8BFF0EE477A17EE56
:1023D000900A7047DFED017AF9E700BF00000000C6
:1023E0002DE9F0474A4C0268226086B000230E4671
:1023F00000930546FFF7D6FF116A41F21113194207
:10240000074608D1116A40F24443194202BF1368DB
:1024100023F001031360694601A801F01BF83D4851
:102420002968002380465FFA83F9013350F8392088
:102430008A42F8D111B9384802F0F0FC08EBC9081B
:1024400098F8043053BB00F0E5FF00900498009921
:102450000123AB60314B30BBB1FBF3F3013B636055
:1024600006F1FF3C2D4B6268B1FBF3FE4FEA4108D9
:102470000021B8FBF3F8C4F80CC063468A464FF657
:10248000FE79B3F5803F12D2B2F5803F0FD2BAF198
:10249000000F00D06260F1B1E3601CE000F0CAFF01
:1024A00000900598D3E74A00B2FBF3F3D6E7AB6898
:1024B0005B00AB6030BB0EFB03F2BCFBF3F34B45A0
:1024C00002F1FF3221D8B2F5803F1ED3144862607A
:1024D000E36002F0A3FC00230D482361A36001F038
:1024E000B3F810B10E4802F099FCEE603946284668
:1024F000FFF7FEFE2268136843F00103136006B085
:10250000BDE8F08708FB03F2D7E701218A46B8E768
:10251000C40F002000E00008D4DF000840420F0094
:10252000E9DF000870B50E46044688B054493046CD
:1025300001F030FF2060013004D12E225149524871
:1025400002F04AFB4E49304601F048FF431C054665
:1025500004D132224B494D4802F03EFBC5F304330F
:102560004B4A23752368C5F34045934265754FF088
:1025700000021AD10092474A516C41F001015164A6
:10258000526C02F001020092009A434A934229D110
:10259000002305933F4B5A6C42F480325A645B6CC3
:1025A00003F480330593059B58E0B3F1804F0BD1C2
:1025B0000192384A116C41F001011164126C02F071
:1025C00001020192019AE0E734498B421AD102924A
:1025D000304A116C41F002011164126C02F00202E7
:1025E0000292029A2E4A93421AD100230693294B53
:1025F0005A6C42F400325A645B6C03F40033069365
:10260000069B2BE027498B421AD10392214A116C79
:1026100041F004011164126C02F004020392039A67
:10262000214A93421AD1002307931A4B5A6C42F461
:1026300080225A645B6C03F480230793079B0DE0B0
:102640001A498B42A1D1134B04921A6C42F0080232
:102650001A641B6C03F008030493049B084930467A
:1026600001F04EFE0023E36023610123A680A360F6
:1026700044F620612046FFF7B3FE08B070BD00BFEE
:1026800004D9000860DF0008BCDF0008BADB0008DE
:1026900000000140003802400040014000040040BA
:1026A000004401400008004000480140000C004088
:1026B00007EE101ADFED047A67EE277AFDEEE77A6F
:1026C00017EE901AFFF78CBE002474490FB407B5BB
:1026D000064B07491B6805AAD868019205F0C8FF98
:1026E00003B05DF804EB04B0704700BFAC020020FB
:1026F00048E000084368094A9B0182B0D3581A6831
:10270000120706D5002201921A6801925A680192B6
:10271000019A1868C0F3401002B070476C11002095
:102720004368034A9B01D3581868C0F3C010704730
:102730006C11002042681449920110B4046854508E
:10274000531882685A60C2689A600269DA60426906
:102750001A61026A9A610022DA84DA619A84DA855F
:102760009A85B0F91A20013206D108225A6118461A
:102770005DF8044B01F097B9B0F9182001320CBF95
:1027800004220C22F2E700BF6C11002010B581601A
:102790000C46FFF7CFFF28B121460348BDE81040A3
:1027A000FFF794BF10BD00BF48E00008094B9842F6
:1027B0000BD0A3F54C43984209D003F550439842FF
:1027C0000CBF02204FF0FF307047002070470120FF
:1027D000704700BF00100140F0B50E4685B00446BA
:1027E00045493046154601F0D5FD4449074628467F
:1027F00001F0D0FD0146384601F0A6FD2060013011
:1028000004D13D223E493F4802F0E6F9022E0CD0A9
:10281000032D0AD03849022001F0BCFD874202D1C5
:10282000394802F0FBFA002700E00127374B206807
:1028300098424FF0000340D10193354B5A6C42F05F
:1028400010025A645B6C03F010030193019BFFF7C5
:10285000ADFF0028606004DAA42229492D4802F067
:10286000BBF92549304601F04BFD2449284601F0CB
:1028700047FD721C03D001213046FFF7F5FC6B1CAD
:1028800003D001212846FFF7EFFC4FF41653A36055
:102890000023E3602361636123622683658320460E
:1028A000FFF748FF3FB11C4B1C4801221A6021462C
:1028B0004C2203F007FC05B0F0BD194A90420BD141
:1028C0000293134B1A6C42F400321A641B6C03F42B
:1028D00000330293029BBAE7124A9042B7D10393A6
:1028E0000B4B5A6C42F020025A645B6C03F02003DD
:1028F0000393039BABE700BFD8DA000890DA000827
:1029000072E00008CEE00008EAE000080010014094
:10291000003802401FE100080010002020110020B4
:102920000044004000140140002808DB4209012354
:1029300000F01F0003FA00F0014B43F8220070473B
:1029400000E100E000280DDB4309012200F01F0038
:1029500002FA00F02033044A42F82300BFF34F8FFD
:10296000BFF36F8F704700BF00E100E0F7B5FFF7DE
:102970001DFF071E26DB144E56F8270010B3134C1C
:10298000BD0163591A68120606D5DB68190603D51E
:102990000F4B01211B68984763591A68920608D5A6
:1029A000DB68980605D50A4B56F827001B680021FE
:1029B000984763591A68110704D55A69D20744BF6A
:1029C0005B68019303B0F0BD081000206C1100207B
:1029D000041000200148FFF7C9BF00BF00140140E8
:1029E0000148FFF7C3BF00BF004400400148FFF7A4
:1029F000BDBF00BF00100140034B19604168034B8D
:102A000043F82120704700BF041000200810002068
:102A100009C830B4204CA0420AD004F58064A0421A
:102A20001AD0A4F55044A04219D11C4C262001E034
:102A30001B4C25201B4D9B01BAB1EA58D36889B9BC
:102A400043F02003D360184B00F110029B6843F859
:102A5000224030BCFFF768BF144C4720EAE700244F
:102A60002046E7E743F08003ECE7EB58DA6849B922
:102A700022F02002DA60DB6813F0800F09D130BC4D
:102A8000FFF760BF22F08002DA60DB6813F0200FEE
:102A9000F4E730BC704700BF00100140E129000896
:102AA000ED2900086C11002000ED00E0D529000898
:102AB00038B5446805462846FFF71CFE0028FAD0C2
:102AC000A401034B1B595868C0F3080038BD00BF70
:102AD0006C11002070B5456806460C463046FFF77D
:102AE0001FFE0028FAD0AD01024B5B59C4F3080465
:102AF0005C6070BD6C110020DFF830D0002103E075
:102B00000B4B5B58435004310A480B4B42189A4216
:102B1000F6D30A4A02E0002342F8043B084B9A42EB
:102B2000F9D301F003F8FDF755FB70470080012051
:102B300018EB000898010020680C0020680C0020A9
:102B4000A0120020FEE7704708B50B4B1A6842F44C
:102B500000721A601A6842F480621A601A6842F4BD
:102B600080721A60032000F0F9F90F20FEF7DEFEF4
:102B7000FFF7E9FF002008BD003C0240704700005D
:102B800010B50446002800F09980036C23B9436413
:102B900080F83C30FFF7F2FF236CDB0600F18C80FD
:102BA000236C23F4885323F0020343F002032364CD
:102BB000434B5A6822F440325A605A6861680A43AB
:102BC0005A60236821695A6822F480725A605A68F0
:102BD00042EA01225A605A68A16822F040725A60A3
:102BE0005A680A435A609A68E16822F400629A605F
:102BF0009A680A439A603349A26A8A4250D0996817
:102C000021F07061996099680A439A609A68E16A54
:102C100022F040529A609A680A439A609A68A169C1
:102C200022F002029A609A6842EA41029A60226A9D
:102C3000002A3DD05A68616A42F400625A605A68BC
:102C400022F460425A605A68013942EA41325A60BD
:102C5000DA6AE16922F47002DA62DA6A013942EA78
:102C60000152DA629A68216B22F400729A609A68C3
:102C700042EA41229A609A68616922F480629A600D
:102C80009A68002042EA81229A606064236C23F0F3
:102C9000030343F001032364002384F83C3010BD98
:102CA0009A6822F070629A609A6822F04052B4E703
:102CB0005A6822F40062CAE70120EDE7012010BD46
:102CC000002301400100000F82B00023019390F81F
:102CD0003C30012B4ED0012380F83C3003689A68C9
:102CE000D10705D59A68D20714D4002002B07047E6
:102CF0009A68214942F001029A60204A1268B2FBA8
:102D0000F1F202EB42020192019A002AEAD0019A02
:102D1000013AF8E7026C22F4E06222F0010242F488
:102D2000807202645A68510541BF026C22F440521D
:102D300042F480520264026C12F480521CBF426C56
:102D400022F006024264002280F83C206FF022024A
:102D50001A600B4A5268D20608D1986810F04050A9
:102D6000C3D19A6842F080429A60BFE7054A934215
:102D7000BBD1F2E70220B9E740420F00A4020020D5
:102D8000002301400020014003689A6870B5560591
:102D900004460D460BD59B68D80508D5236C43F037
:102DA00020032364002384F83C30012070BDFEF72B
:102DB000C3FD064623681A6892070CD56FF012020D
:102DC0001A60226C42F4007222649A6812F0405F2A
:102DD00013D0002070BD691CEDD045B9236C43F0C1
:102DE00004032364002384F83C30032070BDFEF705
:102DF000A3FD801B8542DDD2F0E7A269002AE8D15D
:102E0000DA6A12F4700F02D09B685B05E1D4236C80
:102E100023F480732364206C10F48050D9D1236C88
:102E200043F00103236470BD0368D86C7047000051
:102E3000F7B50023019390F83C30012B00F083801C
:102E40000D6804688A680123092D80F83C30AEB211
:102E50002AD906EB4603E7681E3B4FF0070E0EFA31
:102E600003FE27EA0E07E760E76802FA03F33B4335
:102E7000E3604A68062A4FEA820325D81344676B49
:102E8000591F1F238B4027EA03036363626B06FA13
:102E900001F1114361632D4B9C4234D0002380F833
:102EA0003C30184603B0F0BD276905EB45034FF0F1
:102EB000070E0EFA03FE27EA0E072761276902FABA
:102EC00003F33B432361D4E70C2A0ED81344216B50
:102ED000A3F123021F23934021EA03032363236BFF
:102EE00006FA02F21A432263D5E71344E16A413B32
:102EF0001F229A4021EA0202E262E26A06FA03F124
:102F00001143E162C7E7122D04D1114A536843F41B
:102F100080035360A5F11003012BBFD80C4A5368FE
:102F2000102D43F400035360B8D10A4B0A4A1B68C2
:102F3000B3FBF2F20A2353430193019B002BADD064
:102F4000019B013BF8E70220ACE700BF00200140F5
:102F500000230140A402002040420F00074AD3682A
:102F600023F4E0631B041B0C43F0BF63000243F433
:102F7000003300F4E0600343D360704700ED00E0ED
:102F80002DE9F341044618B9012002B0BDE8F081F3
:102F90000368DD0710D42368980758D423681A07FC
:102FA00000F19A8023685B0700F1B880A269002ACB
:102FB00040F019810020E8E7A64B9A6802F00C0265
:102FC000042A07D09A6802F00C02082A0AD15B682A
:102FD000590207D59F4B1B689A03DCD56368002B09
:102FE000D9D1D1E763689B4DB3F5803F11D12B68F0
:102FF00043F480332B60FEF79FFC964D06462B680A
:103000009B03C8D4FEF798FC801B6428F7D90320E3
:10301000BBE7B3F5A02F04D12B6843F480232B60CA
:10302000E5E72A6822F480322A602A6822F48022A6
:103030002A60002BDFD1FEF77FFC06462B689F033A
:10304000A9D5FEF779FC801B6428F7D9DFE7814B0F
:103050009A6812F00C0F07D09A6802F00C02082A46
:1030600011D15B685E020ED47A4B1A68950702D5BF
:10307000E268012A88D11A68216922F0F80242EA3E
:10308000C1021A608AE7E268734BB2B101221A608A
:10309000FEF752FC6F4D06462B68980707D52B6844
:1030A000226923F0F80343EAC2032B6076E7FEF7B8
:1030B00043FC801B0228EFD9A9E71A60FEF73CFC0D
:1030C000644D06462B6899077FF568AFFEF734FC20
:1030D000801B0228F6D99AE76269604B7AB1012217
:1030E0001A60FEF729FC5B4D06466B6F9F073FF5A4
:1030F00059AFFEF721FC801B0228F6D987E71A603A
:10310000FEF71AFC534D06466B6F98077FF54AAFE2
:10311000FEF712FC801B0228F6D978E74D4B1A6C9B
:1031200012F0805228D101921A6C42F080521A6437
:103130001B6C03F080530193019B0126484D2B68C3
:10314000D9051BD5A368434D012B27D12B6F43F025
:1031500001032B67FEF7F0FB3E4D074641F288382E
:103160002B6F9B0739D5002E3FF420AF394A136CE3
:1031700023F08053136419E70026DFE72B6843F43C
:1031800080732B60FEF7D8FB07462B68DA05D9D48D
:10319000FEF7D2FBC01B0228F7D938E7052B04D174
:1031A0002B6F43F004032B67D0E72A6F22F0010254
:1031B0002A672A6F22F004022A67002BCAD1FEF781
:1031C000BBFB41F2883807462B6F9807CBD5FEF73B
:1031D000B3FBC01B4045F7D919E7FEF7ADFBC01B99
:1031E0004045BDD913E71B4DAB6803F00C03082B1A
:1031F0003FF4CAAE1B4E0023022A336034D1FEF7DF
:103200009BFB07462B6899011ED4226AE36913438E
:10321000626A43EA8213E26A43EA0263A26A0D4CDD
:103220005208013A43EA02436B6001233360FEF720
:1032300083FB054623689A013FF5BCAEFEF77CFB95
:10324000401B0228F6D9E2E6FEF776FBC01B0228F7
:10325000D8D9DCE60038024000004742800E4742E1
:103260000070004060004742FEF766FB04462B6892
:103270009B017FF59FAEFEF75FFB001B0228F6D98E
:10328000C5E600BF134908B58B6803F00C03042B97
:1032900003D0082B03D0104808BD104808BD4A6869
:1032A0004B68496813F4800314BF0C480A48C1F303
:1032B000881118BF002302F03F02A1FB000109F0B2
:1032C000C5FA044B5B68C3F3014301335B00B0FBF9
:1032D000F3F008BD003802400024F40000127A0028
:1032E0002DE9F0410D46044610B90120BDE8F081FA
:1032F000444B1A6802F00F028A4228D321688F07D4
:103300002DD4C80740D43F4B1A6802F00F029542F3
:1033100066D3226851076CD4130707D53A4A21694E
:10332000936823F4604343EAC1039360FFF7AAFF65
:10333000354B364A9B68C3F30313D35CD840344BF8
:1033400018600F20FEF7F2FA0020BDE8F081CAB243
:103350001A701B6803F00F039942C6D1CEE72A4BBF
:1033600011F0040F1EBF9A6842F4E0529A600E07F3
:1033700042BF9A6842F460429A609A68A06822F05C
:10338000F00202439A60BCE762681F4B012A1DD11C
:103390001B6813F4003FA8D01B4EB36823F003034F
:1033A0001343B360FEF7C8FA41F288380746B368A2
:1033B000626803F00C03B3EB820FA4D0FEF7BCFAF3
:1033C000C01B4045F3D90320BDE8F081911E0129BF
:1033D0001B6802D813F0007FDDE713F0020FDAE775
:1033E000EAB21A701B6803F00F039D427FF47DAFB1
:1033F0008FE70549E0688B6823F4E05303438B6053
:103400008AE700BF003C02400038024045E1000866
:10341000A4020020044B054A9B68C3F38223D35CBB
:10342000034A1068D84070470038024055E1000850
:10343000A4020020044B054A9B68C3F34233D35CCB
:10344000034A1068D84070470038024055E1000830
:10345000A40200200F2303600B4B9A6802F00302C2
:1034600042609A6802F0F00282609A6802F4E052C8
:10347000C2609B68DB0803F4E0530361034B1B68E5
:1034800003F00F030B60704700380240003C02401D
:10349000036A23F001030362036A70B5446882691A
:1034A0000D6822F073022A438D6823F002032B4338
:1034B0000A4DA8420BD1CD688E6923F008032B4337
:1034C0004D6924F44074354323F004032C434460D5
:1034D00082614A684263036270BD00BF0000014020
:1034E000036A23F480730362036A70B54468C26997
:1034F0000D6822F073022A438D6823F4007343EAB7
:1035000005230B4DA8420DD1CD688E6923F40063CD
:1035100043EA05234D6924F44054354323F4806382
:1035200044EA05144460C2614A68C263036270BD24
:1035300000000140036A23F480530362036A30B53C
:103540004468C2690D6822F4E64242EA05228D68A9
:1035500023F4005343EA0533064DA84202BF4D69E8
:1035600024F4804444EA85144460C2614A680264D9
:10357000036230BD0000014070477047224A036873
:1035800090420ED0B0F1804F0BD0A2F57C42904219
:1035900007D002F58062904203D002F5806290422B
:1035A00019D14A6823F070031343174A904204D19B
:1035B000CA6823F44073134318E0B0F1804FF7D08A
:1035C000124A9042F4D002F580629042F0D002F5A7
:1035D00080629042ECD00E4A9042E9D002F58062BF
:1035E0009042E5D002F580629042E1D003608B68A2
:1035F000C3620B688362044B984204BF0B69036388
:1036000001234361704700BF0000014000040040F7
:103610000040014010B50446A0B190F8393003F0E5
:10362000FF021BB980F83820FFF7A6FF022384F8B9
:1036300039302068211DFFF7A1FF012384F83930BC
:10364000002010BD012010BD10B50446A0B190F8B7
:10365000393003F0FF021BB980F83820FFF78DFFE7
:10366000022384F839302068211DFFF787FF0123EA
:1036700084F83930002010BD012010BD036A23F00A
:1036800010030362036A70B5446882690D6822F40E
:10369000E64242EA05228D6823F0200343EA05133F
:1036A0000B4DA8420DD1CD688E6923F0800343EA0B
:1036B00005134D6924F44064354323F0400344EA84
:1036C0008504446082614A688263036270BD00BF02
:1036D0000000014038B590F83830012B04464FF017
:1036E000020025D0012384F8383084F839000C2AF0
:1036F00018D8DFE802F0071717171E1717172F172C
:10370000171740002068FFF7C3FE236809699A690C
:1037100042F008029A619A6922F004029A619A6959
:103720000A439A610123002084F8393084F8380074
:1037300038BD2068FFF7A2FF236809699A6942F43F
:1037400000629A619A6922F480629A619A6942EAF7
:103750000122E6E72068FFF7C3FE23680969DA69FA
:1037600042F00802DA61DA6922F00402DA61DA6909
:103770000A43DA61D6E72068FFF7DCFE23680969AF
:10378000DA6942F40062DA61DA6922F48062DA61AD
:10379000DA6942EA0122ECE7036A10B501248C40A1
:1037A00023EA04030362036A8A401A43026210BDDB
:1037B00010B5044600220068FFF7EEFF2368104AA8
:1037C00093420DD1196A41F21112114208D1196ABE
:1037D00040F24442114202BF5A6C22F400425A6441
:1037E000196A41F21112114208D1196A40F2444299
:1037F000114202BF1A6822F001021A60002010BDB7
:103800000000014010B5044601220068FFF7C4FF24
:103810002368064A934202BF5A6C42F400425A643B
:103820001A6842F001021A60002010BD0000014039
:10383000FFF7E8BF036A10B504248C4023EA0403B1
:103840000362036A8A401A43026210BD10B504463F
:1038500004220068FFF7EEFF23685A6C42F400422E
:103860005A641A6842F001021A60002010BD00007C
:103870002DE9F0470668C2683369C16923F44053F3
:1038800013433361044683680069F2680343606947
:1038900022F41642034322F00C020B431343F3605D
:1038A0007369A26923F440731343B1F5004F736148
:1038B0007A4B7CD19E4203D003F580639E4244D173
:1038C000FFF7B8FD192505FB00F360684FF06409A8
:1038D0004000B3FBF0F3B3FBF9F34FEA0318FFF733
:1038E000A9FD636868435B00B0FBF3F7FFF7A2FD37
:1038F000636868435B00B0FBF3F3B3FBF9F309FBC8
:103900001373DB003233B3FBF9F35B0003F4F87796
:10391000FFF790FD626868435200B0FBF2FAFFF7D0
:1039200089FD636868435B00B0FBF3F3B3FBF9F315
:1039300009FB13A3DB003233B3FBF9F303F00703F6
:1039400043443B44B360BDE8F087FFF763FD1925AE
:1039500005FB00F360684FF064094000B3FBF0F32F
:10396000B3FBF9F34FEA0318FFF754FD63686843AC
:103970005B00B0FBF3F7FFF74DFD636868435B0046
:10398000B0FBF3F3B3FBF9F309FB1373DB00323342
:10399000B3FBF9F35B0003F4F877FFF73BFD6268D4
:1039A00068435200B0FBF2FAFFF734FDB9E79E42DC
:1039B00002D03B4B9E4240D1FFF73CFD6768192582
:1039C0004FF0640905FB00F3BF00B3FBF7F3B3FB53
:1039D000F9F31F01FFF72EFD636868439B00B0FBFE
:1039E000F3F8FFF727FD636868439B00B0FBF3F330
:1039F000B3FBF9F309FB13831B013233B3FBF9F378
:103A000003F0F008FFF716FD626868439200B0FB10
:103A1000F2FAFFF70FFD636868439B00B0FBF3F316
:103A2000B3FBF9F309FB13A31B013233B3FBF9F327
:103A300003F00F0343EA080383E7FFF7EBFC676833
:103A400019254FF0640905FB00F3BF00B3FBF7F342
:103A5000B3FBF9F31F01FFF7DDFC636868439B00CC
:103A6000B0FBF3F8FFF7D6FC636868439B00B0FB3C
:103A7000F3F3B3FBF9F309FB13831B013233B3FBFD
:103A8000F9F303F0F008FFF7C5FC626868439200A1
:103A9000B0FBF2FAFFF7BEFCBDE700BF001001402B
:103AA00000140140704710B5044640B390F8393017
:103AB00003F0FF021BB980F83820FFF7F3FF2268FC
:103AC000242384F83930D36823F40053D36020468C
:103AD000FFF7CEFE23681A6922F490421A615A69F0
:103AE00022F02A025A61DA6842F40052DA600020B9
:103AF0002023E06384F8393084F83A3010BD012087
:103B000010BD7FB50F230193022100234FF4805293
:103B100001A80291039304920593FFF7E1FBB0FA29
:103B200080F0400907B05DF804FB00000F49D1F8B0
:103B3000883043F47003C1F888300D4B1A680020B8
:103B400042F001021A6098601A6822F0847222F42E
:103B500080321A60074A5A601A6822F480221A607A
:103B6000D8604FF000638B60704700BF00ED00E04D
:103B7000003802401030002400B58FB01D4B0021EA
:103B800000911A6C42F080521A641B6C1A4A03F0BE
:103B900080530093009B0191136823F4404343F446
:103BA00000431360136803F440430193019B012316
:103BB0000293C8B94FF480330393022308934FF460
:103BC0008003099308230A934FF4A8730B930423EB
:103BD0000C9302A807230D93FFF7D2F938B9FFF72A
:103BE00090FF0FB05DF804FB4FF4A023E4E7002042
:103BF000F7E700BF003802400070004010B58EB0FB
:103C000000241A4B00941A6C42F080521A641B6C08
:103C1000174A03F080530093009B0194136823F428
:103C2000404343F4004313601368039403F4404398
:103C30000193019B0994032302930123059310230D
:103C400006930A934FF4A8730B93042302220C9358
:103C500002A8072308920D93FFF792F918B9FFF70E
:103C600050FF0EB010BD2046FBE700BF00380240F9
:103C70000070004008B50120FFF77EFF38B9FFF75C
:103C8000BDFF20B90248BDE8084001F0C7B808BD33
:103C900031E10008174A1849936803F00C03042B1C
:103CA00010B50DD0082B0DD0144B0B60114B144ADE
:103CB0009B68C3F30313D25C0B68D3400B6010BD49
:103CC000104BF2E75468506852686302C2F38812DE
:103CD00000F03F004CBF0B4B084BB3FBF0F35343DA
:103CE000044A5268C2F3014201325200B3FBF2F3BC
:103CF000DBE700BF00380240A40200200024F400EB
:103D000045E1000800127A00074B084A13601A695F
:103D1000910707D5DA68920704D56FF002021A619D
:103D200000F0E4BA704700BF000C004030120020E1
:103D30000048704760E1000830B589B001A903A8C8
:103D4000FFF788FBFFF766FB002302931E4B0190F1
:103D50001A6C1E4C42F008021A641A6C02F0080237
:103D60000292029A1A6A42F008021A621A6A22F051
:103D700008021A62069AA3F50B3323604FF0FF3353
:103D8000E360134BF2B9B0FBF3F00138002560603B
:103D90000E482561A5606561FFF73CFC0D4B0E4A9E
:103DA0009B680A48C3F808210C4B4FF480225A60E4
:103DB0002946FFF73DFD2268D36823F00203D36054
:103DC00009B030BD4000DEE700380240301200206C
:103DD00040420F0000ED00E0093D000800E100E076
:103DE00004480268D36823F00203D3600021FFF780
:103DF0001FBD00BF30120020014B586A704700BF42
:103E0000000C0040054B1B686FF0020258631A61FA
:103E1000DA6842F00202DA60704700BF3012002018
:103E2000064B1B686FF002021A615A6942F00202E7
:103E30005A61DA6842F00202DA60704730120020FC
:103E4000034B1A68D36823F00203D360704700BFA6
:103E500030120020024B1B686FF002021A6170479B
:103E60003012002008B500210348FFF7A1FCBDE88F
:103E70000840FFF7E5BF00BF3012002003689B68D1
:103E800018470000094B10B5002203600023C0E969
:103E90000223002303614361044600F023FA04492E
:103EA000A06100F087FD204610BD00BF70E1000852
:103EB0007D3E000807B5009000F10801806900F020
:103EC000B8FD03B05DF804FB00F10801806900F063
:103ED000D9BD000010B5034B03600446FFF7F4FFA3
:103EE000204610BD70E1000870B5D0E90823D0E984
:103EF0000245064612196B41FFF7DCFF736B2BB1CD
:103F000006F128001B68BDE87040184770BDD0B5A9
:103F1000044616461F4600F027FE2046FFF7D4FF52
:103F2000C4E90867A06900F0C8FD321847EB010337
:103F30002046FFF7BFFFBDE8D04000F02BBE7FB5A5
:103F4000044600F011FE2046FFF7BEFF636B13B17D
:103F500094F83830E3B904F128066D4610220021A8
:103F6000684602F0B1F9AE420BD03046FCF71EFDB8
:103F70003EB1039B1BB15B68694630469847039B83
:103F800063632846FCF712FD00F004FE04B070BD28
:103F900000F088F9DFE7000038B50546064B45F824
:103FA000283B0446FFF7CBFF2846FCF7FFFC2046E2
:103FB000FFF790FF204638BD84E1000810B50446A5
:103FC000FFF7EAFF2046FDF783FF204610BD70B5DE
:103FD0000E4604461546FDF79BFA013609D02046E9
:103FE0000021FDF7B9FA29462046BDE87040FDF7EB
:103FF000AFBA70BD38B504460D4603685AB1826841
:10400000136020460121FDF7A7FA29462046BDE8A6
:104010003840FDF79DBAC2681B04F1E70022FFF7A4
:10402000D6BF70B50E4604461546FDF771FA013647
:1040300006D02A4620460021BDE87040FFF7DABFCF
:1040400070BD0022FFF7EDBF0346024A2030FDF7A6
:104050006FBB00BFE1410008F8B50546134B45F8BA
:10406000043B04460F4610261C220021284602F07D
:104070002BF93246002104F1200002F025F93246E6
:10408000002104F1300002F01FF93246002104F152
:10409000400002F019F939462046FFF7D5FF2846BF
:1040A0003946FFF7BBFF2046F8BD00BFB4E100086A
:1040B00083681A6843681A4214BF012000207047C1
:1040C00010B5084B044640F8203BFDF705FC04F111
:1040D0004000FCF76BFC04F13000FCF767FC204665
:1040E00010BD00BFB4E1000810B50446FFF7E8FFBB
:1040F0002046FDF7EDFE204610BD884238B5044647
:104100000D460AD0FCF752FC3CB1EB681BB15B6872
:10411000294620469847EB68E360204638BDF0B555
:104120000F4685B0044600F01FFDFD6804F130061F
:10413000203465B139463046FFF7DFFF0122012107
:104140002046FDF77DFA00F025FD05B0F0BD1022F8
:104150002946684602F0B8F869463046FFF7CDFFB9
:104160006846FCF723FC2A46E9E7F0B50F4685B020
:10417000044600F0F9FCFD6804F14006203465B106
:1041800039463046FFF7B9FF012202212046FDF7EC
:1041900057FA00F0FFFC05B0F0BD10222946684632
:1041A00002F092F869463046FFF7A7FF6846FCF731
:1041B000FDFB2A46E9E70000C36810B504462BB9A9
:1041C00040F239220449054800F006FDE368204624
:1041D0001B68BDE81040184790E10008A6E1000800
:1041E000012908B502D0022906D008BDC36B13B15E
:1041F0003030FFF7E1FF08BDC36C002BFBD040302F
:10420000F7E77047A0F1BC00FFF7FBBFA0F1BC00CF
:10421000FFF7F7BF00F030B9A0F1BC00FFF7FABF1D
:1042200000F02DB9A0F1BC00FFF7FABF10B50446AD
:1042300000F034F9002104F1BC0000F035FF064B1A
:1042400003F10802226003F128028833C4F8BC207D
:10425000C4F8C030204610BDBCE1000813B50E4CB8
:1042600000F082FC22884FF6FF739A420AD100F0D8
:1042700091FC0023228800930849094800F0F0FDD2
:1042800002B010BD0121204600F092FC02B0BDE852
:10429000104000F07FBC00BF1C1000204CE2000862
:1042A0002301048037B50C4C00F05EFC258855B91D
:1042B00000F070FC228800952B460849084800F061
:1042C000CFFD03B030BD0121204600F07BFC03B0E0
:1042D000BDE8304000F05EBC1C10002071E2000818
:1042E000240104800048704790E20008024B1B68DC
:1042F0000BB1024818477047A802002090E200085E
:1043000013B5044601300FD102B010BD9C420AD152
:1043100020468968FDF710FF0021204602B0BDE865
:104320001040FDF7A1BF0C31B1F900305A1CEDD19E
:104330000023009322460249024800F091FDE3E782
:1043400007E3000830010180884207B502460BD020
:10435000431C09D001310BD00023064900930648C5
:1043600000F07EFD4FF0FF31084603B05DF804FB1E
:104370000146F9E7D6E2000830010180B1F90030CA
:104380005A1C01D118467047834201D148687047D2
:104390000C31F3E7421C13B504460BD0FFF7EEFFD8
:1043A000431C044606D100230246009303490448F7
:1043B00000F056FD204602B010BD00BFE7E2000845
:1043C00030010180B1F900305A1C01D11846704704
:1043D000834201D1886870470C31F3E7421C13B562
:1043E00004460BD0FFF7EEFF431C044606D1002322
:1043F000024600930349044800F032FD204602B013
:1044000010BD00BFB8E2000830010180704770475E
:1044100010B480B1146853680CB9DA070BD513F0E7
:10442000010F4FEA63031CBFC258145918442346B6
:104430005DF8044B18475DF8044B7047090170B5EF
:1044400001F198050544EB6883B14418D4F8A43011
:104450002BB940F239220649064800F0BDFBD4F8DA
:10446000A43028461B68BDE87040184770BD00BFE7
:1044700090E10008A6E100084C30FEF719BB10B52A
:104480004C300C46FEF726FB204610BDC36810B525
:1044900004460BB19B689847204610BD2DE9F04FAC
:1044A00087B000259246009502460195044689464C
:1044B0009B469DE80300324B42F8083B314B82E8B3
:1044C0000300236148F2070363612F4BE561A46198
:1044D00022626362BFF36F8FBFF34F8F102284F8A5
:1044E000285084F8295004F12C0001F0EDFE04F16D
:1044F0004C062946102204F13C0001F0E5FE04F1CF
:10450000980829464C22304601F0DEFE04F1A80747
:1045100029461022404601F0D7FE2946102238468F
:1045200001F0D2FE10222946C4F8B8B002A801F06A
:10453000CBFE02A94046FFF7E0FD02A8FCF736FAE1
:104540001022294602A801F0BFFE02A93846FFF753
:10455000D4FD02A8FCF72AFA524649463046FEF737
:104560003BF9D4F8B8103046FEF710F93046224631
:104570000649FEF741FA204607B0BDE8F08F00BFBC
:1045800020E3000801A090E8114400083D44000821
:104590002DE9FF410646884656F84C3B17461B68F6
:1045A00005463C01984700F0DFFAD8F80C30983403
:1045B0002C44ABB1E3680BB9FFF750FE41462046EF
:1045C000FFF79BFD012239463046FEF721FA00F045
:1045D000E1FA2B6828465B68984704B0BDE8F08193
:1045E000E3680BB1FFF75EFE10220021684601F080
:1045F0006BFE69462046FFF780FD6846FCF7D6F95A
:104600000022E0E77FB51A4B036004461022002128
:10461000684601F059FE002269462046FFF7B8FFC0
:104620006846FCF7C3F910220021684601F04CFEF1
:10463000012269462046FFF7ABFF6846FCF7B6F952
:1046400014F1980608D004F1B805B54204D0103D25
:104650002846FCF7ABF9F8E704F13C00FFF716FF3A
:1046600004F12C00FFF712FF204604B070BD00BF1C
:1046700020E3000810B50446FFF7C4FF2046FDF70D
:1046800027FC204610BD00002DE9F74FD0F804A00C
:104690009AF83A300446002B46D103685B68984785
:1046A00063681B6A98423FD0DAF82030DAF8084095
:1046B000CAF82000A0EB0308DAF80C30314808EA09
:1046C0000308844246464FF0000727D0DAE90A2360
:1046D0009AF83BB0A8FB0089CDE900230025BBF187
:1046E000000F2BD05A464046494607F093FBDDE9C0
:1046F000002312EB080243EB090390465A46994601
:1047000006460F4607F092FBB8EB000069EB01018B
:10471000A94208BFA0420AD2CAE90A01DAE90C2379
:10472000B6185F41CAE90C6703B0BDE8F08F0136E7
:1047300047F10007001B61EB0501EDE722462B4620
:104740004046494608F082F8224606460F46404653
:1047500049462B4608F07AF8DDE9008918EB020893
:1047600049EB0309A94508BFA04502D2CAE90A8955
:10477000D4E7013647F10007B8EB040869EB0509F7
:10478000F4E700BF40420F00824206D98A420BD9AB
:10479000884294BF002001207047884206D98A428F
:1047A0008CBF002001207047012070470020704717
:1047B0002DE9F14F476897F83A300646002B44D16F
:1047C00097F83930002B40D1FFF75EFF75686B68B2
:1047D000002B59D0D5E90C89D3E90001894508BFE0
:1047E000804505D333685B6901B0BDE8F04F1847D9
:1047F000D5E90623B0EB080861EB09094B4508BF72
:1048000042452C6906D3AB68254A934220D14445E2
:1048100028BF44462B6A1C44EB681C403B6AA342F9
:1048200005D140F207121F491F4800F0D5F933683F
:1048300020461B69984733685B68984722460146C3
:10484000386AFFF7A1FF0028CCD101B0BDE8F08F96
:1048500095F83B20DFF854A04FF0000B7AB14046AA
:10486000494607F0E3FA10EB0A0041EB0B010C4A52
:10487000002307F0EBFF844228BF0446CAE7A3FBEE
:10488000080103FB0911EEE73B69386AFA6818442E
:1048900033681B69104001B0BDE8F04F184700BFF6
:1048A00040420F0030E3000882E300083F420F005F
:1048B0002DE9F04F436893F8382085B00546002A6B
:1048C0006FD193F83A30002B6BD103681B6898477F
:1048D0002B68DB699847066804462EB92C223249BA
:1048E0003248334E00F078F91F23012202FA03F117
:1048F000B1425FFA83FB02D0013BF7D19B46D4F86B
:1049000004A0AAF104031C2B06D93A222649274801
:1049100000F062F94FF0200AAAF10403072716F10C
:10492000FF3007FA03F7224C4FF0000343F1FF3149
:104930003246C4FB070107F089FF6C682A68002330
:104940002360636052680393CDE9000190472062C1
:104950006C684FF000084FF000095246C4E90A891C
:10496000A66084F83BB00120002107F05FFADDE982
:104970000023C4E90623039B84F8393084F83A30D5
:1049800001380123E06027612846C4E90C8984F8D6
:104990003830FFF779FE284605B0BDE8F04FFFF745
:1049A00007BF05B0BDE8F08F30E30008CEE4000893
:1049B00040420F0038B505460C46FFF779FF00F07E
:1049C000D3F86B681C60BDE8384000F0E3B870B500
:1049D000044600F0C9F82368DB689847636893F8D9
:1049E0003A201AB1BDE8704000F0D4B8012283F833
:1049F000392063685B68A3B12046FFF745FE656810
:104A00006E68D5E90C01D6E90023994208BF9042AF
:104A100007D3F3686B602B68002BEAD0B068984727
:104A2000E7E76368002283F839202046FFF7C0FEDD
:104A3000D8E72DE9F04180460C4616461F46069DF4
:104A400000F092F84046FFF71FFED8F80420A5605A
:104A5000C4E90067536800254BB9E36085B9546029
:104A60004046FFF7A5FEBDE8F04100F093B8D3E95A
:104A700000018F4208BF8642EFD31D46DB68EBE79B
:104A8000EC60F0E738B505460C4600F06DF86A6852
:104A90005368A34209D1DB6853602846FFF788FEBC
:104AA000BDE8384000F076B81346002BF8D0DA683D
:104AB0009442F9D1E268DA60F2E710B50446FFF7F4
:104AC000F7FE00F051F82046FFF7DEFD00F062F837
:104AD0006368D3E90C0110BD08B5FFF7EEFF08BD10
:104AE00010B5034B03600446FFF756FA204610BD8D
:104AF000B0E3000810B50446FFF7F2FF2046FDF7CB
:104B0000E7F9204610BD00001FB5436B044600F1D5
:104B1000280113B15B6868469847636B039320468E
:104B2000FFF70DFA039B2BB940F2392206490748DB
:104B300000F052F8039B68461B6898476846FBF7ED
:104B400035FF04B010BD00BF90E10008A6E10008E9
:104B5000EFF31080C04300F001007047EFF30580D1
:104B6000003018BF0120704710B5074C236801338F
:104B700004D151220549064800F02EF800F0E4FA6D
:104B800023680133236010BD60100020BCE30008DF
:104B900011E40008054B1A6832B11A68013A1A602C
:104BA0001B680BB900F0E2BA704700BF601000202C
:104BB000D0E85F3F0B449BB2C0E8523F002AF7D1D8
:104BC00018467047D0E85F3F5B1A9BB2C0E8523F7F
:104BD000002AF7D11846704770B504460D461646B0
:104BE000FFF7C2FF33462A4621460348FCF712FF6F
:104BF000BDE87040FCF7B8BE42E4000870B50E4650
:104C000000250446056045600F49304601F066FF07
:104C10000644266023681A782F2A0ED101332360B8
:104C200025B9292209490A48FFF7D6FF2946304607
:104C300000F0ACF96060204670BD002AF0D001336E
:104C400001352360E6E700BF73E4000875E400085F
:104C5000C7E4000800687047406808B520B100F05C
:104C60003CF9431E5842584108BD10B50446FFF7B1
:104C7000F3FF10B1606800B1043810BD406808B59A
:104C800020B100F02AF9B0FA80F0400908BD10B553
:104C90000446FFF7F3FF10B1606800B1043810BD9F
:104CA0004068003018BF0120704700002DE9F04136
:104CB0001B4C1C4E237836EA200628BF0646012BE3
:104CC0008EB00F46904600D1FEE7174DFFF74CFF20
:104CD00001232370FFF75EFF2B683422013300218C
:104CE00001A82B6001F0F0FA2B680196012BCDF89A
:104CF0000880039704D1342201A90C4801F0E2F99D
:104D0000342201A90A4801F0DDF90A4B1B680BB1F6
:104D100007489847002020700EB0BDE8F08100BF22
:104D20006C1000200101FF80641000207010002032
:104D3000A41000206810002073B5294C2168C1F32D
:104D40004173032B0CBF4D428DB2C1F307432A467A
:104D500006462448FCF75EFE6FF498731D44072D49
:104D600009D8DFE805F004272A2D30363339A16849
:104D70001D48FCF74FFE3046FCF74CFE61681B48AF
:104D8000FCF748FEA1681A48FCF744FEE36901936A
:104D9000A369009304F10C010EC91648FCF73AFE12
:104DA00021681548FCF736FE144802B0BDE8704093
:104DB000FCF730BEA1681248DBE7A1681148D8E7CC
:104DC000A1681148D5E7A1681048D2E7A16810484A
:104DD000CFE7A1680F48CCE7A1680F48C9E700BF3B
:104DE000A4100020E5E4000836E50008C3E500084B
:104DF000D3E50008E6E5000835E6000881E600088E
:104E00004BE500085AE5000868E500087AE5000867
:104E10008DE50008A0E50008AEE500080FB437B541
:104E20000C4D2978724679B90B48FFF73FFF0B48C4
:104E3000FFF782FF012407A906982C700191FCF767
:104E4000BFFD2046FCF7C4FE03B0BDE8304004B00F
:104E5000704700BF6C1000200001FF80D0E4000804
:104E600010B50C4611467246FFF720FF68B9204680
:104E7000FFF762FFFFF772FE10B9FFF769FE08B98E
:104E800030BFFDE70120FCF7A3FE014810BD00BFC5
:104E90000F01FF8070B50446FFF724FA0646FFF7BE
:104EA0001BFE05463046FFF717FE401BA042F9D314
:104EB00070BD000007EE100ADFED047A67EE277A76
:104EC000FDEEE77A17EE900AFFF7E4BF002474497D
:104ED0004FF47A735843FFF7DDBF007B7047000043
:104EE00038B504460A4B0360002343600D46A160B9
:104EF00002730848FCF7E2F845B1074B1A68626094
:104F00001C600448FCF7DAF8204638BD6560F8E715
:104F1000ACE60008DC100020D810002010B5124BC1
:104F2000036004461148FCF7C9F8A3682BB1104A86
:104F300013689C4212D1636813600E4B0B481A68C9
:104F4000944204BF00221A60FCF7B8F8237B13B91F
:104F5000201FFCF7BFFF204610BD13465A6894423D
:104F6000FBD162685A60E8E7ACE60008DC1000207C
:104F7000D8100020E410002010B50446FFF7CEFF43
:104F80002046FCF7A5FF204610BD000070B5064680
:104F900014480D46FCF792F8134B1C687CB1A068CE
:104FA000E8B101F02DFDA84219D12A463146A0688A
:104FB00001F056F898B90B48FCF780F80DE0072D82
:104FC000F9D12A463146094801F04AF80028F2D1C1
:104FD0000448FCF773F8064B1C68204670BD6468F3
:104FE000DCE700BFDC100020D81000209BE60008A2
:104FF000E41000200020704770477047F8B5036840
:105000001B6D0E4604468F1898473546BD4207D0A3
:10501000236815F8011B9B6C204698470130F5D199
:10502000236820465B6D9847A81BF8BDF8B5036858
:105030001B6D0E4604468F1898473546BD4208D072
:1050400023682046DB6C9847431C02D005F8010B0F
:10505000F4E7236820465B6D9847A81BF8BD002045
:1050600070477047002070470020704710B5054B0F
:1050700003605033044640F8043FFFF74FFF2046DB
:1050800010BD00BFBCE60008A0F10400EEE700BFC1
:1050900010B50446FFF7EAFF2046FCF719FF20464B
:1050A00010BDA0F10400F3E7104B13B50022044635
:1050B00040F8043BFFF714FF0D4B2360603363603F
:1050C000002363610B492046FCF74EFF03466061F5
:1050D00020B1FCF782FD204602B010BD00900246D0
:1050E00005490648FFF7BCFEF5E700BF1CE80008CD
:1050F00034E7000814E7000817E7000819010180E9
:1051000010B5074B03F108026833044602604360A0
:10511000406900F0CDF82046FFF7A8FF204610BDFB
:105120002CE7000838B5036804461B6D9847606992
:1051300000F09AF96069FCF753FD236805465B6D42
:1051400020469847284638BDEFF31083DB4372B6FC
:10515000044A117829B9044903F001030B700123B3
:1051600013707047E9100020E810002008B5EFF335
:105170001083DB0704D4352205490648FFF72CFDD0
:10518000054B00221A70054B1B7803B162B608BDAF
:105190009CE70008F8E70008E9100020E81000206C
:1051A000036870B51B690122002104469847051E5B
:1051B0000DDB236802221B690021204698472368E3
:1051C000064629461B690022204698473546284650
:1051D00070BD0000014B1868704700BFAC02002092
:1051E00070B500294AD005460C4610B1836B002BE0
:1051F00047D0636EB4F90C20D80732D5002A3DD0D1
:105200002146284600F05CF8E36A064633B1E169BE
:10521000284698470028B8BF4FF0FF36A3891A06E2
:105220003CD4216B41B104F14003994202D028469D
:1052300007F0B2FC00232363616C21B1284607F01C
:10524000ABFC0023636400F017FA636E0022DB07F7
:10525000A28128D5A06D00F021FE00F013FA30469F
:1052600070BD9105CCD4A06D00F01AFEB4F90C30DD
:10527000002BC5D1666E16F001060AD00026304616
:1052800070BD00F07DF9636EB4F90C20D807B5D479
:10529000E7E7A06D00F006FE304670BD21692846A4
:1052A00007F07AFCBDE7A06D00F0FCFDD2E700BF7F
:1052B000024B01461868FFF793BF00BFAC02002005
:1052C000B1F90C309AB22DE9F0410C461107804635
:1052D00048D4626843F40063002AA3815DDDA56AB7
:1052E000002D57D000229BB2D8F80060E169C8F8C1
:1052F000002013F4805254D101234046A847431C98
:10530000024665D0A389A56AE1695F0705D5606893
:10531000236B121A0BB1E36BD21A00234046A84745
:10532000451C48D1D8F80020B4F90C30002A5CD0D4
:105330001D2A01D0162A64D122690021C4E9002166
:1053400023F40063A381216BC8F8006011B304F15A
:105350004003994202D0404607F01EFC0020206323
:10536000BDE8F0812669AEB12568266091070CBFC3
:1053700063690023AD1BA3600AE02B463246676ACF
:10538000E1694046B8470028A5EB000506440ADD60
:10539000002DF2DC0020BDE8F081E26B002A9EDCEB
:1053A000F8E7226DB1E7A38943F04003A3814FF0F2
:1053B000FF30BDE8F081B4F90C302269226023F49B
:1053C000006300226260DA04A381BCD52065BAE7DD
:1053D000D8F80030002B95D01D2B0FD0162B0DD0F8
:1053E000A38943F04003A381D5E723F40063216937
:1053F000A381DB04C4E90012A5D5E7E7C8F8006083
:10540000C8E743F04003A381C5E700BF38B50D46A8
:10541000044608B1836BA3B1B5F90C00B8B16B6E4B
:10542000DB0701D4810515D520462946FFF748FF43
:105430006B6EDA07044602D4AB899B050ED5204675
:1054400038BD00F09DF8B5F90C000028E7D10446FE
:10545000204638BDA86D00F023FDE5E7A86D00F0FB
:1054600021FD204638BD00BF20B1054B014618681C
:10547000FFF7CCBF034B0449186800F0BFBC00BF66
:10548000AC02002064E800080D54000838B5184B41
:105490001D6804460DB1AB6BB3B1636ED80702D47F
:1054A000A38999051FD56368013B002B63600FDB5F
:1054B00023685A1C22601D78636EDA0702D4A38920
:1054C0009B050BD5284638BD284600F059F8E4E77F
:1054D0002846214600F0F4FF0546EDE7A06D00F0F8
:1054E000E1FC284638BDA06D00F0DAFCDBE700BF28
:1054F000AC02002010B5002304468181C281C0E9BE
:10550000003383604366C0E904338361194608228F
:105510005C3000F0D9FE07480749084A084BE362AF
:10552000C4E90740C4E9091204F15800BDE810407D
:1055300000F0B2BC95660008B9660008F96600087C
:1055400019670008014900F059BC00BFE15100088B
:1055500070B54A1E682505FB02F50E4605F174017B
:1055600007F016FB044640B100210C30666005F1DF
:1055700068022160A06000F0A7FE204670BD00BF59
:1055800010B50446114800F08BFCA26BC2B904F5BB
:105590003B730F48C4F8E0220321C4E9B913E06368
:1055A00004216068FFF7A6FF01220921A068FFF728
:1055B000A1FF02221221E068FFF79CFF0123A363F1
:1055C0000248BDE8104000F06DBC00BF8012002012
:1055D0004555000870B50646244800F061FC244B90
:1055E0001D68AB6B83B305F53875D5E90134013B14
:1055F00005D525E0013B5A1C04F1680420D0B4F91C
:105600000C20002AF6D100251A4BE36004F1580063
:10561000656600F041FC154800F044FC2560C4E9D3
:105620000155C4E90455A5612946082204F15C002E
:1056300000F04AFEC4E90C55C4E91155204670BD7E
:105640002C682CB12546D0E72846FFF799FFCAE71A
:1056500004213046FFF77CFF044628600028F1D182
:10566000024800F01FFC0C233360E7E7941200208F
:1056700064E800080100FFFF014800F011BC00BF12
:1056800094120020014800F00DBC00BF94120020CD
:10569000F0B5134683B00F4601AA1946064604F03A
:1056A00019F950B305463046FFF794FF044620B37E
:1056B00039464FF4DB73019A304600F055FE071E61
:1056C00031DB636EDB0702D4A389980523D51B4B1E
:1056D0001B491C4AE781C4E90743C4E909121A4B74
:1056E000A581E905E3620CD4636EDA0702D4A389CD
:1056F0009B0514D5204603B0F0BD0024204603B01E
:10570000F0BD022300223046214600F027F8636EE8
:10571000DA07EFD4EBE7A06D00F0C2FBD7E7A06D8E
:1057200000F0C0FBE6E70025FFF7A6FFA581A06D0E
:1057300000F0B4FB2C46FFF7A5FFDBE795660008F9
:10574000B9660008F966000819670008024B0A46A6
:1057500001461868FFF79CBFAC02002000F000B8BB
:105760002DE9F04F0C4697B091461E46074608B10A
:10577000836B33B3626EA389D50702D4980540F1D9
:10578000188103F48473B3F5847F00F0FE80D4F8AD
:105790002880B8F1000F00F06981012E5DD0022E43
:1057A00012D08EB1636E1622D9073A6003D4A38952
:1057B0009A0540F117814FF0FF35284617B0BDE834
:1057C000F08FFFF7DDFED5E722694FF0000A55465E
:1057D000002A64D0B4F90C3040F61A019AB20A4299
:1057E00007D1520579D4A54A90455DD043F40063B2
:1057F000A38121463846FFF709FE002840F0318199
:1058000033464A46E1693846C047013000F02981F5
:10581000216B41B104F14003994202D0384607F0B0
:10582000BBF900232363A3892269226023F4026366
:105830000021A3816160082204F15C0000F044FDB6
:10584000656E15F0010503D1A3899B0540F1D68053
:105850000025284617B0BDE8F08F21463846FFF7EF
:10586000D5FDA38913F4805240F094803346E1695A
:105870003846C047421C054600F0B880A38922691B
:105880005E0740F18C806368216BED1A09B1E06B13
:105890002D1AA9444FF0010A0026002A9AD1214668
:1058A000384600F02FFB95E7B4F90E1000299DDB78
:1058B0006A46384600F0E4F8002840F0B980019AC2
:1058C000B4F90C3002F47042B2F5004F8ED143F4BB
:1058D00080634FF48062A381E264002E6ED1CB46D8
:1058E000BAF1000F79D1A389DB0440F19880206DD3
:1058F0006368216BC51A1A46002900F08780E06BA7
:105900002D1AA26BD4F810C01D44A2EB0C02AD1AE4
:105910000244AB4503DBAB185B4500F28C80E36CC3
:10592000E1695B4203EA0B052A4600233846C0477B
:1059300001303FF45EAF2369216B23600023636075
:1059400041B104F14003994202D0384607F024F9EE
:1059500000232363A389BBEB050B23F02003A38162
:1059600010D02146384600F01FFD00287FF441AFDB
:1059700063685B45FFF43DAF2268A3EB0B035A4419
:10598000C4E900230822002156E721463846FFF7E4
:105990003DFDFCE65E07256D22693FF574AF1807F3
:1059A0007FF577AF2368002B3FF473AF9B1A1D443C
:1059B0006FE7A06D00F074FAA389E2E66A46B4F9D5
:1059C0000E10384600F05CF800287FF412AF049BFC
:1059D00009EB030BBAF1000F85D0216BA9B1636805
:1059E000E06B8EE7A06D00F05DFAE4E6636EDB0726
:1059F0003FF5E1AEA3899F053FF5DDAEA06D00F058
:105A000051FA284617B0BDE8F08F62682068D4F8D4
:105A100010C0A0EB0C002D1A0244002179E7524679
:105A20000123E1693846C047451C7FF461AFE0E6D9
:105A3000B4F90C30DAE6ABEB05050CEB0503521BB1
:105A4000C4E9003241B104F14003994202D0384622
:105A500007F0A2F800232363A38923F02003A38186
:105A600090E7636ED9077FF5A2AEA4E6636E1D22B0
:105A7000D9073A607FF59BAE9DE600BFF966000846
:105A800038B50B46074C05461146184600232360DF
:105A9000FCF707FA431C00D038BD2368002BFBD06D
:105AA0002B6038BD981200209368002B00F0028113
:105AB0002DE9F04FB1F90C309BB20C46190783B0B9
:105AC0008246904635D522699AB313F00202D8F87F
:105AD00000603DD00027D4F824B0D4F81CC0DFF813
