:020000040800F2
:100000000080012089280008D5280008D52800088C
:10001000D5280008D5280008D528000800000000D1
:10002000000000000000000000000000D5280008CB
:10003000D528000800000000D5280008D5280008B1
:10004000D5280008D5280008D5280008D52800089C
:10005000D5280008D5280008D5280008D52800088C
:10006000D5280008D5280008D5280008D52800087C
:10007000D5280008D5280008D5280008D52800086C
:10008000D5280008D5280008D52800080000000061
:10009000000000000000000000000000D52800085B
:1000A000D5280008D5280008D5280008D52800083C
:1000B000D5280008D5280008D5280008D52800082C
:1000C000D5280008D5280008D5280008D52800081C
:1000D000D5280008D5280008D52800080000000011
:1000E000D5280008D5280008D52800080000000001
:1000F000000000000000000000000000D5280008FB
:1001000000000000D5280008D5280008D5280008E0
:1001100000000000000000000000000000000000DF
:10012000D5280008D5280008D5280008D5280008BB
:10013000D5280008000000000000000000000000BA
:10014000000000000000000000000000D5280008AA
:10015000D5280008D5280008D5280008D52800088B
:10016000D5280008D5280008000000000000000085
:10017000000000000000000000000000000000007F
:1001800000000000D528000800000000000000006A
:10019000D5280008044B05481B1A062B02D9044B2E
:1001A00003B11847704700BF5B0B0020580B0020BD
:1001B0000000000005490648091A891001EBD171B9
:1001C000491002D0034B03B118477047580B002069
:1001D000580B00200000000010B5064C237843B9EE
:1001E000FFF7D8FF044B13B10448AFF3008001239D
:1001F000237010BD580B00200000000030D500080F
:1002000008B5084B1BB108480849AFF300800848FF
:10021000036813B9BDE80840CCE7064B002BF9D0C2
:100220009847F7E70000000030D500085C0B00207D
:10023000540B002000000000134B002B08BF114B93
:100240009D46A3F5803A00218B460F461148124A7D
:10025000121A05F0ADFC0D4B002B00D098470C4B4B
:10026000002B00D098470020002104000D000B480F
:1002700001F07BFB05F07AFA2000290001F000FE76
:1002800001F070FB00000800008001200000000069
:10029000711E0008580B0020C01000200D500008EF
:1002A00008B500F089FD002008BD034610B107C95C
:1002B00083E807007047704742680368806812F05F
:1002C000010F4FEA620218BF8158104418BFCB5883
:1002D000184710B50446806903F0F4FBD4F8F430F5
:1002E00001280CBF03F1FF330133C4F8F43010BD13
:1002F00010B50446406903F0E5FBD4F8F43001285A
:100300000CBF013303F1FF33C4F8F43010BD10B556
:100310000446006A03F0D6FBD4F8F83001280CBF7D
:1003200003F1FF330133C4F8F83010BD10B50446B3
:10033000C06903F0C7FBD4F8F83001280CBF0133C3
:1003400003F1FF33C4F8F83010BD10B504468069DE
:1003500003F0B8FBD4F8F43001280CBF013303F1EB
:10036000FF33C4F8F43010BD10B50446406903F003
:10037000A9FBD4F8F43001280CBF03F1FF3301339B
:10038000C4F8F43010BD10B50446006A03F09AFBBF
:10039000D4F8F83001280CBF013303F1FF33C4F85F
:1003A000F83010BD10B50446C06903F08BFBD4F8DB
:1003B000F83001280CBF03F1FF330133C4F8F830E3
:1003C00010BD38B51C2204460D46002105F0F0FB97
:1003D0002046294603F00FFB204638BD38B50446B9
:1003E0000D4604F0CBF8237E1BB903F041FC01233A
:1003F00023762046294601F043FEBDE8384004F04C
:10040000D3B8000010B5044603F014FA2046064B9A
:1004100040F8283B0021102205F0CAFB012384F894
:100420003830204610BD00BFA8CC0008D0B5194612
:10043000044616461F461046002300220AF066FEB8
:1004400050B1E36811499A681B6813600020324676
:100450003B460AF021FA11E03046394600220023DB
:100460000AF040FE80B1E368DA681B681B04136081
:10047000304639460022054B0AF010FA0AF0A2FE77
:1004800001462068FFF7AAFFD0BD00BF0000F03F83
:10049000D0B51946044616461F46104600230022D2
:1004A0000AF034FE50B1236911499A681B68136041
:1004B000002032463B460AF0EFF911E0304639465B
:1004C000002200230AF00EFE80B12369DA681B685F
:1004D0001B041360304639460022054B0AF0DEF952
:1004E0000AF070FE01466068FFF778FFD0BD00BFDC
:1004F0000000F03F000000002DE9F047D0E946671A
:100500004FF000084FF00009044639463046424695
:100510004B460AF0DDFD40B14B4620464246FFF710
:1005200085FF4B4BC3E9008935E00FF21419D9E977
:1005300000893046394642464B460AF0C9FD10B1A3
:10054000C4E9468927E0D4E9428932464046494613
:100550003B460AF0C7FD40B13D4D3BA3D3E9002324
:10056000D5E900010AF09AF90EE0404649463246C4
:100570003B460AF0D5FD70B1354D33A3D3E90023D6
:10058000D5E900010AF088F902460B462046C5E984
:100590000023FFF74BFFD4E944674FF000084FF00A
:1005A00000093046394642464B460AF091FD48B1B3
:1005B0004B4620464246FFF76BFF264BC3E90089B6
:1005C000BDE8F0870FF27809D9E90089304639464D
:1005D00042464B460AF07CFD18B1C4E94489BDE8A7
:1005E000F087D4E940893246404649463B460AF006
:1005F00079FD40B1174D14A3D3E90023D5E90001DB
:100600000AF04CF90EE04046494632463B460AF0B5
:1006100087FD80B10F4D0CA3D3E90023D5E900017C
:100620000AF03AF902460B46C5E900232046BDE828
:10063000F047FFF72DBFBDE8F08700BFAFF30080A4
:10064000000000000094C1407B14AE47E17A843F73
:10065000800B0020780B00202DE9F0478246D0F86F
:10066000F4000AF067FA0022274B804689460AF018
:10067000C7FACAE94201DAF8F8000AF05BFA002288
:10068000214B04460D460AF0BBFACAE94001DAF8EC
:100690002C010AF04FFA1AA3D3E9002306460F46AD
:1006A000404649460AF0ACFA02460B463046394607
:1006B0000AF0F4F80AF03EFDCAF82C01DAF8280135
:1006C0000AF038FA0EA3D3E9002306460F46204667
:1006D00029460AF095FA0B460246394630460AF09A
:1006E000DDF80AF027FD0023CAF82801CAF8F43023
:1006F000CAF8F8305046BDE8F047FFF7FDBE00BF2E
:10070000A43A55297A6ACF3F0040EF3F70B50646BC
:1007100014461D46DDE90423FFF788FE30462246D5
:100720002B46BDE87040FFF7B3BE30B5DDE90345A9
:10073000C0E94423C0E9464530BD70B590F8244176
:100740000546D4B990F82541BCB990F82641264613
:100750006CB9D0E94001002200230AF0B9FC30B1A5
:10076000D5E94201002200230AF0B2FC28B91EB1EB
:10077000002385F8263100E00124204670BDD0E931
:1007800042017047D0E940017047C36810B5044684
:100790000BB19B689847204610BD38B5CB6804461E
:1007A0000D460BB15B689847EB68E360204638BDA7
:1007B0002DE970432DED028B84B00446684608EEA7
:1007C000102AFFF7EAFFDFED187A68EE277A6D4608
:1007D00017EE900A0AF05EFD8046894603F0CEFED1
:1007E000636B13B994F83830D3B904F12806AE42DC
:1007F00007D03046FFF7C9FF1EB130462946FFF744
:10080000CCFF204642464B4603F059F803F0CCFE9D
:100810002846FFF7BAFF04B0BDEC028BBDE8708339
:1008200003F026FAE1E700BF00247449F7B50D464E
:1008300002A901E90C00044600211022009F019E3C
:1008400005F0B6F914B127606660A560024BE3605D
:10085000204603B0F0BD00BF54C4000810B590F8A6
:10086000F030D0F82C11D0F8E82088B00446CBB195
:1008700091420ADA012380F82531174B02930023B5
:10088000039304A8214602AB17E0002394F8261135
:1008900084F8253100220023C4E94623C9B9C4E9FC
:1008A000442316E09142F0DD012280F825210A4A16
:1008B00004A88DE80C0021466B460CCBFFF7B6FF71
:1008C00004F1680004A9054AFFF772FF04A8FFF7C6
:1008D0005CFF08B010BD00BF5D0800080AD7A33C4C
:1008E00010B50446D0F82C0100290844CCBF0121E2
:1008F0000021C4F8E800C9BF84F8F01084F8F010B3
:1009000010461946DCBF104603F1004106A3D3E9A7
:1009100000230AF075F9C4E946012046BDE81040FD
:10092000FFF79CBFAFF300800000000000C07240E2
:10093000D0B590F8F130D0F82811D0F8EC2088B07C
:100940000446F3B191420ADA012380F82431194BAD
:1009500002930023039304A8214602AB1CE000236A
:100960000026002784F82431C4E944673B4620462A
:100970003246FFF78DFD94F82631CBB9C4E94667BE
:1009800016E09142EBDD012280F82421094A04A8F7
:100990008DE80C0021466B460CCBFFF747FF04F1B6
:1009A000A80004A9044AFFF703FF04A8FFF7EDFE1F
:1009B00008B0D0BD310900080AD7A33C10B50446E1
:1009C000D0F8280100290844CCBF01210021C4F837
:1009D000EC00C9BF84F8F11084F8F11010461946F4
:1009E000DCBF104603F100410022054B0AF008F974
:1009F000C4E944012046BDE81040FFF799BF00BF9D
:100A000000407F40000000002DE9F0471946904665
:100A100099460546164B104600220AF01BFA12A30F
:100A2000D3E900230AF0ECF80AF084FB49460446B7
:100A3000002240460023DDE908670AF067FB08B1A1
:100A4000143C00E01434012385F826312846614225
:100A500032463B46FFF744FF2846214632463B4696
:100A6000BDE8F047FFF7AABF6C36A4F8084C8040F9
:100A7000008076402DE9F04100F1280796B0044649
:100A80003846FFF7BFFC9A4D04F16800FFF7BAFC47
:100A9000A56604F1A800FFF7B5FCC4F8A8501C2017
:100AA00001F0CAF800250646057603F067FD082127
:100AB000304601F0FFFB03F077FD26601C2001F0BB
:100AC000BBF80646057603F059FD3046092101F0D2
:100AD000F1FB03F069FD66601C2001F0ADF81C21FC
:100AE0000646FFF76EFCE6601C2001F0A5F80C211D
:100AF0000646FFF766FC26611C2001F09DF81221D6
:100B00000646FFF75EFCD4F80080A660794E03F03D
:100B100035FD4046314601F093FC03F045FDD4F825
:100B2000048003F02BFD4046314601F089FC03F0C0
:100B30003BFD20684FF07E51FFF750FC4FF07E5197
:100B40006068FFF74BFC4FF07C5003F0BDFEA368DC
:100B50009A681B68136000220023C4E94623C4E995
:100B60004423C4F82C51C4F8285184F8255184F842
:100B7000245184F82651502001F05EF80E210646DB
:100B800002F044FF6661502001F056F80D21064640
:100B900002F03CFFA661502001F04EF82A210646E3
:100BA00002F034FFE661502001F046F82C210646A1
:100BB00002F02CFF504B26628DE8280066699DE804
:100BC0000C00214612A8FFF731FE12A9304602F0B0
:100BD000B0FF12A8FFF7D9FD484BE66902930395D1
:100BE00002AB0CCB214612A8FFF720FE12A930461B
:100BF00002F09FFF12A8FFF7C8FD414B66690493FE
:100C0000059504AB0CCB214612A8FFF70FFE12A9E5
:100C1000304602F0B4FF12A8FFF7B7FD394BE66982
:100C20000693079506AB0CCB214612A8FFF7FEFDF5
:100C300012A9304602F0A3FF12A8FFF7A6FD324B1F
:100C4000A6690893099508AB0CCB214612A8FFF7BB
:100C5000EDFD12A9304602F06CFF12A8FFF795FDDA
:100C60002A4BA6690A930B950AAB0CCB214612A816
:100C7000FFF7DCFD12A9304602F081FF12A8FFF752
:100C800084FD234B266A0C930D950CAB0CCB2146AF
:100C900012A8FFF7CBFD12A9304602F04AFF12A8B6
:100CA000FFF773FD1B4B0E93266A0F950EAB0CCB13
:100CB000214612A8FFF7BAFD12A9304602F05FFFE5
:100CC00012A8FFF762FD144B1093119510AB0CCBDB
:100CD000214612A8FFF7AAFD384612A90F4AFFF7CE
:100CE00067FD12A8FFF751FD204616B0BDE8F08160
:100CF000D4CE00080AD7A33CD30200080F03000893
:100D00004B03000887030008F1020008690300088C
:100D10002D030008A5030008590600088FC2753D81
:100D2000034610B553F8042B044602B90360226849
:100D30009A4204D003480449662203F057FC206815
:100D400010BD00BF60C4000874C4000803681847E1
:100D500008B10B680360704770470000054A1368CC
:100D6000012BCCBF002301334FF07C50136003F004
:100D7000ABBD00BF880B002010B5094B036003F129
:100D8000200280330446C0F8BC20C0F8C030BC301C
:100D900003F0C0FE204603F03FF9204610BD00BF1F
:100DA000E8CC0008A0F1BC00FFF7E6BFA0F1C0004E
:100DB000FFF7E2BF000000002DE9F0414FF498700A
:100DC000B8B000F039FF0446FFF754FE00211022AE
:100DD00002A804F0EDFEB44B0293B448B44B059363
:100DE00002A902F0A6FE059B13B19B6802A89847D2
:100DF000DFF8E082D8F80030012B08D0022B00F099
:100E0000BE80002BF8D1AB4803F05EFDF0E7032273
:100E10004FF41653022102A802F012FFA64931A88E
:100E200003F08AFE96A3D3E900232046CDE90023F0
:100E3000FFF77BFC94A3D3E900232046CDE90023F0
:100E4000FFF764FC0A252046FFF79CFC0646204677
:100E50000F46FFF794FC3246CDE900013B46974927
:100E600031A803F069FE964803F02EFD013DEAD15A
:100E700087A3D3E900232046CDE90023FFF746FCF2
:100E80000A252046FFF77EFC064620460F46FFF760
:100E900076FC3246CDE900013B46884931A803F093
:100EA0004BFE874803F010FD013DEAD1854B00223F
:100EB000CDE900232046FFF729FC0A252046FFF74D
:100EC00061FC064620460F46FFF759FC3246CDE945
:100ED00000013B46794931A803F02EFE784803F023
:100EE000F3FC013DEAD16CA3D3E900232046CDE910
:100EF0000023FFF70BFC0A252046FFF743FC0646BC
:100F000020460F46FFF73BFC3246CDE900013B4649
:100F10006A4931A803F010FE694803F0D5FC013D91
:100F2000EAD15FA3D3E900232046CDE90023FFF7F0
:100F3000EDFB0A252046FFF725FC064620460F4616
:100F4000FFF71DFC3246CDE900013B465B4931A865
:100F500003F0F2FD5A4803F0B7FC013DEAD100224C
:100F60000023CDE900232046FFF7D0FB3698C8F8D0
:100F7000005000F075FE02A8FFF7FEFE38E74FF0C4
:100F8000814003F0A1FC20464FF4F07140A3D3E967
:100F90000023FFF7A5FC20464FF4F0713CA3D3E9F2
:100FA0000023FFF70BFD2046FFF7C7FB18B14148B0
:100FB00003F08AFCF7E7032535A7D7E90067204649
:100FC000CDE900670022404BFFF71EFD2046FFF7EA
:100FD000B4FB18B1374803F077FCF7E720464FF42D
:100FE000F0712BA3D3E90023FFF77AFC20464FF4DE
:100FF000F07127A3D3E90023FFF7E0FC2046FFF7B9
:101000009CFB18B12B4803F05FFCF7E7013DD3D1FF
:10101000CDE90067204600222C4BFFF7F5FC204667
:10102000FFF78BFB18B1234803F04EFCF7E720468F
:101030004FF4F07116A3D3E90023FFF751FC2046CB
:101040004FF4F07112A3D3E90023FFF7B7FC204659
:10105000FFF773FB18B1174803F036FCF7E70325D9
:10106000CDE9006720460022194BFFF7CDFC204652
:10107000FFF763FB80B30F4803F026FCF7E700BFE0
:10108000000000000094C1409A9999999999B93F3C
:10109000333333333333D33F666666666666E63F83
:1010A000CDCCCCCCCCCCEC3F5D0D00088C0B002023
:1010B00094C40008CDCCCC3DA0C40008B6C4000840
:1010C000CDCC4C3E0000E03F0080564000806640A2
:1010D000008056C0880B002020464FF4F0710FA30B
:1010E000D3E90023FFF7FCFB20464FF4F0710BA37C
:1010F000D3E90023FFF762FC2046FFF71EFB18B17F
:10110000054803F0E1FBF7E7013DA9D1C8F800501D
:101110006EE600BFAFF30080CDCCCC3D333333332C
:101120003333D33F10B50446FFF726FE204600F0C8
:1011300097FD204610BDA0F1BC00F3E7A0F1C00070
:10114000F0E7000010B5064C22212046012202F0F3
:1011500089FC20460349044ABDE8104000F000BC69
:101160008C0B0020D53A00089801002030B50368A8
:1011700091FAA1F4B4FA84F491FAA1F10325B1FA39
:1011800081F1640005FA04F4490023EA040302FA39
:1011900001F11943016030BD7FB50023072855D800
:1011A000DFE800F00413202D3A54544700932A4BF3
:1011B0002A481A6B42F001021A631B6B03F0010309
:1011C0000093009B07B05DF804FB0193224B244879
:1011D0001A6B42F002021A631B6B03F002030193C5
:1011E000019BEFE702931C4B1E481A6B42F004026E
:1011F0001A631B6B03F004030293029BE2E7039361
:10120000154B19481A6B42F008021A631B6B03F066
:1012100008030393039BD5E704930F4B13481A6B02
:1012200042F010021A631B6B03F010030493049B3B
:10123000C8E70593084B0E481A6B42F080021A6308
:101240001B6B03F080030593059BBBE7094803F084
:10125000EFFA0020B6E700BF00380240000002406D
:101260000004024000080240000C0240001002404E
:10127000001C0240F0C60008431C10B5044604D10F
:1012800076220649064803F0B1F92046002100F015
:101290001BFE04F00F040120A04010BD11C7000880
:1012A0006BC7000870B504464B1C0E46218216D051
:1012B000C1F30310FFF770FF05463046FFF7DCFF70
:1012C000238A074A656103F00F03206052F8233038
:1012D000A36105F1100318356360A560E56070BD7A
:1012E000D0C90008B0F9100000F086BE0A4619B94E
:1012F00081694069FFF73ABF0122F9E74C23F0B555
:101300004343224E224F1A1D324400244FF0010E57
:101310001E448C4205D10146BDE8F0401D4803F053
:1013200087BA33680EFA04F51D422BD0136B7D6922
:101330000EFA03F32B4225D0D2F818C07B61156852
:1013400005B3FA6833EA020203D1BA6833EA02024B
:1013500014D10F4A916833EA010103D1D26833EA0C
:1013600002020DD1DCF81020134214BF012102212A
:10137000094B28461B68BDE8F04018470221F7E7F3
:101380000121F5E701340432C3E700BFDC0B002084
:10139000003C0140A5C70008F00D002006210846CA
:1013A000FFF7ACBF05210846FFF7A8BF01210420C5
:1013B000FFF7A4BF01210320FFF7A0BF01210220F6
:1013C000FFF79CBF01210846FFF798BF01210020CD
:1013D000FFF794BF012910B518D11B4C838952B176
:1013E000A26803F00F0399401143A160836843F0A2
:1013F0000103836010BDA26803F00F03994022EA45
:101400000101A160836823F00103F2E70229F1D111
:101410000D4983895AB1CC6803F00F03012202FA07
:1014200003F32343CB60836843F00203E1E7CA6818
:1014300003F00F03012404FA03F322EA0303CB6051
:10144000836823F00203D4E7003C0140B0F90C307C
:1014500099B270B501F00F0606F00C0404F1804457
:1014600004F59C3401F00301A56889000F228A402D
:10147000C3F3031325EA02058B402B43A3600F4BF4
:1014800001221968B240114319608468E50742BF20
:10149000996811439960A10742BFD9680A43DA608D
:1014A00090F90030002B08DB5909012203F01F03DB
:1014B00002FA03F3024A42F8213070BD003C0140B9
:1014C00000E100E02DE9F04F92464A1C85B08046CD
:1014D0000C4666D000220392334A344F516C41F4DB
:1014E00080415164526C02F480420392039A04F0EA
:1014F0000F090C2202FB0972C4F303105568062D74
:1015000047D8DFE805F0043A3C3E40424400284E0C
:101510000193FFF741FE0C2101FB09F17A1857F8FE
:1015200001E0244FA8F80C404C21694301247B586A
:1015300092F90820C8F8045004FA0EF44FF0000B9A
:101540001C4388F80020C8F808B07C50132101FB28
:1015500005E507EB8501019B4B60174BC861C3F89C
:1015600000A0164BC1F834909B681032404643F8F7
:101570002260FFF76BFF584610E0114EC8E7114E8E
:10158000C6E7114EC4E7114EC2E7114EC0E7114E37
:10159000BEE7114803F04CF94FF0FF3005B0BDE84D
:1015A000F08F0846FAE700BF00380240D0C70008B5
:1015B000CD130008DC0B0020F00D002000ED00E052
:1015C000C5130008BD130008B5130008AD130008CB
:1015D000A51300089D1300087EC7000883890C220C
:1015E00003F00F0370B55A431C4CA518A4581C4AAD
:1015F0006E689568012101FA03F3DB431D40956095
:10160000D5681D40D56015682B4013604C2373438B
:10161000144AD35801FA04F4A3431ED190F90030C0
:10162000002B0CDB5A0903F01F03994002F1200341
:101630000D4A42F82310BFF34F8FBFF36F8F90F91D
:101640000030002B09DB5A09012103F01F0301FAC6
:1016500003F36032044941F8223070BDD0C700085E
:10166000003C0140DC0B002000E100E0838903F036
:101670000F020C235343104A70B4D65843680F4AE4
:101680004C215943012404FA06F5545824EA050470
:101690005450132101FB036302EB830400216160BA
:1016A0009C1D0C3302EB840402EB830361605960E0
:1016B00070BCFFF793BF00BFD0C70008DC0B002051
:1016C00008B502F011F8002008BD000008B50A4B6B
:1016D0001B684BB102F010FB02F0F9FE4FF47A7276
:1016E000002309F0BFFD08BD02F05EF84FF47A73E5
:1016F000B0FBF3F008BD00BFF40D002010B588B0BA
:1017000002F03CFF052101A802F075F90424039BB7
:10171000019A1A60962003F0E5F8019B049A1B04D5
:101720001360962003F0DEF8013CF0D10424039B03
:10173000019A1A604FF4C87003F0D4F8019B049A20
:101740001B0413604FF4C87003F0CCF8013CEED1D9
:10175000DCE7000070B50D46A0B0044602F00EFFB5
:101760002B4622468021684606F038F8051E03DC29
:1017700002F01AFF20B070BD094B1B6823B9032289
:101780000221084800F0F0FE064E00241DF8041067
:101790003046013401F066F8A542F7D1E8E700BF12
:1017A0004C0E0020680F00200FB407B504A951F8B3
:1017B000040B0191FFF7CEFF03B05DF804EB04B01A
:1017C0007047000008B501F03DFF01F085F801F019
:1017D00029FF01F037FF024B01221A6008BD00BF4C
:1017E000F40D002000207047036801221B690021CE
:1017F0001847036800221B691146184703681B69D4
:10180000184703689B69184703689B6A18470029B3
:101810000CBF6FF0180000207047012070471120A6
:10182000704770476FF01C0070476FF015007047ED
:10183000012070470020704770470000F8B5074E40
:1018400015460C468F18BC4205D014F8011B3046D3
:1018500001F008F8F7E72846F8BD00BF680F002040
:1018600038B58DB215F0010405D0084800F00AFE25
:10187000041C18BF0124EB0605D5044800F018FE2F
:1018800008B144F01004204638BD00BF680F0020A6
:1018900010B5044604F00AF8204610BD10B50C46F9
:1018A0002AB1044800F0CCFF2070012010BD104682
:1018B00010BD00BF680F002038B51D46074B036000
:1018C000074B1B68044633B9064800F04DFE294615
:1018D000044800F023FE204638BD00BF98C8000829
:1018E0004C0E0020680F0020002070470020704739
:1018F00008B5012000F036F80C4A136810B51844FA
:10190000EFF30881884205D3094B0C221A604FF08F
:10191000FF3010BD07490C6824B10749096821440C
:101920008842F1D21060184610BD00BF9C02002012
:10193000BC100020080E00200C0E0020074C08B53B
:1019400023680546986803F06BFA2368D86803F0AB
:1019500067FA0DB1FFF7D2FEFEE700BFD006002008
:101960000120704708B5FFF7E9FF0120704700210B
:1019700004F012BA7047704708B5FFF7FBFF08BDC7
:1019800008B5FFF7F8FF08BD10B5037803F00303AF
:10199000012B04460CD02BB140F2A9520549064850
:1019A00002F024FE237843F002032370012010BDCF
:1019B000002010BDFDC8000854C9000810B5037808
:1019C00003F00303022B044605D040F2B15205494F
:1019D000054802F00BFE237823F0030343F00103D4
:1019E000237010BDFDC800087AC900083F2870B5F3
:1019F00004462FDC184D55F820305A1C13D102280C
:101A000011DCFFF773FF034658B92046FFF76CFF60
:101A1000034630B9114E3378BFF35B8FDB0704D533
:101A20000F4B45F82430184670BD3046FFF7ACFF29
:101A30000028F5D04FF41653032202210848FFF77F
:101A40003BFF3046FFF7BAFF064A07490448FFF755
:101A500087FFE5E70023E6E79C010020F80D002062
:101A6000040E0020980100203918000838B50546FA
:101A7000FFF7BCFF0B4B002443F8254030B903F0BF
:101A8000BFF8092303604FF0FF3038BD03685B697E
:101A90009847051E04DA03F0B3F86D420560F2E7DB
:101AA000204638BD9C010020FFF7E0BF38B50C464A
:101AB0001546FFF79BFF38B903F0A2F8092303602E
:101AC0004FF0FF34204638BD03682146DB682A46C4
:101AD0009847041EF6DA03F093F864420460EFE7D7
:101AE00008B5131E06DA03F08BF8162303604FF0D7
:101AF000FF3008BD04D0FFF7D9FF40EAE07008BD11
:101B0000184608BD38B50C461546FFF76FFF38B9C3
:101B100003F076F8092303604FF0FF34204638BD08
:101B2000036821469B682A469847041EF6DA03F0AC
:101B300067F864420460EFE7002A08B503DBBDE8FC
:101B40000840FFF7DFBF03F05BF8162303604FF098
:101B5000FF3008BD10B5FFF749FF044628B903F070
:101B60004FF809230360204610BD0368DB699847DE
:101B7000041EF8DA03F044F8644204600024F2E73B
:101B80001FB504220C4640230DEB020101900DF11C
:101B900009008DF8083003F00DFF214602A803F07C
:101BA0008FFA044630B10198FFF7D4FF10B12046F8
:101BB000FFF7DDFE204604B010BDFFF7CBBF38B500
:101BC0000C461546FFF712FF38B903F019F8092340
:101BD00003604FF0FF34204638BD036821461B697F
:101BE0002A469847041EF6DA03F00AF864420460B5
:101BF000EFE7FFF7E4BF38B50D46FFF7F7FE044601
:101C000030B902F0FDFF092303604FF0FF3038BD0B
:101C10000368DB699847002814BF4FF400534FF462
:101C200000436B60236820469B6A98472861002028
:101C300038BDFFF7E0BF000037B5054603F02EFEC4
:101C4000044630B9009003462A460349034802F08F
:101C500011FE204603B030BDE0C800081F0101801E
:101C600003F024BE10B504460948FFF759F80023D5
:101C7000084A194652F82300A04208BF42F8231030
:101C80000133402BF6D10248FFF74AF810BD00BFE0
:101C9000FC0D00209C01002010B50F48FFF740F814
:101CA0000E4B032453F824206AB10134402CF9D19F
:101CB00002F0A6FF182303600748FFF731F84FF042
:101CC000FF34204610BD4FF0FF32034843F8242074
:101CD000FFF726F8F5E700BFFC0D00209C0100206F
:101CE00010B50446FFF7D8FF0028A4BF014B43F806
:101CF000204010BD9C01002070B506460C46FFF741
:101D0000EFFF054690B12146FFF73AFF044630B990
:101D1000074B53F82520964203D143F8250020466F
:101D200070BD02F06DFF09230360F8E70446F6E793
:101D30009C0100200EB42DE9F04185B00546FFF767
:101D4000ABFF041E13DB0023294602A8019302F017
:101D50005FFC02A802F0AEFC1B4D064668B902F01B
:101D60004FFF1323036045F824604FF0FF342046F3
:101D700005B0BDE8F04103B0704702A802F088FC4E
:101D8000074602A837B102F08CFC0190019B45F890
:101D90002430ECE702F073FC06460028DFD003682D
:101DA00002A8D3F8088002F05FFC0B9B024601A951
:101DB0003046C04706460028E8D002F021FF7642B0
:101DC000066045F82470D0E79C01002073B50E46EC
:101DD0001849054604F0B8F8044620B9FFF706FE96
:101DE000204602B070BD1449284604F0ADF820B971
:101DF0000120FFF7FBFD0124F2E71049284604F01B
:101E0000A3F820B90220FFF7F1FD0224E8E72B78C0
:101E1000402B07D10422691C0DEB020003F0CAFD20
:101E2000019CDDE726F400412846FFF783FF0446C6
:101E3000D6E700BFC1C90008C8C90008B9C9000871
:101E400070477047074B08499A68084810B5043A2C
:101E500052F8044F41F8044F8142F9D14FF000523B
:101E60009A6010BD00ED00E0FCFFFF1F9001002014
:101E700008B5FFF7E7FFFFF7A5FCFFF7E2FF08BD96
:101E800008B5FFF7DDFFBDE80840FEF709BA30B539
:101E9000C36891FAA1F4B4FA84F491FAA1F103258C
:101EA000B1FA81F1640005FA04F4490023EA04035D
:101EB00002FA01F11943C16030BD012A02D0022AA1
:101EC00018BF0022FFF7E3BF2DE9F0410E46411C89
:101ED000044604D13E224449444802F087FB04F002
:101EE0000F08434BC4F3031053F82850FFF754F97D
:101EF00006F007070446836895FAA5F1B1FA81F167
:101F000095FAA5F20320490000FA01F1B2FA82F233
:101F100023EA01035200022101FA02F21343A360F3
:101F200087425AD8DFE807F05E1D021DB8F1070F9F
:101F3000C6F303203BD9626A2B0A93FAA3F1B1FAE4
:101F400081F193FAA3F34FF00F0EB3FA83F38900F4
:101F50000EFA01F19B0022EA010200FA03F3134397
:101F600063623B46226895FAA5F0B0FA80F095FAD4
:101F7000A5F14FF0030EB1FA81F140000EFA00F026
:101F8000490022EA00028B40013F1343012F2360E6
:101F900005D8636832074CBF2B43AB436360C6F37D
:101FA000011229462046BDE8F041FFF786BF226AAC
:101FB00095FAA5F3B3FA83F395FAA5F14FF00F0E56
:101FC000B1FA81F19B000EFA03F3890022EA0302C1
:101FD00000FA01F313432362C3E76722024905486D
:101FE00002F004FB0023BDE710CA00086BC700081D
:101FF000D0C90008F2CF0008431C70B506460D4654
:1020000004D188221B491C4802F0F0FA06F00F02A6
:102010001A4BC6F3031053F82240FFF7BDF804FB38
:1020200004F2016802EB42030B40B3FBF2F3013B05
:10203000012B05D8EB1E022B436809D823434360CC
:10204000032D08D101222146BDE87040FFF735BFBE
:1020500023EA04034360012DF4D0052D01D0022DA5
:1020600001D10222EFE721460022BDE87040FFF7D0
:102070000EBF00BF10CA00086BC70008D0C9000817
:1020800030B507EE101A284B02681A60B5EEC07A18
:10209000F1EE10FA89B0054628D4F7EE007AB4EED6
:1020A000677AF1EE10FAC8BFB0EE677AD5ED037A21
:1020B000F8EE677A602267EE877A0192FCEEE77AA3
:1020C000AA68C5ED047A17EE903AB3FBF2F30293D7
:1020D0000023039305930693049307932B7D013B01
:1020E000032B16D8DFE803F01B0517199FED0F7AB5
:1020F000DCE70424224601A90B4800F0C3FF10B11D
:102100000B4802F095FB6B7D074821464BB101F06F
:1021100075F809B030BD0824ECE70C24EAE7002488
:10212000E8E701F047F8F4E7100E00200000000097
:102130000ACB0008C368ABB107EE903AD0ED046A51
:10214000B8EE677AF8EE666AC6EE877AB7EE007A7E
:10215000F4EE477AF1EE10FAC8BFF0EE477A17EEC8
:10216000900A7047DFED017AF9E700BF0000000038
:102170002DE9F0474A4C0268226086B000230E46E3
:1021800000930546FFF7D6FF116A41F21113194279
:10219000074608D1116A40F24443194202BF13684E
:1021A00023F001031360694601A800F02BFE3D48AF
:1021B0002968002380465FFA83F9013350F83920FB
:1021C0008A42F8D111B9384802F032FB08EBC9084D
:1021D00098F8043053BB00F0F5FD00900498009986
:1021E0000123AB60314B30BBB1FBF3F3013B6360C8
:1021F00006F1FF3C2D4B6268B1FBF3FE4FEA41084C
:102200000021B8FBF3F8C4F80CC063468A464FF6C9
:10221000FE79B3F5803F12D2B2F5803F0FD2BAF10A
:10222000000F00D06260F1B1E3601CE000F0DAFD65
:1022300000900598D3E74A00B2FBF3F3D6E7AB680A
:102240005B00AB6030BB0EFB03F2BCFBF3F34B4512
:1022500002F1FF3221D8B2F5803F1ED314486260EC
:10226000E36002F0E5FA00230D482361A36000F06B
:10227000C3FE10B10E4802F0DBFAEE603946284684
:10228000FFF7FEFE2268136843F00103136006B0F7
:10229000BDE8F08708FB03F2D7E701218A46B8E7DB
:1022A000100E002024CB0008F5CA000840420F00A1
:1022B0000ACB000870B50E46044688B05449304633
:1022C00001F072FD2060013004D12E2251495248A4
:1022D00002F08CF94E49304601F08AFD431C054658
:1022E00004D132224B494D4802F080F9C5F3043342
:1022F0004B4A23752368C5F34045934265754FF0FB
:1023000000021AD10092474A516C41F00101516418
:10231000526C02F001020092009A434A934229D182
:10232000002305933F4B5A6C42F480325A645B6C35
:1023300003F480330593059B58E0B3F1804F0BD134
:102340000192384A116C41F001011164126C02F0E3
:1023500001020192019AE0E734498B421AD10292BC
:10236000304A116C41F002011164126C02F0020259
:102370000292029A2E4A93421AD100230693294BC5
:102380005A6C42F400325A645B6C03F400330693D7
:10239000069B2BE027498B421AD10392214A116CEC
:1023A00041F004011164126C02F004020392039ADA
:1023B000214A93421AD1002307931A4B5A6C42F4D4
:1023C00080225A645B6C03F480230793079B0DE023
:1023D0001A498B42A1D1134B04921A6C42F00802A5
:1023E0001A641B6C03F008030493049B08493046ED
:1023F00001F090FC0023E36023610123A680A36029
:1024000044F620612046FFF7B3FE08B070BD00BF60
:10241000D4C4000868CA0008C4CA0008DCCA00089E
:10242000000001400038024000400140000400402C
:10243000004401400008004000480140000C0040FA
:1024400007EE101ADFED047A67EE277AFDEEE77AE1
:1024500017EE901AFFF78CBE002474490FB407B52D
:10246000064B07491B6805AAD868019205F034F9A4
:1024700003B05DF804EB04B0704700BFD006002045
:102480006CCB00084368094A9B0182B0D3581A6894
:10249000120706D5002201921A6801925A68019229
:1024A000019A1868C0F3401002B07047B40F0020C2
:1024B0004368034A9B01D3581868C0F3C0107047A3
:1024C000B40F002042681449920110B404685450BB
:1024D000531882685A60C2689A600269DA60426979
:1024E0001A61026A9A610022DA84DA619A84DA85D2
:1024F0009A85B0F91A20013206D108225A6118468D
:102500005DF8044B00F0A7BFB0F9182001320CBFF2
:1025100004220C22F2E700BFB40F002010B5816046
:102520000C46FFF7CFFF28B121460348BDE8104015
:10253000FFF794BF10BD00BF6CCB0008094B984259
:102540000BD0A3F54C43984209D003F55043984271
:102550000CBF02204FF0FF30704700207047012071
:10256000704700BF00100140F0B50E4685B004462C
:1025700045493046154601F017FC444907462846B0
:1025800001F012FC0146384601F0E8FB2060013002
:1025900004D13D223E493F4802F028F8022E0CD0DB
:1025A000032D0AD03849022001F0FEFB874202D1F8
:1025B000394802F03DF9002700E00127374B206839
:1025C00098424FF0000340D10193354B5A6C42F0D2
:1025D00010025A645B6C03F010030193019BFFF738
:1025E000ADFF0028606004DAA42229492D4801F0DB
:1025F000FDFF2549304601F08DFB2449284601F0B6
:1026000089FB721C03D001213046FFF7F5FC6B1CDF
:1026100003D001212846FFF7EFFC4FF41653A360C7
:102620000023E36023616361236226836583204680
:10263000FFF748FF3FB11C4B1C4801221A6021469E
:102640004C2203F0B7F905B0F0BD194A90420BD106
:102650000293134B1A6C42F400321A641B6C03F49D
:1026600000330293029BBAE7124A9042B7D1039318
:102670000B4B5A6C42F020025A645B6C03F020034F
:102680000393039BABE700BFA8C6000860C6000821
:1026900096CB0008F2CB00080ECC000800100140D9
:1026A0000038024043CC00084C0E0020680F002088
:1026B0000044004000140140002808DB42090123C7
:1026C00000F01F0003FA00F0014B43F822007047AE
:1026D00000E100E000280DDB4309012200F01F00AB
:1026E00002FA00F02033044A42F82300BFF34F8F70
:1026F000BFF36F8F704700BF00E100E0F7B5FFF751
:102700001DFF071E26DB144E56F8270010B3134C8E
:10271000BD0163591A68120606D5DB68190603D590
:102720000F4B01211B68984763591A68920608D518
:10273000DB68980605D50A4B56F827001B68002170
:10274000984763591A68110704D55A69D20744BFDC
:102750005B68019303B0F0BD540E0020B40F00205D
:10276000500E00200148FFF7C9BF00BF0014014010
:102770000148FFF7C3BF00BF004400400148FFF716
:10278000BDBF00BF00100140034B19604168034BFF
:1027900043F82120704700BF500E0020540E002047
:1027A00009C830B4204CA0420AD004F58064A0428D
:1027B0001AD0A4F55044A04219D11C4C262001E0A7
:1027C0001B4C25201B4D9B01BAB1EA58D36889B92F
:1027D00043F02003D360184B00F110029B6843F8CC
:1027E000224030BCFFF768BF144C4720EAE70024C2
:1027F0002046E7E743F08003ECE7EB58DA6849B995
:1028000022F02002DA60DB6813F0800F09D130BCBF
:10281000FFF760BF22F08002DA60DB6813F0200F60
:10282000F4E730BC704700BF00100140712700087A
:102830007D270008B40F002000ED00E065270008A8
:1028400038B5446805462846FFF71CFE0028FAD034
:10285000A401034B1B595868C0F3080038BD00BFE2
:10286000B40F002070B5456806460C463046FFF7A9
:102870001FFE0028FAD0AD01024B5B59C4F30804D7
:102880005C6070BDB40F0020DFF830D0002103E0A1
:102890000B4B5B58435004310A480B4B42189A4289
:1028A000F6D30A4A02E0002342F8043B084B9A425E
:1028B000F9D300F013FEFDF7BFFC70470080012044
:1028C000ACD5000898010020580B0020580B0020C0
:1028D000C0100020FEE7704708B50B4B1A6842F4A1
:1028E00000721A601A6842F480621A601A6842F430
:1028F00080721A60032000F009F80F20FEF7E0FE56
:10290000FFF7E9FF002008BD003C0240074AD368FA
:1029100023F4E0631B041B0C43F0BF63000243F489
:10292000003300F4E0600343D360704700ED00E043
:102930002DE9F341044618B9012002B0BDE8F08149
:102940000368DD0710D42368980758D423681A0752
:1029500000F19A8023685B0700F1B880A269002A21
:1029600040F019810020E8E7A64B9A6802F00C02BB
:10297000042A07D09A6802F00C02082A0AD15B6880
:10298000590207D59F4B1B689A03DCD56368002B5F
:10299000D9D1D1E763689B4DB3F5803F11D12B6846
:1029A00043F480332B60FEF791FE964D06462B686C
:1029B0009B03C8D4FEF78AFE801B6428F7D9032046
:1029C000BBE7B3F5A02F04D12B6843F480232B6021
:1029D000E5E72A6822F480322A602A6822F48022FD
:1029E0002A60002BDFD1FEF771FE06462B689F039D
:1029F000A9D5FEF76BFE801B6428F7D9DFE7814B72
:102A00009A6812F00C0F07D09A6802F00C02082A9C
:102A100011D15B685E020ED47A4B1A68950702D515
:102A2000E268012A88D11A68216922F0F80242EA94
:102A3000C1021A608AE7E268734BB2B101221A60E0
:102A4000FEF744FE6F4D06462B68980707D52B68A6
:102A5000226923F0F80343EAC2032B6076E7FEF70E
:102A600035FE801B0228EFD9A9E71A60FEF72EFE7B
:102A7000644D06462B6899077FF568AFFEF726FE82
:102A8000801B0228F6D99AE76269604B7AB101226D
:102A90001A60FEF71BFE5B4D06466B6F9F073FF506
:102AA00059AFFEF713FE801B0228F6D987E71A609C
:102AB000FEF70CFE534D06466B6F98077FF54AAF45
:102AC000FEF704FE801B0228F6D978E74D4B1A6CFE
:102AD00012F0805228D101921A6C42F080521A648E
:102AE0001B6C03F080530193019B0126484D2B681A
:102AF000D9051BD5A368434D012B27D12B6F43F07C
:102B000001032B67FEF7E2FD3E4D074641F2883890
:102B10002B6F9B0739D5002E3FF420AF394A136C39
:102B200023F08053136419E70026DFE72B6843F492
:102B300080732B60FEF7CAFD07462B68DA05D9D4EF
:102B4000FEF7C4FDC01B0228F7D938E7052B04D1D6
:102B50002B6F43F004032B67D0E72A6F22F00102AA
:102B60002A672A6F22F004022A67002BCAD1FEF7D7
:102B7000ADFD41F2883807462B6F9807CBD5FEF79D
:102B8000A5FDC01B4045F7D919E7FEF79FFDC01B07
:102B90004045BDD913E71B4DAB6803F00C03082B70
:102BA0003FF4CAAE1B4E0023022A336034D1FEF735
:102BB0008DFD07462B6899011ED4226AE3691343F1
:102BC000626A43EA8213E26A43EA0263A26A0D4C34
:102BD0005208013A43EA02436B6001233360FEF777
:102BE00075FD054623689A013FF5BCAEFEF76EFD04
:102BF000401B0228F6D9E2E6FEF768FDC01B02285A
:102C0000D8D9DCE60038024000004742800E474237
:102C10000070004060004742FEF758FD04462B68F4
:102C20009B017FF59FAEFEF751FD001B0228F6D9F0
:102C3000C5E600BF134908B58B6803F00C03042BED
:102C400003D0082B03D0104808BD104808BD4A68BF
:102C50004B68496813F4800314BF0C480A48C1F359
:102C6000881118BF002302F03F02A1FB000108F009
:102C7000F9FA044B5B68C3F3014301335B00B0FB1B
:102C8000F3F008BD003802400024F40000127A007E
:102C90002DE9F0410D46044610B90120BDE8F08150
:102CA000444B1A6802F00F028A4228D321688F072A
:102CB0002DD4C80740D43F4B1A6802F00F0295424A
:102CC00066D3226851076CD4130707D53A4A2169A5
:102CD000936823F4604343EAC1039360FFF7AAFFBC
:102CE000354B364A9B68C3F30313D35CD840344B4F
:102CF00018600F20FEF7E4FC0020BDE8F081CAB2A6
:102D00001A701B6803F00F039942C6D1CEE72A4B15
:102D100011F0040F1EBF9A6842F4E0529A600E0749
:102D200042BF9A6842F460429A609A68A06822F0B2
:102D3000F00202439A60BCE762681F4B012A1DD172
:102D40001B6813F4003FA8D01B4EB36823F00303A5
:102D50001343B360FEF7BAFC41F288380746B36804
:102D6000626803F00C03B3EB820FA4D0FEF7AEFC55
:102D7000C01B4045F3D90320BDE8F081911E012915
:102D80001B6802D813F0007FDDE713F0020FDAE7CB
:102D9000EAB21A701B6803F00F039D427FF47DAF07
:102DA0008FE70549E0688B6823F4E05303438B60A9
:102DB0008AE700BF003C02400038024069CC0008AE
:102DC000A0020020044B054A9B68C3F38223D35C16
:102DD000034A1068D84070470038024079CC000898
:102DE000A0020020044B054A9B68C3F34233D35C26
:102DF000034A1068D84070470038024079CC000878
:102E0000A00200200F2303600B4B9A6802F003021C
:102E100042609A6802F0F00282609A6802F4E0521E
:102E2000C2609B68DB0803F4E0530361034B1B683B
:102E300003F00F030B60704700380240003C024073
:102E4000036A23F001030362036A70B54468826970
:102E50000D6822F073022A438D6823F002032B438E
:102E60000A4DA8420BD1CD688E6923F008032B438D
:102E70004D6924F44074354323F004032C4344602B
:102E800082614A684263036270BD00BF0000014076
:102E9000036A23F480730362036A70B54468C269ED
:102EA0000D6822F073022A438D6823F4007343EA0D
:102EB00005230B4DA8420DD1CD688E6923F4006324
:102EC00043EA05234D6924F44054354323F48063D9
:102ED00044EA05144460C2614A68C263036270BD7B
:102EE00000000140036A23F480530362036A30B593
:102EF0004468C2690D6822F4E64242EA05228D6800
:102F000023F4005343EA0533064DA84202BF4D693E
:102F100024F4804444EA85144460C2614A6802642F
:102F2000036230BD0000014070477047224A0368C9
:102F300090420ED0B0F1804F0BD0A2F57C4290426F
:102F400007D002F58062904203D002F58062904281
:102F500019D14A6823F070031343174A904204D1F1
:102F6000CA6823F44073134318E0B0F1804FF7D0E0
:102F7000124A9042F4D002F580629042F0D002F5FD
:102F800080629042ECD00E4A9042E9D002F5806215
:102F90009042E5D002F580629042E1D003608B68F8
:102FA000C3620B688362044B984204BF0B690363DE
:102FB00001234361704700BF00000140000400404E
:102FC0000040014010B50446A0B190F8393003F03C
:102FD000FF021BB980F83820FFF7A6FF022384F810
:102FE00039302068211DFFF7A1FF012384F8393013
:102FF000002010BD012010BD10B50446A0B190F80E
:10300000393003F0FF021BB980F83820FFF78DFF3D
:10301000022384F839302068211DFFF787FF012340
:1030200084F83930002010BD012010BD036A23F060
:1030300010030362036A70B5446882690D6822F464
:10304000E64242EA05228D6823F0200343EA051395
:103050000B4DA8420DD1CD688E6923F0800343EA61
:1030600005134D6924F44064354323F0400344EADA
:103070008504446082614A688263036270BD00BF58
:103080000000014038B590F83830012B04464FF06D
:10309000020025D0012384F8383084F839000C2A46
:1030A00018D8DFE802F0071717171E1717172F1782
:1030B000171740002068FFF7C3FE236809699A6963
:1030C00042F008029A619A6922F004029A619A69B0
:1030D0000A439A610123002084F8393084F83800CB
:1030E00038BD2068FFF7A2FF236809699A6942F496
:1030F00000629A619A6922F480629A619A6942EA4E
:103100000122E6E72068FFF7C3FE23680969DA6950
:1031100042F00802DA61DA6922F00402DA61DA695F
:103120000A43DA61D6E72068FFF7DCFE2368096905
:10313000DA6942F40062DA61DA6922F48062DA6103
:10314000DA6942EA0122ECE7036A10B501248C40F7
:1031500023EA04030362036A8A401A43026210BD31
:1031600010B5044600220068FFF7EEFF2368104AFE
:1031700093420DD1196A41F21112114208D1196A14
:1031800040F24442114202BF5A6C22F400425A6497
:10319000196A41F21112114208D1196A40F24442EF
:1031A000114202BF1A6822F001021A60002010BD0D
:1031B0000000014010B5044601220068FFF7C4FF7B
:1031C0002368064A934202BF5A6C42F400425A6492
:1031D0001A6842F001021A60002010BD0000014090
:1031E000FFF7E8BF036A10B504248C4023EA040308
:1031F0000362036A8A401A43026210BD10B5044696
:1032000004220068FFF7EEFF23685A6C42F4004284
:103210005A641A6842F001021A60002010BD0000D2
:103220002DE9F0470668C2683369C16923F4405349
:1032300013433361044683680069F268034360699D
:1032400022F41642034322F00C020B431343F360B3
:103250007369A26923F440731343B1F5004F73619E
:103260007A4B7CD19E4203D003F580639E4244D1C9
:10327000FFF7B8FD192505FB00F360684FF06409FE
:103280004000B3FBF0F3B3FBF9F34FEA0318FFF789
:10329000A9FD636868435B00B0FBF3F7FFF7A2FD8D
:1032A000636868435B00B0FBF3F3B3FBF9F309FB1E
:1032B0001373DB003233B3FBF9F35B0003F4F877ED
:1032C000FFF790FD626868435200B0FBF2FAFFF727
:1032D00089FD636868435B00B0FBF3F3B3FBF9F36C
:1032E00009FB13A3DB003233B3FBF9F303F007034D
:1032F00043443B44B360BDE8F087FFF763FD192505
:1033000005FB00F360684FF064094000B3FBF0F385
:10331000B3FBF9F34FEA0318FFF754FD6368684302
:103320005B00B0FBF3F7FFF74DFD636868435B009C
:10333000B0FBF3F3B3FBF9F309FB1373DB00323398
:10334000B3FBF9F35B0003F4F877FFF73BFD62682A
:1033500068435200B0FBF2FAFFF734FDB9E79E4232
:1033600002D03B4B9E4240D1FFF73CFD67681925D8
:103370004FF0640905FB00F3BF00B3FBF7F3B3FBA9
:10338000F9F31F01FFF72EFD636868439B00B0FB54
:10339000F3F8FFF727FD636868439B00B0FBF3F386
:1033A000B3FBF9F309FB13831B013233B3FBF9F3CE
:1033B00003F0F008FFF716FD626868439200B0FB67
:1033C000F2FAFFF70FFD636868439B00B0FBF3F36D
:1033D000B3FBF9F309FB13A31B013233B3FBF9F37E
:1033E00003F00F0343EA080383E7FFF7EBFC67688A
:1033F00019254FF0640905FB00F3BF00B3FBF7F399
:10340000B3FBF9F31F01FFF7DDFC636868439B0022
:10341000B0FBF3F8FFF7D6FC636868439B00B0FB92
:10342000F3F3B3FBF9F309FB13831B013233B3FB53
:10343000F9F303F0F008FFF7C5FC626868439200F7
:10344000B0FBF2FAFFF7BEFCBDE700BF0010014081
:1034500000140140704710B5044640B390F839306D
:1034600003F0FF021BB980F83820FFF7F3FF226852
:10347000242384F83930D36823F40053D3602046E2
:10348000FFF7CEFE23681A6922F490421A615A6946
:1034900022F02A025A61DA6842F40052DA6000200F
:1034A0002023E06384F8393084F83A3010BD0120DD
:1034B00010BD7FB50F230193022100234FF48052EA
:1034C00001A80291039304920593FFF7E1FBB0FA80
:1034D00080F0400907B05DF804FB00000F49D1F807
:1034E000883043F47003C1F888300D4B1A6800200F
:1034F00042F001021A6098601A6822F0847222F485
:1035000080321A60074A5A601A6822F480221A60D0
:10351000D8604FF000638B60704700BF00ED00E0A3
:10352000003802401030002400B58FB01D4B002140
:1035300000911A6C42F080521A641B6C1A4A03F014
:1035400080530093009B0191136823F4404343F49C
:1035500000431360136803F440430193019B01236C
:103560000293C8B94FF480330393022308934FF4B6
:103570008003099308230A934FF4A8730B93042341
:103580000C9302A807230D93FFF7D2F938B9FFF780
:1035900090FF0FB05DF804FB4FF4A023E4E7002098
:1035A000F7E700BF003802400070004010B58EB051
:1035B00000241A4B00941A6C42F080521A641B6C5F
:1035C000174A03F080530093009B0194136823F47F
:1035D000404343F4004313601368039403F44043EF
:1035E0000193019B09940323029301230593102364
:1035F00006930A934FF4A8730B93042302220C93AF
:1036000002A8072308920D93FFF792F918B9FFF764
:1036100050FF0EB010BD2046FBE700BF003802404F
:103620000070004008B50120FFF77EFF38B9FFF7B2
:10363000BDFF20B90248BDE8084001F0F9B808BD57
:1036400055CC0008174A1849936803F00C03042B63
:1036500010B50DD0082B0DD0144B0B60114B144A34
:103660009B68C3F30313D25C0B68D3400B6010BD9F
:10367000104BF2E75468506852686302C2F3881234
:1036800000F03F004CBF0B4B084BB3FBF0F3534330
:10369000044A5268C2F3014201325200B3FBF2F312
:1036A000DBE700BF00380240A00200200024F40045
:1036B00069CC000800127A00074B084A13601A69A7
:1036C000910707D5DA68920704D56FF002021A61F4
:1036D00000F016BB704700BF000C004078100020BF
:1036E0000048704784CC000830B589B001A903A810
:1036F000FFF788FBFFF766FB002302931E4B019048
:103700001A6C1E4C42F008021A641A6C02F008028D
:103710000292029A1A6A42F008021A621A6A22F0A7
:1037200008021A62069AA3F50B3323604FF0FF33A9
:10373000E360134BF2B9B0FBF3F001380025606091
:103740000E482561A5606561FFF73CFC0D4B0E4AF4
:103750009B680A48C3F808210C4B4FF480225A603A
:103760002946FFF73DFD2268D36823F00203D360AA
:1037700009B030BD4000DEE700380240781000207C
:1037800040420F0000ED00E0B936000800E100E023
:1037900004480268D36823F00203D3600021FFF7D6
:1037A0001FBD00BF78100020014B586A704700BF52
:1037B000000C0040054B1B686FF0020258631A6151
:1037C000DA6842F00202DA60704700BF7810002029
:1037D000064B1B686FF002021A615A6942F002023E
:1037E0005A61DA6842F00202DA607047781000200D
:1037F000034B1A68D36823F00203D360704700BFFD
:1038000078100020024B1B686FF002021A617047AB
:103810007810002008B500210348FFF7A1FCBDE89F
:103820000840FFF7E5BF00BF7810002003689B68E1
:1038300018470000094B10B5002203600023C0E9BF
:103840000223002303614361044600F055FA044952
:10385000A06100F0B9FD204610BD00BF94CC000867
:103860002D38000807B5009000F10801806900F0CC
:10387000EAFD03B05DF804FB00F10801806900F087
:103880000BBE000010B5034B03600446FFF7F4FFC6
:10389000204610BD94CC000870B5D0E90823D0E9CB
:1038A0000245064612196B41FFF7DCFF736B2BB123
:1038B00006F128001B68BDE87040184770BDD0B500
:1038C000044616461F4600F059FE2046FFF7D4FF77
:1038D000C4E90867A06900F0FAFD321847EB01035C
:1038E0002046FFF7BFFFBDE8D04000F05DBE7FB5CA
:1038F000044600F043FE2046FFF7BEFF636B13B1A2
:1039000094F83830E3B904F128066D4610220021FE
:10391000684602F04DF9AE420BD03046FCF735FF59
:103920003EB1039B1BB15B68694630469847039BD9
:1039300063632846FCF729FF00F036FE04B070BD33
:1039400000F0BAF9DFE7000038B50546064B45F848
:10395000283B0446FFF7CBFF2846FCF716FF20461E
:10396000FFF790FF204638BDA8CC000810B50446EC
:10397000FFF7EAFF2046FEF773F9204610BD70B549
:103980000E4604461546FDF78DFC013609D020464B
:103990000021FDF7ABFC29462046BDE87040FDF74D
:1039A000A1BC70BD38B504460D4603685AB18268A3
:1039B000136020460121FDF799FC29462046BDE809
:1039C0003840FDF78FBCC2681B04F1E70022FFF707
:1039D000D6BFFFF7D4BF70B50E4604461546FDF7B7
:1039E00061FC013606D02A4620460021BDE8704021
:1039F000FFF7D8BF70BD0022FFF7EDBF0346024AB4
:103A00002030FDF75FBD00BFF53B0008F8B5054667
:103A1000134B45F8043B04460F4610261C22002198
:103A2000284602F0C5F83246002104F1200002F0D9
:103A3000BFF83246002104F1300002F0B9F83246F6
:103A4000002104F1400002F0B3F839462046FFF7A8
:103A5000D5FF28463946FFF7B9FF2046F8BD00BF1D
:103A6000D8CC00082DE9F0410546154B45F8043B3C
:103A700004460F461026904600211C22284602F0DC
:103A800097F83246002104F1200002F091F8324606
:103A9000002104F1300002F08BF83246002104F1DD
:103AA000400002F085F839462046FFF7A7FF284678
:103AB00042463946FFF78DFF2046BDE8F08100BF42
:103AC000D8CC000883681A6843681A4214BF0120E2
:103AD0000020704710B5084B044640F8203BFDF726
:103AE000C5FD04F14000FCF750FE04F13000FCF786
:103AF0004CFE204610BD00BFD8CC000810B50446CF
:103B0000FFF7E8FF2046FEF7ABF8204610BD8842DD
:103B100038B504460D460AD0FCF737FE3CB1EB68D9
:103B20001BB15B68294620469847EB68E360204656
:103B300038BDF0B50F4685B0044600F01FFDFD68A6
:103B400004F13006203465B139463046FFF7DFFF17
:103B5000012201212046FDF73DFC00F025FD05B0C6
:103B6000F0BD10222946684602F022F86946304628
:103B7000FFF7CDFF6846FCF708FE2A46E9E7F0B5F7
:103B80000F4685B0044600F0F9FCFD6804F14006DC
:103B9000203465B139463046FFF7B9FF01220221D2
:103BA0002046FDF717FC00F0FFFC05B0F0BD102229
:103BB0002946684601F0FCFF69463046FFF7A7FF3B
:103BC0006846FCF7E2FD2A46E9E70000C36810B545
:103BD00004462BB940F239220449054800F006FD9D
:103BE000E36820461B68BDE810401847B4CC0008C5
:103BF000CACC0008012908B502D0022906D008BDA8
:103C0000C36B13B13030FFF7E1FF08BDC36C002B6D
:103C1000FBD04030F7E77047A0F1BC00FFF7FBBFD7
:103C2000A0F1BC00FFF7F7BF00F030B9A0F1BC0075
:103C3000FFF7FABF00F02DB9A0F1BC00FFF7FABF03
:103C400010B5044600F034F9002104F1BC0000F086
:103C500035FF064B03F10802226003F12802883386
:103C6000C4F8BC20C4F8C030204610BDE0CC000829
:103C700013B50E4C00F082FC22884FF6FF739A4277
:103C80000AD100F091FC00232288009308490948DA
:103C900000F0F0FD02B010BD0121204600F092FCC2
:103CA00002B0BDE8104000F07FBC00BF600E0020F5
:103CB00070CD00082301048037B50C4C00F05EFC89
:103CC000258855B900F070FC228800952B460849DC
:103CD000084800F0CFFD03B030BD0121204600F0C0
:103CE0007BFC03B0BDE8304000F05EBC600E0020FD
:103CF00095CD00082401048000487047B4CD000829
:103D0000024B1B680BB1024818477047A402002001
:103D1000B4CD000813B5044601300FD102B010BD78
:103D20009C420AD120468968FEF7CEF80021204641
:103D300002B0BDE81040FEF75FB90C31B1F90030B8
:103D40005A1CEDD10023009322460249024800F09C
:103D500091FDE3E72BCE000830010180884207B5D2
:103D600002460BD0431C09D001310BD00023064979
:103D70000093064800F07EFD4FF0FF31084603B087
:103D80005DF804FB0146F9E7FACD00083001018037
:103D9000B1F900305A1C01D118467047834201D155
:103DA000486870470C31F3E7421C13B504460BD04A
:103DB000FFF7EEFF431C044606D1002302460093A2
:103DC0000349044800F056FD204602B010BD00BF74
:103DD0000BCE000830010180B1F900305A1C01D12E
:103DE00018467047834201D1886870470C31F3E769
:103DF000421C13B504460BD0FFF7EEFF431C0446EC
:103E000006D10023024600930349044800F032FD26
:103E1000204602B010BD00BFDCCD0008300101809B
:103E20007047704710B480B1146853680CB9DA0752
:103E30000BD513F0010F4FEA63031CBFC25814598E
:103E4000184423465DF8044B18475DF8044B70474F
:103E5000090170B501F198050544EB6883B1441878
:103E6000D4F8A4302BB940F239220649064800F0B4
:103E7000BDFBD4F8A43028461B68BDE87040184745
:103E800070BD00BFB4CC0008CACC00084C30FEF7AF
:103E9000D7BC10B54C300C46FEF7E4FC204610BDF4
:103EA000C36810B504460BB19B689847204610BD07
:103EB0002DE9F04F87B00025924600950246019506
:103EC000044689469B469DE80300324B42F8083B76
:103ED000314B82E80300236148F2070363612F4BF3
:103EE000E561A46122626362BFF36F8FBFF34F8FFE
:103EF000102284F8285084F8295004F12C0001F095
:103F000057FE04F14C062946102204F13C0001F052
:103F10004FFE04F1980829464C22304601F048FE35
:103F200004F1A80729461022404601F041FE294627
:103F30001022384601F03CFE10222946C4F8B8B0E1
:103F400002A801F035FE02A94046FFF7E0FD02A8F5
:103F5000FCF71BFC1022294602A801F029FE02A949
:103F60003846FFF7D4FD02A8FCF70FFC524649463D
:103F70003046FEF7F9FAD4F8B8103046FEF7CEFA1C
:103F8000304622460649FEF7FFFB204607B0BDE853
:103F9000F08F00BF44CE000801A090E8253E000845
:103FA000513E00082DE9FF410646884656F84C3B35
:103FB00017461B6805463C01984700F0DFFAD8F821
:103FC0000C3098342C44ABB1E3680BB9FFF750FECA
:103FD00041462046FFF79BFD012239463046FEF759
:103FE000DFFB00F0E1FA2B6828465B68984704B0D5
:103FF000BDE8F081E3680BB1FFF75EFE10220021FF
:10400000684601F0D5FD69462046FFF780FD684609
:10401000FCF7BBFB0022E0E77FB51A4B03600446C8
:1040200010220021684601F0C3FD002269462046A7
:10403000FFF7B8FF6846FCF7A8FB1022002168468E
:1040400001F0B6FD012269462046FFF7ABFF684646
:10405000FCF79BFB14F1980608D004F1B805B542B3
:1040600004D0103D2846FCF790FBF8E704F13C0033
:10407000FFF716FF04F12C00FFF712FF204604B0F3
:1040800070BD00BF44CE000810B50446FFF7C4FF62
:104090002046FDF7E5FD204610BD00002DE9F74F55
:1040A000D0F804A09AF83A300446002B46D10368B1
:1040B0005B68984763681B6A98423FD0DAF8203003
:1040C000DAF80840CAF82000A0EB0308DAF80C3050
:1040D000314808EA0308844246464FF0000727D0DB
:1040E000DAE90A239AF83BB0A8FB0089CDE900235E
:1040F0000025BBF1000F2BD05A464046494606F03A
:10410000AFFBDDE9002312EB080243EB0903904605
:104110005A46994606460F4606F0AEFBB8EB00003D
:1041200069EB0101A94208BFA0420AD2CAE90A010B
:10413000DAE90C23B6185F41CAE90C6703B0BDE8A1
:10414000F08F013647F10007001B61EB0501EDE739
:1041500022462B464046494607F084F8224606464A
:104160000F46404649462B4607F07CF8DDE90089BA
:1041700018EB020849EB0309A94508BFA04502D284
:10418000CAE90A89D4E7013647F10007B8EB040809
:1041900069EB0509F4E700BF40420F00824206D9EF
:1041A0008A420BD9884294BF002001207047884280
:1041B00006D98A428CBF0020012070470120704739
:1041C000002070472DE9F14F476897F83A300646CE
:1041D000002B44D197F83930002B40D1FFF75EFF18
:1041E00075686B68002B59D0D5E90C89D3E90001BB
:1041F000894508BF804505D333685B6901B0BDE8D8
:10420000F04F1847D5E90623B0EB080861EB090920
:104210004B4508BF42452C6906D3AB68254A9342FB
:1042200020D1444528BF44462B6A1C44EB681C40FF
:104230003B6AA34205D140F207121F491F4800F014
:10424000D5F9336820461B69984733685B689847FF
:1042500022460146386AFFF7A1FF0028CCD101B001
:10426000BDE8F08F95F83B20DFF854A04FF0000B2D
:104270007AB14046494606F0FFFA10EB0A0041EBDE
:104280000B010C4A002306F0EDFF844228BF0446D0
:10429000CAE7A3FB080103FB0911EEE73B69386A93
:1042A000FA68184433681B69104001B0BDE8F04F4C
:1042B000184700BF40420F0054CE0008A6CE0008A9
:1042C0003F420F002DE9F04F436893F8382085B046
:1042D0000546002A6FD193F83A30002B6BD1036862
:1042E0001B6898472B68DB699847066804462EB917
:1042F0002C2232493248334E00F078F91F23012234
:1043000002FA03F1B1425FFA83FB02D0013BF7D11D
:104310009B46D4F804A0AAF104031C2B06D93A2228
:104320002649274800F062F94FF0200AAAF1040359
:10433000072716F1FF3007FA03F7224C4FF000036E
:1043400043F1FF313246C4FB070106F08BFF6C6876
:104350002A6800232360636052680393CDE900015B
:10436000904720626C684FF000084FF000095246F9
:10437000C4E90A89A66084F83BB00120002106F058
:104380007BFADDE90023C4E90623039B84F8393076
:1043900084F83A3001380123E06027612846C4E9F7
:1043A0000C8984F83830FFF779FE284605B0BDE85F
:1043B000F04FFFF707BF05B0BDE8F08F54CE0008FF
:1043C000F2CF000840420F0038B505460C46FFF713
:1043D00079FF00F0D3F86B681C60BDE8384000F04E
:1043E000E3B870B5044600F0C9F82368DB68984765
:1043F000636893F83A201AB1BDE8704000F0D4B871
:10440000012283F8392063685B68A3B12046FFF777
:1044100045FE65686E68D5E90C01D6E9002399422E
:1044200008BF904207D3F3686B602B68002BEAD07B
:10443000B0689847E7E76368002283F83920204690
:10444000FFF7C0FED8E72DE9F04180460C4616463E
:104450001F46069D00F092F84046FFF71FFED8F871
:104460000420A560C4E90067536800254BB9E360E8
:1044700085B954604046FFF7A5FEBDE8F04100F065
:1044800093B8D3E900018F4208BF8642EFD31D469F
:10449000DB68EBE7EC60F0E738B505460C4600F06A
:1044A0006DF86A685368A34209D1DB6853602846F7
:1044B000FFF788FEBDE8384000F076B81346002BC1
:1044C000F8D0DA689442F9D1E268DA60F2E710B520
:1044D0000446FFF7F7FE00F051F82046FFF7DEFD37
:1044E00000F062F86368D3E90C0110BD08B5FFF76E
:1044F000EEFF08BD10B5034B03600446FFF724FA36
:10450000204610BDD4CE000810B50446FFF7F2FFD8
:104510002046FDF7A5FB204610BD00001FB5436BEC
:10452000044600F1280113B15B6868469847636B45
:1045300003932046FFF7DBF9039B2BB940F23922A6
:104540000649074800F052F8039B68461B689847E5
:104550006846FCF71AF904B010BD00BFB4CC0008DF
:10456000CACC0008EFF31080C04300F00100704790
:10457000EFF30580003018BF0120704710B5074CDD
:104580002368013304D151220549064800F02EF872
:1045900000F0F0FA23680133236010BDA80E00205C
:1045A000E0CE000835CF0008054B1A6832B11A6812
:1045B000013A1A601B680BB900F0EEBA704700BFF1
:1045C000A80E0020D0E85F3F0B449BB2C0E8523FEA
:1045D000002AF7D118467047D0E85F3F5B1A9BB2BC
:1045E000C0E8523F002AF7D11846704770B504461C
:1045F0000D461646FFF7C2FF33462A4621460348BA
:10460000FDF7D2F8BDE87040FDF778B866CF000836
:1046100070B50E4600250446056045600F493046DA
:1046200001F02CFE0644266023681A782F2A0ED14A
:104630000133236025B9292209490A48FFF7D6FF2B
:104640002946304600F0ACF96060204670BD002A73
:10465000F0D0013301352360E6E700BF97CF0008B3
:1046600099CF0008EBCF000800687047406808B594
:1046700020B100F03CF9431E5842584108BD10B526
:104680000446FFF7F3FF10B1606800B1043810BDB5
:10469000406808B520B100F02AF9B0FA80F040096E
:1046A00008BD10B50446FFF7F3FF10B1606800B114
:1046B000043810BD4068003018BF0120704700006A
:1046C0002DE9F0411B4C1C4E237836EA200628BF0A
:1046D0000646012B8EB00F46904600D1FEE7174DDF
:1046E000FFF74CFF01232370FFF75EFF2B68342296
:1046F0000133002101A82B6001F05AFA2B680196C2
:10470000012BCDF80880039704D1342201A90C486D
:1047100001F050F9342201A90A4801F04BF90A4B83
:104720001B680BB107489847002020700EB0BDE809
:10473000F08100BFB40E00200101FF80AC0E00200C
:10474000B80E0020EC0E0020B00E002073B5294CEE
:104750002168C1F34173032B0CBF4D428DB2C1F3ED
:1047600007432A4606462448FDF71EF86FF498735F
:104770001D44072D09D8DFE805F004272A2D30361F
:104780003339A1681D48FDF70FF83046FDF70CF8E6
:1047900061681B48FDF708F8A1681A48FDF704F89E
:1047A000E3690193A369009304F10C010EC9164853
:1047B000FCF7FAFF21681548FCF7F6FF144802B031
:1047C000BDE87040FCF7F0BFA1681248DBE7A168C4
:1047D0001148D8E7A1681148D5E7A1681048D2E789
:1047E000A1681048CFE7A1680F48CCE7A1680F483F
:1047F000C9E700BFEC0E002009D000085AD000081D
:10480000E7D00008F7D000080AD1000859D1000805
:10481000A5D100086FD000087ED000088CD0000819
:104820009ED00008B1D00008C4D00008D2D0000843
:104830000FB437B50C4D2978724679B90B48FFF79C
:104840003FFF0B48FFF782FF012407A906982C7051
:104850000191FCF77FFF2046FDF784F803B0BDE827
:10486000304004B0704700BFB40E00200001FF804C
:10487000F4CF000810B50C4611467246FFF720FF32
:1048800068B92046FFF762FFFFF772FE10B9FFF725
:1048900069FE08B930BFFDE70120FDF763F8014864
:1048A00010BD00BF0F01FF8070B50446FFF724FA6A
:1048B0000646FFF71BFE05463046FFF717FE401B76
:1048C000A042F9D370BD000007EE100ADFED047AB4
:1048D00067EE277AFDEEE77A17EE900AFFF7E4BF5E
:1048E000002474494FF47A735843FFF7DDBF007B0F
:1048F0007047000038B504460A4B0360002343604C
:104900000D46A16002730848FCF70AFA45B1074B4F
:104910001A6862601C600448FCF702FA204638BD41
:104920006560F8E7D0D10008240F0020200F002098
:1049300010B5124B036004461148FCF7F1F9A36867
:104940002BB1104A13689C4212D1636813600E4B5E
:104950000B481A68944204BF00221A60FCF7E0F981
:10496000237B13B9201FFDF77DF9204610BD1346A8
:104970005A689442FBD162685A60E8E7D0D10008D7
:10498000240F0020200F00202C0F002010B504461B
:10499000FFF7CEFF2046FDF763F9204610BD00006B
:1049A00070B5064614480D46FCF7BAF9134B1C685F
:1049B0007CB1A068E8B101F033FCA84219D12A46C5
:1049C0003146A06800F0C4FF98B90B48FCF7A8F97D
:1049D0000DE0072DF9D12A463146094800F0B8FF0D
:1049E0000028F2D10448FCF79BF9064B1C682046CE
:1049F00070BD6468DCE700BF240F0020200F00209A
:104A0000BFD100082C0F002000207047704770476E
:104A1000F8B503681B6D0E4604468F189847354657
:104A2000BD4207D0236815F8011B9B6C20469847B0
:104A30000130F5D1236820465B6D9847A81BF8BD6F
:104A4000F8B503681B6D0E4604468F189847354627
:104A5000BD4208D023682046DB6C9847431C02D037
:104A600005F8010BF4E7236820465B6D9847A81B07
:104A7000F8BD002070477047002070470020704745
:104A800010B5054B03605033044640F8043FFFF770
:104A90004FFF204610BD00BFE0D10008A0F1040088
:104AA000EEE700BF10B50446FFF7EAFF2046FDF72A
:104AB000D7F8204610BDA0F10400F3E7104B13B562
:104AC0000022044640F8043BFFF714FF0D4B23601F
:104AD00060336360002363610B492046FDF70CF9E6
:104AE0000346606120B1FCF742FF204602B010BDD2
:104AF0000090024605490648FFF7BCFEF5E700BFF7
:104B000040D3000858D2000838D200083BD2000831
:104B10001901018010B5074B03F108026833044600
:104B200002604360406900F0B3F82046FFF7A8FF39
:104B3000204610BD50D200080EB477B5036807AD0B
:104B4000044655F8046B1B6D98476069019500F0A9
:104B500067F9019A6069314602F0BEFD2368054697
:104B60005B6D20469847284603B0BDE8704003B00F
:104B700070470000EFF31083DB4372B6044A1178EC
:104B800029B9044903F001030B7001231370704726
:104B9000310F0020300F002008B5EFF31083DB0742
:104BA00004D4352205490648FFF720FD054B0022B5
:104BB0001A70054B1B7803B162B608BDC0D200085D
:104BC0001CD30008310F0020300F0020036870B59F
:104BD0001B690122002104469847051E0DDB23684E
:104BE00002221B6900212046984723680646294671
:104BF0001B690022204698473546284670BD0000B4
:104C0000014B1868704700BFD006002000293DD036
:104C100070B505460C4608B1836B7BB3B4F90C3014
:104C20000BB9002070BD2846214600F039F8E36A30
:104C3000064633B12846E16998470028B8BF4FF0CF
:104C4000FF36A3891B061CD4216B41B104F140033C
:104C5000994202D0284606F0FDFD00232363616CD3
:104C600021B1284606F0F6FD0023636400F0CAF97E
:104C70000023A38100F0C8F9304670BD00F0BCF9F4
:104C8000CCE72846216906F0E5FDDDE70020704706
:104C9000024B01461868FFF7B9BF00BFD0060020DD
:104CA0008B899AB22DE9F0410D46110780463CD41C
:104CB0006A6843F40063002AAB8165DDAE6A002EAA
:104CC0004BD09BB203F48052002192B2D8F800403E
:104CD000C8F80010002A5BD02A6D5F0705D5696807
:104CE0002B6B521A0BB1EB6BD21A4046E9690023C9
:104CF000B047461C56D0AB892A692A6023F400636A
:104D00009BB200226A60DA04AB813BD4296BC8F8FD
:104D1000004011B305F14003994202D0404606F02D
:104D200099FD00202863BDE8F0812E69AEB12C68A2
:104D30002E6091070CBF6B690023A41BAB600AE0D7
:104D4000324623466F6AE9694046B8470028A4EB1B
:104D50000004064404DD002CF2DC0020BDE8F081F4
:104D6000AB8943F04003AB814FF0FF30BDE8F081E9
:104D7000AB892A69696023F400639BB2AB81DB04D1
:104D80002A60C3D52865C1E7EA6B002A96DCE4E710
:104D900001234046E969B047431C024619D0AB895C
:104DA000AE6A9AE7D8F800100029E1D01D2907D093
:104DB000162905D0AB8943F04003AB81BDE8F081F3
:104DC000AB892A692A6023F400630022AB816A6000
:104DD0009CE7D8F80030002BE1D01D2B07D0162B14
:104DE00005D0AB8943F04003AB81BDE8F081C8F842
:104DF0000040B2E710B5044682B008B1836B53B1EE
:104E0000B1F90C0008B902B010BD204602B0BDE8EF
:104E10001040FFF745BF019100F0EEF80199EFE770
:104E200020B1054B01461868FFF7E4BF034B044966
:104E3000186800F071BC00BFD00600208CD30008B9
:104E4000F54D0008014900F067BC00BF0D4C00089B
:104E50002DE9F04F354B4568C3630024074600F544
:104E60003B7204230321C0F8E412C0F8E822C0F822
:104E7000E04283B02C606C60AC606C66EC812C61AD
:104E80006C61AC61AB81214605F15C00082200F049
:104E90008FFEBE68DFF898B0DFF898A0DFF8989032
:104EA000DFF89880C5F820B001230922C5F824A0B6
:104EB000C5F82890C5F82C80ED612146F381B281B8
:104EC00006F15C0034607460B460746634617461CF
:104ED000B4610822019300F06BFEFD68F6611220B8
:104EE0000222C6F820B0C6F824A0C6F82890C6F85A
:104EF0002C802146A881EA812C606C60AC606C66D5
:104F00002C616C61AC6105F15C00082200F050FE80
:104F1000019BED61C5F820B0C5F824A0C5F8289024
:104F2000C5F82C80BB6303B0BDE8F08F454E000888
:104F3000A15E0008C55E0008FD5E00081D5F000858
:104F400070B568234D1E03FB05F50E4605F174018F
:104F500006F07CFC044640B100210C30666005F18F
:104F600068022160A06000F023FE204670BD00BFF3
:104F7000204B70B51D68AB6B064613B92846FFF78A
:104F800067FF05F538756B68AC68013B05D521E016
:104F9000013B5A1C04F168041CD0B4F90C20002A0F
:104FA000F6D1002501234FF6FF72E281A3816566E9
:104FB0002560A560656025616561A561294604F1EC
:104FC0005C00082200F0F4FD256365636564A56458
:104FD000204670BD2B680BB11D46D4E73046042136
:104FE000FFF7AEFF286008B10546CCE70C2333601D
:104FF00070BD00BF8CD30008836B03B17047FFF70F
:1050000027BF00BF704700BF704700BF38B5084BCF
:10501000084DED1AAC1018BFED1805D0013C55F83D
:10502000043D9847002CF9D1BDE8384007F00CBA90
:10503000500B0020540B0020F0B583B00F461146F2
:1050400001AA064603F094FC0546E8B13046FFF796
:105050008FFF0446C0B139463046019A4FF4DB73E6
:1050600000F0F4FD00281BDB114B124F1249134ACC
:10507000E362EB05E081A581E46127626162A262DF
:1050800005D4204603B0F0BD002003B0F0BD30468B
:1050900021460022022300F01BF8204603B0F0BD99
:1050A0000025FFF7AFFFA581FFF7AEFF2846E9E730
:1050B0001D5F0008A15E0008C55E0008FD5E0008D7
:1050C000024B0A4601461868FFF7B6BFD00600201B
:1050D00000F000B82DE9F04F0C4691B091461E4605
:1050E000054610B1836B002B73D0A38903F484733E
:1050F000B3F5847F75D0D4F82880B8F1000F00F0A4
:105100003E81012E4AD0022E08D03EB116232B60DC
:105110004FF0FF37384611B0BDE8F08F4FF0000A6E
:1051200023695746002B00F01581A28940F61A0327
:1051300091B20B4043B949055ED4934B984500F0BA
:10514000F68042F40062A28128462146FFF752FE13
:1051500007460028DCD14A4633462846E169C04765
:105160000130D5D0216B41B104F14003994202D006
:10517000284606F06FFB00232363A389226922607F
:1051800023F402630021A381616004F15C00082222
:1051900000F00EFD384611B0BDE8F08F28462146DC
:1051A000FFF728FEA38903F4805292B2002A00F090
:1051B000B480276D5E075CD4180740F1AC8022688C
:1051C00023690AB1D21A1744B9444FF0010A0026E4
:1051D000A8E7FFF711FFA38903F48473B3F5847F75
:1051E00089D128462146FFF705FE84E7A3894FF4BD
:1051F00080621343A381E264002E43D1CB46BAF10F
:10520000000F4ED1A389DA0440F1A980206D6368B4
:10521000216BC71A002900F0AB80E26BBF1A1F4454
:105220002069A36B1B1AFF1A1344BB453FDBFA1816
:1052300093453CD2C7EB0B073844DB1B84E80900DD
:1052400041B104F14003994202D0284606F002FB26
:1052500000232363A38923F02003A38104F15C00CE
:105260000021082200F0A4FC0027384611B0BDE858
:10527000F08F6268236BBF1A002B4CD0E26B23695E
:10528000BF1AA1E72846B4F90E1001AA00F07EF873
:1052900000287FF459AF059B09EB030BBAF1000F0F
:1052A000B0D0216B6368002962D0E26BB7E7E76C8E
:1052B000E1697F420BEA07073A4628460023C047C8
:1052C00001303FF441AF2369216B23600023636009
:1052D00041B104F14003994202D0284606F0BAFADF
:1052E00000232363A389BBEB070B23F02003A381D7
:1052F000B4D02846214600F0C7FC00287FF424AF34
:10530000626893453FF620AF2368CBEB02025B4413
:1053100062602360A2E7236956E733462846E169C5
:10532000C047431C07463FF4F3AEA38942E7B4F9F4
:105330000E100029FFF605AF284601AA00F026F856
:1053400030B9029B03F47043B3F5004F3FF44EAF06
:10535000A289F6E62846214600F030FAE5E6012368
:1053600052462846E169C047431C7FF450AFEBE644
:1053700022682069121ABF1A1344002155E71D2321
:105380002B604FF0FF37C5E6FD5E000838B5084CCE
:1053900000230546084611462360FCF74AFC431CDF
:1053A00000D038BD2368002BFBD02B6038BD00BF78
:1053B000BC1000209368002B7AD02DE9F04FB1F893
:1053C0000CE01EF0080F83B00C468146164626D02E
:1053D0000B6923B30EF002081FFA88F0356870B32A
:1053E0004FF0000ADFF8E0B2D046D84543465246B7
:1053F00028BF5B464846B8F1000F53D0E169676AA1
:10540000B847002873DDB3681B1A8244C0EB080854
:10541000B360002BE9D1002003B0BDE8F08F48460F
:10542000214602F053FA002840F04581B4F80CE020
:1054300035680EF002081FFA88F00028D0D11EF05F
:10544000010B5DD1D846B8F1000F25D01EF4007FC6
:10545000A7682FD0B845BA46C0F0A9801EF4906F57
:1054600040F0B68020685246594600F03DFBA068E7
:105470002268C01B02EB0A03A06023604046B368A9
:105480001B1A8344C0EB0808B360002BC3D0B4F8E8
:105490000CE0B8F1000FD9D1D5F800B0D5F80480F0
:1054A0000835D0E7D5F800A0D5F8048008359CE78A
:1054B0000020704720682369984203D862699045AC
:1054C00080F0B980474528BF47463A46594600F024
:1054D0000BFBA3682268DB1B3A44A3602260002B0D
:1054E0004AD148462146FFF785FC002844D0A389CD
:1054F00043F040034FF0FF30A38103B0BDE8F08FCD
:105500008046009083468246BAF1000F2CD0009B63
:10551000002B50D020682169D4F808E06269D0459A
:10552000434628BF534688421F4604D90EEB020C5F
:10553000634500F39280934220DB1346676AE1697A
:1055400048465A46B847071ED1DDB8EB070825D0B4
:10555000B368DB1BBB44C7EB0A0AB360002B3FF404
:105560005AAFBAF1000FD2D10023D5F800B0D5F868
:1055700004A000930835C7E7384680E71A46594625
:10558000019300F0B1FAA2682168019BB8EB07080B
:10559000A2EB03020B44A2602360D9D14846214606
:1055A000FFF728FC0028A2D1CDF80080D0E72068C2
:1055B0004746C24657E758460A21524600F07EF950
:1055C000002873D001300123CBEB00080093A1E742
:1055D00067692169236807EB47075B1A07EBD777F1
:1055E000581C7F10404487423A463CBF07463A4623
:1055F0001EF4806F009346D01146484606F026F907
:10560000009B8246002859D01A462169009300F079
:10561000D1F9A289009B22F4906242F08002A2811B
:105620000AEB0300FB1AC4F810A067612060A360B6
:105630004746C24617E76FF00043434528BF43463D
:10564000676A93FBF2F3484603FB02F3E1695A46AB
:10565000B84700283FF713AF49E762465946CDF8EF
:1056600004C000F041FA2368DDF804C063442360FD
:1056700048462146FFF7BEFBDDF804C000287FF452
:1056800036AF674661E7484606F0E2F8009B82467F
:105690000028C5D14846216906F0DCF8A3890C2210
:1056A00023F080039BB2C9F8002021E701230AF10F
:1056B000010800932EE74FF0FF30ADE60C23C9F848
:1056C0000030A38914E700BF00FCFF7F2DE9F04103
:1056D00010F538771BD0884600267D68BC68013DF0
:1056E0000FD4A389012B05F1FF3506D9B4F90E308B
:1056F0000133204601D0C04706436B1C04F1680407
:10570000EFD13F68002FE8D13046BDE8F0813E463A
:105710003046BDE8F08100BF2DE9F84310F5387739
:105720001FD0884606464FF000097D68BC68013DE1
:1057300011D4A389012B05F1FF3508D9B4F90E3036
:1057400001332146304602D0C04749EA00096B1CAC
:1057500004F16804EDD13F68002FE6D14846BDE86A
:10576000F883B9464846BDE8F88300BF70B50F4ED0
:105770000F4D761BB61018BF002405D0013455F824
:10578000043B9847A642F9D10A4E0B4D761B06F012
:1057900055FEB61018BF002406D0013455F8043B5E
:1057A0009847A642F9D170BD70BD00BF480B0020DC
:1057B000480B0020500B0020480B00208B899AB228
:1057C00012F0020F3CD1F0B50C46B1F90E100029D1
:1057D00091B0054619DB01AAFFF7D8FD002812DBBE
:1057E000029B03F47043B3F5004FA3F50057B7FADB
:1057F00087F74FEA57172AD0A38943F40063A381A0
:105800004FF480660BE0A3899AB212F0800F43F444
:105810000063A3810CBF4FF4806640260027284612
:10582000314606F013F8A38940B31A4AEA6343F0FD
:105830008003A3812060206166619FB911B0F0BD33
:1058400001F1430301220B600B614A617047124B67
:10585000A26A9A42D0D1A3894FF480663343A381D0
:10586000E664DCE72846B4F90E1003F0BBF8002824
:10587000E4D0A38943F00103A381DFE79A05DDD4D7
:1058800004F1430243F002030121A381226022615B
:105890006161D3E7454E0008FD5E0008024B0146FA
:1058A000186805F0D3BF00BFD0060020024B0146A8
:1058B000186805F0CFBF00BFD0060020830770B482
:1058C000C9B240D0541E002A3FD003788B4218BF83
:1058D000431C06D11DE0F4B102788A4204F1FF3482
:1058E00017D013F0030F184603F10103F3D1032C73
:1058F00014D884B103788B420BD00519431C02E005
:1059000002788A4205D0AB42184603F10103F7D171
:10591000002070BC7047204670BC704741EA0126E9
:10592000024646EA06461046043203687340A3F175
:10593000013525EA030313F0803FDAD1043C032C40
:105940001046F0D8D5E71446D1E71046E1E700BF8E
:10595000032A70B426D940EA01039B0711D00478CA
:105960000D78AC4222D10244431C05E013F8014BF0
:1059700011F8015FAC4219D19342F7D1002070BCFD
:1059800070470C4603461E682568AE4218462146FD
:1059900003F1040304F1040404D1043A032A184671
:1059A0002146F0D8002ADAD11046E8E7601B70BC27
:1059B000704700BF844641EA000313F003036DD132
:1059C000403A41D351F8043B40F8043B51F8043BC2
:1059D00040F8043B51F8043B40F8043B51F8043BC9
:1059E00040F8043B51F8043B40F8043B51F8043BB9
:1059F00040F8043B51F8043B40F8043B51F8043BA9
:105A000040F8043B51F8043B40F8043B51F8043B98
:105A100040F8043B51F8043B40F8043B51F8043B88
:105A200040F8043B51F8043B40F8043B51F8043B78
:105A300040F8043B51F8043B40F8043B51F8043B68
:105A400040F8043B403ABDD2303211D351F8043B08
:105A500040F8043B51F8043B40F8043B51F8043B48
:105A600040F8043B51F8043B40F8043B103AEDD2B7
:105A70000C3205D351F8043B40F8043B043AF9D208
:105A8000043208D0D2071CBF11F8013B00F8013BDB
:105A900001D30B8803806046704700BF082A13D3E8
:105AA0008B078DD010F003038AD0C3F10403D21A00
:105AB000DB071CBF11F8013B00F8013B80D331F834
:105AC000023B20F8023B7BE7043AD9D3013A11F8B4
:105AD000013B00F8013BF9D20B7803704B7843701F
