:020000040800F2
:1000000000800120D92200082523000825230008AC
:1000100025230008252300082523000800000000F0
:100020000000000000000000000000002523000880
:1000300025230008000000002523000825230008D0
:100040002523000825230008252300082523000870
:100050002523000825230008252300082523000860
:100060002523000825230008252300082523000850
:100070002523000825230008252300082523000840
:100080002523000825230008252300080000000080
:100090000000000000000000000000002523000810
:1000A0002523000825230008252300082523000810
:1000B0002523000825230008252300082523000800
:1000C00025230008252300082523000825230008F0
:1000D0002523000825230008252300080000000030
:1000E0002523000825230008252300080000000020
:1000F00000000000000000000000000025230008B0
:1001000000000000252300082523000825230008FF
:1001100000000000000000000000000000000000DF
:10012000252300082523000825230008252300088F
:10013000252300080000000000000000000000006F
:10014000000000000000000000000000252300085F
:10015000252300082523000825230008252300085F
:1001600025230008252300080000000000000000EF
:10017000000000000000000000000000000000007F
:10018000000000002523000800000000000000001F
:100190002523000810B5054C227832B9044B13B161
:1001A0000448AFF300800123237010BD680C0020C9
:1001B0000000000030D3000808B5034B1BB1034911
:1001C0000348AFF3008008BD000000006C0C002065
:1001D00030D30008134B002B08BF114B9D46A3F5ED
:1001E000803A00218B460F461148124A121A05F038
:1001F00093FA0D4B002B00D098470C4B002B00D0EE
:1002000098470020002104000D000B4801F0D5F8AC
:1002100005F052F82000290001F05AFB01F0CAF85D
:10022000000008000080012000000000C118000844
:10023000680C0020A01100203D4B00082DE9D043A0
:100240004FF4987001F020FA044600F097FA60200D
:1002500001F01AFA00F0D4FBDFF82C904FF0000800
:10026000002600270748C4E94889C4E94A8904F000
:10027000CFF80448C4E94867C4E94A6704F0C8F8FD
:10028000F0E700BF0000A04000006940034607C936
:1002900083E807007047704710B4446881686210B3
:1002A0000346E40701EB02001B6848BF8A585DF86B
:1002B000044B48BFD358184710B50446806903F073
:1002C0009DF9D4F8F43001280CBF03F1FF3301335A
:1002D000C4F8F43010BD10B50446006A03F08EF97E
:1002E000D4F8F83001280CBF03F1FF330133C4F810
:1002F000F83010BD38B51C2204460D46002105F02B
:100300000BFA2046294603F042F9204638BD38B59D
:1003100004460D4603F0D6FE237E1BB903F04CFACB
:10032000012323762946204601F0D2FBBDE8384060
:1003300003F0DEBE10B5044603F04AF82046064B33
:1003400040F8283B1022002105F0E6F9012384F84B
:100350003830204610BD00BFA4C90008D0B51646ED
:100360001F46044600220023304639460AF0B8FDF5
:1003700080B1E36811499A681B6813600020324617
:100380003B460AF06FF90AF01DFE01462068FFF7B0
:10039000BEFFD0BD00220023304639460AF08CFD56
:1003A0000028F6D0E368DA681B681B041360304647
:1003B0000022024B39460AF057F9E4E70000F03F0B
:1003C000D0B516461F460446002200233046394663
:1003D0000AF086FD80B1236911499A681B68136091
:1003E000002032463B460AF03DF90AF0EBFD01469B
:1003F0006068FFF78CFFD0BD0022002330463946ED
:100400000AF05AFD0028F6D02369DA681B681B043D
:10041000136030460022024B39460AF025F9E4E722
:100420000000F03F000000002DE9F04FD0E940232C
:1004300087B00446D0E948010AF014F9D4E9422310
:1004400082468B46D4E94A010AF00CF9604DCDE9A9
:10045000000159A3D3E90023504659460AF0BAFADD
:10046000D5E900230AF000F906460F46C5E9006702
:10047000584DDDE9000150A3D3E900230AF0AAFAA0
:10048000D5E900230AF0F0F8C5E90001524DCDE9A5
:100490000201D5E90023504659460AF0E3F848A383
:1004A000D3E900230AF096FA43A3D3E900230AF024
:1004B000BBFB45A3D3E900238046894650465946F5
:1004C0000AF088FA02460B46404649460AF0CCF844
:1004D0000022804689460023304639460AF07AFADF
:1004E00002460B46404649460AF0BEF83B4ECDE96F
:1004F0000401D6E90023DDE900010AF0B3F830A3D6
:10050000D3E900230AF066FA2BA3D3E900230AF00B
:100510008BFB2DA3D3E9002380468946DDE900014A
:100520000AF058FA02460B46404649460AF09CF843
:100530000022804689460023DDE902010AF04AFADA
:1005400002460B46404649460AF08EF8C5E900AB24
:100550009DED007B224D234B86ED007B8046894636
:100560000022DDE904010AF05FFBD5E900230AF06F
:100570007BF806460F46C5E900670022194B1A4D65
:10058000404649460AF050FB02460B46D5E90001B9
:100590000AF06AF83246C5E900013B462046FFF7FB
:1005A0000FFFD5E90023204607B0BDE8F04FFFF765
:1005B000D5BE00BFAFF300809A9999999999B93F38
:1005C0009A9999999999A93F9A9999999999E93FED
:1005D000A80C0020B00C0020880C0020900C0020FB
:1005E000980C002000407F40A00C0020000000007C
:1005F0002DE9D04F044686B0D0F8F4000AF080F917
:1006000000222F4B804689460AF0E4F982468B4649
:10061000D4F8F800C4E942AB0AF072F90022284B82
:10062000CDE902010AF0D6F906460F46D4F81C01BE
:10063000C4E940670AF064F91FA3D3E90023CDE9B8
:100640000401404649460AF0C5F902460B46DDE979
:1006500004010AF009F80AF06DFCC4F81C01D4F892
:1006600018010AF04DF914A3D3E900238046894606
:10067000DDE902010AF0AEF902460B464046494662
:1006800009F0F2FF0AF056FCC4F81801D4F8100182
:100690000C495B46CDE900675246BC3003F0F0FFE1
:1006A00000232046C4E93D3306B0BDE8D04FFFF734
:1006B000BBBE00BFAFF30080A43A55297A6AEF3F72
:1006C00000C00240ACBF0008C36810B504460BB1BF
:1006D0009B689847204610BD38B5CB6804460D4648
:1006E0000BB15B689847EB68E360204638BD0000BB
:1006F000F0B52DED028B85B00446684608EE102A51
:10070000FFF7EAFFDFED147A68EE277A17EE900A1A
:100710000AF0C0FC06460F4603F0D4FC636B23B915
:1007200094F838300BB103F047F804F12805284657
:10073000FFF7CAFF69462846FFF7CEFF32463B4621
:10074000204602F08AFE03F0D3FC6846FFF7BCFFA8
:1007500005B0BDEC028BF0BD0024744938B5102201
:100760000D460021044604F0D7FF95E80700024B30
:10077000E36084E8070038BDA0BF00082DE9F04120
:1007800000F1280788B004463846FFF7D3FD6D4DC9
:1007900004F16800FFF7CEFDA56604F1A800FFF79D
:1007A000C9FDC4F8A850D82000F06EFF4FF4E13323
:1007B00003220221054602F0E7FFC4F810511C2075
:1007C00000F062FF00250646057603F07BFC082159
:1007D000304601F097FA03F08BFC26601C2000F0F5
:1007E00053FF0646057603F06DFC0921304601F003
:1007F00089FA03F07DFC66601C2000F045FF1C2197
:100800000646FFF777FDE6601C2000F03DFF0C2157
:100810000646FFF76FFD26611C2000F035FF122110
:100820000646FFF767FDD4F80080A660464E03F049
:1008300049FC3146404601F02BFB03F059FCD4F84B
:10084000048003F03FFC3146404601F021FB03F0F9
:100850004FFC20684FF07E51FFF759FD4FF07E515D
:100860006068FFF754FD4FF07C5003F0D1FDA368A2
:100870009A681B6813605020C4E94655A4F81451C7
:1008800084F8165100F000FF0E21064602F08AFEA1
:100890006661502000F0F8FE0D21064602F082FE4F
:1008A000A661502000F0F0FE2A21064602F07AFEF2
:1008B000E661502000F0E8FE2C21064602F072FEB0
:1008C000224B26626669039401A904A8CDE901358B
:1008D000FFF744FF04A9304602F0C7FE04A8FFF763
:1008E000F3FE1B4BE669039401A904A8CDE9013589
:1008F000FFF734FF04A9304602F0B7FE04A8FFF763
:10090000E3FED4F810011349BC3003F0B9FE124BDA
:10091000039401A904A8CDE90135FFF71FFF0F4A91
:1009200004A93846FFF7E4FE04A8FFF7CDFED4F88B
:1009300010010B49BC3003F0A3FE204608B0BDE80F
:10094000F08100BFD0CB00086F12033BB902000852
:10095000D7020008B8BF0008F1050008CDCCCC3D97
:10096000DBBF0008704710B5044600F0A1FE20462A
:1009700010BD0000034610B553F8042B044612B90D
:100980000360206810BD9A42FBD0662202490348EA
:1009900003F0D0FBF5E700BF0CC000082CC0000836
:1009A00008B50248FFF7E6FF08BD00BF3C0F002076
:1009B00008B50248FFF7DEFF08BD00BF3C0F00206E
:1009C0002DE9F04105465020884600F05DFE0446C2
:1009D000094B0A4F44F8043B06463846FFF7CAFF66
:1009E0004146204600F07CF83846FFF7C3FF2E61F1
:1009F0002846BDE8F08100BFFCBF00083C0F002086
:100A000038B50446202000F03FFE20210546FFF7C0
:100A1000D7FF2560202000F037FE00210546FFF7B4
:100A2000CFFF6560202000F02FFE01210546FFF773
:100A3000C7FFA560202000F027FE04210546FFF730
:100A4000BFFFE560202000F01FFE10210546FFF7E4
:100A5000B7FF2561202000F017FE21210546FFF792
:100A6000AFFF65611C2000F00FFE2E210546FFF749
:100A700041FCA5611C2000F007FE2F210546FFF771
:100A800039FCE5611C2000F0FFFD05462321FFF73E
:100A900031FC2B68EA6825621B041360E3690F4D83
:100AA0009A681B681360284603F0B2FCA3699A6831
:100AB0001B681360284603F0ABFCA369DA681B6867
:100AC0001B041360E369DA681B681B0413600023CE
:100AD0000622C4E90932204638BD00BF0AD7A33B2D
:100AE000A1F1F0039BB20F2B73B504460D4649D913
:100AF0002A49284602F0FCFE28492060284602F0D8
:100B00001BFF26490646284602F0A8FE236801334B
:100B100004D13C222249234803F00CFB731C04D16E
:100B20003D221F49204803F005FB0122E2612168B4
:100B30001E4AA4F848500023C6F30436914284F8B4
:100B40004A6023646360A3602361A36123626362DC
:100B5000E362A362E360236363610AD10193144BF0
:100B60005A6C42F480725A645B6C03F48073019394
:100B7000019B204601F0F4FB10B10E4803F0FCFB92
:100B800002B070BD0C49284602F0B2FE0A4920604E
:100B9000284602F0D1FE0646B8E700BF40C0000874
:100BA00040C30008B0C30008DAC3000800200140B9
:100BB00000380240F3C30008F4C0000830B50368F1
:100BC00091FAA1F4B4FA84F491FAA1F10325B1FAEF
:100BD00081F1640005FA04F4490023EA040302FAEF
:100BE00001F11943016030BD7FB50023072855D8B6
:100BF000DFE800F00413202D3A54544700932A4BA9
:100C00002A481A6B42F001021A631B6B03F00103BE
:100C10000093009B07B05DF804FB0193224B24482E
:100C20001A6B42F002021A631B6B03F0020301937A
:100C3000019BEFE702931C4B1E481A6B42F0040223
:100C40001A631B6B03F004030293029BE2E7039316
:100C5000154B19481A6B42F008021A631B6B03F01C
:100C600008030393039BD5E704930F4B13481A6BB8
:100C700042F010021A631B6B03F010030493049BF1
:100C8000C8E70593084B0E481A6B42F080021A63BE
:100C90001B6B03F080030593059BBBE7094803F03A
:100CA0006BFB0020B6E700BF0038024000000240A6
:100CB0000004024000080240000C02400010024004
:100CC000001C024009C40008431C10B5044604D1AE
:100CD00076220649064803F02DFA2046002100F04E
:100CE0001BFE04F00F040120A04010BD2AC4000820
:100CF00084C4000870B504464B1C0E46218216D0F1
:100D0000C1F30310FFF770FF05463046FFF7DCFF25
:100D1000238A074A656103F00F03206052F82330ED
:100D2000A36105F1100318356360A560E56070BD2F
:100D3000E8C60008B0F9100000F086BE0A4619B9EE
:100D400081694069FFF73ABF0122F9E74C23F0B50A
:100D50004343224E224F1A1D324400244FF0010E0D
:100D60001E448C4205D10146BDE8F0401D4803F009
:100D700003BB33680EFA04F51D422BD0136B7D695B
:100D80000EFA03F32B4225D0D2F818C07B61156808
:100D900005B3FA6833EA020203D1BA6833EA020201
:100DA00014D10F4A916833EA010103D1D26833EAC2
:100DB00002020DD1DCF81020134214BF01210221E0
:100DC000094B28461B68BDE8F04018470221F7E7A9
:100DD0000121F5E701340432C3E700BFB80C00205D
:100DE000003C0140BEC40008CC0E0020062108468D
:100DF000FFF7ACBF05210846FFF7A8BF012104207B
:100E0000FFF7A4BF01210320FFF7A0BF01210220AB
:100E1000FFF79CBF01210846FFF798BF0121002082
:100E2000FFF794BF012910B518D11B4C838952B12B
:100E3000A26803F00F0399401143A160836843F057
:100E40000103836010BDA26803F00F03994022EAFA
:100E50000101A160836823F00103F2E70229F1D1C7
:100E60000D4983895AB1CC6803F00F03012202FABD
:100E700003F32343CB60836843F00203E1E7CA68CE
:100E800003F00F03012404FA03F322EA0303CB6007
:100E9000836823F00203D4E7003C0140B0F90C3032
:100EA00099B270B501F00F0606F00C0404F180440D
:100EB00004F59C3401F00301A56889000F228A40E3
:100EC000C3F3031325EA02058B402B43A3600F4BAA
:100ED00001221968B240114319608468E50742BFD6
:100EE000996811439960A10742BFD9680A43DA6043
:100EF00090F90030002B08DB5909012203F01F0391
:100F000002FA03F3024A42F8213070BD003C01406E
:100F100000E100E02DE9F04F92464A1C85B0804682
:100F20000C4666D000220392334A344F516C41F490
:100F300080415164526C02F480420392039A04F09F
:100F40000F090C2202FB0972C4F303105568062D29
:100F500047D8DFE805F0043A3C3E40424400284EC2
:100F60000193FFF741FE0C2101FB09F17A1857F8B4
:100F700001E0244FA8F80C404C21694301247B5820
:100F800092F90820C8F8045004FA0EF44FF0000B50
:100F90001C4388F80020C8F808B07C50132101FBDE
:100FA00005E507EB8501019B4B60174BC861C3F852
:100FB00000A0164BC1F834909B681032404643F8AD
:100FC0002260FFF76BFF584610E0114EC8E7114E44
:100FD000C6E7114EC4E7114EC2E7114EC0E7114EED
:100FE000BEE7114803F0C8F94FF0FF3005B0BDE887
:100FF000F08F0846FAE700BF00380240E8C4000856
:101000001D0E0008B80C0020CC0E002000ED00E002
:10101000150E00080D0E0008050E0008FD0D000855
:10102000F50D0008ED0D000897C4000883890C2217
:1010300003F00F0370B55A431C4CA518A4581C4A62
:101040006E689568012101FA03F3DB431D4095604A
:10105000D5681D40D56015682B4013604C23734341
:10106000144AD35801FA04F4A3431ED190F9003076
:10107000002B0CDB5A0903F01F03994002F12003F7
:101080000D4A42F82310BFF34F8FBFF36F8F90F9D3
:101090000030002B09DB5A09012103F01F0301FA7C
:1010A00003F36032044941F8223070BDE8C40008FF
:1010B000003C0140B80C002000E100E0838903F00F
:1010C0000F020C235343104A70B4D65843680F4A9A
:1010D0004C215943012404FA06F5545824EA050426
:1010E0005450132101FB036302EB83040021616070
:1010F0009C1D0C3302EB840402EB83036160596096
:1011000070BCFFF793BF00BFE8C40008B80C002014
:1011100008B502F0B7F8002008BD000008B50A4B7A
:101120001B684BB102F08CFB02F075FF4FF47A7232
:10113000002309F097FF08BD02F004F94FF47A7319
:10114000B0FBF3F008BD00BFD00E002010B588B092
:1011500002F0B8FF052101A802F019FA0424039B4C
:10116000019A1A60962003F061F9019B049A1B040E
:101170001360962003F05AF9013CF0D10424039B3C
:10118000019A1A604FF4C87003F050F9019B049A59
:101190001B0413604FF4C87003F048F9013CEED112
:1011A000DCE7000070B50D46A0B0044602F08AFFEF
:1011B0002B4622468021684606F0EAF9051E03DC2C
:1011C00002F096FF20B070BD094B1B6823B90322C3
:1011D0000221084800F0F0FE064E00241DF804101D
:1011E0003046013401F066F8A542F7D1E8E700BFC8
:1011F000280F0020481000200FB407B504A951F8AB
:10120000040B0191FFF7CEFF03B05DF804EB04B0CF
:101210007047000008B501F0E3FF01F085F801F028
:10122000CFFF01F0DDFF024B01221A6008BD00BFB5
:10123000D00E002000207047036801221B690021A6
:101240001847036800221B691146184703681B6989
:10125000184703689B69184703689B6A1847002969
:101260000CBF6FF01800002070470120704711205C
:10127000704770476FF01C0070476FF015007047A3
:10128000012070470020704770470000F8B5074EF6
:1012900015460C468F18BC4205D014F8011B304689
:1012A00001F008F8F7E72846F8BD00BF4810002015
:1012B00038B58DB215F0010405D0084800F00AFEDB
:1012C000041C18BF0124EB0605D5044800F018FEE5
:1012D00008B144F01004204638BD00BF481000207B
:1012E00010B5044604F08CF8204610BD10B50C462D
:1012F0002AB1044800F0CCFF2070012010BD104638
:1013000010BD00BF4810002038B51D46074B0360D4
:10131000074B1B68044633B9064800F04DFE2946CA
:10132000044800F023FE204638BD00BFB0C50008C9
:10133000280F002048100020002070470020704730
:1013400008B5012000F036F80C4A136810B51844AF
:10135000EFF30881884205D3094B0C221A604FF045
:10136000FF3010BD07490C6824B1074909682144C2
:101370008842F1D21060184610BD00BF9C020020C8
:101380009C110020E40E0020E80E0020074C08B558
:1013900023680546986803F0E9FA2368D86803F0E3
:1013A000E5FA0DB1FFF7D2FEFEE700BFA80200206C
:1013B0000120704708B5FFF7E9FF012070470021C1
:1013C00004F0A6BA7047704708B5FFF7FBFF08BDE9
:1013D00008B5FFF7F8FF08BD10B5037803F0030365
:1013E000012B04460CD02BB140F2A9520549064806
:1013F00002F0A0FE237843F002032370012010BD09
:10140000002010BD15C600086CC6000810B5037892
:1014100003F00303022B044605D040F2B152054904
:10142000054802F087FE237823F0030343F001030D
:10143000237010BD15C6000892C600083F2870B57D
:1014400004462FDC184D55F820305A1C13D10228C1
:1014500011DCFFF773FF034658B92046FFF76CFF16
:10146000034630B9114E3378BFF35B8FDB0704D5E9
:101470000F4B45F82430184670BD3046FFF7ACFFDF
:101480000028F5D04FF41653032202210848FFF735
:101490003BFF3046FFF7BAFF064A07490448FFF70B
:1014A00087FFE5E70023E6E79C010020D40E00203B
:1014B000E00E0020980100208912000838B505468A
:1014C000FFF7BCFF0B4B002443F8254030B903F075
:1014D0003BF9092303604FF0FF3038BD03685B69B7
:1014E0009847051E04DA03F02FF96D420560F2E714
:1014F000204638BD9C010020FFF7E0BF38B50C4600
:101500001546FFF79BFF38B903F01EF90923036066
:101510004FF0FF34204638BD03682146DB682A4679
:101520009847041EF6DA03F00FF964420460EFE70F
:1015300008B5131E06DA03F007F9162303604FF00F
:10154000FF3008BD04D0FFF7D9FF40EAE07008BDC6
:10155000184608BD38B50C461546FFF76FFF38B979
:1015600003F0F2F8092303604FF0FF34204638BD42
:10157000036821469B682A469847041EF6DA03F062
:10158000E3F864420460EFE7002A08B503DBBDE836
:101590000840FFF7DFBF03F0D7F8162303604FF0D2
:1015A000FF3008BD10B5FFF749FF044628B903F026
:1015B000CBF809230360204610BD0368DB69984718
:1015C000041EF8DA03F0C0F8644204600024F2E775
:1015D0001FB504220C4640230DEB020101900DF1D2
:1015E00009008DF8083003F095FF214602A803F0AA
:1015F00005FB044630B10198FFF7D4FF10B1204637
:10160000FFF7DDFE204604B010BDFFF7CBBF38B5B5
:101610000C461546FFF712FF38B903F095F8092379
:1016200003604FF0FF34204638BD036821461B6934
:101630002A469847041EF6DA03F086F864420460EE
:10164000EFE7FFF7E4BF38B50D46FFF7F7FE0446B6
:1016500030B903F079F8092303604FF0FF3038BD4B
:101660000368DB699847002814BF4FF400534FF418
:1016700000436B60236820469B6A984728610020DE
:1016800038BDFFF7E0BF000037B5054603F0B0FEF8
:10169000044630B9009003462A460349034802F045
:1016A0008DFE204603B030BDF8C500081F01018043
:1016B00003F0A6BE10B504460948FFF75BF9002306
:1016C000084A194652F82300A04208BF42F82310E6
:1016D0000133402BF6D10248FFF74CF910BD00BF93
:1016E000D80E00209C01002010B50F48FFF742F9EA
:1016F0000E4B032453F824206AB10134402CF9D155
:1017000003F022F8182303600748FFF733F94FF07E
:10171000FF34204610BD4FF0FF32034843F8242029
:10172000FFF728F9F5E700BFD80E00209C01002044
:1017300010B50446FFF7D8FF0028A4BF014B43F8BB
:10174000204010BD9C01002070B506460C46FFF7F6
:10175000EFFF054690B12146FFF73AFF044630B946
:10176000074B53F82520964203D143F82500204625
:1017700070BD02F0E9FF09230360F8E70446F6E7CD
:101780009C0100200EB42DE9F04185B00546FFF71D
:10179000ABFF041E13DB0023294602A8019302F0CD
:1017A000DBFC02A802F02AFD1B4D064668B902F0D8
:1017B000CBFF1323036045F824604FF0FF3420462D
:1017C00005B0BDE8F04103B0704702A802F004FD87
:1017D000074602A837B102F008FD0190019B45F8C9
:1017E0002430ECE702F0EFFC06460028DFD0036867
:1017F00002A8D3F8088002F0DBFC0B9B024601A98B
:101800003046C04706460028E8D002F09DFF7642E9
:10181000066045F82470D0E79C01002073B50E46A1
:101820001849054604F070F9044620B9FFF706FE92
:10183000204602B070BD1449284604F065F920B96D
:101840000120FFF7FBFD0124F2E71049284604F0D0
:101850005BF920B90220FFF7F1FD0224E8E72B78BD
:10186000402B07D10422691C0DEB020003F052FE4D
:10187000019CDDE726F400412846FFF783FF04467C
:10188000D6E700BFD9C60008E0C60008D1C60008E8
:1018900070477047074B08499A68084810B5043AE2
:1018A00052F8044F41F8044F8142F9D14FF00052F1
:1018B0009A6010BD00ED00E0FCFFFF1F90010020CA
:1018C00008B5FFF7E7FFFFF7A5FCFFF7E2FF08BD4C
:1018D00008B5FFF7DDFFBDE80840FEF7AFBC30B547
:1018E000C36891FAA1F4B4FA84F491FAA1F1032542
:1018F000B1FA81F1640005FA04F4490023EA040313
:1019000002FA01F11943C16030BD012A02D0022A56
:1019100018BF0022FFF7E3BF2DE9F0410E46411C3E
:10192000044604D13E224449444802F003FC04F03A
:101930000F08434BC4F3031053F82850FFF754F932
:1019400006F007070446836895FAA5F1B1FA81F11C
:1019500095FAA5F20320490000FA01F1B2FA82F2E9
:1019600023EA01035200022101FA02F21343A360A9
:1019700087425AD8DFE807F05E1D021DB8F1070F55
:10198000C6F303203BD9626A2B0A93FAA3F1B1FA9A
:1019900081F193FAA3F34FF00F0EB3FA83F38900AA
:1019A0000EFA01F19B0022EA010200FA03F313434D
:1019B00063623B46226895FAA5F0B0FA80F095FA8A
:1019C000A5F14FF0030EB1FA81F140000EFA00F0DC
:1019D000490022EA00028B40013F1343012F23609C
:1019E00005D8636832074CBF2B43AB436360C6F333
:1019F000011229462046BDE8F041FFF786BF226A62
:101A000095FAA5F3B3FA83F395FAA5F14FF00F0E0B
:101A1000B1FA81F19B000EFA03F3890022EA030276
:101A200000FA01F313432362C3E767220249054822
:101A300002F080FB0023BDE728C7000884C400082B
:101A4000E8C60008EECC0008431C70B506460D46FB
:101A500004D188221B491C4802F06CFB06F00F02DF
:101A60001A4BC6F3031053F82240FFF7BDF804FBEE
:101A700004F2016802EB42030B40B3FBF2F3013BBB
:101A8000012B05D8EB1E022B436809D82343436082
:101A9000032D08D101222146BDE87040FFF735BF74
:101AA00023EA04034360012DF4D0052D01D0022D5B
:101AB00001D10222EFE721460022BDE87040FFF786
:101AC0000EBF00BF28C7000884C40008E8C600088D
:101AD00030B507EE101A284B02681A60B5EEC07ACE
:101AE000F1EE10FA89B0054628D4F7EE007AB4EE8C
:101AF000677AF1EE10FAC8BFB0EE677AD5ED037AD7
:101B0000F8EE677A602267EE877A0192FCEEE77A58
:101B1000AA68C5ED047A17EE903AB3FBF2F302938C
:101B20000023039305930693049307932B7D013BB6
:101B3000032B16D8DFE803F01B0517199FED0F7A6A
:101B4000DCE70424224601A90B4801F069F810B132
:101B50000B4802F011FC6B7D074821464BB101F0A8
:101B60001BF909B030BD0824ECE70C24EAE7002497
:101B7000E8E701F0EDF8F4E7EC0E002000000000CB
:101B800009C80008C368ABB107EE903AD0ED046A0B
:101B9000B8EE677AF8EE666AC6EE877AB7EE007A34
:101BA000F4EE477AF1EE10FAC8BFF0EE477A17EE7E
:101BB000900A7047DFED017AF9E700BF00000000EE
:101BC0002DE9F0474A4C0268226086B000230E4699
:101BD00000930546FFF7D6FF116A41F2111319422F
:101BE000074608D1116A40F24443194202BF136804
:101BF00023F001031360694601A800F0D1FE3D48BF
:101C00002968002380465FFA83F9013350F83920B0
:101C10008A42F8D111B9384802F0AEFB08EBC90886
:101C200098F8043053BB00F09BFE00900498009994
:101C30000123AB60314B30BBB1FBF3F3013B63607D
:101C400006F1FF3C2D4B6268B1FBF3FE4FEA410801
:101C50000021B8FBF3F8C4F80CC063468A464FF67F
:101C6000FE79B3F5803F12D2B2F5803F0FD2BAF1C0
:101C7000000F00D06260F1B1E3601CE000F080FE74
:101C800000900598D3E74A00B2FBF3F3D6E7AB68C0
:101C90005B00AB6030BB0EFB03F2BCFBF3F34B45C8
:101CA00002F1FF3221D8B2F5803F1ED314486260A2
:101CB000E36002F061FB00230D482361A36000F0A4
:101CC00069FF10B10E4802F057FBEE603946284616
:101CD000FFF7FEFE2268136843F00103136006B0AD
:101CE000BDE8F08708FB03F2D7E701218A46B8E791
:101CF000EC0E002020C80008F4C7000840420F0086
:101D000009C8000870B50E46044688B054493046EC
:101D100001F0EEFD2060013004D12E2251495248DD
:101D200002F008FA4E49304601F006FE431C054613
:101D300004D132224B494D4802F0FCF9C5F304337B
:101D40004B4A23752368C5F34045934265754FF0B0
:101D500000021AD10092474A516C41F001015164CE
:101D6000526C02F001020092009A434A934229D138
:101D7000002305933F4B5A6C42F480325A645B6CEB
:101D800003F480330593059B58E0B3F1804F0BD1EA
:101D90000192384A116C41F001011164126C02F099
:101DA00001020192019AE0E734498B421AD1029272
:101DB000304A116C41F002011164126C02F002020F
:101DC0000292029A2E4A93421AD100230693294B7B
:101DD0005A6C42F400325A645B6C03F4003306938D
:101DE000069B2BE027498B421AD10392214A116CA2
:101DF00041F004011164126C02F004020392039A90
:101E0000214A93421AD1002307931A4B5A6C42F489
:101E100080225A645B6C03F480230793079B0DE0D8
:101E20001A498B42A1D1134B04921A6C42F008025A
:101E30001A641B6C03F008030493049B08493046A2
:101E400001F00CFD0023E36023610123A680A36061
:101E500044F620612046FFF7B3FE08B070BD00BF16
:101E600024C1000880C70008DCC70008DAC30008E6
:101E700000000140003802400040014000040040E2
:101E8000004401400008004000480140000C0040B0
:101E900007EE101ADFED047A67EE277AFDEEE77A97
:101EA00017EE901AFFF78CBE002474490FB407B5E3
:101EB000064B07491B6805AAD868019205F0F0FA9D
:101EC00003B05DF804EB04B0704700BFA802002027
:101ED00068C800084368094A9B0182B0D3581A6851
:101EE000120706D5002201921A6801925A680192DF
:101EF000019A1868C0F3401002B070479410002097
:101F00004368034A9B01D3581868C0F3C010704758
:101F10009410002042681449920110B4046854508F
:101F2000531882685A60C2689A600269DA6042692E
:101F30001A61026A9A610022DA84DA619A84DA8587
:101F40009A85B0F91A20013206D108225A61184642
:101F50005DF8044B01F04DB8B0F9182001320CBF08
:101F600004220C22F2E700BF9410002010B581601B
:101F70000C46FFF7CFFF28B121460348BDE81040CB
:101F8000FFF794BF10BD00BF68C80008094B984216
:101F90000BD0A3F54C43984209D003F55043984227
:101FA0000CBF02204FF0FF30704700207047012027
:101FB000704700BF00100140F0B50E4685B00446E2
:101FC00045493046154601F093FC444907462846EA
:101FD00001F08EFC0146384601F064FC20600130BF
:101FE00004D13D223E493F4802F0A4F8022E0CD015
:101FF000032D0AD03849022001F07AFC874202D131
:10200000394802F0B9F9002700E00127374B206872
:1020100098424FF0000340D10193354B5A6C42F087
:1020200010025A645B6C03F010030193019BFFF7ED
:10203000ADFF0028606004DAA42229492D4802F08F
:1020400079F82549304601F009FC2449284601F079
:1020500005FC721C03D001213046FFF7F5FC6B1C18
:1020600003D001212846FFF7EFFC4FF41653A3607D
:102070000023E36023616361236226836583204636
:10208000FFF748FF3FB11C4B1C4801221A60214654
:102090004C2203F03FFA05B0F0BD194A90420BD133
:1020A0000293134B1A6C42F400321A641B6C03F453
:1020B00000330293029BBAE7124A9042B7D10393CE
:1020C0000B4B5A6C42F020025A645B6C03F0200305
:1020D0000393039BABE700BFF8C20008B0C200083F
:1020E00092C80008EEC800080AC9000800100140A4
:1020F000003802403FC90008280F00204810002087
:102100000044004000140140002808DB420901237C
:1021100000F01F0003FA00F0014B43F82200704763
:1021200000E100E000280DDB4309012200F01F0060
:1021300002FA00F02033044A42F82300BFF34F8F25
:10214000BFF36F8F704700BF00E100E0F7B5FFF706
:102150001DFF071E26DB144E56F8270010B3134C44
:10216000BD0163591A68120606D5DB68190603D546
:102170000F4B01211B68984763591A68920608D5CE
:10218000DB68980605D50A4B56F827001B68002126
:10219000984763591A68110704D55A69D20744BF92
:1021A0005B68019303B0F0BD300F00209410002055
:1021B0002C0F00200148FFF7C9BF00BF00140140E9
:1021C0000148FFF7C3BF00BF004400400148FFF7CC
:1021D000BDBF00BF00100140034B19604168034BB5
:1021E00043F82120704700BF2C0F0020300F002043
:1021F00009C830B4204CA0420AD004F58064A04243
:102200001AD0A4F55044A04219D11C4C262001E05C
:102210001B4C25201B4D9B01BAB1EA58D36889B9E4
:1022200043F02003D360184B00F110029B6843F881
:10223000224030BCFFF768BF144C4720EAE7002477
:102240002046E7E743F08003ECE7EB58DA6849B94A
:1022500022F02002DA60DB6813F0800F09D130BC75
:10226000FFF760BF22F08002DA60DB6813F0200F16
:10227000F4E730BC704700BF00100140C1210008E6
:10228000CD2100089410002000ED00E0B5210008E9
:1022900038B5446805462846FFF71CFE0028FAD0EA
:1022A000A401034B1B595868C0F3080038BD00BF98
:1022B0009410002070B5456806460C463046FFF77E
:1022C0001FFE0028FAD0AD01024B5B59C4F308048D
:1022D0005C6070BD94100020DFF830D0002103E076
:1022E0000B4B5B58435004310A480B4B42189A423F
:1022F000F6D30A4A02E0002342F8043B084B9A4214
:10230000F9D300F0B9FEFDF765FF704700800120AA
:102310003CD3000898010020680C0020680C0020C5
:10232000A0110020FEE7704708B50B4B1A6842F475
:1023300000721A601A6842F480621A601A6842F4E5
:1023400080721A60032000F0AFF80F20FEF7E0FE65
:10235000FFF7E9FF002008BD003C02407047000085
:1023600010B50446002800F09980036C23B943643B
:1023700080F83C30FFF7F2FF236CDB0600F18C8025
:10238000236C23F4885323F0020343F002032364F5
:10239000434B5A6822F440325A605A6861680A43D3
:1023A0005A60236821695A6822F480725A605A6818
:1023B00042EA01225A605A68A16822F040725A60CB
:1023C0005A680A435A609A68E16822F400629A6087
:1023D0009A680A439A603349A26A8A4250D099683F
:1023E00021F07061996099680A439A609A68E16A7D
:1023F00022F040529A609A680A439A609A68A169EA
:1024000022F002029A609A6842EA41029A60226AC5
:10241000002A3DD05A68616A42F400625A605A68E4
:1024200022F460425A605A68013942EA41325A60E5
:10243000DA6AE16922F47002DA62DA6A013942EAA0
:102440000152DA629A68216B22F400729A609A68EB
:1024500042EA41229A609A68616922F480629A6035
:102460009A68002042EA81229A606064236C23F01B
:10247000030343F001032364002384F83C3010BDC0
:102480009A6822F070629A609A6822F04052B4E72B
:102490005A6822F40062CAE70120EDE7012010BD6E
:1024A000002301400100000F074AD36823F4E063D2
:1024B0001B041B0C43F0BF63000243F4003300F421
:1024C000E0600343D360704700ED00E02DE9F34185
:1024D000044618B9012002B0BDE8F0810368DD07A9
:1024E00010D42368980758D423681A0700F19A80FB
:1024F00023685B0700F1B880A269002A40F01981C7
:102500000020E8E7A64B9A6802F00C02042A07D0E4
:102510009A6802F00C02082A0AD15B68590207D5B2
:102520009F4B1B689A03DCD56368002BD9D1D1E798
:1025300063689B4DB3F5803F11D12B6843F4803322
:102540002B60FEF7EBFD964D06462B689B03C8D427
:10255000FEF7E4FD801B6428F7D90320BBE7B3F541
:10256000A02F04D12B6843F480232B60E5E72A6871
:1025700022F480322A602A6822F480222A60002B0A
:10258000DFD1FEF7CBFD06462B689F03A9D5FEF7EA
:10259000C5FD801B6428F7D9DFE7814B9A6812F0EC
:1025A0000C0F07D09A6802F00C02082A11D15B6860
:1025B0005E020ED47A4B1A68950702D5E268012AAA
:1025C00088D11A68216922F0F80242EAC1021A6031
:1025D0008AE7E268734BB2B101221A60FEF79EFDF2
:1025E0006F4D06462B68980707D52B68226923F0A4
:1025F000F80343EAC2032B6076E7FEF78FFD801BEA
:102600000228EFD9A9E71A60FEF788FD644D064657
:102610002B6899077FF568AFFEF780FD801B0228C5
:10262000F6D99AE76269604B7AB101221A60FEF727
:1026300075FD5B4D06466B6F9F073FF559AFFEF783
:102640006DFD801B0228F6D987E71A60FEF766FD4C
:10265000534D06466B6F98077FF54AAFFEF75EFD58
:10266000801B0228F6D978E74D4B1A6C12F0805285
:1026700028D101921A6C42F080521A641B6C03F04C
:1026800080530193019B0126484D2B68D9051BD52A
:10269000A368434D012B27D12B6F43F001032B6718
:1026A000FEF73CFD3E4D074641F288382B6F9B07F5
:1026B00039D5002E3FF420AF394A136C23F08053F4
:1026C000136419E70026DFE72B6843F480732B605F
:1026D000FEF724FD07462B68DA05D9D4FEF71EFD68
:1026E000C01B0228F7D938E7052B04D12B6F43F024
:1026F00004032B67D0E72A6F22F001022A672A6FB2
:1027000022F004022A67002BCAD1FEF707FD41F22E
:10271000883807462B6F9807CBD5FEF7FFFCC01B08
:102720004045F7D919E7FEF7F9FCC01B4045BDD974
:1027300013E71B4DAB6803F00C03082B3FF4CAAE44
:102740001B4E0023022A336034D1FEF7E7FC074614
:102750002B6899011ED4226AE3691343626A43EA33
:102760008213E26A43EA0263A26A0D4C5208013AFC
:1027700043EA02436B6001233360FEF7CFFC05465A
:1027800023689A013FF5BCAEFEF7C8FC401B022847
:10279000F6D9E2E6FEF7C2FCC01B0228D8D9DCE677
:1027A0000038024000004742800E4742007000405F
:1027B00060004742FEF7B2FC04462B689B017FF5A0
:1027C0009FAEFEF7ABFC001B0228F6D9C5E600BFA2
:1027D000134908B58B6803F00C03042B03D0082BB6
:1027E00003D0104808BD104808BD4A684B684968C6
:1027F00013F4800314BF0C480A48C1F3881118BFB2
:10280000002302F03F02A1FB000108F02BFC044B67
:102810005B68C3F3014301335B00B0FBF3F008BD19
:10282000003802400024F40000127A002DE9F04143
:102830000D46044610B90120BDE8F081444B1A68EA
:1028400002F00F028A4228D321688F072DD4C807CF
:1028500040D43F4B1A6802F00F02954266D32268BB
:1028600051076CD4130707D53A4A2169936823F4BA
:10287000604343EAC1039360FFF7AAFF354B364A32
:102880009B68C3F30313D35CD840344B18600F200C
:10289000FEF73EFC0020BDE8F081CAB21A701B684A
:1028A00003F00F039942C6D1CEE72A4B11F0040F73
:1028B0001EBF9A6842F4E0529A600E0742BF9A68BF
:1028C00042F460429A609A68A06822F0F0020243E3
:1028D0009A60BCE762681F4B012A1DD11B6813F484
:1028E000003FA8D01B4EB36823F003031343B3602B
:1028F000FEF714FC41F288380746B368626803F0BB
:102900000C03B3EB820FA4D0FEF708FCC01B4045BC
:10291000F3D90320BDE8F081911E01291B6802D87C
:1029200013F0007FDDE713F0020FDAE7EAB21A7066
:102930001B6803F00F039D427FF47DAF8FE70549CD
:10294000E0688B6823F4E05303438B608AE700BFA1
:10295000003C02400038024065C90008A002002087
:10296000044B054A9B68C3F38223D35C034A106877
:10297000D84070470038024075C90008A002002006
:10298000044B054A9B68C3F34233D35C034A106887
:10299000D84070470038024075C90008A0020020E6
:1029A0000F2303600B4B9A6802F0030242609A689F
:1029B00002F0F00282609A6802F4E052C2609B6802
:1029C000DB0803F4E0530361034B1B6803F00F03C0
:1029D0000B60704700380240003C0240036A23F05D
:1029E00001030362036A70B5446882690D6822F0CE
:1029F00073022A438D6823F002032B430A4DA84239
:102A00000BD1CD688E6923F008032B434D6924F464
:102A10004074354323F004032C43446082614A68C8
:102A20004263036270BD00BF00000140036A23F4EB
:102A300080730362036A70B54468C2690D6822F04E
:102A400073022A438D6823F4007343EA05230B4D78
:102A5000A8420DD1CD688E6923F4006343EA0523B3
:102A60004D6924F44054354323F4806344EA05144B
:102A70004460C2614A68C263036270BD00000140E5
:102A8000036A23F480530362036A30B54468C26961
:102A90000D6822F4E64242EA05228D6823F40053D1
:102AA00043EA0533064DA84202BF4D6924F4804431
:102AB00044EA85144460C2614A680264036230BD1E
:102AC0000000014070477047224A036890420ED0D0
:102AD000B0F1804F0BD0A2F57C42904207D002F5B6
:102AE0008062904203D002F58062904219D14A6818
:102AF00023F070031343174A904204D1CA6823F4A9
:102B00004073134318E0B0F1804FF7D0124A90425F
:102B1000F4D002F580629042F0D002F580629042DB
:102B2000ECD00E4A9042E9D002F580629042E5D0A6
:102B300002F580629042E1D003608B68C3620B684B
:102B40008362044B984204BF0B6903630123436112
:102B5000704700BF000001400004004000400140F9
:102B600010B50446A0B190F8393003F0FF021BB94C
:102B700080F83820FFF7A6FF022384F83930206858
:102B8000211DFFF7A1FF012384F83930002010BD7B
:102B9000012010BD10B50446A0B190F8393003F003
:102BA000FF021BB980F83820FFF78DFF022384F85D
:102BB00039302068211DFFF787FF012384F8393061
:102BC000002010BD012010BD036A23F01003036232
:102BD000036A70B5446882690D6822F4E64242EAED
:102BE00005228D6823F0200343EA05130B4DA8420C
:102BF0000DD1CD688E6923F0800343EA05134D693A
:102C000024F44064354323F0400344EA85044460DF
:102C100082614A688263036270BD00BF00000140A8
:102C200038B590F83830012B04464FF0020025D01B
:102C3000012384F8383084F839000C2A18D8DFE8EA
:102C400002F0071717171E1717172F17171740002F
:102C50002068FFF7C3FE236809699A6942F00802F9
:102C60009A619A6922F004029A619A690A439A6108
:102C70000123002084F8393084F8380038BD2068FA
:102C8000FFF7A2FF236809699A6942F400629A611A
:102C90009A6922F480629A619A6942EA0122E6E71F
:102CA0002068FFF7C3FE23680969DA6942F0080269
:102CB000DA61DA6922F00402DA61DA690A43DA6178
:102CC000D6E72068FFF7DCFE23680969DA6942F479
:102CD0000062DA61DA6922F48062DA61DA6942EA72
:102CE0000122ECE7036A10B501248C4023EA0403B7
:102CF0000362036A8A401A43026210BD10B504469B
:102D000000220068FFF7EEFF2368104A93420DD1BE
:102D1000196A41F21112114208D1196A40F2444273
:102D2000114202BF5A6C22F400425A64196A41F2FD
:102D30001112114208D1196A40F24442114202BFF5
:102D40001A6822F001021A60002010BD0000014044
:102D500010B5044601220068FFF7C4FF2368064A45
:102D6000934202BF5A6C42F400425A641A6842F01D
:102D700001021A60002010BD00000140FFF7E8BF0B
:102D8000036A10B504248C4023EA04030362036A37
:102D90008A401A43026210BD10B50446042200683E
:102DA000FFF7EEFF23685A6C42F400425A641A6837
:102DB00042F001021A60002010BD00002DE9F0472A
:102DC0000668C2683369C16923F440531343336111
:102DD000044683680069F2680343606922F416427E
:102DE000034322F00C020B431343F3607369A2699F
:102DF00023F440731343B1F5004F73617A4B7CD1D8
:102E00009E4203D003F580639E4244D1FFF7B8FD94
:102E1000192505FB00F360684FF064094000B3FB1F
:102E2000F0F3B3FBF9F34FEA0318FFF7A9FD63686A
:102E300068435B00B0FBF3F7FFF7A2FD63686843EC
:102E40005B00B0FBF3F3B3FBF9F309FB1373DB0097
:102E50003233B3FBF9F35B0003F4F877FFF790FD2F
:102E6000626868435200B0FBF2FAFFF789FD6368BD
:102E700068435B00B0FBF3F3B3FBF9F309FB13A367
:102E8000DB003233B3FBF9F303F0070343443B4465
:102E9000B360BDE8F087FFF763FD192505FB00F37C
:102EA00060684FF064094000B3FBF0F3B3FBF9F343
:102EB0004FEA0318FFF754FD636868435B00B0FBFB
:102EC000F3F7FFF74DFD636868435B00B0FBF3F376
:102ED000B3FBF9F309FB1373DB003233B3FBF9F3F4
:102EE0005B0003F4F877FFF73BFD6268684352002C
:102EF000B0FBF2FAFFF734FDB9E79E4202D03B4B3C
:102F00009E4240D1FFF73CFD676819254FF06409E8
:102F100005FB00F3BF00B3FBF7F3B3FBF9F31F01AD
:102F2000FFF72EFD636868439B00B0FBF3F8FFF7E3
:102F300027FD636868439B00B0FBF3F3B3FBF9F331
:102F400009FB13831B013233B3FBF9F303F0F008E1
:102F5000FFF716FD626868439200B0FBF2FAFFF7D4
:102F60000FFD636868439B00B0FBF3F3B3FBF9F319
:102F700009FB13A31B013233B3FBF9F303F00F0377
:102F800043EA080383E7FFF7EBFC676819254FF076
:102F9000640905FB00F3BF00B3FBF7F3B3FBF9F3E0
:102FA0001F01FFF7DDFC636868439B00B0FBF3F88B
:102FB000FFF7D6FC636868439B00B0FBF3F3B3FBF9
:102FC000F9F309FB13831B013233B3FBF9F303F06D
:102FD000F008FFF7C5FC626868439200B0FBF2FAA4
:102FE000FFF7BEFCBDE700BF001001400014014028
:102FF000704710B5044640B390F8393003F0FF0233
:103000001BB980F83820FFF7F3FF2268242384F8E7
:103010003930D36823F40053D3602046FFF7CEFE47
:1030200023681A6922F490421A615A6922F02A022E
:103030005A61DA6842F40052DA6000202023E0632B
:1030400084F8393084F83A3010BD012010BD7FB5C6
:103050000F230193022100234FF4805201A8029113
:10306000039304920593FFF7E1FBB0FA80F0400967
:1030700007B05DF804FB00000F49D1F8883043F435
:103080007003C1F888300D4B1A68002042F001022D
:103090001A6098601A6822F0847222F480321A60F2
:1030A000074A5A601A6822F480221A60D8604FF0EA
:1030B00000638B60704700BF00ED00E00038024005
:1030C0001030002400B58FB01D4B002100911A6C08
:1030D00042F080521A641B6C1A4A03F0805300932A
:1030E000009B0191136823F4404343F400431360B1
:1030F000136803F440430193019B01230293C8B971
:103100004FF480330393022308934FF48003099311
:1031100008230A934FF4A8730B9304230C9302A87B
:1031200007230D93FFF7D2F938B9FFF790FF0FB0DF
:103130005DF804FB4FF4A023E4E70020F7E700BFAD
:10314000003802400070004010B58EB000241A4BC9
:1031500000941A6C42F080521A641B6C174A03F0F8
:1031600080530093009B0194136823F4404343F47D
:10317000004313601368039403F440430193019BDD
:1031800009940323029301230593102306930A93C2
:103190004FF4A8730B93042302220C9302A8072375
:1031A00008920D93FFF792F918B9FFF750FF0EB090
:1031B00010BD2046FBE700BF003802400070004011
:1031C00008B50120FFF77EFF38B9FFF7BDFF20B932
:1031D0000248BDE8084001F0CFB808BD51C9000859
:1031E000174A1849936803F00C03042B10B50DD04F
:1031F000082B0DD0144B0B60114B144A9B68C3F382
:103200000313D25C0B68D3400B6010BD104BF2E788
:103210005468506852686302C2F3881200F03F009D
:103220004CBF0B4B084BB3FBF0F35343044A5268BB
:10323000C2F3014201325200B3FBF2F3DBE700BFFD
:1032400000380240A00200200024F40065C90008F4
:1032500000127A00074B084A13601A69910707D5D4
:10326000DA68920704D56FF002021A6100F0ECBA36
:10327000704700BF000C0040581100200048704704
:1032800080C9000830B589B001A903A8FFF788FB01
:10329000FFF766FB002302931E4B01901A6C1E4C35
:1032A00042F008021A641A6C02F008020292029AB2
:1032B0001A6A42F008021A621A6A22F008021A62B6
:1032C000069AA3F50B3323604FF0FF33E360134BF3
:1032D000F2B9B0FBF3F00138002560600E482561BB
:1032E000A5606561FFF73CFC0D4B0E4A9B680A48E0
:1032F000C3F808210C4B4FF480225A602946FFF78F
:103300003DFD2268D36823F00203D36009B030BDCD
:103310004000DEE7003802405811002040420F0014
:1033200000ED00E05532000800E100E004480268CA
:10333000D36823F00203D3600021FFF71FBD00BF55
:1033400058110020014B586A704700BF000C004024
:10335000054B1B686FF0020258631A61DA6842F08D
:103360000202DA60704700BF58110020064B1B684C
:103370006FF002021A615A6942F002025A61DA6879
:1033800042F00202DA60704758110020034B1A68BD
:10339000D36823F00203D360704700BF58110020A8
:1033A000024B1B686FF002021A617047581100202F
:1033B00008B500210348FFF7A1FCBDE80840FFF76E
:1033C000E5BF00BF5811002003689B681847000044
:1033D000094B10B5002203600023C0E9022300233B
:1033E00003614361044600F02BFA0449A06100F038
:1033F0008FFD204610BD00BF90C90008C9330008EA
:1034000007B5009000F10801806900F0C0FD03B02D
:103410005DF804FB00F10801806900F0E1BD0000E7
:1034200010B5034B03600446FFF7F4FF204610BDC0
:1034300090C9000870B5D0E90823D0E902450646D6
:1034400012196B41FFF7DCFF736B2BB106F12800FB
:103450001B68BDE87040184770BDD0B504461646DD
:103460001F4600F02FFE2046FFF7D4FFC4E908678F
:10347000A06900F0D0FD321847EB01032046FFF7AA
:10348000BFFFBDE8D04000F033BE7FB5044600F07A
:1034900019FE2046FFF7BEFF636B13B194F8383076
:1034A000E3B904F128066D4610220021684602F0B7
:1034B00033F9AE420BD03046FDF706F93EB1039B1F
:1034C0001BB15B68694630469847039B6363284697
:1034D000FDF7FAF800F00CFE04B070BD00F090F9B2
:1034E000DFE7000038B50546064B45F8283B0446A3
:1034F000FFF7CBFF2846FDF7E7F82046FFF790FFE0
:10350000204638BDA4C9000810B50446FFF7EAFFFD
:103510002046FEF7CDF8204610BD70B50E46044695
:103520001546FDF7E7FB013609D020460021FDF7DF
:1035300005FC29462046BDE87040FDF7FBBB70BD89
:1035400038B504460D4603685AB1826813602046B8
:103550000121FDF7F3FB29462046BDE83840FDF781
:10356000E9BBC2681B04F1E70022FFF7D6BF70B5C4
:103570000E4604461546FDF7BDFB013606D02A4629
:1035800020460021BDE87040FFF7DABF70BD002281
:10359000FFF7EDBF0346024A2030FDF7BBBC00BF7A
:1035A000E1360008F8B50546134B45F8043B0446E0
:1035B0000F4610261C220021284602F0ADF83246A4
:1035C000002104F1200002F0A7F83246002104F1A6
:1035D000300002F0A1F83246002104F1400002F070
:1035E0009BF839462046FFF7D5FF28463946FFF7B6
:1035F000BBFF2046F8BD00BFD4C9000883681A6825
:1036000043681A4214BF01200020704710B5084BD0
:10361000044640F8203BFDF751FD04F14000FDF762
:1036200053F804F13000FDF74FF8204610BD00BFFD
:10363000D4C9000810B50446FFF7E8FF2046FEF79E
:1036400037F8204610BD884238B504460D460AD0EA
:10365000FDF73AF83CB1EB681BB15B6829462046A0
:103660009847EB68E360204638BDF0B50F4685B05B
:10367000044600F027FDFD6804F13006203465B1F2
:1036800039463046FFF7DFFF012201212046FDF7D2
:10369000C9FB00F02DFD05B0F0BD1022294668469B
:1036A00002F03AF869463046FFF7CDFF6846FDF76D
:1036B0000BF82A46E9E70000C36810B504462BB9A9
:1036C00040F239220449054800F034FDE368204601
:1036D0001B68BDE810401847B0C90008C6C90008FB
:1036E000012908B502D0022906D008BDC36B13B169
:1036F0003030FFF7E1FF08BDC36C002BFBD040303A
:10370000F7E77047A0F1BC00FFF7FBBFA0F1BC00DA
:10371000FFF7F7BF00F05EB9A0F1BC00FFF7FABFFA
:1037200000F05BB9A0F1BC00FFF7FABF0A4B10B57F
:1037300003F10802026003F1280288330446C0F84E
:10374000BC20C0F8C030BC3000F088FF204600F03C
:1037500007FA204610BD00BFDCC90008A0F1BC007C
:10376000E4E7A0F1C000E1E710B50446FFF7DEFF93
:103770002046FDF79DFF204610BDA0F1BC00F3E7F9
:10378000A0F1C000F0E7000010B5044600F034F9E5
:10379000002104F1BC0000F035FF064B03F10802E4
:1037A000226003F128028833C4F8BC20C4F8C0307A
:1037B000204610BDDCC9000813B50E4C00F082FC99
:1037C00022884FF6FF739A420AD100F091FC002341
:1037D000228800930849094800F0F0FD02B010BDAE
:1037E0000121204600F092FC02B0BDE8104000F03C
:1037F0007FBC00BF440F00206CCA00082301048076
:1038000037B50C4C00F05EFC258855B900F070FC13
:10381000228800952B460849084800F0CFFD03B0E8
:1038200030BD0121204600F07BFC03B0BDE83040F4
:1038300000F05EBC440F002091CA000824010480FF
:1038400000487047B0CA0008024B1B680BB1024821
:1038500018477047A4020020B0CA000813B50446F8
:1038600001300FD102B010BD9C420AD120468968B8
:10387000FEF752F80021204602B0BDE81040FEF7E6
:10388000E3B80C31B1F900305A1CEDD1002300939C
:1038900022460249024800F091FDE3E727CB0008E9
:1038A00030010180884207B502460BD0431C09D085
:1038B00001310BD0002306490093064800F07EFD3D
:1038C0004FF0FF31084603B05DF804FB0146F9E70D
:1038D000F6CA000830010180B1F900305A1C01D14C
:1038E00018467047834201D1486870470C31F3E7AE
:1038F000421C13B504460BD0FFF7EEFF431C0446F1
:1039000006D10023024600930349044800F056FD07
:10391000204602B010BD00BF07CB00083001018077
:10392000B1F900305A1C01D118467047834201D1C9
:10393000886870470C31F3E7421C13B504460BD07E
:10394000FFF7EEFF431C044606D100230246009316
:103950000349044800F032FD204602B010BD00BF0C
:10396000D8CA0008300101807047704710B480B198
:10397000146853680CB9DA070BD513F0010F4FEA3E
:1039800063031CBFC2581459184423465DF8044B06
:1039900018475DF8044B7047090170B501F19805AF
:1039A0000544EB6883B14418D4F8A4302BB940F235
:1039B00039220649064800F0BDFBD4F8A430284659
:1039C0001B68BDE87040184770BD00BFB0C9000853
:1039D000C6C900084C30FEF75BBC10B54C300C4635
:1039E000FEF768FC204610BDC36810B504460BB155
:1039F0009B689847204610BD2DE9F04F87B0002501
:103A00009246009502460195044689469B469DE8EC
:103A10000300324B42F8083B314B82E8030023613C
:103A200048F2070363612F4BE561A4612262636280
:103A3000BFF36F8FBFF34F8F102284F8285084F8A4
:103A4000295004F12C0001F067FE04F14C062946D0
:103A5000102204F13C0001F05FFE04F198082946B1
:103A60004C22304601F058FE04F1A80729461022E6
:103A7000404601F051FE29461022384601F04CFE26
:103A800010222946C4F8B8B002A801F045FE02A9E8
:103A90004046FFF7D8FD02A8FCF716FE1022294683
:103AA00002A801F039FE02A93846FFF7CCFD02A8B2
:103AB000FCF70AFE524649463046FEF77DFAD4F836
:103AC000B8103046FEF752FA304622460649FEF755
:103AD00083FB204607B0BDE8F08F00BF40CB000855
:103AE00001A090E86D390008993900082DE9FF41DF
:103AF0000646884656F84C3B17461B6805463C016F
:103B0000984700F0DFFAD8F80C3098342C44ABB169
:103B1000E3680BB9FFF750FE41462046FFF793FDDF
:103B2000012239463046FEF763FB00F0E1FA2B68CC
:103B300028465B68984704B0BDE8F081E3680BB1A4
:103B4000FFF75EFE10220021684601F0E5FD6946A0
:103B50002046FFF778FD6846FCF7B6FD0022E0E757
:103B60007FB51A4B0360044610220021684601F01D
:103B7000D3FD002269462046FFF7B8FF6846FCF7F0
:103B8000A3FD10220021684601F0C6FD012269460E
:103B90002046FFF7ABFF6846FCF796FD14F1980648
:103BA00008D004F1B805B54204D0103D2846FCF712
:103BB0008BFDF8E704F13C00FFF716FF04F12C0041
:103BC000FFF712FF204604B070BD00BF40CB0008D5
:103BD00010B50446FFF7C4FF2046FDF769FD2046F7
:103BE00010BD00002DE9F74FD0F804A09AF83A3044
:103BF0000446002B46D103685B68984763681B6ADC
:103C000098423FD0DAF82030DAF80840CAF82000AD
:103C1000A0EB0308DAF80C30314808EA03088442C4
:103C200046464FF0000727D0DAE90A239AF83BB05E
:103C3000A8FB0089CDE900230025BBF1000F2BD0A4
:103C40005A464046494606F0F1FCDDE9002312EBF6
:103C5000080243EB090390465A46994606460F462A
:103C600006F0F0FCB8EB000069EB0101A94208BFC7
:103C7000A0420AD2CAE90A01DAE90C23B6185F4168
:103C8000CAE90C6703B0BDE8F08F013647F10007C1
:103C9000001B61EB0501EDE722462B4640464946F5
:103CA00007F0E0F9224606460F46404649462B46B5
:103CB00007F0D8F9DDE9008918EB020849EB0309A0
:103CC000A94508BFA04502D2CAE90A89D4E701364E
:103CD00047F10007B8EB040869EB0509F4E700BFFA
:103CE00040420F00824206D98A420BD9884294BFD3
:103CF000002001207047884206D98A428CBF0020EC
:103D00000120704701207047002070472DE9F14FD6
:103D1000476897F83A300646002B44D197F8393077
:103D2000002B40D1FFF75EFF75686B68002B59D000
:103D3000D5E90C89D3E90001894508BF804505D341
:103D400033685B6901B0BDE8F04F1847D5E9062339
:103D5000B0EB080861EB09094B4508BF42452C69E7
:103D600006D3AB68254A934220D1444528BF444638
:103D70002B6A1C44EB681C403B6AA34205D140F20D
:103D800007121F491F4800F0D5F9336820461B6908
:103D9000984733685B68984722460146386AFFF7C0
:103DA000A1FF0028CCD101B0BDE8F08F95F83B20F1
:103DB000DFF854A04FF0000B7AB14046494606F0B8
:103DC00041FC10EB0A0041EB0B010C4A002307F009
:103DD00049F9844228BF0446CAE7A3FB080103FB54
:103DE0000911EEE73B69386AFA68184433681B69C1
:103DF000104001B0BDE8F04F184700BF40420F002F
:103E000050CB0008A2CB00083F420F002DE9F04F35
:103E1000436893F8382085B00546002A6FD193F89F
:103E20003A30002B6BD103681B6898472B68DB691D
:103E30009847066804462EB92C2232493248334E40
:103E400000F078F91F23012202FA03F1B1425FFA70
:103E500083FB02D0013BF7D19B46D4F804A0AAF122
:103E600004031C2B06D93A222649274800F062F9A0
:103E70004FF0200AAAF10403072716F1FF3007FAD2
:103E800003F7224C4FF0000343F1FF313246C4FBED
:103E9000070107F0E7F86C682A6800232360636075
:103EA00052680393CDE90001904720626C684FF09F
:103EB00000084FF000095246C4E90A89A66084F858
:103EC0003BB00120002106F0BDFBDDE90023C4E981
:103ED0000623039B84F8393084F83A3001380123F3
:103EE000E06027612846C4E90C8984F83830FFF780
:103EF00079FE284605B0BDE8F04FFFF707BF05B0D3
:103F0000BDE8F08F50CB0008EECC000840420F0017
:103F100038B505460C46FFF779FF00F0D3F86B681B
:103F20001C60BDE8384000F0E3B870B5044600F00E
:103F3000C9F82368DB689847636893F83A201AB198
:103F4000BDE8704000F0D4B8012283F839206368DE
:103F50005B68A3B12046FFF745FE65686E68D5E94A
:103F60000C01D6E90023994208BF904207D3F368B9
:103F70006B602B68002BEAD0B0689847E7E763686E
:103F8000002283F839202046FFF7C0FED8E72DE94C
:103F9000F04180460C4616461F46069D00F092F8FA
:103FA0004046FFF71FFED8F80420A560C4E900676B
:103FB000536800254BB9E36085B954604046FFF76C
:103FC000A5FEBDE8F04100F093B8D3E900018F42AF
:103FD00008BF8642EFD31D46DB68EBE7EC60F0E7F5
:103FE00038B505460C4600F06DF86A685368A34280
:103FF00009D1DB6853602846FFF788FEBDE83840EA
:1040000000F076B81346002BF8D0DA689442F9D164
:10401000E268DA60F2E710B50446FFF7F7FE00F059
:1040200051F82046FFF7DEFD00F062F86368D3E93F
:104030000C0110BD08B5FFF7EEFF08BD10B5034B2E
:1040400003600446FFF74EFA204610BDD0CB0008AF
:1040500010B50446FFF7F2FF2046FDF729FB204686
:1040600010BD00001FB5436B044600F1280113B1D9
:104070005B6868469847636B03932046FFF705FA31
:10408000039B2BB940F239220649074800F052F849
:10409000039B68461B6898476846FCF715FB04B00D
:1040A00010BD00BFB0C90008C6C90008EFF31080FA
:1040B000C04300F001007047EFF30580003018BFE7
:1040C0000120704710B5074C2368013304D15122F9
:1040D0000549064800F02EF800F0F0FA2368013395
:1040E000236010BD880F0020DCCB000831CC000815
:1040F000054B1A6832B11A68013A1A601B680BB98D
:1041000000F0EEBA704700BF880F0020D0E85F3F94
:104110000B449BB2C0E8523F002AF7D118467047C3
:10412000D0E85F3F5B1A9BB2C0E8523F002AF7D14C
:104130001846704770B504460D461646FFF7C2FF95
:1041400033462A4621460348FDF756F8BDE870403D
:10415000FCF7FCBF62CC000870B50E460025044693
:10416000056045600F49304601F0B8FE0644266000
:1041700023681A782F2A0ED10133236025B929220A
:1041800009490A48FFF7D6FF2946304600F0ACF946
:104190006060204670BD002AF0D0013301352360F5
:1041A000E6E700BF93CC000895CC0008E7CC0008F8
:1041B00000687047406808B520B100F03CF9431E24
:1041C0005842584108BD10B50446FFF7F3FF10B13F
:1041D000606800B1043810BD406808B520B100F037
:1041E0002AF9B0FA80F0400908BD10B50446FFF77F
:1041F000F3FF10B1606800B1043810BD40680030B2
:1042000018BF0120704700002DE9F0411B4C1C4EE7
:10421000237836EA200628BF0646012B8EB00F46CB
:10422000904600D1FEE7174DFFF74CFF01232370A6
:10423000FFF75EFF2B6834220133002101A82B60B9
:1042400001F06AFA2B680196012BCDF808800397DC
:1042500004D1342201A90C4801F05CF9342201A9EF
:104260000A4801F057F90A4B1B680BB107489847F9
:10427000002020700EB0BDE8F08100BF940F002038
:104280000101FF808C0F0020980F0020CC0F002030
:10429000900F002073B5294C2168C1F34173032BA3
:1042A0000CBF4D428DB2C1F307432A46064624484F
:1042B000FCF7A2FF6FF498731D44072D09D8DFE8BF
:1042C00005F004272A2D30363339A1681D48FCF744
:1042D00093FF3046FCF790FF61681B48FCF78CFFAA
:1042E000A1681A48FCF788FFE3690193A36900936A
:1042F00004F10C010EC91648FCF77EFF2168154831
:10430000FCF77AFF144802B0BDE87040FCF774BFB8
:10431000A1681248DBE7A1681148D8E7A1681148F5
:10432000D5E7A1681048D2E7A1681048CFE7A16897
:104330000F48CCE7A1680F48C9E700BFCC0F0020A9
:1043400005CD000856CD0008E3CD0008F3CD0008E8
:1043500006CE000855CE0008A1CE00086BCD00089F
:104360007ACD000888CD00089ACD0008ADCD0008B0
:10437000C0CD0008CECD00080FB437B50C4D29785C
:10438000724679B90B48FFF73FFF0B48FFF782FFF2
:10439000012407A906982C700191FCF703FF204621
:1043A000FDF708F803B0BDE8304004B0704700BF27
:1043B000940F00200001FF80F0CC000810B50C46DF
:1043C00011467246FFF720FF68B92046FFF762FFEB
:1043D000FFF772FE10B9FFF769FE08B930BFFDE7BD
:1043E0000120FCF7E7FF014810BD00BF0F01FF806F
:1043F00070B50446FFF724FA0646FFF71BFE054694
:104400003046FFF717FE401BA042F9D370BD0000F5
:1044100007EE100ADFED047A67EE277AFDEEE77A01
:1044200017EE900AFFF7E4BF002474494FF47A7343
:104430005843FFF7DDBF007B7047000038B50446E6
:104440000A4B0360002343600D46A16002730848D5
:10445000FCF790FA45B1074B1A6862601C6004488B
:10446000FCF788FA204638BD6560F8E7CCCE000836
:10447000041000200010002010B5124B0360044609
:104480001148FCF777FAA3682BB1104A13689C42D5
:1044900012D1636813600E4B0B481A68944204BF34
:1044A00000221A60FCF766FA237B13B9201FFDF780
:1044B00001F9204610BD13465A689442FBD1626848
:1044C0005A60E8E7CCCE000804100020001000205D
:1044D0000C10002010B50446FFF7CEFF2046FDF774
:1044E000E7F8204610BD000070B5064614480D469A
:1044F000FCF740FA134B1C687CB1A068E8B101F0EE
:104500007FFCA84219D12A463146A06800F0D0FFAE
:1045100098B90B48FCF72EFA0DE0072DF9D12A4681
:104520003146094800F0C4FF0028F2D10448FCF7E6
:1045300021FA064B1C68204670BD6468DCE700BFAA
:104540000410002000100020BBCE00080C1000203A
:104550000020704770477047F8B503681B6D0E4622
:1045600004468F1898473546BD4207D0236815F892
:10457000011B9B6C204698470130F5D123682046EB
:104580005B6D9847A81BF8BDF8B503681B6D0E4618
:1045900004468F1898473546BD4208D02368204608
:1045A000DB6C9847431C02D005F8010BF4E7236845
:1045B00020465B6D9847A81BF8BD002070477047E8
:1045C000002070470020704710B5054B0360503342
:1045D000044640F8043FFFF74FFF204610BD00BFE0
:1045E000DCCE0008A0F10400EEE700BF10B50446E1
:1045F000FFF7EAFF2046FDF75BF8204610BDA0F16B
:104600000400F3E7104B13B50022044640F8043BC6
:10461000FFF714FF0D4B2360603363600023636179
:104620000B492046FDF790F80346606120B1FCF786
:10463000C6FE204602B010BD00900246054906485D
:10464000FFF7BCFEF5E700BF3CD0000854CF0008E0
:1046500034CF000837CF00081901018010B5074B8F
:1046600003F108026833044602604360406900F0C9
:10467000B5F82046FFF7A8FF204610BD4CCF000834
:104680000EB477B5036807AD044655F8046B1B6D8F
:1046900098476069019500F069F9019A60693146AF
:1046A00002F0FEFE236805465B6D204698472846CB
:1046B00003B0BDE8704003B070470000EFF3108313
:1046C000DB4372B6044A117829B9044903F00103A7
:1046D0000B70012313707047111000201010002080
:1046E00008B5EFF31083DB0704D4352205490648EB
:1046F000FFF720FD054B00221A70054B1B7803B114
:1047000062B608BDBCCF000818D000081110002008
:1047100010100020036870B51B69012200210446B7
:104720009847051E0DDB236802221B6900212046E5
:1047300098472368064629461B6900222046984769
:104740003546284670BD0000014B1868704700BF11
:10475000A802002070B539B105460C4608B1836B3C
:1047600083B3B4F90C3013B90026304670BD21462E
:10477000284600F03BF8E36A064633B1E169284673
:1047800098470028B8BF4FF0FF36A3891B0620D4F6
:10479000216B41B104F14003994202D0284606F052
:1047A000F9FD00232363616C21B1284606F0F2FD78
:1047B0000023636400F0BEF90023A38100F0BCF97C
:1047C000304670BD00F0B0F9B4F90C30002BCBD0FE
:1047D000CDE72169284606F0DDFDD9E7024B014609
:1047E0001868FFF7B7BF00BFA8020020B1F90C306E
:1047F0009AB22DE9F0410C461107804648D4626810
:1048000043F40063002AA3815DDDA56A002D57D023
:1048100000229BB2D8F80060E169C8F8002013F4C8
:10482000805254D101234046A847431C024665D01C
:10483000A389A56AE1695F0705D56068236B121A31
:104840000BB1E36BD21A00234046A847451C48D160
:10485000D8F80020B4F90C30002A5CD01D2A01D011
:10486000162A64D122690021C4E9002123F40063DF
:10487000A381216BC8F8006011B304F14003994291
:1048800002D0404606F086FD00202063BDE8F0819E
:104890002669AEB12568266091070CBF63690023C5
:1048A000AD1BA3600AE02B463246676AE1694046C9
:1048B000B8470028A5EB000506440ADD002DF2DC10
:1048C0000020BDE8F081E26B002A9EDCF8E7226D53
:1048D000B1E7A38943F04003A3814FF0FF30BDE867
:1048E000F081B4F90C302269226023F400630022C5
:1048F0006260DA04A381BCD52065BAE7D8F800303D
:10490000002B95D01D2B0FD0162B0DD0A38943F073
:104910004003A381D5E723F400632169A381DB046D
:10492000C4E90012A5D5E7E7C8F80060C8E743F07E
:104930004003A381C5E700BF10B5044682B008B1AB
:10494000836B23B1B1F90C0048B902B010BD0191DD
:1049500000F0EAF80199B1F90C000028F5D02046E2
:1049600002B0BDE81040FFF741BF00BF20B1054BCA
:1049700001461868FFF7E0BF034B0449186800F0D0
:1049800071BC00BFA802002084D00008394900088B
:10499000014900F067BC00BF554700082DE9F84FFA
:1049A00045682C4BC3630024074600F53B72042383
:1049B0000321C0E9B912C0F8E0422146EB6005F1DD
:1049C0005C006C66C5E90044AC60C5E90444AC61B8
:1049D000082200F0A1FEDFF888B0BE68DFF884A0EE
:1049E000DFF88490DFF884801B4BC5F82C80C5E984
:1049F000075BC5E909A92146F360082206F15C00BE
:104A00007466C6E90044B460C6E90444B46100F0C9
:104A100083FEFD68114BC6F82C80C6E9076BC6E91A
:104A200009A92146EB606C66C5E90044AC60C5E9A4
:104A30000444AC6105F15C00082200F06DFE012326
:104A4000C5E9075BC5E909A9C5F82C80BB63BDE8CA
:104A5000F88F00BF91490008090001001200020010
:104A6000755A0008995A0008D95A0008F95A0008DE
:104A700070B54A1E682505FB02F50E4605F1740166
:104A800006F084FC044640B100210C30666005F15C
:104A900068022160A06000F03FFE204670BD00BFAC
:104AA0001F4B70B51D68AB6B06464BB305F53875EB
:104AB000D5E90134013B05D51EE0013B5A1C04F148
:104AC000680419D0B4F90C20002AF6D10025154B42
:104AD0006566C4E90055A560C4E90455A561294689
:104AE000E360082204F15C0000F016FEC4E90C55F6
:104AF000C4E91155204670BD286828B10546D7E79E
:104B00002846FFF74BFFD1E704213046FFF7B0FFFF
:104B100028600028F2D10C2304463360EAE700BF86
:104B200084D000080100FFFF836B03B17047FFF7DB
:104B300035BF00BF704700BF704700BF38B50A4C93
:104B40000A4D641BA4100AD004F18043013B05EB1D
:104B50008305013C55F804399847002CF9D1BDE88C
:104B6000384007F017BA00BF640C0020600C00202A
:104B7000F0B5134683B00F4601AA1946064603F066
:104B8000B5FDF0B105463046FFF78AFF0446C0B1D7
:104B900039464FF4DB73019A304600F00DFE0028D1
:104BA0001CDB124B1249134AE081C4E90743124B44
:104BB000E362EB05A581C4E9091206D4204603B0DF
:104BC000F0BD0024204603B0F0BD30460223002291
:104BD000214600F01BF8204603B0F0BD0025FFF78A
:104BE000A9FFA581FFF7A8FF2C46E7E7755A000843
:104BF000995A0008D95A0008F95A0008024B0A4687
:104C000001461868FFF7B4BFA802002000F000B802
:104C10002DE9F04F0C4697B091461D46064608B167
:104C2000836BB3B1A38903F48473B3F5847F18D085
:104C3000A76A002F00F05081012D56D0022D15D00B
:104C4000A5B1162333604FF0FF38404617B0BDE8DA
:104C5000F08FFFF769FFA38903F48473B3F5847FB2
:104C6000E6D121463046FFF767FEE1E722694FF0C3
:104C7000000AD046002A5CD0B4F90C3040F61A0184
:104C80009AB20A4207D1510571D4964A974255D03B
:104C900043F40063A38121463046FFF74DFE804672
:104CA0000028D0D12B464A46E1693046B84701304A
:104CB000C9D0216B41B104F14003994202D0304682
:104CC00006F068FB00232363A3892269226023F492
:104CD00002630021A381616004F15C00082200F0FE
:104CE0001BFD404617B0BDE8F08F21463046FFF768
:104CF00023FEA38913F4805240F09C802B46E16987
:104D00003046B847B0F1FF3F80469CD0A389226966
:104D10005D0740F195806368216BA8EB030811B132
:104D2000E06BA8EB0008C1444FF0010A0025002AFF
:104D3000A2D12146304600F011FB9DE7B4F90E10D8
:104D40000029A5DB6A46304600F0CEF8002840F086
:104D5000A980019AB4F90C3002F47042B2F5004F08
:104D600096D143F480634FF48062A381E264002D06
:104D700070D1CB46BAF1000F7BD1A389DA0440F1A0
:104D80008880206D6368216BA0EB03081A46002918
:104D900075D0E06BA8EB0008A26BD4F810C0984463
:104DA000A2EB0C02A8EB02080244C34503DB08EBAC
:104DB00002035B4579D8E36CE1695B4203EA0B08C7
:104DC000424600233046B84701303FF464AF2369C0
:104DD000216B23600023636041B104F140039942D9
:104DE00002D0304606F0D6FA00232363A389BBEB3A
:104DF000080B23F02003A38110D02146304600F099
:104E0000FBFC00287FF447AF63685B45FFF443AFCA
:104E10002268A3EB0B035A44C4E9002304F15C00AD
:104E20000822002100F078FC4FF00008404617B03F
:104E3000BDE8F08F5D07D4F8508022693FF56BAF75
:104E400018077FF570AF2368002B3FF46CAF9B1AF7
:104E5000984468E76A46B4F90E10304600F044F80A
:104E600000287FF418AF049B09EB030BBAF1000F85
:104E700083D0216B11B16368E06B8DE762682068B5
:104E8000D4F810C0A0EB0C00A8EB000802440021ED
:104E90008BE701235246E1693046B847431C7FF453
:104EA00071AFF8E6B4F90C30F2E6ABEB08080CEBA6
:104EB0000803A2EB0802C4E9003241B104F1400347
:104EC000994202D0304606F065FA00232363A38995
:104ED00023F02003A381A1E71D2333604FF0FF38A7
:104EE000B3E600BFD95A000838B50B46074C054653
:104EF0001146184600232360FCF7C3FB431C00D077
:104F000038BD2368002BFBD02B6038BD9C110020DE
:104F10009368002B00F002812DE9F04FB1F90C30BD
:104F20009BB20C46190783B08246904635D522695C
:104F30009AB313F00202D8F800603DD00027D4F8ED
:104F400024B0D4F81CC0DFF8CC923D464D452B462A
:104F50003A4628BF4B4661465046D5B1D84700284F
:104F600040F3D280D8F808301B1A07442D1AC8F82D
:104F70000830002B00F0B780D4F81CC0D4F824B05F
:104F80004D452B463A4628BF4B4661465046002DBC
:104F9000E4D1D6E900750836D8E72146504602F03C
:104FA00073FB002840F03081B4F90C30D8F8006071
:104FB0009BB213F00202C1D113F0010940F0B0809E
:104FC000A76820684D46002D54D09A0540F1BC805A
:104FD000AF42BB4600F2E78013F4906F2FD0D4E9C4
:104FE000041707EB4707A0EB010B07EBD777681C0B
:104FF0007F105844B8423A4684BF07463A465B059C
:1050000040F1E9801146504606F0C0F9002800F052
:10501000F5805A462169019000F07CFAA289019B33
:1050200022F4906242F08002A281A7EB0B0203EB14
:105030000B00676123612060A2602F46AB465A4691
:10504000494600F001FBA2682368D21B5B442F464F
:10505000A26023600025D8F80830DB1BB944C8F8EB
:105060000830002B3FD0B4F90C30A76820689BB201
:10507000002DAAD1D6E900950836A4E70BF1080364
:1050800053E902679B460833002FF9D03A460A21BC
:10509000304600F0BDF9002853D00130A0EB0609DE
:1050A0004B46D4E904122068BB4228BF3B468842E5
:1050B00003D9A5681544AB4219DC9A427DDC13463E
:1050C000656AE16932465046A847051E1CDDB9EB0A
:1050D00005096BD00120D8F808305B1B2E447F1BDC
:1050E000C8F8083013BB002003B0BDE8F08F31468C
:1050F0002A4600F0A9FA23682B4423602146504633
:10510000FFF71AFC0028E2D0B4F90C3043F040035A
:105110004FF0FF30A38103B0BDE8F08F002070474F
:1051200033469146104617464E469B46002FA5D063
:105130000028B5D13A460A21304600F069F9002826
:10514000ABD17B1C9946ACE72369834215D36169D7
:10515000A94212D82E4B676A9D4294BF2B466FF02E
:1051600000434A4693FBF1F3504601FB03F3E16928
:10517000B847071EC8DDED1B6DE7AF4228BF2F46BD
:105180003A46494600F060FAA3682268DB1B3A44BD
:10519000A3602260002BEED121465046FFF7CCFBE6
:1051A0000028E8D0B0E72F46AB4648E721465046F6
:1051B000FFF7C2FB00288ED0A6E71A4631460193BE
:1051C00000F042FA019BA1682268C91A1A44A16042
:1051D00022601D467BE7504606F0DAF803460028B9
:1051E0007FF423AF2169504606F0D4F8B4F90C30AF
:1051F0000C2223F08003CAF8002087E70C23CAF8AA
:105200000030B4F90C3081E74FF0FF306CE700BF9D
:10521000FEFFFF7F00FCFF7F2DE9F04110F538779E
:105220001BD088460026D7E90154013D0FD4A3893D
:10523000012B05F1FF3506D9B4F90E3001332046B4
:1052400001D0C04706436B1C04F16804EFD13F68EE
:10525000002FE8D13046BDE8F0813E463046BDE83B
:10526000F08100BF2DE9F84310F538771FD088464C
:1052700006464FF00009D7E90154013D11D4A38936
:10528000012B05F1FF3508D9B4F90E300133214661
:10529000304602D0C04749EA00096B1C04F168049B
:1052A000EDD13F68002FE6D14846BDE8F883B94606
:1052B0004846BDE8F88300BF70B50D4E0D4D761B16
:1052C000B61006D00024013455F8043B9847A64296
:1052D000F9D1094E094D761B06F056FEB61006D0E0
:1052E0000024013455F8043B9847A642F9D170BD1B
:1052F000580C0020580C00205C0C0020580C00209A
:1053000070B50C46B1F90E10002996B015461E4630
:1053100014DB6A46FFF7E8FD00280FDB019A02F470
:105320007042A2F50052B2FA82F252094FF4806341
:105330004FF4006032602B6016B070BDA28900236C
:1053400012F08000336004D0402218462A6016B064
:1053500070BD4FF480632B6016B070BD8A899207D0
:105360000B4606D501F1430201211A60C3E904216D
:10537000704770B582B001AB6A460C460646FFF72F
:10538000BFFF00990546304606F000F8B4F90C302E
:1053900070B11649F163019A0099206043F08003CF
:1053A000A381C4E904018AB92B43A38102B070BD73
:1053B0009A05FBD423F0030304F1430243F00203F4
:1053C0000121A3812260C4E90421EFE73046B4F94A
:1053D0000E1003F0C5F910B9B4F90C30E4E7A38955
:1053E00023F0030343F001031BB2DDE791490008FA
:1053F000024B0146186805F0C9BF00BFA802002093
:10540000024B0146186805F0C5BF00BFA802002086
:1054100001F0FF01102A2BDB10F0070F08D010F865
:10542000013B013A8B422DD010F0070F42B3F6D169
:10543000F0B441EA012141EA014122F007047FF082
:1054400000070023F0E80256083C85EA010586EAD9
:10545000010685FA47F5A3FA87F586FA47F6A5FA15
:1054600087F68EB9EED1F0BC01F0FF0102F0070221
:1054700032B110F8013B013A83EA010313B1F8D1CC
:105480000020704701387047002D06BF35460338AD
:10549000073815F0010F07D1013015F4807F02BFE6
:1054A000013015F4C03F0130F0BC0138704700BF37
:1054B000032A70B414D940EA0105AD0704460B462F
:1054C00022D11D682668AE421946204603F1040326
:1054D00004F1040418D1043A032A20461946F0D8EE
:1054E000541E72B103780A78934208BF241806D07C
:1054F0000CE010F8013F11F8012F934206D1A042B1
:10550000F7D1002070BC7047541EEBE7981A70BCAE
:10551000704700BF844641EA000313F003036DD1D6
:10552000403A41D351F8043B40F8043B51F8043B66
:1055300040F8043B51F8043B40F8043B51F8043B6D
:1055400040F8043B51F8043B40F8043B51F8043B5D
:1055500040F8043B51F8043B40F8043B51F8043B4D
:1055600040F8043B51F8043B40F8043B51F8043B3D
:1055700040F8043B51F8043B40F8043B51F8043B2D
:1055800040F8043B51F8043B40F8043B51F8043B1D
:1055900040F8043B51F8043B40F8043B51F8043B0D
:1055A00040F8043B403ABDD2303211D351F8043BAD
:1055B00040F8043B51F8043B40F8043B51F8043BED
:1055C00040F8043B51F8043B40F8043B103AEDD25C
:1055D0000C3205D351F8043B40F8043B043AF9D2AD
:1055E000043208D0D2071CBF11F8013B00F8013B80
:1055F00001D30B8803806046704700BF082A13D38D
:105600008B078DD010F003038AD0C3F10403D21AA4
:10561000DB071CBF11F8013B00F8013B80D331F8D8
:10562000023B20F8023B7BE7043AD9D3013A11F858
:10563000013B00F8013BF9D20B7803704B784370C3
:105640008B788370604670478842F0B40DD98B1810
:1056500083420AD9841832B1224613F8014D02F868
:10566000014D9942F9D1F0BC70470F2A0ED803467C
:10567000541E002AF7D001340C44013B11F8012BD1
:1056800003F8012FA142F9D1F0BC704740EA0103B1
:105690009B073BD1A2F110073F0901F1200606EB61
:1056A000071601F1100300F1100453F8105C44F8E0
:1056B000105C53F80C5C44F80C5C53F8085C44F83C
:1056C000085C53F8045C44F8045C1033B34204F102
:1056D0001004EAD17B1C1B0112F00C0F194402F0DC
:1056E0000F05034415D0043DAD0803EB850C1C1FCA
:1056F0000E4656F8047B44F8047F6445F9D1013521
:10570000AD002B44294402F00302B1E7541E0346C6
:10571000B1E72A46ACE700BFF0B4860746D0541E76
:10572000002A3CD0CAB2034602E014F1FF3436D35B
:1057300003F8012B9D07F8D1032C29D9CDB245EAF6
:1057400005250F2C45EA054533D9A4F11006360985
:1057500003F1200707EB061703F1100242E9045595
:1057600042E902551032BA42F8D1721C14F00C0F03
:1057700003EB021204F00F0613D0331F23F00303D0
:105780000433134442F8045B9342FBD106F0030454
:105790002CB1C9B21C4403F8011B9C42FBD1F0BCE4
:1057A000704734461346002CF3D1F8E714460346FD
:1057B000C2E71A462646E0E770B50D46084C11468A
:1057C00006461A46284600232360FCF727F8431CA8
:1057D00000D070BD2368002BFBD0336070BD00BFCC
:1057E0009C110020838903F00903092B01D00020BC
:1057F0007047FFF7BBB800BFF8B50C46054610B1BF
:10580000836B002B41D0B4F90C309AB2970407D4C3
:10581000626E43F4005322F400526266A3819AB28E
:105820000021960661605BD450071BD4D1065AD57F
:1058300012073ED443F00403A3812369002B44D014
:10584000B4F90C70BEB2B30722D122692260284697
:105850006369256AE169A84700286060C8BF002025
:1058600038DDF8BD216B0029E7D004F140039942EF
:1058700002D0284605F08EFDE36B636000202063B4
:10588000002BDAD0A36B2360F8BDFFF74DF9BAE720
:105890001D4B1E4918680123A38106F00906FFF776
:1058A000BBFC092EA781D0D121462846FEF79EFFDA
:1058B000CBE721462846FFF73FF888B9B4F90C300A
:1058C000A060A06123F00803B4E721462846FFF753
:1058D00045FDB5E7B4F90C300DD143F02003A381A9
:1058E0004FF0FF30F8BD43F0400309222A604FF02B
:1058F000FF30A381F8BD43F040030022A381626022
:105900004FF0FF30F8BD00BF84D00008E557000815
:1059100000290CBF022200224FF4806300F000B87F
:105920002DE9F043524C256883B004460F4690465B
:105930001E4615B1AB6B002B65D0B8F1020F06D037
:10594000B8F1010F00F29180002EC0F28E80214646
:105950002846FEF7F1FF216B41B104F14003994263
:1059600002D0284605F016FD00232363B4F90C305D
:105970000022A26162601A064DD423F44A6323F028
:105980000303B8F1020FA3814CD001AB6A46214654
:105990002846FFF7B5FCA3891843A08116B317B3B7
:1059A000AB6B63B3009BB4F90C002760B3421CBF20
:1059B00040F40060A081B8F1010F08BF40F0010081
:1059C00083B208BFA08113F00800C4E904761ED09A
:1059D00013F0010035D000207642A661A06003B02C
:1059E000BDE8F083009E3046FFF702FD074660B336
:1059F000A38943F08003A381AB6B002BD2D128464F
:105A0000FFF792F8CEE72846FFF78EF895E7A060FB
:105A100003B0BDE8F0832169284605F0BBFCB4F96A
:105A20000C30AAE7002004F1430243F002030025F2
:105A30000121A381A5602260C4E9042103B0BDE86F
:105A4000F083A66003B0BDE8F083DDF80090B145B7
:105A500006D04846FFF7CCFC074608B14E46C7E7DC
:105A6000B4F90C304FF0FF30DDE74FF0FF30CFE7F7
:105A7000A802002010B50C46B1F90E1003F0D0F9C1
:105A8000002803DB236D0344236510BDA38923F4A1
:105A90008053A38110BD00BF2DE9F0411646B1F936
:105AA0000C201F46D3050C460546B1F90E1009D44B
:105AB00022F48052A2813B4632462846BDE8F0419E
:105AC00001F0CCBD0022022302F078FEB4F90C20D4
:105AD000B4F90E10ECE700BF10B50C46B1F90E108A
