:020000040800F2
:100000000080012081180008CD180008CD180008D4
:10001000CD180008CD180008CD1800080000000019
:10002000000000000000000000000000CD180008E3
:10003000CD18000800000000CD180008CD180008F9
:10004000CD180008CD180008CD180008CD180008FC
:10005000CD180008CD180008CD180008CD180008EC
:10006000CD180008CD180008CD180008CD180008DC
:10007000CD180008CD180008CD180008CD180008CC
:10008000CD180008CD180008CD18000800000000A9
:10009000000000000000000000000000CD18000873
:1000A000CD180008CD180008CD180008CD1800089C
:1000B000CD180008CD180008CD180008CD1800088C
:1000C000CD180008CD180008CD180008CD1800087C
:1000D000CD180008CD180008CD1800080000000059
:1000E000CD180008CD180008CD1800080000000049
:1000F000000000000000000000000000CD18000813
:1001000000000000CD180008CD180008CD18000828
:1001100000000000000000000000000000000000DF
:10012000CD180008CD180008CD180008CD1800081B
:10013000CD180008000000000000000000000000D2
:10014000000000000000000000000000CD180008C2
:10015000CD180008CD180008CD180008CD180008EB
:10016000CD180008CD1800080000000000000000B5
:10017000000000000000000000000000000000007F
:1001800000000000CD180008000000000000000082
:10019000CD18000810B5054C227832B9044B13B1C4
:1001A0000448AFF300800123237010BD680C0020C9
:1001B0000000000024C0000808B5034B1BB1034930
:1001C0000348AFF3008008BD000000006C0C002065
:1001D00024C00008134B002B08BF114B9D46A3F50C
:1001E000803A00218B460F461148124A121A04F039
:1001F0009BFB0D4B002B00D098470C4B002B00D0E5
:1002000098470020002104000D000B4800F095FDE8
:1002100004F058F92000290001F01CF800F08AFDD4
:1002200000000800008001200000000045120008C6
:10023000680C0020F00F0020493D000803681847B3
:100240000B68036070477047F7B50F4F6D46052484
:100250002E46384603F0A2FA013C05F8010BF8D10E
:100260000A49304604F080FD20B9094B01221A608A
:1002700003B0F0BD0749304604F076FD0028F7D101
:10028000034B1C60F4E700BF400D002094B0000851
:100290005C0D00209AB0000810B5094B036003F113
:1002A000200280330446C0F8BC20C0F8C030BC3007
:1002B00003F062FA204602F069FD204610BD00BF3F
:1002C000D0B60008A0F1BC00E6E7A0F1C000E3E76B
:1002D0002DE9F0436020BBB000F098FE044600F02A
:1002E000C7F94FF4E1330322022104A802F08CFB8A
:1002F00010220021684604F017FB1C4B00930022DB
:100300001B4B1C480393694602F006FD039B13B187
:100310009B6868469847184E184FDFF86C80204657
:1003200000F0E6F833682BB1012B14D0144803F029
:10033000FDF8F4E704F1380504F16009F5E802235B
:10034000394633A803F03CFA4D45F7D1414633A86E
:1003500003F036FAEAE7204600F0F6F802460B46CC
:1003600033A8084903F02CFAE0E700BF490200086F
:1003700088B00008840C00205C0D0020A0B00008AC
:10038000CDCC4C3EA7B00008B5B0000810B504466F
:10039000FFF782FF204600F04DFE204610BDA0F181
:1003A000BC00F3E7A0F1C000F0E7000010B5074C77
:1003B0002722262120464FF4165302F025FB204623
:1003C000034A0449BDE8104000F0B2BC840C002090
:1003D0009801002099020008704710B5044600F00B
:1003E00029FE204610BD38B51C2204460D460021CA
:1003F00004F09AFA2046294602F0EEFA204638BD6B
:1004000038B50546044655F8043B9B68984728468E
:1004100000F09EF923680546DB6820469847284689
:1004200038BD10B504460069FFF7EAFF09F07EFB0E
:10043000D4E90223C4E9000109F018FAC4E906016D
:1004400010BD10B504460069FFF7DAFF09F06EFB36
:10045000C4E9020110BD000070B5D0E90935AB4216
:10046000044613DB214E062D23DCA3699A681B6822
:100470001360304603F05AF8A369DA681B681B045E
:100480001360304603F052F80135ECE783691748F2
:100490009A681B68136003F049F8A3691348DA6887
:1004A0001B681B04136003F041F8636A0133636245
:1004B00070BDE3690D489A681B68136003F036F855
:1004C000A3690A489A681B68136003F02FF8A369B0
:1004D0000648DA681B681B04136003F027F8E36919
:1004E000DA681B681B0413600023E0E70AD7A33B0C
:1004F000F8B50446FFF7B0FF124E04F130070025AF
:10050000A36AAB421DDD54F82500FFF79AFF236A6A
:10051000DA681B681B041360304603F007F854F8D0
:100520002500FFF77EFF236A9A681B68E7E802014F
:100530001360304602F0FAFF2046FFF78DFF0135C9
:10054000DEE7F8BD0AD7A33B2DE9DF4F90ED107B26
:100550008DED007B90ED147BD0E90E67D0E916ABF2
:10056000044600221E4BDDE900018DED027B09F0FF
:1005700035FB07F1004902460B463046494609F073
:1005800075F9002280468946154BDDE9020109F024
:1005900025FB02460B464046494609F069F952469A
:1005A0005B4609F065F9DDE900238046894630465F
:1005B000394609F05DF9D4E9122309F059F9DDE96A
:1005C000022309F055F952465B4609F051F90246FB
:1005D0000B464046494609F02BFC04B0BDE8D08FDD
:1005E0000000E03F034610B553F8042B044612B94F
:1005F0000360206810BD9A42FBD06622024903487E
:1006000002F026FEF5E700BFD0B00008F0B0000809
:1006100008B50248FFF7E6FF08BD00BF900D0020B7
:1006200008B50248FFF7DEFF08BD00BF900D0020AF
:100630002DE9F04105465020884600F0E7FC0446CD
:10064000094B0A4F44F8043B06463846FFF7CAFFF9
:100650004146204600F08CF83846FFF7C3FF2E6174
:100660002846BDE8F08100BFC0B00008900D002012
:1006700038B50446202000F0C9FC20210546FFF7CC
:10068000D7FF2560202000F0C1FC00210546FFF7C0
:10069000CFFF6560202000F0B9FC01210546FFF77F
:1006A000C7FFA560202000F0B1FC04210546FFF73C
:1006B000BFFFE560202000F0A9FC10210546FFF7F0
:1006C000B7FF2561202000F0A1FC21210546FFF79E
:1006D000AFFF65611C2000F099FC2E210546FFF755
:1006E00082FEA5611C2000F091FC2F210546FFF73A
:1006F0007AFEE5611C2000F089FC05462321FFF706
:1007000072FE2B68EA6825621B041360E3690F4DD3
:100710009A681B681360284602F008FFA3699A686C
:100720001B681360284602F001FFA369DA681B68A2
:100730001B041360E369DA681B681B041360002361
:100740000622C4E90932204638BD00BF0AD7A33BC0
:1007500008B500F07BF807EE900AB8EE677ADFED97
:10076000037A67EE277A17EE900A08BD01088039F0
:10077000A1F1F0039BB20F2B73B504460D4649D986
:100780002A49284602F0B0F928492060284602F09C
:10079000CFF926490646284602F05CF92368013362
:1007A00004D13C222249234802F052FD731C04D19B
:1007B0003D221F49204802F04BFD0122E2612168E1
:1007C0001E4AA4F848500023C6F30436914284F828
:1007D0004A6023646360A3602361A3612362636250
:1007E000E362A362E360236363610AD10193144B64
:1007F0005A6C42F480725A645B6C03F48073019308
:10080000019B204601F080F810B10E4802F042FE34
:1008100002B070BD0C49284602F066F90A49206012
:10082000284602F085F90646B8E700BF04B1000883
:1008300078B20008E8B2000812B3000800200140B6
:10084000003802402BB30008B8B100081FB50446B9
:1008500010220021684604F067F894F84A2001232A
:1008600001930293122A47D8DFE802F00C0B0A2307
:100870002527292B2D2F31333537393B3D42440075
:10088000022300931D4A536823F4400369465360D2
:10089000204601F091F9204601F0DAF80A212046BD
:1008A00001F036F940BB204601F082F980B204B075
:1008B00010BD0323E5E70423E3E70523E1E706236F
:1008C000DFE70723DDE70823DBE70923D9E70A236E
:1008D000D7E70B23D5E70C23D3E70D23D1E70E236E
:1008E000CFE70F23CDE71023009307230293C9E737
:1008F0001123F9E71223F7E70020D8E7002301408E
:1009000030B5036891FAA1F4B4FA84F491FAA1F134
:100910000325B1FA81F1640005FA04F4490023EAE1
:10092000040302FA01F11943016030BD7FB50023D1
:10093000072855D8DFE800F00413202D3A54544717
:1009400000932A4B2A481A6B42F001021A631B6B70
:1009500003F001030093009B07B05DF804FB0193D3
:10096000224B24481A6B42F002021A631B6B03F0FD
:1009700002030193019BEFE702931C4B1E481A6B85
:1009800042F004021A631B6B03F004030293029B00
:10099000E2E70393154B19481A6B42F008021A63F9
:1009A0001B6B03F008030393039BD5E704930F4BE2
:1009B00013481A6B42F010021A631B6B03F010030A
:1009C0000493049BC8E70593084B0E481A6B42F04A
:1009D00080021A631B6B03F080030593059BBBE742
:1009E000094802F057FD0020B6E700BF003802407A
:1009F000000002400004024000080240000C0240D7
:100A000000100240001C024041B30008431C10B516
:100A1000044604D176220649064802F019FC204615
:100A2000002100F03BFC04F00F040120A04010BDA9
:100A300062B30008BCB3000870B504464B1C0E46F8
:100A4000218216D0C1F30310FFF770FF0546304630
:100A5000FFF7DCFF238A074A656103F00F0320607C
:100A600052F82330A36105F1100318356360A560C7
:100A7000E56070BD10B50008B0F9100000F0A6BC2C
:100A80000A4619B981694069FFF73ABF0122F9E7BF
:100A900008B501F0DBFE002008BD000008B50A4BD8
:100AA0001B684BB101F0C8FF02F07AFB4FF47A7279
:100AB000002309F06BFB08BD01F028FF4FF47A73A7
:100AC000B0FBF3F008BD00BF600D002010B588B08A
:100AD00002F086FB052101A801F07EFF0424039BA0
:100AE000019A1A60962002F02FFD019B049A1B04C4
:100AF0001360962002F028FD013CF0D10424039BF2
:100B0000019A1A604FF4C87002F01EFD019B049A0E
:100B10001B0413604FF4C87002F016FD013CEED1C7
:100B2000DCE7000070B50D46A0B0044602F058FBAB
:100B30002B4622468021684605F04CFE051E03DC4C
:100B400002F064FB20B070BD094B1B6823B903227F
:100B50000221084800F004FD064E00241DF8041090
:100B60003046013400F07AFEA542F7D1E8E700BF35
:100B70007C0D0020980E00200FB407B504A951F891
:100B8000040B0191FFF7CEFF03B05DF804EB04B056
:100B90007047000008B501F007FE00F099FE01F073
:100BA000F3FD01F001FE024B01221A6008BD00BFF7
:100BB000600D002000207047036801221B6900219E
:100BC0001847036800221B691146184703681B6910
:100BD000184703689B69184703689B6A18470029F0
:100BE0000CBF6FF0180000207047012070471120E3
:100BF000704770476FF01C0070476FF0150070472A
:100C0000012070470020704770470000F8B5074E7C
:100C100015460C468F18BC4205D014F8011B30460F
:100C200000F01CFEF7E72846F8BD00BF980E002034
:100C300038B58DB215F0010405D0084800F01EFC4F
:100C4000041C18BF0124EB0605D5044800F02CFC59
:100C500008B144F01004204638BD00BF980E0020B3
:100C600010B5044603F0D2FC204610BD10B50C466A
:100C70002AB1044800F0E0FD2070012010BD1046AC
:100C800010BD00BF980E002038B51D46074B03600D
:100C9000074B1B68044633B9064800F061FC29463F
:100CA000044800F037FC204638BD00BFD8B3000828
:100CB0007C0D0020980E0020002070470020704717
:100CC00008B5012000F036F80C4A136810B5184436
:100CD000EFF30881884205D3094B0C221A604FF0CC
:100CE000FF3010BD07490C6824B107490968214449
:100CF0008842F1D21060184610BD00BF9C0200204F
:100D0000EC0F0020740D0020780D0020074C08B572
:100D100023680546986802F00DFF2368D86802F042
:100D200009FF0DB1FFF7D2FEFEE700BFA8020020C9
:100D30000120704708B5FFF7E9FF01207047002147
:100D400003F008BF02F008BF7047704708B5FFF70F
:100D5000FBFF08BD08B5FFF7F8FF08BD10B5037825
:100D600003F00303012B04460CD02BB140F2A9522F
:100D70000549064802F06CFA237843F00203237019
:100D8000012010BD002010BD3DB4000894B400083F
:100D900010B5037803F00303022B044605D040F29C
:100DA000B1520549054802F053FA237823F00303B2
:100DB00043F00103237010BD3DB40008BAB400082D
:100DC0003F2870B504462FDC184D55F820305A1CCA
:100DD00013D1022811DCFFF771FF034658B92046F2
:100DE000FFF76AFF034630B9114E3378BFF35B8FCC
:100DF000DB0704D50F4B45F82430184670BD30464C
:100E0000FFF7ACFF0028F5D04FF416530322022160
:100E10000848FFF739FF3046FFF7BAFF064A07498F
:100E20000448FFF785FFE5E70023E6E79C01002083
:100E3000640D0020700D002098010020090C0008AE
:100E400038B50546FFF7BCFF0B4B002443F825409F
:100E500030B902F05DFD092303604FF0FF3038BD6B
:100E600003685B699847051E04DA02F051FD6D4284
:100E70000560F2E7204638BD9C010020FFF7E0BF87
:100E800038B50C461546FFF79BFF38B902F040FD18
:100E9000092303604FF0FF34204638BD0368214624
:100EA000DB682A469847041EF6DA02F031FD6442F8
:100EB0000460EFE708B5131E06DA02F029FD1623D9
:100EC00003604FF0FF3008BD04D0FFF7D9FF40EAC0
:100ED000E07008BD184608BD38B50C461546FFF74A
:100EE0006FFF38B902F014FD092303604FF0FF349F
:100EF000204638BD036821469B682A469847041E51
:100F0000F6DA02F005FD64420460EFE7002A08B556
:100F100003DBBDE80840FFF7DFBF02F0F9FC162352
:100F200003604FF0FF3008BD10B5FFF749FF0446DE
:100F300028B902F0EDFC09230360204610BD0368C8
:100F4000DB699847041EF8DA02F0E2FC64420460B0
:100F50000024F2E71FB504220C4640230DEB0201EA
:100F600001900DF109008DF8083003F0DBFB2146FC
:100F700002A802F049FF044630B10198FFF7D4FF00
:100F800010B12046FFF7DBFE204604B010BDFFF78E
:100F9000CBBF38B50C461546FFF712FF38B902F043
:100FA000B7FC092303604FF0FF34204638BD0368C7
:100FB00021461B692A469847041EF6DA02F0A8FC6F
:100FC00064420460EFE7FFF7E4BF38B50D46FFF772
:100FD000F7FE044630B902F09BFC092303604FF092
:100FE000FF3038BD0368DB699847002814BF4FF411
:100FF00000534FF400436B60236820469B6A984778
:101000002861002038BDFFF7E0BF000037B5054676
:1010100003F0F4FA044630B9009003462A46034927
:10102000034802F059FA204603B030BD20B400084E
:101030001F01018003F0EABA10B504460948FFF722
:10104000D1FA0023084A194652F82300A04208BFEB
:1010500042F823100133402BF6D10248FFF7C2FAC1
:1010600010BD00BF680D00209C01002010B50F4886
:10107000FFF7B8FA0E4B032453F824206AB1013469
:10108000402CF9D102F044FC182303600748FFF715
:10109000A9FA4FF0FF34204610BD4FF0FF3203484D
:1010A00043F82420FFF79EFAF5E700BF680D002003
:1010B0009C01002010B50446FFF7D8FF0028A4BF0C
:1010C000014B43F8204010BD9C01002070B506463E
:1010D0000C46FFF7EFFF054690B12146FFF73AFFB8
:1010E000044630B9074B53F82520964203D143F804
:1010F0002500204670BD02F00BFC09230360F8E7D1
:101100000446F6E79C0100200EB42DE9F04185B0BD
:101110000546FFF7ABFF041E13DB0023294602A898
:10112000019302F0A7F802A802F0F6F81B4D06465C
:1011300068B902F0EDFB1323036045F824604FF01B
:10114000FF34204605B0BDE8F04103B0704702A867
:1011500002F0D0F8074602A837B102F0D4F80190A7
:10116000019B45F82430ECE702F0BBF80646002866
:10117000DFD0036802A8D3F8088002F0A7F80B9B21
:10118000024601A93046C04706460028E8D002F0D2
:10119000BFFB7642066045F82470D0E79C01002032
:1011A00073B50E461849054603F0DEFD044620B926
:1011B000FFF706FE204602B070BD1449284603F032
:1011C000D3FD20B90120FFF7FBFD0124F2E7104910
:1011D000284603F0C9FD20B90220FFF7F1FD0224E3
:1011E000E8E72B78402B07D10422691C0DEB0200A5
:1011F00003F098FA019CDDE726F400412846FFF74A
:1012000083FF0446D6E700BF01B5000808B5000813
:10121000F9B4000870477047074B08499A680848B6
:1012200010B5043A52F8044F41F8044F8142F9D105
:101230004FF000529A6010BD00ED00E0FCFFFF1F70
:101240009001002008B5FFF7E7FFFFF7A3FCFFF7C9
:10125000E2FF08BD08B5FFF7DDFFBDE80840FFF776
:1012600037B830B5C36891FAA1F4B4FA84F491FAAE
:10127000A1F10325B1FA81F1640005FA04F44900F3
:1012800023EA040302FA01F11943C16030BD012AC7
:1012900002D0022A18BF0022FFF7E3BF2DE9F04178
:1012A0000E46411C044604D13E224449444801F004
:1012B000CFFF04F00F08434BC4F3031053F828503A
:1012C000FFF734FB06F007070446836895FAA5F19B
:1012D000B1FA81F195FAA5F20320490000FA01F173
:1012E000B2FA82F223EA01035200022101FA02F269
:1012F0001343A36087425AD8DFE807F05E1D021D42
:10130000B8F1070FC6F303203BD9626A2B0A93FAA0
:10131000A3F1B1FA81F193FAA3F34FF00F0EB3FAF0
:1013200083F389000EFA01F19B0022EA010200FA20
:1013300003F3134363623B46226895FAA5F0B0FAC3
:1013400080F095FAA5F14FF0030EB1FA81F140005B
:101350000EFA00F0490022EA00028B40013F1343DD
:10136000012F236005D8636832074CBF2B43AB4382
:101370006360C6F3011229462046BDE8F041FFF73D
:1013800086BF226A95FAA5F3B3FA83F395FAA5F11D
:101390004FF00F0EB1FA81F19B000EFA03F38900B2
:1013A00022EA030200FA01F313432362C3E7672230
:1013B0000249054801F04CFF0023BDE750B5000885
:1013C000BCB3000810B500089CB90008431C70B5F8
:1013D00006460D4604D188221B491C4801F038FFFF
:1013E00006F00F021A4BC6F3031053F82240FFF722
:1013F0009DFA04FB04F2016802EB42030B40B3FBCD
:10140000F2F3013B012B05D8EB1E022B436809D8F0
:1014100023434360032D08D101222146BDE87040DB
:10142000FFF735BF23EA04034360012DF4D0052DF7
:1014300001D0022D01D10222EFE721460022BDE8B2
:101440007040FFF70EBF00BF50B50008BCB30008E6
:1014500010B500080FB407B5064B07491B6805AA6D
:10146000D868019205F03EF903B05DF804EB04B0D2
:10147000704700BFA8020020A8B500084368094AC9
:101480009B0182B0D3581A68120706D50022019238
:101490001A6801925A680192019A1868C0F34010C4
:1014A00002B07047E40E00204368034A9B01D35802
:1014B0001868C0F3C0107047E40E00204268144959
:1014C000920110B404685450531882685A60C2687C
:1014D0009A600269DA6042691A61026A9A610022BE
:1014E000DA84DA619A84DA859A85B0F91A200132B1
:1014F00006D108225A6118465DF8044B01F05DB828
:10150000B0F9182001320CBF04220C22F2E700BF10
:10151000E40E002010B581600C46FFF7CFFF28B124
:1015200021460348BDE81040FFF794BF10BD00BF3F
:10153000A8B50008094B98420BD0A3F54C4398423C
:1015400009D003F5504398420CBF02204FF0FF3002
:101550007047002070470120704700BF0010014015
:10156000F0B50E4685B0044645493046154601F0B3
:10157000BBFA44490746284601F0B6FA0146384608
:1015800001F08CFA2060013004D13D223E493F48F1
:1015900001F05EFE022E0CD0032D0AD03849022045
:1015A00001F0A2FA874202D1394801F073FF002707
:1015B00000E00127374B206898424FF0000340D1EC
:1015C0000193354B5A6C42F010025A645B6C03F085
:1015D00010030193019BFFF7ADFF0028606004DA60
:1015E000A42229492D4801F033FE2549304601F057
:1015F00031FA2449284601F02DFA721C03D001214A
:101600003046FFF7E3FE6B1C03D001212846FFF7AD
:10161000DDFE4FF41653A3600023E3602361636192
:101620002362268365832046FFF748FF3FB11C4BAA
:101630001C4801221A6021464C2203F073F805B0C1
:10164000F0BD194A90420BD10293134B1A6C42F42D
:1016500000321A641B6C03F400330293029BBAE756
:10166000124A9042B7D103930B4B5A6C42F02002BE
:101670005A645B6C03F020030393039BABE700BF4A
:1016800030B20008E8B10008D2B500082EB6000854
:101690004AB6000800100140003802407FB600083A
:1016A0007C0D0020980E00200044004000140140F2
:1016B000002808DB4209012300F01F0003FA00F0B4
:1016C000014B43F82200704700E100E000280DDBE9
:1016D0004309012200F01F0002FA00F02033044AFF
:1016E00042F82300BFF34F8FBFF36F8F704700BFE7
:1016F00000E100E0F7B5FFF71DFF071E26DB144EE3
:1017000056F8270010B3134CBD0163591A6812062E
:1017100006D5DB68190603D50F4B01211B689847D6
:1017200063591A68920608D5DB68980605D50A4BF6
:1017300056F827001B680021984763591A6811075B
:1017400004D55A69D20744BF5B68019303B0F0BD6A
:10175000840D0020E40E0020800D00200148FFF7DA
:10176000C9BF00BF001401400148FFF7C3BF00BF5D
:10177000004400400148FFF7BDBF00BF001001401A
:10178000034B19604168034B43F82120704700BFA9
:10179000800D0020840D002009C830B4204CA042E8
:1017A0000AD004F58064A0421AD0A4F55044A042A7
:1017B00019D11C4C262001E01B4C25201B4D9B0100
:1017C000BAB1EA58D36889B943F02003D360184B03
:1017D00000F110029B6843F8224030BCFFF768BF5D
:1017E000144C4720EAE700242046E7E743F0800353
:1017F000ECE7EB58DA6849B922F02002DA60DB68DE
:1018000013F0800F09D130BCFFF760BF22F08002D7
:10181000DA60DB6813F0200FF4E730BC704700BFDC
:10182000001001406917000875170008E40E002039
:1018300000ED00E05D17000838B54468054628460D
:10184000FFF71CFE0028FAD0A401034B1B5958686F
:10185000C0F3080038BD00BFE40E002070B5456835
:1018600006460C463046FFF71FFE0028FAD0AD01B1
:10187000024B5B59C4F308045C6070BDE40E0020A9
:10188000DFF830D0002103E00B4B5B5843500431AC
:101890000A480B4B42189A42F6D30A4A02E0002348
:1018A00042F8043B084B9A42F9D300F0C9FEFEF718
:1018B00091FC70470080012030C000089801002092
:1018C000680C0020680C0020F00F0020FEE7704735
:1018D00008B50B4B1A6842F400721A601A6842F499
:1018E00080621A601A6842F480721A60032000F065
:1018F000F9F90F20FFF7CCF8FFF7E9FF002008BD4A
:10190000003C02407047000010B50446002800F07B
:101910009980036C23B9436480F83C30FFF7F2FFF1
:10192000236CDB0600F18C80236C23F4885323F0B6
:10193000020343F002032364434B5A6822F440320B
:101940005A605A6861680A435A60236821695A6874
:1019500022F480725A605A6842EA01225A605A6838
:10196000A16822F040725A605A680A435A609A6825
:10197000E16822F400629A609A680A439A603349E7
:10198000A26A8A4250D0996821F070619960996882
:101990000A439A609A68E16A22F040529A609A6813
:1019A0000A439A609A68A16922F002029A609A68D2
:1019B00042EA41029A60226A002A3DD05A68616A6E
:1019C00042F400625A605A6822F460425A605A68CF
:1019D000013942EA41325A60DA6AE16922F470025E
:1019E000DA62DA6A013942EA0152DA629A68216BF4
:1019F00022F400729A609A6842EA41229A609A68D8
:101A0000616922F480629A609A68002042EA812229
:101A10009A606064236C23F0030343F001032364A2
:101A2000002384F83C3010BD9A6822F070629A60FE
:101A30009A6822F04052B4E75A6822F40062CAE77A
:101A40000120EDE7012010BD002301400100000F3F
:101A500082B00023019390F83C30012B4ED001233B
:101A600080F83C3003689A68D10705D59A68D20798
:101A700014D4002002B070479A68214942F0010254
:101A80009A60204A1268B2FBF1F202EB4202019224
:101A9000019A002AEAD0019A013AF8E7026C22F48E
:101AA000E06222F0010242F4807202645A68510539
:101AB00041BF026C22F4405242F480520264026C34
:101AC00012F480521CBF426C22F0060242640022D3
:101AD00080F83C206FF022021A600B4A5268D2064E
:101AE00008D1986810F04050C3D19A6842F0804203
:101AF0009A60BFE7054A9342BBD1F2E70220B9E7FB
:101B000040420F00A00200200023014000200140BD
:101B100003689A6870B5560504460D460BD59B6858
:101B2000D80508D5236C43F020032364002384F8F0
:101B30003C30012070BDFEF7B1FF064623681A68ED
:101B400092070CD56FF012021A60226C42F40072F8
:101B500022649A6812F0405F13D0002070BD691CA7
:101B6000EDD045B9236C43F004032364002384F8CB
:101B70003C30032070BDFEF791FF801B8542DDD213
:101B8000F0E7A269002AE8D1DA6A12F4700F02D0F5
:101B90009B685B05E1D4236C23F480732364206C81
:101BA00010F48050D9D1236C43F00103236470BD3D
:101BB0000368D86C70470000F7B50023019390F8D4
:101BC0003C30012B00F083800D6804688A68012393
:101BD000092D80F83C30AEB22AD906EB4603E768FF
:101BE0001E3B4FF0070E0EFA03FE27EA0E07E760D2
:101BF000E76802FA03F33B43E3604A68062A4FEAC8
:101C0000820325D81344676B591F1F238B4027EA93
:101C100003036363626B06FA01F1114361632D4BA9
:101C20009C4234D0002380F83C30184603B0F0BD0D
:101C3000276905EB45034FF0070E0EFA03FE27EA6E
:101C40000E072761276902FA03F33B432361D4E7B8
:101C50000C2A0ED81344216BA3F123021F239340B7
:101C600021EA03032363236B06FA02F21A43226379
:101C7000D5E71344E16A413B1F229A4021EA020260
:101C8000E262E26A06FA03F11143E162C7E7122D4C
:101C900004D1114A536843F480035360A5F1100343
:101CA000012BBFD80C4A5368102D43F40003536036
:101CB000B8D10A4B0A4A1B68B3FBF2F20A2353431A
:101CC0000193019B002BADD0019B013BF8E7022063
:101CD000ACE700BF0020014000230140A00200202B
:101CE00040420F00074AD36823F4E0631B041B0C37
:101CF00043F0BF63000243F4003300F4E0600343A9
:101D0000D360704700ED00E02DE9F341044618B9B7
:101D1000012002B0BDE8F0810368DD0710D423681C
:101D2000980758D423681A0700F19A8023685B0744
:101D300000F1B880A269002A40F019810020E8E78C
:101D4000A64B9A6802F00C02042A07D09A6802F0A7
:101D50000C02082A0AD15B68590207D59F4B1B6801
:101D60009A03DCD56368002BD9D1D1E763689B4D1A
:101D7000B3F5803F11D12B6843F480332B60FEF71D
:101D80008DFE964D06462B689B03C8D4FEF786FE53
:101D9000801B6428F7D90320BBE7B3F5A02F04D13B
:101DA0002B6843F480232B60E5E72A6822F4803215
:101DB0002A602A6822F480222A60002BDFD1FEF7F5
:101DC0006DFE06462B689F03A9D5FEF767FE801BB4
:101DD0006428F7D9DFE7814B9A6812F00C0F07D01F
:101DE0009A6802F00C02082A11D15B685E020ED4D8
:101DF0007A4B1A68950702D5E268012A88D11A68D9
:101E0000216922F0F80242EAC1021A608AE7E26818
:101E1000734BB2B101221A60FEF740FE6F4D0646C9
:101E20002B68980707D52B68226923F0F80343EA4B
:101E3000C2032B6076E7FEF731FE801B0228EFD944
:101E4000A9E71A60FEF72AFE644D06462B6899073B
:101E50007FF568AFFEF722FE801B0228F6D99AE7CD
:101E60006269604B7AB101221A60FEF717FE5B4D82
:101E700006466B6F9F073FF559AFFEF70FFE801BBD
:101E80000228F6D987E71A60FEF708FE534D06468A
:101E90006B6F98077FF54AAFFEF700FE801B0228A4
:101EA000F6D978E74D4B1A6C12F0805228D1019286
:101EB0001A6C42F080521A641B6C03F08053019339
:101EC000019B0126484D2B68D9051BD5A368434DBE
:101ED000012B27D12B6F43F001032B67FEF7DEFDAB
:101EE0003E4D074641F288382B6F9B0739D5002EAF
:101EF0003FF420AF394A136C23F08053136419E781
:101F00000026DFE72B6843F480732B60FEF7C6FDE5
:101F100007462B68DA05D9D4FEF7C0FDC01B02289E
:101F2000F7D938E7052B04D12B6F43F004032B6757
:101F3000D0E72A6F22F001022A672A6F22F00402FA
:101F40002A67002BCAD1FEF7A9FD41F2883807465F
:101F50002B6F9807CBD5FEF7A1FDC01B4045F7D9E5
:101F600019E7FEF79BFDC01B4045BDD913E71B4D8C
:101F7000AB6803F00C03082B3FF4CAAE1B4E0023E2
:101F8000022A336034D1FEF789FD07462B68990198
:101F90001ED4226AE3691343626A43EA8213E26A47
:101FA00043EA0263A26A0D4C5208013A43EA024333
:101FB0006B6001233360FEF771FD054623689A01CB
:101FC0003FF5BCAEFEF76AFD401B0228F6D9E2E6FB
:101FD000FEF764FDC01B0228D8D9DCE600380240B9
:101FE00000004742800E47420070004060004742B8
:101FF000FEF754FD04462B689B017FF59FAEFEF76C
:102000004DFD001B0228F6D9C5E600BF134908B5EF
:102010008B6803F00C03042B03D0082B03D010486B
:1020200008BD104808BD4A684B68496813F480032E
:1020300014BF0C480A48C1F3881118BF002302F0EE
:102040003F02A1FB000108F0A1F8044B5B68C3F359
:10205000014301335B00B0FBF3F008BD00380240E0
:102060000024F40000127A002DE9F0410D460446E8
:1020700010B90120BDE8F081444B1A6802F00F024C
:102080008A4228D321688F072DD4C80740D43F4BFC
:102090001A6802F00F02954266D3226851076CD489
:1020A000130707D53A4A2169936823F4604343EA4A
:1020B000C1039360FFF7AAFF354B364A9B68C3F311
:1020C0000313D35CD840344B18600F20FEF7E0FCBC
:1020D0000020BDE8F081CAB21A701B6803F00F033C
:1020E0009942C6D1CEE72A4B11F0040F1EBF9A6861
:1020F00042F4E0529A600E0742BF9A6842F460428E
:102100009A609A68A06822F0F00202439A60BCE7E5
:1021100062681F4B012A1DD11B6813F4003FA8D031
:102120001B4EB36823F003031343B360FEF7B6FC02
:1021300041F288380746B368626803F00C03B3EBDA
:10214000820FA4D0FEF7AAFCC01B4045F3D90320A0
:10215000BDE8F081911E01291B6802D813F0007FB1
:10216000DDE713F0020FDAE7EAB21A701B6803F03A
:102170000F039D427FF47DAF8FE70549E0688B68D0
:1021800023F4E05303438B608AE700BF003C024026
:1021900000380240A5B60008A0020020044B054A02
:1021A0009B68C3F38223D35C034A1068D84070470E
:1021B00000380240B5B60008A0020020044B054AD2
:1021C0009B68C3F34233D35C034A1068D84070471E
:1021D00000380240B5B60008A00200200F230360BB
:1021E0000B4B9A6802F0030242609A6802F0F00218
:1021F00082609A6802F4E052C2609B68DB0803F4D4
:10220000E0530361034B1B6803F00F030B6070473F
:1022100000380240003C024070470000224A036838
:1022200090420ED0B0F1804F0BD0A2F57C4290428C
:1022300007D002F58062904203D002F5806290429E
:1022400019D14A6823F070031343174A904204D10E
:10225000CA6823F44073134318E0B0F1804FF7D0FD
:10226000124A9042F4D002F580629042F0D002F51A
:1022700080629042ECD00E4A9042E9D002F5806232
:102280009042E5D002F580629042E1D003608B6815
:10229000C3620B688362044B984204BF0B690363FB
:1022A00001234361704700BF00000140000400406B
:1022B0000040014010B50446A0B190F8393003F059
:1022C000FF021BB980F83820FFF7A6FF022384F82D
:1022D00039302068211DFFF7A1FF012384F8393030
:1022E000002010BD012010BD036A10B501248C40F0
:1022F00023EA04030362036A8A401A43026210BDA0
:1023000010B5044600220068FFF7EEFF2368104A6C
:1023100093420DD1196A41F21112114208D1196A82
:1023200040F24442114202BF5A6C22F400425A6405
:10233000196A41F21112114208D1196A40F244425D
:10234000114202BF1A6822F001021A60002010BD7B
:102350000000014010B5044601220068FFF7C4FFE9
:102360002368064A934202BF5A6C42F400425A6400
:102370001A6842F001021A60002010BD00000140FE
:10238000FFF7E8BF2DE9F0470668C2683369C16905
:1023900023F4405313433361044683680069F268B1
:1023A0000343606922F41642034322F00C020B43FC
:1023B0001343F3607369A26923F440731343B1F5C7
:1023C000004F73617A4B7CD19E4203D003F580634A
:1023D0009E4244D1FFF7F2FE192505FB00F3606829
:1023E0004FF064094000B3FBF0F3B3FBF9F34FEA9D
:1023F0000318FFF7E3FE636868435B00B0FBF3F785
:10240000FFF7DCFE636868435B00B0FBF3F3B3FBEC
:10241000F9F309FB1373DB003233B3FBF9F35B0011
:1024200003F4F877FFF7CAFE626868435200B0FB16
:10243000F2FAFFF7C3FE636868435B00B0FBF3F397
:10244000B3FBF9F309FB13A3DB003233B3FBF9F35E
:1024500003F0070343443B44B360BDE8F087FFF754
:102460009DFE192505FB00F360684FF064094000EC
:10247000B3FBF0F3B3FBF9F34FEA0318FFF78EFE5B
:10248000636868435B00B0FBF3F7FFF787FE6368A0
:1024900068435B00B0FBF3F3B3FBF9F309FB137381
:1024A000DB003233B3FBF9F35B0003F4F877FFF79B
:1024B00075FE626868435200B0FBF2FAFFF76EFEE9
:1024C000B9E79E4202D03B4B9E4240D1FFF776FED9
:1024D000676819254FF0640905FB00F3BF00B3FBE3
:1024E000F7F3B3FBF9F31F01FFF768FE6368684376
:1024F0009B00B0FBF3F8FFF761FE636868439B0045
:10250000B0FBF3F3B3FBF9F309FB13831B01323385
:10251000B3FBF9F303F0F008FFF750FE626868437D
:102520009200B0FBF2FAFFF749FE636868439B0034
:10253000B0FBF3F3B3FBF9F309FB13A31B01323335
:10254000B3FBF9F303F00F0343EA080383E7FFF754
:1025500025FE676819254FF0640905FB00F3BF00ED
:10256000B3FBF7F3B3FBF9F31F01FFF717FE636843
:1025700068439B00B0FBF3F8FFF710FE6368684305
:102580009B00B0FBF3F3B3FBF9F309FB13831B01CF
:102590003233B3FBF9F303F0F008FFF7FFFD626895
:1025A00068439200B0FBF2FAFFF7F8FDBDE700BF09
:1025B0000010014000140140704710B5044640B3BC
:1025C00090F8393003F0FF021BB980F83820FFF78C
:1025D000F3FF2268242384F83930D36823F40053AE
:1025E000D3602046FFF7CEFE23681A6922F490429A
:1025F0001A615A6922F02A025A61DA6842F40052DA
:10260000DA6000202023E06384F8393084F83A301F
:1026100010BD012010BD7FB50F23019302210023BF
:102620004FF4805201A80291039304920593FFF79F
:102630001BFDB0FA80F0400907B05DF804FB000014
:102640000F49D1F8883043F47003C1F888300D4B3E
:102650001A68002042F001021A6098601A6822F09D
:10266000847222F480321A60074A5A601A6822F48F
:1026700080221A60D8604FF000638B60704700BF03
:1026800000ED00E0003802401030002400B58FB0AB
:102690001D4B002100911A6C42F080521A641B6C91
:1026A0001A4A03F080530093009B0191136823F4AE
:1026B000404343F400431360136803F44043019321
:1026C000019B01230293C8B94FF480330393022383
:1026D00008934FF48003099308230A934FF4A873D7
:1026E0000B9304230C9302A807230D93FFF70CFB15
:1026F00038B9FFF790FF0FB05DF804FB4FF4A0234B
:10270000E4E70020F7E700BF003802400070004017
:1027100010B58EB000241A4B00941A6C42F080520F
:102720001A641B6C174A03F080530093009B0194BA
:10273000136823F4404343F4004313601368039485
:1027400003F440430193019B099403230293012363
:102750000593102306930A934FF4A8730B93042355
:1027600002220C9302A8072308920D93FFF7CCFADC
:1027700018B9FFF750FF0EB010BD2046FBE700BFB1
:10278000003802400070004008B50120FFF77EFFCE
:1027900038B9FFF7BDFF20B90248BDE8084000F096
:1027A00079BE08BD91B60008174A1849936803F02E
:1027B0000C03042B10B50DD0082B0DD0144B0B605F
:1027C000114B144A9B68C3F30313D25C0B68D340CC
:1027D0000B6010BD104BF2E75468506852686302FA
:1027E000C2F3881200F03F004CBF0B4B084BB3FB09
:1027F000F0F35343044A5268C2F3014201325200DB
:10280000B3FBF2F3DBE700BF00380240A002002078
:102810000024F400A5B6000800127A00074B084A0D
:1028200013601A69910707D5DA68920704D56FF02B
:1028300002021A6100F004B9704700BF000C0040AA
:10284000A80F002000487047C0B6000830B589B016
:1028500001A903A8FFF7C2FCFFF7A0FC0023029325
:102860001E4B01901A6C1E4C42F008021A641A6C3E
:1028700002F008020292029A1A6A42F008021A62F0
:102880001A6A22F008021A62069AA3F50B33236033
:102890004FF0FF33E360134BF2B9B0FBF3F00138B4
:1028A000002560600E482561A5606561FFF702FDA7
:1028B0000D4B0E4A9B680A48C3F808210C4B4FF495
:1028C00080225A602946FFF75BFD2268D36823F017
:1028D0000203D36009B030BD4000DEE7003802409B
:1028E000A80F002040420F0000ED00E01D28000866
:1028F00000E100E004480268D36823F00203D360DB
:102900000021FFF73DBD00BFA80F0020014B586A12
:10291000704700BF000C0040054B1B686FF00202BF
:1029200058631A61DA6842F00202DA60704700BF49
:10293000A80F0020064B1B686FF002021A615A694B
:1029400042F002025A61DA6842F00202DA6070472D
:10295000A80F0020034B1A68D36823F00203D3604A
:10296000704700BFA80F0020024B1B686FF00202E7
:102970001A617047A80F002008B500210348FFF72F
:10298000BFFCBDE80840FFF7E5BF00BFA80F00206F
:1029900038B504460D4603685AB182681360204674
:1029A0000121FEF76DF829462046BDE83840FEF7C4
:1029B00063B8C2681B04F1E770B50E4604461546BD
:1029C000FEF73AF8013606D02A4620460021BDE837
:1029D0007040FFF7DDBF70BD0022FFF7EDBF70470D
:1029E000A0F1BC00FFF7FBBFA0F1BC00FFF7F7BFF1
:1029F00000F0ECB8A0F1BC00FFF7FABF00F0E9B8B6
:102A0000A0F1BC00FFF7FABF10B5044600F00AF9C8
:102A1000002104F1BC0000F083FE064B03F1080224
:102A2000226003F128028833C4F8BC20C4F8C03007
:102A3000204610BDC8B600080048704758B70008C7
:102A4000024B1B680BB1024818477047A4020020D4
:102A500058B7000813B5044601300FD102B010BDBD
:102A60009C420AD120468968FEF718FC00212046C6
:102A700002B0BDE81040FEF7A9BC0C31B1F900303E
:102A80005A1CEDD10023009322460249024800F06F
:102A900023FDE3E7CFB7000830010180884207B586
:102AA00002460BD0431C09D001310BD0002306494C
:102AB0000093064800F010FD4FF0FF31084603B0C8
:102AC0005DF804FB0146F9E79EB70008300101807C
:102AD000B1F900305A1C01D118467047834201D128
:102AE000486870470C31F3E7421C13B504460BD01D
:102AF000FFF7EEFF431C044606D100230246009375
:102B00000349044800F0E8FC204602B010BD00BFB5
:102B1000AFB7000830010180B1F900305A1C01D173
:102B200018467047834201D1886870470C31F3E73B
:102B3000421C13B504460BD0FFF7EEFF431C0446BE
:102B400006D10023024600930349044800F0C4FC68
:102B5000204602B010BD00BF80B7000830010180E0
:102B60007047704710B480B1146853680CB9DA0725
:102B70000BD513F0010F4FEA63031CBFC258145961
:102B8000184423465DF8044B18475DF8044B704722
:102B9000090170B501F198050544EB6883B144184B
:102BA000D4F8A4302BB940F239220649064800F087
:102BB0004FFBD4F8A43028461B68BDE87040184786
:102BC00070BD00BFE0B70008F6B700084C30FEF754
:102BD00033BE10B54C300C46FEF740FE204610BD0B
:102BE000C36810B504460BB19B689847204610BDDA
:102BF000C36810B504460BB19B689847204610BDCA
:102C0000884238B504460D460AD0FFF7F1FF3CB1C3
:102C1000EB681BB15B68294620469847EB68E36088
:102C2000204638BD2DE9F04F87B00025924600952B
:102C300002460195044689469B469DE80300324BB7
:102C400042F8083B314B82E80300236148F2070356
:102C500063612F4BE561A46122626362BFF36F8FF2
:102C6000BFF34F8F102284F8285084F8295004F1C4
:102C70002C0001F059FE04F14C062946102204F103
:102C80003C0001F051FE04F1980829464C223046E0
:102C900001F04AFE04F1A80729461022404601F03F
:102CA00043FE29461022384601F03EFE10222946F6
:102CB000C4F8B8B002A801F037FE02A94046FFF7F9
:102CC0009FFF02A8FFF794FF1022294602A801F0F7
:102CD0002BFE02A93846FFF793FF02A8FFF788FFF3
:102CE000524649463046FEF73BFCD4F8B810304611
:102CF000FEF710FC304622460649FEF741FD20460D
:102D000007B0BDE8F08F00BF04B8000801A090E84C
:102D1000652B0008912B00082DE9FF4106468846E7
:102D200056F84C3B17461B6805463C01984700F097
:102D300057FAD8F80C3098342C44ABB1E3680BB98F
:102D400000F088FD41462046FFF75AFF0122394630
:102D50003046FEF721FD00F059FA2B6828465B68E3
:102D6000984704B0BDE8F081E3680BB100F096FD30
:102D700010220021684601F0D7FD69462046FFF782
:102D80003FFF6846FFF734FF0022E0E77FB51A4BAC
:102D90000360044610220021684601F0C5FD0022B0
:102DA00069462046FFF7B8FF6846FFF721FF10226B
:102DB0000021684601F0B8FD012269462046FFF770
:102DC000ABFF6846FFF714FF14F1980608D004F132
:102DD000B805B54204D0103D2846FFF709FFF8E7D3
:102DE00004F13C00FFF7FCFE04F12C00FFF7F8FEB5
:102DF000204604B070BD00BF04B8000810B50446FA
:102E0000FFF7C4FF2046FEF715F9204610BD00006D
:102E10002DE9F74FD0F804A09AF83A300446002B79
:102E200046D103685B68984763681B6A98423FD045
:102E3000DAF82030DAF80840CAF82000A0EB0308DE
:102E4000DAF80C30314808EA0308844246464FF06D
:102E5000000727D0DAE90A239AF83BB0A8FB0089DB
:102E6000CDE900230025BBF1000F2BD05A46404688
:102E7000494606F0DFFCDDE9002312EB080243EBD4
:102E8000090390465A46994606460F4606F0DEFC70
:102E9000B8EB000069EB0101A94208BFA0420AD2C9
:102EA000CAE90A01DAE90C23B6185F41CAE90C67DE
:102EB00003B0BDE8F08F013647F10007001B61EB5E
:102EC0000501EDE722462B464046494607F05EF9EC
:102ED000224606460F46404649462B4607F056F91D
:102EE000DDE9008918EB020849EB0309A94508BF91
:102EF000A04502D2CAE90A89D4E7013647F10007A2
:102F0000B8EB040869EB0509F4E700BF40420F0085
:102F1000824206D98A420BD9884294BF0020012000
:102F20007047884206D98A428CBF00200120704732
:102F300001207047002070472DE9F14F476897F84E
:102F40003A300646002B44D197F83930002B40D157
:102F5000FFF75EFF75686B68002B59D0D5E90C89C7
:102F6000D3E90001894508BF804505D333685B6913
:102F700001B0BDE8F04F1847D5E90623B0EB0808CB
:102F800061EB09094B4508BF42452C6906D3AB6884
:102F9000254A934220D1444528BF44462B6A1C440D
:102FA000EB681C403B6AA34205D140F207121F495F
:102FB0001F4800F04DF9336820461B699847336875
:102FC0005B68984722460146386AFFF7A1FF002850
:102FD000CCD101B0BDE8F08F95F83B20DFF854A0CC
:102FE0004FF0000B7AB14046494606F02FFC10EB3B
:102FF0000A0041EB0B010C4A002307F0C7F884429A
:1030000028BF0446CAE7A3FB080103FB0911EEE74A
:103010003B69386AFA68184433681B69104001B08C
:10302000BDE8F04F184700BF40420F0014B8000839
:1030300066B800083F420F002DE9F04F436893F84F
:10304000382085B00546002A6FD193F83A30002B1E
:103050006BD103681B6898472B68DB699847066843
:1030600004462EB92C2232493248334E00F0F0F893
:103070001F23012202FA03F1B1425FFA83FB02D05F
:10308000013BF7D19B46D4F804A0AAF104031C2B02
:1030900006D93A222649274800F0DAF84FF0200AEC
:1030A000AAF10403072716F1FF3007FA03F7224CB1
:1030B0004FF0000343F1FF313246C4FB070107F034
:1030C00065F86C682A680023236063605268039384
:1030D000CDE90001904720626C684FF000084FF086
:1030E00000095246C4E90A89A66084F83BB0012071
:1030F000002106F0ABFBDDE90023C4E90623039BB6
:1031000084F8393084F83A3001380123E0602761CF
:103110002846C4E90C8984F83830FFF779FE284640
:1031200005B0BDE8F04FFFF707BF05B0BDE8F08F71
:1031300014B800089CB9000840420F0070B504465E
:1031400000F04EF82368DB689847636893F83A20EC
:103150001AB1BDE8704000F059B8012283F8392057
:1031600063685B68A3B12046FFF752FE65686E682E
:10317000D5E90C01D6E90023994208BF904207D354
:10318000F3686B602B68002BEAD0B0689847E7E7DC
:103190006368002283F839202046FFF7CDFED8E788
:1031A00010B50446FFF748FF00F01AF82046FFF775
:1031B0002FFE00F02BF86368D3E90C0110BD08B5B1
:1031C000FFF7EEFF08BDEFF31080C04300F00100F1
:1031D0007047EFF30580003018BF012070470000F2
:1031E00010B5074C2368013304D151220549064824
:1031F00000F02EF800F002FB23680133236010BDBD
:10320000D80D00208AB80008DFB80008054B1A68FE
:1032100032B11A68013A1A601B680BB900F000BBA2
:10322000704700BFD80D0020D0E85F3F0B449BB231
:10323000C0E8523F002AF7D118467047D0E85F3FF8
:103240005B1A9BB2C0E8523F002AF7D1184670477C
:1032500070B504460D461646FFF7C2FF33462A46B0
:1032600021460348FDF788FCBDE87040FDF72EBC01
:1032700010B9000870B50E4600250446056045608B
:103280000F49304601F04AFF0644266023681A7849
:103290002F2A0ED10133236025B9292209490A4872
:1032A000FFF7D6FF2946304600F0ACF960602046B3
:1032B00070BD002AF0D0013301352360E6E700BF7E
:1032C00041B9000843B9000895B900080068704783
:1032D000406808B520B100F03CF9431E58425841FF
:1032E00008BD10B50446FFF7F3FF10B1606800B1E8
:1032F000043810BD406808B520B100F02AF9B0FAD2
:1033000080F0400908BD10B50446FFF7F3FF10B187
:10331000606800B1043810BD4068003018BF01205B
:10332000704700002DE9F0411B4C1C4E237836EA13
:10333000200628BF0646012B8EB00F46904600D1CE
:10334000FEE7174DFFF74CFF01232370FFF75EFFE9
:103350002B6834220133002101A82B6001F0E4FA2C
:103360002B680196012BCDF80880039704D13422F5
:1033700001A90C4801F0D6F9342201A90A4801F04C
:10338000D1F90A4B1B680BB1074898470020207001
:103390000EB0BDE8F08100BFE40D00200101FF8008
:1033A000DC0D0020E80D00201C0E0020E00D0020A8
:1033B00073B5294C2168C1F34173032B0CBF4D42F7
:1033C0008DB2C1F307432A4606462448FDF7D4FBD5
:1033D0006FF498731D44072D09D8DFE805F0042722
:1033E0002A2D30363339A1681D48FDF7C5FB30461C
:1033F000FDF7C2FB61681B48FDF7BEFBA1681A48D8
:10340000FDF7BAFBE3690193A369009304F10C0192
:103410000EC91648FDF7B0FB21681548FDF7ACFB57
:10342000144802B0BDE87040FDF7A6BBA168124881
:10343000DBE7A1681148D8E7A1681148D5E7A16882
:103440001048D2E7A1681048CFE7A1680F48CCE741
:10345000A1680F48C9E700BF1C0E0020B3B90008DF
:1034600004BA000891BA0008A1BA0008B4BA00086A
:1034700003BB00084FBB000819BA000828BA0008AF
:1034800036BA000848BA00085BBA00086EBA0008ED
:103490007CBA00080FB437B50C4D2978724679B95B
:1034A0000B48FFF73FFF0B48FFF782FF012407A9F6
:1034B00006982C700191FDF735FB2046FDF73AFC8C
:1034C00003B0BDE8304004B0704700BFE40D0020F9
:1034D0000001FF809EB9000810B50C4611467246E7
:1034E000FFF720FF68B92046FFF762FFFFF771FE84
:1034F00010B9FFF768FE08B930BFFDE70120FDF7FE
:1035000019FC014810BD00BF0F01FF8070B50446D3
:10351000FFF792FA0646FFF752FE05463046FFF7E0
:103520004EFE401BA042F9D370BD000007EE100A0A
:10353000DFED047A67EE277AFDEEE77A17EE900A60
:10354000FFF7E4BF002474494FF47A735843FFF740
:10355000DDBF007B7047000038B504460A4B0360AE
:10356000002343600D46A16002730848FDF73AF856
:1035700045B1074B1A6862601C600448FDF732F8D9
:10358000204638BD6560F8E77CBB0008540E00207B
:10359000500E002010B5124B036004461148FDF791
:1035A00021F8A3682BB1104A13689C4212D16368BA
:1035B00013600E4B0B481A68944204BF00221A6035
:1035C000FDF710F8237B13B9201FFDF735FD2046CA
:1035D00010BD13465A689442FBD162685A60E8E70E
:1035E0007CBB0008540E0020500E00205C0E002012
:1035F00010B50446FFF7CEFF2046FDF71BFD204621
:1036000010BD000070B5064614480D46FCF7EAFFF1
:10361000134B1C687CB1A068E8B101F011FDA84211
:1036200019D12A463146A06801F04AF898B90B48EA
:10363000FCF7D8FF0DE0072DF9D12A46314609489D
:1036400001F03EF80028F2D10448FCF7CBFF064B0E
:103650001C68204670BD6468DCE700BF540E002083
:10366000500E002069BB00085C0E0020002070474F
:1036700070477047F8B503681B6D0E4604468F18F7
:1036800098473546BD4207D0236815F8011B9B6C4F
:10369000204698470130F5D1236820465B6D984756
:1036A000A81BF8BDF8B503681B6D0E4604468F18BD
:1036B00098473546BD4208D023682046DB6C9847C2
:1036C000431C02D005F8010BF4E7236820465B6D2C
:1036D0009847A81BF8BD002070477047002070472E
:1036E0000020704710B5054B03605033044640F886
:1036F000043FFFF74FFF204610BD00BF8CBB000802
:10370000A0F10400EEE700BF10B50446FFF7EAFFA2
:103710002046FDF78FFC204610BDA0F10400F3E722
:10372000104B13B50022044640F8043BFFF714FF8A
:103730000D4B236060336360002363610B492046B7
:10374000FDF7C4FC0346606120B1FDF7F8FA20469E
:1037500002B010BD0090024605490648FFF7BCFEC6
:10376000F5E700BF30BD000804BC0008E4BB00085A
:10377000E7BB00081901018010B5074B03F10802EF
:103780006833044602604360406900F00BF920464C
:10379000FFF7A8FF204610BDFCBB000838B5036842
:1037A00004461B6D9847606900F0C4F96069FDF735
:1037B000C9FA236805465B6D20469847284638BD00
:1037C0000EB477B5036807AD044655F8046B1B6D5E
:1037D00098476069019500F0ADF9019A606931463A
:1037E00002F080FF236805465B6D20469847284617
:1037F00003B0BDE8704003B070470000EFF31083E2
:10380000DB4372B6044A117829B9044903F0010375
:103810000B70012313707047610E0020600E0020B2
:1038200008B5EFF31083DB0704D4352205490648B9
:10383000FFF70EFD054B00221A70054B1B7803B1F4
:1038400062B608BD6CBC0008C8BC0008610E002050
:10385000600E002013B50E4CFFF7C2FC22884FF615
:10386000FF739A420AD1FFF7D1FC0023228800930C
:1038700008490948FFF730FE02B010BD012120467B
:10388000FFF7D2FC02B0BDE81040FFF7BFBC00BF9D
:10389000620E0020E2BC00082301048037B50C4C06
:1038A000FFF79EFC258855B9FFF7B0FC22880095EC
:1038B0002B4608490848FFF70FFE03B030BD012131
:1038C0002046FFF7BBFC03B0BDE83040FFF79EBCCD
:1038D000620E002007BD000824010480036870B553
:1038E0001B690122002104469847051E0DDB236851
:1038F00002221B6900212046984723680646294674
:103900001B690022204698473546284670BD0000B6
:10391000014B1868704700BFA802002070B539B18C
:1039200005460C4608B1836B83B3B4F90C3013B968
:103930000026304670BD2146284600F03BF8E36A79
:10394000064633B1E169284698470028B8BF4FF0D2
:10395000FF36A3891B0620D4216B41B104F140033B
:10396000994202D0284606F089FD00232363616C4A
:1039700021B1284606F082FD0023636400F0E0F9DF
:103980000023A38100F0DEF9304670BD00F0D2F9CB
:10399000B4F90C30002BCBD0CDE72169284606F0D6
:1039A0006DFDD9E7024B01461868FFF7B7BF00BFAE
:1039B000A8020020B1F90C309AB22DE9F0410C4672
:1039C0001107804648D4626843F40063002AA3814B
:1039D0005DDDA56A002D57D000229BB2D8F80060AB
:1039E000E169C8F8002013F4805254D10123404605
:1039F000A847431C66D0A389A56AE1695F0705D57E
:103A00006268236B801A0BB1E36BC01A0246002375
:103A10004046A847451C48D1D8F80020B4F90C30DE
:103A2000002A5CD01D2A01D0162A64D12269002107
:103A3000C4E9002123F40063A381216BC8F800606E
:103A400011B304F14003994202D0404606F016FD3E
:103A500000202063BDE8F0812669AEB125682660AC
:103A600091070CBF63690023AD1BA3600AE02B46DE
:103A70003246676AE1694046B8470028A5EB000571
:103A800006440ADD002DF2DC0020BDE8F081E26B87
:103A9000002A9EDCF8E7206DB0E7A38943F04003DD
:103AA000A3814FF0FF30BDE8F081B4F90C302269FA
:103AB000226023F4006300226260DA04A381BCD593
:103AC0002065BAE7D8F80030002B94D01D2B0FD01A
:103AD000162B0DD0A38943F04003A381D5E723F42F
:103AE00000632169A381DB04C4E90012A5D5E7E7DF
:103AF000C8F80060C8E743F04003A381C5E700BFF2
:103B000010B5044682B008B1836B23B1B1F90C0043
:103B100048B902B010BD019100F00CF90199B1F95A
:103B20000C000028F5D0204602B0BDE81040FFF799
:103B300041BF00BF20B1054B01461868FFF7E0BF49
:103B4000034B0449186800F093BC00BFA802002092
:103B500078BD0008013B000838B50F4B1D680446CE
:103B60000DB1AB6B4BB16368013B002B63600CDBA9
:103B700023685A1C2260187838BD284600F0DAF80D
:103B80006368013B002B6360F2DA21462846BDE8FA
:103B9000384000F0C5BF00BFA8020020014900F076
:103BA00067BC00BF1D3900082DE9F84F45682C4B54
:103BB000C3630024074600F53B7204230321C0E9D8
:103BC000B912C0F8E0422146EB6005F15C006C667A
:103BD000C5E90044AC60C5E90444AC61082200F0CA
:103BE000A3FEDFF888B0BE68DFF884A0DFF8849019
:103BF000DFF884801B4BC5F82C80C5E9075BC5E95D
:103C000009A92146F360082206F15C007466C6E942
:103C10000044B460C6E90444B46100F085FEFD6868
:103C2000114BC6F82C80C6E9076BC6E909A92146E5
:103C3000EB606C66C5E90044AC60C5E90444AC6166
:103C400005F15C00082200F06FFE0123C5E9075B67
:103C5000C5E909A9C5F82C80BB63BDE8F88F00BF92
:103C60009D3B00080900010012000200B94C000849
:103C7000DD4C00081D4D00083D4D000870B54A1E82
:103C8000682505FB02F50E4605F1740106F0F2FB0E
:103C9000044640B100210C30666005F168022160E5
:103CA000A06000F041FE204670BD00BF1F4B70B504
:103CB0001D68AB6B06464BB305F53875D5E9013485
:103CC000013B05D51EE0013B5A1C04F1680419D0E4
:103CD000B4F90C20002AF6D10025154B6566C4E91D
:103CE0000055A560C4E90455A5612946E360082292
:103CF00004F15C0000F018FEC4E90C55C4E911554C
:103D0000204670BD2C682CB12546D7E72846FFF722
:103D10004BFFD1E704213046FFF7B0FF044628608F
:103D20000028F1D10C233360EAE700BF78BD00081A
:103D30000100FFFF836B03B17047FFF735BF00BF82
:103D4000704700BF704700BF38B50A4C0A4D641B6E
:103D5000A4100AD004F18043013B05EB8305013C2C
:103D600055F804399847002CF9D1BDE8384007F0E0
:103D700085B900BF640C0020600C0020F0B513462C
:103D800083B00F4601AA1946064603F0D3FDF0B1F1
:103D900005463046FFF78AFF0446C0B139464FF466
:103DA000DB73019A304600F00FFE00281CDB124B3B
:103DB0001249134AE081C4E90743124BE362EB0561
:103DC000A581C4E9091206D4204603B0F0BD002441
:103DD000204603B0F0BD304602230022214600F009
:103DE0001BF8204603B0F0BD0025FFF7A9FFA58111
:103DF000FFF7A8FF2C46E7E7B94C0008DD4C0008A8
:103E00001D4D00083D4D0008024B0A46014618684A
:103E1000FFF7B4BFA802002000F000B82DE9F04F72
:103E20000C4697B091461D46064608B1836BB3B168
:103E3000A38903F48473B3F5847F18D0A76A002F95
:103E400000F05081012D56D0022D15D0A5B11623BA
:103E500033604FF0FF38404617B0BDE8F08FFFF7F2
:103E600069FFA38903F48473B3F5847FE6D1214607
:103E70003046FFF745FEE1E722694FF0000AD046E1
:103E8000002A5CD0B4F90C3040F61A019AB20A420A
:103E900007D1510571D4964A974255D043F4006337
:103EA000A38121463046FFF72BFE80460028D0D163
:103EB0002B464A46E1693046B8470130C9D0216BEC
:103EC00041B104F14003994202D0304606F0D6FADF
:103ED00000232363A3892269226023F40263002163
:103EE000A381616004F15C00082200F01DFD4046E2
:103EF00017B0BDE8F08F21463046FFF701FEA389D9
:103F000013F4805240F09C802B46E1693046B8475C
:103F1000B0F1FF3F80469CD0A38922695D0740F144
:103F200095806368216BA8EB030811B1E06BA8EBE7
:103F30000008C1444FF0010A0025002AA2D1214601
:103F4000304600F011FB9DE7B4F90E100029A5DB07
:103F50006A46304600F0CEF8002840F0A980019A69
:103F6000B4F90C3002F47042B2F5004F96D143F42C
:103F700080634FF48062A381E264002D70D1CB4650
:103F8000BAF1000F7BD1A389DA0440F18880206D5B
:103F90006368216BA0EB03081A46002975D0E06B1B
:103FA000A8EB0008A26BD4F810C09844A2EB0C0256
:103FB000A8EB02080244C34503DB08EB02035B45A0
:103FC00079D8E36CE1695B4203EA0B0842460023BF
:103FD0003046B84701303FF464AF2369216B23605A
:103FE0000023636041B104F14003994202D030469E
:103FF00006F044FA00232363A389BBEB080B23F0EC
:104000002003A38110D02146304600F0FDFC00289B
:104010007FF447AF63685B45FFF443AF2268A3EBCF
:104020000B035A44C4E9002304F15C000822002178
:1040300000F07AFC4FF00008404617B0BDE8F08F62
:104040005D07D4F8508022693FF56BAF18077FF504
:1040500070AF2368002B3FF46CAF9B1A984468E75D
:104060006A46B4F90E10304600F044F800287FF498
:1040700018AF049B09EB030BBAF1000F83D0216B3F
:1040800011B16368E06B8DE762682068D4F810C0F6
:10409000A0EB0C00A8EB0008024400218BE70123F1
:1040A0005246E1693046B847431C7FF471AFF8E6E9
:1040B000B4F90C30F2E6ABEB08080CEB0803A2EB0A
:1040C0000802C4E9003241B104F14003994202D030
:1040D000304606F0D3F900232363A38923F020039D
:1040E000A381A1E71D2333604FF0FF38B3E600BF83
:1040F0001D4D000838B50B46074C054611461846BD
:1041000000232360FCF77FFF431C00D038BD2368E9
:10411000002BFBD02B6038BDEC0F00209368002BE8
:1041200000F002812DE9F04FB1F90C309BB20C4642
:10413000190783B08246904635D522699AB313F0A9
:104140000202D8F800603DD00027D4F824B0D4F89B
:104150001CC0DFF8CC923D464D452B463A4628BF61
:104160004B4661465046D5B1D847002840F3D2802F
:10417000D8F808301B1A07442D1AC8F80830002B4D
:1041800000F0B780D4F81CC0D4F824B04D452B46BD
:104190003A4628BF4B4661465046002DE4D1D6E949
:1041A00000750836D8E72146504602F08FFB0028FC
:1041B00040F03081B4F90C30D8F800609BB213F0B5
:1041C0000202C1D113F0010940F0B080A768206855
:1041D0004D46002D54D09A0540F1BC80AF42BB46FD
:1041E00000F2E78013F4906F2FD0D4E9041707EBA7
:1041F0004707A0EB010B07EBD777681C7F105844EB
:10420000B8423A4684BF07463A465B0540F1E9802A
:104210001146504606F02EF9002800F0F5805A4667
:104220002169019000F07EFAA289019B22F490623C
:1042300042F08002A281A7EB0B0203EB0B00676147
:1042400023612060A2602F46AB465A46494600F0E3
:1042500003FBA2682368D21B5B442F46A260236045
:104260000025D8F80830DB1BB944C8F80830002B0B
:104270003FD0B4F90C30A76820689BB2002DAAD1BA
:10428000D6E900950836A4E70BF1080353E9026765
:104290009B460833002FF9D03A460A21304600F0F9
:1042A000BFF9002853D00130A0EB06094B46D4E9F2
:1042B00004122068BB4228BF3B46884203D9A56848
:1042C0001544AB4219DC9A427DDC1346656AE1690C
:1042D00032465046A847051E1CDDB9EB05096BD0D8
:1042E0000120D8F808305B1B2E447F1BC8F808302B
:1042F00013BB002003B0BDE8F08F31462A4600F022
:10430000ABFA23682B44236021465046FFF7F8FBA5
:104310000028E2D0B4F90C3043F040034FF0FF30F6
:10432000A38103B0BDE8F08F00207047334691466B
:10433000104617464E469B46002FA5D00028B5D103
:104340003A460A21304600F06BF90028ABD17B1CBD
:104350009946ACE72369834215D36169A94212D813
:104360002E4B676A9D4294BF2B466FF000434A462E
:1043700093FBF1F3504601FB03F3E169B847071ED5
:10438000C8DDED1B6DE7AF4228BF2F463A464946D0
:1043900000F062FAA3682268DB1B3A44A360226043
:1043A000002BEED121465046FFF7AAFB0028E8D0AB
:1043B000B0E72F46AB4648E721465046FFF7A0FB43
:1043C00000288ED0A6E71A463146019300F044FA41
:1043D000019BA1682268C91A1A44A16022601D4687
:1043E0007BE7504606F048F8034600287FF423AFE9
:1043F0002169504606F042F8B4F90C300C2223F043
:104400008003CAF8002087E70C23CAF80030B4F90B
:104410000C3081E74FF0FF306CE700BFFEFFFF7FFD
:1044200000FCFF7F2DE9F04110F538771BD088465E
:104430000026D7E90154013D0FD4A389012B05F1D2
:10444000FF3506D9B4F90E300133204601D0C047FC
:1044500006436B1C04F16804EFD13F68002FE8D1DC
:104460003046BDE8F0813E463046BDE8F08100BFF1
:104470002DE9F84310F538771FD0884606464FF0EF
:104480000009D7E90154013D11D4A389012B05F19D
:10449000FF3508D9B4F90E3001332146304602D039
:1044A000C04749EA00096B1C04F16804EDD13F687C
:1044B000002FE6D14846BDE8F883B9464846BDE836
:1044C000F88300BF70B50D4E0D4D761BB61006D0AB
:1044D0000024013455F8043B9847A642F9D1094E0F
:1044E000094D761B06F0C4FDB61006D00024013439
:1044F00055F8043B9847A642F9D170BD580C0020EE
:10450000580C0020600C0020580C002070B50C46A0
:10451000B1F90E10002996B015461E4614DB6A4606
:10452000FFF7E8FD00280FDB019A02F47042A2F5C4
:104530000052B2FA82F252094FF480634FF40060E5
:1045400032602B6016B070BDA289002312F080008B
:10455000336004D0402218462A6016B070BD4FF474
:1045600080632B6016B070BD8A8992070B4606D512
:1045700001F1430201211A60C3E90421704770B5BB
:1045800082B001AB6A460C460646FFF7BFFF0099B2
:104590000546304605F06EFFB4F90C3070B116498F
:1045A000F163019A0099206043F08003A381C4E97C
:1045B00004018AB92B43A38102B070BD9A05FBD4D4
:1045C00023F0030304F1430243F002030121A3811A
:1045D0002260C4E90421EFE73046B4F90E1003F07D
:1045E000E3F910B9B4F90C30E4E7A38923F003032D
:1045F00043F001031BB2DDE79D3B0008024B01467F
:10460000186805F037BF00BFA8020020024B014622
:10461000186805F033BF00BFA802002000000000AA
:1046200001F0FF01102A2BDB10F0070F08D010F863
:10463000013B013A8B422DD010F0070F42B3F6D167
:10464000F0B441EA012141EA014122F007047FF080
:1046500000070023F0E80256083C85EA010586EAD7
:10466000010685FA47F5A3FA87F586FA47F6A5FA13
:1046700087F68EB9EED1F0BC01F0FF0102F007021F
:1046800032B110F8013B013A83EA010313B1F8D1CA
:104690000020704701387047002D06BF35460338AB
:1046A000073815F0010F07D1013015F4807F02BFE4
:1046B000013015F4C03F0130F0BC0138704700BF35
:1046C000032A70B414D940EA0105AD0704460B462D
:1046D00022D11D682668AE421946204603F1040324
:1046E00004F1040418D1043A032A20461946F0D8EC
:1046F000541E72B103780A78934208BF241806D07A
:104700000CE010F8013F11F8012F934206D1A042AE
:10471000F7D1002070BC7047541EEBE7981A70BCAC
:10472000704700BF844641EA000313F003036DD1D4
:10473000403A41D351F8043B40F8043B51F8043B64
:1047400040F8043B51F8043B40F8043B51F8043B6B
:1047500040F8043B51F8043B40F8043B51F8043B5B
:1047600040F8043B51F8043B40F8043B51F8043B4B
:1047700040F8043B51F8043B40F8043B51F8043B3B
:1047800040F8043B51F8043B40F8043B51F8043B2B
:1047900040F8043B51F8043B40F8043B51F8043B1B
:1047A00040F8043B51F8043B40F8043B51F8043B0B
:1047B00040F8043B403ABDD2303211D351F8043BAB
:1047C00040F8043B51F8043B40F8043B51F8043BEB
:1047D00040F8043B51F8043B40F8043B103AEDD25A
:1047E0000C3205D351F8043B40F8043B043AF9D2AB
:1047F000043208D0D2071CBF11F8013B00F8013B7E
:1048000001D30B8803806046704700BF082A13D38A
:104810008B078DD010F003038AD0C3F10403D21AA2
:10482000DB071CBF11F8013B00F8013B80D331F8D6
:10483000023B20F8023B7BE7043AD9D3013A11F856
:10484000013B00F8013BF9D20B7803704B784370C1
:104850008B788370604670478842F0B40DD98B180E
:1048600083420AD9841832B1224613F8014D02F866
:10487000014D9942F9D1F0BC70470F2A0ED803467A
:10488000541E002AF7D001340C44013B11F8012BCF
:1048900003F8012FA142F9D1F0BC704740EA0103AF
:1048A0009B073BD1A2F110073F0901F1200606EB5F
:1048B000071601F1100300F1100453F8105C44F8DE
:1048C000105C53F80C5C44F80C5C53F8085C44F83A
:1048D000085C53F8045C44F8045C1033B34204F100
:1048E0001004EAD17B1C1B0112F00C0F194402F0DA
:1048F0000F05034415D0043DAD0803EB850C1C1FC8
:104900000E4656F8047B44F8047F6445F9D101351E
:10491000AD002B44294402F00302B1E7541E0346C4
:10492000B1E72A46ACE700BFF0B4860746D0541E74
:10493000002A3CD0CAB2034602E014F1FF3436D359
:1049400003F8012B9D07F8D1032C29D9CDB245EAF4
:1049500005250F2C45EA054533D9A4F11006360983
:1049600003F1200707EB061703F1100242E9045593
:1049700042E902551032BA42F8D1721C14F00C0F01
:1049800003EB021204F00F0613D0331F23F00303CE
:104990000433134442F8045B9342FBD106F0030452
:1049A0002CB1C9B21C4403F8011B9C42FBD1F0BCE2
:1049B000704734461346002CF3D1F8E714460346FB
:1049C000C2E71A462646E0E770B50D46084C114688
:1049D00006461A46284600232360FCF7E1FB431CE9
:1049E00000D070BD2368002BFBD0336070BD00BFCA
:1049F000EC0F0020838903F00903092B01D000206C
:104A00007047FFF797B800BFF8B50C46054610B1E0
:104A1000836B002B41D0B4F90C309AB2970407D4C1
:104A2000626E43F4005322F400526266A3819AB28C
:104A30000021960661605BD450071BD4D1065AD57D
:104A400012073ED443F00403A3812369002B44D012
:104A5000B4F90C70BEB2B30722D122692260284695
:104A60006369256AE169A84700286060C8BF002023
:104A700038DDF8BD216B0029E7D004F140039942ED
:104A800002D0284605F0FAFCE36B63600020206347
:104A9000002BDAD0A36B2360F8BDFFF74BF9BAE720
:104AA0001D4B1E4918680123A38106F00906FFF774
:104AB000B9FC092EA781D0D121462846FEF77AFFFE
:104AC000CBE721462846FFF71BF888B9B4F90C302C
:104AD000A060A06123F00803B4E721462846FFF751
:104AE00043FDB5E7B4F90C300DD143F02003A381A9
:104AF0004FF0FF30F8BD43F0400309222A604FF029
:104B0000FF30A381F8BD43F040030022A38162601F
:104B10004FF0FF30F8BD00BF78BD0008F549000830
:104B200038B50C46054608B1836B63B1284621466B
:104B3000FFF76AFF50B9D4E90023013B511CC4E9D7
:104B40000013107838BDFFF7F5F8EFE74FF0FF30AE
:104B500038BD00BF00290CBF022200224FF4806341
:104B600000F000B82DE9F043524C256883B00446AC
:104B70000F4690461E4615B1AB6B002B65D0B8F1C1
:104B8000020F06D0B8F1010F00F29180002EC0F2A2
:104B90008E8021462846FEF7B3FF216B41B104F118
:104BA0004003994202D0284605F068FC00232363A5
:104BB000B4F90C300022A26162601A064DD423F4CD
:104BC0004A6323F00303B8F1020FA3814CD001AB79
:104BD0006A4621462846FFF799FCA3891843A0811D
:104BE00016B317B3AB6B63B3009BB4F90C0027602B
:104BF000B3421CBF40F40060A081B8F1010F08BFB0
:104C000040F0010083B208BFA08113F00800C4E99E
:104C100004761ED013F0010035D000207642A66144
:104C2000A06003B0BDE8F083009E3046FFF7E6FCCD
:104C3000074660B3A38943F08003A381AB6B002BCD
:104C4000D2D12846FFF776F8CEE72846FFF772F86C
:104C500095E7A06003B0BDE8F0832169284605F020
:104C60000DFCB4F90C30AAE7002004F1430243F034
:104C7000020300250121A381A5602260C4E904216B
:104C800003B0BDE8F083A66003B0BDE8F083DDF8B3
:104C90000090B14506D04846FFF7B0FC074608B182
:104CA0004E46C7E7B4F90C304FF0FF30DDE74FF068
:104CB000FF30CFE7A802002010B50C46B1F90E1066
:104CC00003F0C0F9002803DB236D0344236510BD06
:104CD000A38923F48053A38110BD00BF2DE9F041C7
:104CE0001646B1F90C201F46D3050C460546B1F90E
:104CF0000E1009D422F48052A2813B463246284647
:104D0000BDE8F04101F0CCBD0022022302F068FEB4
:104D1000B4F90C20B4F90E10ECE700BF10B50C4646
:104D2000B1F90E1002F05CFEA389421C0EBF23F401
:104D3000805343F480532065A38110BDB1F90E1058
:104D400001F02CBE00000000000000000000000088
:104D50000000000000000000000000000000000053
:104D6000A2EB0300704700BF02780B78012A28BF2E
:104D70009A42F5D16DE9044540EA0104CDE90267A4
:104D80006FF0000C4FEA447212B380EA010414F091
:104D9000070F6AD100F0070420F0070004F00305B4
:104DA00021F007014FEAC505F0E8042314F0040FD1
:104DB000F1E804670CFA05F462EA040266EA040604
:104DC0000AD063EA0403624667EA0407664603E022
:104DD000F0E80423F1E8046782FA4CF582EA06045D
:104DE000A4FA8CF46CBB83FA4CF583EA0705A5FAA8
:104DF0008CF595B950E9022351E9026782FA4CF526
:104E000082EA0604A4FA8CF483FA4CF583EA0705D7
:104E1000A5FA8CF52543DBD09CB92DBAB5FA85F4FB
:104E200024F0070427FA04F1DDE9026723FA04F30A
:104E300003F0FF0001F0FF01FDE80445A0EB0100D5
:104E4000704724BAB4FA84F424F0070426FA04F173
:104E5000DDE9026722FA04F202F0FF0001F0FF012F
:104E6000FDE80445A0EB0100704714F0030F3CD1AE
:104E700010F0030428D150F8082B51F8083B82FAAF
:104E80004CF582EA0305A5FA8CF55DB950F8042CBF
:104E900051F8043C82FA4CF582EA0305A5FA8CF538
:104EA000002DE8D02DBAB5FA85F424F0070423FAD2
:104EB00004F122FA04F202F0FF0001F0FF01FDE824
:104EC0000445A0EB010070474FEAC40420F0030042
:104ED00050F8082B21F0030151F8083B0CFA04F4B8
:104EE00062EA040263EA0403C9E710F003041AD07B
:104EF000A1EB040120F00300E40750F8042B06D0D6
:104F00000FD28B785FFAA2F4E41A06D12BB1CB78DA
:104F10005FFAB2F4E41A00D11BB920465DF8104BD9
:104F2000704701F1040150F8042BCC0721F0030174
:104F300051F8043B48D824D222F07F4482FA4CF541
:104F400094EA1325A5FA8CF50AD165B951F8043B0A
:104F500084EA0204B4EB036F0ED150F8042BEBE7A4
:104F60004FEA132355E035F07F454DD10878FDE831
:104F70000445C0F1000070474FEA126203F0FF03DE
:104F800047E002EA1C4482FA4CF594EA1345A5FA7C
:104F90008CF50AD165B951F8043B84EA0204B4EBFC
:104FA000034F0CD150F8042BEBE74FEA134330E0EA
:104FB00015EA1C4528D10B884FEA124229E04FEA36
:104FC000124203EA1C4324E002F0FF0482FA4CF58B
:104FD00094EA1365A5FA8CF50AD165B951F8043B3A
:104FE00084EA0204B4EB032F09D150F8042BEBE759
:104FF0004FEA13630DE015F0FF0F05D10B684FEA80
:10500000122223F07F4304E04FF00000FDE8044546
:10501000704712BA1BBA82FA4CF482EA0304A4FA6B
:105020008CF5B5FA85F402FA04F203FA04F34FEAB8
:105030001260FDE80445A0EB13607047000000001B
:1050400090F800F06DE9024520F007016FF0000CC8
:1050500010F0070491F820F040F049804FF0000470
:105060006FF00700D1E9002391F840F000F108004B
:1050700082FA4CF2A4FA8CF283FA4CF3A2FA8CF383
:105080004BBBD1E9022382FA4CF200F10800A4FAEA
:105090008CF283FA4CF3A2FA8CF3E3B9D1E904233E
:1050A00082FA4CF200F10800A4FA8CF283FA4CF375
:1050B000A2FA8CF37BB9D1E9062301F1200182FA2F
:1050C0004CF200F10800A4FA8CF283FA4CF3A2FA35
:1050D0008CF3002BC6D0002A04BF04301A4612BA43
:1050E000B2FA82F2FDE8024500EBD2007047D1E946
:1050F000002304F00305C4F100004FEAC50514F0D5
:10510000040F91F840F00CFA05F562EA05021CBFA5
:1051100063EA050362464FF00004A9E770B404781F
:10512000A4B10E7805464EB1A6420AD00A4601E067
:10513000A34206D012F8013F002BF9D1281A70BC07
:10514000704715F8014F002CEDD1F7E72046F6E740
:105150002DE9F04FC3B01C460891914605460C90CE
:1051600002F034FC036815931846FFF769FF0D94AD
:1051700013901DB1AB6B002B00F090830899B1F92F
:105180000C2093B29E04084607D4496E42F40053A3
:1051900021F40051838141669BB21D0740F1B2802A
:1051A000089A1269002A00F0AD8003F01A030A2B56
:1051B00000F0B6809FEDA87B00238DED107B12934D
:1051C000CDE9263314931693099332AB25939A466F
:1051D00099F80030002B00F0BF80252B00F0F486FA
:1051E0004D4603E0252B00F0A98025466B786C1C0A
:1051F000002BF7D1B4EB090600F0AE80DDE92632D2
:1052000001333244072BCAF80090CAF80460CDE994
:10521000263200F398800AF1080A099A6B78324422
:105220000992002B00F09880002367788DF8773082
:105230001A4619460A939B4604F101094FF0FF36BE
:1052400009F10109A7F12003582B00F22B83DFE8B5
:1052500013F0DA0029032903D500290329032903C0
:10526000290329032903CA00C5002903C000A70098
:105270002903A200930093009300930093009300EE
:105280009300930093002903290329032903290389
:10529000290329032903290329039A02590229030F
:1052A00059022903290329032903AC0229032903ED
:1052B0001D0229032903290329032903470229037E
:1052C00029032F0229032903290329032903290379
:1052D0002903290329032903A2014801590259027C
:1052E0005902EC02480129032903DF022903C702FE
:1052F000B102F602F10229031F0129030901290362
:105300002903E20008990C9801F0E0FA002841F026
:105310007481089B9B8903F01A030A2B7FF44AAF20
:10532000089BB3F90E30002BFFF644AF23464A46E4
:1053300008990C9801F0E2F9099019E0B4EB09061C
:105340003FF472AF5AE725AA08990C9804F05CF96B
:1053500048B90DF1C80A60E7279B23B10C9808995A
:1053600025AA04F051F9089B9B895A0601F1458151
:10537000099843B0BDE8F08FA7F13003002019F879
:10538000017B00EB800003EB4000A7F13003092B09
:10539000F5D90A9056E74BF0800B99F800704FE76B
:1053A000484610F8017B2A2F01F08081A7F13003D5
:1053B000092B81464FF000063FF644AF19F8017BF8
:1053C00006EB860603EB4606A7F13003092BF5D959
:1053D00038E799F800704BF0040B31E799F800704A
:1053E00001222B212CE70D9B99F8007053F8040B38
:1053F0000A900028C0F2A1860D9321E74BF0010B23
:1054000099F800701CE799F8007000297FF418AF34
:105410000122202114E7002A41F0E780104B149369
:105420001BF0200F00F04D810D9C073424F0070382
:10543000F3E802450D931BF0010F00F0448254EA9B
:10544000050300F0408230238DF878308DF87970B4
:105450004BF0020B022302E20000000000000000FB
:10546000A0BD0008002A41F0B8801BF0200F40F0DA
:105470005C820D9A1BF0100F52F8044B41F02A8108
:105480001BF0400F0D9218BFA4B200250123E6E1E6
:105490000D9C54F8043B0E9300258DF87750002B9B
:1054A00000F07886711C00F05487324629460E9829
:1054B000FFF7B6F8002801F05A800E9BC31A0B9331
:1054C0002E4623EAE3739DF877800D94CDF818B04B
:1054D00007930F96B8F1000F6FD0079B0133079326
:1054E0006BE0002A41F06D801BF0200F40F0ED8151
:1054F0000D9B1BF0100F03F1040241F0E8800D9B9F
:105500000D921BF0400F14BFB3F900401C68E51763
:1055100022462B46002A73F10003594680F2E581AA
:1055200064424FF02D0865EB4505721C8B468DF8E3
:1055300077804FF0010340F09981012B00F08983BF
:10554000022B00F0268432A900E01146E20842EA6C
:105550004572E80804F0070305461446303354EA60
:10556000050001F8013C01F1FF32EED11BF0010F03
:105570000E9200F0D184302B00F03D860E9ACDF8CB
:1055800018B03023023902F8013C32AB5B1A0B939E
:105590000E9100F016BC0D9C002354F8042B8DF8DE
:1055A000A0208DF87730012228AB07920D940B9242
:1055B0000E930026CDF818B00F96069B13F0020349
:1055C00002D0079A02320792069A279C12F0840BA7
:1055D00005D10A9A0799551A002D00F34A839DF8C0
:1055E000772072B1269A013201340DF17700012142
:1055F000072ACDE92624CAE9000100F377830AF1DE
:10560000080A6BB1269B013302341EA90222072B24
:10561000CDE92634CAE9001200F376830AF1080ABC
:10562000BBF1800F00F0F5810B9BF61A002E00F302
:105630003982069BDB0500F18181269B0E9ACAF810
:1056400000200B9ACAF8042001331444072B279436
:10565000269300F39B820AF1080A069B590705D599
:105660000A9B079A9D1A002D00F35A83DDE909323F
:1056700007998A42ACBF9B185B180993002C40F035
:105680004B82002326930DF1C80AA1E5002A40F0C1
:105690008C871BF0200F4BF0100340F03B810D9ADC
:1056A00004320D990D929B460C6800250023D6E02C
:1056B000002A40F07E87C24B14931BF0200F7FF42A
:1056C000B3AE0D9B1BF0100F53F8044B0D9340F03D
:1056D00073841BF0400F00F06F84A4B20025AAE68B
:1056E000002A40F086871BF0200F4BF0100340F09B
:1056F0001B810D9A04320D990D929B460C68002572
:105700000123ACE0002A40F058870D9C073424F0B8
:105710000703B3EC027B55EC174B0D9325F00043C8
:1057200019938DED187ADDE918014FF0FF32A54B82
:105730008DED107B04F0ECFC002840F05B844FF012
:10574000FF32A04BDDE9180104F0C4FC002840F052
:105750005184002200232046294604F0B1FC002891
:1057600040F06A869DF87780974A984B032100267F
:105770002BF08000472FC8BF1A46079106900E9263
:105780000B910F96A6E6002A40F01F871BF0200F12
:105790004BF0100140F09A800D9B1A1D0D9B0D924D
:1057A0001C68E51722462B469AE04BF0080B99F847
:1057B000007045E5002A40F00C871BF0200F40F0F8
:1057C000AA800D9A1BF0100152F8044B40F07C8720
:1057D0001BF040030D921CBF0B46A4B200253EE017
:1057E000002A40F0FE860D9A1BF0200F02F1040300
:1057F00040F0F6831BF0100F40F004851BF0400FC3
:1058000000F000850D9A0D931268099B1380DFE468
:1058100099F800706C2F03BF99F801704BF0200BC2
:1058200009F101094BF0100B0AE54BF0400B99F818
:10583000007005E54BF0200B99F8007000E50D9C19
:1058400054F8043B0D9447F630021C46604B149309
:10585000ADF878204BF0020B0025022378274FF09B
:105860000008721C8DF877803FF467AE2BF0800241
:10587000069254EA050240F0E781002E40F02885A8
:10588000002B42D11BF001030B9300F0A6833023C1
:105890008DF8C7300DF1C7030E9392E20C98FEF716
:1058A00049FA6BE4002A40F0E185002F3FF454AD43
:1058B000002301228DF8773028AB07928DF8A07075
:1058C0000B920E9375E60223C9E759460D9C0734E7
:1058D00024F007031846F0E802230D9014461D46F5
:1058E000002A73F10003FFF61BAE731C9DF877804E
:1058F00000F0218454EA050321F0800B40F0A981D7
:10590000002E40F0AB81CDF818B0002632AB0B96DC
:105910000E9356E29B460D9C073424F00703F3E8F0
:1059200002450D9300239AE79B460D9C073424F013
:105930000703F3E802450D93012390E7652F40F339
:10594000318100220023DDE9100104F0AFFB0028C3
:1059500000F04082269B1F4ACAF800200133013420
:105960000122072BCDE92634CAF8042000F39784DE
:105970000AF1080A1F9B129A279C934280F2278300
:10598000269B159ACAF80020139ACAF804200133FE
:105990001444072BCDE9263400F3F0830AF1080AFA
:1059A000129B5D1E002D7FF758AE102D269ADFF852
:1059B00028B040F36A8410260C9FDDF8208013E0A5
:1059C0008CBD0008FFFFEF7F7CBD000880BD000894
:1059D000A0BD0008BCBD0008D0BD00080AF1080A3F
:1059E000103D102D40F3518401321034072ACDE9C7
:1059F0002624CAE900B6F1DD25AA4146384603F05F
:105A000003FE00287FF4AFACDDE926240DF1C80ABF
:105A1000E6E70A9B079A9D1A002D7FF705AE102D29
:105A2000269ADFF8A0B52DDD584653462146CA46D2
:105A3000BB46B1464FF010080C9C089E074604E098
:105A4000103D102D03F1080315DD01321031072A36
:105A5000CDE92621C3E90078F2DD25AA31462046AA
:105A600003F0D2FD00287FF47EAC103D102DDDE95F
:105A7000262132ABE9DC4E46D1469A463B460C46DF
:105A80005F469B4601322C44072ACDE92624CAE909
:105A900000B500F310840B9BF61A002E0AF1080AD9
:105AA0007FF7C7AD102E269ADFF818B528DD5946C6
:105AB0002346BB461025DDF83080089C0F4604E0E5
:105AC000103E102E0AF1080A16DD01321033072AA3
:105AD000CDE92623CAE90075F2DD25AA2146404614
