:020000040800F2
:100000000080012079210008C5210008C5210008D1
:10001000C5210008C5210008C52100080000000016
:10002000000000000000000000000000C5210008E2
:10003000C521000800000000C5210008C5210008F6
:10004000C5210008C5210008C5210008C5210008F8
:10005000C5210008C5210008C5210008C5210008E8
:10006000C5210008C5210008C5210008C5210008D8
:10007000C5210008C5210008C5210008C5210008C8
:10008000C5210008C5210008C521000800000000A6
:10009000000000000000000000000000C521000872
:1000A000C5210008C5210008C5210008C521000898
:1000B000C5210008C5210008C5210008C521000888
:1000C000C5210008C5210008C5210008C521000878
:1000D000C5210008C5210008C52100080000000056
:1000E000C5210008C5210008C52100080000000046
:1000F000000000000000000000000000C521000812
:1001000000000000C5210008C5210008C521000825
:1001100000000000000000000000000000000000DF
:10012000C5210008C5210008C5210008C521000817
:10013000C5210008000000000000000000000000D1
:10014000000000000000000000000000C5210008C1
:10015000C5210008C5210008C5210008C5210008E7
:10016000C5210008C52100080000000000000000B3
:10017000000000000000000000000000000000007F
:1001800000000000C5210008000000000000000081
:10019000C5210008044B05481B1A062B02D9044B45
:1001A00003B11847704700BF5B0B0020580B0020BD
:1001B0000000000005490648091A891001EBD171B9
:1001C000491002D0034B03B118477047580B002069
:1001D000580B00200000000010B5064C237843B9EE
:1001E000FFF7D8FF044B13B10448AFF3008001239D
:1001F000237010BD580B00200000000008BA000852
:1002000008B5084B1BB108480849AFF300800848FF
:10021000036813B9BDE80840CCE7064B002BF9D0C2
:100220009847F7E70000000008BA00085C0B0020C0
:10023000540B002000000000134B002B08BF114B93
:100240009D46A3F5803A00218B460F461148124A7D
:10025000121A04F049F90D4B002B00D098470C4BB3
:10026000002B00D098470020002104000D000B480F
:1002700001F0C5F903F0ACFF2000290001F03CFBC0
:1002800001F0BAF900000800008001200000000021
:10029000E9180008580B0020981000202941000898
:1002A00008B500F075FC002008BD034610B107C971
:1002B00083E807007047704742680368806812F05F
:1002C000010F4FEA620218BF8158104418BFCB5883
:1002D000184710B50446806903F06CF8D4F8F43080
:1002E00001280CBF03F1FF330133C4F8F43010BD13
:1002F00010B50446006A03F05DF8D4F8F830012820
:100300000CBF03F1FF330133C4F8F83010BD38B52A
:100310001C2204460D46002104F0E6F8204629463A
:1003200002F0E1FF204638BD38B504460D4603F023
:100330000DFC237E1BB903F0C1F801232376204670
:10034000294601F0D9FBBDE8384003F015BC000098
:1003500010B5044602F0E6FE2046064B40F8283B66
:100360000021102204F0C0F8012384F83830204620
:1003700010BD00BFD4B30008D0B5194604461646D8
:100380001F4610460023002209F094FA50B1E3689A
:1003900013499A681B681360002032463B4608F0F8
:1003A0004FFE11E0304639460022002309F06EFA74
:1003B00080B1E368DA681B681B0413603046394675
:1003C0000022074B08F03EFE09F0B0FA0146206813
:1003D000FFF7AAFFA3689A681B681360D0BD00BF2F
:1003E0000000F03FD0B51946044616461F46104699
:1003F0000023002209F05EFA50B1236913499A687C
:100400001B681360002032463B4608F019FE11E0DD
:10041000304639460022002309F038FA80B12369BA
:10042000DA681B681B041360304639460022074B0C
:1004300008F008FE09F07AFA01466068FFF774FFD9
:10044000A3689A681B681360D0BD00BF0000F03F2E
:100450002DE9F047D0E946674FF000084FF000095A
:1004600004463946304642464B4609F005FA40B14B
:100470004B4620464246FFF77FFF4B4BC3E90089BE
:1004800035E00FF21419D9E9008930463946424661
:100490004B4609F0F1F910B1C4E9468927E0D4E9E7
:1004A00042893246404649463B4609F0EFF940B1A1
:1004B0003D4D3BA3D3E90023D5E9000108F0C2FD7F
:1004C0000EE04046494632463B4609F0FDF970B120
:1004D000354D33A3D3E90023D5E9000108F0B0FD81
:1004E00002460B462046C5E90023FFF745FFD4E945
:1004F00044674FF000084FF0000930463946424645
:100500004B4609F0B9F948B14B4620464246FFF741
:1005100069FF264BC3E90089BDE8F0870FF278092F
:10052000D9E900893046394642464B4609F0A4F9DC
:1005300018B1C4E94489BDE8F087D4E9408932465E
:10054000404649463B4609F0A1F940B1174D14A376
:10055000D3E90023D5E9000108F074FD0EE0404620
:10056000494632463B4609F0AFF980B10F4D0CA326
:10057000D3E90023D5E9000108F062FD02460B46ED
:10058000C5E900232046BDE8F047FFF72BBFBDE8D3
:10059000F08700BFAFF30080000000000094C1406E
:1005A0009A9999999999A93F800B0020780B00207E
:1005B0002DE9F0478246D0F8F40008F08FFE0022C3
:1005C000274B8046894608F0EFFECAE94201DAF877
:1005D000F80008F083FE0022214B04460D4608F087
:1005E000E3FECAE94001DAF8280108F077FE1AA311
:1005F000D3E9002306460F464046494608F0D4FE9C
:1006000002460B463046394608F01CFD09F066F9F3
:10061000CAF82801DAF8240108F060FE0EA3D3E935
:10062000002306460F462046294608F0BDFE0B462D
:1006300002463946304608F005FD09F04FF900231F
:10064000CAF82401CAF8F430CAF8F8305046BDE8B8
:10065000F047FFF7FDBE00BFA43A55297A6AEF3F85
:1006600000C0124070B5064614461D46DDE904235D
:10067000FFF782FE304622462B46BDE87040FFF76A
:10068000B1BE30B5DDE90345C0E94423C0E94645C4
:1006900030BDC36810B504460BB19B68984720462F
:1006A00010BD38B5CB6804460D460BB15B68984762
:1006B000EB68E360204638BD2DE970432DED028BD9
:1006C00084B00446684608EE102AFFF7EAFFDFED23
:1006D000187A68EE277A6D4617EE900A09F08EF9BF
:1006E0008046894603F032FA636B13B994F83830C8
:1006F000D3B904F12806AE4207D03046FFF7C9FF50
:100700001EB130462946FFF7CCFF204642464B46F5
:1007100002F04DFD03F030FA2846FFF7BAFF04B0AF
:10072000BDEC028BBDE8708302F0C8FEE1E700BFBC
:1007300000247449F7B50D4602A901E90C000446EE
:1007400000211022009F019E03F0CEFE14B127600D
:100750006660A560024BE360204603B0F0BD00BFB9
:10076000FCAB000810B590F8F030D0F82811D0F8A4
:10077000E82088B00446A3B191420ADA012380F848
:100780002131144B00930023019304A821466B46AA
:1007900012E0002384F8213100220023C4E946231B
:1007A00016E09142F5DD012280F82121094A0393E8
:1007B000029204A8214602AB0CCBFFF7BBFF04F169
:1007C000680004A9044AFFF777FF04A8FFF761FF58
:1007D00008B010BD65070008CDCCCC3C000000007F
:1007E000F8B504460D4616461F4694F821211AB165
:1007F000134803F0F9FAF8E7D4F82831002D2B4418
:10080000C4F8E830C5BF012384F8F03084F8F02044
:100810003046CEBF3946304607F1004106A3D3E942
:10082000002308F0C1FDC4E946012046BDE8F840B8
:10083000FFF798BFAFF300800000000000C07240D7
:100840006F12833AD0B590F8F130D0F82411D0F877
:10085000EC2088B00446CBB191420ADA012380F83B
:100860002031174B02930023039304A8214602ABC7
:1008700017E000230026002784F820312046324666
:100880003B46FFF7AFFDC4E9446716E09142F0DD57
:10089000012280F820210A4A04A88DE80C00214694
:1008A0006B460CCBFFF746FF04F1A80004A9054AEC
:1008B000FFF702FF04A8FFF7ECFE08B0D0BD00BFB1
:1008C00045080008CDCCCC3CF8B504460D4616468C
:1008D0001F4694F820211AB1134803F085FAF8E76F
:1008E000D4F82431002D2B44C4F8EC30C5BF0123CB
:1008F00084F8F13084F8F1203046CEBF39463046D6
:1009000007F1004106A3D3E9002308F04DFDC4E937
:1009100044012046BDE8F840FFF794BFAFF30080E4
:100920000000000000C072406F12833A0000000017
:100930002DE9F047DDE9086704469046994694F8AA
:1009400020311BB1164803F04FFAF8E794F8213133
:10095000002BF7D1404649460022124B08F024FDF7
:100960000022114B08F04AFE0BA3D3E9002308F044
:100970001BFD08F0B3FF05466942204632463B4660
:10098000FFF72EFF2046294632463B46BDE8F0479A
:10099000FFF79ABFAFF300806C36A4F8084C804094
:1009A0006F12833A0000F43F008076402DE9F04159
:1009B00000F128078AB004463846FFF7C9FC624DAB
:1009C00004F16800FFF7C4FCA56604F1A800FFF776
:1009D000BFFCC4F8A8501C2000F058FF00250646B4
:1009E000057603F0B3F80821304601F09FF903F0D3
:1009F000C3F826601C2000F049FF0646057603F088
:100A0000A5F83046092101F091F903F0B5F8D4F8C2
:100A1000008066604D4E03F099F84046314601F083
:100A20004BFA03F0A9F8D4F8048003F08FF840469D
:100A3000314601F041FA03F09FF820684FF07E51F3
:100A4000FFF772FC60684FF07E51FFF76DFC1C20D1
:100A500000F01CFF12210646FFF759FCA6601C207F
:100A600000F014FF1C210646FFF751FCE6601C2035
:100A700000F00CFF0C210646FFF749FC0022002382
:100A8000C4E94623C4E944232661C4F82851C4F8C4
:100A9000245184F8215184F82051502000F0F6FEB2
:100AA0000E21064602F02AFC6661502000F0EEFEA0
:100AB0000D21064602F022FCA661502000F0E6FE61
:100AC0002A21064602F01AFCE661502000F0DEFE04
:100AD0002C21064602F012FC1D4B26628DE82800F0
:100AE00066699DE80C00214606A8FFF723FE06A9CB
:100AF000304602F096FC06A8FFF7CBFD154B02939B
:100B0000E669039502AB0CCB214606A8FFF712FE5F
:100B100006A9304602F085FC06A8FFF7BAFD0E4B89
:100B20000493059504AB0CCB214606A8FFF702FE03
:100B3000384606A9094AFFF7BFFD06A8FFF7A9FD39
:100B400020460AB0BDE8F08158B500080AD7A33C9A
:100B5000D3020008F1020008B1050008CDCC4C3DDD
:100B60000368184708B10B680360704770470000BE
:100B7000054A1368012BCCBF002301334FF07C5092
:100B8000136003F031B900BF880B002000000000A3
:100B90002DE9F0414FF4987086B000F077FE0446DE
:100BA000FFF704FF0021102202A803F09DFC824BF6
:100BB00002938248824B059302A902F032FC059B06
:100BC00013B19B6802A89847DFF80C82D8F8003070
:100BD000012B07D0022B53D0002BF9D1794803F019
:100BE00003F9F1E768A3D3E900232046CDE9002308
:100BF000FFF747FD66A3D3E900232046CDE9002394
:100C0000FFF730FD4FF0804003F0EEF862A3D3E928
:100C100000232046CDE90023FFF724FD4FF080405C
:100C200003F0E2F8684B0022CDE900232046FFF7ED
:100C300019FD4FF0804003F0D7F859A3D3E9002302
:100C40002046CDE90023FFF70DFD4FF0804003F073
:100C5000CBF855A3D3E900232046CDE90023FFF7C5
:100C600001FD4FF0804003F0BFF800230022CDE9E2
:100C700000232046FFF7F6FC0023C8F80030A3E766
:100C80004FF0814003F0B0F820464FF4FA7142A3D0
:100C9000D3E90023FFF7A4FD20464FF4FA713EA3E9
:100CA000D3E90023FFF710FE4FF0804003F09CF8DB
:100CB00005253FA7D7E900670022444B2046CDE930
:100CC0000067FFF735FE4FF0804003F08DF82046B7
:100CD0004FF4FA7130A3D3E90023FFF781FD2046DA
:100CE0004FF4FA712CA3D3E90023FFF7EDFD4FF089
:100CF000804003F079F8013DDBD10022344B2046DF
:100D0000CDE90067FFF714FE4FF0804003F06CF868
:100D100020464FF4FA7120A3D3E90023FFF760FDCA
:100D200020464FF4FA711CA3D3E90023FFF7CCFD52
:100D30004FF0804003F058F805250022254B20464F
:100D4000CDE90067FFF7F4FD4FF0804003F04CF869
:100D500020464FF4FA7110A3D3E90023FFF740FDBA
:100D600020464FF4FA710CA3D3E90023FFF7ACFD42
:100D70004FF0804003F038F8013DDED1C8F8005054
:100D800022E700BFAFF30080000000000094C140E4
:100D90009A9999999999B93F333333333333D33F80
:100DA000666666666666E63FCDCCCCCCCCCCEC3FC6
:100DB0009A9999999999C93F710B00088C0B002059
:100DC00008AC0008CDCCCC3D0000E03F0080564090
:100DD00000806640008056C0880B002010B5064C8D
:100DE00022212046012202F0B5FA20460349044A96
:100DF000BDE8104000F0FEBB8C0B0020C53300089E
:100E00009801002030B5036891FAA1F4B4FA84F493
:100E100091FAA1F10325B1FA81F1640005FA04F415
:100E2000490023EA040302FA01F11943016030BDCD
:100E30007FB50023072855D8DFE800F00413202DE4
:100E40003A54544700932A4B2A481A6B42F0010245
:100E50001A631B6B03F001030093009B07B05DF85E
:100E600004FB0193224B24481A6B42F002021A63DE
:100E70001B6B03F002030193019BEFE702931C4BF2
:100E80001E481A6B42F004021A631B6B03F0040342
:100E90000293029BE2E70393154B19481A6B42F049
:100EA00008021A631B6B03F008030393039BD5E747
:100EB00004930F4B13481A6B42F010021A631B6B1A
:100EC00003F010030493049BC8E70593084B0E48F6
:100ED0001A6B42F080021A631B6B03F080030593C8
:100EE000059BBBE7094802F033FF0020B6E700BFCF
:100EF00000380240000002400004024000080240A6
:100F0000000C024000100240001C024030AE0008FD
:100F1000431C10B5044604D176220649064802F067
:100F20004DFE2046002100F00BFD04F00F040120CF
:100F3000A04010BD51AE0008ABAE000870B504462D
:100F40004B1C0E46218216D0C1F30310FFF770FF31
:100F500005463046FFF7DCFF238A074A656103F048
:100F60000F03206052F82330A36105F110031835F8
:100F70006360A560E56070BDFCB00008B0F91000CA
:100F800000F076BD0A4619B981694069FFF73ABF9A
:100F90000122F9E74C23F0B54343224E224F1A1D9C
:100FA000324400244FF0010E1E448C4205D101460C
:100FB000BDE8F0401D4802F0CBBE33680EFA04F5E0
:100FC0001D422BD0136B7D690EFA03F32B4225D003
:100FD000D2F818C07B61156805B3FA6833EA0202DB
:100FE00003D1BA6833EA020214D10F4A916833EA96
:100FF000010103D1D26833EA02020DD1DCF81020DE
:10100000134214BF01210221094B28461B68BDE889
:10101000F04018470221F7E70121F5E701340432D7
:10102000C3E700BFDC0B0020003C0140E5AE000838
:10103000F00D002006210846FFF7ACBF0521084649
:10104000FFF7A8BF01210420FFF7A4BF012103205F
:10105000FFF7A0BF01210220FFF79CBF0121084636
:10106000FFF798BF01210020FFF794BF012910B5B9
:1010700018D11B4C838952B1A26803F00F03994029
:101080001143A160836843F00103836010BDA2682F
:1010900003F00F03994022EA0101A160836823F065
:1010A0000103F2E70229F1D10D4983895AB1CC68D5
:1010B00003F00F03012202FA03F32343CB6083689A
:1010C00043F00203E1E7CA6803F00F03012404FAC6
:1010D00003F322EA0303CB60836823F00203D4E71F
:1010E000003C0140B0F90C3099B270B501F00F0628
:1010F00006F00C0404F1804404F59C3401F0030173
:10110000A56889000F228A40C3F3031325EA02056C
:101110008B402B43A3600F4B01221968B24011434F
:1011200019608468E50742BF996811439960A10777
:1011300042BFD9680A43DA6090F90030002B08DB1F
:101140005909012203F01F0302FA03F3024A42F88D
:10115000213070BD003C014000E100E02DE9F04F7E
:1011600092464A1C85B080460C4666D00022039207
:10117000334A344F516C41F480415164526C02F453
:1011800080420392039A04F00F090C2202FB0972B9
:10119000C4F303105568062D47D8DFE805F0043A7C
:1011A0003C3E40424400284E0193FFF741FE0C2193
:1011B00001FB09F17A1857F801E0244FA8F80C4018
:1011C0004C21694301247B5892F90820C8F8045047
:1011D00004FA0EF44FF0000B1C4388F80020C8F806
:1011E00008B07C50132101FB05E507EB8501019B4D
:1011F0004B60174BC861C3F800A0164BC1F8349080
:101200009B681032404643F82260FFF76BFF584658
:1012100010E0114EC8E7114EC6E7114EC4E7114E5B
:10122000C2E7114EC0E7114EBEE7114802F090FD33
:101230004FF0FF3005B0BDE8F08F0846FAE700BF79
:101240000038024010AF000865100008DC0B0020D9
:10125000F00D002000ED00E05D10000855100008C2
:101260004D100008451000083D100008351000081A
:10127000BEAE000883890C2203F00F0370B55A43F9
:101280001C4CA518A4581C4A6E689568012101FAE7
:1012900003F3DB431D409560D5681D40D56015689C
:1012A0002B4013604C237343144AD35801FA04F4BF
:1012B000A3431ED190F90030002B0CDB5A0903F038
:1012C0001F03994002F120030D4A42F82310BFF397
:1012D0004F8FBFF36F8F90F90030002B09DB5A0955
:1012E000012103F01F0301FA03F36032044941F8BE
:1012F000223070BD10AF0008003C0140DC0B002024
:1013000000E100E0838903F00F020C235343104AED
:1013100070B4D65843680F4A4C215943012404FA4B
:1013200006F5545824EA05045450132101FB0363C5
:1013300002EB8304002161609C1D0C3302EB8404EA
:1013400002EB83036160596070BCFFF793BF00BF7D
:1013500010AF0008DC0B002008B501F03DFE0020B6
:1013600008BD000008B50A4B1B684BB102F0EAF853
:1013700002F095FB4FF47A72002308F027FB08BDBA
:1013800001F08AFE4FF47A73B0FBF3F008BD00BFA2
:10139000F40D002010B588B002F0D8FB052101A89B
:1013A00001F0A1FF0424039B019A1A60962002F029
:1013B00029FD019B049A1B041360962002F022FD74
:1013C000013CF0D10424039B019A1A604FF4C870C9
:1013D00002F018FD019B049A1B0413604FF4C870BF
:1013E00002F010FD013CEED1DCE7000070B50D46C7
:1013F000A0B0044602F0AAFB2B4622468021684694
:1014000004F0C8FB051E03DC02F0B6FB20B070BD83
:10141000094B1B6823B903220221084800F0E0FDB4
:10142000064E00241DF804103046013400F092FEF0
:10143000A542F7D1E8E700BF440E0020400F00208E
:101440000FB407B504A951F8040B0191FFF7CEFFC3
:1014500003B05DF804EB04B07047000008B501F07C
:1014600069FD00F0B1FE01F055FD01F063FD024B96
:1014700001221A6008BD00BFF40D00200020704753
:10148000036801221B6900211847036800221B69B9
:101490001146184703681B69184703689B6918477A
:1014A00003689B6A184700290CBF6FF018000020E2
:1014B00070470120704770476FF01C0070476FF055
:1014C00015007047012070470020704770470000EA
:1014D000F8B5074E15460C468F18BC4205D014F8D7
:1014E000011B304600F036FEF7E72846F8BD00BF86
:1014F000400F002038B58DB215F0010405D0084822
:1015000000F0FCFC041C18BF0124EB0605D50448C0
:1015100000F00AFD08B144F01004204638BD00BFB9
:10152000400F002010B5044602F0F2FE204610BD28
:1015300010B50C462AB1044800F0FAFD20700120D5
:1015400010BD104610BD00BF400F002038B51D462D
:10155000074B0360074B1B68044633B9064800F08D
:101560003FFD2946044800F015FD204638BD00BF68
:10157000D8AF0008440E0020400F00200020704724
:101580000020704708B5012000F036F80C4A1368B7
:1015900010B51844EFF30881884205D3094B0C229B
:1015A0001A604FF0FF3010BD07490C6824B107499D
:1015B000096821448842F1D21060184610BD00BF6E
:1015C0009C02002094100020000E0020040E002039
:1015D000074C08B523680546986802F00BFD2368A0
:1015E000D86802F007FD0DB1FFF7D4FEFEE700BF9B
:1015F000D00600200120704708B5FFF7E9FF012061
:1016000070477047704708B5FFF7FBFF08BD08B586
:10161000FFF7F8FF08BD000010B5037803F00303DF
:10162000012B04460CD02BB140F2A95205490648C3
:1016300002F0C4FA237843F002032370012010BDA6
:10164000002010BD3DB0000894B0000810B503782C
:1016500003F00303022B044605D040F2B1520549C2
:10166000054802F0ABFA237823F0030343F00103AB
:10167000237010BD3DB00008BAB000083F2870B517
:1016800004462FDC184D55F820305A1C13D102287F
:1016900011DCFFF775FF034658B92046FFF76EFFD0
:1016A000034630B9114E3378BFF35B8FDB0704D5A7
:1016B0000F4B45F82430184670BD3046FFF7ACFF9D
:1016C0000028F5D04FF41653032202210848FFF7F3
:1016D0003DFF3046FFF7BAFF064A07490448FFF7C7
:1016E00089FFE5E70023E6E79C010020F80D0020D4
:1016F000FC0D002098010020CD14000838B50546E7
:10170000FFF7BCFF0B4B002443F8254030B902F033
:10171000ABFB092303604FF0FF3038BD03685B6902
:101720009847051E04DA02F09FFB6D420560F2E760
:10173000204638BD9C010020FFF7E0BF38B50C46BD
:101740001546FFF79BFF38B902F08EFB09230360B3
:101750004FF0FF34204638BD03682146DB682A4637
:101760009847041EF6DA02F07FFB64420460EFE75C
:1017700008B5131E06DA02F077FB162303604FF05C
:10178000FF3008BD04D0FFF7D9FF40EAE07008BD84
:10179000184608BD38B50C461546FFF76FFF38B937
:1017A00002F062FB092303604FF0FF34204638BD8E
:1017B000036821469B682A469847041EF6DA02F021
:1017C00053FB64420460EFE7002A08B503DBBDE881
:1017D0000840FFF7DFBF02F047FB162303604FF01E
:1017E000FF3008BD10B5FFF749FF044628B902F0E5
:1017F0003BFB09230360204610BD0368DB69984763
:10180000041EF8DA02F030FB644204600024F2E7C0
:10181000FFF7E8BF38B50C461546FFF72FFF38B97C
:1018200002F022FB092303604FF0FF34204638BD4D
:10183000036821461B692A469847041EF6DA02F01F
:1018400013FB64420460EFE7FFF7E4BF38B50D46D1
:10185000FFF714FF044630B902F006FB09230360CA
:101860004FF0FF3038BD0368DB699847002814BF8C
:101870004FF400534FF400436B60236820469B6A8B
:1018800098472861002038BDFFF7E0BF37B505460F
:1018900002F036FD044630B9009003462A4603495B
:1018A000034802F077FA204603B030BD20B00008AC
:1018B0001F01018002F02CBD70477047074B08499B
:1018C0009A68084810B5043A52F8044F41F8044F9A
:1018D0008142F9D14FF000529A6010BD00ED00E056
:1018E000FCFFFF1F9001002008B5FFF7E7FFFFF79F
:1018F000B5FDFFF7E2FF08BD08B5FFF7DDFFBDE866
:101900000840FEF7CDBC30B5C36891FAA1F4B4FA33
:1019100084F491FAA1F10325B1FA81F1640005FA8A
:1019200004F4490023EA040302FA01F11943C160F7
:1019300030BD012A02D0022A18BF0022FFF7E3BF00
:101940002DE9F0410E46411C044604D13E22444993
:10195000444802F033F904F00F08434BC4F303107A
:1019600053F82850FFF764FA06F007070446836827
:1019700095FAA5F1B1FA81F195FAA5F20320490093
:1019800000FA01F1B2FA82F223EA010352000221C5
:1019900001FA02F21343A36087425AD8DFE807F046
:1019A0005E1D021DB8F1070FC6F303203BD9626A22
:1019B0002B0A93FAA3F1B1FA81F193FAA3F34FF052
:1019C0000F0EB3FA83F389000EFA01F19B0022EAAD
:1019D000010200FA03F3134363623B46226895FA5F
:1019E000A5F0B0FA80F095FAA5F14FF0030EB1FA28
:1019F00081F140000EFA00F0490022EA00028B401B
:101A0000013F1343012F236005D8636832074CBFA1
:101A10002B43AB436360C6F3011229462046BDE861
:101A2000F041FFF786BF226A95FAA5F3B3FA83F374
:101A300095FAA5F14FF00F0EB1FA81F19B000EFA65
:101A400003F3890022EA030200FA01F3134323623D
:101A5000C3E767220249054802F0B0F80023BDE75A
:101A60003CB10008ABAE0008FCB000087FB3000832
:101A7000431C70B506460D4604D188221B491C48FC
:101A800002F09CF806F00F021A4BC6F3031053F84D
:101A90002240FFF7CDF904FB04F2016802EB420398
:101AA0000B40B3FBF2F3013B012B05D8EB1E022BDD
:101AB000436809D823434360032D08D101222146FE
:101AC000BDE87040FFF735BF23EA04034360012DF2
:101AD000F4D0052D01D0022D01D10222EFE72146DD
:101AE0000022BDE87040FFF70EBF00BF3CB1000808
:101AF000ABAE0008FCB0000830B507EE101A284B5A
:101B000002681A60B5EEC07AF1EE10FA89B00546A7
:101B100028D4F7EE007AB4EE677AF1EE10FAC8BF77
:101B2000B0EE677AD5ED037AF8EE677A602267EE59
:101B3000877A0192FCEEE77AAA68C5ED047A17EE7F
:101B4000903AB3FBF2F302930023039305930693B9
:101B5000049307932B7D013B032B16D8DFE803F09A
:101B60001B0517199FED0F7ADCE70424224601A913
:101B70000B4800F0FFFE10B10B4802F0E9F86B7D56
:101B8000074821464BB100F0B1FF09B030BD082431
:101B9000ECE70C24EAE70024E8E700F083FFF4E731
:101BA000080E00200000000036B20008C368ABB188
:101BB00007EE903AD0ED046AB8EE677AF8EE666AFE
:101BC000C6EE877AB7EE007AF4EE477AF1EE10FAB5
:101BD000C8BFF0EE477A17EE900A7047DFED017A42
:101BE000F9E700BF000000002DE9F0474A4C026809
:101BF000226086B000230E4600930546FFF7D6FF0D
:101C0000116A41F211131942074608D1116A40F2D4
:101C10004443194202BF136823F00103136069466D
:101C200001A800F067FD3D482968002380465FFA5F
:101C300083F9013350F839208A42F8D111B9384874
:101C400002F086F808EBC90898F8043053BB00F09E
:101C500031FD0090049800990123AB60314B30BBFB
:101C6000B1FBF3F3013B636006F1FF3C2D4B62686F
:101C7000B1FBF3FE4FEA41080021B8FBF3F8C4F8CA
:101C80000CC063468A464FF6FE79B3F5803F12D208
:101C9000B2F5803F0FD2BAF1000F00D06260F1B10F
:101CA000E3601CE000F016FD00900598D3E74A00C1
:101CB000B2FBF3F3D6E7AB685B00AB6030BB0EFB67
:101CC00003F2BCFBF3F34B4502F1FF3221D8B2F52E
:101CD000803F1ED314486260E36002F039F80023AD
:101CE0000D482361A36000F0FFFD10B10E4802F023
:101CF0002FF8EE6039462846FFF7FEFE226813688B
:101D000043F00103136006B0BDE8F08708FB03F25F
:101D1000D7E701218A46B8E7080E002050B2000834
:101D200021B2000840420F0036B2000870B50E46DE
:101D3000044688B05449304601F05CFC2060013014
:101D400004D12E225149524801F038FF4E49304605
:101D500001F074FC431C054604D132224B494D4826
:101D600001F02CFFC5F304334B4A23752368C5F3F8
:101D70004045934265754FF000021AD10092474AE0
:101D8000516C41F001015164526C02F00102009269
:101D9000009A434A934229D1002305933F4B5A6C42
:101DA00042F480325A645B6C03F480330593059BE4
:101DB00058E0B3F1804F0BD10192384A116C41F0D9
:101DC00001011164126C02F001020192019AE0E734
:101DD00034498B421AD10292304A116C41F002010F
:101DE0001164126C02F002020292029A2E4A93428D
:101DF0001AD100230693294B5A6C42F400325A64DC
:101E00005B6C03F400330693069B2BE027498B425F
:101E10001AD10392214A116C41F004011164126C31
:101E200002F004020392039A214A93421AD100233A
:101E300007931A4B5A6C42F480225A645B6C03F489
:101E400080230793079B0DE01A498B42A1D1134BC6
:101E500004921A6C42F008021A641B6C03F0080327
:101E60000493049B0849304601F07AFB0023E360A9
:101E700023610123A680A36044F620612046FFF77A
:101E8000B3FE08B070BD00BF14AC000894B10008E8
:101E9000F0B1000808B2000800000140003802401C
:101EA00000400140000400400044014000080040A0
:101EB00000480140000C004007EE101ADFED047AE4
:101EC00067EE277AFDEEE77A17EE901AFFF78CBEE1
:101ED000002474490FB407B5064B07491B6805AACF
:101EE000D868019203F0D4FD03B05DF804EB04B0B0
:101EF000704700BFD006002098B200084368094A26
:101F00009B0182B0D3581A68120706D500220192AD
:101F10001A6801925A680192019A1868C0F3401039
:101F200002B070478C0F00204368034A9B01D358CE
:101F30001868C0F3C01070478C0F00204268144925
:101F4000920110B404685450531882685A60C268F1
:101F50009A600269DA6042691A61026A9A61002233
:101F6000DA84DA619A84DA859A85B0F91A20013226
:101F700006D108225A6118465DF8044B00F0E3BE12
:101F8000B0F9182001320CBF04220C22F2E700BF86
:101F90008C0F002010B581600C46FFF7CFFF28B1F1
:101FA00021460348BDE81040FFF794BF10BD00BFB5
:101FB00098B20008094B98420BD0A3F54C439842C5
:101FC00009D003F5504398420CBF02204FF0FF3078
:101FD0007047002070470120704700BF001001408B
:101FE000F0B50E4685B0044645493046154601F029
:101FF00001FB44490746284601F0FCFA01463846F1
:1020000001F0D2FA2060013004D13D223E493F4820
:1020100001F0D4FD022E0CD0032D0AD03849022045
:1020200001F0E8FA874202D1394801F091FE002719
:1020300000E00127374B206898424FF0000340D161
:102040000193354B5A6C42F010025A645B6C03F0FA
:1020500010030193019BFFF7ADFF0028606004DAD5
:10206000A42229492D4801F0A9FD2549304601F057
:1020700077FA2449284601F073FA721C03D0012133
:102080003046FFF7F5FC6B1C03D001212846FFF713
:10209000EFFC4FF41653A3600023E36023616361F8
:1020A0002362268365832046FFF748FF3FB11C4B20
:1020B0001C4801221A6021464C2202F07BF905B02F
:1020C000F0BD194A90420BD10293134B1A6C42F4A3
:1020D00000321A641B6C03F400330293029BBAE7CC
:1020E000124A9042B7D103930B4B5A6C42F0200234
:1020F0005A645B6C03F020030393039BABE700BFC0
:10210000E8AD0008A0AD0008C2B200081EB3000888
:102110003AB3000800100140003802406FB30008D5
:10212000440E0020400F00200044004000140140F5
:1021300038B5446805462846FFF7E0FE0028FAD087
:10214000A401034B1B595868C0F3080038BD00BFF9
:102150008C0F002070B5456806460C463046FFF7E8
:10216000E3FE0028FAD0AD01024B5B59C4F308042A
:102170005C6070BD8C0F0020DFF830D0002103E0E0
:102180000B4B5B58435004310A480B4B42189A42A0
:10219000F6D30A4A02E0002342F8043B084B9A4275
:1021A000F9D300F013FEFEF747F8704700800120D6
:1021B00084BA000898010020580B0020580B00201A
:1021C00098100020FEE7704708B50B4B1A6842F4E0
:1021D00000721A601A6842F480621A601A6842F447
:1021E00080721A60032000F009F80F20FFF7B4F89E
:1021F000FFF7E9FF002008BD003C0240074AD36812
:1022000023F4E0631B041B0C43F0BF63000243F4A0
:10221000003300F4E0600343D360704700ED00E05A
:102220002DE9F341044618B9012002B0BDE8F08160
:102230000368DD0710D42368980758D423681A0769
:1022400000F19A8023685B0700F1B880A269002A38
:1022500040F019810020E8E7A64B9A6802F00C02D2
:10226000042A07D09A6802F00C02082A0AD15B6897
:10227000590207D59F4B1B689A03DCD56368002B76
:10228000D9D1D1E763689B4DB3F5803F11D12B685D
:1022900043F480332B60FFF765F8964D06462B68B4
:1022A0009B03C8D4FFF75EF8801B6428F7D903208E
:1022B000BBE7B3F5A02F04D12B6843F480232B6038
:1022C000E5E72A6822F480322A602A6822F4802214
:1022D0002A60002BDFD1FFF745F806462B689F03E5
:1022E000A9D5FFF73FF8801B6428F7D9DFE7814BBA
:1022F0009A6812F00C0F07D09A6802F00C02082AB4
:1023000011D15B685E020ED47A4B1A68950702D52C
:10231000E268012A88D11A68216922F0F80242EAAB
:10232000C1021A608AE7E268734BB2B101221A60F7
:10233000FFF718F86F4D06462B68980707D52B68EE
:10234000226923F0F80343EAC2032B6076E7FFF724
:1023500009F8801B0228EFD9A9E71A60FFF702F8F5
:10236000644D06462B6899077FF568AFFEF7FAFFC4
:10237000801B0228F6D99AE76269604B7AB1012284
:102380001A60FEF7EFFF5B4D06466B6F9F073FF548
:1023900059AFFEF7E7FF801B0228F6D987E71A60DE
:1023A000FEF7E0FF534D06466B6F98077FF54AAF87
:1023B000FEF7D8FF801B0228F6D978E74D4B1A6C40
:1023C00012F0805228D101921A6C42F080521A64A5
:1023D0001B6C03F080530193019B0126484D2B6831
:1023E000D9051BD5A368434D012B27D12B6F43F093
:1023F00001032B67FEF7B6FF3E4D074641F28838D2
:102400002B6F9B0739D5002E3FF420AF394A136C50
:1024100023F08053136419E70026DFE72B6843F4A9
:1024200080732B60FEF79EFF07462B68DA05D9D430
:10243000FEF798FFC01B0228F7D938E7052B04D117
:102440002B6F43F004032B67D0E72A6F22F00102C1
:102450002A672A6F22F004022A67002BCAD1FEF7EE
:1024600081FF41F2883807462B6F9807CBD5FEF7DE
:1024700079FFC01B4045F7D919E7FEF773FFC01B72
:102480004045BDD913E71B4DAB6803F00C03082B87
:102490003FF4CAAE1B4E0023022A336034D1FEF74C
:1024A00061FF07462B6899011ED4226AE369134332
:1024B000626A43EA8213E26A43EA0263A26A0D4C4B
:1024C0005208013A43EA02436B6001233360FEF78E
:1024D00049FF054623689A013FF5BCAEFEF742FF6F
:1024E000401B0228F6D9E2E6FEF73CFFC01B02289B
:1024F000D8D9DCE60038024000004742800E47424F
:102500000070004060004742FEF72CFF04462B6835
:102510009B017FF59FAEFEF725FF001B0228F6D931
:10252000C5E600BF134908B58B6803F00C03042B04
:1025300003D0082B03D0104808BD104808BD4A68D6
:102540004B68496813F4800314BF0C480A48C1F370
:10255000881118BF002302F03F02A1FB000107F021
:1025600035FA044B5B68C3F3014301335B00B0FBF6
:10257000F3F008BD003802400024F40000127A0095
:102580002DE9F0410D46044610B90120BDE8F08167
:10259000444B1A6802F00F028A4228D321688F0741
:1025A0002DD4C80740D43F4B1A6802F00F02954261
:1025B00066D3226851076CD4130707D53A4A2169BC
:1025C000936823F4604343EAC1039360FFF7AAFFD3
:1025D000354B364A9B68C3F30313D35CD840344B66
:1025E00018600F20FEF7B8FE0020BDE8F081CAB2E7
:1025F0001A701B6803F00F039942C6D1CEE72A4B2D
:1026000011F0040F1EBF9A6842F4E0529A600E0760
:1026100042BF9A6842F460429A609A68A06822F0C9
:10262000F00202439A60BCE762681F4B012A1DD189
:102630001B6813F4003FA8D01B4EB36823F00303BC
:102640001343B360FEF78EFE41F288380746B36845
:10265000626803F00C03B3EB820FA4D0FEF782FE96
:10266000C01B4045F3D90320BDE8F081911E01292C
:102670001B6802D813F0007FDDE713F0020FDAE7E2
:10268000EAB21A701B6803F00F039D427FF47DAF1E
:102690008FE70549E0688B6823F4E05303438B60C0
:1026A0008AE700BF003C02400038024095B30008B2
:1026B000A0020020044B054A9B68C3F38223D35C2D
:1026C000034A1068D840704700380240A5B300089C
:1026D000A0020020044B054A9B68C3F34233D35C3D
:1026E000034A1068D840704700380240A5B300087C
:1026F000A00200200F2303600B4B9A6802F0030234
:1027000042609A6802F0F00282609A6802F4E05235
:10271000C2609B68DB0803F4E0530361034B1B6852
:1027200003F00F030B60704700380240003C02408A
:10273000036A23F001030362036A70B54468826987
:102740000D6822F073022A438D6823F002032B43A5
:102750000A4DA8420BD1CD688E6923F008032B43A4
:102760004D6924F44074354323F004032C43446042
:1027700082614A684263036270BD00BF000001408D
:10278000036A23F480730362036A70B54468C26904
:102790000D6822F073022A438D6823F4007343EA24
:1027A00005230B4DA8420DD1CD688E6923F400633B
:1027B00043EA05234D6924F44054354323F48063F0
:1027C00044EA05144460C2614A68C263036270BD92
:1027D00000000140036A23F480530362036A30B5AA
:1027E0004468C2690D6822F4E64242EA05228D6817
:1027F00023F4005343EA0533064DA84202BF4D6956
:1028000024F4804444EA85144460C2614A68026446
:10281000036230BD0000014070477047224A0368E0
:1028200090420ED0B0F1804F0BD0A2F57C42904286
:1028300007D002F58062904203D002F58062904298
:1028400019D14A6823F070031343174A904204D108
:10285000CA6823F44073134318E0B0F1804FF7D0F7
:10286000124A9042F4D002F580629042F0D002F514
:1028700080629042ECD00E4A9042E9D002F580622C
:102880009042E5D002F580629042E1D003608B680F
:10289000C3620B688362044B984204BF0B690363F5
:1028A00001234361704700BF000001400004004065
:1028B0000040014010B50446A0B190F8393003F053
:1028C000FF021BB980F83820FFF7A6FF022384F827
:1028D00039302068211DFFF7A1FF012384F839302A
:1028E000002010BD012010BD10B50446A0B190F825
:1028F000393003F0FF021BB980F83820FFF78DFF55
:10290000022384F839302068211DFFF787FF012357
:1029100084F83930002010BD012010BD036A23F077
:1029200010030362036A70B5446882690D6822F47B
:10293000E64242EA05228D6823F0200343EA0513AC
:102940000B4DA8420DD1CD688E6923F0800343EA78
:1029500005134D6924F44064354323F0400344EAF1
:102960008504446082614A688263036270BD00BF6F
:102970000000014038B590F83830012B04464FF084
:10298000020025D0012384F8383084F839000C2A5D
:1029900018D8DFE802F0071717171E1717172F1799
:1029A000171740002068FFF7C3FE236809699A697A
:1029B00042F008029A619A6922F004029A619A69C7
:1029C0000A439A610123002084F8393084F83800E2
:1029D00038BD2068FFF7A2FF236809699A6942F4AD
:1029E00000629A619A6922F480629A619A6942EA65
:1029F0000122E6E72068FFF7C3FE23680969DA6968
:102A000042F00802DA61DA6922F00402DA61DA6976
:102A10000A43DA61D6E72068FFF7DCFE236809691C
:102A2000DA6942F40062DA61DA6922F48062DA611A
:102A3000DA6942EA0122ECE7036A10B501248C400E
:102A400023EA04030362036A8A401A43026210BD48
:102A500010B5044600220068FFF7EEFF2368104A15
:102A600093420DD1196A41F21112114208D1196A2B
:102A700040F24442114202BF5A6C22F400425A64AE
:102A8000196A41F21112114208D1196A40F2444206
:102A9000114202BF1A6822F001021A60002010BD24
:102AA0000000014010B5044601220068FFF7C4FF92
:102AB0002368064A934202BF5A6C42F400425A64A9
:102AC0001A6842F001021A60002010BD00000140A7
:102AD000FFF7E8BF036A10B504248C4023EA04031F
:102AE0000362036A8A401A43026210BD10B50446AD
:102AF00004220068FFF7EEFF23685A6C42F400429C
:102B00005A641A6842F001021A60002010BD0000E9
:102B10002DE9F0470668C2683369C16923F4405360
:102B200013433361044683680069F26803436069B4
:102B300022F41642034322F00C020B431343F360CA
:102B40007369A26923F440731343B1F5004F7361B5
:102B50007A4B7CD19E4203D003F580639E4244D1E0
:102B6000FFF7B8FD192505FB00F360684FF0640915
:102B70004000B3FBF0F3B3FBF9F34FEA0318FFF7A0
:102B8000A9FD636868435B00B0FBF3F7FFF7A2FDA4
:102B9000636868435B00B0FBF3F3B3FBF9F309FB35
:102BA0001373DB003233B3FBF9F35B0003F4F87704
:102BB000FFF790FD626868435200B0FBF2FAFFF73E
:102BC00089FD636868435B00B0FBF3F3B3FBF9F383
:102BD00009FB13A3DB003233B3FBF9F303F0070364
:102BE00043443B44B360BDE8F087FFF763FD19251C
:102BF00005FB00F360684FF064094000B3FBF0F39D
:102C0000B3FBF9F34FEA0318FFF754FD6368684319
:102C10005B00B0FBF3F7FFF74DFD636868435B00B3
:102C2000B0FBF3F3B3FBF9F309FB1373DB003233AF
:102C3000B3FBF9F35B0003F4F877FFF73BFD626841
:102C400068435200B0FBF2FAFFF734FDB9E79E4249
:102C500002D03B4B9E4240D1FFF73CFD67681925EF
:102C60004FF0640905FB00F3BF00B3FBF7F3B3FBC0
:102C7000F9F31F01FFF72EFD636868439B00B0FB6B
:102C8000F3F8FFF727FD636868439B00B0FBF3F39D
:102C9000B3FBF9F309FB13831B013233B3FBF9F3E5
:102CA00003F0F008FFF716FD626868439200B0FB7E
:102CB000F2FAFFF70FFD636868439B00B0FBF3F384
:102CC000B3FBF9F309FB13A31B013233B3FBF9F395
:102CD00003F00F0343EA080383E7FFF7EBFC6768A1
:102CE00019254FF0640905FB00F3BF00B3FBF7F3B0
:102CF000B3FBF9F31F01FFF7DDFC636868439B003A
:102D0000B0FBF3F8FFF7D6FC636868439B00B0FBA9
:102D1000F3F3B3FBF9F309FB13831B013233B3FB6A
:102D2000F9F303F0F008FFF7C5FC6268684392000E
:102D3000B0FBF2FAFFF7BEFCBDE700BF0010014098
:102D400000140140704710B5044640B390F8393084
:102D500003F0FF021BB980F83820FFF7F3FF226869
:102D6000242384F83930D36823F40053D3602046F9
:102D7000FFF7CEFE23681A6922F490421A615A695D
:102D800022F02A025A61DA6842F40052DA60002026
:102D90002023E06384F8393084F83A3010BD0120F4
:102DA00010BD7FB50F230193022100234FF4805201
:102DB00001A80291039304920593FFF7E1FBB0FA97
:102DC00080F0400907B05DF804FB00000F49D1F81E
:102DD000883043F47003C1F888300D4B1A68002026
:102DE00042F001021A6098601A6822F0847222F49C
:102DF00080321A60074A5A601A6822F480221A60E8
:102E0000D8604FF000638B60704700BF00ED00E0BA
:102E1000003802401030002400B58FB01D4B002157
:102E200000911A6C42F080521A641B6C1A4A03F02B
:102E300080530093009B0191136823F4404343F4B3
:102E400000431360136803F440430193019B012383
:102E50000293C8B94FF480330393022308934FF4CD
:102E60008003099308230A934FF4A8730B93042358
:102E70000C9302A807230D93FFF7D2F938B9FFF797
:102E800090FF0FB05DF804FB4FF4A023E4E70020AF
:102E9000F7E700BF003802400070004010B58EB068
:102EA00000241A4B00941A6C42F080521A641B6C76
:102EB000174A03F080530093009B0194136823F496
:102EC000404343F4004313601368039403F4404306
:102ED0000193019B0994032302930123059310237B
:102EE00006930A934FF4A8730B93042302220C93C6
:102EF00002A8072308920D93FFF792F918B9FFF77C
:102F000050FF0EB010BD2046FBE700BF0038024066
:102F10000070004008B50120FFF77EFF38B9FFF7C9
:102F2000BDFF20B90248BDE8084000F011BF08BD50
:102F300081B30008174A1849936803F00C03042B67
:102F400010B50DD0082B0DD0144B0B60114B144A4B
:102F50009B68C3F30313D25C0B68D3400B6010BDB6
:102F6000104BF2E75468506852686302C2F388124B
:102F700000F03F004CBF0B4B084BB3FBF0F3534347
:102F8000044A5268C2F3014201325200B3FBF2F329
:102F9000DBE700BF00380240A00200200024F4005C
:102FA00095B3000800127A00074B084A13601A69AB
:102FB000910707D5DA68920704D56FF002021A610B
:102FC00000F0C4BA704700BF000C00405010002051
:102FD00000487047B0B3000830B589B001A903A814
:102FE000FFF788FBFFF766FB002302931E4B01905F
:102FF0001A6C1E4C42F008021A641A6C02F00802A5
:103000000292029A1A6A42F008021A621A6A22F0BE
:1030100008021A62069AA3F50B3323604FF0FF33C0
:10302000E360134BF2B9B0FBF3F0013800256060A8
:103030000E482561A5606561FFF73CFC0D4B0E4A0B
:103040009B680A48C3F808210C4B4FF480225A6051
:103050002946FFF73DFD2268D36823F00203D360C1
:1030600009B030BD4000DEE70038024050100020BB
:1030700040420F0000ED00E0A92F000800E100E051
:1030800004480268D36823F00203D3600021FFF7ED
:103090001FBD00BF50100020014B586A704700BF91
:1030A000000C0040054B1B686FF0020258631A6168
:1030B000DA6842F00202DA60704700BF5010002068
:1030C000064B1B686FF002021A615A6942F0020255
:1030D0005A61DA6842F00202DA607047501000204C
:1030E000034B1A68D36823F00203D360704700BF14
:1030F00050100020024B1B686FF002021A617047EB
:103100005010002008B500210348FFF7A1FCBDE8DE
:103110000840FFF7E5BF00BF5010002003689B6820
:1031200018470000094B10B5002203600023C0E9D6
:103130000223002303614361044600F003FA0449BB
:10314000A06100F029FC204610BD00BFC0B30008FC
:103150001D31000807B5009000F10801806900F0FA
:103160005AFC03B05DF804FB00F10801806900F02F
:103170007BBC000010B5034B03600446FFF7F4FF6F
:10318000204610BDC0B3000870B5D0E90823D0E9CF
:103190000245064612196B41FFF7DCFF736B2BB13A
:1031A00006F128001B68BDE87040184770BDD0B517
:1031B000044616461F4600F0C9FC2046FFF7D4FF20
:1031C000C4E90867A06900F06AFC321847EB010304
:1031D0002046FFF7BFFFBDE8D04000F0CDBC7FB573
:1031E000044600F0B3FC2046FFF7BEFF636B13B14B
:1031F00094F83830E3B904F128066D461022002116
:10320000684601F071F9AE420BD03046FDF741FA45
:103210003EB1039B1BB15B68694630469847039BF0
:1032200063632846FDF735FA00F0A6FC04B070BDD4
:1032300000F068F9DFE7000038B50546064B45F8B1
:10324000283B0446FFF7CBFF2846FDF722FA20462D
:10325000FFF790FF204638BDD4B3000810B50446F0
:10326000FFF7EAFF2046FEF725FB204610BD70B5AC
:103270000E4604461546FDF761FE013609D020468C
:103280000021FDF77FFE29462046BDE87040FDF78E
:1032900075BE70BD38B504460D4603685AB18268E4
:1032A000136020460121FDF76DFE29462046BDE84A
:1032B0003840FDF763BEC2681B04F1E70022FFF748
:1032C000D6BFFFF7D4BF70B50E4604461546FDF7CE
:1032D00035FE013606D02A4620460021BDE8704062
:1032E000FFF7D8BF70BD0022FFF7EDBF0346024ACB
:1032F0002030FDF733BF00BF99340008F8B505460C
:10330000134B45F8043B04460F4610261C220021AF
:10331000284601F0E9F83246002104F1200001F0CE
:10332000E3F83246002104F1300001F0DDF83246C6
:10333000002104F1400001F0D7F839462046FFF79C
:10334000D5FF28463946FFF7B9FF2046F8BD00BF34
:1033500004B400082DE9F0410546154B45F8043B3F
:1033600004460F461026904600211C22284601F0F4
:10337000BBF83246002104F1200001F0B5F83246D6
:10338000002104F1300001F0AFF83246002104F1D1
:10339000400001F0A9F839462046FFF7A7FF28466C
:1033A00042463946FFF78DFF2046BDE8F08100BF59
:1033B00004B4000883681A6843681A4214BF0120E5
:1033C0000020704710B5084B044640F8203BFDF73D
:1033D00099FF04F14000FDF75CF904F13000FDF7BE
:1033E00058F9204610BD00BF04B4000810B50446CB
:1033F000FFF7E8FF2046FEF75DFA204610BD884241
:1034000038B504460D460AD0FDF743F93CB1EB68E8
:103410001BB15B68294620469847EB68E36020466D
:1034200038BDF0B50F4685B0044600F08FFBFD684F
:1034300004F13006203465B139463046FFF7DFFF2E
:10344000012201212046FDF711FE00F095FB05B099
:10345000F0BD10222946684601F046F8694630461C
:10346000FFF7CDFF6846FDF714F92A46E9E70000AB
:10347000C36810B504462BB940F239220449054807
:1034800000F09CFBE36820461B68BDE8104018472D
:10349000E0B30008F6B30008012908B502D00229FC
:1034A00006D008BDC36B13B13030FFF7E1FF08BD94
:1034B000C36C002BFBD04030F7E7000013B50E4C77
:1034C00000F044FB22884FF6FF739A420AD100F0C5
:1034D00053FB0023228800930849094800F05AFC56
:1034E00002B010BD0121204600F054FB02B0BDE83F
:1034F000104000F041BB00BF480E00200CB4000893
:103500002301048037B50C4C00F020FB258855B909
:1035100000F032FB228800952B460849084800F04D
:1035200039FC03B030BD0121204600F03DFB03B063
:10353000BDE8304000F020BB480E002031B4000848
:10354000240104800048704750B40008024B1B68F7
:103550000BB1024818477047A402002050B400087D
:1035600013B5044601300FD102B010BD9C420AD100
:1035700020468968FEF7E4F90021204602B0BDE844
:103580001040FEF775BA0C31B1F900305A1CEDD17C
:103590000023009322460249024800F0FBFBE3E7C8
:1035A000C7B4000830010180884207B502460BD03D
:1035B000431C09D001310BD0002306490093064873
:1035C00000F0E8FB4FF0FF31084603B05DF804FB64
:1035D0000146F9E796B4000830010180B1F90030E6
:1035E0005A1C01D118467047834201D14868704780
:1035F0000C31F3E7421C13B504460BD0FFF7EEFF86
:10360000431C044606D100230246009303490448A4
:1036100000F0C0FB204602B010BD00BFA7B40008F8
:1036200030010180B1F900305A1C01D118467047B1
:10363000834201D1886870470C31F3E7421C13B50F
:1036400004460BD0FFF7EEFF431C044606D10023CF
:10365000024600930349044800F09CFB204602B058
:1036600010BD00BF78B40008300101802DE9F74F8C
:10367000D0F804A09AF83A300446002B46D10368EB
:103680005B68984763681B6A98423FD0DAF820303D
:10369000DAF80840CAF82000A0EB0308DAF80C308A
:1036A000314808EA0308844246464FF0000727D015
:1036B000DAE90A239AF83BB0A8FB0089CDE9002398
:1036C0000025BBF1000F2BD05A464046494605F075
:1036D0009BFCDDE9002312EB080243EB0903904653
:1036E0005A46994606460F4605F09AFCB8EB00008C
:1036F00069EB0101A94208BFA0420AD2CAE90A0146
:10370000DAE90C23B6185F41CAE90C6703B0BDE8DB
:10371000F08F013647F10007001B61EB0501EDE773
:1037200022462B464046494606F050F922460646B8
:103730000F46404649462B4606F048F9DDE9008928
:1037400018EB020849EB0309A94508BFA04502D2BE
:10375000CAE90A89D4E7013647F10007B8EB040843
:1037600069EB0509F4E700BF40420F00824206D929
:103770008A420BD9884294BF0020012070478842BA
:1037800006D98A428CBF0020012070470120704773
:10379000002070472DE9F14F476897F83A30064608
:1037A000002B44D197F83930002B40D1FFF75EFF52
:1037B00075686B68002B59D0D5E90C89D3E90001F5
:1037C000894508BF804505D333685B6901B0BDE812
:1037D000F04F1847D5E90623B0EB080861EB09095B
:1037E0004B4508BF42452C6906D3AB68254A934236
:1037F00020D1444528BF44462B6A1C44EB681C403A
:103800003B6AA34205D140F207121F491F4800F04E
:10381000D5F9336820461B69984733685B68984739
:1038200022460146386AFFF7A1FF0028CCD101B03B
:10383000BDE8F08F95F83B20DFF854A04FF0000B67
:103840007AB14046494605F0EBFB10EB0A0041EB2C
:103850000B010C4A002306F0B9F8844228BF044645
:10386000CAE7A3FB080103FB0911EEE73B69386ACD
:10387000FA68184433681B69104001B0BDE8F04F86
:10388000184700BF40420F00D8B400082AB500080E
:103890003F420F002DE9F04F436893F8382085B080
:1038A0000546002A6FD193F83A30002B6BD103689C
:1038B0001B6898472B68DB699847066804462EB951
:1038C0002C2232493248334E00F078F91F2301226E
:1038D00002FA03F1B1425FFA83FB02D0013BF7D158
:1038E0009B46D4F804A0AAF104031C2B06D93A2263
:1038F0002649274800F062F94FF0200AAAF1040394
:10390000072716F1FF3007FA03F7224C4FF00003A8
:1039100043F1FF313246C4FB070106F057F86C68EB
:103920002A6800232360636052680393CDE9000195
:10393000904720626C684FF000084FF00009524633
:10394000C4E90A89A66084F83BB00120002105F093
:1039500067FBDDE90023C4E90623039B84F83930C3
:1039600084F83A3001380123E06027612846C4E931
:103970000C8984F83830FFF779FE284605B0BDE899
:10398000F04FFFF707BF05B0BDE8F08FD8B40008CF
:103990007FB3000840420F0038B505460C46FFF7DC
:1039A00079FF00F0D3F86B681C60BDE8384000F088
:1039B000E3B870B5044600F0C9F82368DB6898479F
:1039C000636893F83A201AB1BDE8704000F0D4B8AB
:1039D000012283F8392063685B68A3B12046FFF7B2
:1039E00045FE65686E68D5E90C01D6E90023994269
:1039F00008BF904207D3F3686B602B68002BEAD0B6
:103A0000B0689847E7E76368002283F839202046CA
:103A1000FFF7C0FED8E72DE9F04180460C46164678
:103A20001F46069D00F092F84046FFF71FFED8F8AB
:103A30000420A560C4E90067536800254BB9E36022
:103A400085B954604046FFF7A5FEBDE8F04100F09F
:103A500093B8D3E900018F4208BF8642EFD31D46D9
:103A6000DB68EBE7EC60F0E738B505460C4600F0A4
:103A70006DF86A685368A34209D1DB685360284631
:103A8000FFF788FEBDE8384000F076B81346002BFB
:103A9000F8D0DA689442F9D1E268DA60F2E710B55A
:103AA0000446FFF7F7FE00F051F82046FFF7DEFD71
:103AB00000F062F86368D3E90C0110BD08B5FFF7A8
:103AC000EEFF08BD10B5034B03600446FFF7B4FBDF
:103AD000204610BD58B5000810B50446FFF7F2FFA8
:103AE0002046FDF7E7FE204610BD00001FB5436BE2
:103AF000044600F1280113B15B6868469847636B80
:103B000003932046FFF76BFB039B2BB940F239224E
:103B10000649074800F052F8039B68461B6898471F
:103B20006846FCF7B6FD04B010BD00BFE0B3000866
:103B3000F6B30008EFF31080C04300F001007047B7
:103B4000EFF30580003018BF0120704710B5074C17
:103B50002368013304D151220549064800F02EF8AC
:103B600000F056F923680133236010BD900E002049
:103B700064B50008B9B50008054B1A6832B11A6877
:103B8000013A1A601B680BB900F054B9704700BFC6
:103B9000900E0020D0E85F3F0B449BB2C0E8523F3C
:103BA000002AF7D118467047D0E85F3F5B1A9BB2F6
:103BB000C0E8523F002AF7D11846704770B5044656
:103BC0000D461646FFF7C2FF33462A4621460348F4
:103BD000FDF736FCBDE87040FDF7DCBBEAB5000838
:103BE0002DE9F0411B4C1C4E237836EA200628BFF5
:103BF0000646012B8EB00F46904600D1FEE7174DCA
:103C0000FFF7A4FF01232370FFF7B6FF2B683422D0
:103C10000133002101A82B6000F066FC2B6801969F
:103C2000012BCDF80880039704D1342201A90C4858
:103C300000F0C0FB342201A90A4800F0BBFB0A4B8C
:103C40001B680BB107489847002020700EB0BDE8F4
:103C5000F08100BF9C0E00200101FF80940E002027
:103C6000A00E0020D40E0020980E002073B5294C21
:103C70002168C1F34173032B0CBF4D428DB2C1F3D8
:103C800007432A4606462448FDF7DAFB6FF498738B
:103C90001D44072D09D8DFE805F004272A2D30360A
:103CA0003339A1681D48FDF7CBFB3046FDF7C8FB53
:103CB00061681B48FDF7C4FBA1681A48FDF7C0FB0B
:103CC000E3690193A369009304F10C010EC916483E
:103CD000FDF7B6FB21681548FDF7B2FB144802B0AA
:103CE000BDE87040FDF7ACBBA1681248DBE7A168F6
:103CF0001148D8E7A1681148D5E7A1681048D2E774
:103D0000A1681048CFE7A1680F48CCE7A1680F4829
:103D1000C9E700BFD40E002030B6000881B6000805
:103D20000EB700081EB7000831B7000880B70008BA
:103D3000CCB7000896B60008A5B60008B3B60008D0
:103D4000C5B60008D8B60008EBB60008F9B60008FA
:103D50000FB437B50C4D2978724679B90B48FFF787
:103D60003FFF0B48FFF782FF012407A906982C703C
:103D70000191FDF73BFB2046FDF73EFC03B0BDE89B
:103D8000304004B0704700BF9C0E00200001FF804F
:103D90001BB6000810B50C4611467246FFF720FF0F
:103DA00068B92046FFF762FFFFF7CAFE10B9FFF7B8
:103DB000C1FE08B930BFFDE70120FDF71DFC014839
:103DC00010BD00BF0F01FF8070B50446FFF7BAFBBE
:103DD0000646FFF773FE05463046FFF76FFE401BB1
:103DE000A042F9D370BD000007EE100ADFED047A9F
:103DF00067EE277AFDEEE77A17EE900AFFF7E4BF49
:103E0000002474494FF47A735843FFF7DDBF000074
:103E1000EFF31083DB4372B6044A117829B90449E1
:103E200003F001030B70012313707047090F00208A
:103E3000080F002008B5EFF31083DB0704D4352208
:103E400005490648FFF7BAFE054B00221A70054BDC
:103E50001B7803B162B608BDE6B7000842B8000897
:103E6000090F0020080F0020014B1868704700BFA1
:103E7000D00600208B899AB22DE9F0410D4611073A
:103E800080463CD46A6843F40063002AAB8165DD58
:103E9000AE6A002E4BD09BB203F48052002192B246
:103EA000D8F80040C8F80010002A5BD02A6D5F07E0
:103EB00005D569682B6B521A0BB1EB6BD21A4046D1
:103EC000E9690023B047461C56D0AB892A692A60AD
:103ED00023F400639BB200226A60DA04AB813BD416
:103EE000296BC8F8004011B305F14003994202D094
:103EF000404606F083F800202863BDE8F0812E6973
:103F0000AEB12C682E6091070CBF6B690023A41B17
:103F1000AB600AE0324623466F6AE9694046B8471B
:103F20000028A4EB0004064404DD002CF2DC002091
:103F3000BDE8F081AB8943F04003AB814FF0FF3027
:103F4000BDE8F081AB892A69696023F400639BB204
:103F5000AB81DB042A60C3D52865C1E7EA6B002A80
:103F600096DCE4E701234046E969B047431C02467A
:103F700019D0AB89AE6A9AE7D8F800100029E1D0D1
:103F80001D2907D0162905D0AB8943F04003AB812A
:103F9000BDE8F081AB892A692A6023F4006300221E
:103FA000AB816A609CE7D8F80030002BE1D01D2B74
:103FB00007D0162B05D0AB8943F04003AB81BDE899
:103FC000F081C8F80040B2E710B5044682B008B1ED
:103FD000836B53B1B1F90C0008B902B010BD204693
:103FE00002B0BDE81040FFF745BF019100F092F824
:103FF0000199EFE720B1054B01461868FFF7E4BFD0
:10400000034B0449186800F0B9B800BFD00600207F
:1040100060B80008C93F0008014900F0AFB800BF10
:10402000816C00082DE9F04F354B4568C3630024CF
:10403000074600F53B7204230321C0F8E412C0F8E0
:10404000E822C0F8E04283B02C606C60AC606C6623
:10405000EC812C616C61AC61AB81214605F15C00A7
:10406000082200F041FABE68DFF898B0DFF898A0A7
:10407000DFF89890DFF89880C5F820B00123092276
:10408000C5F824A0C5F82890C5F82C80ED6121461C
:10409000F381B28106F15C0034607460B4607466D0
:1040A00034617461B4610822019300F01DFAFD6867
:1040B000F66112200222C6F820B0C6F824A0C6F885
:1040C0002890C6F82C802146A881EA812C606C607B
:1040D000AC606C662C616C61AC6105F15C0008221F
:1040E00000F002FA019BED61C5F820B0C5F824A0EC
:1040F000C5F82890C5F82C80BB6303B0BDE8F08FED
:104100001940000885450008A9450008E145000858
:1041100001460008836B03B17047FFF783BF00BF00
:10412000704700BF704700BF38B5084B084DED1A07
:10413000AC1018BFED1805D0013C55F8043D984768
:10414000002CF9D1BDE8384006F052BD500B0020DC
:10415000540B002038B5084C00230546084611468C
:104160002360FDF791FB431C00D038BD2368002B72
:10417000FBD02B6038BD00BF941000202DE9F84320
:1041800010F538771FD0884606464FF000097D6845
:10419000BC68013D11D4A389012B05F1FF3508D975
:1041A000B4F90E3001332146304602D0C04749EA07
:1041B00000096B1C04F16804EDD13F68002FE6D1C3
:1041C0004846BDE8F883B9464846BDE8F88300BFD5
:1041D00070B50F4E0F4D761BB61018BF002405D0DA
:1041E000013455F8043B9847A642F9D10A4E0B4DCD
:1041F000761B06F0F7FCB61018BF002406D0013479
:1042000055F8043B9847A642F9D170BD70BD00BF78
:10421000480B0020480B0020500B0020480B0020CA
:104220008B899AB212F0020F3CD1F0B50C46B1F96D
:104230000E10002991B0054619DB01AAFFF78AFF8D
:10424000002812DB029B03F47043B3F5004FA3F583
:104250000057B7FA87F74FEA57172AD0A38943F4D4
:104260000063A3814FF480660BE0A3899AB212F039
:10427000800F43F40063A3810CBF4FF48066402697
:1042800000272846314605F0B5FEA38940B31A4AF7
:10429000EA6343F08003A3812060206166619FB9D7
:1042A00011B0F0BD01F1430301220B600B614A61C3
:1042B0007047124BA26A9A42D0D1A3894FF480660C
:1042C0003343A381E664DCE72846B4F90E1002F01C
:1042D00019FD0028E4D0A38943F00103A381DFE79F
:1042E0009A05DDD404F1430243F002030121A381C6
:1042F000226022616161D3E719400008E1450008AE
:10430000024B0146186805F075BE00BFD0060020BC
:10431000024B0146186805F071BE00BFD0060020B0
:10432000830770B4C9B240D0541E002A3FD003782E
:104330008B4218BF431C06D11DE0F4B102788A42BB
:1043400004F1FF3417D013F0030F184603F10103F3
:10435000F3D1032C14D884B103788B420BD0051908
:10436000431C02E002788A4205D0AB42184603F1B2
:104370000103F7D1002070BC7047204670BC704725
:1043800041EA0126024646EA064610460432036820
:104390007340A3F1013525EA030313F0803FDAD11E
:1043A000043C032C1046F0D8D5E71446D1E710465C
:1043B000E1E700BF844641EA000313F003036DD137
:1043C000403A41D351F8043B40F8043B51F8043BD8
:1043D00040F8043B51F8043B40F8043B51F8043BDF
:1043E00040F8043B51F8043B40F8043B51F8043BCF
:1043F00040F8043B51F8043B40F8043B51F8043BBF
:1044000040F8043B51F8043B40F8043B51F8043BAE
:1044100040F8043B51F8043B40F8043B51F8043B9E
:1044200040F8043B51F8043B40F8043B51F8043B8E
:1044300040F8043B51F8043B40F8043B51F8043B7E
:1044400040F8043B403ABDD2303211D351F8043B1E
:1044500040F8043B51F8043B40F8043B51F8043B5E
:1044600040F8043B51F8043B40F8043B103AEDD2CD
:104470000C3205D351F8043B40F8043B043AF9D21E
:10448000043208D0D2071CBF11F8013B00F8013BF1
:1044900001D30B8803806046704700BF082A13D3FE
:1044A0008B078DD010F003038AD0C3F10403D21A16
:1044B000DB071CBF11F8013B00F8013B80D331F84A
:1044C000023B20F8023B7BE7043AD9D3013A11F8CA
:1044D000013B00F8013BF9D20B7803704B78437035
:1044E0008B7883706046704770B4840746D0541E42
:1044F000002A41D0CDB2034602E0621EE4B3144666
:1045000003F8015B9A07F8D1032C2ED9CDB245EA06
:1045100005250F2C45EA054519D903F11002264659
:10452000103E0F2E42F8105C42F80C5C42F8085C1A
:1045300042F8045C02F11002F2D8A4F1100222F059
:104540000F0204F00F041032032C13440DD91E4641
:104550002246043A032A46F8045BFAD8221F22F0C6
:1045600003020432134404F003042CB1C9B21C4406
:1045700003F8011BA342FBD170BC704714460346ED
:10458000C2E700BF10B50C46B1F90E1002F0E2FE12
:10459000002803DB236D0344236510BDA38923F4A6
:1045A0008053A38110BD00BF2DE9F04116468A89D2
:1045B0001D46D3050C46074606D50022B1F90E105C
:1045C000022302F0BFFBA289B4F90E1022F480523C
:1045D000A281384632462B46BDE8F04101F0EABAE6
:1045E00010B50C46B1F90E1002F0ACFBA389421CC9
:1045F0000EBF23F4805343F480532065A38110BD84
:10460000B1F90E1001F04CBB20F0030110F00300D3
:10461000C0F1000051F8043B00F1040C4FEACC0C4F
:104620006FF000021CBF22FA0CF213434FF0010C92
:104630004CEA0C2C4CEA0C4CA3EB0C0222EA0302D1
:1046400012EACC1204BF51F8043B0430F4D0C2F19A
:10465000000102EA0102B2FA82F2C2F11F0200EB8B
:10466000D2007047000000002DE9F04FC1B01C4699
:1046700089460892074602F061FB036815931846C5
:10468000FFF7C2FF0C9416901FB1BB6B002B00F01C
:10469000F380B9F80C2093B29E040AD4D9F86410C0
:1046A00042F4005321F40051A9F80C30C9F8641009
:1046B0009BB21D0740F1AA80D9F81020002A00F013
:1046C000A58003F01A030A2B00F0AC809FED6E7BEF
:1046D00000238DED127B119325932493149317934C
:1046E000099330AB23931C46B846089D2B78002BCA
:1046F00000F0C680252B02D1C2E0252B03D015F88F
:10470000013F002BF9D1089BEE1A7EB1249B259A1C
:104710000899216001333244072B66602592249367
:1047200000F393800834099B334409932B78002BC2
:1047300000F093800023691C4FF0FF3A6D788DF8EC
:104740006F301A460A93069356464B1CA5F120017A
:10475000582900F2CD83DFE811F05C02CB03CB03D4
:104760000203CB03CB03CB03CB03CB03CB03090364
:10477000D202CB03F8015303CB03D602DD02DD02E4
:10478000DD02DD02DD02DD02DD02DD02DD02CB0342
:10479000CB03CB03CB03CB03CB03CB03CB03CB03A9
:1047A000CB0371029302CB039302CB03CB03CB0366
:1047B000CB03CB02CB03CB036E03CB03CB03CB03E7
:1047C000CB03CB03B503CB03CB038B03CB03CB03CF
:1047D000CB03CB03CB03CB03CB03CB03CB03CB0369
:1047E000A003170393029302930230031703CB0332
:1047F000CB033703CB034103FF01EC026302CB037E
:104800001102CB039B00CB03CB033602384649464B
:1048100001F0E4F9A0B9B9F80C3003F01A030A2B3F
:104820007FF454AFB9F90E30002BFFF64FAF384686
:104830004946089A234601F037F941B0BDE8F08FA8
:104840004FF0FF3041B0BDE8F08F4046494623AA03
:1048500004F066F840B930AC65E7259B23B14046CB
:10486000494623AA04F05CF8B9F80C305A06E7D49C
:10487000099841B0BDE8F08F3846FFF74BFC08E7D8
:10488000089D53E7AFF30080000000000000000027
:104890000893069BB2469E0640F11E830C9F073785
:1048A00027F0070303F10802D3E900670C92012304
:1048B0004FF0000C8DF86FC0CDF83CA0BAF1000F9E
:1048C00003DB069A22F08002069256EA070240F0C5
:1048D0001F83BAF1000F00F01C84012B00F020832D
:1048E000022B00F0528430A9F20842EA4772F8081D
:1048F00006F0070307461646303356EA070201F86A
:10490000013DF1D1069A0E91D00700F1F98430AB48
:104910005B1A0B930B9A92455346B8BF1346079305
:1049200000231093BCF1000F02D0079B01330793C3
:10493000069B13F002030D9302D0079B02330793EB
:10494000069B13F0840640F0E0820A9B079AC2EBB4
:10495000030ABAF1000F40F3D882BAF1100F25997B
:10496000249AB34FC8BF4FF0100B07DC1EE0AAF12A
:10497000100ABAF1100F04F1080417DD01321031EA
:10498000072A2591249284E88008F0DD40464946B4
:1049900023AA03F0C5FF00287FF466AFAAF1100A2E
:1049A000BAF1100F2599249A30ACE7DC01320AEBFA
:1049B000010B072ACDF894B0249284E8800400F318
:1049C0004A849DF86FC00834BCF1000F0FD0249BBF
:1049D00001330BF1010B0DF16F010122072BCDF813
:1049E00094B0249384E8060000F3B18308340D9B4F
:1049F00073B1249B01330BF1020B1CA90222072B7C
:104A0000CDF894B0249384E8060000F3AC83083416
:104A1000802E00F0F0820F9B0B9AC2EB030ABAF1D2
:104A2000000F32DDBAF1100F249A824F22DD1026DA
:104A30005B4606E0AAF1100ABAF1100F04F108046F
:104A400017DD01321033072A259324922760666010
:104A5000F0DD4046494623AA03F062FF00287FF4B8
:104A600003AFAAF1100ABAF1100F259B249A30ACBB
:104A7000E7DC9B460132D344072ACDF894B0249258
:104A800084E8800400F357830834069BDB0500F1BB
:104A90005B82249B0B990E9A226001338B44072B77
:104AA000CDF894B06160249300F31D830834069B15
:104AB00059073AD50A9B079A9D1A002D35DD102D0E
:104AC000249B5B4F1EDD10265A4604E0103D102D3E
:104AD00004F1080415DD01331032072B25922493CD
:104AE00027606660F2DD4046494623AA03F018FFBE
:104AF00000287FF4B9AE103D102D259A249B30ACD0
:104B0000E9DC93460133AB44072BCDF894B02493F2
:104B10002760656009DD4046494623AA03F000FF8F
:104B200000287FF4A1AEDDF894B0099B079A0A999A
:104B30008A42ACBF9B185B180993BBF1000F40F091
:104B4000DE820023249330ACCFE5194606981D7809
:104B500040F004000690F8E50893069B13F020034C
:104B6000B24600F073810C9F073727F0070303F16B
:104B70000802D3E900670C92002399E60C9A089387
:104B800013680E934FF0000B8DF86FB0171D002BBC
:104B900000F06086002E0E98C0F21286594632460A
:104BA000FFF7BEFB002800F091860E9BCDF83CB0CD
:104BB000C31A0B930C9723EAE3730793CDF840B025
:104BC0009DF86FC0AEE608931B4B1493069B8DF8BF
:104BD0006F209906B24640F155810C9F073727F0A8
:104BE0000703D3E9006703F108020C92069BDB0779
:104BF00040F1E48256EA070300F0E082069A8DF85D
:104C00007150302342F002028DF870300692022378
:104C10004EE61D781946002A7FF497AD202294E5D0
:104C2000069941F0200106911D7819468DE500BFD7
:104C3000B8B8000864B8000898B800080893069B44
:104C40008DF86F2043F010030693069B9806B2463A
:104C500040F1A2800C9F073727F00707D7E9002310
:104C600007F108010C9116461F46002A73F1000354
:104C7000C0F21C849DF86FC0CDF83CA001231DE656
:104C80000893069B0C9F8DF86F201B07B246B34616
:104C900007F1070740F19B8427F0070393ED007BA2
:104CA0008DED127B03F108020C92DDE9120102F096
:104CB00065FB0128DDE9120140F006840022002393
:104CC00004F0E4FD002840F0EE859DF86FC0069EDC
:104CD000994A9A4B0321002026F08006472DD8BF21
:104CE0001A4607910F9006960E920B91109019E6B6
:104CF000069941F0080106911D78194625E51D78B1
:104D000019462B2221E5069941F0800106911D7874
:104D100019461AE5A5F13000002113F8015B01EBFB
:104D2000810100EB4101A5F130000928F5D90A9174
:104D30000CE50C9908933023069A8DF870300B46D9
:104D40000433782542F002020C937D4B1493B24653
:104D500006920E688DF8715000270223A8E5069987
:104D600041F0010106911D781946EEE40C9D296879
:104D70000A9108460028294601F10401C0F2EE8498
:104D80000C911D781946E0E40893069B8DF86F207E
:104D90009806B2463FF55EAF069BD90600F19B82AE
:104DA000069B5A0640F197820C99B1F900600431D4
:104DB000F71732463B460C9157E7069941F0400100
:104DC00006911D781946C0E41D7806996C2D00F0F7
:104DD000BE8441F0100106911946B6E40893069B83
:104DE0008DF86F209A0640F1FD830C9A099913689B
:104DF000CF170846043239460C92C3E9000174E427
:104E00001D782A2D03F1010100F02C86A5F1300058
:104E100009280B464FF000063FF698AC13F8015BEB
:104E200006EB860600EB4606A5F130000928F5D909
:104E300046EAE6768AE40893069B43F0100306935D
:104E4000069B13F02003B2467FF48DAE069A12F053
:104E5000100240F03882069B13F0400300F03382CA
:104E60000C9913460A4604320E880C9200271FE55F
:104E70000893344B1493069B8DF86F209906B24625
:104E80003FF5ABAE069BDA0640F1D1830C9A134690
:104E9000043316680C930027A8E60C9908930A6857
:104EA0008DF898200023012204319C4607920C9132
:104EB0008DF86F3026ABCDF83CC0CDF840C00B92DA
:104EC0000E9335E50893069B43F010030693069B6B
:104ED000B2469E063FF5E2AC069BD80640F19983A8
:104EE0000C9A134604321E680C9201230027DFE45B
:104EF00008938DF86F20002D3FF4AFAC0023012202
:104F00009C4607928DF89850D2E7DDF894B05BE5A7
:104F1000012B7FF4E5AC002F08BF0A2E80F0FF8143
:104F20000DF5807B30360BF8416D30ABCBEB0303D6
:104F30000B93CDF838B0EDE478B8000874B80008E9
:104F400098B8000884B80008652D40F38A80DDE930
:104F500012010022002304F08FFC002800F03181B0
:104F6000249BAE4A226001330BF1010B0122072B77
:104F7000CDF894B02493626000F3728308341D9BD3
:104F8000119A934203DB069BDF077FF590AD249BCC
:104F90001699159A226001338B44072BCDF894B0F3
:104FA0006160249300F3E1830834119B5D1E002DA2
:104FB0007FF77DAD102D249B994F40F396811026ED
:104FC0005A4604E00834103D102D40F38D81013322
:104FD0001032072B2592249327606660F2DD40464D
:104FE000494623AA03F09CFC00287FF43DAC259A97
:104FF000249B30ACE7E70A9B079A9E1A002E7FF7A6
:105000000AAD102E249A864F1FDD4FF0100A5B4622
:1050100004E0103E102E04F1080415DD01321033B7
:10502000072A2593249284E88004F2DD404649460D
:1050300023AA03F075FC00287FF416AC103E102E56
:10504000259B249A30ACE9DC9B460132B344072A05
:10505000CDF894B024922760666000F31A82083479
:10506000D9E4119B249D012B40F3D5810E9B236035
:1050700001350BF101060123072D25962495636068
:1050800000F3E5810834169A159B23600135164418
:10509000072D25962495626000F3EF8108340023E4
:1050A000DDE91201002204F0E7FB119B002840F02B
:1050B000E1800E9A013B013501321E44072D2495F3
:1050C00025962260636000F3B6810834179A626007
:1050D000013506EB020B1FAB072DCDF894B02495DC
:1050E00023607FF7E3AC4046494623AA03F018FC4F
:1050F00000287FF4B9ABDDF894B030ACD7E440467B
:10510000494623AA03F00CFC00283FF41AADFFF730
:10511000ABBB002B33D1069BDA0730D50DF5807B76
:1051200030230BF8413D30ABCBEB03030B93CDF8B1
:1051300038B0FFF7EFBB4046494623AA03F0F0FB27
:1051400000287FF491ABDDF894B030AC9DE440468C
:10515000494623AA03F0E4FB00287FF485ABDDF881
:1051600094B030AC43E44046494623AA03F0D8FB50
:1051700000287FF479ABDDF894B030AC48E430AB74
:10518000CDF82CA00E93FFF7C5BB14980DF1C00B02
:10519000330906F00F0143EA07733A091E46174622
:1051A000435C0BF8013D56EA0703F1D15A4630AB98
:1051B0009B1ACDF838B00B93FFF7ACBB0223FFF777
:1051C00077BB1D9D002D40F35782119A10998A429A
:1051D0001346A8BF0B461D460E99002D01EB020A8F
:1051E0000BDD249B21600133AB44072BCDF894B039
:1051F0006560249300F30B830834109B002DA8BF37
:105200005B1B002B1D4640F3B080102D249B044FE8
:1052100040F31A8210265A4609E000BFB4B80008CD
:1052200064B800080834103D102D40F30C8201339F
:105230001032072B2592249327606660F2DD4046EA
:10524000494623AA03F06CFB00287FF40DAB259A96
:10525000249B30ACE7E74046494623AA03F060FBB5
:1052600000287FF401AB9DF86FC0DDF894B030AC3E
:10527000FFF7AABB03F1FF3ABAF1000F7FF726AFA1
:10528000BAF1100F8F4FC8BF4FF0100B07DCEAE0E8
:105290000834AAF1100ABAF1100F40F3E480013586
:1052A0001036072D2596249584E88008F0DD4046C9
:1052B000494623AA03F034FB00287FF4D5AA259E93
:1052C000249D30ACE5E70C990A4604320E680C9236
:1052D0000027FFF7EDBA0C9A166813460433F71748
:1052E0000C9332463B46C0E493460133AB44072B54
:1052F000CDF894B02493276065607FF7D7ABF2E6D2
:10530000302B00F03E820E9B013B1A4630A80E93D4
:10531000821A30230B9201F8013CFFF7FBBA0DF122
:10532000C00BCDF81CC0304639460A22002304F0D9
:105330004DFB3032304639460BF8012D00230A224E
:1053400004F044FB06460F4656EA0703EBD1DDF8AE
:105350001CC02BE74046494623AA03F0E1FA002887
:105360007FF482AADDF894B030AC0E9A10991D9BA0
:105370000A441646119A93423EDB069AD5073BD45F
:10538000119AC6EB0A05D31A9D42A8BF1D46002DEF
:105390002F460BDD249A26600132AB44072ACDF854
:1053A00094B06560249200F368820834002FACBF8B
:1053B000DD1B1D46002D7FF77AAB102D249B414F3E
:1053C00093DD10265A4603E00834103D102D8BDD86
:1053D00001331032072B2592249327606660F3DD9A
:1053E0004046494623AA03F09BFA00287FF43CAAD2
:1053F000259A249B30ACE8E7249A169815992160E9
:1054000001328344072ACDF894B06060249200F3FF
:105410000A820834B4E7069BD8073FF527AE0E9BF7
:10542000236001350BF101060123072D25962495F4
:1054300063607FF74AAE4046494623AA03F070FAFC
:1054400000287FF411AA259E249D30AC3EE64046FC
:10545000494623AA03F064FA00287FF405AA259E92
:10546000249D30AC0FE601355644072D2596249532
:1054700084E880047FF729AEDDE74046494623AA49
:1054800003F04EFA00287FF4EFA9259E249D30AC4E
:1054900005E64046494623AA03F042FA00287FF475
:1054A000E3A9DDF894B030ACFFF7B5BA4FF02D0C9E
:1054B000764267EB47078DF86FC0CDF83CA001231B
:1054C000FFF7FCB964B8000801F058FF002800F0AD
:1054D000188125F02003BAF1FF3F079300F06482A2
:1054E000472B05D1BAF1000F14BFD3464FF0010B83
:1054F000139B069A002B42F480720D92C0F26482D4
:105500009DED127B8DED187B4FF0000A662D00F0AB
:105510006081462D00F05D81079B452B0CBF0BF190
:1055200001075F4602201DA91EAA21AB8DE881005C
:105530000392049302914046DDE9182300F058FCE1
:10554000672D0E9002D0472D40F05381069BDB075C
:1055500040F143820E9BDE19DDE918010022002391
:1055600004F08AF9002840F0AF81219B9E4206D9C1
:1055700030215A1C21921970219B9E42F9D80E9A13
:105580009B1A1193079B472B1D9B00F08581652D6E
:1055900040F3A881662D109300F02182119B109A90
:1055A000934200F30482069BD90700F13B8222EA72
:1055B000E2730B92BAF1000F40F07B8107930D9BD1
:1055C0000693CDF83CA09DF86FC0FFF7ABB927F06C
:1055D000070797ED007B07F108038DED127B0C9315
:1055E000FFF763BB069BDB060BD4069B5F0608D563
:1055F0000C9A136804320C92BDF824201A80FFF72D
:1056000074B80C9A136804320C92099A1A60FFF766
:105610006CB8069B0C9A13F0400F13463FF462AC33
:1056200016880432002701230C92FFF741B9069B2C
:105630000C9A13F0400F134676D0043316880C935F
:105640000027FFF7D3BA93460133AB44072BCDF8BD
:1056500094B02493276065603FF77CAE083484E6FD
:105660004046494623AA03F05BF900287FF4FCA8D2
:10567000DDF894B030AC82E4249BB14A226001335F
:105680000BF1010B0122072BCDF894B0249362603B
:1056900050DC08342DB9119B1BB9069BDE077FF542
:1056A00006AA249B1699159A226001330BEB01027E
:1056B000072B25926160249300F3698108346D42C1
:1056C000002D6FDD102D9F4FC8BF102605DCB7E001
:1056D0000834103D102D40F3B38001331032072BF6
:1056E0002592249327606660F2DD4046494623AA4E
:1056F00003F016F900287FF4B7A8259A249B30AC54
:10570000E7E7069E904A914B9DF86FC00F900321EA
:1057100026F08006472DD8BF1A46079106961090AE
:105720000E920B91FFF7FEB8043316680C93002716
:10573000FFF75CBA4046494623AA03F0F1F8002877
:105740007FF492A81D9DDDF894B030ACA2E741F043
:10575000200106915D78591CFEF7F7BF0A980C915D
:1057600040420A901946FFF7F1B94046494623AA3C
:1057700003F0D6F800287FF477A8DDF894B030ACB9
:1057800013E40E9A30AB9B1A0B93FFF7C3B8404655
:10579000494623AA03F0C4F800287FF465A8259A97
:1057A000249B30AC11986060013302EB000B072B97
:1057B0000E9ACDF894B0249322607FF777A992E4F3
:1057C000CDF83CB0FEF720FF0C970B900346FFF797
:1057D000F2B903201DA91EAA21AB8DE8010803928E
:1057E000049302914046DDE9182300F001FB5F4677
:1057F0000E900E9BDE19079B462B7FF4ADAE0E9BE1
:105800001B78302B00F000811D9F3E44A4E64046EB
:10581000494623AA03F084F800287FF425A8DDF880
:1058200094B030ACE9E44046494623AA03F078F846
:1058300000287FF419A81D9BDDF894B030AC9FE5DB
:1058400001332A44072B25922493276065609EDC50
:105850000834A7E7062E334628BF06230B9323EA16
:10586000E373DDF838C00793394B0C97CDF83CC093
:10587000CDF840C00E93FFF755B84046494623AADD
:1058800003F04EF800287EF4EFAF1D9B119ADDF86F
:1058900094B0D31A30AC89E5DF1C22DB9B4520DBBA
:1058A000109367257AE64FF02D0C8DF86FC0FFF747
:1058B0000EBA07930D9B06934FF02D0C00238DF825
:1058C0006FC00F93FFF731B8334658E626EAE67308
:1058D0000F900C9710909DF86FC007930B96FFF7F1
:1058E00021B8023D013B002B1D93BABF5B422D2224
:1058F0002B22092B8DF87C508DF87D2040F3988069
:105900000DF18B063046134A82FB0321DA17C2EBF6
:10591000A10202EB8201A3EB410303F13001092A4A
:10592000134600F8011DEEDC02463033D9B202F80E
:10593000011D964240F2A9800DF17E0203460DE062
:10594000B4B8000864B8000880B800087CB8000843
:10595000ACB800086766666613F8011B02F8011B05
:10596000B342F9D123AB1B1A0DF17E0213441FAAD7
:105970009B1A119A1793012A13440B9369DD0B9B11
:10598000002201330B93109223EAE37312E64046A0
:10599000494623AA02F0C4FF00287EF465AF1D9D8E
:1059A000259A249B30AC8AE64FF0060BA0E5109BAD
:1059B000002BD8BFC3F10206119BC8BF0126F31804
:1059C0000B9323EAE373F5E5DDE9120101F10043EE
:1059D000189019934FF02D0A98E5219BCFE5002BE5
:1059E0002EDDBBF1000F07D1069BDE0704D4109A11
:1059F0000B9222EAE273DDE5109B0BF101063344C2
:105A00000B9323EAE373D5E5DDE9180100220023B7
:105A100003F032FF00287FF4F7AEC7F101071D97AE
:105A20003E4499E5109B01330B9323EAE373C1E5F0
:105A3000303330228DF87F308DF87E2020AB96E712
:105A4000BBF1000F1BD1069BD80718D401230B9381
:105A5000B0E5069B13F0010391D110930B9B23EA51
:105A6000E373A7E50C9D2E6828460430002E5D7870
:105A70000C90BEF66AAE4FF0FF36FEF766BE0BF135
:105A800002030B9323EAE37394E50DF17E036EE7C3
:105A900030B4044C0D46134601462A46206830BCFB
:105AA000FEF7E2BDD00600202DE9F0420C46ADF530
:105AB0008D6DB1F80CE0E769496EB4F80E9019915C
:105AC0001AAD4FF480662EF0020E4FF0000C0797CF
:105AD0006946676A0095049502960596ADF80CE054
